R4152018588337     000000000936660000000000000000000000000033881454741PD  GOVT OF AP Hyderabad salary    STATE BANK OF INDIA SECRETARIAT    52018588337                     Joint Director of Marketing        AGRICULTURE MARKETING, COMMISSIONE SBHY002051552018588337                        URGENT  Joint Director of Marketi52018588337     
R4152018588199     000000000445830000000000000000000000000033881454741PD  GOVT OF AP Hyderabad salary    STATE BANK OF INDIA SECRETARIAT    52018588199                     Deputy Director of Marketing       AGRICULTURE MARKETING, COMMISSIONE SBHY002051552018588199                        URGENT  Deputy Director of Market52018588199     
R4152099565211     000000000473000000000000000000000000000033881454741PD  GOVT OF AP Hyderabad salary    STATE BANK OF INDIA SECRETARIAT    52099565211                     Deputy Director of Marketing       AGRICULTURE MARKETING, COMMISSIONE SBHY002017152099565211                        URGENT  Deputy Director of Market52099565211     
R4152115350074     000000000460830000000000000000000000000033881454741PD  GOVT OF AP Hyderabad salary    STATE BANK OF INDIA SECRETARIAT    52115350074                     Assistant Director of Marketing    AGRICULTURE MARKETING, COMMISSIONESBHY0020338552115350074                        URGENT  Assistant Director of Mar52115350074     
R4152018588064     000000000500000000000000000000000000000033881454741PD  GOVT OF AP Hyderabad salary    STATE BANK OF INDIA SECRETARIAT    52018588064                     Assistant Director of Marketing    AGRICULTURE MARKETING, COMMISSIONE SBHY002051552018588064                        URGENT  Assistant Director of Mar52018588064     
R4152099565120     000000001338740000000000000000000000000033881454741PD  GOVT OF AP Hyderabad salary    STATE BANK OF INDIA SECRETARIAT    52099565120                     Assistant Director of Marketing    AGRICULTURE MARKETING, COMMISSIONE SBHY002017152099565120                        URGENT  Assistant Director of Mar52099565120     
R4162212070454     000000000482210000000000000000000000000033881454741PD  GOVT OF AP Hyderabad salary    STATE BANK OF INDIA SECRETARIAT    62212070454                     Assistant Director of Marketing    AGRICULTURE MARKETING, COMMISSIONE SBHY002048862212070454                        URGENT  Assistant Director of Mar62212070454     
R4152084625043     000000000583170000000000000000000000000033881454741PD  GOVT OF AP Hyderabad salary    STATE BANK OF INDIA SECRETARIAT    52084625043                     Assistant Director of Marketing    AGRICULTURE MARKETING, COMMISSIONE SBHY002055352084625043                        URGENT  Assistant Director of Mar52084625043     
R4152102325508     000000001082070000000000000000000000000033881454741PD  GOVT OF AP Hyderabad salary    STATE BANK OF INDIA SECRETARIAT    52102325508                     Joint Director of Marketing        AGRICULTURE MARKETING, COMMISSIONE SBHY002129652102325508                        URGENT  Joint Director of Marketi52102325508     
R4152102326341     000000004171860000000000000000000000000033881454741PD  GOVT OF AP Hyderabad salary    STATE BANK OF INDIA SECRETARIAT    52102326341                     Deputy Director of Marketing       AGRICULTURE MARKETING, COMMISSIONE SBHY002029652102326341                        URGENT  Deputy Director of Market52102326341     
R4162211133372     000000000605750000000000000000000000000033881454741PD  GOVT OF AP Hyderabad salary    STATE BANK OF INDIA SECRETARIAT    62211133372                     Assistant Director of Marketing    AGRICULTURE MARKETING, COMMISSIONE SBHY002078462211133372                        URGENT  Assistant Director of Mar62211133372     
R4162207535339     000000000302490000000000000000000000000033881454741PD  GOVT OF AP Hyderabad salary    STATE BANK OF INDIA SECRETARIAT    62207535339                     Assistant Director of Marketing    AGRICULTURE MARKETING, COMMISSIONE SBHY002054862207535339                        URGENT  Assistant Director of Mar62207535339     
R4152102325495     000000000481320000000000000000000000000033881454741PD  GOVT OF AP Hyderabad salary    STATE BANK OF INDIA SECRETARIAT    52102325495                     Assistant Director of Marketing    AGRICULTURE MARKETING, COMMISSIONE SBHY002129652102325495                        URGENT  Assistant Director of Mar52102325495     
R4152129486077     000000000328830000000000000000000000000033881454741PD  GOVT OF AP Hyderabad salary    STATE BANK OF INDIA SECRETARIAT    52129486077                     Assistant Director of Marketing    AGRICULTURE MARKETING, COMMISSIONE SBHY002038452129486077                        URGENT  Assistant Director of Mar52129486077     
R4152078885248     000000005507100000000000000000000000000033881454741PD  GOVT OF AP Hyderabad salary    STATE BANK OF INDIA SECRETARIAT    52078885248                     Joint Director of Marketing        AGRICULTURE MARKETING, COMMISSIONE SBHY002051352078885248                        URGENT  Joint Director of Marketi52078885248     
R4152078885179     000000000460590000000000000000000000000033881454741PD  GOVT OF AP Hyderabad salary    STATE BANK OF INDIA SECRETARIAT    52078885179                     Deputy Director of Marketing       AGRICULTURE MARKETING, COMMISSIONE SBHY002051352078885179                        URGENT  Deputy Director of Market52078885179     
R4152078885102     000000000319170000000000000000000000000033881454741PD  GOVT OF AP Hyderabad salary    STATE BANK OF INDIA SECRETARIAT    52078885102                     Assistant Director of Marketing    AGRICULTURE MARKETING, COMMISSIONE SBHY002051352078885102                        URGENT  Assistant Director of Mar52078885102     
R4162205671374     000000000356660000000000000000000000000033881454741PD  GOVT OF AP Hyderabad salary    STATE BANK OF INDIA SECRETARIAT    62205671374                     Assistant Director of Marketing    AGRICULTURE MARKETING, COMMISSIONE SBHY002049262205671374                        URGENT  Assistant Director of Mar62205671374     
R4152077525218     000000001198330000000000000000000000000033881454741PD  GOVT OF AP Hyderabad salary    STATE BANK OF INDIA SECRETARIAT    52077525218                     Assistant Director of Marketing    AGRICULTURE MARKETING, COMMISSIONE SBHY002057552077525218                        URGENT  Assistant Director of Mar52077525218     
R4162011804022     000000000403320000000000000000000000000033881454741PD  GOVT OF AP Hyderabad salary    STATE BANK OF INDIA SECRETARIAT    62011804022                     Assistant Director of Marketing    AGRICULTURE MARKETING, COMMISSIONE SBHY002079562011804022                        URGENT  Assistant Director of Mar62011804022     
R4152078885191     000000005533380000000000000000000000000033881454741PD  GOVT OF AP Hyderabad salary    STATE BANK OF INDIA SECRETARIAT    52078885191                     Executive Engineer                 AGRICULTURE MARKETING, COMMISSIONE SBHY002051352078885191                        URGENT  Executive Engineer       52078885191     
R4162008311224     000000002735000000000000000000000000000033881454741PD  GOVT OF AP Hyderabad salary    STATE BANK OF INDIA SECRETARIAT    62008311224                     Deputy Executive Engineer          AGRICULTURE MARKETING, COMMISSIONE SBHY002049262008311224                        URGENT  Deputy Executive Engineer62008311224     
R4152078885180     000000006638880000000000000000000000000033881454741PD  GOVT OF AP Hyderabad salary    STATE BANK OF INDIA SECRETARIAT    52078885180                     Deputy Executive Engineer          AGRICULTURE MARKETING, COMMISSIONE SBHY002051352078885180                        URGENT  Deputy Executive Engineer52078885180     
R4152077525332     000000005328140000000000000000000000000033881454741PD  GOVT OF AP Hyderabad salary    STATE BANK OF INDIA SECRETARIAT    52077525332                     Deputy Executive Engineer          AGRICULTURE MARKETING, COMMISSIONE SBHY002057552077525332                        URGENT  Deputy Executive Engineer52077525332     
R4162212099565     000000006852490000000000000000000000000033881454741PD  GOVT OF AP Hyderabad salary    STATE BANK OF INDIA SECRETARIAT    62212099565                     Deputy Executive Engineer          AGRICULTURE MARKETING, COMMISSIONE SBHY002079562212099565                        URGENT  Deputy Executive Engineer62212099565     
R4152018588235     000000013066660000000000000000000000000033881454741PD  GOVT OF AP Hyderabad salary    STATE BANK OF INDIA SECRETARIAT    52018588235                     Executive Engineer                 AGRICULTURE MARKETING, COMMISSIONE SBHY002051552018588235                        URGENT  Executive Engineer       52018588235     
R4152129486157     000000003934160000000000000000000000000033881454741PD  GOVT OF AP Hyderabad salary    STATE BANK OF INDIA SECRETARIAT    52129486157                     Deputy Executive Engineer          AGRICULTURE MARKETING, COMMISSIONE SBHY002038452129486157                        URGENT  Deputy Executive Engineer52129486157     
R4162008316017     000000005897960000000000000000000000000033881454741PD  GOVT OF AP Hyderabad salary    STATE BANK OF INDIA SECRETARIAT    62008316017                     Deputy Executive Engineer          AGRICULTURE MARKETING, COMMISSIONE SBHY002033862008316017                        URGENT  Deputy Executive Engineer62008316017     
R4152018588202     000000007612490000000000000000000000000033881454741PD  GOVT OF AP Hyderabad salary    STATE BANK OF INDIA SECRETARIAT    52018588202                     Deputy Executive Engineer          AGRICULTURE MARKETING, COMMISSIONE SBHY002051552018588202                        URGENT  Deputy Executive Engineer52018588202     
R4162008145493     000000007758360000000000000000000000000033881454741PD  GOVT OF AP Hyderabad salary    STATE BANK OF INDIA SECRETARIAT    62008145493                     Executive Engineer                 AGRICULTURE MARKETING, COMMISSIONE SBHY002129662008145493                        URGENT  Executive Engineer       62008145493     
R4152064980103     000000004662290000000000000000000000000033881454741PD  GOVT OF AP Hyderabad salary    STATE BANK OF INDIA SECRETARIAT    52064980103                     Deputy Executive Engineer          AGRICULTURE MARKETING, COMMISSIONE SBHY002078452064980103                        URGENT  Deputy Executive Engineer52064980103     
R4152065090222     000000004711370000000000000000000000000033881454741PD  GOVT OF AP Hyderabad salary    STATE BANK OF INDIA SECRETARIAT    52065090222                     Deputy Executive Engineer          AGRICULTURE MARKETING, COMMISSIONE SBHY002054852065090222                        URGENT  Deputy Executive Engineer52065090222     
R4162008146032     000000005351570000000000000000000000000033881454741PD  GOVT OF AP Hyderabad salary    STATE BANK OF INDIA SECRETARIAT    62008146032                     Deputy Executive Engineer          AGRICULTURE MARKETING, COMMISSIONE SBHY002129662008146032                        URGENT  Deputy Executive Engineer62008146032     
R4162031202386     000000009227820000000000000000000000000033881454741PD  GOVT OF AP Hyderabad salary    STATE BANK OF INDIA SECRETARIAT    62031202386                     Executive Engineer                 AGRICULTURE MARKETING, COMMISSIONE SBHY002017162031202386                        URGENT  Executive Engineer       62031202386     
R4162207332135     000000002764160000000000000000000000000033881454741PD  GOVT OF AP Hyderabad salary    STATE BANK OF INDIA SECRETARIAT    62207332135                     Deputy Executive Engineer          AGRICULTURE MARKETING, COMMISSIONE SBHY002017162207332135                        URGENT  Deputy Executive Engineer62207332135     
R4162007868810     000000005512880000000000000000000000000033881454741PD  GOVT OF AP Hyderabad salary    STATE BANK OF INDIA SECRETARIAT    62007868810                     Deputy Executive Engineer          AGRICULTURE MARKETING, COMMISSIONE SBHY002077362007868810                        URGENT  Deputy Executive Engineer62007868810     
R4152117328445     000000004410620000000000000000000000000033881454741PD  GOVT OF AP Hyderabad salary    STATE BANK OF INDIA SECRETARIAT    52117328445                     Deputy Executive Engineer          AGRICULTURE MARKETING, COMMISSIONE SBHY002055352117328445                        URGENT  Deputy Executive Engineer52117328445     
