R41000000001000000000000000000000000000000033881454741PD  GOVT OF AP Hyderabad salary    STATE BANK OF INDIA SECRETARIAT    1.03E+14                        P Paramesham                       SCHEDULED TRIBES CO-OP FINANCE COR ANDB00010261.03E+14                           URGENT  P Paramesham                                              1.03E+14        EMLdpao-sect@ap.nic.in             
R41000000000600000000000000000000000000000033881454741PD  GOVT OF AP Hyderabad salary    STATE BANK OF INDIA SECRETARIAT    4.45E+13                        Angadi Indra                       SCHEDULED TRIBES CO-OP FINANCE COR ANDB00000804.45E+13                           URGENT  Angadi Indra                                              4.45E+13        EMLdpao-sect@ap.nic.in             
R41000000000600000000000000000000000000000033881454741PD  GOVT OF AP Hyderabad salary    STATE BANK OF INDIA SECRETARIAT    1.35E+14                        Chalamcharla Bala Guravaiah        SCHEDULED TRIBES CO-OP FINANCE COR ANDB00013451.35E+14                           URGENT  Chalamcharla Bala Guravai                                 1.35E+14        EMLdpao-sect@ap.nic.in             
R41000000000060000000000000000000000000000033881454741PD  GOVT OF AP Hyderabad salary    STATE BANK OF INDIA SECRETARIAT    1.35E+14                        Kommi Guravaiah                    SCHEDULED TRIBES CO-OP FINANCE COR ANDB00013451.35E+14                           URGENT  Kommi Guravaiah                                           1.35E+14        EMLdpao-sect@ap.nic.in             
R41000000000600000000000000000000000000000033881454741PD  GOVT OF AP Hyderabad salary    STATE BANK OF INDIA SECRETARIAT    1.35E+14                        Indla Sunitha                      SCHEDULED TRIBES CO-OP FINANCE COR ANDB00013451.35E+14                           URGENT  Indla Sunitha                                             1.35E+14        EMLdpao-sect@ap.nic.in             
R41000000000600000000000000000000000000000033881454741PD  GOVT OF AP Hyderabad salary    STATE BANK OF INDIA SECRETARIAT    1.35E+14                        Jagannadham Adilakshmi             SCHEDULED TRIBES CO-OP FINANCE COR ANDB00013451.35E+14                           URGENT  Jagannadham Adilakshmi                                    1.35E+14        EMLdpao-sect@ap.nic.in             
R41000000000600000000000000000000000000000033881454741PD  GOVT OF AP Hyderabad salary    STATE BANK OF INDIA SECRETARIAT    1.35E+14                        Jagannadam Sivasankar              SCHEDULED TRIBES CO-OP FINANCE COR ANDB00013451.35E+14                           URGENT  Jagannadam Sivasankar                                     1.35E+14        EMLdpao-sect@ap.nic.in             
R41000000000600000000000000000000000000000033881454741PD  GOVT OF AP Hyderabad salary    STATE BANK OF INDIA SECRETARIAT    1.01E+13                        Vadithya Kulayamma                 SCHEDULED TRIBES CO-OP FINANCE COR ANDB00001011.01E+13                           URGENT  Vadithya Kulayamma                                        1.01E+13        EMLdpao-sect@ap.nic.in             
R41000000000600000000000000000000000000000033881454741PD  GOVT OF AP Hyderabad salary    STATE BANK OF INDIA SECRETARIAT    1.01E+12                        Dungavat Sakku Bai                 SCHEDULED TRIBES CO-OP FINANCE COR ANDB00001011.01E+12                           URGENT  Dungavat Sakku Bai                                        1.01E+12        EMLdpao-sect@ap.nic.in             
R41000000000600000000000000000000000000000033881454741PD  GOVT OF AP Hyderabad salary    STATE BANK OF INDIA SECRETARIAT    1.90E+13                        Mannem Ravanamma                   SCHEDULED TRIBES CO-OP FINANCE COR ANDB00001901.90E+13                           URGENT  Mannem Ravanamma                                          1.90E+13        EMLdpao-sect@ap.nic.in             
R41000000001000000000000000000000000000000033881454741PD  GOVT OF AP Hyderabad salary    STATE BANK OF INDIA SECRETARIAT    1.90E+13                        Itta Baburao                       SCHEDULED TRIBES CO-OP FINANCE COR ANDB00001901.90E+13                           URGENT  Itta Baburao                                              1.90E+13        EMLdpao-sect@ap.nic.in             
R41000000000600000000000000000000000000000033881454741PD  GOVT OF AP Hyderabad salary    STATE BANK OF INDIA SECRETARIAT    1.04E+14                        Mekala Veeraanjaneyalu             SCHEDULED TRIBES CO-OP FINANCE COR ANDB00010381.04E+14                           URGENT  Mekala Veeraanjaneyalu                                    1.04E+14        EMLdpao-sect@ap.nic.in             
R41000000000600000000000000000000000000000033881454741PD  GOVT OF AP Hyderabad salary    STATE BANK OF INDIA SECRETARIAT    1.04E+14                        Maanipati Ramanamma                SCHEDULED TRIBES CO-OP FINANCE COR ANDB00010381.04E+14                           URGENT  Maanipati Ramanamma                                       1.04E+14        EMLdpao-sect@ap.nic.in             
R41000000000300000000000000000000000000000033881454741PD  GOVT OF AP Hyderabad salary    STATE BANK OF INDIA SECRETARIAT    2.32E+13                        Komaragiri Anjaiah                 SCHEDULED TRIBES CO-OP FINANCE COR ANDB00002322.32E+13                           URGENT  Komaragiri Anjaiah                                        2.32E+13        EMLdpao-sect@ap.nic.in             
R41000000000300000000000000000000000000000033881454741PD  GOVT OF AP Hyderabad salary    STATE BANK OF INDIA SECRETARIAT    2.32E+13                        Komaragiri Sreenu                  SCHEDULED TRIBES CO-OP FINANCE COR ANDB00002322.32E+13                           URGENT  Komaragiri Sreenu                                         2.32E+13        EMLdpao-sect@ap.nic.in             
R41000000000300000000000000000000000000000033881454741PD  GOVT OF AP Hyderabad salary    STATE BANK OF INDIA SECRETARIAT    8.17E+13                        Chinan Reddeppa                    SCHEDULED TRIBES CO-OP FINANCE COR ANDB00008178.17E+13                           URGENT  Chinan Reddeppa                                           8.17E+13        EMLdpao-sect@ap.nic.in             
R41000000000300000000000000000000000000000033881454741PD  GOVT OF AP Hyderabad salary    STATE BANK OF INDIA SECRETARIAT    8.17E+13                        Tetugu Pulayya                     SCHEDULED TRIBES CO-OP FINANCE COR ANDB00008178.17E+13                           URGENT  Tetugu Pulayya                                            8.17E+13        EMLdpao-sect@ap.nic.in             
R41000000000600000000000000000000000000000033881454741PD  GOVT OF AP Hyderabad salary    STATE BANK OF INDIA SECRETARIAT    3.04E+13                        Komaragiri Venkatarao              SCHEDULED TRIBES CO-OP FINANCE COR ANDB00003043.04E+13                           URGENT  Komaragiri Venkatarao                                     3.04E+13        EMLdpao-sect@ap.nic.in             
R41000000000600000000000000000000000000000033881454741PD  GOVT OF AP Hyderabad salary    STATE BANK OF INDIA SECRETARIAT    3.04E+13                        Kathi Srinu                        SCHEDULED TRIBES CO-OP FINANCE COR ANDB00003043.04E+13                           URGENT  Kathi Srinu                                               3.04E+13        EMLdpao-sect@ap.nic.in             
R41000000000600000000000000000000000000000033881454741PD  GOVT OF AP Hyderabad salary    STATE BANK OF INDIA SECRETARIAT    3.04E+13                        Katti Subbarao                     SCHEDULED TRIBES CO-OP FINANCE COR ANDB00003043.04E+13                           URGENT  Katti Subbarao                                            3.04E+13        EMLdpao-sect@ap.nic.in             
R41000000000600000000000000000000000000000033881454741PD  GOVT OF AP Hyderabad salary    STATE BANK OF INDIA SECRETARIAT    3.04E+13                        Potluri Ravichandra                SCHEDULED TRIBES CO-OP FINANCE COR ANDB00003043.04E+13                           URGENT  Potluri Ravichandra                                       3.04E+13        EMLdpao-sect@ap.nic.in             
R41000000000600000000000000000000000000000033881454741PD  GOVT OF AP Hyderabad salary    STATE BANK OF INDIA SECRETARIAT    3.04E+13                        Potluri Dhasaradharamaiah          SCHEDULED TRIBES CO-OP FINANCE COR ANDB00003043.04E+13                           URGENT  Potluri Dhasaradharamaiah                                 3.04E+13        EMLdpao-sect@ap.nic.in             
R41000000000600000000000000000000000000000033881454741PD  GOVT OF AP Hyderabad salary    STATE BANK OF INDIA SECRETARIAT    3.04E+13                        Chevuri Vijeta                     SCHEDULED TRIBES CO-OP FINANCE COR ANDB00003043.04E+13                           URGENT  Chevuri Vijeta                                            3.04E+13        EMLdpao-sect@ap.nic.in             
R41000000000600000000000000000000000000000033881454741PD  GOVT OF AP Hyderabad salary    STATE BANK OF INDIA SECRETARIAT    3.04E+13                        Chevuri Seshamma                   SCHEDULED TRIBES CO-OP FINANCE COR ANDB00003043.04E+13                           URGENT  Chevuri Seshamma                                          3.04E+13        EMLdpao-sect@ap.nic.in             
R41000000000600000000000000000000000000000033881454741PD  GOVT OF AP Hyderabad salary    STATE BANK OF INDIA SECRETARIAT    8.09E+13                        Kaki Lalita                        SCHEDULED TRIBES CO-OP FINANCE COR ANDB00008098.09E+13                           URGENT  Kaki Lalita                                               8.09E+13        EMLdpao-sect@ap.nic.in             
R41000000000600000000000000000000000000000033881454741PD  GOVT OF AP Hyderabad salary    STATE BANK OF INDIA SECRETARIAT    8.09E+13                        Savaram Bala Chandrudu             SCHEDULED TRIBES CO-OP FINANCE COR ANDB00008098.09E+13                           URGENT  Savaram Bala Chandrudu                                    8.09E+13        EMLdpao-sect@ap.nic.in             
R41000000000600000000000000000000000000000033881454741PD  GOVT OF AP Hyderabad salary    STATE BANK OF INDIA SECRETARIAT    2.54E+13                        Mekala Prabhudasu                  SCHEDULED TRIBES CO-OP FINANCE COR ANDB00002542.54E+13                           URGENT  Mekala Prabhudasu                                         2.54E+13        EMLdpao-sect@ap.nic.in             
R41000000000600000000000000000000000000000033881454741PD  GOVT OF AP Hyderabad salary    STATE BANK OF INDIA SECRETARIAT    2.54E+13                        Hasavat Changovibai                SCHEDULED TRIBES CO-OP FINANCE COR ANDB00002542.54E+13                           URGENT  Hasavat Changovibai                                       2.54E+13        EMLdpao-sect@ap.nic.in             
R41000000000600000000000000000000000000000033881454741PD  GOVT OF AP Hyderabad salary    STATE BANK OF INDIA SECRETARIAT    2.54E+13                        Bhanavath Ramarao Naik             SCHEDULED TRIBES CO-OP FINANCE COR ANDB00002542.54E+13                           URGENT  Bhanavath Ramarao Naik                                    2.54E+13        EMLdpao-sect@ap.nic.in             
R41000000000600000000000000000000000000000033881454741PD  GOVT OF AP Hyderabad salary    STATE BANK OF INDIA SECRETARIAT    2.54E+13                        Ramavat Tavurya Nayak              SCHEDULED TRIBES CO-OP FINANCE COR ANDB00002542.54E+13                           URGENT  Ramavat Tavurya Nayak                                     2.54E+13        EMLdpao-sect@ap.nic.in             
R41000000000600000000000000000000000000000033881454741PD  GOVT OF AP Hyderabad salary    STATE BANK OF INDIA SECRETARIAT    2.54E+13                        Banavath Rupi Bai                  SCHEDULED TRIBES CO-OP FINANCE COR ANDB00002542.54E+13                           URGENT  Banavath Rupi Bai                                         2.54E+13        EMLdpao-sect@ap.nic.in             
R41000000001000000000000000000000000000000033881454741PD  GOVT OF AP Hyderabad salary    STATE BANK OF INDIA SECRETARIAT    1.11E+14                        Kommuru Ravikumar                  SCHEDULED TRIBES CO-OP FINANCE COR ANDB00011071.11E+14                           URGENT  Kommuru Ravikumar                                         1.11E+14        EMLdpao-sect@ap.nic.in             
R41000000001000000000000000000000000000000033881454741PD  GOVT OF AP Hyderabad salary    STATE BANK OF INDIA SECRETARIAT    1.18E+14                        Jagannadam Sivaiah                 SCHEDULED TRIBES CO-OP FINANCE COR ANDB00011821.18E+14                           URGENT  Jagannadam Sivaiah                                        1.18E+14        EMLdpao-sect@ap.nic.in             
R41000000000900000000000000000000000000000033881454741PD  GOVT OF AP Hyderabad salary    STATE BANK OF INDIA SECRETARIAT    1.18E+14                        Angadi Polaiah                     SCHEDULED TRIBES CO-OP FINANCE COR ANDB00011821.18E+14                           URGENT  Angadi Polaiah                                            1.18E+14        EMLdpao-sect@ap.nic.in             
R41000000000600000000000000000000000000000033881454741PD  GOVT OF AP Hyderabad salary    STATE BANK OF INDIA SECRETARIAT    9.13E+13                        Lakshma Nayak                      SCHEDULED TRIBES CO-OP FINANCE COR ANDB00009139.13E+13                           URGENT  Lakshma Nayak                                             9.13E+13        EMLdpao-sect@ap.nic.in             
R41000000000600000000000000000000000000000033881454741PD  GOVT OF AP Hyderabad salary    STATE BANK OF INDIA SECRETARIAT    9.13E+13                        Sugali Lakshmi                     SCHEDULED TRIBES CO-OP FINANCE COR ANDB00009139.13E+13                           URGENT  Sugali Lakshmi                                            9.13E+13        EMLdpao-sect@ap.nic.in             
R41000000000600000000000000000000000000000033881454741PD  GOVT OF AP Hyderabad salary    STATE BANK OF INDIA SECRETARIAT    9.13E+13                        Sugali Kulayappa                   SCHEDULED TRIBES CO-OP FINANCE COR ANDB00009139.13E+13                           URGENT  Sugali Kulayappa                                          9.13E+13        EMLdpao-sect@ap.nic.in             
R41000000000300000000000000000000000000000033881454741PD  GOVT OF AP Hyderabad salary    STATE BANK OF INDIA SECRETARIAT    9.13E+13                        Sugali Keshanna                    SCHEDULED TRIBES CO-OP FINANCE COR ANDB00009139.13E+13                           URGENT  Sugali Keshanna                                           9.13E+13        EMLdpao-sect@ap.nic.in             
R41000000000600000000000000000000000000000033881454741PD  GOVT OF AP Hyderabad salary    STATE BANK OF INDIA SECRETARIAT    4.59E+13                        Melika Anjali                      SCHEDULED TRIBES CO-OP FINANCE COR ANDB00004594.59E+13                           URGENT  Melika Anjali                                             4.59E+13        EMLdpao-sect@ap.nic.in             
R41000000000600000000000000000000000000000033881454741PD  GOVT OF AP Hyderabad salary    STATE BANK OF INDIA SECRETARIAT    4.59E+13                        Devarakonda. Venkaiah              SCHEDULED TRIBES CO-OP FINANCE COR ANDB00004594.59E+13                           URGENT  Devarakonda. Venkaiah                                     4.59E+13        EMLdpao-sect@ap.nic.in             
R41000000000600000000000000000000000000000033881454741PD  GOVT OF AP Hyderabad salary    STATE BANK OF INDIA SECRETARIAT    4.59E+13                        Devarakonda Suseela                SCHEDULED TRIBES CO-OP FINANCE COR ANDB00004594.59E+13                           URGENT  Devarakonda Suseela                                       4.59E+13        EMLdpao-sect@ap.nic.in             
R41000000000600000000000000000000000000000033881454741PD  GOVT OF AP Hyderabad salary    STATE BANK OF INDIA SECRETARIAT    4.59E+13                        Devarakonda Subramanyam            SCHEDULED TRIBES CO-OP FINANCE COR ANDB00004594.59E+13                           URGENT  Devarakonda Subramanyam                                   4.59E+13        EMLdpao-sect@ap.nic.in             
R41000000000600000000000000000000000000000033881454741PD  GOVT OF AP Hyderabad salary    STATE BANK OF INDIA SECRETARIAT    4.59E+13                        Davara Konda Murali                SCHEDULED TRIBES CO-OP FINANCE COR ANDB00004594.59E+13                           URGENT  Davara Konda Murali                                       4.59E+13        EMLdpao-sect@ap.nic.in             
R41000000000600000000000000000000000000000033881454741PD  GOVT OF AP Hyderabad salary    STATE BANK OF INDIA SECRETARIAT    4.59E+13                        Madhu                              SCHEDULED TRIBES CO-OP FINANCE COR ANDB00004594.59E+13                           URGENT  Madhu                                                     4.59E+13        EMLdpao-sect@ap.nic.in             
R41000000000600000000000000000000000000000033881454741PD  GOVT OF AP Hyderabad salary    STATE BANK OF INDIA SECRETARIAT    4.59E+13                        Garnepudi Anka Rao                 SCHEDULED TRIBES CO-OP FINANCE COR ANDB00004594.59E+13                           URGENT  Garnepudi Anka Rao                                        4.59E+13        EMLdpao-sect@ap.nic.in             
R41000000000600000000000000000000000000000033881454741PD  GOVT OF AP Hyderabad salary    STATE BANK OF INDIA SECRETARIAT    4.59E+13                        Param Yasodamma                    SCHEDULED TRIBES CO-OP FINANCE COR ANDB00004594.59E+13                           URGENT  Param Yasodamma                                           4.59E+13        EMLdpao-sect@ap.nic.in             
R41000000000600000000000000000000000000000033881454741PD  GOVT OF AP Hyderabad salary    STATE BANK OF INDIA SECRETARIAT    4.59E+13                        Indla Malyadri                     SCHEDULED TRIBES CO-OP FINANCE COR ANDB00004594.59E+13                           URGENT  Indla Malyadri                                            4.59E+13        EMLdpao-sect@ap.nic.in             
R41000000000090000000000000000000000000000033881454741PD  GOVT OF AP Hyderabad salary    STATE BANK OF INDIA SECRETARIAT    1.87E+13                        Sreedevi                           SCHEDULED TRIBES CO-OP FINANCE COR ANDB00001871.87E+13                           URGENT  Sreedevi                                                  1.87E+13        EMLdpao-sect@ap.nic.in             
R41000000000090000000000000000000000000000033881454741PD  GOVT OF AP Hyderabad salary    STATE BANK OF INDIA SECRETARIAT    1.87E+13                        Param Audilakshmamma W/O Nagaraju  SCHEDULED TRIBES CO-OP FINANCE COR ANDB00001871.87E+13                           URGENT  Param Audilakshmamma W/O                                  1.87E+13        EMLdpao-sect@ap.nic.in             
R41000000000600000000000000000000000000000033881454741PD  GOVT OF AP Hyderabad salary    STATE BANK OF INDIA SECRETARIAT    1.87E+13                        Jayampu Narasamma                  SCHEDULED TRIBES CO-OP FINANCE COR ANDB00001871.87E+13                           URGENT  Jayampu Narasamma                                         1.87E+13        EMLdpao-sect@ap.nic.in             
R41000000000360000000000000000000000000000033881454741PD  GOVT OF AP Hyderabad salary    STATE BANK OF INDIA SECRETARIAT    1.87E+13                        Donthu Pramila                     SCHEDULED TRIBES CO-OP FINANCE COR ANDB00001871.87E+13                           URGENT  Donthu Pramila                                            1.87E+13        EMLdpao-sect@ap.nic.in             
R41000000000300000000000000000000000000000033881454741PD  GOVT OF AP Hyderabad salary    STATE BANK OF INDIA SECRETARIAT    1.87E+13                        Komaragiri Bharathi                SCHEDULED TRIBES CO-OP FINANCE COR ANDB00001871.87E+13                           URGENT  Komaragiri Bharathi                                       1.87E+13        EMLdpao-sect@ap.nic.in             
R41000000000420000000000000000000000000000033881454741PD  GOVT OF AP Hyderabad salary    STATE BANK OF INDIA SECRETARIAT    1.87E+13                        Chalamcharla Anjaneyulu            SCHEDULED TRIBES CO-OP FINANCE COR ANDB00001871.87E+13                           URGENT  Chalamcharla Anjaneyulu                                   1.87E+13        EMLdpao-sect@ap.nic.in             
R41000000000420000000000000000000000000000033881454741PD  GOVT OF AP Hyderabad salary    STATE BANK OF INDIA SECRETARIAT    1.87E+13                        Itta Yanadi                        SCHEDULED TRIBES CO-OP FINANCE COR ANDB00001871.87E+13                           URGENT  Itta Yanadi                                               1.87E+13        EMLdpao-sect@ap.nic.in             
R41000000000420000000000000000000000000000033881454741PD  GOVT OF AP Hyderabad salary    STATE BANK OF INDIA SECRETARIAT    1.87E+13                        Visam Sreenu                       SCHEDULED TRIBES CO-OP FINANCE COR ANDB00001871.87E+13                           URGENT  Visam Sreenu                                              1.87E+13        EMLdpao-sect@ap.nic.in             
R41000000000420000000000000000000000000000033881454741PD  GOVT OF AP Hyderabad salary    STATE BANK OF INDIA SECRETARIAT    1.87E+13                        Chalamcharla Malyadri              SCHEDULED TRIBES CO-OP FINANCE COR ANDB00001871.87E+13                           URGENT  Chalamcharla Malyadri                                     1.87E+13        EMLdpao-sect@ap.nic.in             
R41000000000090000000000000000000000000000033881454741PD  GOVT OF AP Hyderabad salary    STATE BANK OF INDIA SECRETARIAT    1.87E+13                        Devara Konda Nagendra W/O PothurajuSCHEDULED TRIBES CO-OP FINANCE COR ANDB00001871.87E+13                           URGENT  Devara Konda Nagendra W/O                                 1.87E+13        EMLdpao-sect@ap.nic.in             
R41000000000420000000000000000000000000000033881454741PD  GOVT OF AP Hyderabad salary    STATE BANK OF INDIA SECRETARIAT    1.87E+13                        Easam Venkateswarlu                SCHEDULED TRIBES CO-OP FINANCE COR ANDB00001871.87E+13                           URGENT  Easam Venkateswarlu                                       1.87E+13        EMLdpao-sect@ap.nic.in             
R41000000000420000000000000000000000000000033881454741PD  GOVT OF AP Hyderabad salary    STATE BANK OF INDIA SECRETARIAT    1.87E+13                        Chalamcharla Lakshminarasinham     SCHEDULED TRIBES CO-OP FINANCE COR ANDB00001871.87E+13                           URGENT  Chalamcharla Lakshminaras                                 1.87E+13        EMLdpao-sect@ap.nic.in             
R41000000000300000000000000000000000000000033881454741PD  GOVT OF AP Hyderabad salary    STATE BANK OF INDIA SECRETARIAT    1.87E+13                        Komaragiri Ankamma                 SCHEDULED TRIBES CO-OP FINANCE COR ANDB00001871.87E+13                           URGENT  Komaragiri Ankamma                                        1.87E+13        EMLdpao-sect@ap.nic.in             
R41000000000090000000000000000000000000000033881454741PD  GOVT OF AP Hyderabad salary    STATE BANK OF INDIA SECRETARIAT    1.87E+13                        Peram Mallikarjuna S/O Aggiramaiah SCHEDULED TRIBES CO-OP FINANCE COR ANDB00001871.87E+13                           URGENT  Peram Mallikarjuna S/O Ag                                 1.87E+13        EMLdpao-sect@ap.nic.in             
R41000000000600000000000000000000000000000033881454741PD  GOVT OF AP Hyderabad salary    STATE BANK OF INDIA SECRETARIAT    1.87E+13                        Yendeti Ramanaiah S/O Obulu        SCHEDULED TRIBES CO-OP FINANCE COR ANDB00001871.87E+13                           URGENT  Yendeti Ramanaiah S/O Obu                                 1.87E+13        EMLdpao-sect@ap.nic.in             
R41000000000090000000000000000000000000000033881454741PD  GOVT OF AP Hyderabad salary    STATE BANK OF INDIA SECRETARIAT    1.87E+13                        Devi                               SCHEDULED TRIBES CO-OP FINANCE COR ANDB00001871.87E+13                           URGENT  Devi                                                      1.87E+13        EMLdpao-sect@ap.nic.in             
R41000000000420000000000000000000000000000033881454741PD  GOVT OF AP Hyderabad salary    STATE BANK OF INDIA SECRETARIAT    1.87E+13                        Rapuri Sujatha                     SCHEDULED TRIBES CO-OP FINANCE COR ANDB00001871.87E+13                           URGENT  Rapuri Sujatha                                            1.87E+13        EMLdpao-sect@ap.nic.in             
R41000000000420000000000000000000000000000033881454741PD  GOVT OF AP Hyderabad salary    STATE BANK OF INDIA SECRETARIAT    1.87E+13                        Indla Lakshmaiah                   SCHEDULED TRIBES CO-OP FINANCE COR ANDB00001871.87E+13                           URGENT  Indla Lakshmaiah                                          1.87E+13        EMLdpao-sect@ap.nic.in             
R41000000000420000000000000000000000000000033881454741PD  GOVT OF AP Hyderabad salary    STATE BANK OF INDIA SECRETARIAT    1.87E+13                        Rachagiri Subbarao                 SCHEDULED TRIBES CO-OP FINANCE COR ANDB00001871.87E+13                           URGENT  Rachagiri Subbarao                                        1.87E+13        EMLdpao-sect@ap.nic.in             
R41000000000600000000000000000000000000000033881454741PD  GOVT OF AP Hyderabad salary    STATE BANK OF INDIA SECRETARIAT    4.51E+13                        Uyyala Koteswararao                SCHEDULED TRIBES CO-OP FINANCE COR ANDB00004514.51E+13                           URGENT  Uyyala Koteswararao                                       4.51E+13        EMLdpao-sect@ap.nic.in             
R41000000001000000000000000000000000000000033881454741PD  GOVT OF AP Hyderabad salary    STATE BANK OF INDIA SECRETARIAT    4.82E+13                        Adduri Subbarao                    SCHEDULED TRIBES CO-OP FINANCE COR ANDB00004824.82E+13                           URGENT  Adduri Subbarao                                           4.82E+13        EMLdpao-sect@ap.nic.in             
R41000000000300000000000000000000000000000033881454741PD  GOVT OF AP Hyderabad salary    STATE BANK OF INDIA SECRETARIAT    5.09E+13                        Potluri Lakshmi Narayana           SCHEDULED TRIBES CO-OP FINANCE COR ANDB00005095.09E+13                           URGENT  Potluri Lakshmi Narayana                                  5.09E+13        EMLdpao-sect@ap.nic.in             
R41000000000300000000000000000000000000000033881454741PD  GOVT OF AP Hyderabad salary    STATE BANK OF INDIA SECRETARIAT    5.09E+13                        Palaparthy Vimalamma               SCHEDULED TRIBES CO-OP FINANCE COR ANDB00005095.09E+13                           URGENT  Palaparthy Vimalamma                                      5.09E+13        EMLdpao-sect@ap.nic.in             
R41000000000300000000000000000000000000000033881454741PD  GOVT OF AP Hyderabad salary    STATE BANK OF INDIA SECRETARIAT    5.09E+13                        Potluri Gruhalakshmi               SCHEDULED TRIBES CO-OP FINANCE COR ANDB00005095.09E+13                           URGENT  Potluri Gruhalakshmi                                      5.09E+13        EMLdpao-sect@ap.nic.in             
R41000000000600000000000000000000000000000033881454741PD  GOVT OF AP Hyderabad salary    STATE BANK OF INDIA SECRETARIAT    5.09E+13                        Yanadi                             SCHEDULED TRIBES CO-OP FINANCE COR ANDB00005095.09E+13                           URGENT  Yanadi                                                    5.09E+13        EMLdpao-sect@ap.nic.in             
R41000000000600000000000000000000000000000033881454741PD  GOVT OF AP Hyderabad salary    STATE BANK OF INDIA SECRETARIAT    5.09E+13                        Mallavarapu Venkataratnam          SCHEDULED TRIBES CO-OP FINANCE COR ANDB00005095.09E+13                           URGENT  Mallavarapu Venkataratnam                                 5.09E+13        EMLdpao-sect@ap.nic.in             
R41000000000300000000000000000000000000000033881454741PD  GOVT OF AP Hyderabad salary    STATE BANK OF INDIA SECRETARIAT    5.09E+13                        Potluri Aruna                      SCHEDULED TRIBES CO-OP FINANCE COR ANDB00005095.09E+13                           URGENT  Potluri Aruna                                             5.09E+13        EMLdpao-sect@ap.nic.in             
R41000000000300000000000000000000000000000033881454741PD  GOVT OF AP Hyderabad salary    STATE BANK OF INDIA SECRETARIAT    5.09E+13                        Yatagiri Padma                     SCHEDULED TRIBES CO-OP FINANCE COR ANDB00005095.09E+13                           URGENT  Yatagiri Padma                                            5.09E+13        EMLdpao-sect@ap.nic.in             
R41000000000300000000000000000000000000000033881454741PD  GOVT OF AP Hyderabad salary    STATE BANK OF INDIA SECRETARIAT    5.09E+13                        Chevuri Srinivasulu                SCHEDULED TRIBES CO-OP FINANCE COR ANDB00005095.09E+13                           URGENT  Chevuri Srinivasulu                                       5.09E+13        EMLdpao-sect@ap.nic.in             
R41000000000300000000000000000000000000000033881454741PD  GOVT OF AP Hyderabad salary    STATE BANK OF INDIA SECRETARIAT    5.09E+13                        Kumbha Subbarao                    SCHEDULED TRIBES CO-OP FINANCE COR ANDB00005095.09E+13                           URGENT  Kumbha Subbarao                                           5.09E+13        EMLdpao-sect@ap.nic.in             
R41000000000600000000000000000000000000000033881454741PD  GOVT OF AP Hyderabad salary    STATE BANK OF INDIA SECRETARIAT    5.09E+13                        Bapatla Madhu                      SCHEDULED TRIBES CO-OP FINANCE COR ANDB00005095.09E+13                           URGENT  Bapatla Madhu                                             5.09E+13        EMLdpao-sect@ap.nic.in             
R41000000000600000000000000000000000000000033881454741PD  GOVT OF AP Hyderabad salary    STATE BANK OF INDIA SECRETARIAT    5.09E+13                        Yekasiri Venkata Ramanaiah         SCHEDULED TRIBES CO-OP FINANCE COR ANDB00005095.09E+13                           URGENT  Yekasiri Venkata Ramanaia                                 5.09E+13        EMLdpao-sect@ap.nic.in             
R41000000000600000000000000000000000000000033881454741PD  GOVT OF AP Hyderabad salary    STATE BANK OF INDIA SECRETARIAT    5.09E+13                        Potluri Adi Lakshmi                SCHEDULED TRIBES CO-OP FINANCE COR ANDB00005095.09E+13                           URGENT  Potluri Adi Lakshmi                                       5.09E+13        EMLdpao-sect@ap.nic.in             
R41000000000600000000000000000000000000000033881454741PD  GOVT OF AP Hyderabad salary    STATE BANK OF INDIA SECRETARIAT    5.09E+13                        Komaragiri Lakshmi                 SCHEDULED TRIBES CO-OP FINANCE COR ANDB00005095.09E+13                           URGENT  Komaragiri Lakshmi                                        5.09E+13        EMLdpao-sect@ap.nic.in             
R41000000000300000000000000000000000000000033881454741PD  GOVT OF AP Hyderabad salary    STATE BANK OF INDIA SECRETARIAT    5.09E+13                        Palaparthi Mahendravarma           SCHEDULED TRIBES CO-OP FINANCE COR ANDB00005095.09E+13                           URGENT  Palaparthi Mahendravarma                                  5.09E+13        EMLdpao-sect@ap.nic.in             
R41000000000300000000000000000000000000000033881454741PD  GOVT OF AP Hyderabad salary    STATE BANK OF INDIA SECRETARIAT    5.09E+13                        Palaparthy Durgaprasad             SCHEDULED TRIBES CO-OP FINANCE COR ANDB00005095.09E+13                           URGENT  Palaparthy Durgaprasad                                    5.09E+13        EMLdpao-sect@ap.nic.in             
R41000000000300000000000000000000000000000033881454741PD  GOVT OF AP Hyderabad salary    STATE BANK OF INDIA SECRETARIAT    5.09E+13                        Potluri Madhava                    SCHEDULED TRIBES CO-OP FINANCE COR ANDB00005095.09E+13                           URGENT  Potluri Madhava                                           5.09E+13        EMLdpao-sect@ap.nic.in             
R41000000001000000000000000000000000000000033881454741PD  GOVT OF AP Hyderabad salary    STATE BANK OF INDIA SECRETARIAT    5.09E+13                        Potluri Govindaiah                 SCHEDULED TRIBES CO-OP FINANCE COR ANDB00005095.09E+13                           URGENT  Potluri Govindaiah                                        5.09E+13        EMLdpao-sect@ap.nic.in             
R41000000000300000000000000000000000000000033881454741PD  GOVT OF AP Hyderabad salary    STATE BANK OF INDIA SECRETARIAT    5.09E+13                        Komaragiri Radhamma                SCHEDULED TRIBES CO-OP FINANCE COR ANDB00005095.09E+13                           URGENT  Komaragiri Radhamma                                       5.09E+13        EMLdpao-sect@ap.nic.in             
R41000000000300000000000000000000000000000033881454741PD  GOVT OF AP Hyderabad salary    STATE BANK OF INDIA SECRETARIAT    5.09E+13                        Chevuri Edukondalu                 SCHEDULED TRIBES CO-OP FINANCE COR ANDB00005095.09E+13                           URGENT  Chevuri Edukondalu                                        5.09E+13        EMLdpao-sect@ap.nic.in             
R41000000000300000000000000000000000000000033881454741PD  GOVT OF AP Hyderabad salary    STATE BANK OF INDIA SECRETARIAT    5.09E+13                        Potluri Thirupathamma              SCHEDULED TRIBES CO-OP FINANCE COR ANDB00005095.09E+13                           URGENT  Potluri Thirupathamma                                     5.09E+13        EMLdpao-sect@ap.nic.in             
R41000000000600000000000000000000000000000033881454741PD  GOVT OF AP Hyderabad salary    STATE BANK OF INDIA SECRETARIAT    5.09E+13                        Dasu Suhasini                      SCHEDULED TRIBES CO-OP FINANCE COR ANDB00005095.09E+13                           URGENT  Dasu Suhasini                                             5.09E+13        EMLdpao-sect@ap.nic.in             
R41000000000600000000000000000000000000000033881454741PD  GOVT OF AP Hyderabad salary    STATE BANK OF INDIA SECRETARIAT    5.09E+13                        Yata Giri Sreini Vasulu            SCHEDULED TRIBES CO-OP FINANCE COR ANDB00005095.09E+13                           URGENT  Yata Giri Sreini Vasulu                                   5.09E+13        EMLdpao-sect@ap.nic.in             
R41000000000600000000000000000000000000000033881454741PD  GOVT OF AP Hyderabad salary    STATE BANK OF INDIA SECRETARIAT    4.09E+13                        Panda Baby                         SCHEDULED TRIBES CO-OP FINANCE COR ANDB00004094.09E+13                           URGENT  Panda Baby                                                4.09E+13        EMLdpao-sect@ap.nic.in             
R41000000000036000000000000000000000000000033881454741PD  GOVT OF AP Hyderabad salary    STATE BANK OF INDIA SECRETARIAT    4.09E+13                        Kimaram Rajini                     SCHEDULED TRIBES CO-OP FINANCE COR ANDB00004094.09E+13                           URGENT  Kimaram Rajini                                            4.09E+13        EMLdpao-sect@ap.nic.in             
R41000000000240000000000000000000000000000033881454741PD  GOVT OF AP Hyderabad salary    STATE BANK OF INDIA SECRETARIAT    4.09E+13                        Kunjam  Sreenu Vasu Dora           SCHEDULED TRIBES CO-OP FINANCE COR ANDB00004094.09E+13                           URGENT  Kunjam  Sreenu Vasu Dora                                  4.09E+13        EMLdpao-sect@ap.nic.in             
R41000000000600000000000000000000000000000033881454741PD  GOVT OF AP Hyderabad salary    STATE BANK OF INDIA SECRETARIAT    4.09E+13                        Neram Durgamma                     SCHEDULED TRIBES CO-OP FINANCE COR ANDB00004094.09E+13                           URGENT  Neram Durgamma                                            4.09E+13        EMLdpao-sect@ap.nic.in             
R41000000000600000000000000000000000000000033881454741PD  GOVT OF AP Hyderabad salary    STATE BANK OF INDIA SECRETARIAT    4.09E+13                        Aragati Ramakrishna Reddy          SCHEDULED TRIBES CO-OP FINANCE COR ANDB00004094.09E+13                           URGENT  Aragati Ramakrishna Reddy                                 4.09E+13        EMLdpao-sect@ap.nic.in             
R41000000000240000000000000000000000000000033881454741PD  GOVT OF AP Hyderabad salary    STATE BANK OF INDIA SECRETARIAT    4.09E+13                        Karam Rajannadora                  SCHEDULED TRIBES CO-OP FINANCE COR ANDB00004094.09E+13                           URGENT  Karam Rajannadora                                         4.09E+13        EMLdpao-sect@ap.nic.in             
R41000000000036000000000000000000000000000033881454741PD  GOVT OF AP Hyderabad salary    STATE BANK OF INDIA SECRETARIAT    4.09E+13                        Kalum Chittamma                    SCHEDULED TRIBES CO-OP FINANCE COR ANDB00004094.09E+13                           URGENT  Kalum Chittamma                                           4.09E+13        EMLdpao-sect@ap.nic.in             
R41000000000600000000000000000000000000000033881454741PD  GOVT OF AP Hyderabad salary    STATE BANK OF INDIA SECRETARIAT    4.09E+13                        Muchika Muttamma                   SCHEDULED TRIBES CO-OP FINANCE COR ANDB00004094.09E+13                           URGENT  Muchika Muttamma                                          4.09E+13        EMLdpao-sect@ap.nic.in             
R41000000000036000000000000000000000000000033881454741PD  GOVT OF AP Hyderabad salary    STATE BANK OF INDIA SECRETARIAT    4.09E+13                        Podiyam Ramalakshmi                SCHEDULED TRIBES CO-OP FINANCE COR ANDB00004094.09E+13                           URGENT  Podiyam Ramalakshmi                                       4.09E+13        EMLdpao-sect@ap.nic.in             
R41000000000240000000000000000000000000000033881454741PD  GOVT OF AP Hyderabad salary    STATE BANK OF INDIA SECRETARIAT    4.09E+13                        Balam Ganga Bhavani                SCHEDULED TRIBES CO-OP FINANCE COR ANDB00004094.09E+13                           URGENT  Balam Ganga Bhavani                                       4.09E+13        EMLdpao-sect@ap.nic.in             
R41000000000600000000000000000000000000000033881454741PD  GOVT OF AP Hyderabad salary    STATE BANK OF INDIA SECRETARIAT    4.09E+13                        Kalum Venkataprasad                SCHEDULED TRIBES CO-OP FINANCE COR ANDB00004094.09E+13                           URGENT  Kalum Venkataprasad                                       4.09E+13        EMLdpao-sect@ap.nic.in             
R41000000000036000000000000000000000000000033881454741PD  GOVT OF AP Hyderabad salary    STATE BANK OF INDIA SECRETARIAT    4.09E+13                        Kura Lakshmi                       SCHEDULED TRIBES CO-OP FINANCE COR ANDB00004094.09E+13                           URGENT  Kura Lakshmi                                              4.09E+13        EMLdpao-sect@ap.nic.in             
R41000000000036000000000000000000000000000033881454741PD  GOVT OF AP Hyderabad salary    STATE BANK OF INDIA SECRETARIAT    4.09E+13                        Kunjam Rama Lakshmi                SCHEDULED TRIBES CO-OP FINANCE COR ANDB00004094.09E+13                           URGENT  Kunjam Rama Lakshmi                                       4.09E+13        EMLdpao-sect@ap.nic.in             
R41000000000240000000000000000000000000000033881454741PD  GOVT OF AP Hyderabad salary    STATE BANK OF INDIA SECRETARIAT    4.09E+13                        Kurla Lakshmi Shyamala Devi        SCHEDULED TRIBES CO-OP FINANCE COR ANDB00004094.09E+13                           URGENT  Kurla Lakshmi Shyamala De                                 4.09E+13        EMLdpao-sect@ap.nic.in             
R41000000000240000000000000000000000000000033881454741PD  GOVT OF AP Hyderabad salary    STATE BANK OF INDIA SECRETARIAT    4.09E+13                        Shetti Nooka Ratnam                SCHEDULED TRIBES CO-OP FINANCE COR ANDB00004094.09E+13                           URGENT  Shetti Nooka Ratnam                                       4.09E+13        EMLdpao-sect@ap.nic.in             
R41000000001000000000000000000000000000000033881454741PD  GOVT OF AP Hyderabad salary    STATE BANK OF INDIA SECRETARIAT    4.09E+13                        Neram Nutana                       SCHEDULED TRIBES CO-OP FINANCE COR ANDB00004094.09E+13                           URGENT  Neram Nutana                                              4.09E+13        EMLdpao-sect@ap.nic.in             
R41000000000240000000000000000000000000000033881454741PD  GOVT OF AP Hyderabad salary    STATE BANK OF INDIA SECRETARIAT    4.09E+13                        Samudu Ganiggi Reddy               SCHEDULED TRIBES CO-OP FINANCE COR ANDB00004094.09E+13                           URGENT  Samudu Ganiggi Reddy                                      4.09E+13        EMLdpao-sect@ap.nic.in             
R41000000000300000000000000000000000000000033881454741PD  GOVT OF AP Hyderabad salary    STATE BANK OF INDIA SECRETARIAT    4.09E+13                        Kondla Vasanta Kumari              SCHEDULED TRIBES CO-OP FINANCE COR ANDB00004094.09E+13                           URGENT  Kondla Vasanta Kumari                                     4.09E+13        EMLdpao-sect@ap.nic.in             
R41000000000600000000000000000000000000000033881454741PD  GOVT OF AP Hyderabad salary    STATE BANK OF INDIA SECRETARIAT    4.09E+13                        Kunjam Sridevi                     SCHEDULED TRIBES CO-OP FINANCE COR ANDB00004094.09E+13                           URGENT  Kunjam Sridevi                                            4.09E+13        EMLdpao-sect@ap.nic.in             
R41000000000036000000000000000000000000000033881454741PD  GOVT OF AP Hyderabad salary    STATE BANK OF INDIA SECRETARIAT    4.09E+13                        Chodi Vijaya                       SCHEDULED TRIBES CO-OP FINANCE COR ANDB00004094.09E+13                           URGENT  Chodi Vijaya                                              4.09E+13        EMLdpao-sect@ap.nic.in             
R41000000000600000000000000000000000000000033881454741PD  GOVT OF AP Hyderabad salary    STATE BANK OF INDIA SECRETARIAT    11516068394                     Palagadda Rajakumarreddy           SCHEDULED TRIBES CO-OP FINANCE COR ANDB000040911516068394                        URGENT  Palagadda Rajakumarreddy                                  11516068394     EMLdpao-sect@ap.nic.in             
R41000000001000000000000000000000000000000033881454741PD  GOVT OF AP Hyderabad salary    STATE BANK OF INDIA SECRETARIAT    2.12E+14                        Gandham Malakondaiah               SCHEDULED TRIBES CO-OP FINANCE COR ANDB00021182.12E+14                           URGENT  Gandham Malakondaiah                                      2.12E+14        EMLdpao-sect@ap.nic.in             
R41000000000060000000000000000000000000000033881454741PD  GOVT OF AP Hyderabad salary    STATE BANK OF INDIA SECRETARIAT    5.84E+13                        Pamuleti Mala Kondaiah             SCHEDULED TRIBES CO-OP FINANCE COR ANDB00005845.84E+13                           URGENT  Pamuleti Mala Kondaiah                                    5.84E+13        EMLdpao-sect@ap.nic.in             
R41000000000600000000000000000000000000000033881454741PD  GOVT OF AP Hyderabad salary    STATE BANK OF INDIA SECRETARIAT    5.84E+13                        Manikala Krishna Veni              SCHEDULED TRIBES CO-OP FINANCE COR ANDB00005845.84E+13                           URGENT  Manikala Krishna Veni                                     5.84E+13        EMLdpao-sect@ap.nic.in             
R41000000000600000000000000000000000000000033881454741PD  GOVT OF AP Hyderabad salary    STATE BANK OF INDIA SECRETARIAT    5.81E+13                        Komarigiri Kondaiah                SCHEDULED TRIBES CO-OP FINANCE COR ANDB00005815.81E+13                           URGENT  Komarigiri Kondaiah                                       5.81E+13        EMLdpao-sect@ap.nic.in             
R41000000000300000000000000000000000000000033881454741PD  GOVT OF AP Hyderabad salary    STATE BANK OF INDIA SECRETARIAT    5.81E+13                        Pamuri Sampoorna                   SCHEDULED TRIBES CO-OP FINANCE COR ANDB00005815.81E+13                           URGENT  Pamuri Sampoorna                                          5.81E+13        EMLdpao-sect@ap.nic.in             
R41000000000600000000000000000000000000000033881454741PD  GOVT OF AP Hyderabad salary    STATE BANK OF INDIA SECRETARIAT    5.81E+13                        Musalaiah                          SCHEDULED TRIBES CO-OP FINANCE COR ANDB00005815.81E+13                           URGENT  Musalaiah                                                 5.81E+13        EMLdpao-sect@ap.nic.in             
R41000000000600000000000000000000000000000033881454741PD  GOVT OF AP Hyderabad salary    STATE BANK OF INDIA SECRETARIAT    6.17E+13                        Devarakonda Venkateswari           SCHEDULED TRIBES CO-OP FINANCE COR ANDB00006176.17E+13                           URGENT  Devarakonda Venkateswari                                  6.17E+13        EMLdpao-sect@ap.nic.in             
R41000000000300000000000000000000000000000033881454741PD  GOVT OF AP Hyderabad salary    STATE BANK OF INDIA SECRETARIAT    6.03E+13                        Potluri Padma                      SCHEDULED TRIBES CO-OP FINANCE COR ANDB00006036.03E+13                           URGENT  Potluri Padma                                             6.03E+13        EMLdpao-sect@ap.nic.in             
R41000000000300000000000000000000000000000033881454741PD  GOVT OF AP Hyderabad salary    STATE BANK OF INDIA SECRETARIAT    6.60E+13                        Dumavat Tulashamma                 SCHEDULED TRIBES CO-OP FINANCE COR ANDB00006606.60E+13                           URGENT  Dumavat Tulashamma                                        6.60E+13        EMLdpao-sect@ap.nic.in             
R41000000000600000000000000000000000000000033881454741PD  GOVT OF AP Hyderabad salary    STATE BANK OF INDIA SECRETARIAT    6.55E+13                        Uyyala  Murali                     SCHEDULED TRIBES CO-OP FINANCE COR ANDB00006556.55E+13                           URGENT  Uyyala  Murali                                            6.55E+13        EMLdpao-sect@ap.nic.in             
R41000000000600000000000000000000000000000033881454741PD  GOVT OF AP Hyderabad salary    STATE BANK OF INDIA SECRETARIAT    6.55E+13                        Devarakonda Thirupatamma           SCHEDULED TRIBES CO-OP FINANCE COR ANDB00006556.55E+13                           URGENT  Devarakonda Thirupatamma                                  6.55E+13        EMLdpao-sect@ap.nic.in             
R41000000000600000000000000000000000000000033881454741PD  GOVT OF AP Hyderabad salary    STATE BANK OF INDIA SECRETARIAT    6.55E+13                        Deverakonda Anjibabu               SCHEDULED TRIBES CO-OP FINANCE COR ANDB00006556.55E+13                           URGENT  Deverakonda Anjibabu                                      6.55E+13        EMLdpao-sect@ap.nic.in             
R41000000000300000000000000000000000000000033881454741PD  GOVT OF AP Hyderabad salary    STATE BANK OF INDIA SECRETARIAT    91004646259                     D.Saveethri Bai                    SCHEDULED TRIBES CO-OP FINANCE COR APGB000306591004646259                        URGENT  D.Saveethri Bai                                           91004646259     EMLdpao-sect@ap.nic.in             
R41000000000300000000000000000000000000000033881454741PD  GOVT OF AP Hyderabad salary    STATE BANK OF INDIA SECRETARIAT    91004646259                     Kodavath Ramadevi                  SCHEDULED TRIBES CO-OP FINANCE COR APGB000306591004646259                        URGENT  Kodavath Ramadevi                                         91004646259     EMLdpao-sect@ap.nic.in             
R41000000000300000000000000000000000000000033881454741PD  GOVT OF AP Hyderabad salary    STATE BANK OF INDIA SECRETARIAT    91004646259                     Nenavath Lakshmi Bai               SCHEDULED TRIBES CO-OP FINANCE COR APGB000306591004646259                        URGENT  Nenavath Lakshmi Bai                                      91004646259     EMLdpao-sect@ap.nic.in             
R41000000000300000000000000000000000000000033881454741PD  GOVT OF AP Hyderabad salary    STATE BANK OF INDIA SECRETARIAT    91004646259                     N.Mithi Bai                        SCHEDULED TRIBES CO-OP FINANCE COR APGB000306591004646259                        URGENT  N.Mithi Bai                                               91004646259     EMLdpao-sect@ap.nic.in             
R41000000000300000000000000000000000000000033881454741PD  GOVT OF AP Hyderabad salary    STATE BANK OF INDIA SECRETARIAT    91044265051                     Nehavath Lakshmi Devi Bai          SCHEDULED TRIBES CO-OP FINANCE COR APGB000306591044265051                        URGENT  Nehavath Lakshmi Devi Bai                                 91044265051     EMLdpao-sect@ap.nic.in             
R41000000000300000000000000000000000000000033881454741PD  GOVT OF AP Hyderabad salary    STATE BANK OF INDIA SECRETARIAT    91044265051                     Dsahavath Ramana Mma Bai           SCHEDULED TRIBES CO-OP FINANCE COR APGB000306591044265051                        URGENT  Dsahavath Ramana Mma Bai                                  91044265051     EMLdpao-sect@ap.nic.in             
R41000000000300000000000000000000000000000033881454741PD  GOVT OF AP Hyderabad salary    STATE BANK OF INDIA SECRETARIAT    91004646259                     Desavat Bujjamma                   SCHEDULED TRIBES CO-OP FINANCE COR APGB000306591004646259                        URGENT  Desavat Bujjamma                                          91004646259     EMLdpao-sect@ap.nic.in             
R41000000000300000000000000000000000000000033881454741PD  GOVT OF AP Hyderabad salary    STATE BANK OF INDIA SECRETARIAT    91004646259                     Nenavath N Lakshmi Bai             SCHEDULED TRIBES CO-OP FINANCE COR APGB000306591004646259                        URGENT  Nenavath N Lakshmi Bai                                    91004646259     EMLdpao-sect@ap.nic.in             
R41000000000300000000000000000000000000000033881454741PD  GOVT OF AP Hyderabad salary    STATE BANK OF INDIA SECRETARIAT    91004646259                     Nenavath N Devi Bai                SCHEDULED TRIBES CO-OP FINANCE COR APGB000306591004646259                        URGENT  Nenavath N Devi Bai                                       91004646259     EMLdpao-sect@ap.nic.in             
R41000000000300000000000000000000000000000033881454741PD  GOVT OF AP Hyderabad salary    STATE BANK OF INDIA SECRETARIAT    91004646259                     Desavat Sankaramma Bai             SCHEDULED TRIBES CO-OP FINANCE COR APGB000306591004646259                        URGENT  Desavat Sankaramma Bai                                    91004646259     EMLdpao-sect@ap.nic.in             
R41000000000300000000000000000000000000000033881454741PD  GOVT OF AP Hyderabad salary    STATE BANK OF INDIA SECRETARIAT    91004646259                     G.Ramadevi Bai                     SCHEDULED TRIBES CO-OP FINANCE COR APGB000306591004646259                        URGENT  G.Ramadevi Bai                                            91004646259     EMLdpao-sect@ap.nic.in             
R41000000000300000000000000000000000000000033881454741PD  GOVT OF AP Hyderabad salary    STATE BANK OF INDIA SECRETARIAT    91004646259                     ... Medavath Lakshmi Bai           SCHEDULED TRIBES CO-OP FINANCE COR APGB000306591004646259                        URGENT  ... Medavath Lakshmi Bai                                  91004646259     EMLdpao-sect@ap.nic.in             
R41000000000300000000000000000000000000000033881454741PD  GOVT OF AP Hyderabad salary    STATE BANK OF INDIA SECRETARIAT    91044265051                     Jagavath Raswaramma Bai            SCHEDULED TRIBES CO-OP FINANCE COR APGB000306591044265051                        URGENT  Jagavath Raswaramma Bai                                   91044265051     EMLdpao-sect@ap.nic.in             
R41000000000300000000000000000000000000000033881454741PD  GOVT OF AP Hyderabad salary    STATE BANK OF INDIA SECRETARIAT    91004646259                     Patalavath Sumitra Bai             SCHEDULED TRIBES CO-OP FINANCE COR APGB000306591004646259                        URGENT  Patalavath Sumitra Bai                                    91004646259     EMLdpao-sect@ap.nic.in             
R41000000000300000000000000000000000000000033881454741PD  GOVT OF AP Hyderabad salary    STATE BANK OF INDIA SECRETARIAT    91044265051                     Nenavath Ramalaxmi Bai             SCHEDULED TRIBES CO-OP FINANCE COR APGB000306591044265051                        URGENT  Nenavath Ramalaxmi Bai                                    91044265051     EMLdpao-sect@ap.nic.in             
R41000000000300000000000000000000000000000033881454741PD  GOVT OF AP Hyderabad salary    STATE BANK OF INDIA SECRETARIAT    91044265051                     Nenavath Saraswathi                SCHEDULED TRIBES CO-OP FINANCE COR APGB000306591044265051                        URGENT  Nenavath Saraswathi                                       91044265051     EMLdpao-sect@ap.nic.in             
R41000000000300000000000000000000000000000033881454741PD  GOVT OF AP Hyderabad salary    STATE BANK OF INDIA SECRETARIAT    91004646259                     Nainavath Mallika Bai              SCHEDULED TRIBES CO-OP FINANCE COR APGB000306591004646259                        URGENT  Nainavath Mallika Bai                                     91004646259     EMLdpao-sect@ap.nic.in             
R41000000000300000000000000000000000000000033881454741PD  GOVT OF AP Hyderabad salary    STATE BANK OF INDIA SECRETARIAT    91004646259                     Janavata Rama Devi                 SCHEDULED TRIBES CO-OP FINANCE COR APGB000306591004646259                        URGENT  Janavata Rama Devi                                        91004646259     EMLdpao-sect@ap.nic.in             
R41000000000300000000000000000000000000000033881454741PD  GOVT OF AP Hyderabad salary    STATE BANK OF INDIA SECRETARIAT    91004646259                     Patlavat Mangamma Bai              SCHEDULED TRIBES CO-OP FINANCE COR APGB000306591004646259                        URGENT  Patlavat Mangamma Bai                                     91004646259     EMLdpao-sect@ap.nic.in             
R41000000000300000000000000000000000000000033881454741PD  GOVT OF AP Hyderabad salary    STATE BANK OF INDIA SECRETARIAT    91044265051                     Jandavath Ravanamma                SCHEDULED TRIBES CO-OP FINANCE COR APGB000306591044265051                        URGENT  Jandavath Ravanamma                                       91044265051     EMLdpao-sect@ap.nic.in             
R41000000000300000000000000000000000000000033881454741PD  GOVT OF AP Hyderabad salary    STATE BANK OF INDIA SECRETARIAT    91044265051                     Desavath Subhasini Bai             SCHEDULED TRIBES CO-OP FINANCE COR APGB000306591044265051                        URGENT  Desavath Subhasini Bai                                    91044265051     EMLdpao-sect@ap.nic.in             
R41000000000300000000000000000000000000000033881454741PD  GOVT OF AP Hyderabad salary    STATE BANK OF INDIA SECRETARIAT    91004646259                     Desavath Chennamm Bai              SCHEDULED TRIBES CO-OP FINANCE COR APGB000306591004646259                        URGENT  Desavath Chennamm Bai                                     91004646259     EMLdpao-sect@ap.nic.in             
R41000000000300000000000000000000000000000033881454741PD  GOVT OF AP Hyderabad salary    STATE BANK OF INDIA SECRETARIAT    91004646259                     J Subadra Bai                      SCHEDULED TRIBES CO-OP FINANCE COR APGB000306591004646259                        URGENT  J Subadra Bai                                             91004646259     EMLdpao-sect@ap.nic.in             
R41000000000300000000000000000000000000000033881454741PD  GOVT OF AP Hyderabad salary    STATE BANK OF INDIA SECRETARIAT    91004646259                     Gonavath Lakshmi Devi              SCHEDULED TRIBES CO-OP FINANCE COR APGB000306591004646259                        URGENT  Gonavath Lakshmi Devi                                     91004646259     EMLdpao-sect@ap.nic.in             
R41000000000300000000000000000000000000000033881454741PD  GOVT OF AP Hyderabad salary    STATE BANK OF INDIA SECRETARIAT    91044265051                     Neha Eswaramma Bai                 SCHEDULED TRIBES CO-OP FINANCE COR APGB000306591044265051                        URGENT  Neha Eswaramma Bai                                        91044265051     EMLdpao-sect@ap.nic.in             
R41000000000300000000000000000000000000000033881454741PD  GOVT OF AP Hyderabad salary    STATE BANK OF INDIA SECRETARIAT    91004646259                     Nenavath Krishna Veni Bai          SCHEDULED TRIBES CO-OP FINANCE COR APGB000306591004646259                        URGENT  Nenavath Krishna Veni Bai                                 91004646259     EMLdpao-sect@ap.nic.in             
R41000000000300000000000000000000000000000033881454741PD  GOVT OF AP Hyderabad salary    STATE BANK OF INDIA SECRETARIAT    91044265051                     Roja Bai                           SCHEDULED TRIBES CO-OP FINANCE COR APGB000306591044265051                        URGENT  Roja Bai                                                  91044265051     EMLdpao-sect@ap.nic.in             
R41000000000600000000000000000000000000000033881454741PD  GOVT OF AP Hyderabad salary    STATE BANK OF INDIA SECRETARIAT    91050796683                     Chadamala Venkataswamy             SCHEDULED TRIBES CO-OP FINANCE COR APGB000515991050796683                        URGENT  Chadamala Venkataswamy                                    91050796683     EMLdpao-sect@ap.nic.in             
R41000000000600000000000000000000000000000033881454741PD  GOVT OF AP Hyderabad salary    STATE BANK OF INDIA SECRETARIAT    91051106567                     Chelamcherla Ramnji                SCHEDULED TRIBES CO-OP FINANCE COR APGB000515991051106567                        URGENT  Chelamcherla Ramnji                                       91051106567     EMLdpao-sect@ap.nic.in             
R41000000000600000000000000000000000000000033881454741PD  GOVT OF AP Hyderabad salary    STATE BANK OF INDIA SECRETARIAT    91050796661                     Pamuri   Srinu                     SCHEDULED TRIBES CO-OP FINANCE COR APGB000515991050796661                        URGENT  Pamuri   Srinu                                            91050796661     EMLdpao-sect@ap.nic.in             
R41000000000600000000000000000000000000000033881454741PD  GOVT OF AP Hyderabad salary    STATE BANK OF INDIA SECRETARIAT    91097535536                     Bojja Yogaiah                      SCHEDULED TRIBES CO-OP FINANCE COR APGB000515991097535536                        URGENT  Bojja Yogaiah                                             91097535536     EMLdpao-sect@ap.nic.in             
R41000000000600000000000000000000000000000033881454741PD  GOVT OF AP Hyderabad salary    STATE BANK OF INDIA SECRETARIAT    91050796672                     Chadamala China Babu               SCHEDULED TRIBES CO-OP FINANCE COR APGB000515991050796672                        URGENT  Chadamala China Babu                                      91050796672     EMLdpao-sect@ap.nic.in             
R41000000000600000000000000000000000000000033881454741PD  GOVT OF AP Hyderabad salary    STATE BANK OF INDIA SECRETARIAT    91046253543                     Undla Narayana                     SCHEDULED TRIBES CO-OP FINANCE COR APGB000515991046253543                        URGENT  Undla Narayana                                            91046253543     EMLdpao-sect@ap.nic.in             
R41000000000600000000000000000000000000000033881454741PD  GOVT OF AP Hyderabad salary    STATE BANK OF INDIA SECRETARIAT    91047390645                     Avula Koteswararao                 SCHEDULED TRIBES CO-OP FINANCE COR APGB000506091047390645                        URGENT  Avula Koteswararao                                        91047390645     EMLdpao-sect@ap.nic.in             
R41000000000600000000000000000000000000000033881454741PD  GOVT OF AP Hyderabad salary    STATE BANK OF INDIA SECRETARIAT    19099037606                      Sugali  Pathlavat Kumari          SCHEDULED TRIBES CO-OP FINANCE COR APGB000506019099037606                        URGENT   Sugali  Pathlavat Kumari                                 19099037606     EMLdpao-sect@ap.nic.in             
R41000000000600000000000000000000000000000033881454741PD  GOVT OF AP Hyderabad salary    STATE BANK OF INDIA SECRETARIAT    91047390555                     Malla Krishna                      SCHEDULED TRIBES CO-OP FINANCE COR APGB000506091047390555                        URGENT  Malla Krishna                                             91047390555     EMLdpao-sect@ap.nic.in             
R41000000000600000000000000000000000000000033881454741PD  GOVT OF AP Hyderabad salary    STATE BANK OF INDIA SECRETARIAT    91047390894                     Avoola Yohan                       SCHEDULED TRIBES CO-OP FINANCE COR APGB000506091047390894                        URGENT  Avoola Yohan                                              91047390894     EMLdpao-sect@ap.nic.in             
R41000000000480000000000000000000000000000033881454741PD  GOVT OF AP Hyderabad salary    STATE BANK OF INDIA SECRETARIAT    91053658256                     Manipati Nagendra                  SCHEDULED TRIBES CO-OP FINANCE COR APGB000302591053658256                        URGENT  Manipati Nagendra                                         91053658256     EMLdpao-sect@ap.nic.in             
R41000000000600000000000000000000000000000033881454741PD  GOVT OF AP Hyderabad salary    STATE BANK OF INDIA SECRETARIAT    91047765888                     Jayampu Anjaiah                    SCHEDULED TRIBES CO-OP FINANCE COR APGB000508091047765888                        URGENT  Jayampu Anjaiah                                           91047765888     EMLdpao-sect@ap.nic.in             
R41000000000600000000000000000000000000000033881454741PD  GOVT OF AP Hyderabad salary    STATE BANK OF INDIA SECRETARIAT    91047765811                     Jamapu Yeasuratnam                 SCHEDULED TRIBES CO-OP FINANCE COR APGB000508091047765811                        URGENT  Jamapu Yeasuratnam                                        91047765811     EMLdpao-sect@ap.nic.in             
R41000000000300000000000000000000000000000033881454741PD  GOVT OF AP Hyderabad salary    STATE BANK OF INDIA SECRETARIAT    91050924492                     Yadigiri Ramana                    SCHEDULED TRIBES CO-OP FINANCE COR APGB000520191050924492                        URGENT  Yadigiri Ramana                                           91050924492     EMLdpao-sect@ap.nic.in             
R41000000000300000000000000000000000000000033881454741PD  GOVT OF AP Hyderabad salary    STATE BANK OF INDIA SECRETARIAT    91050924016                     Adduri Susila                      SCHEDULED TRIBES CO-OP FINANCE COR APGB000520191050924016                        URGENT  Adduri Susila                                             91050924016     EMLdpao-sect@ap.nic.in             
R41000000000300000000000000000000000000000033881454741PD  GOVT OF AP Hyderabad salary    STATE BANK OF INDIA SECRETARIAT    91004739303                     Yerikala Venakteswaramma           SCHEDULED TRIBES CO-OP FINANCE COR APGB000305191004739303                        URGENT  Yerikala Venakteswaramma                                  91004739303     EMLdpao-sect@ap.nic.in             
R41000000000300000000000000000000000000000033881454741PD  GOVT OF AP Hyderabad salary    STATE BANK OF INDIA SECRETARIAT    91004739303                     Yerikali Lakshmi Devi              SCHEDULED TRIBES CO-OP FINANCE COR APGB000305191004739303                        URGENT  Yerikali Lakshmi Devi                                     91004739303     EMLdpao-sect@ap.nic.in             
R41000000000300000000000000000000000000000033881454741PD  GOVT OF AP Hyderabad salary    STATE BANK OF INDIA SECRETARIAT    91004739303                     Yerukala Chandra Kala              SCHEDULED TRIBES CO-OP FINANCE COR APGB000305191004739303                        URGENT  Yerukala Chandra Kala                                     91004739303     EMLdpao-sect@ap.nic.in             
R41000000000300000000000000000000000000000033881454741PD  GOVT OF AP Hyderabad salary    STATE BANK OF INDIA SECRETARIAT    91004739303                     Yerukula Sunkulamma                SCHEDULED TRIBES CO-OP FINANCE COR APGB000305191004739303                        URGENT  Yerukula Sunkulamma                                       91004739303     EMLdpao-sect@ap.nic.in             
R41000000000300000000000000000000000000000033881454741PD  GOVT OF AP Hyderabad salary    STATE BANK OF INDIA SECRETARIAT    91004739303                     Yerukula Sunkamma                  SCHEDULED TRIBES CO-OP FINANCE COR APGB000305191004739303                        URGENT  Yerukula Sunkamma                                         91004739303     EMLdpao-sect@ap.nic.in             
R41000000000300000000000000000000000000000033881454741PD  GOVT OF AP Hyderabad salary    STATE BANK OF INDIA SECRETARIAT    91004739303                     Yerukula Hemalatha                 SCHEDULED TRIBES CO-OP FINANCE COR APGB000305191004739303                        URGENT  Yerukula Hemalatha                                        91004739303     EMLdpao-sect@ap.nic.in             
R41000000000300000000000000000000000000000033881454741PD  GOVT OF AP Hyderabad salary    STATE BANK OF INDIA SECRETARIAT    91004739303                     Venkateswramma                     SCHEDULED TRIBES CO-OP FINANCE COR APGB000305191004739303                        URGENT  Venkateswramma                                            91004739303     EMLdpao-sect@ap.nic.in             
R41000000000300000000000000000000000000000033881454741PD  GOVT OF AP Hyderabad salary    STATE BANK OF INDIA SECRETARIAT    91004739303                     Yerikala Lakshmi Devi              SCHEDULED TRIBES CO-OP FINANCE COR APGB000305191004739303                        URGENT  Yerikala Lakshmi Devi                                     91004739303     EMLdpao-sect@ap.nic.in             
R41000000000300000000000000000000000000000033881454741PD  GOVT OF AP Hyderabad salary    STATE BANK OF INDIA SECRETARIAT    91004739303                     Sujatha                            SCHEDULED TRIBES CO-OP FINANCE COR APGB000305191004739303                        URGENT  Sujatha                                                   91004739303     EMLdpao-sect@ap.nic.in             
R41000000000300000000000000000000000000000033881454741PD  GOVT OF AP Hyderabad salary    STATE BANK OF INDIA SECRETARIAT    91004739303                     Yerukala Aliveli                   SCHEDULED TRIBES CO-OP FINANCE COR APGB000305191004739303                        URGENT  Yerukala Aliveli                                          91004739303     EMLdpao-sect@ap.nic.in             
R41000000000300000000000000000000000000000033881454741PD  GOVT OF AP Hyderabad salary    STATE BANK OF INDIA SECRETARIAT    91004739303                     Yerikali Laxmi Devi                SCHEDULED TRIBES CO-OP FINANCE COR APGB000305191004739303                        URGENT  Yerikali Laxmi Devi                                       91004739303     EMLdpao-sect@ap.nic.in             
R41000000000300000000000000000000000000000033881454741PD  GOVT OF AP Hyderabad salary    STATE BANK OF INDIA SECRETARIAT    91004739303                     Yerukala Suvarna                   SCHEDULED TRIBES CO-OP FINANCE COR APGB000305191004739303                        URGENT  Yerukala Suvarna                                          91004739303     EMLdpao-sect@ap.nic.in             
R41000000000300000000000000000000000000000033881454741PD  GOVT OF AP Hyderabad salary    STATE BANK OF INDIA SECRETARIAT    91004739303                     Yarukula Venkamma                  SCHEDULED TRIBES CO-OP FINANCE COR APGB000305191004739303                        URGENT  Yarukula Venkamma                                         91004739303     EMLdpao-sect@ap.nic.in             
R41000000000300000000000000000000000000000033881454741PD  GOVT OF AP Hyderabad salary    STATE BANK OF INDIA SECRETARIAT    91004739303                     Sudha                              SCHEDULED TRIBES CO-OP FINANCE COR APGB000305191004739303                        URGENT  Sudha                                                     91004739303     EMLdpao-sect@ap.nic.in             
R41000000000300000000000000000000000000000033881454741PD  GOVT OF AP Hyderabad salary    STATE BANK OF INDIA SECRETARIAT    91004739303                     Yerukala Sujatha                   SCHEDULED TRIBES CO-OP FINANCE COR APGB000305191004739303                        URGENT  Yerukala Sujatha                                          91004739303     EMLdpao-sect@ap.nic.in             
R41000000000600000000000000000000000000000033881454741PD  GOVT OF AP Hyderabad salary    STATE BANK OF INDIA SECRETARIAT    91050861429                     Medam Anjamma                      SCHEDULED TRIBES CO-OP FINANCE COR APGB000505991050861429                        URGENT  Medam Anjamma                                             91050861429     EMLdpao-sect@ap.nic.in             
R41000000000600000000000000000000000000000033881454741PD  GOVT OF AP Hyderabad salary    STATE BANK OF INDIA SECRETARIAT    91050861407                     Pola Venkataramana                 SCHEDULED TRIBES CO-OP FINANCE COR APGB000505991050861407                        URGENT  Pola Venkataramana                                        91050861407     EMLdpao-sect@ap.nic.in             
R41000000000600000000000000000000000000000033881454741PD  GOVT OF AP Hyderabad salary    STATE BANK OF INDIA SECRETARIAT    91051941702                     Bhllavath Sankar Naik              SCHEDULED TRIBES CO-OP FINANCE COR APGB000505991051941702                        URGENT  Bhllavath Sankar Naik                                     91051941702     EMLdpao-sect@ap.nic.in             
R41000000000600000000000000000000000000000033881454741PD  GOVT OF AP Hyderabad salary    STATE BANK OF INDIA SECRETARIAT    91051943448                     Pamsani Srinivasulu                SCHEDULED TRIBES CO-OP FINANCE COR APGB000505991051943448                        URGENT  Pamsani Srinivasulu                                       91051943448     EMLdpao-sect@ap.nic.in             
R41000000000600000000000000000000000000000033881454741PD  GOVT OF AP Hyderabad salary    STATE BANK OF INDIA SECRETARIAT    91051941429                     Chilaka Devi Bai                   SCHEDULED TRIBES CO-OP FINANCE COR APGB000505991051941429                        URGENT  Chilaka Devi Bai                                          91051941429     EMLdpao-sect@ap.nic.in             
R41000000000600000000000000000000000000000033881454741PD  GOVT OF AP Hyderabad salary    STATE BANK OF INDIA SECRETARIAT    91051941485                     Paamasani Adilakshmi               SCHEDULED TRIBES CO-OP FINANCE COR APGB000505991051941485                        URGENT  Paamasani Adilakshmi                                      91051941485     EMLdpao-sect@ap.nic.in             
R41000000000300000000000000000000000000000033881454741PD  GOVT OF AP Hyderabad salary    STATE BANK OF INDIA SECRETARIAT    91004397754                     Penugonda Rathnamma                SCHEDULED TRIBES CO-OP FINANCE COR APGB000312591004397754                        URGENT  Penugonda Rathnamma                                       91004397754     EMLdpao-sect@ap.nic.in             
R41000000000300000000000000000000000000000033881454741PD  GOVT OF AP Hyderabad salary    STATE BANK OF INDIA SECRETARIAT    91004397754                     Erukali Kalingara Bhu Lakshmi      SCHEDULED TRIBES CO-OP FINANCE COR APGB000312591004397754                        URGENT  Erukali Kalingara Bhu Lak                                 91004397754     EMLdpao-sect@ap.nic.in             
R41000000000300000000000000000000000000000033881454741PD  GOVT OF AP Hyderabad salary    STATE BANK OF INDIA SECRETARIAT    91004397754                     Medasari Lakshmi Devi              SCHEDULED TRIBES CO-OP FINANCE COR APGB000312591004397754                        URGENT  Medasari Lakshmi Devi                                     91004397754     EMLdpao-sect@ap.nic.in             
R41000000000300000000000000000000000000000033881454741PD  GOVT OF AP Hyderabad salary    STATE BANK OF INDIA SECRETARIAT    91004397754                     Penugonda Lakshmi                  SCHEDULED TRIBES CO-OP FINANCE COR APGB000312591004397754                        URGENT  Penugonda Lakshmi                                         91004397754     EMLdpao-sect@ap.nic.in             
R41000000000300000000000000000000000000000033881454741PD  GOVT OF AP Hyderabad salary    STATE BANK OF INDIA SECRETARIAT    91004397754                     Medasari Chinni                    SCHEDULED TRIBES CO-OP FINANCE COR APGB000312591004397754                        URGENT  Medasari Chinni                                           91004397754     EMLdpao-sect@ap.nic.in             
R41000000000300000000000000000000000000000033881454741PD  GOVT OF AP Hyderabad salary    STATE BANK OF INDIA SECRETARIAT    91004397754                     M Yellamma                         SCHEDULED TRIBES CO-OP FINANCE COR APGB000312591004397754                        URGENT  M Yellamma                                                91004397754     EMLdpao-sect@ap.nic.in             
R41000000000300000000000000000000000000000033881454741PD  GOVT OF AP Hyderabad salary    STATE BANK OF INDIA SECRETARIAT    91004397754                     Naga Sari Suvarna                  SCHEDULED TRIBES CO-OP FINANCE COR APGB000312591004397754                        URGENT  Naga Sari Suvarna                                         91004397754     EMLdpao-sect@ap.nic.in             
R41000000000300000000000000000000000000000033881454741PD  GOVT OF AP Hyderabad salary    STATE BANK OF INDIA SECRETARIAT    91004397754                     Medasari Narayanamma               SCHEDULED TRIBES CO-OP FINANCE COR APGB000312591004397754                        URGENT  Medasari Narayanamma                                      91004397754     EMLdpao-sect@ap.nic.in             
R41000000000300000000000000000000000000000033881454741PD  GOVT OF AP Hyderabad salary    STATE BANK OF INDIA SECRETARIAT    91004397754                     N Suvarna                          SCHEDULED TRIBES CO-OP FINANCE COR APGB000312591004397754                        URGENT  N Suvarna                                                 91004397754     EMLdpao-sect@ap.nic.in             
R41000000000300000000000000000000000000000033881454741PD  GOVT OF AP Hyderabad salary    STATE BANK OF INDIA SECRETARIAT    91004397754                     Naga Sari Sunkulu                  SCHEDULED TRIBES CO-OP FINANCE COR APGB000312591004397754                        URGENT  Naga Sari Sunkulu                                         91004397754     EMLdpao-sect@ap.nic.in             
R41000000000300000000000000000000000000000033881454741PD  GOVT OF AP Hyderabad salary    STATE BANK OF INDIA SECRETARIAT    91004397754                     P Lakshmi Devi                     SCHEDULED TRIBES CO-OP FINANCE COR APGB000312591004397754                        URGENT  P Lakshmi Devi                                            91004397754     EMLdpao-sect@ap.nic.in             
R41000000000300000000000000000000000000000033881454741PD  GOVT OF AP Hyderabad salary    STATE BANK OF INDIA SECRETARIAT    91004397754                     Penugonda Lakshmi Devi             SCHEDULED TRIBES CO-OP FINANCE COR APGB000312591004397754                        URGENT  Penugonda Lakshmi Devi                                    91004397754     EMLdpao-sect@ap.nic.in             
R41000000000300000000000000000000000000000033881454741PD  GOVT OF AP Hyderabad salary    STATE BANK OF INDIA SECRETARIAT    91004397754                     Penugonda Saritha                  SCHEDULED TRIBES CO-OP FINANCE COR APGB000312591004397754                        URGENT  Penugonda Saritha                                         91004397754     EMLdpao-sect@ap.nic.in             
R41000000000300000000000000000000000000000033881454741PD  GOVT OF AP Hyderabad salary    STATE BANK OF INDIA SECRETARIAT    91004397754                     Penugonda Eswaramma                SCHEDULED TRIBES CO-OP FINANCE COR APGB000312591004397754                        URGENT  Penugonda Eswaramma                                       91004397754     EMLdpao-sect@ap.nic.in             
R41000000000300000000000000000000000000000033881454741PD  GOVT OF AP Hyderabad salary    STATE BANK OF INDIA SECRETARIAT    91004943397                     Medasari Pullamma                  SCHEDULED TRIBES CO-OP FINANCE COR APGB000307391004943397                        URGENT  Medasari Pullamma                                         91004943397     EMLdpao-sect@ap.nic.in             
R41000000000300000000000000000000000000000033881454741PD  GOVT OF AP Hyderabad salary    STATE BANK OF INDIA SECRETARIAT    91004943397                     Meda Sari Eswaramma                SCHEDULED TRIBES CO-OP FINANCE COR APGB000307391004943397                        URGENT  Meda Sari Eswaramma                                       91004943397     EMLdpao-sect@ap.nic.in             
R41000000000300000000000000000000000000000033881454741PD  GOVT OF AP Hyderabad salary    STATE BANK OF INDIA SECRETARIAT    91004943397                     M.Gayatri                          SCHEDULED TRIBES CO-OP FINANCE COR APGB000307391004943397                        URGENT  M.Gayatri                                                 91004943397     EMLdpao-sect@ap.nic.in             
R41000000000300000000000000000000000000000033881454741PD  GOVT OF AP Hyderabad salary    STATE BANK OF INDIA SECRETARIAT    91004943397                     Erikala Penugonda Nagamma          SCHEDULED TRIBES CO-OP FINANCE COR APGB000307391004943397                        URGENT  Erikala Penugonda Nagamma                                 91004943397     EMLdpao-sect@ap.nic.in             
R41000000000300000000000000000000000000000033881454741PD  GOVT OF AP Hyderabad salary    STATE BANK OF INDIA SECRETARIAT    91004943397                     Gangothri                          SCHEDULED TRIBES CO-OP FINANCE COR APGB000307391004943397                        URGENT  Gangothri                                                 91004943397     EMLdpao-sect@ap.nic.in             
R41000000000300000000000000000000000000000033881454741PD  GOVT OF AP Hyderabad salary    STATE BANK OF INDIA SECRETARIAT    91004943397                     Sarankula Gangu Bai                SCHEDULED TRIBES CO-OP FINANCE COR APGB000307391004943397                        URGENT  Sarankula Gangu Bai                                       91004943397     EMLdpao-sect@ap.nic.in             
R41000000000300000000000000000000000000000033881454741PD  GOVT OF AP Hyderabad salary    STATE BANK OF INDIA SECRETARIAT    91004943397                     Medasari Venkata Lakshmi           SCHEDULED TRIBES CO-OP FINANCE COR APGB000307391004943397                        URGENT  Medasari Venkata Lakshmi                                  91004943397     EMLdpao-sect@ap.nic.in             
R41000000000300000000000000000000000000000033881454741PD  GOVT OF AP Hyderabad salary    STATE BANK OF INDIA SECRETARIAT    91004943397                     Medasari Nagendramma               SCHEDULED TRIBES CO-OP FINANCE COR APGB000307391004943397                        URGENT  Medasari Nagendramma                                      91004943397     EMLdpao-sect@ap.nic.in             
R41000000000300000000000000000000000000000033881454741PD  GOVT OF AP Hyderabad salary    STATE BANK OF INDIA SECRETARIAT    91004943397                     Penugonda Peddakka                 SCHEDULED TRIBES CO-OP FINANCE COR APGB000307391004943397                        URGENT  Penugonda Peddakka                                        91004943397     EMLdpao-sect@ap.nic.in             
R41000000000300000000000000000000000000000033881454741PD  GOVT OF AP Hyderabad salary    STATE BANK OF INDIA SECRETARIAT    91004943397                     Penugonda Nagamma                  SCHEDULED TRIBES CO-OP FINANCE COR APGB000307391004943397                        URGENT  Penugonda Nagamma                                         91004943397     EMLdpao-sect@ap.nic.in             
R41000000000300000000000000000000000000000033881454741PD  GOVT OF AP Hyderabad salary    STATE BANK OF INDIA SECRETARIAT    91004943397                     Medasari Madevi                    SCHEDULED TRIBES CO-OP FINANCE COR APGB000307391004943397                        URGENT  Medasari Madevi                                           91004943397     EMLdpao-sect@ap.nic.in             
R41000000000300000000000000000000000000000033881454741PD  GOVT OF AP Hyderabad salary    STATE BANK OF INDIA SECRETARIAT    91004943397                     Nalla Bothula Bhu Lakshmi          SCHEDULED TRIBES CO-OP FINANCE COR APGB000307391004943397                        URGENT  Nalla Bothula Bhu Lakshmi                                 91004943397     EMLdpao-sect@ap.nic.in             
R41000000000300000000000000000000000000000033881454741PD  GOVT OF AP Hyderabad salary    STATE BANK OF INDIA SECRETARIAT    19109054579                     Sugali Banoth Prasadnaik           SCHEDULED TRIBES CO-OP FINANCE COR APGB000103319109054579                        URGENT  Sugali Banoth Prasadnaik                                  19109054579     EMLdpao-sect@ap.nic.in             
R41000000000300000000000000000000000000000033881454741PD  GOVT OF AP Hyderabad salary    STATE BANK OF INDIA SECRETARIAT    91046567821                     Vadithe Rameshnaik                 SCHEDULED TRIBES CO-OP FINANCE COR APGB000103391046567821                        URGENT  Vadithe Rameshnaik                                        91046567821     EMLdpao-sect@ap.nic.in             
R41000000000300000000000000000000000000000033881454741PD  GOVT OF AP Hyderabad salary    STATE BANK OF INDIA SECRETARIAT    91053948028                     Kimavath Jayaram Naik              SCHEDULED TRIBES CO-OP FINANCE COR APGB000103391053948028                        URGENT  Kimavath Jayaram Naik                                     91053948028     EMLdpao-sect@ap.nic.in             
R41000000000300000000000000000000000000000033881454741PD  GOVT OF AP Hyderabad salary    STATE BANK OF INDIA SECRETARIAT    91033394330                     Islavath Sreekanth Naik            SCHEDULED TRIBES CO-OP FINANCE COR APGB000103391033394330                        URGENT  Islavath Sreekanth Naik                                   91033394330     EMLdpao-sect@ap.nic.in             
R41000000000300000000000000000000000000000033881454741PD  GOVT OF AP Hyderabad salary    STATE BANK OF INDIA SECRETARIAT    19109038692                     Erikila Muthyalamma                SCHEDULED TRIBES CO-OP FINANCE COR APGB000103319109038692                        URGENT  Erikila Muthyalamma                                       19109038692     EMLdpao-sect@ap.nic.in             
R41000000000060000000000000000000000000000033881454741PD  GOVT OF AP Hyderabad salary    STATE BANK OF INDIA SECRETARIAT    91050672624                     Chouturi Durgarao                  SCHEDULED TRIBES CO-OP FINANCE COR APGB000506491050672624                        URGENT  Chouturi Durgarao                                         91050672624     EMLdpao-sect@ap.nic.in             
R41000000000060000000000000000000000000000033881454741PD  GOVT OF AP Hyderabad salary    STATE BANK OF INDIA SECRETARIAT    91049544448                     Chouturi Ankamma Rao               SCHEDULED TRIBES CO-OP FINANCE COR APGB000506491049544448                        URGENT  Chouturi Ankamma Rao                                      91049544448     EMLdpao-sect@ap.nic.in             
R41000000000600000000000000000000000000000033881454741PD  GOVT OF AP Hyderabad salary    STATE BANK OF INDIA SECRETARIAT    19114524267                     Ponnarusu Suresh                   SCHEDULED TRIBES CO-OP FINANCE COR APGB000506419114524267                        URGENT  Ponnarusu Suresh                                          19114524267     EMLdpao-sect@ap.nic.in             
R41000000000060000000000000000000000000000033881454741PD  GOVT OF AP Hyderabad salary    STATE BANK OF INDIA SECRETARIAT    91050672476                     Ponnuri Rambabu                    SCHEDULED TRIBES CO-OP FINANCE COR APGB000506491050672476                        URGENT  Ponnuri Rambabu                                           91050672476     EMLdpao-sect@ap.nic.in             
R41000000000600000000000000000000000000000033881454741PD  GOVT OF AP Hyderabad salary    STATE BANK OF INDIA SECRETARIAT    91023395777                     Yakasiri Rama Devi                 SCHEDULED TRIBES CO-OP FINANCE COR APGB000506491023395777                        URGENT  Yakasiri Rama Devi                                        91023395777     EMLdpao-sect@ap.nic.in             
R41000000000600000000000000000000000000000033881454741PD  GOVT OF AP Hyderabad salary    STATE BANK OF INDIA SECRETARIAT    19114522497                     Ponnarusu Srihari                  SCHEDULED TRIBES CO-OP FINANCE COR APGB000506419114522497                        URGENT  Ponnarusu Srihari                                         19114522497     EMLdpao-sect@ap.nic.in             
R41000000000600000000000000000000000000000033881454741PD  GOVT OF AP Hyderabad salary    STATE BANK OF INDIA SECRETARIAT    19114519100                     Jampani Veera Bhadra Rao           SCHEDULED TRIBES CO-OP FINANCE COR APGB000506419114519100                        URGENT  Jampani Veera Bhadra Rao                                  19114519100     EMLdpao-sect@ap.nic.in             
R41000000000400000000000000000000000000000033881454741PD  GOVT OF AP Hyderabad salary    STATE BANK OF INDIA SECRETARIAT    91052703969                     Mekala Ramanji                     SCHEDULED TRIBES CO-OP FINANCE COR APGB000506291052703969                        URGENT  Mekala Ramanji                                            91052703969     EMLdpao-sect@ap.nic.in             
R41000000000600000000000000000000000000000033881454741PD  GOVT OF AP Hyderabad salary    STATE BANK OF INDIA SECRETARIAT    91052626734                     Valepu Srinivasarao                SCHEDULED TRIBES CO-OP FINANCE COR APGB000506291052626734                        URGENT  Valepu Srinivasarao                                       91052626734     EMLdpao-sect@ap.nic.in             
R41000000000600000000000000000000000000000033881454741PD  GOVT OF AP Hyderabad salary    STATE BANK OF INDIA SECRETARIAT    91037296656                     Banavathu Lakshmi Bai              SCHEDULED TRIBES CO-OP FINANCE COR APGB000510591037296656                        URGENT  Banavathu Lakshmi Bai                                     91037296656     EMLdpao-sect@ap.nic.in             
R41000000000600000000000000000000000000000033881454741PD  GOVT OF AP Hyderabad salary    STATE BANK OF INDIA SECRETARIAT    91053181714                     Bukya Meribai                      SCHEDULED TRIBES CO-OP FINANCE COR APGB000510591053181714                        URGENT  Bukya Meribai                                             91053181714     EMLdpao-sect@ap.nic.in             
R41000000000600000000000000000000000000000033881454741PD  GOVT OF AP Hyderabad salary    STATE BANK OF INDIA SECRETARIAT    91033918913                     Mudavath Balamma                   SCHEDULED TRIBES CO-OP FINANCE COR APGB000505391033918913                        URGENT  Mudavath Balamma                                          91033918913     EMLdpao-sect@ap.nic.in             
R41000000000600000000000000000000000000000033881454741PD  GOVT OF AP Hyderabad salary    STATE BANK OF INDIA SECRETARIAT    91050139774                     Illa Venkayamma                    SCHEDULED TRIBES CO-OP FINANCE COR APGB000505391050139774                        URGENT  Illa Venkayamma                                           91050139774     EMLdpao-sect@ap.nic.in             
R41000000000600000000000000000000000000000033881454741PD  GOVT OF AP Hyderabad salary    STATE BANK OF INDIA SECRETARIAT    91051130556                     Gundala Lelavathi                  SCHEDULED TRIBES CO-OP FINANCE COR APGB000506891051130556                        URGENT  Gundala Lelavathi                                         91051130556     EMLdpao-sect@ap.nic.in             
R41000000000600000000000000000000000000000033881454741PD  GOVT OF AP Hyderabad salary    STATE BANK OF INDIA SECRETARIAT    91051129303                     Kaki Thirupal                      SCHEDULED TRIBES CO-OP FINANCE COR APGB000506891051129303                        URGENT  Kaki Thirupal                                             91051129303     EMLdpao-sect@ap.nic.in             
R41000000000300000000000000000000000000000033881454741PD  GOVT OF AP Hyderabad salary    STATE BANK OF INDIA SECRETARIAT    91051129868                     Paamula Kondamma                   SCHEDULED TRIBES CO-OP FINANCE COR APGB000000191051129868                        URGENT  Paamula Kondamma                                          91051129868     EMLdpao-sect@ap.nic.in             
R41000000000600000000000000000000000000000033881454741PD  GOVT OF AP Hyderabad salary    STATE BANK OF INDIA SECRETARIAT    91051131210                     Savaram Lakshmi Devi               SCHEDULED TRIBES CO-OP FINANCE COR APGB000000191051131210                        URGENT  Savaram Lakshmi Devi                                      91051131210     EMLdpao-sect@ap.nic.in             
R41000000000300000000000000000000000000000033881454741PD  GOVT OF AP Hyderabad salary    STATE BANK OF INDIA SECRETARIAT    91051129438                     Mekala Laxmi Devi                  SCHEDULED TRIBES CO-OP FINANCE COR APGB000000191051129438                        URGENT  Mekala Laxmi Devi                                         91051129438     EMLdpao-sect@ap.nic.in             
R41000000000300000000000000000000000000000033881454741PD  GOVT OF AP Hyderabad salary    STATE BANK OF INDIA SECRETARIAT    91051130396                     Kommi Tirupathi Rao                SCHEDULED TRIBES CO-OP FINANCE COR APGB000000191051130396                        URGENT  Kommi Tirupathi Rao                                       91051130396     EMLdpao-sect@ap.nic.in             
R41000000000300000000000000000000000000000033881454741PD  GOVT OF AP Hyderabad salary    STATE BANK OF INDIA SECRETARIAT    91051129960                     Vemmi Chinnakka                    SCHEDULED TRIBES CO-OP FINANCE COR APGB000000191051129960                        URGENT  Vemmi Chinnakka                                           91051129960     EMLdpao-sect@ap.nic.in             
R41000000000600000000000000000000000000000033881454741PD  GOVT OF AP Hyderabad salary    STATE BANK OF INDIA SECRETARIAT    91051129620                     Kommi Alluramma                    SCHEDULED TRIBES CO-OP FINANCE COR APGB000000191051129620                        URGENT  Kommi Alluramma                                           91051129620     EMLdpao-sect@ap.nic.in             
R41000000000600000000000000000000000000000033881454741PD  GOVT OF AP Hyderabad salary    STATE BANK OF INDIA SECRETARIAT    91049090843                     Talapala Ankammarao                SCHEDULED TRIBES CO-OP FINANCE COR APGB000515291049090843                        URGENT  Talapala Ankammarao                                       91049090843     EMLdpao-sect@ap.nic.in             
R41000000000600000000000000000000000000000033881454741PD  GOVT OF AP Hyderabad salary    STATE BANK OF INDIA SECRETARIAT    91046984629                     Dodda Srinivasa Rao                SCHEDULED TRIBES CO-OP FINANCE COR APGB000516891046984629                        URGENT  Dodda Srinivasa Rao                                       91046984629     EMLdpao-sect@ap.nic.in             
R41000000001000000000000000000000000000000033881454741PD  GOVT OF AP Hyderabad salary    STATE BANK OF INDIA SECRETARIAT    19132039711                     Prasad                             SCHEDULED TRIBES CO-OP FINANCE COR APGB000516819132039711                        URGENT  Prasad                                                    19132039711     EMLdpao-sect@ap.nic.in             
R41000000000300000000000000000000000000000033881454741PD  GOVT OF AP Hyderabad salary    STATE BANK OF INDIA SECRETARIAT    91046685529                     Mekala Praveen                     SCHEDULED TRIBES CO-OP FINANCE COR APGB000516891046685529                        URGENT  Mekala Praveen                                            91046685529     EMLdpao-sect@ap.nic.in             
R41000000000360000000000000000000000000000033881454741PD  GOVT OF AP Hyderabad salary    STATE BANK OF INDIA SECRETARIAT    91052400896                     Udumula Jhansi                     SCHEDULED TRIBES CO-OP FINANCE COR APGB000510891052400896                        URGENT  Udumula Jhansi                                            91052400896     EMLdpao-sect@ap.nic.in             
R41000000000600000000000000000000000000000033881454741PD  GOVT OF AP Hyderabad salary    STATE BANK OF INDIA SECRETARIAT    91052587227                     Erukala Ravikumar                  SCHEDULED TRIBES CO-OP FINANCE COR APGB000102491052587227                        URGENT  Erukala Ravikumar                                         91052587227     EMLdpao-sect@ap.nic.in             
R41000000000600000000000000000000000000000033881454741PD  GOVT OF AP Hyderabad salary    STATE BANK OF INDIA SECRETARIAT    91052786812                     Sugala Ramanji Naik                SCHEDULED TRIBES CO-OP FINANCE COR APGB000110091052786812                        URGENT  Sugala Ramanji Naik                                       91052786812     EMLdpao-sect@ap.nic.in             
R41000000000600000000000000000000000000000033881454741PD  GOVT OF AP Hyderabad salary    STATE BANK OF INDIA SECRETARIAT    91052786845                     Vakrodtha Somala Naik              SCHEDULED TRIBES CO-OP FINANCE COR APGB000110091052786845                        URGENT  Vakrodtha Somala Naik                                     91052786845     EMLdpao-sect@ap.nic.in             
R41000000000600000000000000000000000000000033881454741PD  GOVT OF AP Hyderabad salary    STATE BANK OF INDIA SECRETARIAT    91052849648                     Sugali Narayana Naik               SCHEDULED TRIBES CO-OP FINANCE COR APGB000110091052849648                        URGENT  Sugali Narayana Naik                                      91052849648     EMLdpao-sect@ap.nic.in             
R41000000000600000000000000000000000000000033881454741PD  GOVT OF AP Hyderabad salary    STATE BANK OF INDIA SECRETARIAT    91053698577                     Medasari Thirupal                  SCHEDULED TRIBES CO-OP FINANCE COR APGB000100991053698577                        URGENT  Medasari Thirupal                                         91053698577     EMLdpao-sect@ap.nic.in             
R41000000001000000000000000000000000000000033881454741PD  GOVT OF AP Hyderabad salary    STATE BANK OF INDIA SECRETARIAT    9.15E+13                        Chintaguta Jaya Prakash Ramanna    SCHEDULED TRIBES CO-OP FINANCE COR UTIB00002939.15E+13                           URGENT  Chintaguta Jaya Prakash R                                 9.15E+13        EMLdpao-sect@ap.nic.in             
R41000000000300000000000000000000000000000033881454741PD  GOVT OF AP Hyderabad salary    STATE BANK OF INDIA SECRETARIAT    5.61E+14                        Etla Sreenu                        SCHEDULED TRIBES CO-OP FINANCE COR BKID00056125.61E+14                           URGENT  Etla Sreenu                                               5.61E+14        EMLdpao-sect@ap.nic.in             
R41000000000300000000000000000000000000000033881454741PD  GOVT OF AP Hyderabad salary    STATE BANK OF INDIA SECRETARIAT    8.65E+14                        Y. Lakshmi Devi                    SCHEDULED TRIBES CO-OP FINANCE COR BKID00086458.65E+14                           URGENT  Y. Lakshmi Devi                                           8.65E+14        EMLdpao-sect@ap.nic.in             
R41000000001000000000000000000000000000000033881454741PD  GOVT OF AP Hyderabad salary    STATE BANK OF INDIA SECRETARIAT    5.65E+14                        Bukya Prameela                     SCHEDULED TRIBES CO-OP FINANCE COR BKID00056465.65E+14                           URGENT  Bukya Prameela                                            5.65E+14        EMLdpao-sect@ap.nic.in             
R41000000001000000000000000000000000000000033881454741PD  GOVT OF AP Hyderabad salary    STATE BANK OF INDIA SECRETARIAT    5.61E+14                        Jaganadham Santhi                  SCHEDULED TRIBES CO-OP FINANCE COR BKID00056105.61E+14                           URGENT  Jaganadham Santhi                                         5.61E+14        EMLdpao-sect@ap.nic.in             
R41000000001000000000000000000000000000000033881454741PD  GOVT OF AP Hyderabad salary    STATE BANK OF INDIA SECRETARIAT    5.61E+14                        Devarakonda Padma                  SCHEDULED TRIBES CO-OP FINANCE COR BKID00056105.61E+14                           URGENT  Devarakonda Padma                                         5.61E+14        EMLdpao-sect@ap.nic.in             
R41000000001000000000000000000000000000000033881454741PD  GOVT OF AP Hyderabad salary    STATE BANK OF INDIA SECRETARIAT    5.61E+14                        Galeti Karthik                     SCHEDULED TRIBES CO-OP FINANCE COR BKID00056105.61E+14                           URGENT  Galeti Karthik                                            5.61E+14        EMLdpao-sect@ap.nic.in             
R41000000001000000000000000000000000000000033881454741PD  GOVT OF AP Hyderabad salary    STATE BANK OF INDIA SECRETARIAT    5.61E+14                        Moota Ankamma                      SCHEDULED TRIBES CO-OP FINANCE COR BKID00056105.61E+14                           URGENT  Moota Ankamma                                             5.61E+14        EMLdpao-sect@ap.nic.in             
