R41000000000012950000000000000000000000000033881454741PAO GOVT OF AP Hyderabad salary    STATE BANK OF INDIA SECRETARIAT    52188969484                     S SATYANARAYANA                    FILM AND TV DEVELOPMENT  CORPORATI SBHY002007052188969484                        URGENT  S SATYANARAYANA          52188969484     
R41000000000004080000000000000000000000000033881454741PAO GOVT OF AP Hyderabad salary    STATE BANK OF INDIA SECRETARIAT    52188952448                     MVLN SESHASAI                      FILM AND TV DEVELOPMENT  CORPORATI SBHY002007052188952448                        URGENT  MVLN SESHASAI            52188952448     
R41000000000016000000000000000000000000000033881454741PAO GOVT OF AP Hyderabad salary    STATE BANK OF INDIA SECRETARIAT    62041256238                     R DEVASINGH                        FILM AND TV DEVELOPMENT  CORPORATI SBHY002007062041256238                        URGENT  R DEVASINGH              62041256238     
R41000000000004000000000000000000000000000033881454741PAO GOVT OF AP Hyderabad salary    STATE BANK OF INDIA SECRETARIAT    62101623000                     M RAVI                             FILM AND TV DEVELOPMENT  CORPORATI SBHY002007062101623000                        URGENT  M RAVI                   62101623000     
R41000000000017000000000000000000000000000033881454741PAO GOVT OF AP Hyderabad salary    STATE BANK OF INDIA SECRETARIAT    52188935466                     C SRINIVASULU                      FILM AND TV DEVELOPMENT  CORPORATI SBHY002007052188935466                        URGENT  C SRINIVASULU            52188935466     
R41000000003871140000000000000000000000000033881454741PAO GOVT OF AP Hyderabad salary    STATE BANK OF INDIA SECRETARIAT    52188920073                     APSFTVTDC LTD                      FILM AND TV DEVELOPMENT  CORPORATI SBHY002007052188920073                        URGENT  APSFTVTDC LTD            52188920073     
