R41024210021003903 000000004060000000000000000000000000000033881454741PD  GOVT OF AP Hyderabad salary    STATE BANK OF INDIA SECRETARIAT    024210021003903                 M. Pitchi Reddy                    SEEDS DEV CORP, AP STATE -V.C & M. ANDB0000242024210021003903                    URGENT  M. Pitchi Reddy          024210021003903 
R4132822010001124  000000012690000000000000000000000000000033881454741PD  GOVT OF AP Hyderabad salary    STATE BANK OF INDIA SECRETARIAT    32822010001124                  K. Srinivasa Rao                   SEEDS DEV CORP, AP STATE -V.C & M. SYNB000328232822010001124                     URGENT  K. Srinivasa Rao         32822010001124  
R41330502010005901 000000010380000000000000000000000000000033881454741PD  GOVT OF AP Hyderabad salary    STATE BANK OF INDIA SECRETARIAT    330502010005901                 G. Radha Rani                      SEEDS DEV CORP, AP STATE -V.C & M. UBIN0533050330502010005901                    URGENT  G. Radha Rani            330502010005901 
R41330502010005901 000000009500000000000000000000000000000033881454741PD  GOVT OF AP Hyderabad salary    STATE BANK OF INDIA SECRETARIAT    330502010005901                 G. Venkata Ramaiah                 SEEDS DEV CORP, AP STATE -V.C & M. UBIN0533050330502010005901                    URGENT  G. Venkata Ramaiah       330502010005901 
R41400601010012244 000000008930000000000000000000000000000033881454741PD  GOVT OF AP Hyderabad salary    STATE BANK OF INDIA SECRETARIAT    400601010012244                 P. Brahmanandam                    SEEDS DEV CORP, AP STATE -V.C & M. VIJB0004006400601010012244                    URGENT  P. Brahmanandam          400601010012244 
R41055110011017738 000000008800000000000000000000000000000033881454741PD  GOVT OF AP Hyderabad salary    STATE BANK OF INDIA SECRETARIAT    055110011017738                 V. Siva Reddy                      SEEDS DEV CORP, AP STATE -V.C & M. ANDB0000551055110011017738                    URGENT  V. Siva Reddy            055110011017738 
R41024210100034800 000000009610000000000000000000000000000033881454741PD  GOVT OF AP Hyderabad salary    STATE BANK OF INDIA SECRETARIAT    024210100034800                 M. Vijaya Lakshmi                  SEEDS DEV CORP, AP STATE -V.C & M. ANDB0000242024210100034800                    URGENT  M. Vijaya Lakshmi        024210100034800 
R41024211011000483 000000004860000000000000000000000000000033881454741PD  GOVT OF AP Hyderabad salary    STATE BANK OF INDIA SECRETARIAT    024211011000483                 M. Tirupathi Reddy                 SEEDS DEV CORP, AP STATE -V.C & M. ANDB0000242024211011000483                    URGENT  M. Tirupathi Reddy       024211011000483 
R41055411011001408 000000003600000000000000000000000000000033881454741PD  GOVT OF AP Hyderabad salary    STATE BANK OF INDIA SECRETARIAT    055411011001408                 APSSDC Ltd, Tanuku                 SEEDS DEV CORP, AP STATE -V.C & M. ANDB0000554055411011001408                    URGENT  APSSDC Ltd, Tanuku       055411011001408 
