R41000000034900000000000000000000000099999999999999999PAO GOVT OF AP Hyderabad salary    STATE BANK OF INDIA SECRETARIAT    051411011000456                 APSSDC Ltd Srikalahasti            SEEDS DEV CORP AP STATE -VC & MD   ANDB0000514051411011000456                    URGENT  APSSDC Ltd Srikalahasti                                   051411011000456 EMLdpao-sect@ap.nic.in             
R41000000049490000000000000000000000099999999999999999PAO GOVT OF AP Hyderabad salary    STATE BANK OF INDIA SECRETARIAT    060911011002450                 APSSDC  Vizianagaram               SEEDS DEV CORP AP STATE -VC & MD   ANDB0000609060911011002450                    URGENT  APSSDC  Vizianagaram                                      060911011002450 EMLdpao-sect@ap.nic.in             
R41000000001200000000000000000000000099999999999999999PAO GOVT OF AP Hyderabad salary    STATE BANK OF INDIA SECRETARIAT    071911011000190                 APSSDC Ltd Eluru                   SEEDS DEV CORP AP STATE -VC & MD   ANDB0000719071911011000190                    URGENT  APSSDC Ltd Eluru                                          071911011000190 EMLdpao-sect@ap.nic.in             
R41000000004070000000000000000000000099999999999999999PAO GOVT OF AP Hyderabad salary    STATE BANK OF INDIA SECRETARIAT    055110011014785                 V Purna Chandra Reddy              SEEDS DEV CORP AP STATE -VC & MD   ANDB0000551055110011014785                    URGENT  V Purna Chandra Reddy                                     055110011014785 EMLdpao-sect@ap.nic.in             
R41000000005520000000000000000000000099999999999999999PAO GOVT OF AP Hyderabad salary    STATE BANK OF INDIA SECRETARIAT    015000401110005                 KSR Seeds Guntur                   SEEDS DEV CORP AP STATE -VC & MD   CORP0000150015000401110005                    URGENT  KSR Seeds Guntur                                          015000401110005 EMLdpao-sect@ap.nic.in             
