R41405901010008291 000000000023820000000000000000000000000033881454741PAO GOVT OF AP Hyderabad salary    STATE BANK OF INDIA SECRETARIAT    405901010008291                 M Tirupathi Naidu Chairman VLC GottZILLA PARISHAD DY CEO VIZIANAGARAM VIJB0004059405901010008291                    URGENT  M Tirupathi Naidu Chairma405901010008291 
R41405901010008291 000000000047740000000000000000000000000033881454741PAO GOVT OF AP Hyderabad salary    STATE BANK OF INDIA SECRETARIAT    405901010008291                 M Tirupathi Naidu Chairman VLC SaraZILLA PARISHAD DY CEO VIZIANAGARAM VIJB0004059405901010008291                    URGENT  M Tirupathi Naidu Chairma405901010008291 
R41405901010008291 000000000021890000000000000000000000000033881454741PAO GOVT OF AP Hyderabad salary    STATE BANK OF INDIA SECRETARIAT    405901010008291                 M Tirupathi Naidu Chairman VLC RompZILLA PARISHAD DY CEO VIZIANAGARAM VIJB0004059405901010008291                    URGENT  M Tirupathi Naidu Chairma405901010008291 
R41405901010008291 000000000185390000000000000000000000000033881454741PAO GOVT OF AP Hyderabad salary    STATE BANK OF INDIA SECRETARIAT    405901010008291                 M Tirupathi Naidu Chairman VLC KottZILLA PARISHAD DY CEO VIZIANAGARAM VIJB0004059405901010008291                    URGENT  M Tirupathi Naidu Chairma405901010008291 
