R41000000001110000000000000000000000000000033881454741PAO GOVT OF AP Hyderabad salary    STATE BANK OF INDIA SECRETARIAT    31982200039500                  MPDO MUDDANUR                      PLANING DEPT DY DIRECTOR YSR KADAP SYNB0003198PLANING DEPT DY DIRECTOR YSR KADAP URGENT  MPDO MUDDANUR                                             01007122        EMLdpao-sect@ap.nic.in             
R41000000000930000000000000000000000000000033881454741PAO GOVT OF AP Hyderabad salary    STATE BANK OF INDIA SECRETARIAT    57311011000261                  MPDO RAJUPALEM                     PLANING DEPT DY DIRECTOR YSR KADAP BKID0005731PLANING DEPT DY DIRECTOR YSR KADAP URGENT  MPDO RAJUPALEM                                            01007134        EMLdpao-sect@ap.nic.in             
R41000000000890000000000000000000000000000033881454741PAO GOVT OF AP Hyderabad salary    STATE BANK OF INDIA SECRETARIAT    9130200033069518                MPDO SAMBEPALLE                    PLANING DEPT DY DIRECTOR YSR KADAP UTIB0002158PLANING DEPT DY DIRECTOR YSR KADAP URGENT  MPDO SAMBEPALLE                                           01007139        EMLdpao-sect@ap.nic.in             
R41000000002430000000000000000000000000000033881454741PAO GOVT OF AP Hyderabad salary    STATE BANK OF INDIA SECRETARIAT    62064482386                     COMMISSIONER KMC                   PLANING DEPT DY DIRECTOR YSR KADAP SBHY0020513PLANING DEPT DY DIRECTOR YSR KADAP URGENT  COMMISSIONER KMC                                          01007151        EMLdpao-sect@ap.nic.in             
R41000000001080000000000000000000000000000033881454741PAO GOVT OF AP Hyderabad salary    STATE BANK OF INDIA SECRETARIAT    103910100055371                 MPL COMMR JMADUGU                  PLANING DEPT DY DIRECTOR YSR KADAP ANDB0001039PLANING DEPT DY DIRECTOR YSR KADAP URGENT  MPL COMMR JMADUGU                                         01007153        EMLdpao-sect@ap.nic.in             
R41000000002030000000000000000000000000000033881454741PAO GOVT OF AP Hyderabad salary    STATE BANK OF INDIA SECRETARIAT    231210100019476                 MPL COMMR PRODDATUR                PLANING DEPT DY DIRECTOR YSR KADAP ANDB0002312PLANING DEPT DY DIRECTOR YSR KADAP URGENT  MPL COMMR PRODDATUR                                       01007154        EMLdpao-sect@ap.nic.in             
R41000000001320000000000000000000000000000033881454741PAO GOVT OF AP Hyderabad salary    STATE BANK OF INDIA SECRETARIAT    045201100017609                 MPL COMMR PULIVENDULA              PLANING DEPT DY DIRECTOR YSR KADAP ANDB0000452PLANING DEPT DY DIRECTOR YSR KADAP URGENT  MPL COMMR PULIVENDULA                                     01007155        EMLdpao-sect@ap.nic.in             
R41000000001080000000000000000000000000000033881454741PAO GOVT OF AP Hyderabad salary    STATE BANK OF INDIA SECRETARIAT    62234840089                     MPL COMMR YERRAGUNTLA              PLANING DEPT DY DIRECTOR YSR KADAP SBHY0020998PLANING DEPT DY DIRECTOR YSR KADAP URGENT  MPL COMMR YERRAGUNTLA                                     01007159        EMLdpao-sect@ap.nic.in             
R41000000026880000000000000000000000000000033881454741PAO GOVT OF AP Hyderabad salary    STATE BANK OF INDIA SECRETARIAT    867610310000081                 CHIEF PLANNING OFFICER KADAPA      PLANING DEPT DY DIRECTOR YSR KADAP BKID0008676PLANING DEPT DY DIRECTOR YSR KADAP URGENT  CHIEF PLANNING OFFICER KA                                 01007160        EMLdpao-sect@ap.nic.in             
