R41051310100058235 000000000032460000000000000000000000000034999029838MUNICIPAL COMMISSIONER, SRIKAKULAM STATE BANK OF INDIA                051310100058235                 Dergasi Lakshmi                    MUNICIPAL COMMISSIONER SRIKAKULAM  ANDB0000513051310100058235                    URGENT  Dergasi Lakshmi          051310100058235 
R41051310100058305 000000000032460000000000000000000000000034999029838MUNICIPAL COMMISSIONER, SRIKAKULAM STATE BANK OF INDIA                051310100058305                  Baratam lakshmi                   MUNICIPAL COMMISSIONER SRIKAKULAM  ANDB0000514051310100058305                    URGENT   Baratam lakshmi         051310100058305 
R41174310100052213 000000000032460000000000000000000000000034999029838MUNICIPAL COMMISSIONER, SRIKAKULAM STATE BANK OF INDIA                174310100052213                  Maddi jaya                        MUNICIPAL COMMISSIONER SRIKAKULAM  ANDB0001743174310100052213                    URGENT   Maddi jaya              174310100052213 
R41051310100058192 000000000032460000000000000000000000000034999029838MUNICIPAL COMMISSIONER, SRIKAKULAM STATE BANK OF INDIA                051310100058192                 Pottangi Savitri                   MUNICIPAL COMMISSIONER SRIKAKULAM  ANDB0000513051310100058192                    URGENT  Pottangi Savitri         051310100058192 
R41051310100058068 000000000032460000000000000000000000000034999029838MUNICIPAL COMMISSIONER, SRIKAKULAM STATE BANK OF INDIA                051310100058068                 Korada Papamma                     MUNICIPAL COMMISSIONER SRIKAKULAM  ANDB0000513051310100058068                    URGENT  Korada Papamma           051310100058068 
R41051310100058086 000000000032460000000000000000000000000034999029838MUNICIPAL COMMISSIONER, SRIKAKULAM STATE BANK OF INDIA                051310100058086                 Nakka Surya narayana               MUNICIPAL COMMISSIONER SRIKAKULAM  ANDB0000513051310100058086                    URGENT  Nakka Surya narayana     051310100058086 
R41051310100058679 000000000032460000000000000000000000000034999029838MUNICIPAL COMMISSIONER, SRIKAKULAM STATE BANK OF INDIA                051310100058679                 Ravuru Ramanamma                   MUNICIPAL COMMISSIONER SRIKAKULAM  ANDB0000513051310100058679                    URGENT  Ravuru Ramanamma         051310100058679 
R41051310100058174 000000000032460000000000000000000000000034999029838MUNICIPAL COMMISSIONER, SRIKAKULAM STATE BANK OF INDIA                051310100058174                 Patnanna Chinnammadu               MUNICIPAL COMMISSIONER SRIKAKULAM  ANDB0000513051310100058174                    URGENT  Patnanna Chinnammadu     051310100058174 
R41018610100061877 000000000032460000000000000000000000000034999029838MUNICIPAL COMMISSIONER, SRIKAKULAM STATE BANK OF INDIA                018610100061877                 Shahid vahida begam                MUNICIPAL COMMISSIONER SRIKAKULAM  ANDB0000186018610100061877                    URGENT  Shahid vahida begam      018610100061877 
R41211110100003305 000000000032460000000000000000000000000034999029838MUNICIPAL COMMISSIONER, SRIKAKULAM STATE BANK OF INDIA                211110100003305                 Pitta Uma                          MUNICIPAL COMMISSIONER SRIKAKULAM  andb0002111211110100003305                    URGENT  Pitta Uma                211110100003305 
R41051310100095740 000000000032460000000000000000000000000034999029838MUNICIPAL COMMISSIONER, SRIKAKULAM STATE BANK OF INDIA                051310100095740                 Mukku Parvathi                     MUNICIPAL COMMISSIONER SRIKAKULAM  andb0000513051310100095740                    URGENT  Mukku Parvathi           051310100095740 
R41051310100058156 000000000032460000000000000000000000000034999029838MUNICIPAL COMMISSIONER, SRIKAKULAM STATE BANK OF INDIA                051310100058156                 Borra Parvathi                     MUNICIPAL COMMISSIONER SRIKAKULAM  andb0000513051310100058156                    URGENT  Borra Parvathi           051310100058156 
R41051310100058855 000000000032460000000000000000000000000034999029838MUNICIPAL COMMISSIONER, SRIKAKULAM STATE BANK OF INDIA                051310100058855                 Cheepuru Venkata Narasamma         MUNICIPAL COMMISSIONER SRIKAKULAM  andb0000513051310100058855                    URGENT  Cheepuru Venkata Narasamm051310100058855 
R41051310100058059 000000000032460000000000000000000000000034999029838MUNICIPAL COMMISSIONER, SRIKAKULAM STATE BANK OF INDIA                051310100058059                 Kurmana Ramulamma                  MUNICIPAL COMMISSIONER SRIKAKULAM  andb0000513051310100058059                    URGENT  Kurmana Ramulamma        051310100058059 
R41051310100058208 000000000032460000000000000000000000000034999029838MUNICIPAL COMMISSIONER, SRIKAKULAM STATE BANK OF INDIA                051310100058208                 Tompala Parvathi                   MUNICIPAL COMMISSIONER SRIKAKULAM  andb0000513051310100058208                    URGENT  Tompala Parvathi         051310100058208 
R41051310100058165 000000000032460000000000000000000000000034999029838MUNICIPAL COMMISSIONER, SRIKAKULAM STATE BANK OF INDIA                051310100058165                 Kurmapu laxmi                      MUNICIPAL COMMISSIONER SRIKAKULAM  andb0000513051310100058165                    URGENT  Kurmapu laxmi            051310100058165 
R41051310100077629 000000000032460000000000000000000000000034999029838MUNICIPAL COMMISSIONER, SRIKAKULAM STATE BANK OF INDIA                051310100077629                 Shake Bhanu                        MUNICIPAL COMMISSIONER SRIKAKULAM  andb0000513051310100077629                    URGENT  Shake Bhanu              051310100077629 
R41051310100058688 000000000032460000000000000000000000000034999029838MUNICIPAL COMMISSIONER, SRIKAKULAM STATE BANK OF INDIA                051310100058688                 yerramSetti Annapurnna             MUNICIPAL COMMISSIONER SRIKAKULAM  andb0000513051310100058688                    URGENT  yerramSetti Annapurnna   051310100058688 
R41051310100103872 000000000032460000000000000000000000000034999029838MUNICIPAL COMMISSIONER, SRIKAKULAM STATE BANK OF INDIA                051310100103872                 Mahidi laxmi bayi                  MUNICIPAL COMMISSIONER SRIKAKULAM  andb0000513051310100103872                    URGENT  Mahidi laxmi bayi        051310100103872 
R4134680388028     000000000032460000000000000000000000000034999029838MUNICIPAL COMMISSIONER, SRIKAKULAM STATE BANK OF INDIA                34680388028                     Kumili Tavudamma                   MUNICIPAL COMMISSIONER SRIKAKULAM  sbin000091934680388028                        URGENT  Kumili Tavudamma         34680388028     
R41051310100058703 000000000032460000000000000000000000000034999029838MUNICIPAL COMMISSIONER, SRIKAKULAM STATE BANK OF INDIA                051310100058703                 Shaik Kulshana Begam               MUNICIPAL COMMISSIONER SRIKAKULAM  andb0000513051310100058703                    URGENT  Shaik Kulshana Begam     051310100058703 
R411458155000027533000000000032460000000000000000000000000034999029838MUNICIPAL COMMISSIONER, SRIKAKULAM STATE BANK OF INDIA                1458155000027533                Ratna Kumari g                     MUNICIPAL COMMISSIONER SRIKAKULAM  kvbl00014581458155000027533                   URGENT  Ratna Kumari g           1458155000027533
R41051310100058660 000000000032460000000000000000000000000034999029838MUNICIPAL COMMISSIONER, SRIKAKULAM STATE BANK OF INDIA                051310100058660                 pondari nagamani                   MUNICIPAL COMMISSIONER SRIKAKULAM  andb0000513051310100058660                    URGENT  pondari nagamani         051310100058660 
R41051310100103933 000000000032460000000000000000000000000034999029838MUNICIPAL COMMISSIONER, SRIKAKULAM STATE BANK OF INDIA                051310100103933                 G Appala Raju                      MUNICIPAL COMMISSIONER SRIKAKULAM  andb0000513051310100103933                    URGENT  G Appala Raju            051310100103933 
R41051310100058077 000000000032460000000000000000000000000034999029838MUNICIPAL COMMISSIONER, SRIKAKULAM STATE BANK OF INDIA                051310100058077                 Bagadi Hemalatha                   MUNICIPAL COMMISSIONER SRIKAKULAM  andb0000513051310100058077                    URGENT  Bagadi Hemalatha         051310100058077 
R41051310100058095 000000000032460000000000000000000000000034999029838MUNICIPAL COMMISSIONER, SRIKAKULAM STATE BANK OF INDIA                051310100058095                 Kadapati Ademma                    MUNICIPAL COMMISSIONER SRIKAKULAM  andb0000513051310100058095                    URGENT  Kadapati Ademma          051310100058095 
R41102000101005439 000000000032460000000000000000000000000034999029838MUNICIPAL COMMISSIONER, SRIKAKULAM STATE BANK OF INDIA                102000101005439                 yarra nagamani                     MUNICIPAL COMMISSIONER SRIKAKULAM  Corp0001020102000101005439                    URGENT  yarra nagamani           102000101005439 
R41386802010012378 000000000032460000000000000000000000000034999029838MUNICIPAL COMMISSIONER, SRIKAKULAM STATE BANK OF INDIA                386802010012378                 Vanka krishanaveni                 MUNICIPAL COMMISSIONER SRIKAKULAM  UBIN0538680386802010012378                    URGENT  Vanka krishanaveni       386802010012378 
R41051310100058217 000000000032460000000000000000000000000034999029838MUNICIPAL COMMISSIONER, SRIKAKULAM STATE BANK OF INDIA                051310100058217                 budida Thavitamma                  MUNICIPAL COMMISSIONER SRIKAKULAM  andb0000513051310100058217                    URGENT  budida Thavitamma        051310100058217 
R41051310100058101 000000000032460000000000000000000000000034999029838MUNICIPAL COMMISSIONER, SRIKAKULAM STATE BANK OF INDIA                051310100058101                 Maddili laxmi                      MUNICIPAL COMMISSIONER SRIKAKULAM  andb0000513051310100058101                    URGENT  Maddili laxmi            051310100058101 
R41051310100058712 000000000032460000000000000000000000000034999029838MUNICIPAL COMMISSIONER, SRIKAKULAM STATE BANK OF INDIA                051310100058712                 Dugatha Ammajamma                  MUNICIPAL COMMISSIONER SRIKAKULAM  andb0000513051310100058712                    URGENT  Dugatha Ammajamma        051310100058712 
R41051310100027961 000000000032460000000000000000000000000034999029838MUNICIPAL COMMISSIONER, SRIKAKULAM STATE BANK OF INDIA                051310100027961                 Vanarasa subadra                   MUNICIPAL COMMISSIONER SRIKAKULAM  andb0000513051310100027961                    URGENT  Vanarasa subadra         051310100027961 
R4173105936460     000000000032460000000000000000000000000034999029838MUNICIPAL COMMISSIONER, SRIKAKULAM STATE BANK OF INDIA                73105936460                     Eribothu ravanamma                 MUNICIPAL COMMISSIONER SRIKAKULAM  SBIMORRAPGB73105936460                        URGENT  Eribothu ravanamma       73105936460     
