R41000000014890000000000000000000000099999999999999999PAO GOVT OF AP Hyderabad salary    STATE BANK OF INDIA SECRETARIAT    119211100000061                 APSSDC Ltd Vijayawada              SEEDS DEV CORP AP STATE -VC & MD   ANDB0000134119211100000061                    URGENT  APSSDC Ltd Vijayawada                                     119211100000061 EMLdpao-sect@ap.nic.in             
R41000000002800000000000000000000000099999999999999999PAO GOVT OF AP Hyderabad salary    STATE BANK OF INDIA SECRETARIAT    111411011000005                 APSSDC Ltd Nellore                 SEEDS DEV CORP AP STATE -VC & MD   ANDB0001114111411011000005                    URGENT  APSSDC Ltd Nellore                                        111411011000005 EMLdpao-sect@ap.nic.in             
R41000000018380000000000000000000000099999999999999999PAO GOVT OF AP Hyderabad salary    STATE BANK OF INDIA SECRETARIAT    060911011002450                 APSSDC Ltd Vizianagaram            SEEDS DEV CORP AP STATE -VC & MD   ANDB0000609060911011002450                    URGENT  APSSDC Ltd Vizianagaram                                   060911011002450 EMLdpao-sect@ap.nic.in             
R41000000003000000000000000000000000099999999999999999PAO GOVT OF AP Hyderabad salary    STATE BANK OF INDIA SECRETARIAT    005311011000489                 APSSDC Ltd Kurnool                 SEEDS DEV CORP AP STATE -VC & MD   ANDB0000053005311011000489                    URGENT  APSSDC Ltd Kurnool                                        005311011000489 EMLdpao-sect@ap.nic.in             
R41000000009000000000000000000000000099999999999999999PAO GOVT OF AP Hyderabad salary    STATE BANK OF INDIA SECRETARIAT    055411011001408                 APSSDC Ltd Tanuku                  SEEDS DEV CORP AP STATE -VC & MD   ANDB0000554055411011001408                    URGENT  APSSDC Ltd Tanuku                                         055411011001408 EMLdpao-sect@ap.nic.in             
