R41008010100229098 000000000465310000000000000000000000000033881454741PAO GOVT OF AP Hyderabad salary    STATE BANK OF INDIA SECRETARIAT    008010100229098                 P SUDARSANA RAO                    ITDA FOR PLAIN AREAS, PROJECT OFFI UTIB0000008008010100229098                    URGENT  P SUDARSANA RAO          008010100229098 
R4162008109974     000000000834370000000000000000000000000033881454741PAO GOVT OF AP Hyderabad salary    STATE BANK OF INDIA SECRETARIAT    62008109974                     B ADINARAYANA RAO                  ITDA FOR PLAIN AREAS, PROJECT OFFI SBHY002102662008109974                        URGENT  B ADINARAYANA RAO        62008109974     
R4152188999770     000000000539550000000000000000000000000033881454741PAO GOVT OF AP Hyderabad salary    STATE BANK OF INDIA SECRETARIAT    52188999770                     T GOVARDHAN NAIDU                  ITDA FOR PLAIN AREAS, PROJECT OFFI SBHY002102652188999770                        URGENT  T GOVARDHAN NAIDU        52188999770     
R4162059025754     000000000469850000000000000000000000000033881454741PAO GOVT OF AP Hyderabad salary    STATE BANK OF INDIA SECRETARIAT    62059025754                     T JAGAN MOHAN RAO                  ITDA FOR PLAIN AREAS, PROJECT OFFI SBHY002102662059025754                        URGENT  T JAGAN MOHAN RAO        62059025754     
R4152188935262     000000000489610000000000000000000000000033881454741PAO GOVT OF AP Hyderabad salary    STATE BANK OF INDIA SECRETARIAT    52188935262                     CH SHIVA KAMESHWARA RAO            ITDA FOR PLAIN AREAS, PROJECT OFFI SBHY002102652188935262                        URGENT  CH SHIVA KAMESHWARA RAO  52188935262     
R4162239865962     000000000305510000000000000000000000000033881454741PAO GOVT OF AP Hyderabad salary    STATE BANK OF INDIA SECRETARIAT    62239865962                     RTSS MAN POWER SOLUTIONS           ITDA FOR PLAIN AREAS, PROJECT OFFI SBHY002006462239865962                        URGENT  RTSS MAN POWER SOLUTIONS 62239865962     
R4162036520074     000000000118680000000000000000000000000033881454741PAO GOVT OF AP Hyderabad salary    STATE BANK OF INDIA SECRETARIAT    62036520074                     JYOTHI COMPUTER SERVICES           ITDA FOR PLAIN AREAS, PROJECT OFFI SBHY002047162036520074                        URGENT  JYOTHI COMPUTER SERVICES 62036520074     
