R41000000020075600000000000000000000000000033930064359MED SERV & INF DEVP CORPN, AP- Managing DirectorSTATE BANK OF INDIA                0806201002286                   The Secretary Coir Board           MED SERV & INF DEVP CORPN AP- MANA CNRB0000806MED SERV & INF DEVP CORPN AP- MANA URGENT  The Secretary Coir Board                                  0181761         foapmsidc@gmail.com                
R41000000476346480000000000000000000000000033930064359MED SERV & INF DEVP CORPN, AP- Managing DirectorSTATE BANK OF INDIA                425010200005647                 M/s Esaote India (NS) Ltd          MED SERV & INF DEVP CORPN AP- MANA UTIB0000425MED SERV & INF DEVP CORPN AP- MANA URGENT  M/s Esaote India (NS) Ltd                                 0181762         foapmsidc@gmail.com                
R41000000022453200000000000000000000000000033930064359MED SERV & INF DEVP CORPN, AP- Managing DirectorSTATE BANK OF INDIA                409205040050114                 M/s Trans Health care India Pvt    MED SERV & INF DEVP CORPN AP- MANA UBIN0540927MED SERV & INF DEVP CORPN AP- MANA URGENT  M/s Trans Health care Ind                                 0181763         foapmsidc@gmail.com                
R41000000069406830000000000000000000000000033930064359MED SERV & INF DEVP CORPN, AP- Managing DirectorSTATE BANK OF INDIA                142410011000314                 MD APMSIDC Hyderabad               MED SERV & INF DEVP CORPN AP- MANA ANDB0001424MED SERV & INF DEVP CORPN AP- MANA URGENT  MD APMSIDC Hyderabad                                      0181764         foapmsidc@gmail.com                
