R4131982200039500  000000001110000000000000000000000000000033881454741PAO GOVT OF AP Hyderabad salary    STATE BANK OF INDIA SECRETARIAT    31982200039500                  MPDO MUDDANUR                      PLANING DEPT DY DIRECTOR YSR KADAP SYNB000319831982200039500                     URGENT  MPDO MUDDANUR            31982200039500  
R4157311011000261  000000000930000000000000000000000000000033881454741PAO GOVT OF AP Hyderabad salary    STATE BANK OF INDIA SECRETARIAT    57311011000261                  MPDO RAJUPALEM                     PLANING DEPT DY DIRECTOR YSR KADAP BKID000573157311011000261                     URGENT  MPDO RAJUPALEM           57311011000261  
R419130200033069518000000000890000000000000000000000000000033881454741PAO GOVT OF AP Hyderabad salary    STATE BANK OF INDIA SECRETARIAT    9130200033069518                MPDO SAMBEPALLE                    PLANING DEPT DY DIRECTOR YSR KADAP UTIB00021589130200033069518                   URGENT  MPDO SAMBEPALLE          9130200033069518
R4162064482386     000000002430000000000000000000000000000033881454741PAO GOVT OF AP Hyderabad salary    STATE BANK OF INDIA SECRETARIAT    62064482386                     COMMISSIONER KMC                   PLANING DEPT DY DIRECTOR YSR KADAP SBHY002051362064482386                        URGENT  COMMISSIONER KMC         62064482386     
R41103910100055371 000000001080000000000000000000000000000033881454741PAO GOVT OF AP Hyderabad salary    STATE BANK OF INDIA SECRETARIAT    103910100055371                 MPL COMMR JMADUGU                  PLANING DEPT DY DIRECTOR YSR KADAP ANDB0001039103910100055371                    URGENT  MPL COMMR JMADUGU        103910100055371 
R41231210100019476 000000002030000000000000000000000000000033881454741PAO GOVT OF AP Hyderabad salary    STATE BANK OF INDIA SECRETARIAT    231210100019476                 MPL COMMR PRODDATUR                PLANING DEPT DY DIRECTOR YSR KADAP ANDB0002312231210100019476                    URGENT  MPL COMMR PRODDATUR      231210100019476 
R41045201100017609 000000001320000000000000000000000000000033881454741PAO GOVT OF AP Hyderabad salary    STATE BANK OF INDIA SECRETARIAT    045201100017609                 MPL COMMR PULIVENDULA              PLANING DEPT DY DIRECTOR YSR KADAP ANDB0000452045201100017609                    URGENT  MPL COMMR PULIVENDULA    045201100017609 
R4162234840089     000000001080000000000000000000000000000033881454741PAO GOVT OF AP Hyderabad salary    STATE BANK OF INDIA SECRETARIAT    62234840089                     MPL COMMR YERRAGUNTLA              PLANING DEPT DY DIRECTOR YSR KADAP SBHY002099862234840089                        URGENT  MPL COMMR YERRAGUNTLA    62234840089     
R41867610310000081 000000026880000000000000000000000000000033881454741PAO GOVT OF AP Hyderabad salary    STATE BANK OF INDIA SECRETARIAT    867610310000081                 CHIEF PLANNING OFFICER KADAPA      PLANING DEPT DY DIRECTOR YSR KADAP BKID0008676867610310000081                    URGENT  CHIEF PLANNING OFFICER KA867610310000081 
