R41000000011463190000000000000000000000000033881454741PAO GOVT OF AP Hyderabad salary    STATE BANK OF INDIA SECRETARIAT    0844924159                      Sri MButchi Babu                   MED SERV & INF DEVP CORPN AP- MANA IDIB000S1180844924159                         URGENT  Sri MButchi Babu         0844924159      
R41000000001409450000000000000000000000000033881454741PAO GOVT OF AP Hyderabad salary    STATE BANK OF INDIA SECRETARIAT    34781250000309                  SmtKPadmavathi                     MED SERV & INF DEVP CORPN AP- MANA SYNB000347834781250000309                     URGENT  SmtKPadmavathi           34781250000309  
R41000000001272110000000000000000000000000033881454741PAO GOVT OF AP Hyderabad salary    STATE BANK OF INDIA SECRETARIAT    34602200014672                  Sri KVSeshaiah                     MED SERV & INF DEVP CORPN AP- MANA SYNB000346034602200014672                     URGENT  Sri KVSeshaiah           34602200014672  
R41000000023349530000000000000000000000000033881454741PAO GOVT OF AP Hyderabad salary    STATE BANK OF INDIA SECRETARIAT    861120100000995                 M/s Lakshmi Constructions          MED SERV & INF DEVP CORPN AP- MANA BKID0008611861120100000995                    URGENT  M/s Lakshmi Constructions861120100000995 
R41000000001448590000000000000000000000000033881454741PAO GOVT OF AP Hyderabad salary    STATE BANK OF INDIA SECRETARIAT    62224284511                     Sri RSSantha Ram                   MED SERV & INF DEVP CORPN AP- MANA SBHY002124762224284511                        URGENT  Sri RSSantha Ram         62224284511     
R41000000001434650000000000000000000000000033881454741PAO GOVT OF AP Hyderabad salary    STATE BANK OF INDIA SECRETARIAT    16260200000927                  M/s Sri Siddivinayaka Contractors FMED SERV & INF DEVP CORPN AP- MANA FDRL000162616260200000927                     URGENT  M/s Sri Siddivinayaka Con16260200000927  
R41000000004699690000000000000000000000000033881454741PAO GOVT OF AP Hyderabad salary    STATE BANK OF INDIA SECRETARIAT    210710100048195                 Sri RSatya Seethayya               MED SERV & INF DEVP CORPN AP- MANA ANDB0002107210710100048195                    URGENT  Sri RSatya Seethayya     210710100048195 
R41000000002779590000000000000000000000000033881454741PAO GOVT OF AP Hyderabad salary    STATE BANK OF INDIA SECRETARIAT    038310011051153                 Sri GV Subba Rao                   MED SERV & INF DEVP CORPN AP- MANA ANDB0000383038310011051153                    URGENT  Sri GV Subba Rao         038310011051153 
R41000000000522920000000000000000000000000033881454741PAO GOVT OF AP Hyderabad salary    STATE BANK OF INDIA SECRETARIAT    142210011200206                 APLabour Cess Commissioner  HyderabMED SERV & INF DEVP CORPN AP- MANA ANDB0001422142210011200206                    URGENT  APLabour Cess Commissione142210011200206 
R41000000008105620000000000000000000000000033881454741PAO GOVT OF AP Hyderabad salary    STATE BANK OF INDIA SECRETARIAT    142410011000314                 MD APMSIDC Hyderabad               MED SERV & INF DEVP CORPN AP- MANA ANDB0001424142410011000314                    URGENT  MD APMSIDC Hyderabad     142410011000314 
