R41000000007857060000000000000000000000000033881454741PAO GOVT OF AP Hyderabad salary    STATE BANK OF INDIA SECRETARIAT    62240631576                     Executive Engineer RWS & S Paderu  RURAL WATER SUPPLY & SANITATION PR SBHY0020282RURAL WATER SUPPLY & SANITATION PR URGENT  Executive Engineer RWS &                                  0156111         EMLdpao-sect@ap.nic.in             
R41000000030000000000000000000000000000000033881454741PAO GOVT OF AP Hyderabad salary    STATE BANK OF INDIA SECRETARIAT    62239776300                     Executive Engineer RWS & S Podili  RURAL WATER SUPPLY & SANITATION PR SBHY0021205RURAL WATER SUPPLY & SANITATION PR URGENT  Executive Engineer RWS &                                  0156112         EMLdpao-sect@ap.nic.in             
R41000000011800000000000000000000000000000033881454741PAO GOVT OF AP Hyderabad salary    STATE BANK OF INDIA SECRETARIAT    62238092195                     Project Manager of DPSU Pakasam    RURAL WATER SUPPLY & SANITATION PR SBHY0020773RURAL WATER SUPPLY & SANITATION PR URGENT  Project Manager of DPSU P                                 0156113         EMLdpao-sect@ap.nic.in             
R41000000015989330000000000000000000000000033881454741PAO GOVT OF AP Hyderabad salary    STATE BANK OF INDIA SECRETARIAT    62238711683                     Project Manager of DPSU YSR Kadapa RURAL WATER SUPPLY & SANITATION PR SBHY0021067RURAL WATER SUPPLY & SANITATION PR URGENT  Project Manager of DPSU Y                                 0156114         EMLdpao-sect@ap.nic.in             
