R41000000133874800000000000000000000000000033881454741PAO GOVT OF AP Hyderabad salary    STATE BANK OF INDIA SECRETARIAT    62266920671                     M/s BSreenivasulu Reddy and Co     MED SERV & INF DEVP CORPN AP- MANA SBHY0020871MED SERV & INF DEVP CORPN AP- MANA URGENT  M/s BSreenivasulu Reddy a                                 0181641         EMLdpao-sect@ap.nic.in             
R41000000001494260000000000000000000000000033881454741PAO GOVT OF AP Hyderabad salary    STATE BANK OF INDIA SECRETARIAT    142210011200206                 APLabour Cess Commissioner  HyderabMED SERV & INF DEVP CORPN AP- MANA ANDB0001422MED SERV & INF DEVP CORPN AP- MANA URGENT  APLabour Cess Commissione                                 0181642         EMLdpao-sect@ap.nic.in             
R41000000034549730000000000000000000000000033881454741PAO GOVT OF AP Hyderabad salary    STATE BANK OF INDIA SECRETARIAT    142410011000314                 MD APMSIDC Hyderabad               MED SERV & INF DEVP CORPN AP- MANA ANDB0001424MED SERV & INF DEVP CORPN AP- MANA URGENT  MD APMSIDC Hyderabad                                      0181643         EMLdpao-sect@ap.nic.in             
