R41000000000100000000000000000000000000000033881454741PAO GOVT OF AP Hyderabad salary    STATE BANK OF INDIA SECRETARIAT    630905500032                    T T Travels                        TECH SERV LTD - AP MANAGING DIRECT ICIC0006309TECH SERV LTD - AP MANAGING DIRECT URGENT  T T Travels                                               0352511         EMLdpao-sect@ap.nic.in             
R41000000000120000000000000000000000000000033881454741PAO GOVT OF AP Hyderabad salary    STATE BANK OF INDIA SECRETARIAT    401200301000510                 LG Logistics Trous and Travels     TECH SERV LTD - AP MANAGING DIRECT VIJB0004012TECH SERV LTD - AP MANAGING DIRECT URGENT  LG Logistics Trous and Tr                                 0352512         EMLdpao-sect@ap.nic.in             
R41000000000020450000000000000000000000000033881454741PAO GOVT OF AP Hyderabad salary    STATE BANK OF INDIA SECRETARIAT    50100042075089                  D Dinesh Kumar Babu                TECH SERV LTD - AP MANAGING DIRECT HDFC0000417TECH SERV LTD - AP MANAGING DIRECT URGENT  D Dinesh Kumar Babu                                       0352513         EMLdpao-sect@ap.nic.in             
R41000000000102820000000000000000000000000033881454741PAO GOVT OF AP Hyderabad salary    STATE BANK OF INDIA SECRETARIAT    52065301767                     P Pratap                           TECH SERV LTD - AP MANAGING DIRECT SBHY0021060TECH SERV LTD - AP MANAGING DIRECT URGENT  P Pratap                                                  0352514         EMLdpao-sect@ap.nic.in             
R41000000000081310000000000000000000000000033881454741PAO GOVT OF AP Hyderabad salary    STATE BANK OF INDIA SECRETARIAT    002102000025115                 Sharmista Trous and Traels Pvt ltd TECH SERV LTD - AP MANAGING DIRECT IBKL0000002TECH SERV LTD - AP MANAGING DIRECT URGENT  Sharmista Trous and Trael                                 0352515         EMLdpao-sect@ap.nic.in             
R41000000000051050000000000000000000000000033881454741PAO GOVT OF AP Hyderabad salary    STATE BANK OF INDIA SECRETARIAT    0089102000024338                Sree Rama Car Travels              TECH SERV LTD - AP MANAGING DIRECT IBKL0000089TECH SERV LTD - AP MANAGING DIRECT URGENT  Sree Rama Car Travels                                     0352516         EMLdpao-sect@ap.nic.in             
