R41000000000100000000000000000000000000000033881454741PAO GOVT OF AP Hyderabad salary    STATE BANK OF INDIA SECRETARIAT    630905500032                    T T Travels                        TECH SERV LTD - AP MANAGING DIRECT ICIC0006309630905500032                       URGENT  T T Travels              630905500032    
R41000000000120000000000000000000000000000033881454741PAO GOVT OF AP Hyderabad salary    STATE BANK OF INDIA SECRETARIAT    401200301000510                 LG Logistics Trous and Travels     TECH SERV LTD - AP MANAGING DIRECT VIJB0004012401200301000510                    URGENT  LG Logistics Trous and Tr401200301000510 
R41000000000020450000000000000000000000000033881454741PAO GOVT OF AP Hyderabad salary    STATE BANK OF INDIA SECRETARIAT    50100042075089                  D Dinesh Kumar Babu                TECH SERV LTD - AP MANAGING DIRECT HDFC000041750100042075089                     URGENT  D Dinesh Kumar Babu      50100042075089  
R41000000000102820000000000000000000000000033881454741PAO GOVT OF AP Hyderabad salary    STATE BANK OF INDIA SECRETARIAT    52065301767                     P Pratap                           TECH SERV LTD - AP MANAGING DIRECT SBHY002106052065301767                        URGENT  P Pratap                 52065301767     
R41000000000081310000000000000000000000000033881454741PAO GOVT OF AP Hyderabad salary    STATE BANK OF INDIA SECRETARIAT    002102000025115                 Sharmista Trous and Traels Pvt ltd TECH SERV LTD - AP MANAGING DIRECT IBKL0000002002102000025115                    URGENT  Sharmista Trous and Trael002102000025115 
R41000000000051050000000000000000000000000033881454741PAO GOVT OF AP Hyderabad salary    STATE BANK OF INDIA SECRETARIAT    0089102000024338                Sree Rama Car Travels              TECH SERV LTD - AP MANAGING DIRECT IBKL00000890089102000024338                   URGENT  Sree Rama Car Travels    0089102000024338
