R4162266920671     000000133874800000000000000000000000000033881454741PAO GOVT OF AP Hyderabad salary    STATE BANK OF INDIA SECRETARIAT    62266920671                     M/s BSreenivasulu Reddy and Co     MED SERV & INF DEVP CORPN AP- MANA SBHY002087162266920671                        URGENT  M/s BSreenivasulu Reddy a62266920671     
R41142210011200206 000000001494260000000000000000000000000033881454741PAO GOVT OF AP Hyderabad salary    STATE BANK OF INDIA SECRETARIAT    142210011200206                 APLabour Cess Commissioner  HyderabMED SERV & INF DEVP CORPN AP- MANA ANDB0001422142210011200206                    URGENT  APLabour Cess Commissione142210011200206 
R41142410011000314 000000034549730000000000000000000000000033881454741PAO GOVT OF AP Hyderabad salary    STATE BANK OF INDIA SECRETARIAT    142410011000314                 MD APMSIDC Hyderabad               MED SERV & INF DEVP CORPN AP- MANA ANDB0001424142410011000314                    URGENT  MD APMSIDC Hyderabad     142410011000314 
