R41111410100079779 000000000300000000000000000000000000000033881454741PAO GOVT OF AP Hyderabad salary    STATE BANK OF INDIA SECRETARIAT    111410100079779                 Bapatla Nagamani                   SCHEDULED TRIBES CO-OP FINANCE COR ANDB0001114111410100079779                    URGENT  Bapatla Nagamani         111410100079779 
R41111410100079751 000000000300000000000000000000000000000033881454741PAO GOVT OF AP Hyderabad salary    STATE BANK OF INDIA SECRETARIAT    111410100079751                 Vallempalli Sunitha                SCHEDULED TRIBES CO-OP FINANCE COR ANDB0001114111410100079751                    URGENT  Vallempalli Sunitha      111410100079751 
R41111410100079760 000000000300000000000000000000000000000033881454741PAO GOVT OF AP Hyderabad salary    STATE BANK OF INDIA SECRETARIAT    111410100079760                 BabatlaPrasanna                    SCHEDULED TRIBES CO-OP FINANCE COR ANDB0001114111410100079760                    URGENT  BabatlaPrasanna          111410100079760 
R41197310100002847 000000000600000000000000000000000000000033881454741PAO GOVT OF AP Hyderabad salary    STATE BANK OF INDIA SECRETARIAT    197310100002847                 Pallala Chinnareddy                SCHEDULED TRIBES CO-OP FINANCE COR ANDB0001973197310100002847                    URGENT  Pallala Chinnareddy      197310100002847 
R41197310100002847 000000000240000000000000000000000000000033881454741PAO GOVT OF AP Hyderabad salary    STATE BANK OF INDIA SECRETARIAT    197310100002847                 Illa Ramireddy                     SCHEDULED TRIBES CO-OP FINANCE COR ANDB0001973197310100002847                    URGENT  Illa Ramireddy           197310100002847 
R41197310100002847 000000000600000000000000000000000000000033881454741PAO GOVT OF AP Hyderabad salary    STATE BANK OF INDIA SECRETARIAT    197310100002847                 Kondla Kasulamma                   SCHEDULED TRIBES CO-OP FINANCE COR ANDB0001973197310100002847                    URGENT  Kondla Kasulamma         197310100002847 
R41197310100002847 000000000300000000000000000000000000000033881454741PAO GOVT OF AP Hyderabad salary    STATE BANK OF INDIA SECRETARIAT    197310100002847                 Madi Venkata Ramana                SCHEDULED TRIBES CO-OP FINANCE COR ANDB0001973197310100002847                    URGENT  Madi Venkata Ramana      197310100002847 
R41197310100002847 000000000240000000000000000000000000000033881454741PAO GOVT OF AP Hyderabad salary    STATE BANK OF INDIA SECRETARIAT    197310100002847                 Vema Sanyasi Reddy                 SCHEDULED TRIBES CO-OP FINANCE COR ANDB0001973197310100002847                    URGENT  Vema Sanyasi Reddy       197310100002847 
R41197310100002847 000000001000000000000000000000000000000033881454741PAO GOVT OF AP Hyderabad salary    STATE BANK OF INDIA SECRETARIAT    197310100002847                 Sunchu Santha Babu                 SCHEDULED TRIBES CO-OP FINANCE COR ANDB0001973197310100002847                    URGENT  Sunchu Santha Babu       197310100002847 
R41197310100002847 000000001000000000000000000000000000000033881454741PAO GOVT OF AP Hyderabad salary    STATE BANK OF INDIA SECRETARIAT    197310100002847                 Chedala Adi Reddy                  SCHEDULED TRIBES CO-OP FINANCE COR ANDB0001973197310100002847                    URGENT  Chedala Adi Reddy        197310100002847 
R4115110100095555  000000000300000000000000000000000000000033881454741PAO GOVT OF AP Hyderabad salary    STATE BANK OF INDIA SECRETARIAT    15110100095555                  Biddika Srinuvasarao               SCHEDULED TRIBES CO-OP FINANCE COR ANDB000015115110100095555                     URGENT  Biddika Srinuvasarao     15110100095555  
R4115110100095670  000000000360000000000000000000000000000033881454741PAO GOVT OF AP Hyderabad salary    STATE BANK OF INDIA SECRETARIAT    15110100095670                  Chiddaka Mani                      SCHEDULED TRIBES CO-OP FINANCE COR ANDB000015115110100095670                     URGENT  Chiddaka Mani            15110100095670  
R4115110100094699  000000000300000000000000000000000000000033881454741PAO GOVT OF AP Hyderabad salary    STATE BANK OF INDIA SECRETARIAT    15110100094699                  Tadangi Kameswararao               SCHEDULED TRIBES CO-OP FINANCE COR ANDB000015115110100094699                     URGENT  Tadangi Kameswararao     15110100094699  
R4115110100095634  000000000300000000000000000000000000000033881454741PAO GOVT OF AP Hyderabad salary    STATE BANK OF INDIA SECRETARIAT    15110100095634                  Thadangi Lokanadham                SCHEDULED TRIBES CO-OP FINANCE COR ANDB000015115110100095634                     URGENT  Thadangi Lokanadham      15110100095634  
R4115110100096086  000000000300000000000000000000000000000033881454741PAO GOVT OF AP Hyderabad salary    STATE BANK OF INDIA SECRETARIAT    15110100096086                  Kaddaraka Ramarao                  SCHEDULED TRIBES CO-OP FINANCE COR ANDB000015115110100096086                     URGENT  Kaddaraka Ramarao        15110100096086  
R4115110100094255  000000000360000000000000000000000000000033881454741PAO GOVT OF AP Hyderabad salary    STATE BANK OF INDIA SECRETARIAT    15110100094255                  Sombara                            SCHEDULED TRIBES CO-OP FINANCE COR ANDB000015115110100094255                     URGENT  Sombara                  15110100094255  
R4115110100094088  000000000300000000000000000000000000000033881454741PAO GOVT OF AP Hyderabad salary    STATE BANK OF INDIA SECRETARIAT    15110100094088                  Ariika Gourisankar                 SCHEDULED TRIBES CO-OP FINANCE COR ANDB000015115110100094088                     URGENT  Ariika Gourisankar       15110100094088  
R4115110100093724  000000000360000000000000000000000000000033881454741PAO GOVT OF AP Hyderabad salary    STATE BANK OF INDIA SECRETARIAT    15110100093724                  Arika Masamma                      SCHEDULED TRIBES CO-OP FINANCE COR ANDB000015115110100093724                     URGENT  Arika Masamma            15110100093724  
R4115110100094103  000000000360000000000000000000000000000033881454741PAO GOVT OF AP Hyderabad salary    STATE BANK OF INDIA SECRETARIAT    15110100094103                  Nimmaka Seetarao                   SCHEDULED TRIBES CO-OP FINANCE COR ANDB000015115110100094103                     URGENT  Nimmaka Seetarao         15110100094103  
R4115110100094112  000000000360000000000000000000000000000033881454741PAO GOVT OF AP Hyderabad salary    STATE BANK OF INDIA SECRETARIAT    15110100094112                  Kurangi Srinu                      SCHEDULED TRIBES CO-OP FINANCE COR ANDB000015115110100094112                     URGENT  Kurangi Srinu            15110100094112  
R4115110100095865  000000000360000000000000000000000000000033881454741PAO GOVT OF AP Hyderabad salary    STATE BANK OF INDIA SECRETARIAT    15110100095865                  Biddika Chinna Rao                 SCHEDULED TRIBES CO-OP FINANCE COR ANDB000015115110100095865                     URGENT  Biddika Chinna Rao       15110100095865  
R4115110100093733  000000000360000000000000000000000000000033881454741PAO GOVT OF AP Hyderabad salary    STATE BANK OF INDIA SECRETARIAT    15110100093733                  Kondagorri Ramarao                 SCHEDULED TRIBES CO-OP FINANCE COR ANDB000015115110100093733                     URGENT  Kondagorri Ramarao       15110100093733  
R4115110100094097  000000000360000000000000000000000000000033881454741PAO GOVT OF AP Hyderabad salary    STATE BANK OF INDIA SECRETARIAT    15110100094097                  Santhi                             SCHEDULED TRIBES CO-OP FINANCE COR ANDB000015115110100094097                     URGENT  Santhi                   15110100094097  
R4115110100094705  000000000300000000000000000000000000000033881454741PAO GOVT OF AP Hyderabad salary    STATE BANK OF INDIA SECRETARIAT    15110100094705                  Tadangi Darmarao                   SCHEDULED TRIBES CO-OP FINANCE COR ANDB000015115110100094705                     URGENT  Tadangi Darmarao         15110100094705  
R41151101100094264 000000000360000000000000000000000000000033881454741PAO GOVT OF AP Hyderabad salary    STATE BANK OF INDIA SECRETARIAT    151101100094264                 Kantarao                           SCHEDULED TRIBES CO-OP FINANCE COR ANDB0000151151101100094264                    URGENT  Kantarao                 151101100094264 
R4115110100093177  000000000300000000000000000000000000000033881454741PAO GOVT OF AP Hyderabad salary    STATE BANK OF INDIA SECRETARIAT    15110100093177                  Yobino                             SCHEDULED TRIBES CO-OP FINANCE COR ANDB000015115110100093177                     URGENT  Yobino                   15110100093177  
R4115110100093210  000000000300000000000000000000000000000033881454741PAO GOVT OF AP Hyderabad salary    STATE BANK OF INDIA SECRETARIAT    15110100093210                  Kondagorri Elgu                    SCHEDULED TRIBES CO-OP FINANCE COR ANDB000015115110100093210                     URGENT  Kondagorri Elgu          15110100093210  
R4115110100096369  000000000300000000000000000000000000000033881454741PAO GOVT OF AP Hyderabad salary    STATE BANK OF INDIA SECRETARIAT    15110100096369                  Biddika Rangarao                   SCHEDULED TRIBES CO-OP FINANCE COR ANDB000015115110100096369                     URGENT  Biddika Rangarao         15110100096369  
R4115110100094501  000000000360000000000000000000000000000033881454741PAO GOVT OF AP Hyderabad salary    STATE BANK OF INDIA SECRETARIAT    15110100094501                  Padipenki Neelakantam              SCHEDULED TRIBES CO-OP FINANCE COR ANDB000015115110100094501                     URGENT  Padipenki Neelakantam    15110100094501  
R4115110100096068  000000000300000000000000000000000000000033881454741PAO GOVT OF AP Hyderabad salary    STATE BANK OF INDIA SECRETARIAT    15110100096068                  Kondagarri Keesava Rao             SCHEDULED TRIBES CO-OP FINANCE COR ANDB000015115110100096068                     URGENT  Kondagarri Keesava Rao   15110100096068  
R4130810100291672  000000001000000000000000000000000000000033881454741PAO GOVT OF AP Hyderabad salary    STATE BANK OF INDIA SECRETARIAT    30810100291672                  Varahala Krishnarao                SCHEDULED TRIBES CO-OP FINANCE COR ANDB000030830810100291672                     URGENT  Varahala Krishnarao      30810100291672  
R4130810100291593  000000001000000000000000000000000000000033881454741PAO GOVT OF AP Hyderabad salary    STATE BANK OF INDIA SECRETARIAT    30810100291593                  Peddinti Jagannadham               SCHEDULED TRIBES CO-OP FINANCE COR ANDB000030830810100291593                     URGENT  Peddinti Jagannadham     30810100291593  
R4130810100234118  000000001000000000000000000000000000000033881454741PAO GOVT OF AP Hyderabad salary    STATE BANK OF INDIA SECRETARIAT    30810100234118                  Janni Dhermarao                    SCHEDULED TRIBES CO-OP FINANCE COR ANDB000030830810100234118                     URGENT  Janni Dhermarao          30810100234118  
R4130810100287518  000000000600000000000000000000000000000033881454741PAO GOVT OF AP Hyderabad salary    STATE BANK OF INDIA SECRETARIAT    30810100287518                  Kumari                             SCHEDULED TRIBES CO-OP FINANCE COR ANDB000030830810100287518                     URGENT  Kumari                   30810100287518  
R4130810100291584  000000000600000000000000000000000000000033881454741PAO GOVT OF AP Hyderabad salary    STATE BANK OF INDIA SECRETARIAT    30810100291584                  Mogilipati Shanmukharao            SCHEDULED TRIBES CO-OP FINANCE COR ANDB000030830810100291584                     URGENT  Mogilipati Shanmukharao  30810100291584  
R4130810100291575  000000001000000000000000000000000000000033881454741PAO GOVT OF AP Hyderabad salary    STATE BANK OF INDIA SECRETARIAT    30810100291575                  Bejji Prasad                       SCHEDULED TRIBES CO-OP FINANCE COR ANDB000030830810100291575                     URGENT  Bejji Prasad             30810100291575  
R4130810100287776  000000000600000000000000000000000000000033881454741PAO GOVT OF AP Hyderabad salary    STATE BANK OF INDIA SECRETARIAT    30810100287776                  Shirisha                           SCHEDULED TRIBES CO-OP FINANCE COR ANDB000030830810100287776                     URGENT  Shirisha                 30810100287776  
R4130810100287536  000000000600000000000000000000000000000033881454741PAO GOVT OF AP Hyderabad salary    STATE BANK OF INDIA SECRETARIAT    30810100287536                  Pagadala Appamma                   SCHEDULED TRIBES CO-OP FINANCE COR ANDB000030830810100287536                     URGENT  Pagadala Appamma         30810100287536  
R4159810100269910  000000000600000000000000000000000000000033881454741PAO GOVT OF AP Hyderabad salary    STATE BANK OF INDIA SECRETARIAT    59810100269910                  Banavath Chandrakala               SCHEDULED TRIBES CO-OP FINANCE COR ANDB000059859810100269910                     URGENT  Banavath Chandrakala     59810100269910  
R4137010100133527  000000000300000000000000000000000000000033881454741PAO GOVT OF AP Hyderabad salary    STATE BANK OF INDIA SECRETARIAT    37010100133527                  Bukya Ganendra                     SCHEDULED TRIBES CO-OP FINANCE COR ANDB000037037010100133527                     URGENT  Bukya Ganendra           37010100133527  
R4137010100133581  000000000300000000000000000000000000000033881454741PAO GOVT OF AP Hyderabad salary    STATE BANK OF INDIA SECRETARIAT    37010100133581                  B Muniswaamy Naik                  SCHEDULED TRIBES CO-OP FINANCE COR ANDB000037037010100133581                     URGENT  B Muniswaamy Naik        37010100133581  
R4140410100036206  000000000360000000000000000000000000000033881454741PAO GOVT OF AP Hyderabad salary    STATE BANK OF INDIA SECRETARIAT    40410100036206                  Chokkapu Eswararao                 SCHEDULED TRIBES CO-OP FINANCE COR ANDB000040440410100036206                     URGENT  Chokkapu Eswararao       40410100036206  
R4140410100078080  000000000360000000000000000000000000000033881454741PAO GOVT OF AP Hyderabad salary    STATE BANK OF INDIA SECRETARIAT    40410100078080                  Badraji Annapurna                  SCHEDULED TRIBES CO-OP FINANCE COR ANDB000040440410100078080                     URGENT  Badraji Annapurna        40410100078080  
R4140410100064403  000000000360000000000000000000000000000033881454741PAO GOVT OF AP Hyderabad salary    STATE BANK OF INDIA SECRETARIAT    40410100064403                  Dhalai Srinu                       SCHEDULED TRIBES CO-OP FINANCE COR ANDB000040440410100064403                     URGENT  Dhalai Srinu             40410100064403  
R4140410021021337  000000000360000000000000000000000000000033881454741PAO GOVT OF AP Hyderabad salary    STATE BANK OF INDIA SECRETARIAT    40410021021337                  Vedurla Srinu                      SCHEDULED TRIBES CO-OP FINANCE COR ANDB000040440410021021337                     URGENT  Vedurla Srinu            40410021021337  
R4140410100028492  000000000360000000000000000000000000000033881454741PAO GOVT OF AP Hyderabad salary    STATE BANK OF INDIA SECRETARIAT    40410100028492                  Meduri Lakshmi                     SCHEDULED TRIBES CO-OP FINANCE COR ANDB000040440410100028492                     URGENT  Meduri Lakshmi           40410100028492  
R4140410100090107  000000000360000000000000000000000000000033881454741PAO GOVT OF AP Hyderabad salary    STATE BANK OF INDIA SECRETARIAT    40410100090107                  Sadepu Adilakshmi                  SCHEDULED TRIBES CO-OP FINANCE COR ANDB000040440410100090107                     URGENT  Sadepu Adilakshmi        40410100090107  
R4140410100089943  000000000360000000000000000000000000000033881454741PAO GOVT OF AP Hyderabad salary    STATE BANK OF INDIA SECRETARIAT    40410100089943                  Meesala Gangannadora               SCHEDULED TRIBES CO-OP FINANCE COR ANDB000040440410100089943                     URGENT  Meesala Gangannadora     40410100089943  
R4140410100047363  000000000360000000000000000000000000000033881454741PAO GOVT OF AP Hyderabad salary    STATE BANK OF INDIA SECRETARIAT    40410100047363                  Majji Lakshmi                      SCHEDULED TRIBES CO-OP FINANCE COR ANDB000040440410100047363                     URGENT  Majji Lakshmi            40410100047363  
R4140410100024593  000000000360000000000000000000000000000033881454741PAO GOVT OF AP Hyderabad salary    STATE BANK OF INDIA SECRETARIAT    40410100024593                  Piridi Simhalu                     SCHEDULED TRIBES CO-OP FINANCE COR ANDB000040440410100024593                     URGENT  Piridi Simhalu           40410100024593  
R4185910100060124  000000000360000000000000000000000000000033881454741PAO GOVT OF AP Hyderabad salary    STATE BANK OF INDIA SECRETARIAT    85910100060124                  Yenugula Seenu                     SCHEDULED TRIBES CO-OP FINANCE COR ANDB000085985910100060124                     URGENT  Yenugula Seenu           85910100060124  
R4185910100060133  000000000360000000000000000000000000000033881454741PAO GOVT OF AP Hyderabad salary    STATE BANK OF INDIA SECRETARIAT    85910100060133                  Ballolu Savitramma                 SCHEDULED TRIBES CO-OP FINANCE COR ANDB000085985910100060133                     URGENT  Ballolu Savitramma       85910100060133  
R4185910100060115  000000000360000000000000000000000000000033881454741PAO GOVT OF AP Hyderabad salary    STATE BANK OF INDIA SECRETARIAT    85910100060115                  Balavolu Chenchaiah                SCHEDULED TRIBES CO-OP FINANCE COR ANDB000085985910100060115                     URGENT  Balavolu Chenchaiah      85910100060115  
R4196410100035137  000000000600000000000000000000000000000033881454741PAO GOVT OF AP Hyderabad salary    STATE BANK OF INDIA SECRETARIAT    96410100035137                  Kannamma                           SCHEDULED TRIBES CO-OP FINANCE COR ANDB000096496410100035137                     URGENT  Kannamma                 96410100035137  
R4189810100105481  000000000300000000000000000000000000000033881454741PAO GOVT OF AP Hyderabad salary    STATE BANK OF INDIA SECRETARIAT    89810100105481                  Eega Kameswaramma                  SCHEDULED TRIBES CO-OP FINANCE COR ANDB000089889810100105481                     URGENT  Eega Kameswaramma        89810100105481  
R4189810100105506  000000000300000000000000000000000000000033881454741PAO GOVT OF AP Hyderabad salary    STATE BANK OF INDIA SECRETARIAT    89810100105506                  Singapati Syamala                  SCHEDULED TRIBES CO-OP FINANCE COR ANDB000089889810100105506                     URGENT  Singapati Syamala        89810100105506  
R4189810100105490  000000000300000000000000000000000000000033881454741PAO GOVT OF AP Hyderabad salary    STATE BANK OF INDIA SECRETARIAT    89810100105490                  Tirumalasetti Penchalamma          SCHEDULED TRIBES CO-OP FINANCE COR ANDB000089889810100105490                     URGENT  Tirumalasetti Penchalamma89810100105490  
R4189810100105542  000000000300000000000000000000000000000033881454741PAO GOVT OF AP Hyderabad salary    STATE BANK OF INDIA SECRETARIAT    89810100105542                  Tirumalasetty Venktaramanmma       SCHEDULED TRIBES CO-OP FINANCE COR ANDB000089889810100105542                     URGENT  Tirumalasetty Venktaraman89810100105542  
R4189810100105515  000000000300000000000000000000000000000033881454741PAO GOVT OF AP Hyderabad salary    STATE BANK OF INDIA SECRETARIAT    89810100105515                  Tirumalasetty Ankamma              SCHEDULED TRIBES CO-OP FINANCE COR ANDB000089889810100105515                     URGENT  Tirumalasetty Ankamma    89810100105515  
R4189810100105533  000000000300000000000000000000000000000033881454741PAO GOVT OF AP Hyderabad salary    STATE BANK OF INDIA SECRETARIAT    89810100105533                  Nemmalla Parvathi                  SCHEDULED TRIBES CO-OP FINANCE COR ANDB000089889810100105533                     URGENT  Nemmalla Parvathi        89810100105533  
R4189810100105524  000000000300000000000000000000000000000033881454741PAO GOVT OF AP Hyderabad salary    STATE BANK OF INDIA SECRETARIAT    89810100105524                  Manikala Masthanamma               SCHEDULED TRIBES CO-OP FINANCE COR ANDB000089889810100105524                     URGENT  Manikala Masthanamma     89810100105524  
R411091495081082510000000000600000000000000000000000000000033881454741PAO GOVT OF AP Hyderabad salary    STATE BANK OF INDIA SECRETARIAT    10914950810825101001            Kotlapati Lakshmamma               SCHEDULED TRIBES CO-OP FINANCE COR ANDB000102510914950810825101001               URGENT  Kotlapati Lakshmamma     1091495081082510
R41102510100151426 000000000360000000000000000000000000000033881454741PAO GOVT OF AP Hyderabad salary    STATE BANK OF INDIA SECRETARIAT    102510100151426                 Ramanamma                          SCHEDULED TRIBES CO-OP FINANCE COR ANDB0001025102510100151426                    URGENT  Ramanamma                102510100151426 
R41102510100070510 000000000300000000000000000000000000000033881454741PAO GOVT OF AP Hyderabad salary    STATE BANK OF INDIA SECRETARIAT    102510100070510                 Ega Chengal Rayulu                 SCHEDULED TRIBES CO-OP FINANCE COR ANDB0001025102510100070510                    URGENT  Ega Chengal Rayulu       102510100070510 
R41102510100150658 000000000360000000000000000000000000000033881454741PAO GOVT OF AP Hyderabad salary    STATE BANK OF INDIA SECRETARIAT    102510100150658                 Macha Subrahmanyam                 SCHEDULED TRIBES CO-OP FINANCE COR ANDB0001025102510100150658                    URGENT  Macha Subrahmanyam       102510100150658 
R41102510100151815 000000000360000000000000000000000000000033881454741PAO GOVT OF AP Hyderabad salary    STATE BANK OF INDIA SECRETARIAT    102510100151815                 Tupakula Chenchaiah                SCHEDULED TRIBES CO-OP FINANCE COR ANDB0001025102510100151815                    URGENT  Tupakula Chenchaiah      102510100151815 
R41102510100150630 000000000300000000000000000000000000000033881454741PAO GOVT OF AP Hyderabad salary    STATE BANK OF INDIA SECRETARIAT    102510100150630                 Matcha Ramanaiah                   SCHEDULED TRIBES CO-OP FINANCE COR ANDB0001025102510100150630                    URGENT  Matcha Ramanaiah         102510100150630 
R41102510100151365 000000000360000000000000000000000000000033881454741PAO GOVT OF AP Hyderabad salary    STATE BANK OF INDIA SECRETARIAT    102510100151365                 Yakasiri Bala Krishna              SCHEDULED TRIBES CO-OP FINANCE COR ANDB0001025102510100151365                    URGENT  Yakasiri Bala Krishna    102510100151365 
R41237610100042793 000000000600000000000000000000000000000033881454741PAO GOVT OF AP Hyderabad salary    STATE BANK OF INDIA SECRETARIAT    237610100042793                 Palasi Sreenubabu                  SCHEDULED TRIBES CO-OP FINANCE COR ANDB0002376237610100042793                    URGENT  Palasi Sreenubabu        237610100042793 
R41237610100043464 000000000600000000000000000000000000000033881454741PAO GOVT OF AP Hyderabad salary    STATE BANK OF INDIA SECRETARIAT    237610100043464                 Seedari Simhachalam                SCHEDULED TRIBES CO-OP FINANCE COR ANDB0002376237610100043464                    URGENT  Seedari Simhachalam      237610100043464 
R41237610100043385 000000001000000000000000000000000000000033881454741PAO GOVT OF AP Hyderabad salary    STATE BANK OF INDIA SECRETARIAT    237610100043385                 Javvadi Sanjeev Rao                SCHEDULED TRIBES CO-OP FINANCE COR ANDB0002376237610100043385                    URGENT  Javvadi Sanjeev Rao      237610100043385 
R41237610100043400 000000000600000000000000000000000000000033881454741PAO GOVT OF AP Hyderabad salary    STATE BANK OF INDIA SECRETARIAT    237610100043400                 Sarmanda Suman                     SCHEDULED TRIBES CO-OP FINANCE COR ANDB0002376237610100043400                    URGENT  Sarmanda Suman           237610100043400 
R41237610100043455 000000000600000000000000000000000000000033881454741PAO GOVT OF AP Hyderabad salary    STATE BANK OF INDIA SECRETARIAT    237610100043455                 Gemmeli Bhaskararao                SCHEDULED TRIBES CO-OP FINANCE COR ANDB0002376237610100043455                    URGENT  Gemmeli Bhaskararao      237610100043455 
R41237610100043419 000000000600000000000000000000000000000033881454741PAO GOVT OF AP Hyderabad salary    STATE BANK OF INDIA SECRETARIAT    237610100043419                 Kuda Neelakantam                   SCHEDULED TRIBES CO-OP FINANCE COR ANDB0002376237610100043419                    URGENT  Kuda Neelakantam         237610100043419 
R41237610100043446 000000000600000000000000000000000000000033881454741PAO GOVT OF AP Hyderabad salary    STATE BANK OF INDIA SECRETARIAT    237610100043446                 Marri Kondababu                    SCHEDULED TRIBES CO-OP FINANCE COR ANDB0002376237610100043446                    URGENT  Marri Kondababu          237610100043446 
R41237610100043394 000000000600000000000000000000000000000033881454741PAO GOVT OF AP Hyderabad salary    STATE BANK OF INDIA SECRETARIAT    237610100043394                 Dappodi Kalyana Vara Prasad        SCHEDULED TRIBES CO-OP FINANCE COR ANDB0002376237610100043394                    URGENT  Dappodi Kalyana Vara Pras237610100043394 
R41237610100043428 000000000600000000000000000000000000000033881454741PAO GOVT OF AP Hyderabad salary    STATE BANK OF INDIA SECRETARIAT    237610100043428                 Badnaene Kanta Rao                 SCHEDULED TRIBES CO-OP FINANCE COR ANDB0002376237610100043428                    URGENT  Badnaene Kanta Rao       237610100043428 
R41237610100043473 000000000480000000000000000000000000000033881454741PAO GOVT OF AP Hyderabad salary    STATE BANK OF INDIA SECRETARIAT    237610100043473                 Seragam Arjan                      SCHEDULED TRIBES CO-OP FINANCE COR ANDB0002376237610100043473                    URGENT  Seragam Arjan            237610100043473 
R41237610100043482 000000000600000000000000000000000000000033881454741PAO GOVT OF AP Hyderabad salary    STATE BANK OF INDIA SECRETARIAT    237610100043482                 Regam Kanthamma                    SCHEDULED TRIBES CO-OP FINANCE COR ANDB0002376237610100043482                    URGENT  Regam Kanthamma          237610100043482 
R41237610100043491 000000000600000000000000000000000000000033881454741PAO GOVT OF AP Hyderabad salary    STATE BANK OF INDIA SECRETARIAT    237610100043491                 Pendeli Rambabu                    SCHEDULED TRIBES CO-OP FINANCE COR ANDB0002376237610100043491                    URGENT  Pendeli Rambabu          237610100043491 
R41237610100043437 000000000600000000000000000000000000000033881454741PAO GOVT OF AP Hyderabad salary    STATE BANK OF INDIA SECRETARIAT    237610100043437                 Sorda Mulla                        SCHEDULED TRIBES CO-OP FINANCE COR ANDB0002376237610100043437                    URGENT  Sorda Mulla              237610100043437 
R4179510100068409  000000000600000000000000000000000000000033881454741PAO GOVT OF AP Hyderabad salary    STATE BANK OF INDIA SECRETARIAT    79510100068409                  Boddapati Neelamma                 SCHEDULED TRIBES CO-OP FINANCE COR ANDB000079579510100068409                     URGENT  Boddapati Neelamma       79510100068409  
R4179510100092798  000000000600000000000000000000000000000033881454741PAO GOVT OF AP Hyderabad salary    STATE BANK OF INDIA SECRETARIAT    79510100092798                  Rimpi Kumart                       SCHEDULED TRIBES CO-OP FINANCE COR ANDB000079579510100092798                     URGENT  Rimpi Kumart             79510100092798  
R4179510100115424  000000000600000000000000000000000000000033881454741PAO GOVT OF AP Hyderabad salary    STATE BANK OF INDIA SECRETARIAT    79510100115424                  Janni Vasudevarao                  SCHEDULED TRIBES CO-OP FINANCE COR ANDB000079579510100115424                     URGENT  Janni Vasudevarao        79510100115424  
R4179510100093104  000000000600000000000000000000000000000033881454741PAO GOVT OF AP Hyderabad salary    STATE BANK OF INDIA SECRETARIAT    79510100093104                  Gedala Simhachalam                 SCHEDULED TRIBES CO-OP FINANCE COR ANDB000079579510100093104                     URGENT  Gedala Simhachalam       79510100093104  
R4179510015000517  000000000600000000000000000000000000000033881454741PAO GOVT OF AP Hyderabad salary    STATE BANK OF INDIA SECRETARIAT    79510015000517                  Jalari Ramakrishna                 SCHEDULED TRIBES CO-OP FINANCE COR ANDB000079579510015000517                     URGENT  Jalari Ramakrishna       79510015000517  
R4179410100040050  000000000360000000000000000000000000000033881454741PAO GOVT OF AP Hyderabad salary    STATE BANK OF INDIA SECRETARIAT    79410100040050                  Chedamala Ankaiah                  SCHEDULED TRIBES CO-OP FINANCE COR ANDB000079479410100040050                     URGENT  Chedamala Ankaiah        79410100040050  
R4179410100040102  000000000600000000000000000000000000000033881454741PAO GOVT OF AP Hyderabad salary    STATE BANK OF INDIA SECRETARIAT    79410100040102                  Jaganadham Padma                   SCHEDULED TRIBES CO-OP FINANCE COR ANDB000079479410100040102                     URGENT  Jaganadham Padma         79410100040102  
R4179410100040069  000000000360000000000000000000000000000033881454741PAO GOVT OF AP Hyderabad salary    STATE BANK OF INDIA SECRETARIAT    79410100040069                  Mahalakshmaaiah                    SCHEDULED TRIBES CO-OP FINANCE COR ANDB000079479410100040069                     URGENT  Mahalakshmaaiah          79410100040069  
R4193910100076462  000000000360000000000000000000000000000033881454741PAO GOVT OF AP Hyderabad salary    STATE BANK OF INDIA SECRETARIAT    93910100076462                  Vudamala Musalayya                 SCHEDULED TRIBES CO-OP FINANCE COR ANDB000093993910100076462                     URGENT  Vudamala Musalayya       93910100076462  
R4148410100100291  000000000300000000000000000000000000000033881454741PAO GOVT OF AP Hyderabad salary    STATE BANK OF INDIA SECRETARIAT    48410100100291                  Manupati Ram Babu                  SCHEDULED TRIBES CO-OP FINANCE COR ANDB000048448410100100291                     URGENT  Manupati Ram Babu        48410100100291  
R4148410100100316  000000000300000000000000000000000000000033881454741PAO GOVT OF AP Hyderabad salary    STATE BANK OF INDIA SECRETARIAT    48410100100316                  Manupati Srinu                     SCHEDULED TRIBES CO-OP FINANCE COR ANDB000048448410100100316                     URGENT  Manupati Srinu           48410100100316  
R4148410100100325  000000000300000000000000000000000000000033881454741PAO GOVT OF AP Hyderabad salary    STATE BANK OF INDIA SECRETARIAT    48410100100325                  Yelugudida Sattibabu               SCHEDULED TRIBES CO-OP FINANCE COR ANDB000048448410100100325                     URGENT  Yelugudida Sattibabu     48410100100325  
R4148410100100307  000000000300000000000000000000000000000033881454741PAO GOVT OF AP Hyderabad salary    STATE BANK OF INDIA SECRETARIAT    48410100100307                  Manupati Manga                     SCHEDULED TRIBES CO-OP FINANCE COR ANDB000048448410100100307                     URGENT  Manupati Manga           48410100100307  
R4148410100100334  000000000300000000000000000000000000000033881454741PAO GOVT OF AP Hyderabad salary    STATE BANK OF INDIA SECRETARIAT    48410100100334                  Manupati Gangayya                  SCHEDULED TRIBES CO-OP FINANCE COR ANDB000048448410100100334                     URGENT  Manupati Gangayya        48410100100334  
R4195210100133332  000000000120000000000000000000000000000033881454741PAO GOVT OF AP Hyderabad salary    STATE BANK OF INDIA SECRETARIAT    95210100133332                  Biddika Sanjivarao                 SCHEDULED TRIBES CO-OP FINANCE COR ANDB000095295210100133332                     URGENT  Biddika Sanjivarao       95210100133332  
R4195210100133369  000000000120000000000000000000000000000033881454741PAO GOVT OF AP Hyderabad salary    STATE BANK OF INDIA SECRETARIAT    95210100133369                  Savara Galiyo                      SCHEDULED TRIBES CO-OP FINANCE COR ANDB000095295210100133369                     URGENT  Savara Galiyo            95210100133369  
R4195210100133314  000000000120000000000000000000000000000033881454741PAO GOVT OF AP Hyderabad salary    STATE BANK OF INDIA SECRETARIAT    95210100133314                  Kondagorri Visweswararao           SCHEDULED TRIBES CO-OP FINANCE COR ANDB000095295210100133314                     URGENT  Kondagorri Visweswararao 95210100133314  
R4195210100133475  000000000120000000000000000000000000000033881454741PAO GOVT OF AP Hyderabad salary    STATE BANK OF INDIA SECRETARIAT    95210100133475                  Arika Bambada                      SCHEDULED TRIBES CO-OP FINANCE COR ANDB000095295210100133475                     URGENT  Arika Bambada            95210100133475  
R4195210100133545  000000000120000000000000000000000000000033881454741PAO GOVT OF AP Hyderabad salary    STATE BANK OF INDIA SECRETARIAT    95210100133545                  Kondagorri Ganganna                SCHEDULED TRIBES CO-OP FINANCE COR ANDB000095295210100133545                     URGENT  Kondagorri Ganganna      95210100133545  
R4195210100133341  000000000120000000000000000000000000000033881454741PAO GOVT OF AP Hyderabad salary    STATE BANK OF INDIA SECRETARIAT    95210100133341                  Savara Someswarrao                 SCHEDULED TRIBES CO-OP FINANCE COR ANDB000095295210100133341                     URGENT  Savara Someswarrao       95210100133341  
R4195210100133439  000000000120000000000000000000000000000033881454741PAO GOVT OF AP Hyderabad salary    STATE BANK OF INDIA SECRETARIAT    95210100133439                  Savara Kanta Rao                   SCHEDULED TRIBES CO-OP FINANCE COR ANDB000095295210100133439                     URGENT  Savara Kanta Rao         95210100133439  
R4195210100133411  000000000120000000000000000000000000000033881454741PAO GOVT OF AP Hyderabad salary    STATE BANK OF INDIA SECRETARIAT    95210100133411                  Biddika Ramarao                    SCHEDULED TRIBES CO-OP FINANCE COR ANDB000095295210100133411                     URGENT  Biddika Ramarao          95210100133411  
R4195210100133536  000000000120000000000000000000000000000033881454741PAO GOVT OF AP Hyderabad salary    STATE BANK OF INDIA SECRETARIAT    95210100133536                  Arika Ganganna                     SCHEDULED TRIBES CO-OP FINANCE COR ANDB000095295210100133536                     URGENT  Arika Ganganna           95210100133536  
R4195210100133448  000000000120000000000000000000000000000033881454741PAO GOVT OF AP Hyderabad salary    STATE BANK OF INDIA SECRETARIAT    95210100133448                  Savara Suloma                      SCHEDULED TRIBES CO-OP FINANCE COR ANDB000095295210100133448                     URGENT  Savara Suloma            95210100133448  
R4195210100133280  000000000120000000000000000000000000000033881454741PAO GOVT OF AP Hyderabad salary    STATE BANK OF INDIA SECRETARIAT    95210100133280                  Kumbirika Chelamma                 SCHEDULED TRIBES CO-OP FINANCE COR ANDB000095295210100133280                     URGENT  Kumbirika Chelamma       95210100133280  
R4195210100133235  000000000120000000000000000000000000000033881454741PAO GOVT OF AP Hyderabad salary    STATE BANK OF INDIA SECRETARIAT    95210100133235                  Kadraka Padmasri                   SCHEDULED TRIBES CO-OP FINANCE COR ANDB000095295210100133235                     URGENT  Kadraka Padmasri         95210100133235  
R4195210100133299  000000000120000000000000000000000000000033881454741PAO GOVT OF AP Hyderabad salary    STATE BANK OF INDIA SECRETARIAT    95210100133299                  Savara Rellayya                    SCHEDULED TRIBES CO-OP FINANCE COR ANDB000095295210100133299                     URGENT  Savara Rellayya          95210100133299  
R4195210100133509  000000000120000000000000000000000000000033881454741PAO GOVT OF AP Hyderabad salary    STATE BANK OF INDIA SECRETARIAT    95210100133509                  Mandangi Barikayya                 SCHEDULED TRIBES CO-OP FINANCE COR ANDB000095295210100133509                     URGENT  Mandangi Barikayya       95210100133509  
R4195210100133457  000000000120000000000000000000000000000033881454741PAO GOVT OF AP Hyderabad salary    STATE BANK OF INDIA SECRETARIAT    95210100133457                  Biddika Rajarao                    SCHEDULED TRIBES CO-OP FINANCE COR ANDB000095295210100133457                     URGENT  Biddika Rajarao          95210100133457  
R4195210100133305  000000000120000000000000000000000000000033881454741PAO GOVT OF AP Hyderabad salary    STATE BANK OF INDIA SECRETARIAT    95210100133305                  Biddika Sukku                      SCHEDULED TRIBES CO-OP FINANCE COR ANDB000095295210100133305                     URGENT  Biddika Sukku            95210100133305  
R4195210100133253  000000000120000000000000000000000000000033881454741PAO GOVT OF AP Hyderabad salary    STATE BANK OF INDIA SECRETARIAT    95210100133253                  Savara Jobulo                      SCHEDULED TRIBES CO-OP FINANCE COR ANDB000095295210100133253                     URGENT  Savara Jobulo            95210100133253  
R4195210100133518  000000000120000000000000000000000000000033881454741PAO GOVT OF AP Hyderabad salary    STATE BANK OF INDIA SECRETARIAT    95210100133518                  Savara Anandakumar                 SCHEDULED TRIBES CO-OP FINANCE COR ANDB000095295210100133518                     URGENT  Savara Anandakumar       95210100133518  
R4195210100133527  000000000600000000000000000000000000000033881454741PAO GOVT OF AP Hyderabad salary    STATE BANK OF INDIA SECRETARIAT    95210100133527                  Biddika Ganesh                     SCHEDULED TRIBES CO-OP FINANCE COR ANDB000095295210100133527                     URGENT  Biddika Ganesh           95210100133527  
R4195210100133420  000000000600000000000000000000000000000033881454741PAO GOVT OF AP Hyderabad salary    STATE BANK OF INDIA SECRETARIAT    95210100133420                  Savara Bennayya                    SCHEDULED TRIBES CO-OP FINANCE COR ANDB000095295210100133420                     URGENT  Savara Bennayya          95210100133420  
R4195210100133396  000000000600000000000000000000000000000033881454741PAO GOVT OF AP Hyderabad salary    STATE BANK OF INDIA SECRETARIAT    95210100133396                  Savara Sambhasivarao               SCHEDULED TRIBES CO-OP FINANCE COR ANDB000095295210100133396                     URGENT  Savara Sambhasivarao     95210100133396  
R4195210100133350  000000000120000000000000000000000000000033881454741PAO GOVT OF AP Hyderabad salary    STATE BANK OF INDIA SECRETARIAT    95210100133350                  Savara   Balimma                   SCHEDULED TRIBES CO-OP FINANCE COR ANDB000095295210100133350                     URGENT  Savara   Balimma         95210100133350  
R4195210100133493  000000000120000000000000000000000000000033881454741PAO GOVT OF AP Hyderabad salary    STATE BANK OF INDIA SECRETARIAT    95210100133493                  Savara Masa                        SCHEDULED TRIBES CO-OP FINANCE COR ANDB000095295210100133493                     URGENT  Savara Masa              95210100133493  
R4195210100133466  000000000600000000000000000000000000000033881454741PAO GOVT OF AP Hyderabad salary    STATE BANK OF INDIA SECRETARIAT    95210100133466                  Biddika Kadai                      SCHEDULED TRIBES CO-OP FINANCE COR ANDB000095295210100133466                     URGENT  Biddika Kadai            95210100133466  
R4195210100133378  000000000120000000000000000000000000000033881454741PAO GOVT OF AP Hyderabad salary    STATE BANK OF INDIA SECRETARIAT    95210100133378                  Savara Laksumayya                  SCHEDULED TRIBES CO-OP FINANCE COR ANDB000095295210100133378                     URGENT  Savara Laksumayya        95210100133378  
R4195210100133271  000000000120000000000000000000000000000033881454741PAO GOVT OF AP Hyderabad salary    STATE BANK OF INDIA SECRETARIAT    95210100133271                  Palaka Nageswarao                  SCHEDULED TRIBES CO-OP FINANCE COR ANDB000095295210100133271                     URGENT  Palaka Nageswarao        95210100133271  
R4195210100133244  000000000120000000000000000000000000000033881454741PAO GOVT OF AP Hyderabad salary    STATE BANK OF INDIA SECRETARIAT    95210100133244                  Arika Rama Rao                     SCHEDULED TRIBES CO-OP FINANCE COR ANDB000095295210100133244                     URGENT  Arika Rama Rao           95210100133244  
R4195210100133262  000000000120000000000000000000000000000033881454741PAO GOVT OF AP Hyderabad salary    STATE BANK OF INDIA SECRETARIAT    95210100133262                  Ranga Rao                          SCHEDULED TRIBES CO-OP FINANCE COR ANDB000095295210100133262                     URGENT  Ranga Rao                95210100133262  
R4140910011302313  000000000600000000000000000000000000000033881454741PAO GOVT OF AP Hyderabad salary    STATE BANK OF INDIA SECRETARIAT    40910011302313                  Chodi Sreenuvasuraodora            SCHEDULED TRIBES CO-OP FINANCE COR ANDB000040940910011302313                     URGENT  Chodi Sreenuvasuraodora  40910011302313  
R4140910011302313  000000000240000000000000000000000000000033881454741PAO GOVT OF AP Hyderabad salary    STATE BANK OF INDIA SECRETARIAT    40910011302313                  Sarapu Papayamma                   SCHEDULED TRIBES CO-OP FINANCE COR ANDB000040940910011302313                     URGENT  Sarapu Papayamma         40910011302313  
R4140910011302313  000000000240000000000000000000000000000033881454741PAO GOVT OF AP Hyderabad salary    STATE BANK OF INDIA SECRETARIAT    40910011302313                  Madakam Ramakrishnadora            SCHEDULED TRIBES CO-OP FINANCE COR ANDB000040940910011302313                     URGENT  Madakam Ramakrishnadora  40910011302313  
R4140910011302313  000000000240000000000000000000000000000033881454741PAO GOVT OF AP Hyderabad salary    STATE BANK OF INDIA SECRETARIAT    40910011302313                  Madakam Nagannadora                SCHEDULED TRIBES CO-OP FINANCE COR ANDB000040940910011302313                     URGENT  Madakam Nagannadora      40910011302313  
R4140910011302313  000000000240000000000000000000000000000033881454741PAO GOVT OF AP Hyderabad salary    STATE BANK OF INDIA SECRETARIAT    40910011302313                  Miriyala Satyanarayana             SCHEDULED TRIBES CO-OP FINANCE COR ANDB000040940910011302313                     URGENT  Miriyala Satyanarayana   40910011302313  
R4140910011302313  000000000240000000000000000000000000000033881454741PAO GOVT OF AP Hyderabad salary    STATE BANK OF INDIA SECRETARIAT    40910011302313                  Kosuri Rajareddy                   SCHEDULED TRIBES CO-OP FINANCE COR ANDB000040940910011302313                     URGENT  Kosuri Rajareddy         40910011302313  
R4140910011302313  000000000300000000000000000000000000000033881454741PAO GOVT OF AP Hyderabad salary    STATE BANK OF INDIA SECRETARIAT    40910011302313                  Puttapalli Sinagarayya             SCHEDULED TRIBES CO-OP FINANCE COR ANDB000040940910011302313                     URGENT  Puttapalli Sinagarayya   40910011302313  
R4140910011302313  000000000240000000000000000000000000000033881454741PAO GOVT OF AP Hyderabad salary    STATE BANK OF INDIA SECRETARIAT    40910011302313                  Madakam Srinivas Dora              SCHEDULED TRIBES CO-OP FINANCE COR ANDB000040940910011302313                     URGENT  Madakam Srinivas Dora    40910011302313  
R4140910011302313  000000000300000000000000000000000000000033881454741PAO GOVT OF AP Hyderabad salary    STATE BANK OF INDIA SECRETARIAT    40910011302313                  Yerrannadora                       SCHEDULED TRIBES CO-OP FINANCE COR ANDB000040940910011302313                     URGENT  Yerrannadora             40910011302313  
R4140910011302313  000000000240000000000000000000000000000033881454741PAO GOVT OF AP Hyderabad salary    STATE BANK OF INDIA SECRETARIAT    40910011302313                  Kotam Lovalaxmi                    SCHEDULED TRIBES CO-OP FINANCE COR ANDB000040940910011302313                     URGENT  Kotam Lovalaxmi          40910011302313  
R4140910011302313  000000000600000000000000000000000000000033881454741PAO GOVT OF AP Hyderabad salary    STATE BANK OF INDIA SECRETARIAT    40910011302313                  Kunjam Krishveni                   SCHEDULED TRIBES CO-OP FINANCE COR ANDB000040940910011302313                     URGENT  Kunjam Krishveni         40910011302313  
R4140910011302313  000000000300000000000000000000000000000033881454741PAO GOVT OF AP Hyderabad salary    STATE BANK OF INDIA SECRETARIAT    40910011302313                  Bandi Bujjiyyadora                 SCHEDULED TRIBES CO-OP FINANCE COR ANDB000040940910011302313                     URGENT  Bandi Bujjiyyadora       40910011302313  
R4140910011302313  000000000600000000000000000000000000000033881454741PAO GOVT OF AP Hyderabad salary    STATE BANK OF INDIA SECRETARIAT    40910011302313                  Srinbubabu                         SCHEDULED TRIBES CO-OP FINANCE COR ANDB000040940910011302313                     URGENT  Srinbubabu               40910011302313  
R4140910011302313  000000000240000000000000000000000000000033881454741PAO GOVT OF AP Hyderabad salary    STATE BANK OF INDIA SECRETARIAT    40910011302313                  Krishna                            SCHEDULED TRIBES CO-OP FINANCE COR ANDB000040940910011302313                     URGENT  Krishna                  40910011302313  
R4140910011302313  000000000240000000000000000000000000000033881454741PAO GOVT OF AP Hyderabad salary    STATE BANK OF INDIA SECRETARIAT    40910011302313                  Kosu Sirisha                       SCHEDULED TRIBES CO-OP FINANCE COR ANDB000040940910011302313                     URGENT  Kosu Sirisha             40910011302313  
R4140910011302313  000000000600000000000000000000000000000033881454741PAO GOVT OF AP Hyderabad salary    STATE BANK OF INDIA SECRETARIAT    40910011302313                  Sarapu Bhanumathi                  SCHEDULED TRIBES CO-OP FINANCE COR ANDB000040940910011302313                     URGENT  Sarapu Bhanumathi        40910011302313  
R4140910011302313  000000000600000000000000000000000000000033881454741PAO GOVT OF AP Hyderabad salary    STATE BANK OF INDIA SECRETARIAT    40910011302313                  Mamidi Satyanarayana Reddy         SCHEDULED TRIBES CO-OP FINANCE COR ANDB000040940910011302313                     URGENT  Mamidi Satyanarayana Redd40910011302313  
R4140910011302313  000000000600000000000000000000000000000033881454741PAO GOVT OF AP Hyderabad salary    STATE BANK OF INDIA SECRETARIAT    40910011302313                  Chedala Venkateswarlu              SCHEDULED TRIBES CO-OP FINANCE COR ANDB000040940910011302313                     URGENT  Chedala Venkateswarlu    40910011302313  
R4140910011302313  000000000240000000000000000000000000000033881454741PAO GOVT OF AP Hyderabad salary    STATE BANK OF INDIA SECRETARIAT    40910011302313                  Kunjam Buliiammi                   SCHEDULED TRIBES CO-OP FINANCE COR ANDB000040940910011302313                     URGENT  Kunjam Buliiammi         40910011302313  
R4140910011302313  000000000600000000000000000000000000000033881454741PAO GOVT OF AP Hyderabad salary    STATE BANK OF INDIA SECRETARIAT    40910011302313                  Annika Mallieswararao              SCHEDULED TRIBES CO-OP FINANCE COR ANDB000040940910011302313                     URGENT  Annika Mallieswararao    40910011302313  
R4140910011302313  000000000600000000000000000000000000000033881454741PAO GOVT OF AP Hyderabad salary    STATE BANK OF INDIA SECRETARIAT    40910011302313                  Pamarthi Appalakonda               SCHEDULED TRIBES CO-OP FINANCE COR ANDB000040940910011302313                     URGENT  Pamarthi Appalakonda     40910011302313  
R4140910011302313  000000000600000000000000000000000000000033881454741PAO GOVT OF AP Hyderabad salary    STATE BANK OF INDIA SECRETARIAT    40910011302313                  Kosu Bulliyama                     SCHEDULED TRIBES CO-OP FINANCE COR ANDB000040940910011302313                     URGENT  Kosu Bulliyama           40910011302313  
R4140910011302313  000000000600000000000000000000000000000033881454741PAO GOVT OF AP Hyderabad salary    STATE BANK OF INDIA SECRETARIAT    40910011302313                  Pathara Kumari                     SCHEDULED TRIBES CO-OP FINANCE COR ANDB000040940910011302313                     URGENT  Pathara Kumari           40910011302313  
R4140910011302313  000000000240000000000000000000000000000033881454741PAO GOVT OF AP Hyderabad salary    STATE BANK OF INDIA SECRETARIAT    40910011302313                  Pamarti Nagamani                   SCHEDULED TRIBES CO-OP FINANCE COR ANDB000040940910011302313                     URGENT  Pamarti Nagamani         40910011302313  
R4140910011302313  000000000600000000000000000000000000000033881454741PAO GOVT OF AP Hyderabad salary    STATE BANK OF INDIA SECRETARIAT    40910011302313                  Nesam Maridamma                    SCHEDULED TRIBES CO-OP FINANCE COR ANDB000040940910011302313                     URGENT  Nesam Maridamma          40910011302313  
R4140910011302313  000000000240000000000000000000000000000033881454741PAO GOVT OF AP Hyderabad salary    STATE BANK OF INDIA SECRETARIAT    40910011302313                  Sarapu Krishnaveni                 SCHEDULED TRIBES CO-OP FINANCE COR ANDB000040940910011302313                     URGENT  Sarapu Krishnaveni       40910011302313  
R4140910011302313  000000000600000000000000000000000000000033881454741PAO GOVT OF AP Hyderabad salary    STATE BANK OF INDIA SECRETARIAT    40910011302313                  Annika Nageswararao                SCHEDULED TRIBES CO-OP FINANCE COR ANDB000040940910011302313                     URGENT  Annika Nageswararao      40910011302313  
R4140910011302313  000000000240000000000000000000000000000033881454741PAO GOVT OF AP Hyderabad salary    STATE BANK OF INDIA SECRETARIAT    40910011302313                  Annika Chittibabu                  SCHEDULED TRIBES CO-OP FINANCE COR ANDB000040940910011302313                     URGENT  Annika Chittibabu        40910011302313  
R4140910011302313  000000000600000000000000000000000000000033881454741PAO GOVT OF AP Hyderabad salary    STATE BANK OF INDIA SECRETARIAT    40910011302313                  Panda Arjunadora                   SCHEDULED TRIBES CO-OP FINANCE COR ANDB000040940910011302313                     URGENT  Panda Arjunadora         40910011302313  
R4140910011302313  000000000240000000000000000000000000000033881454741PAO GOVT OF AP Hyderabad salary    STATE BANK OF INDIA SECRETARIAT    40910011302313                  Kancham Satyanarayana              SCHEDULED TRIBES CO-OP FINANCE COR ANDB000040940910011302313                     URGENT  Kancham Satyanarayana    40910011302313  
R4140910011302313  000000000240000000000000000000000000000033881454741PAO GOVT OF AP Hyderabad salary    STATE BANK OF INDIA SECRETARIAT    40910011302313                  Madakam Boneswararaodora           SCHEDULED TRIBES CO-OP FINANCE COR ANDB000040940910011302313                     URGENT  Madakam Boneswararaodora 40910011302313  
R4140910011302313  000000000240000000000000000000000000000033881454741PAO GOVT OF AP Hyderabad salary    STATE BANK OF INDIA SECRETARIAT    40910011302313                  Kosu Bhaskramma                    SCHEDULED TRIBES CO-OP FINANCE COR ANDB000040940910011302313                     URGENT  Kosu Bhaskramma          40910011302313  
R4140910011302313  000000000240000000000000000000000000000033881454741PAO GOVT OF AP Hyderabad salary    STATE BANK OF INDIA SECRETARIAT    40910011302313                  Kanam Srinu                        SCHEDULED TRIBES CO-OP FINANCE COR ANDB000040940910011302313                     URGENT  Kanam Srinu              40910011302313  
R4140910011302313  000000000600000000000000000000000000000033881454741PAO GOVT OF AP Hyderabad salary    STATE BANK OF INDIA SECRETARIAT    40910011302313                  Dasari Nagadurga                   SCHEDULED TRIBES CO-OP FINANCE COR ANDB000040940910011302313                     URGENT  Dasari Nagadurga         40910011302313  
R4140910011302313  000000000240000000000000000000000000000033881454741PAO GOVT OF AP Hyderabad salary    STATE BANK OF INDIA SECRETARIAT    40910011302313                  Kosu Lakshmi                       SCHEDULED TRIBES CO-OP FINANCE COR ANDB000040940910011302313                     URGENT  Kosu Lakshmi             40910011302313  
R4140910011302313  000000000240000000000000000000000000000033881454741PAO GOVT OF AP Hyderabad salary    STATE BANK OF INDIA SECRETARIAT    40910011302313                  Appnnadora                         SCHEDULED TRIBES CO-OP FINANCE COR ANDB000040940910011302313                     URGENT  Appnnadora               40910011302313  
R4140910011302313  000000000600000000000000000000000000000033881454741PAO GOVT OF AP Hyderabad salary    STATE BANK OF INDIA SECRETARIAT    40910011302313                  Satyanarayana Dora                 SCHEDULED TRIBES CO-OP FINANCE COR ANDB000040940910011302313                     URGENT  Satyanarayana Dora       40910011302313  
R4140910011302313  000000000240000000000000000000000000000033881454741PAO GOVT OF AP Hyderabad salary    STATE BANK OF INDIA SECRETARIAT    40910011302313                  Madakam Naga Vara Chinnalu Dora    SCHEDULED TRIBES CO-OP FINANCE COR ANDB000040940910011302313                     URGENT  Madakam Naga Vara Chinnal40910011302313  
R4140910011302313  000000000600000000000000000000000000000033881454741PAO GOVT OF AP Hyderabad salary    STATE BANK OF INDIA SECRETARIAT    40910011302313                  Veerababu                          SCHEDULED TRIBES CO-OP FINANCE COR ANDB000040940910011302313                     URGENT  Veerababu                40910011302313  
R4140910011302313  000000000240000000000000000000000000000033881454741PAO GOVT OF AP Hyderabad salary    STATE BANK OF INDIA SECRETARIAT    40910011302313                  Bellam Pentamma                    SCHEDULED TRIBES CO-OP FINANCE COR ANDB000040940910011302313                     URGENT  Bellam Pentamma          40910011302313  
R4140910011302313  000000000600000000000000000000000000000033881454741PAO GOVT OF AP Hyderabad salary    STATE BANK OF INDIA SECRETARIAT    40910011302313                  Shaarapu Chanti Abbai              SCHEDULED TRIBES CO-OP FINANCE COR ANDB000040940910011302313                     URGENT  Shaarapu Chanti Abbai    40910011302313  
R4140910011302313  000000000600000000000000000000000000000033881454741PAO GOVT OF AP Hyderabad salary    STATE BANK OF INDIA SECRETARIAT    40910011302313                  Govind Veera Lakshmi               SCHEDULED TRIBES CO-OP FINANCE COR ANDB000040940910011302313                     URGENT  Govind Veera Lakshmi     40910011302313  
R4140910011302313  000000000600000000000000000000000000000033881454741PAO GOVT OF AP Hyderabad salary    STATE BANK OF INDIA SECRETARIAT    40910011302313                  Chodam Bucchamma                   SCHEDULED TRIBES CO-OP FINANCE COR ANDB000040940910011302313                     URGENT  Chodam Bucchamma         40910011302313  
R4140910011302313  000000000240000000000000000000000000000033881454741PAO GOVT OF AP Hyderabad salary    STATE BANK OF INDIA SECRETARIAT    40910011302313                  Bandi Nukaraju Dora                SCHEDULED TRIBES CO-OP FINANCE COR ANDB000040940910011302313                     URGENT  Bandi Nukaraju Dora      40910011302313  
R4140910011302313  000000000240000000000000000000000000000033881454741PAO GOVT OF AP Hyderabad salary    STATE BANK OF INDIA SECRETARIAT    40910011302313                  Kosu Venkannadora                  SCHEDULED TRIBES CO-OP FINANCE COR ANDB000040940910011302313                     URGENT  Kosu Venkannadora        40910011302313  
R4140910011302313  000000000600000000000000000000000000000033881454741PAO GOVT OF AP Hyderabad salary    STATE BANK OF INDIA SECRETARIAT    40910011302313                  Patara Laxmi                       SCHEDULED TRIBES CO-OP FINANCE COR ANDB000040940910011302313                     URGENT  Patara Laxmi             40910011302313  
R4140910011302313  000000000600000000000000000000000000000033881454741PAO GOVT OF AP Hyderabad salary    STATE BANK OF INDIA SECRETARIAT    40910011302313                  Danni Durgareddy                   SCHEDULED TRIBES CO-OP FINANCE COR ANDB000040940910011302313                     URGENT  Danni Durgareddy         40910011302313  
R4140910011302313  000000000240000000000000000000000000000033881454741PAO GOVT OF AP Hyderabad salary    STATE BANK OF INDIA SECRETARIAT    40910011302313                  Pathara Veerayamma                 SCHEDULED TRIBES CO-OP FINANCE COR ANDB000040940910011302313                     URGENT  Pathara Veerayamma       40910011302313  
R4140910011302313  000000000600000000000000000000000000000033881454741PAO GOVT OF AP Hyderabad salary    STATE BANK OF INDIA SECRETARIAT    40910011302313                  Sarapu Saraswathi                  SCHEDULED TRIBES CO-OP FINANCE COR ANDB000040940910011302313                     URGENT  Sarapu Saraswathi        40910011302313  
R4140910011302313  000000000240000000000000000000000000000033881454741PAO GOVT OF AP Hyderabad salary    STATE BANK OF INDIA SECRETARIAT    40910011302313                  Venkanna Dora                      SCHEDULED TRIBES CO-OP FINANCE COR ANDB000040940910011302313                     URGENT  Venkanna Dora            40910011302313  
R4140910011302313  000000000240000000000000000000000000000033881454741PAO GOVT OF AP Hyderabad salary    STATE BANK OF INDIA SECRETARIAT    40910011302313                  Pamarti Venkatalakshmi             SCHEDULED TRIBES CO-OP FINANCE COR ANDB000040940910011302313                     URGENT  Pamarti Venkatalakshmi   40910011302313  
R4140910011302313  000000000600000000000000000000000000000033881454741PAO GOVT OF AP Hyderabad salary    STATE BANK OF INDIA SECRETARIAT    40910011302313                  Annika Nagamani                    SCHEDULED TRIBES CO-OP FINANCE COR ANDB000040940910011302313                     URGENT  Annika Nagamani          40910011302313  
R4140910011302313  000000000240000000000000000000000000000033881454741PAO GOVT OF AP Hyderabad salary    STATE BANK OF INDIA SECRETARIAT    40910011302313                  Vedurupalli Suribabu               SCHEDULED TRIBES CO-OP FINANCE COR ANDB000040940910011302313                     URGENT  Vedurupalli Suribabu     40910011302313  
R4140910011302313  000000000240000000000000000000000000000033881454741PAO GOVT OF AP Hyderabad salary    STATE BANK OF INDIA SECRETARIAT    40910011302313                  Annika Bharathi                    SCHEDULED TRIBES CO-OP FINANCE COR ANDB000040940910011302313                     URGENT  Annika Bharathi          40910011302313  
R4140910011302313  000000000240000000000000000000000000000033881454741PAO GOVT OF AP Hyderabad salary    STATE BANK OF INDIA SECRETARIAT    40910011302313                  Yaatl Venkataramana Reddi          SCHEDULED TRIBES CO-OP FINANCE COR ANDB000040940910011302313                     URGENT  Yaatl Venkataramana Reddi40910011302313  
R4140910011302313  000000000600000000000000000000000000000033881454741PAO GOVT OF AP Hyderabad salary    STATE BANK OF INDIA SECRETARIAT    40910011302313                  Vedurupalli Ramana                 SCHEDULED TRIBES CO-OP FINANCE COR ANDB000040940910011302313                     URGENT  Vedurupalli Ramana       40910011302313  
R4140910011302313  000000000300000000000000000000000000000033881454741PAO GOVT OF AP Hyderabad salary    STATE BANK OF INDIA SECRETARIAT    40910011302313                  Miriyala Venkatalxmi               SCHEDULED TRIBES CO-OP FINANCE COR ANDB000040940910011302313                     URGENT  Miriyala Venkatalxmi     40910011302313  
R4151110100182994  000000000300000000000000000000000000000033881454741PAO GOVT OF AP Hyderabad salary    STATE BANK OF INDIA SECRETARIAT    51110100182994                  Siddabattula Janakirao             SCHEDULED TRIBES CO-OP FINANCE COR ANDB000051151110100182994                     URGENT  Siddabattula Janakirao   51110100182994  
R4166910011010794  000000000300000000000000000000000000000033881454741PAO GOVT OF AP Hyderabad salary    STATE BANK OF INDIA SECRETARIAT    66910011010794                  Ragini Shivamm                     SCHEDULED TRIBES CO-OP FINANCE COR ANDB000066966910011010794                     URGENT  Ragini Shivamm           66910011010794  
R4166910011010794  000000000300000000000000000000000000000033881454741PAO GOVT OF AP Hyderabad salary    STATE BANK OF INDIA SECRETARIAT    66910011010794                  Ragini Musalamma                   SCHEDULED TRIBES CO-OP FINANCE COR ANDB000066966910011010794                     URGENT  Ragini Musalamma         66910011010794  
R4166910011010794  000000000300000000000000000000000000000033881454741PAO GOVT OF AP Hyderabad salary    STATE BANK OF INDIA SECRETARIAT    66910011010794                  Seeram Appalakonda                 SCHEDULED TRIBES CO-OP FINANCE COR ANDB000066966910011010794                     URGENT  Seeram Appalakonda       66910011010794  
R4166910011010794  000000000300000000000000000000000000000033881454741PAO GOVT OF AP Hyderabad salary    STATE BANK OF INDIA SECRETARIAT    66910011010794                  Seeram Lakshmi                     SCHEDULED TRIBES CO-OP FINANCE COR ANDB000066966910011010794                     URGENT  Seeram Lakshmi           66910011010794  
R4166910011010794  000000000300000000000000000000000000000033881454741PAO GOVT OF AP Hyderabad salary    STATE BANK OF INDIA SECRETARIAT    66910011010794                  Maicharla Rajamm                   SCHEDULED TRIBES CO-OP FINANCE COR ANDB000066966910011010794                     URGENT  Maicharla Rajamm         66910011010794  
R4166910011010794  000000000300000000000000000000000000000033881454741PAO GOVT OF AP Hyderabad salary    STATE BANK OF INDIA SECRETARIAT    66910011010794                  Mecharla Eeswaramma                SCHEDULED TRIBES CO-OP FINANCE COR ANDB000066966910011010794                     URGENT  Mecharla Eeswaramma      66910011010794  
R4166910011010794  000000000300000000000000000000000000000033881454741PAO GOVT OF AP Hyderabad salary    STATE BANK OF INDIA SECRETARIAT    66910011010794                  Ragini Pydamma                     SCHEDULED TRIBES CO-OP FINANCE COR ANDB000066966910011010794                     URGENT  Ragini Pydamma           66910011010794  
R4191054465092     000000000360000000000000000000000000000033881454741PAO GOVT OF AP Hyderabad salary    STATE BANK OF INDIA SECRETARIAT    91054465092                     Chowturu Lakshamma                 SCHEDULED TRIBES CO-OP FINANCE COR APGB000403991054465092                        URGENT  Chowturu Lakshamma       91054465092     
R4191055071866     000000000600000000000000000000000000000033881454741PAO GOVT OF AP Hyderabad salary    STATE BANK OF INDIA SECRETARIAT    91055071866                     Potluru Bhargavi                   SCHEDULED TRIBES CO-OP FINANCE COR APGB000403991055071866                        URGENT  Potluru Bhargavi         91055071866     
R4119047010119     000000000600000000000000000000000000000033881454741PAO GOVT OF AP Hyderabad salary    STATE BANK OF INDIA SECRETARIAT    19047010119                     Indeti Ramanamma                   SCHEDULED TRIBES CO-OP FINANCE COR APGB000403719047010119                        URGENT  Indeti Ramanamma         19047010119     
R4191032111672     000000000300000000000000000000000000000033881454741PAO GOVT OF AP Hyderabad salary    STATE BANK OF INDIA SECRETARIAT    91032111672                     Indla Ramanaiah                    SCHEDULED TRIBES CO-OP FINANCE COR APGB000403791032111672                        URGENT  Indla Ramanaiah          91032111672     
R4191029086116     000000000120000000000000000000000000000033881454741PAO GOVT OF AP Hyderabad salary    STATE BANK OF INDIA SECRETARIAT    91029086116                     Nagamunthala Chinna Venkaiah       SCHEDULED TRIBES CO-OP FINANCE COR APGB000403791029086116                        URGENT  Nagamunthala Chinna Venka91029086116     
R4191050345631     000000000600000000000000000000000000000033881454741PAO GOVT OF AP Hyderabad salary    STATE BANK OF INDIA SECRETARIAT    91050345631                     Namunthala Polaiah                 SCHEDULED TRIBES CO-OP FINANCE COR APGB000406591050345631                        URGENT  Namunthala Polaiah       91050345631     
R4191054477711     000000000360000000000000000000000000000033881454741PAO GOVT OF AP Hyderabad salary    STATE BANK OF INDIA SECRETARIAT    91054477711                     Chavuturu Penchalaiah              SCHEDULED TRIBES CO-OP FINANCE COR APGB000404291054477711                        URGENT  Chavuturu Penchalaiah    91054477711     
R4191055135630     000000000600000000000000000000000000000033881454741PAO GOVT OF AP Hyderabad salary    STATE BANK OF INDIA SECRETARIAT    91055135630                     Katta Ravanamma                    SCHEDULED TRIBES CO-OP FINANCE COR APGB000404291055135630                        URGENT  Katta Ravanamma          91055135630     
R4191054477802     000000000600000000000000000000000000000033881454741PAO GOVT OF AP Hyderabad salary    STATE BANK OF INDIA SECRETARIAT    91054477802                     Yanamala Sakunthala                SCHEDULED TRIBES CO-OP FINANCE COR APGB000404291054477802                        URGENT  Yanamala Sakunthala      91054477802     
R4191054481864     000000000360000000000000000000000000000033881454741PAO GOVT OF AP Hyderabad salary    STATE BANK OF INDIA SECRETARIAT    91054481864                     Nagamuntala Venkaiah               SCHEDULED TRIBES CO-OP FINANCE COR APGB000404291054481864                        URGENT  Nagamuntala Venkaiah     91054481864     
R4191054490482     000000000360000000000000000000000000000033881454741PAO GOVT OF AP Hyderabad salary    STATE BANK OF INDIA SECRETARIAT    91054490482                     Dasari Dorababu                    SCHEDULED TRIBES CO-OP FINANCE COR APGB000404291054490482                        URGENT  Dasari Dorababu          91054490482     
R4191054487130     000000000600000000000000000000000000000033881454741PAO GOVT OF AP Hyderabad salary    STATE BANK OF INDIA SECRETARIAT    91054487130                     Kalluri Sailaja                    SCHEDULED TRIBES CO-OP FINANCE COR APGB000404291054487130                        URGENT  Kalluri Sailaja          91054487130     
R4191054487797     000000000600000000000000000000000000000033881454741PAO GOVT OF AP Hyderabad salary    STATE BANK OF INDIA SECRETARIAT    91054487797                     Yanamala Nagaraju                  SCHEDULED TRIBES CO-OP FINANCE COR APGB000404291054487797                        URGENT  Yanamala Nagaraju        91054487797     
R4191054491544     000000000360000000000000000000000000000033881454741PAO GOVT OF AP Hyderabad salary    STATE BANK OF INDIA SECRETARIAT    91054491544                     Sureddy Sivaiah                    SCHEDULED TRIBES CO-OP FINANCE COR APGB000404291054491544                        URGENT  Sureddy Sivaiah          91054491544     
R4191055295312     000000000420000000000000000000000000000033881454741PAO GOVT OF AP Hyderabad salary    STATE BANK OF INDIA SECRETARIAT    91055295312                     Eega Subramanyam                   SCHEDULED TRIBES CO-OP FINANCE COR APGB000410191055295312                        URGENT  Eega Subramanyam         91055295312     
R4191055303174     000000000420000000000000000000000000000033881454741PAO GOVT OF AP Hyderabad salary    STATE BANK OF INDIA SECRETARIAT    91055303174                     Yendeti Nagendra                   SCHEDULED TRIBES CO-OP FINANCE COR APGB000410191055303174                        URGENT  Yendeti Nagendra         91055303174     
R4191054701507     000000000420000000000000000000000000000033881454741PAO GOVT OF AP Hyderabad salary    STATE BANK OF INDIA SECRETARIAT    91054701507                     Chachala Prasad                    SCHEDULED TRIBES CO-OP FINANCE COR APGB000410191054701507                        URGENT  Chachala Prasad          91054701507     
R4119151059203     000000000600000000000000000000000000000033881454741PAO GOVT OF AP Hyderabad salary    STATE BANK OF INDIA SECRETARIAT    19151059203                     Bandi Nirmala                      SCHEDULED TRIBES CO-OP FINANCE COR APGB000400919151059203                        URGENT  Bandi Nirmala            19151059203     
R4119151006352     000000000300000000000000000000000000000033881454741PAO GOVT OF AP Hyderabad salary    STATE BANK OF INDIA SECRETARIAT    19151006352                     Pasupuleti Sudhakar                SCHEDULED TRIBES CO-OP FINANCE COR APGB000400919151006352                        URGENT  Pasupuleti Sudhakar      19151006352     
R4119151062646     000000000600000000000000000000000000000033881454741PAO GOVT OF AP Hyderabad salary    STATE BANK OF INDIA SECRETARIAT    19151062646                     Yatagiri Syamala                   SCHEDULED TRIBES CO-OP FINANCE COR APGB000400919151062646                        URGENT  Yatagiri Syamala         19151062646     
R4119151059112     000000000600000000000000000000000000000033881454741PAO GOVT OF AP Hyderabad salary    STATE BANK OF INDIA SECRETARIAT    19151059112                     Yaluru Sujata                      SCHEDULED TRIBES CO-OP FINANCE COR APGB000400919151059112                        URGENT  Yaluru Sujata            19151059112     
R4119151004184     000000000600000000000000000000000000000033881454741PAO GOVT OF AP Hyderabad salary    STATE BANK OF INDIA SECRETARIAT    19151004184                     Potluru Venkataramanaiah           SCHEDULED TRIBES CO-OP FINANCE COR APGB000400919151004184                        URGENT  Potluru Venkataramanaiah 19151004184     
R4133250100011787  000000000600000000000000000000000000000033881454741PAO GOVT OF AP Hyderabad salary    STATE BANK OF INDIA SECRETARIAT    33250100011787                  B Nagalakshmi                      SCHEDULED TRIBES CO-OP FINANCE COR BARB0PILERX33250100011787                     URGENT  B Nagalakshmi            33250100011787  
R41562110110003854 000000000600000000000000000000000000000033881454741PAO GOVT OF AP Hyderabad salary    STATE BANK OF INDIA SECRETARIAT    562110110003854                 Bharatam Arjunarao                 SCHEDULED TRIBES CO-OP FINANCE COR BKID0005621562110110003854                    URGENT  Bharatam Arjunarao       562110110003854 
R41562110110003504 000000000600000000000000000000000000000033881454741PAO GOVT OF AP Hyderabad salary    STATE BANK OF INDIA SECRETARIAT    562110110003504                 Manupati Suribabu                  SCHEDULED TRIBES CO-OP FINANCE COR BKID0005621562110110003504                    URGENT  Manupati Suribabu        562110110003504 
R41562110110003853 000000000600000000000000000000000000000033881454741PAO GOVT OF AP Hyderabad salary    STATE BANK OF INDIA SECRETARIAT    562110110003853                 Mogali Nagamuni                    SCHEDULED TRIBES CO-OP FINANCE COR BKID0005621562110110003853                    URGENT  Mogali Nagamuni          562110110003853 
R4160202617110     000000000300000000000000000000000000000033881454741PAO GOVT OF AP Hyderabad salary    STATE BANK OF INDIA SECRETARIAT    60202617110                     Posaya                             SCHEDULED TRIBES CO-OP FINANCE COR MAHB000188960202617110                        URGENT  Posaya                   60202617110     
R4160202617201     000000000300000000000000000000000000000033881454741PAO GOVT OF AP Hyderabad salary    STATE BANK OF INDIA SECRETARIAT    60202617201                     Srinivasa                          SCHEDULED TRIBES CO-OP FINANCE COR MAHB000188960202617201                        URGENT  Srinivasa                60202617201     
R41628108033130    000000000360000000000000000000000000000033881454741PAO GOVT OF AP Hyderabad salary    STATE BANK OF INDIA SECRETARIAT    628108033130                    Gandalla Saritha                   SCHEDULED TRIBES CO-OP FINANCE COR CNRB0000628628108033130                       URGENT  Gandalla Saritha         628108033130    
R418548108004606   000000000600000000000000000000000000000033881454741PAO GOVT OF AP Hyderabad salary    STATE BANK OF INDIA SECRETARIAT    8548108004606                   Obula Subramanyam                  SCHEDULED TRIBES CO-OP FINANCE COR CNRB00085488548108004606                      URGENT  Obula Subramanyam        8548108004606   
R413419776170      000000000420000000000000000000000000000033881454741PAO GOVT OF AP Hyderabad salary    STATE BANK OF INDIA SECRETARIAT    3419776170                      Chinthapudi Sudhakar               SCHEDULED TRIBES CO-OP FINANCE COR CBIN02808393419776170                         URGENT  Chinthapudi Sudhakar     3419776170      
R413414112625      000000000420000000000000000000000000000033881454741PAO GOVT OF AP Hyderabad salary    STATE BANK OF INDIA SECRETARIAT    3414112625                      Athipati Sivaprasad                SCHEDULED TRIBES CO-OP FINANCE COR CBIN02808393414112625                         URGENT  Athipati Sivaprasad      3414112625      
R413328412082      000000000300000000000000000000000000000033881454741PAO GOVT OF AP Hyderabad salary    STATE BANK OF INDIA SECRETARIAT    3328412082                      Adipudi Saroja                     SCHEDULED TRIBES CO-OP FINANCE COR CBIN02808393328412082                         URGENT  Adipudi Saroja           3328412082      
R413443053286      000000000900000000000000000000000000000033881454741PAO GOVT OF AP Hyderabad salary    STATE BANK OF INDIA SECRETARIAT    3443053286                      Gedhela Chinnammalu                SCHEDULED TRIBES CO-OP FINANCE COR CBIN02833643443053286                         URGENT  Gedhela Chinnammalu      3443053286      
R413445621953      000000000900000000000000000000000000000033881454741PAO GOVT OF AP Hyderabad salary    STATE BANK OF INDIA SECRETARIAT    3445621953                      Gudivada Venkatalakshmi            SCHEDULED TRIBES CO-OP FINANCE COR CBIN02833643445621953                         URGENT  Gudivada Venkatalakshmi  3445621953      
R413445619332      000000000900000000000000000000000000000033881454741PAO GOVT OF AP Hyderabad salary    STATE BANK OF INDIA SECRETARIAT    3445619332                      Singarapu Sathemma                 SCHEDULED TRIBES CO-OP FINANCE COR CBIN02833643445619332                         URGENT  Singarapu Sathemma       3445619332      
R416322675782      000000000600000000000000000000000000000033881454741PAO GOVT OF AP Hyderabad salary    STATE BANK OF INDIA SECRETARIAT    6322675782                      Mude Sreenivasulu                  SCHEDULED TRIBES CO-OP FINANCE COR IDIB000B1286322675782                         URGENT  Mude Sreenivasulu        6322675782      
R41841269329       000000000600000000000000000000000000000033881454741PAO GOVT OF AP Hyderabad salary    STATE BANK OF INDIA SECRETARIAT    841269329                       Poolu Rajamma                      SCHEDULED TRIBES CO-OP FINANCE COR IDIB000B128841269329                          URGENT  Poolu Rajamma            841269329       
R41822803072       000000000480000000000000000000000000000033881454741PAO GOVT OF AP Hyderabad salary    STATE BANK OF INDIA SECRETARIAT    822803072                       Lanja Poli Ravindra Babu           SCHEDULED TRIBES CO-OP FINANCE COR IDIB000C023822803072                          URGENT  Lanja Poli Ravindra Babu 822803072       
R416248985594      000000000300000000000000000000000000000033881454741PAO GOVT OF AP Hyderabad salary    STATE BANK OF INDIA SECRETARIAT    6248985594                      Neradi Ravana                      SCHEDULED TRIBES CO-OP FINANCE COR IDIB000K1146248985594                         URGENT  Neradi Ravana            6248985594      
R41587304884       000000000120000000000000000000000000000033881454741PAO GOVT OF AP Hyderabad salary    STATE BANK OF INDIA SECRETARIAT    587304884                       Mandangi Rajarao                   SCHEDULED TRIBES CO-OP FINANCE COR IDIB000K114587304884                          URGENT  Mandangi Rajarao         587304884       
R41588873260       000000000600000000000000000000000000000033881454741PAO GOVT OF AP Hyderabad salary    STATE BANK OF INDIA SECRETARIAT    588873260                       Bhukke Venkataramana  Naik         SCHEDULED TRIBES CO-OP FINANCE COR IDIB000M044588873260                          URGENT  Bhukke Venkataramana  Nai588873260       
R416303695257      000000000600000000000000000000000000000033881454741PAO GOVT OF AP Hyderabad salary    STATE BANK OF INDIA SECRETARIAT    6303695257                      Teku Manda Lakshmi Devi            SCHEDULED TRIBES CO-OP FINANCE COR IDIB000M0446303695257                         URGENT  Teku Manda Lakshmi Devi  6303695257      
R416291878954      000000000600000000000000000000000000000033881454741PAO GOVT OF AP Hyderabad salary    STATE BANK OF INDIA SECRETARIAT    6291878954                      Muji Balajinaik                    SCHEDULED TRIBES CO-OP FINANCE COR IDIB000M0446291878954                         URGENT  Muji Balajinaik          6291878954      
R41953688413       000000000600000000000000000000000000000033881454741PAO GOVT OF AP Hyderabad salary    STATE BANK OF INDIA SECRETARIAT    953688413                       Gaaleti Manjula                    SCHEDULED TRIBES CO-OP FINANCE COR IDIB000M044953688413                          URGENT  Gaaleti Manjula          953688413       
R41972556619       000000000600000000000000000000000000000033881454741PAO GOVT OF AP Hyderabad salary    STATE BANK OF INDIA SECRETARIAT    972556619                       G Ananda                           SCHEDULED TRIBES CO-OP FINANCE COR IDIB000N050972556619                          URGENT  G Ananda                 972556619       
R416323344330      000000001000000000000000000000000000000033881454741PAO GOVT OF AP Hyderabad salary    STATE BANK OF INDIA SECRETARIAT    6323344330                      Nookaraju                          SCHEDULED TRIBES CO-OP FINANCE COR IDIB000S0726323344330                         URGENT  Nookaraju                6323344330      
R41990272078       000000001000000000000000000000000000000033881454741PAO GOVT OF AP Hyderabad salary    STATE BANK OF INDIA SECRETARIAT    990272078                       Kankipati Ramarao                  SCHEDULED TRIBES CO-OP FINANCE COR IDIB000S072990272078                          URGENT  Kankipati Ramarao        990272078       
R416205391033      000000000600000000000000000000000000000033881454741PAO GOVT OF AP Hyderabad salary    STATE BANK OF INDIA SECRETARIAT    6205391033                      Kankipati Vijayakumari             SCHEDULED TRIBES CO-OP FINANCE COR IDIB000S0726205391033                         URGENT  Kankipati Vijayakumari   6205391033      
R416323377569      000000000600000000000000000000000000000033881454741PAO GOVT OF AP Hyderabad salary    STATE BANK OF INDIA SECRETARIAT    6323377569                      Mottadam Durgabhavani              SCHEDULED TRIBES CO-OP FINANCE COR IDIB000S0726323377569                         URGENT  Mottadam Durgabhavani    6323377569      
R416315988829      000000001000000000000000000000000000000033881454741PAO GOVT OF AP Hyderabad salary    STATE BANK OF INDIA SECRETARIAT    6315988829                      Jalli Sriram                       SCHEDULED TRIBES CO-OP FINANCE COR IDIB000S0726315988829                         URGENT  Jalli Sriram             6315988829      
R416302954859      000000000600000000000000000000000000000033881454741PAO GOVT OF AP Hyderabad salary    STATE BANK OF INDIA SECRETARIAT    6302954859                      Vanthala Ganesh                    SCHEDULED TRIBES CO-OP FINANCE COR IDIB000S0726302954859                         URGENT  Vanthala Ganesh          6302954859      
R416320921945      000000000600000000000000000000000000000033881454741PAO GOVT OF AP Hyderabad salary    STATE BANK OF INDIA SECRETARIAT    6320921945                      Mottadam Dorababu                  SCHEDULED TRIBES CO-OP FINANCE COR IDIB000S0726320921945                         URGENT  Mottadam Dorababu        6320921945      
R416156382624      000000001000000000000000000000000000000033881454741PAO GOVT OF AP Hyderabad salary    STATE BANK OF INDIA SECRETARIAT    6156382624                      Vanthala Suryarao                  SCHEDULED TRIBES CO-OP FINANCE COR IDIB000S0726156382624                         URGENT  Vanthala Suryarao        6156382624      
R416318781810      000000001000000000000000000000000000000033881454741PAO GOVT OF AP Hyderabad salary    STATE BANK OF INDIA SECRETARIAT    6318781810                      Setti Ramarao                      SCHEDULED TRIBES CO-OP FINANCE COR IDIB000S0726318781810                         URGENT  Setti Ramarao            6318781810      
R416074316890      000000000600000000000000000000000000000033881454741PAO GOVT OF AP Hyderabad salary    STATE BANK OF INDIA SECRETARIAT    6074316890                      Paparao                            SCHEDULED TRIBES CO-OP FINANCE COR IDIB000S0726074316890                         URGENT  Paparao                  6074316890      
R416248283652      000000000480000000000000000000000000000033881454741PAO GOVT OF AP Hyderabad salary    STATE BANK OF INDIA SECRETARIAT    6248283652                      Killo Ramarao                      SCHEDULED TRIBES CO-OP FINANCE COR IDIB000S0726248283652                         URGENT  Killo Ramarao            6248283652      
R416322028166      000000001000000000000000000000000000000033881454741PAO GOVT OF AP Hyderabad salary    STATE BANK OF INDIA SECRETARIAT    6322028166                      Siribala Bharathi                  SCHEDULED TRIBES CO-OP FINANCE COR IDIB000S0726322028166                         URGENT  Siribala Bharathi        6322028166      
R416320923760      000000001000000000000000000000000000000033881454741PAO GOVT OF AP Hyderabad salary    STATE BANK OF INDIA SECRETARIAT    6320923760                      Mottadam Maheshbabu                SCHEDULED TRIBES CO-OP FINANCE COR IDIB000S0726320923760                         URGENT  Mottadam Maheshbabu      6320923760      
R416323346019      000000001000000000000000000000000000000033881454741PAO GOVT OF AP Hyderabad salary    STATE BANK OF INDIA SECRETARIAT    6323346019                      Kankipati Kothannapadal            SCHEDULED TRIBES CO-OP FINANCE COR IDIB000S0726323346019                         URGENT  Kankipati Kothannapadal  6323346019      
R41583022882       000000000600000000000000000000000000000033881454741PAO GOVT OF AP Hyderabad salary    STATE BANK OF INDIA SECRETARIAT    583022882                       Pujari Bhavani                     SCHEDULED TRIBES CO-OP FINANCE COR IDIB000S072583022882                          URGENT  Pujari Bhavani           583022882       
R416323700162      000000000600000000000000000000000000000033881454741PAO GOVT OF AP Hyderabad salary    STATE BANK OF INDIA SECRETARIAT    6323700162                      Sadda Somalingam                   SCHEDULED TRIBES CO-OP FINANCE COR IDIB000S0726323700162                         URGENT  Sadda Somalingam         6323700162      
R416293353923      000000000600000000000000000000000000000033881454741PAO GOVT OF AP Hyderabad salary    STATE BANK OF INDIA SECRETARIAT    6293353923                      Vanthala Mukundhu                  SCHEDULED TRIBES CO-OP FINANCE COR IDIB000S0726293353923                         URGENT  Vanthala Mukundhu        6293353923      
R416323345265      000000001000000000000000000000000000000033881454741PAO GOVT OF AP Hyderabad salary    STATE BANK OF INDIA SECRETARIAT    6323345265                      Kankipati Giribabu                 SCHEDULED TRIBES CO-OP FINANCE COR IDIB000S0726323345265                         URGENT  Kankipati Giribabu       6323345265      
R416292005068      000000000600000000000000000000000000000033881454741PAO GOVT OF AP Hyderabad salary    STATE BANK OF INDIA SECRETARIAT    6292005068                      Siribala Nagumani                  SCHEDULED TRIBES CO-OP FINANCE COR IDIB000S0726292005068                         URGENT  Siribala Nagumani        6292005068      
R416158560469      000000000480000000000000000000000000000033881454741PAO GOVT OF AP Hyderabad salary    STATE BANK OF INDIA SECRETARIAT    6158560469                      Korra Dhanneswarao                 SCHEDULED TRIBES CO-OP FINANCE COR IDIB000S0726158560469                         URGENT  Korra Dhanneswarao       6158560469      
R41868823653       000000001000000000000000000000000000000033881454741PAO GOVT OF AP Hyderabad salary    STATE BANK OF INDIA SECRETARIAT    868823653                       Mottadam Rajesh                    SCHEDULED TRIBES CO-OP FINANCE COR IDIB000S072868823653                          URGENT  Mottadam Rajesh          868823653       
R416323378085      000000000300000000000000000000000000000033881454741PAO GOVT OF AP Hyderabad salary    STATE BANK OF INDIA SECRETARIAT    6323378085                      Pangi Chiranjeevi                  SCHEDULED TRIBES CO-OP FINANCE COR IDIB000S0726323378085                         URGENT  Pangi Chiranjeevi        6323378085      
R416156382330      000000001000000000000000000000000000000033881454741PAO GOVT OF AP Hyderabad salary    STATE BANK OF INDIA SECRETARIAT    6156382330                      Vathala Sundar Rao                 SCHEDULED TRIBES CO-OP FINANCE COR IDIB000S0726156382330                         URGENT  Vathala Sundar Rao       6156382330      
R416317336950      000000000600000000000000000000000000000033881454741PAO GOVT OF AP Hyderabad salary    STATE BANK OF INDIA SECRETARIAT    6317336950                      Jorangi Gandhi                     SCHEDULED TRIBES CO-OP FINANCE COR IDIB000S0726317336950                         URGENT  Jorangi Gandhi           6317336950      
R416317780534      000000000600000000000000000000000000000033881454741PAO GOVT OF AP Hyderabad salary    STATE BANK OF INDIA SECRETARIAT    6317780534                      Jartha Baburao                     SCHEDULED TRIBES CO-OP FINANCE COR IDIB000S0726317780534                         URGENT  Jartha Baburao           6317780534      
R416326358464      000000001000000000000000000000000000000033881454741PAO GOVT OF AP Hyderabad salary    STATE BANK OF INDIA SECRETARIAT    6326358464                      Korra Subbarao                     SCHEDULED TRIBES CO-OP FINANCE COR IDIB000S0726326358464                         URGENT  Korra Subbarao           6326358464      
R416322482871      000000000600000000000000000000000000000033881454741PAO GOVT OF AP Hyderabad salary    STATE BANK OF INDIA SECRETARIAT    6322482871                      Vanthala Nandu                     SCHEDULED TRIBES CO-OP FINANCE COR IDIB000S0726322482871                         URGENT  Vanthala Nandu           6322482871      
R416323379985      000000000600000000000000000000000000000033881454741PAO GOVT OF AP Hyderabad salary    STATE BANK OF INDIA SECRETARIAT    6323379985                      Gaduthuri Krishnakumari            SCHEDULED TRIBES CO-OP FINANCE COR IDIB000S0726323379985                         URGENT  Gaduthuri Krishnakumari  6323379985      
R416322471846      000000000600000000000000000000000000000033881454741PAO GOVT OF AP Hyderabad salary    STATE BANK OF INDIA SECRETARIAT    6322471846                      Vathala Krishna                    SCHEDULED TRIBES CO-OP FINANCE COR IDIB000S0726322471846                         URGENT  Vathala Krishna          6322471846      
R416315776472      000000001000000000000000000000000000000033881454741PAO GOVT OF AP Hyderabad salary    STATE BANK OF INDIA SECRETARIAT    6315776472                      Salam Geethanjali                  SCHEDULED TRIBES CO-OP FINANCE COR IDIB000S0726315776472                         URGENT  Salam Geethanjali        6315776472      
R416322883770      000000000600000000000000000000000000000033881454741PAO GOVT OF AP Hyderabad salary    STATE BANK OF INDIA SECRETARIAT    6322883770                      Pangi Durgaprashad                 SCHEDULED TRIBES CO-OP FINANCE COR IDIB000S0726322883770                         URGENT  Pangi Durgaprashad       6322883770      
R416323380797      000000000600000000000000000000000000000033881454741PAO GOVT OF AP Hyderabad salary    STATE BANK OF INDIA SECRETARIAT    6323380797                      Kankipati Laxmi                    SCHEDULED TRIBES CO-OP FINANCE COR IDIB000S0726323380797                         URGENT  Kankipati Laxmi          6323380797      
R416322485522      000000001000000000000000000000000000000033881454741PAO GOVT OF AP Hyderabad salary    STATE BANK OF INDIA SECRETARIAT    6322485522                      Machala Vishnumurthy               SCHEDULED TRIBES CO-OP FINANCE COR IDIB000S0726322485522                         URGENT  Machala Vishnumurthy     6322485522      
R41991558228       000000000600000000000000000000000000000033881454741PAO GOVT OF AP Hyderabad salary    STATE BANK OF INDIA SECRETARIAT    991558228                       Korra Urdup                        SCHEDULED TRIBES CO-OP FINANCE COR IDIB000S072991558228                          URGENT  Korra Urdup              991558228       
R416051913440      000000000480000000000000000000000000000033881454741PAO GOVT OF AP Hyderabad salary    STATE BANK OF INDIA SECRETARIAT    6051913440                      Kankipati Balalingannapadal        SCHEDULED TRIBES CO-OP FINANCE COR IDIB000S0726051913440                         URGENT  Kankipati Balalingannapad6051913440      
R416153604517      000000000600000000000000000000000000000033881454741PAO GOVT OF AP Hyderabad salary    STATE BANK OF INDIA SECRETARIAT    6153604517                      Vanthala Narayanarao               SCHEDULED TRIBES CO-OP FINANCE COR IDIB000S0726153604517                         URGENT  Vanthala Narayanarao     6153604517      
R416324250632      000000001000000000000000000000000000000033881454741PAO GOVT OF AP Hyderabad salary    STATE BANK OF INDIA SECRETARIAT    6324250632                      Kankipati Mandakini                SCHEDULED TRIBES CO-OP FINANCE COR IDIB000S0726324250632                         URGENT  Kankipati Mandakini      6324250632      
R416323343029      000000000600000000000000000000000000000033881454741PAO GOVT OF AP Hyderabad salary    STATE BANK OF INDIA SECRETARIAT    6323343029                      Kokkula Prasannakumar              SCHEDULED TRIBES CO-OP FINANCE COR IDIB000S0726323343029                         URGENT  Kokkula Prasannakumar    6323343029      
R416322472782      000000000600000000000000000000000000000033881454741PAO GOVT OF AP Hyderabad salary    STATE BANK OF INDIA SECRETARIAT    6322472782                      Gunta Jogeswararao                 SCHEDULED TRIBES CO-OP FINANCE COR IDIB000S0726322472782                         URGENT  Gunta Jogeswararao       6322472782      
R416322474031      000000000600000000000000000000000000000033881454741PAO GOVT OF AP Hyderabad salary    STATE BANK OF INDIA SECRETARIAT    6322474031                      Vantala Rohini                     SCHEDULED TRIBES CO-OP FINANCE COR IDIB000S0726322474031                         URGENT  Vantala Rohini           6322474031      
R416322477305      000000000600000000000000000000000000000033881454741PAO GOVT OF AP Hyderabad salary    STATE BANK OF INDIA SECRETARIAT    6322477305                      Vanthala Sathibabu                 SCHEDULED TRIBES CO-OP FINANCE COR IDIB000S0726322477305                         URGENT  Vanthala Sathibabu       6322477305      
R416296615605      000000000600000000000000000000000000000033881454741PAO GOVT OF AP Hyderabad salary    STATE BANK OF INDIA SECRETARIAT    6296615605                      Kankipati Priyankamonisha          SCHEDULED TRIBES CO-OP FINANCE COR IDIB000S0726296615605                         URGENT  Kankipati Priyankamonisha6296615605      
R416286448500      000000000600000000000000000000000000000033881454741PAO GOVT OF AP Hyderabad salary    STATE BANK OF INDIA SECRETARIAT    6286448500                      Vanthala Kartik                    SCHEDULED TRIBES CO-OP FINANCE COR IDIB000S0726286448500                         URGENT  Vanthala Kartik          6286448500      
R416323346676      000000000300000000000000000000000000000033881454741PAO GOVT OF AP Hyderabad salary    STATE BANK OF INDIA SECRETARIAT    6323346676                      Siribala Ramachandrarao            SCHEDULED TRIBES CO-OP FINANCE COR IDIB000S0726323346676                         URGENT  Siribala Ramachandrarao  6323346676      
R416158579492      000000000600000000000000000000000000000033881454741PAO GOVT OF AP Hyderabad salary    STATE BANK OF INDIA SECRETARIAT    6158579492                      Vanthala Gennu                     SCHEDULED TRIBES CO-OP FINANCE COR IDIB000S0726158579492                         URGENT  Vanthala Gennu           6158579492      
R416323378824      000000000600000000000000000000000000000033881454741PAO GOVT OF AP Hyderabad salary    STATE BANK OF INDIA SECRETARIAT    6323378824                      Vijayalaxmi                        SCHEDULED TRIBES CO-OP FINANCE COR IDIB000S0726323378824                         URGENT  Vijayalaxmi              6323378824      
R416322480613      000000001000000000000000000000000000000033881454741PAO GOVT OF AP Hyderabad salary    STATE BANK OF INDIA SECRETARIAT    6322480613                      Vantala Ramachandrarao             SCHEDULED TRIBES CO-OP FINANCE COR IDIB000S0726322480613                         URGENT  Vantala Ramachandrarao   6322480613      
R416323343675      000000001000000000000000000000000000000033881454741PAO GOVT OF AP Hyderabad salary    STATE BANK OF INDIA SECRETARIAT    6323343675                      Gaduthuri Jayaram                  SCHEDULED TRIBES CO-OP FINANCE COR IDIB000S0726323343675                         URGENT  Gaduthuri Jayaram        6323343675      
R416332976617      000000000480000000000000000000000000000033881454741PAO GOVT OF AP Hyderabad salary    STATE BANK OF INDIA SECRETARIAT    6332976617                      Kambamapati Eswarappa              SCHEDULED TRIBES CO-OP FINANCE COR IDIB000T0126332976617                         URGENT  Kambamapati Eswarappa    6332976617      
R416332977281      000000000480000000000000000000000000000033881454741PAO GOVT OF AP Hyderabad salary    STATE BANK OF INDIA SECRETARIAT    6332977281                      Maadarapu Eswaraiah                SCHEDULED TRIBES CO-OP FINANCE COR IDIB000T0126332977281                         URGENT  Maadarapu Eswaraiah      6332977281      
R416331257708      000000000600000000000000000000000000000033881454741PAO GOVT OF AP Hyderabad salary    STATE BANK OF INDIA SECRETARIAT    6331257708                      T Chandrasekar                     SCHEDULED TRIBES CO-OP FINANCE COR IDIB000T1526331257708                         URGENT  T Chandrasekar           6331257708      
R4145601000015154  000000001000000000000000000000000000000033881454741PAO GOVT OF AP Hyderabad salary    STATE BANK OF INDIA SECRETARIAT    45601000015154                  Anil Kumar                         SCHEDULED TRIBES CO-OP FINANCE COR IOBA000045645601000015154                     URGENT  Anil Kumar               45601000015154  
R4145601000019552  000000000300000000000000000000000000000033881454741PAO GOVT OF AP Hyderabad salary    STATE BANK OF INDIA SECRETARIAT    45601000019552                  Pala Keerthi Rajesh                SCHEDULED TRIBES CO-OP FINANCE COR IOBA000045645601000019552                     URGENT  Pala Keerthi Rajesh      45601000019552  
R4145601000072717  000000000300000000000000000000000000000033881454741PAO GOVT OF AP Hyderabad salary    STATE BANK OF INDIA SECRETARIAT    45601000072717                  Goddeti Sulochanamma               SCHEDULED TRIBES CO-OP FINANCE COR IOBA000045645601000072717                     URGENT  Goddeti Sulochanamma     45601000072717  
R41123301000003743 000000001000000000000000000000000000000033881454741PAO GOVT OF AP Hyderabad salary    STATE BANK OF INDIA SECRETARIAT    123301000003743                 Kanem Peddachinnibabu              SCHEDULED TRIBES CO-OP FINANCE COR IOBA0001233123301000003743                    URGENT  Kanem Peddachinnibabu    123301000003743 
R4150004563648     000000000480000000000000000000000000000033881454741PAO GOVT OF AP Hyderabad salary    STATE BANK OF INDIA SECRETARIAT    50004563648                     Y   Reddemma                       SCHEDULED TRIBES CO-OP FINANCE COR IDIB0SGB00150004563648                        URGENT  Y   Reddemma             50004563648     
R4150004538623     000000000600000000000000000000000000000033881454741PAO GOVT OF AP Hyderabad salary    STATE BANK OF INDIA SECRETARIAT    50004538623                     M Gundalaiah                       SCHEDULED TRIBES CO-OP FINANCE COR IDIB0SGB00150004538623                        URGENT  M Gundalaiah             50004538623     
R4150004535735     000000000600000000000000000000000000000033881454741PAO GOVT OF AP Hyderabad salary    STATE BANK OF INDIA SECRETARIAT    50004535735                     M Ramakrishna                      SCHEDULED TRIBES CO-OP FINANCE COR IDIB0SGB00150004535735                        URGENT  M Ramakrishna            50004535735     
R4150004497562     000000000600000000000000000000000000000033881454741PAO GOVT OF AP Hyderabad salary    STATE BANK OF INDIA SECRETARIAT    50004497562                     D Anjalamma                        SCHEDULED TRIBES CO-OP FINANCE COR IDIB0SGB00150004497562                        URGENT  D Anjalamma              50004497562     
R4150004518233     000000000600000000000000000000000000000033881454741PAO GOVT OF AP Hyderabad salary    STATE BANK OF INDIA SECRETARIAT    50004518233                     M Sekhar Naik                      SCHEDULED TRIBES CO-OP FINANCE COR IDIB0SGB00150004518233                        URGENT  M Sekhar Naik            50004518233     
R415000203791      000000000600000000000000000000000000000033881454741PAO GOVT OF AP Hyderabad salary    STATE BANK OF INDIA SECRETARIAT    5000203791                      Koneti Aswani                      SCHEDULED TRIBES CO-OP FINANCE COR IDIB0SGB0015000203791                         URGENT  Koneti Aswani            5000203791      
