R41000000051410000000000000000000000000000034224175690SEEDS DEV CORP, AP STATE -V.C & M.DSTATE BANK OF INDIA                015000401110005                 KSR seeds                          SEEDS DEV CORP AP STATE -VC & MD   CORP0000150SEEDS DEV CORP AP STATE -VC & MD   URGENT  KSR seeds                                                 0181171         apseedsacts@gmail.com              
R41000000058170000000000000000000000000000034224175690SEEDS DEV CORP, AP STATE -V.C & M.DSTATE BANK OF INDIA                015000401110005                 KSR seeds                          SEEDS DEV CORP AP STATE -VC & MD   CORP0000150SEEDS DEV CORP AP STATE -VC & MD   URGENT  KSR seeds                                                 0181172         apseedsacts@gmail.com              
R41000000126605780000000000000000000000000034224175690SEEDS DEV CORP, AP STATE -V.C & M.DSTATE BANK OF INDIA                912020028081788                 Swabhiman commercial pvt ltd       SEEDS DEV CORP AP STATE -VC & MD   UTIB0000017SEEDS DEV CORP AP STATE -VC & MD   URGENT  Swabhiman commercial pvt                                  0181173         apseedsacts@gmail.com              
R41000000039560400000000000000000000000000034224175690SEEDS DEV CORP, AP STATE -V.C & M.DSTATE BANK OF INDIA                912020028081788                 Swabhiman commercial pvt ltd       SEEDS DEV CORP AP STATE -VC & MD   UTIB0000017SEEDS DEV CORP AP STATE -VC & MD   URGENT  Swabhiman commercial pvt                                  0181174         apseedsacts@gmail.com              
R41000000009610000000000000000000000000000034224175690SEEDS DEV CORP, AP STATE -V.C & M.DSTATE BANK OF INDIA                073911100000061                 Aditya seeds                       SEEDS DEV CORP AP STATE -VC & MD   ANDB0000739SEEDS DEV CORP AP STATE -VC & MD   URGENT  Aditya seeds                                              0181175         apseedsacts@gmail.com              
R41000000001118870000000000000000000000000034224175690SEEDS DEV CORP, AP STATE -V.C & M.DSTATE BANK OF INDIA                024210027000885                 Vinukonda Manikyala rao            SEEDS DEV CORP AP STATE -VC & MD   ANDB0000242SEEDS DEV CORP AP STATE -VC & MD   URGENT  Vinukonda Manikyala rao                                   0181177         apseedsacts@gmail.com              
