R41BANKERSCHEQUE   000000000153050000000000000000000099999999999999999PAO GOVT OF AP Hyderabad salary    STATE BANK OF INDIA SECRETARIAT    BANKERSCHEQUE                   S V Ramana                         COMM MUNICIPALITY VIZIANAGARAM                BANKERSCHEQUE                      URGENT  S V Ramana               BANKERSCHEQUE   
R41BANKERSCHEQUE   000000000036860000000000000000000099999999999999999PAO GOVT OF AP Hyderabad salary    STATE BANK OF INDIA SECRETARIAT    BANKERSCHEQUE                   Akshaya Meeseva Franchises & InternCOMM MUNICIPALITY VIZIANAGARAM                BANKERSCHEQUE                      URGENT  Akshaya Meeseva FranchiseBANKERSCHEQUE   
R41BANKERSCHEQUE   000000000072800000000000000000000099999999999999999PAO GOVT OF AP Hyderabad salary    STATE BANK OF INDIA SECRETARIAT    BANKERSCHEQUE                   Windows Net Cafe Vzm               COMM MUNICIPALITY VIZIANAGARAM                BANKERSCHEQUE                      URGENT  Windows Net Cafe Vzm     BANKERSCHEQUE   
R41BANKERSCHEQUE   000000000019900000000000000000000099999999999999999PAO GOVT OF AP Hyderabad salary    STATE BANK OF INDIA SECRETARIAT    BANKERSCHEQUE                   K Lavanya                          COMM MUNICIPALITY VIZIANAGARAM                BANKERSCHEQUE                      URGENT  K Lavanya                BANKERSCHEQUE   
R41BANKERSCHEQUE   000000000149630000000000000000000099999999999999999PAO GOVT OF AP Hyderabad salary    STATE BANK OF INDIA SECRETARIAT    BANKERSCHEQUE                   T V P Appa Rao                     COMM MUNICIPALITY VIZIANAGARAM                BANKERSCHEQUE                      URGENT  T V P Appa Rao           BANKERSCHEQUE   
R41BANKERSCHEQUE   000000000045000000000000000000000099999999999999999PAO GOVT OF AP Hyderabad salary    STATE BANK OF INDIA SECRETARIAT    BANKERSCHEQUE                   Sai Ram Cartridge House VZM        COMM MUNICIPALITY VIZIANAGARAM                BANKERSCHEQUE                      URGENT  Sai Ram Cartridge House VBANKERSCHEQUE   
R41BANKERSCHEQUE   000000000003500000000000000000000099999999999999999PAO GOVT OF AP Hyderabad salary    STATE BANK OF INDIA SECRETARIAT    BANKERSCHEQUE                   N Venkata Rao                      COMM MUNICIPALITY VIZIANAGARAM                BANKERSCHEQUE                      URGENT  N Venkata Rao            BANKERSCHEQUE   
R41BANKERSCHEQUE   000000000246540000000000000000000099999999999999999PAO GOVT OF AP Hyderabad salary    STATE BANK OF INDIA SECRETARIAT    BANKERSCHEQUE                   M/s Questcom Consultancy Services PCOMM MUNICIPALITY VIZIANAGARAM                BANKERSCHEQUE                      URGENT  M/s Questcom Consultancy BANKERSCHEQUE   
R41BANKERSCHEQUE   000000001547940000000000000000000099999999999999999PAO GOVT OF AP Hyderabad salary    STATE BANK OF INDIA SECRETARIAT    BANKERSCHEQUE                   The BM SBI Contonment VZM          COMM MUNICIPALITY VIZIANAGARAM                BANKERSCHEQUE                      URGENT  The BM SBI Contonment VZMBANKERSCHEQUE   
R41BANKERSCHEQUE   000000000935000000000000000000000099999999999999999PAO GOVT OF AP Hyderabad salary    STATE BANK OF INDIA SECRETARIAT    BANKERSCHEQUE                   B D Maheswara Reddy                COMM MUNICIPALITY VIZIANAGARAM                BANKERSCHEQUE                      URGENT  B D Maheswara Reddy      BANKERSCHEQUE   
R41BANKERSCHEQUE   000000000264000000000000000000000099999999999999999PAO GOVT OF AP Hyderabad salary    STATE BANK OF INDIA SECRETARIAT    BANKERSCHEQUE                   P Srinivasa Rao                    COMM MUNICIPALITY VIZIANAGARAM                BANKERSCHEQUE                      URGENT  P Srinivasa Rao          BANKERSCHEQUE   
R41BANKERSCHEQUE   000000000330000000000000000000000099999999999999999PAO GOVT OF AP Hyderabad salary    STATE BANK OF INDIA SECRETARIAT    BANKERSCHEQUE                   S Rama Rao                         COMM MUNICIPALITY VIZIANAGARAM                BANKERSCHEQUE                      URGENT  S Rama Rao               BANKERSCHEQUE   
R41BANKERSCHEQUE   000000000165000000000000000000000099999999999999999PAO GOVT OF AP Hyderabad salary    STATE BANK OF INDIA SECRETARIAT    BANKERSCHEQUE                   K R Sekhar                         COMM MUNICIPALITY VIZIANAGARAM                BANKERSCHEQUE                      URGENT  K R Sekhar               BANKERSCHEQUE   
R41BANKERSCHEQUE   000000000264000000000000000000000099999999999999999PAO GOVT OF AP Hyderabad salary    STATE BANK OF INDIA SECRETARIAT    BANKERSCHEQUE                   K Sanyasi Naidu                    COMM MUNICIPALITY VIZIANAGARAM                BANKERSCHEQUE                      URGENT  K Sanyasi Naidu          BANKERSCHEQUE   
R41BANKERSCHEQUE   000000000294250000000000000000000099999999999999999PAO GOVT OF AP Hyderabad salary    STATE BANK OF INDIA SECRETARIAT    BANKERSCHEQUE                   P Uma Maheswari                    COMM MUNICIPALITY VIZIANAGARAM                BANKERSCHEQUE                      URGENT  P Uma Maheswari          BANKERSCHEQUE   
R41BANKERSCHEQUE   000000000057760000000000000000000099999999999999999PAO GOVT OF AP Hyderabad salary    STATE BANK OF INDIA SECRETARIAT    BANKERSCHEQUE                   M Rama Naidu                       COMM MUNICIPALITY VIZIANAGARAM                BANKERSCHEQUE                      URGENT  M Rama Naidu             BANKERSCHEQUE   
R41BANKERSCHEQUE   000000000011000000000000000000000099999999999999999PAO GOVT OF AP Hyderabad salary    STATE BANK OF INDIA SECRETARIAT    BANKERSCHEQUE                   B Krishna                          COMM MUNICIPALITY VIZIANAGARAM                BANKERSCHEQUE                      URGENT  B Krishna                BANKERSCHEQUE   
