R41000000001283170000000000000000000099999999999999999PAO GOVT OF AP Hyderabad salary    STATE BANK OF INDIA SECRETARIAT    033100201000794                 K Ramalinga Raju                   DY CEO ZP VIZIANAGARAM             CORP0000331033100201000794                    URGENT  K Ramalinga Raju                                          033100201000794 EMLdpao-sect@ap.nic.in             
R41000000006135310000000000000000000099999999999999999PAO GOVT OF AP Hyderabad salary    STATE BANK OF INDIA SECRETARIAT    033100201000774                 Ch V V Subbarao                    DY CEO ZP VIZIANAGARAM             CORP0000331033100201000774                    URGENT  Ch V V Subbarao                                           033100201000774 EMLdpao-sect@ap.nic.in             
R41000000006477440000000000000000000099999999999999999PAO GOVT OF AP Hyderabad salary    STATE BANK OF INDIA SECRETARIAT    405901010005593                 K Appala Naidu                     DY CEO ZP VIZIANAGARAM             VIJB0004059405901010005593                    URGENT  K Appala Naidu                                            405901010005593 EMLdpao-sect@ap.nic.in             
R41000000005000000000000000000000000099999999999999999PAO GOVT OF AP Hyderabad salary    STATE BANK OF INDIA SECRETARIAT    07442320000348                  AAO ERO (Town) APEPDCL VizianagaramDY CEO ZP VIZIANAGARAM             HDFC000074407442320000348                     URGENT  AAO ERO (Town) APEPDCL Vi                                 07442320000348  EMLdpao-sect@ap.nic.in             
R41000000011204950000000000000000000099999999999999999PAO GOVT OF AP Hyderabad salary    STATE BANK OF INDIA SECRETARIAT    07442320000331                  AAO ERO (Rural) APEPDCL VizianagaramDY CEO ZP VIZIANAGARAM             HDFC000074407442320000331                     URGENT  AAO ERO (Rural) APEPDCL V                                 07442320000331  EMLdpao-sect@ap.nic.in             
