R41000000000470000000000000000000000000000033881454741PAO GOVT OF AP Hyderabad salary    STATE BANK OF INDIA SECRETARIAT    59810011001651                  VVenkatesh                         ZILLA PARISHAD DY CEO CHITTOOR     ANDB0000598ZILLA PARISHAD DY CEO CHITTOOR     URGENT  VVenkatesh                                                02784264        EMLdpao-sect@ap.nic.in             
R41000000001000000000000000000000000000000033881454741PAO GOVT OF AP Hyderabad salary    STATE BANK OF INDIA SECRETARIAT    510925459                       NVGajendra Prasad                  ZILLA PARISHAD DY CEO CHITTOOR     IDIB000K058ZILLA PARISHAD DY CEO CHITTOOR     URGENT  NVGajendra Prasad                                         02784265        EMLdpao-sect@ap.nic.in             
R41000000001900000000000000000000000000000033881454741PAO GOVT OF AP Hyderabad salary    STATE BANK OF INDIA SECRETARIAT    510930989                       PLGaneshan                         ZILLA PARISHAD DY CEO CHITTOOR     IDIB000K058ZILLA PARISHAD DY CEO CHITTOOR     URGENT  PLGaneshan                                                02784266        EMLdpao-sect@ap.nic.in             
R41000000000400000000000000000000000000000033881454741PAO GOVT OF AP Hyderabad salary    STATE BANK OF INDIA SECRETARIAT    31702180008768                  MVRamanaprakash                    ZILLA PARISHAD DY CEO CHITTOOR     SYNB0003170ZILLA PARISHAD DY CEO CHITTOOR     URGENT  MVRamanaprakash                                           02784267        EMLdpao-sect@ap.nic.in             
R41000000000810000000000000000000000000000033881454741PAO GOVT OF AP Hyderabad salary    STATE BANK OF INDIA SECRETARIAT    1500155000008831                PMohammed Khan                     ZILLA PARISHAD DY CEO CHITTOOR     KVBL0001500ZILLA PARISHAD DY CEO CHITTOOR     URGENT  PMohammed Khan                                            02784268        EMLdpao-sect@ap.nic.in             
