R41000000001000000000000000000000000000000033881454741PAO GOVT OF AP Hyderabad salary    STATE BANK OF INDIA SECRETARIAT    50260710169                     Shaike Allauddin                   MINORITIES FINANCE COR LTD AP STAT ALLA0213186MINORITIES FINANCE COR LTD AP STAT URGENT  Shaike Allauddin                                          0177291         EMLdpao-sect@ap.nic.in             
R41000000001000000000000000000000000000000033881454741PAO GOVT OF AP Hyderabad salary    STATE BANK OF INDIA SECRETARIAT    8141010059429                   Shaik Bajula                       MINORITIES FINANCE COR LTD AP STAT ANDB0000814MINORITIES FINANCE COR LTD AP STAT URGENT  Shaik Bajula                                              0177292         EMLdpao-sect@ap.nic.in             
R41000000001000000000000000000000000000000033881454741PAO GOVT OF AP Hyderabad salary    STATE BANK OF INDIA SECRETARIAT    8141010059410                   Shaik Bajithbi                     MINORITIES FINANCE COR LTD AP STAT ANDB0000814MINORITIES FINANCE COR LTD AP STAT URGENT  Shaik Bajithbi                                            0177293         EMLdpao-sect@ap.nic.in             
R41000000000500000000000000000000000000000033881454741PAO GOVT OF AP Hyderabad salary    STATE BANK OF INDIA SECRETARIAT    38110100051931                  Shaik Shakila                      MINORITIES FINANCE COR LTD AP STAT ANDB0000381MINORITIES FINANCE COR LTD AP STAT URGENT  Shaik Shakila                                             0177294         EMLdpao-sect@ap.nic.in             
R41000000001000000000000000000000000000000033881454741PAO GOVT OF AP Hyderabad salary    STATE BANK OF INDIA SECRETARIAT    38110100143995                  Shaik Nageer                       MINORITIES FINANCE COR LTD AP STAT ANDB0000381MINORITIES FINANCE COR LTD AP STAT URGENT  Shaik Nageer                                              0177295         EMLdpao-sect@ap.nic.in             
R41000000000500000000000000000000000000000033881454741PAO GOVT OF AP Hyderabad salary    STATE BANK OF INDIA SECRETARIAT    38110100180774                  Shaik Osman                        MINORITIES FINANCE COR LTD AP STAT ANDB0000381MINORITIES FINANCE COR LTD AP STAT URGENT  Shaik Osman                                               0177296         EMLdpao-sect@ap.nic.in             
R41000000000500000000000000000000000000000033881454741PAO GOVT OF AP Hyderabad salary    STATE BANK OF INDIA SECRETARIAT    38110100183531                  Shaik Tiffeytulla                  MINORITIES FINANCE COR LTD AP STAT ANDB0000381MINORITIES FINANCE COR LTD AP STAT URGENT  Shaik Tiffeytulla                                         0177297         EMLdpao-sect@ap.nic.in             
R41000000001000000000000000000000000000000033881454741PAO GOVT OF AP Hyderabad salary    STATE BANK OF INDIA SECRETARIAT    38110100167968                  Syed Janibasha                     MINORITIES FINANCE COR LTD AP STAT ANDB0000381MINORITIES FINANCE COR LTD AP STAT URGENT  Syed Janibasha                                            0177298         EMLdpao-sect@ap.nic.in             
R41000000000400000000000000000000000000000033881454741PAO GOVT OF AP Hyderabad salary    STATE BANK OF INDIA SECRETARIAT    44210100079681                  Hidaya Thunisa                     MINORITIES FINANCE COR LTD AP STAT ANDB0000442MINORITIES FINANCE COR LTD AP STAT URGENT  Hidaya Thunisa                                            0177299         EMLdpao-sect@ap.nic.in             
R41000000001000000000000000000000000000000033881454741PAO GOVT OF AP Hyderabad salary    STATE BANK OF INDIA SECRETARIAT    44210100079715                  Mahammed Farookali                 MINORITIES FINANCE COR LTD AP STAT ANDB0000442MINORITIES FINANCE COR LTD AP STAT URGENT  Mahammed Farookali                                        01772910        EMLdpao-sect@ap.nic.in             
R41000000000500000000000000000000000000000033881454741PAO GOVT OF AP Hyderabad salary    STATE BANK OF INDIA SECRETARIAT    181910100066605                 Shaik Ahammad Basha                MINORITIES FINANCE COR LTD AP STAT ANDB0001819MINORITIES FINANCE COR LTD AP STAT URGENT  Shaik Ahammad Basha                                       01772911        EMLdpao-sect@ap.nic.in             
R41000000001000000000000000000000000000000033881454741PAO GOVT OF AP Hyderabad salary    STATE BANK OF INDIA SECRETARIAT    862310110009898                 Shaik Shaheena                     MINORITIES FINANCE COR LTD AP STAT BKID0008623MINORITIES FINANCE COR LTD AP STAT URGENT  Shaik Shaheena                                            01772912        EMLdpao-sect@ap.nic.in             
R41000000000500000000000000000000000000000033881454741PAO GOVT OF AP Hyderabad salary    STATE BANK OF INDIA SECRETARIAT    862310110009705                 Shaik Basheed                      MINORITIES FINANCE COR LTD AP STAT BKID0008623MINORITIES FINANCE COR LTD AP STAT URGENT  Shaik Basheed                                             01772913        EMLdpao-sect@ap.nic.in             
R41000000001000000000000000000000000000000033881454741PAO GOVT OF AP Hyderabad salary    STATE BANK OF INDIA SECRETARIAT    862310110009704                 Mohammad Mobeen                    MINORITIES FINANCE COR LTD AP STAT BKID0008623MINORITIES FINANCE COR LTD AP STAT URGENT  Mohammad Mobeen                                           01772914        EMLdpao-sect@ap.nic.in             
R41000000001000000000000000000000000000000033881454741PAO GOVT OF AP Hyderabad salary    STATE BANK OF INDIA SECRETARIAT    864677810000176                 Shaik Mahaboob Kouser              MINORITIES FINANCE COR LTD AP STAT BKID0008646MINORITIES FINANCE COR LTD AP STAT URGENT  Shaik Mahaboob Kouser                                     01772915        EMLdpao-sect@ap.nic.in             
R41000000001000000000000000000000000000000033881454741PAO GOVT OF AP Hyderabad salary    STATE BANK OF INDIA SECRETARIAT    561610510001878                 Pattan Bhadruddin                  MINORITIES FINANCE COR LTD AP STAT BKID0005616MINORITIES FINANCE COR LTD AP STAT URGENT  Pattan Bhadruddin                                         01772916        EMLdpao-sect@ap.nic.in             
R41000000001000000000000000000000000000000033881454741PAO GOVT OF AP Hyderabad salary    STATE BANK OF INDIA SECRETARIAT    561610510001870                 Shaik Anwar Basha                  MINORITIES FINANCE COR LTD AP STAT BKID0005616MINORITIES FINANCE COR LTD AP STAT URGENT  Shaik Anwar Basha                                         01772917        EMLdpao-sect@ap.nic.in             
R41000000001000000000000000000000000000000033881454741PAO GOVT OF AP Hyderabad salary    STATE BANK OF INDIA SECRETARIAT    60212474848                     Farhana                            MINORITIES FINANCE COR LTD AP STAT MAHB0000411MINORITIES FINANCE COR LTD AP STAT URGENT  Farhana                                                   01772918        EMLdpao-sect@ap.nic.in             
R41000000001000000000000000000000000000000033881454741PAO GOVT OF AP Hyderabad salary    STATE BANK OF INDIA SECRETARIAT    60212474688                     Shaik Kosar                        MINORITIES FINANCE COR LTD AP STAT MAHB0000411MINORITIES FINANCE COR LTD AP STAT URGENT  Shaik Kosar                                               01772919        EMLdpao-sect@ap.nic.in             
R41000000001000000000000000000000000000000033881454741PAO GOVT OF AP Hyderabad salary    STATE BANK OF INDIA SECRETARIAT    774101031837                    Syed Arfani                        MINORITIES FINANCE COR LTD AP STAT CNRB0000774MINORITIES FINANCE COR LTD AP STAT URGENT  Syed Arfani                                               01772920        EMLdpao-sect@ap.nic.in             
R41000000001000000000000000000000000000000033881454741PAO GOVT OF AP Hyderabad salary    STATE BANK OF INDIA SECRETARIAT    774101032035                    Shaik Ilias                        MINORITIES FINANCE COR LTD AP STAT CNRB0000774MINORITIES FINANCE COR LTD AP STAT URGENT  Shaik Ilias                                               01772921        EMLdpao-sect@ap.nic.in             
R41000000001000000000000000000000000000000033881454741PAO GOVT OF AP Hyderabad salary    STATE BANK OF INDIA SECRETARIAT    774101031826                    Shaik Karima                       MINORITIES FINANCE COR LTD AP STAT CNRB0000774MINORITIES FINANCE COR LTD AP STAT URGENT  Shaik Karima                                              01772922        EMLdpao-sect@ap.nic.in             
R41000000001000000000000000000000000000000033881454741PAO GOVT OF AP Hyderabad salary    STATE BANK OF INDIA SECRETARIAT    774101030884                    Karimun                            MINORITIES FINANCE COR LTD AP STAT CNRB0000774MINORITIES FINANCE COR LTD AP STAT URGENT  Karimun                                                   01772923        EMLdpao-sect@ap.nic.in             
R41000000001000000000000000000000000000000033881454741PAO GOVT OF AP Hyderabad salary    STATE BANK OF INDIA SECRETARIAT    774101032036                    Shaik Kalasha                      MINORITIES FINANCE COR LTD AP STAT CNRB0000774MINORITIES FINANCE COR LTD AP STAT URGENT  Shaik Kalasha                                             01772924        EMLdpao-sect@ap.nic.in             
R41000000001000000000000000000000000000000033881454741PAO GOVT OF AP Hyderabad salary    STATE BANK OF INDIA SECRETARIAT    774101031955                    Petan Hamadllikhan                 MINORITIES FINANCE COR LTD AP STAT CNRB0000774MINORITIES FINANCE COR LTD AP STAT URGENT  Petan Hamadllikhan                                        01772925        EMLdpao-sect@ap.nic.in             
R41000000001000000000000000000000000000000033881454741PAO GOVT OF AP Hyderabad salary    STATE BANK OF INDIA SECRETARIAT    774101031956                    Shaik Baji                         MINORITIES FINANCE COR LTD AP STAT CNRB0000774MINORITIES FINANCE COR LTD AP STAT URGENT  Shaik Baji                                                01772926        EMLdpao-sect@ap.nic.in             
R41000000001000000000000000000000000000000033881454741PAO GOVT OF AP Hyderabad salary    STATE BANK OF INDIA SECRETARIAT    774101031845                    Patan Bade Babu                    MINORITIES FINANCE COR LTD AP STAT CNRB0000774MINORITIES FINANCE COR LTD AP STAT URGENT  Patan Bade Babu                                           01772927        EMLdpao-sect@ap.nic.in             
R41000000001000000000000000000000000000000033881454741PAO GOVT OF AP Hyderabad salary    STATE BANK OF INDIA SECRETARIAT    144600101010520                  Doulath Khan                      MINORITIES FINANCE COR LTD AP STAT CORP0001446MINORITIES FINANCE COR LTD AP STAT URGENT   Doulath Khan                                             01772928        EMLdpao-sect@ap.nic.in             
R41000000000500000000000000000000000000000033881454741PAO GOVT OF AP Hyderabad salary    STATE BANK OF INDIA SECRETARIAT    70622010080624                  Shaik Janibasha                    MINORITIES FINANCE COR LTD AP STAT APBL0007006MINORITIES FINANCE COR LTD AP STAT URGENT  Shaik Janibasha                                           01772929        EMLdpao-sect@ap.nic.in             
R41000000000500000000000000000000000000000033881454741PAO GOVT OF AP Hyderabad salary    STATE BANK OF INDIA SECRETARIAT    70622010080622                  Shaik Ravuf                        MINORITIES FINANCE COR LTD AP STAT APBL0007006MINORITIES FINANCE COR LTD AP STAT URGENT  Shaik Ravuf                                               01772930        EMLdpao-sect@ap.nic.in             
R41000000000500000000000000000000000000000033881454741PAO GOVT OF AP Hyderabad salary    STATE BANK OF INDIA SECRETARIAT    70622010080616                  Shaik Iliyaj                       MINORITIES FINANCE COR LTD AP STAT APBL0007006MINORITIES FINANCE COR LTD AP STAT URGENT  Shaik Iliyaj                                              01772931        EMLdpao-sect@ap.nic.in             
R41000000000500000000000000000000000000000033881454741PAO GOVT OF AP Hyderabad salary    STATE BANK OF INDIA SECRETARIAT    70622010080626                  Shaik Chandh Basha                 MINORITIES FINANCE COR LTD AP STAT APBL0007006MINORITIES FINANCE COR LTD AP STAT URGENT  Shaik Chandh Basha                                        01772932        EMLdpao-sect@ap.nic.in             
R41000000000500000000000000000000000000000033881454741PAO GOVT OF AP Hyderabad salary    STATE BANK OF INDIA SECRETARIAT    70622010080623                  Shaik   Kareemulla                 MINORITIES FINANCE COR LTD AP STAT APBL0007006MINORITIES FINANCE COR LTD AP STAT URGENT  Shaik   Kareemulla                                        01772933        EMLdpao-sect@ap.nic.in             
R41000000000500000000000000000000000000000033881454741PAO GOVT OF AP Hyderabad salary    STATE BANK OF INDIA SECRETARIAT    70622010080621                  Shaik Mowla Saheb                  MINORITIES FINANCE COR LTD AP STAT APBL0007006MINORITIES FINANCE COR LTD AP STAT URGENT  Shaik Mowla Saheb                                         01772934        EMLdpao-sect@ap.nic.in             
R41000000000500000000000000000000000000000033881454741PAO GOVT OF AP Hyderabad salary    STATE BANK OF INDIA SECRETARIAT    70622010080612                  Shaik Mahammad Rahid               MINORITIES FINANCE COR LTD AP STAT APBL0007006MINORITIES FINANCE COR LTD AP STAT URGENT  Shaik Mahammad Rahid                                      01772935        EMLdpao-sect@ap.nic.in             
R41000000000500000000000000000000000000000033881454741PAO GOVT OF AP Hyderabad salary    STATE BANK OF INDIA SECRETARIAT    70622010080614                  Shaik Mahabu Subani                MINORITIES FINANCE COR LTD AP STAT APBL0007006MINORITIES FINANCE COR LTD AP STAT URGENT  Shaik Mahabu Subani                                       01772936        EMLdpao-sect@ap.nic.in             
R41000000000500000000000000000000000000000033881454741PAO GOVT OF AP Hyderabad salary    STATE BANK OF INDIA SECRETARIAT    70622010080610                  Shaik Rasul                        MINORITIES FINANCE COR LTD AP STAT APBL0007006MINORITIES FINANCE COR LTD AP STAT URGENT  Shaik Rasul                                               01772937        EMLdpao-sect@ap.nic.in             
R41000000001000000000000000000000000000000033881454741PAO GOVT OF AP Hyderabad salary    STATE BANK OF INDIA SECRETARIAT    849118893                       Fajil                              MINORITIES FINANCE COR LTD AP STAT IDIB000N050MINORITIES FINANCE COR LTD AP STAT URGENT  Fajil                                                     01772938        EMLdpao-sect@ap.nic.in             
R41000000000500000000000000000000000000000033881454741PAO GOVT OF AP Hyderabad salary    STATE BANK OF INDIA SECRETARIAT    6334895942                      M Altaph                           MINORITIES FINANCE COR LTD AP STAT IDIB000N050MINORITIES FINANCE COR LTD AP STAT URGENT  M Altaph                                                  01772939        EMLdpao-sect@ap.nic.in             
R41000000000750000000000000000000000000000033881454741PAO GOVT OF AP Hyderabad salary    STATE BANK OF INDIA SECRETARIAT    338001000001468                 Nayak Javeed Hussain               MINORITIES FINANCE COR LTD AP STAT IOBA0003380MINORITIES FINANCE COR LTD AP STAT URGENT  Nayak Javeed Hussain                                      01772940        EMLdpao-sect@ap.nic.in             
R41000000001000000000000000000000000000000033881454741PAO GOVT OF AP Hyderabad salary    STATE BANK OF INDIA SECRETARIAT    5702121003575                   Shaik Hussain                      MINORITIES FINANCE COR LTD AP STAT ORBC0100570MINORITIES FINANCE COR LTD AP STAT URGENT  Shaik Hussain                                             01772941        EMLdpao-sect@ap.nic.in             
R41000000000300000000000000000000000000000033881454741PAO GOVT OF AP Hyderabad salary    STATE BANK OF INDIA SECRETARIAT    50004771568                     Madanapalli Irshad Alikhan         MINORITIES FINANCE COR LTD AP STAT IDIB0SGB001MINORITIES FINANCE COR LTD AP STAT URGENT  Madanapalli Irshad Alikha                                 01772942        EMLdpao-sect@ap.nic.in             
R41000000000300000000000000000000000000000033881454741PAO GOVT OF AP Hyderabad salary    STATE BANK OF INDIA SECRETARIAT    50004770531                     Sayed Anwar                        MINORITIES FINANCE COR LTD AP STAT IDIB0SGB001MINORITIES FINANCE COR LTD AP STAT URGENT  Sayed Anwar                                               01772943        EMLdpao-sect@ap.nic.in             
R41000000000300000000000000000000000000000033881454741PAO GOVT OF AP Hyderabad salary    STATE BANK OF INDIA SECRETARIAT    50004770575                     Kadiri Nayaz Ali Khan              MINORITIES FINANCE COR LTD AP STAT IDIB0SGB001MINORITIES FINANCE COR LTD AP STAT URGENT  Kadiri Nayaz Ali Khan                                     01772944        EMLdpao-sect@ap.nic.in             
R41000000001000000000000000000000000000000033881454741PAO GOVT OF AP Hyderabad salary    STATE BANK OF INDIA SECRETARIAT    62418383078                     Chand Basha                        MINORITIES FINANCE COR LTD AP STAT SBHY0021755MINORITIES FINANCE COR LTD AP STAT URGENT  Chand Basha                                               01772945        EMLdpao-sect@ap.nic.in             
R41000000001000000000000000000000000000000033881454741PAO GOVT OF AP Hyderabad salary    STATE BANK OF INDIA SECRETARIAT    62418382745                     Yakub Ali                          MINORITIES FINANCE COR LTD AP STAT SBHY0021755MINORITIES FINANCE COR LTD AP STAT URGENT  Yakub Ali                                                 01772946        EMLdpao-sect@ap.nic.in             
R41000000001000000000000000000000000000000033881454741PAO GOVT OF AP Hyderabad salary    STATE BANK OF INDIA SECRETARIAT    62418383012                     PNaziya                            MINORITIES FINANCE COR LTD AP STAT SBHY0021755MINORITIES FINANCE COR LTD AP STAT URGENT  PNaziya                                                   01772947        EMLdpao-sect@ap.nic.in             
R41000000001000000000000000000000000000000033881454741PAO GOVT OF AP Hyderabad salary    STATE BANK OF INDIA SECRETARIAT    62418382508                     S Sardar Basha                     MINORITIES FINANCE COR LTD AP STAT SBHY0021755MINORITIES FINANCE COR LTD AP STAT URGENT  S Sardar Basha                                            01772948        EMLdpao-sect@ap.nic.in             
R41000000000500000000000000000000000000000033881454741PAO GOVT OF AP Hyderabad salary    STATE BANK OF INDIA SECRETARIAT    35300201023962                  Shaik Mastan                       MINORITIES FINANCE COR LTD AP STAT UBIN0535303MINORITIES FINANCE COR LTD AP STAT URGENT  Shaik Mastan                                              01772953        EMLdpao-sect@ap.nic.in             
R41000000000500000000000000000000000000000033881454741PAO GOVT OF AP Hyderabad salary    STATE BANK OF INDIA SECRETARIAT    35300201006896                  Shaik Ahamad                       MINORITIES FINANCE COR LTD AP STAT UBIN0535303MINORITIES FINANCE COR LTD AP STAT URGENT  Shaik Ahamad                                              01772954        EMLdpao-sect@ap.nic.in             
R41000000000500000000000000000000000000000033881454741PAO GOVT OF AP Hyderabad salary    STATE BANK OF INDIA SECRETARIAT    35300201016875                  Shaik Subhani                      MINORITIES FINANCE COR LTD AP STAT UBIN0535303MINORITIES FINANCE COR LTD AP STAT URGENT  Shaik Subhani                                             01772955        EMLdpao-sect@ap.nic.in             
R41000000001000000000000000000000000000000033881454741PAO GOVT OF AP Hyderabad salary    STATE BANK OF INDIA SECRETARIAT    451602010054295                 Shaik Gowsia Begam                 MINORITIES FINANCE COR LTD AP STAT UBIN0545163MINORITIES FINANCE COR LTD AP STAT URGENT  Shaik Gowsia Begam                                        01772956        EMLdpao-sect@ap.nic.in             
R41000000000500000000000000000000000000000033881454741PAO GOVT OF AP Hyderabad salary    STATE BANK OF INDIA SECRETARIAT    343402130000726                 Shekh S K Shet                     MINORITIES FINANCE COR LTD AP STAT UBIN0534340MINORITIES FINANCE COR LTD AP STAT URGENT  Shekh S K Shet                                            01772957        EMLdpao-sect@ap.nic.in             
R41000000001000000000000000000000000000000033881454741PAO GOVT OF AP Hyderabad salary    STATE BANK OF INDIA SECRETARIAT    411801011002534                 S Usman Saheb                      MINORITIES FINANCE COR LTD AP STAT VIJB0004118MINORITIES FINANCE COR LTD AP STAT URGENT  S Usman Saheb                                             01772958        EMLdpao-sect@ap.nic.in             
R41000000000300000000000000000000000000000033881454741PAO GOVT OF AP Hyderabad salary    STATE BANK OF INDIA SECRETARIAT    5410100049635                   Shaik Shahina                      MINORITIES FINANCE COR LTD AP STAT ANDB0000054MINORITIES FINANCE COR LTD AP STAT URGENT  Shaik Shahina                                             01772959        EMLdpao-sect@ap.nic.in             
R41000000000250000000000000000000000000000033881454741PAO GOVT OF AP Hyderabad salary    STATE BANK OF INDIA SECRETARIAT    27372457                        Gangi Reddi Palli Rafiulla         MINORITIES FINANCE COR LTD AP STAT IDIB0SGB001MINORITIES FINANCE COR LTD AP STAT URGENT  Gangi Reddi Palli Rafiull                                 01772960        EMLdpao-sect@ap.nic.in             
