R41405901010005593 000000003693030000000000000000000000000033881454741PD  GOVT OF AP Hyderabad salary    STATE BANK OF INDIA SECRETARIAT    405901010005593                 K Appala Naidu                     DY CEO ZP VIZIANAGARAM             VIJB0004059405901010005593                    URGENT  K Appala Naidu           405901010005593 
R41033100201000774 000000002543510000000000000000000000000033881454741PD  GOVT OF AP Hyderabad salary    STATE BANK OF INDIA SECRETARIAT    033100201000774                 Ch V V Subbarao                    DY CEO ZP VIZIANAGARAM             CORP0000331033100201000774                    URGENT  Ch V V Subbarao          033100201000774 
R41033100201000794 000000016211400000000000000000000000000033881454741PD  GOVT OF AP Hyderabad salary    STATE BANK OF INDIA SECRETARIAT    033100201000794                 K Ramalinga Raju                   DY CEO ZP VIZIANAGARAM             CORP0000331033100201000794                    URGENT  K Ramalinga Raju         033100201000794 
R41914020003459236 000000025433540000000000000000000000000033881454741PD  GOVT OF AP Hyderabad salary    STATE BANK OF INDIA SECRETARIAT    914020003459236                 AAO ERO Bobbili                    DY CEO ZP VIZIANAGARAM             UTIB0001327914020003459236                    URGENT  AAO ERO Bobbili          914020003459236 
R4107442320000331  000000003528050000000000000000000000000033881454741PD  GOVT OF AP Hyderabad salary    STATE BANK OF INDIA SECRETARIAT    07442320000331                  AAO ERO (Rural)       Vizianagaram DY CEO ZP VIZIANAGARAM             HDFC000074407442320000331                     URGENT  AAO ERO (Rural)       Viz07442320000331  
R41036102000050682 000000016231980000000000000000000000000033881454741PD  GOVT OF AP Hyderabad salary    STATE BANK OF INDIA SECRETARIAT    036102000050682                 Senior Accounts Officer (Operations) APEPDCL SrikakulamDY CEO ZP VIZIANAGARAM             IOBA0000361036102000050682                    URGENT  Senior Accounts Officer (036102000050682 
R41133410100054752 000000000237600000000000000000000000000033881454741PD  GOVT OF AP Hyderabad salary    STATE BANK OF INDIA SECRETARIAT    133410100054752                 K Satish Kumar                     DY CEO ZP VIZIANAGARAM             ANDB0001334133410100054752                    URGENT  K Satish Kumar           133410100054752 
