R41000000006402110000000000000000000099999999999999999PAO GOVT OF AP Hyderabad salary    STATE BANK OF INDIA SECRETARIAT    07442320000331                  AAO ERO (Rural)APEPDCL VizianagaramDY CEO ZP VIZIANAGARAM             HDFC000074407442320000331                     URGENT  AAO ERO (Rural)APEPDCL Vi07442320000331  
R41000000006015370000000000000000000099999999999999999PAO GOVT OF AP Hyderabad salary    STATE BANK OF INDIA SECRETARIAT    033100201000794                 K Ramalinga Raju                   DY CEO ZP VIZIANAGARAM             CORP0000331033100201000794                    URGENT  K Ramalinga Raju         033100201000794 
R41000000002677990000000000000000000099999999999999999PAO GOVT OF AP Hyderabad salary    STATE BANK OF INDIA SECRETARIAT    033100201000774                 Ch V V Subbarao                    DY CEO ZP VIZIANAGARAM             CORP0000331033100201000774                    URGENT  Ch V V Subbarao          033100201000774 
R41000000000712800000000000000000000099999999999999999PAO GOVT OF AP Hyderabad salary    STATE BANK OF INDIA SECRETARIAT    21960110017067                  J Sailaja                          DY CEO ZP VIZIANAGARAM             UCBA000219621960110017067                     URGENT  J Sailaja                21960110017067  
R41000000001803630000000000000000000099999999999999999PAO GOVT OF AP Hyderabad salary    STATE BANK OF INDIA SECRETARIAT    038402000000603                 Sr Accounts Officer (Operations) APDY CEO ZP VIZIANAGARAM             IOBA0000384038402000000603                    URGENT  Sr Accounts Officer (Oper038402000000603 
R41000000004667150000000000000000000099999999999999999PAO GOVT OF AP Hyderabad salary    STATE BANK OF INDIA SECRETARIAT                                    Divisional Engineer APEPDCL BobbiliDY CEO ZP VIZIANAGARAM                                                           URGENT  Divisional Engineer APEPD                
R41000000005084200000000000000000000099999999999999999PAO GOVT OF AP Hyderabad salary    STATE BANK OF INDIA SECRETARIAT    727601010050008                 B Appala Naidu                     DY CEO ZP VIZIANAGARAM             UBIN0572760727601010050008                    URGENT  B Appala Naidu           727601010050008 
