R41000000000600000000000000000000000000000033881454741PAO GOVT OF AP Hyderabad salary    STATE BANK OF INDIA SECRETARIAT    29310100110054E14               Balledlu Anand                     SC COOP FIN CORPORATION AP VCAND M ANDB000029329310100110054E14                  URGENT  Balledlu Anand                                            29310100110054E1EMLdpao-sect@ap.nic.in             
R41000000000600000000000000000000000000000033881454741PAO GOVT OF AP Hyderabad salary    STATE BANK OF INDIA SECRETARIAT    29310100110544                  Bugulu  Devamma                    SC COOP FIN CORPORATION AP VCAND M ANDB000029329310100110544                     URGENT  Bugulu  Devamma                                           29310100110544  EMLdpao-sect@ap.nic.in             
R41000000000600000000000000000000000000000033881454741PAO GOVT OF AP Hyderabad salary    STATE BANK OF INDIA SECRETARIAT    2610100235287                   Basipogu Janakamma                 SC COOP FIN CORPORATION AP VCAND M ANDB00000262610100235287                      URGENT  Basipogu Janakamma                                        2610100235287   EMLdpao-sect@ap.nic.in             
R41000000000600000000000000000000000000000033881454741PAO GOVT OF AP Hyderabad salary    STATE BANK OF INDIA SECRETARIAT    2610100236347                   Nanepogu Thimmadasu                SC COOP FIN CORPORATION AP VCAND M ANDB00000262610100236347                      URGENT  Nanepogu Thimmadasu                                       2610100236347   EMLdpao-sect@ap.nic.in             
R41000000000600000000000000000000000000000033881454741PAO GOVT OF AP Hyderabad salary    STATE BANK OF INDIA SECRETARIAT    2610100236611                   Perummala Asuratnam                SC COOP FIN CORPORATION AP VCAND M ANDB00000262610100236611                      URGENT  Perummala Asuratnam                                       2610100236611   EMLdpao-sect@ap.nic.in             
R41000000000600000000000000000000000000000033881454741PAO GOVT OF AP Hyderabad salary    STATE BANK OF INDIA SECRETARIAT    2610100237027                   Kondam Aruna                       SC COOP FIN CORPORATION AP VCAND M ANDB00000262610100237027                      URGENT  Kondam Aruna                                              2610100237027   EMLdpao-sect@ap.nic.in             
R41000000000600000000000000000000000000000033881454741PAO GOVT OF AP Hyderabad salary    STATE BANK OF INDIA SECRETARIAT    2610100161469                   Katepogu Yohanu                    SC COOP FIN CORPORATION AP VCAND M ANDB00000262610100161469                      URGENT  Katepogu Yohanu                                           2610100161469   EMLdpao-sect@ap.nic.in             
R41000000000600000000000000000000000000000033881454741PAO GOVT OF AP Hyderabad salary    STATE BANK OF INDIA SECRETARIAT    2610100237939                   Gande Balaraju                     SC COOP FIN CORPORATION AP VCAND M ANDB00000262610100237939                      URGENT  Gande Balaraju                                            2610100237939   EMLdpao-sect@ap.nic.in             
R41000000000360000000000000000000000000000033881454741PAO GOVT OF AP Hyderabad salary    STATE BANK OF INDIA SECRETARIAT    5910100105825                   Nandi Vargam Venkata Lakshamma     SC COOP FIN CORPORATION AP VCAND M ANDB00000595910100105825                      URGENT  Nandi Vargam Venkata Laks                                 5910100105825   EMLdpao-sect@ap.nic.in             
R41000000001000000000000000000000000000000033881454741PAO GOVT OF AP Hyderabad salary    STATE BANK OF INDIA SECRETARIAT    1525101000606E14                Mandda Raju                        SC COOP FIN CORPORATION AP VCAND M ANDB00015251525101000606E14                   URGENT  Mandda Raju                                               1525101000606E14EMLdpao-sect@ap.nic.in             
R41000000001000000000000000000000000000000033881454741PAO GOVT OF AP Hyderabad salary    STATE BANK OF INDIA SECRETARIAT    15251010006058E14               Pulikanti Chinna Nagaraju          SC COOP FIN CORPORATION AP VCAND M ANDB000152515251010006058E14                  URGENT  Pulikanti Chinna Nagaraju                                 15251010006058E1EMLdpao-sect@ap.nic.in             
R41000000000360000000000000000000000000000033881454741PAO GOVT OF AP Hyderabad salary    STATE BANK OF INDIA SECRETARIAT    84210100069718                  Palle Ramanamma                    SC COOP FIN CORPORATION AP VCAND M ANDB000084284210100069718                     URGENT  Palle Ramanamma                                           84210100069718  EMLdpao-sect@ap.nic.in             
R41000000000600000000000000000000000000000033881454741PAO GOVT OF AP Hyderabad salary    STATE BANK OF INDIA SECRETARIAT    84210100069727                  Bolledula Anand                    SC COOP FIN CORPORATION AP VCAND M ANDB000084284210100069727                     URGENT  Bolledula Anand                                           84210100069727  EMLdpao-sect@ap.nic.in             
R41000000000360000000000000000000000000000033881454741PAO GOVT OF AP Hyderabad salary    STATE BANK OF INDIA SECRETARIAT    84210100069693                  Kongara Raju                       SC COOP FIN CORPORATION AP VCAND M ANDB000084284210100069693                     URGENT  Kongara Raju                                              84210100069693  EMLdpao-sect@ap.nic.in             
R41000000000360000000000000000000000000000033881454741PAO GOVT OF AP Hyderabad salary    STATE BANK OF INDIA SECRETARIAT    84210100069736                  Chandamala Venkata Ramana          SC COOP FIN CORPORATION AP VCAND M ANDB000084284210100069736                     URGENT  Chandamala Venkata Ramana                                 84210100069736  EMLdpao-sect@ap.nic.in             
R41000000000600000000000000000000000000000033881454741PAO GOVT OF AP Hyderabad salary    STATE BANK OF INDIA SECRETARIAT    84210100069967                  MVenkata Ramana                    SC COOP FIN CORPORATION AP VCAND M ANDB000084284210100069967                     URGENT  MVenkata Ramana                                           84210100069967  EMLdpao-sect@ap.nic.in             
R41000000000360000000000000000000000000000033881454741PAO GOVT OF AP Hyderabad salary    STATE BANK OF INDIA SECRETARIAT    84210100069709                  Begary Nagendramma                 SC COOP FIN CORPORATION AP VCAND M ANDB000084284210100069709                     URGENT  Begary Nagendramma                                        84210100069709  EMLdpao-sect@ap.nic.in             
R41000000001000000000000000000000000000000033881454741PAO GOVT OF AP Hyderabad salary    STATE BANK OF INDIA SECRETARIAT    32010100153442                  Pasula Saroja                      SC COOP FIN CORPORATION AP VCAND M ANDB000032032010100153442                     URGENT  Pasula Saroja                                             32010100153442  EMLdpao-sect@ap.nic.in             
R41000000001000000000000000000000000000000033881454741PAO GOVT OF AP Hyderabad salary    STATE BANK OF INDIA SECRETARIAT    39010100193060                  P Seshanna                         SC COOP FIN CORPORATION AP VCAND M ANDB000039039010100193060                     URGENT  P Seshanna                                                39010100193060  EMLdpao-sect@ap.nic.in             
R41000000000360000000000000000000000000000033881454741PAO GOVT OF AP Hyderabad salary    STATE BANK OF INDIA SECRETARIAT    39010100192867                  Madiga Shiva Shankar               SC COOP FIN CORPORATION AP VCAND M ANDB000039039010100192867                     URGENT  Madiga Shiva Shankar                                      39010100192867  EMLdpao-sect@ap.nic.in             
R41000000000360000000000000000000000000000033881454741PAO GOVT OF AP Hyderabad salary    STATE BANK OF INDIA SECRETARIAT    39010100193051                  Ramesh                             SC COOP FIN CORPORATION AP VCAND M ANDB000039039010100193051                     URGENT  Ramesh                                                    39010100193051  EMLdpao-sect@ap.nic.in             
R41000000000360000000000000000000000000000033881454741PAO GOVT OF AP Hyderabad salary    STATE BANK OF INDIA SECRETARIAT    39010100176902                  Medda Rathnamma                    SC COOP FIN CORPORATION AP VCAND M ANDB000039039010100176902                     URGENT  Medda Rathnamma                                           39010100176902  EMLdpao-sect@ap.nic.in             
R41000000000360000000000000000000000000000033881454741PAO GOVT OF AP Hyderabad salary    STATE BANK OF INDIA SECRETARIAT    40710100059270                  Kommoji Salayya                    SC COOP FIN CORPORATION AP VCAND M ANDB000040740710100059270                     URGENT  Kommoji Salayya                                           40710100059270  EMLdpao-sect@ap.nic.in             
R41000000001000000000000000000000000000000033881454741PAO GOVT OF AP Hyderabad salary    STATE BANK OF INDIA SECRETARIAT    10951010011562E14               Jera Doddi Seshamma                SC COOP FIN CORPORATION AP VCAND M ANDB000109510951010011562E14                  URGENT  Jera Doddi Seshamma                                       10951010011562E1EMLdpao-sect@ap.nic.in             
R41000000000360000000000000000000000000000033881454741PAO GOVT OF AP Hyderabad salary    STATE BANK OF INDIA SECRETARIAT    45210100112898                  Upparapalli Ramakrishna            SC COOP FIN CORPORATION AP VCAND M ANDB000045245210100112898                     URGENT  Upparapalli Ramakrishna                                   45210100112898  EMLdpao-sect@ap.nic.in             
R41000000000450000000000000000000000000000033881454741PAO GOVT OF AP Hyderabad salary    STATE BANK OF INDIA SECRETARIAT    45210100112445                  Singavarapu Nageswaramma           SC COOP FIN CORPORATION AP VCAND M ANDB000045245210100112445                     URGENT  Singavarapu Nageswaramma                                  45210100112445  EMLdpao-sect@ap.nic.in             
R41000000000600000000000000000000000000000033881454741PAO GOVT OF AP Hyderabad salary    STATE BANK OF INDIA SECRETARIAT    91035011346                     Kothapalle Bala Peddanna           SC COOP FIN CORPORATION AP VCAND M APGB000203591035011346                        URGENT  Kothapalle Bala Peddanna                                  91035011346     EMLdpao-sect@ap.nic.in             
R41000000000600000000000000000000000000000033881454741PAO GOVT OF AP Hyderabad salary    STATE BANK OF INDIA SECRETARIAT    19170011133                     Vemaiahgari Ramalakshmana          SC COOP FIN CORPORATION AP VCAND M APGB000204219170011133                        URGENT  Vemaiahgari Ramalakshmana                                 19170011133     EMLdpao-sect@ap.nic.in             
R41000000000600000000000000000000000000000033881454741PAO GOVT OF AP Hyderabad salary    STATE BANK OF INDIA SECRETARIAT    91034950569                     Chandamama Suryanarayana           SC COOP FIN CORPORATION AP VCAND M APGB000204291034950569                        URGENT  Chandamama Suryanarayana                                  91034950569     EMLdpao-sect@ap.nic.in             
R41000000000360000000000000000000000000000033881454741PAO GOVT OF AP Hyderabad salary    STATE BANK OF INDIA SECRETARIAT    19100587493                     Giddamma                           SC COOP FIN CORPORATION AP VCAND M APGB000301119100587493                        URGENT  Giddamma                                                  19100587493     EMLdpao-sect@ap.nic.in             
R41000000000360000000000000000000000000000033881454741PAO GOVT OF AP Hyderabad salary    STATE BANK OF INDIA SECRETARIAT    91054491827                     Rangapuram Sunkulamma              SC COOP FIN CORPORATION AP VCAND M APGB000310091054491827                        URGENT  Rangapuram Sunkulamma                                     91054491827     EMLdpao-sect@ap.nic.in             
R41000000000600000000000000000000000000000033881454741PAO GOVT OF AP Hyderabad salary    STATE BANK OF INDIA SECRETARIAT    91035799617                     Malam Yesaiah                      SC COOP FIN CORPORATION AP VCAND M APGB000214591035799617                        URGENT  Malam Yesaiah                                             91035799617     EMLdpao-sect@ap.nic.in             
R41000000000300000000000000000000000000000033881454741PAO GOVT OF AP Hyderabad salary    STATE BANK OF INDIA SECRETARIAT    91054780079                     Anapuru Jaya Raju                  SC COOP FIN CORPORATION AP VCAND M APGB000307191054780079                        URGENT  Anapuru Jaya Raju                                         91054780079     EMLdpao-sect@ap.nic.in             
R41000000000300000000000000000000000000000033881454741PAO GOVT OF AP Hyderabad salary    STATE BANK OF INDIA SECRETARIAT    91054921997                     Nimma Aralappa                     SC COOP FIN CORPORATION AP VCAND M APGB000307191054921997                        URGENT  Nimma Aralappa                                            91054921997     EMLdpao-sect@ap.nic.in             
R41000000000600000000000000000000000000000033881454741PAO GOVT OF AP Hyderabad salary    STATE BANK OF INDIA SECRETARIAT    19192005555                     Ulchala Prabhakar                  SC COOP FIN CORPORATION AP VCAND M APGB000317719192005555                        URGENT  Ulchala Prabhakar                                         19192005555     EMLdpao-sect@ap.nic.in             
R41000000000300000000000000000000000000000033881454741PAO GOVT OF AP Hyderabad salary    STATE BANK OF INDIA SECRETARIAT    91031565355                     Thokala Sudhakar                   SC COOP FIN CORPORATION AP VCAND M APGB000307591031565355                        URGENT  Thokala Sudhakar                                          91031565355     EMLdpao-sect@ap.nic.in             
R41000000000300000000000000000000000000000033881454741PAO GOVT OF AP Hyderabad salary    STATE BANK OF INDIA SECRETARIAT    91031596865                     Sandu Manikyam                     SC COOP FIN CORPORATION AP VCAND M APGB000307591031596865                        URGENT  Sandu Manikyam                                            91031596865     EMLdpao-sect@ap.nic.in             
R41000000000180000000000000000000000000000033881454741PAO GOVT OF AP Hyderabad salary    STATE BANK OF INDIA SECRETARIAT    19060609148                     Sandu Naganna                      SC COOP FIN CORPORATION AP VCAND M APGB000307519060609148                        URGENT  Sandu Naganna                                             19060609148     EMLdpao-sect@ap.nic.in             
R41000000000300000000000000000000000000000033881454741PAO GOVT OF AP Hyderabad salary    STATE BANK OF INDIA SECRETARIAT    91031575953                     Sandu Giribabu                     SC COOP FIN CORPORATION AP VCAND M APGB000307591031575953                        URGENT  Sandu Giribabu                                            91031575953     EMLdpao-sect@ap.nic.in             
R41000000000600000000000000000000000000000033881454741PAO GOVT OF AP Hyderabad salary    STATE BANK OF INDIA SECRETARIAT    91034785094                     R Lakshmi Ramana Murthy            SC COOP FIN CORPORATION AP VCAND M APGB000201291034785094                        URGENT  R Lakshmi Ramana Murthy                                   91034785094     EMLdpao-sect@ap.nic.in             
R41000000000600000000000000000000000000000033881454741PAO GOVT OF AP Hyderabad salary    STATE BANK OF INDIA SECRETARIAT    846101009824                    Marijana Peddiah                   SC COOP FIN CORPORATION AP VCAND M CNRB0000846846101009824                       URGENT  Marijana Peddiah                                          846101009824    EMLdpao-sect@ap.nic.in             
R41000000000600000000000000000000000000000033881454741PAO GOVT OF AP Hyderabad salary    STATE BANK OF INDIA SECRETARIAT    846108013459                    Harijana James                     SC COOP FIN CORPORATION AP VCAND M CNRB0000846846108013459                       URGENT  Harijana James                                            846108013459    EMLdpao-sect@ap.nic.in             
R41000000000300000000000000000000000000000033881454741PAO GOVT OF AP Hyderabad salary    STATE BANK OF INDIA SECRETARIAT    1870119005417                   Raju                               SC COOP FIN CORPORATION AP VCAND M CNRB00018701870119005417                      URGENT  Raju                                                      1870119005417   EMLdpao-sect@ap.nic.in             
R41000000000600000000000000000000000000000033881454741PAO GOVT OF AP Hyderabad salary    STATE BANK OF INDIA SECRETARIAT    1870119005416                   Sandhya Pogu Chinna Moulali        SC COOP FIN CORPORATION AP VCAND M CNRB00018701870119005416                      URGENT  Sandhya Pogu Chinna Moula                                 1870119005416   EMLdpao-sect@ap.nic.in             
R41000000000240000000000000000000000000000033881454741PAO GOVT OF AP Hyderabad salary    STATE BANK OF INDIA SECRETARIAT    1870119005375                   Eara Pogu Raja Kumaru              SC COOP FIN CORPORATION AP VCAND M CNRB00018701870119005375                      URGENT  Eara Pogu Raja Kumaru                                     1870119005375   EMLdpao-sect@ap.nic.in             
R41000000000300000000000000000000000000000033881454741PAO GOVT OF AP Hyderabad salary    STATE BANK OF INDIA SECRETARIAT    1870119005418                   Giri Pogu Yerrakka                 SC COOP FIN CORPORATION AP VCAND M CNRB00018701870119005418                      URGENT  Giri Pogu Yerrakka                                        1870119005418   EMLdpao-sect@ap.nic.in             
R41000000000300000000000000000000000000000033881454741PAO GOVT OF AP Hyderabad salary    STATE BANK OF INDIA SECRETARIAT    1870119005415                   Munagala  Sunkanna                 SC COOP FIN CORPORATION AP VCAND M CNRB00018701870119005415                      URGENT  Munagala  Sunkanna                                        1870119005415   EMLdpao-sect@ap.nic.in             
R41000000000300000000000000000000000000000033881454741PAO GOVT OF AP Hyderabad salary    STATE BANK OF INDIA SECRETARIAT    1870119005340                   Reddy Pogu Naga Raju               SC COOP FIN CORPORATION AP VCAND M CNRB00018701870119005340                      URGENT  Reddy Pogu Naga Raju                                      1870119005340   EMLdpao-sect@ap.nic.in             
R41000000000300000000000000000000000000000033881454741PAO GOVT OF AP Hyderabad salary    STATE BANK OF INDIA SECRETARIAT    1870119005332                   Venkateswaramma                    SC COOP FIN CORPORATION AP VCAND M CNRB00018701870119005332                      URGENT  Venkateswaramma                                           1870119005332   EMLdpao-sect@ap.nic.in             
R41000000001000000000000000000000000000000033881454741PAO GOVT OF AP Hyderabad salary    STATE BANK OF INDIA SECRETARIAT    1870119005353                   Jilleddi Dinne Shekaru Babu        SC COOP FIN CORPORATION AP VCAND M CNRB00018701870119005353                      URGENT  Jilleddi Dinne Shekaru Ba                                 1870119005353   EMLdpao-sect@ap.nic.in             
R41000000000300000000000000000000000000000033881454741PAO GOVT OF AP Hyderabad salary    STATE BANK OF INDIA SECRETARIAT    1870119005359                   S Chandra Sekhar                   SC COOP FIN CORPORATION AP VCAND M CNRB00018701870119005359                      URGENT  S Chandra Sekhar                                          1870119005359   EMLdpao-sect@ap.nic.in             
R41000000001000000000000000000000000000000033881454741PAO GOVT OF AP Hyderabad salary    STATE BANK OF INDIA SECRETARIAT    1679108004940                   M C Nagaraju                       SC COOP FIN CORPORATION AP VCAND M CNRB00016791679108004940                      URGENT  M C Nagaraju                                              1679108004940   EMLdpao-sect@ap.nic.in             
R41000000000600000000000000000000000000000033881454741PAO GOVT OF AP Hyderabad salary    STATE BANK OF INDIA SECRETARIAT    50010101025869E14               Pyapili Ramakrishna                SC COOP FIN CORPORATION AP VCAND M CIUB000016950010101025869E14                  URGENT  Pyapili Ramakrishna                                       50010101025869E1EMLdpao-sect@ap.nic.in             
R41000000000600000000000000000000000000000033881454741PAO GOVT OF AP Hyderabad salary    STATE BANK OF INDIA SECRETARIAT    50010101024348E14               Chinamoyolo Ramanjeneyulu          SC COOP FIN CORPORATION AP VCAND M CIUB000016950010101024348E14                  URGENT  Chinamoyolo Ramanjeneyulu                                 50010101024348E1EMLdpao-sect@ap.nic.in             
R41000000000600000000000000000000000000000033881454741PAO GOVT OF AP Hyderabad salary    STATE BANK OF INDIA SECRETARIAT    16900100087232E14               Papigalla Subbadasu                SC COOP FIN CORPORATION AP VCAND M CIUB000016916900100087232E14                  URGENT  Papigalla Subbadasu                                       16900100087232E1EMLdpao-sect@ap.nic.in             
R41000000000600000000000000000000000000000033881454741PAO GOVT OF AP Hyderabad salary    STATE BANK OF INDIA SECRETARIAT    42825001014482E15               Sandhya Pogu Manikyamma            SC COOP FIN CORPORATION AP VCAND M KARB000042842825001014482E15                  URGENT  Sandhya Pogu Manikyamma                                   42825001014482E1EMLdpao-sect@ap.nic.in             
R41000000001000000000000000000000000000000033881454741PAO GOVT OF AP Hyderabad salary    STATE BANK OF INDIA SECRETARIAT    1499165E15                      Bommi Reddy Raju                   SC COOP FIN CORPORATION AP VCAND M KVBL00014991499165E15                         URGENT  Bommi Reddy Raju                                          1499165E15      EMLdpao-sect@ap.nic.in             
R41000000000480000000000000000000000000000033881454741PAO GOVT OF AP Hyderabad salary    STATE BANK OF INDIA SECRETARIAT    62414976979                     Jakkam Yelisamma                   SC COOP FIN CORPORATION AP VCAND M SBHY002142462414976979                        URGENT  Jakkam Yelisamma                                          62414976979     EMLdpao-sect@ap.nic.in             
R41000000001000000000000000000000000000000033881454741PAO GOVT OF AP Hyderabad salary    STATE BANK OF INDIA SECRETARIAT    62417490784                     Jana Hepsiba                       SC COOP FIN CORPORATION AP VCAND M SBHY002118462417490784                        URGENT  Jana Hepsiba                                              62417490784     EMLdpao-sect@ap.nic.in             
R41000000000600000000000000000000000000000033881454741PAO GOVT OF AP Hyderabad salary    STATE BANK OF INDIA SECRETARIAT    31902010016623                  Kotturu  Sukumari                  SC COOP FIN CORPORATION AP VCAND M SYNB000319031902010016623                     URGENT  Kotturu  Sukumari                                         31902010016623  EMLdpao-sect@ap.nic.in             
R41000000000450000000000000000000000000000033881454741PAO GOVT OF AP Hyderabad salary    STATE BANK OF INDIA SECRETARIAT    31952200103142                  Cherlopalle Yallaiah               SC COOP FIN CORPORATION AP VCAND M SYNB000319531952200103142                     URGENT  Cherlopalle Yallaiah                                      31952200103142  EMLdpao-sect@ap.nic.in             
R41000000000360000000000000000000000000000033881454741PAO GOVT OF AP Hyderabad salary    STATE BANK OF INDIA SECRETARIAT    33862210051922                  CSiva Laxmi                        SC COOP FIN CORPORATION AP VCAND M SYNB000338633862210051922                     URGENT  CSiva Laxmi                                               33862210051922  EMLdpao-sect@ap.nic.in             
R41000000000450000000000000000000000000000033881454741PAO GOVT OF AP Hyderabad salary    STATE BANK OF INDIA SECRETARIAT    31922010029480                  Pombali  Mark                      SC COOP FIN CORPORATION AP VCAND M SYNB000319231922010029480                     URGENT  Pombali  Mark                                             31922010029480  EMLdpao-sect@ap.nic.in             
R41000000001000000000000000000000000000000033881454741PAO GOVT OF AP Hyderabad salary    STATE BANK OF INDIA SECRETARIAT    33942210020270                  Pari Nshantha Kumari               SC COOP FIN CORPORATION AP VCAND M SYNB000339433942210020270                     URGENT  Pari Nshantha Kumari                                      33942210020270  EMLdpao-sect@ap.nic.in             
R41000000001000000000000000000000000000000033881454741PAO GOVT OF AP Hyderabad salary    STATE BANK OF INDIA SECRETARIAT    33942210020284                  Mallepogu Ranemma                  SC COOP FIN CORPORATION AP VCAND M SYNB000339433942210020284                     URGENT  Mallepogu Ranemma                                         33942210020284  EMLdpao-sect@ap.nic.in             
R41000000001000000000000000000000000000000033881454741PAO GOVT OF AP Hyderabad salary    STATE BANK OF INDIA SECRETARIAT    40500101100282E14               Jekila Venkateshwarlu              SC COOP FIN CORPORATION AP VCAND M VIJB000405040500101100282E14                  URGENT  Jekila Venkateshwarlu                                     40500101100282E1EMLdpao-sect@ap.nic.in             
