R41000000008170570000000000000000000099999999999999999PAO GOVT OF AP Hyderabad salary    STATE BANK OF INDIA SECRETARIAT    128101000012321                 Sri KRaja Prasad Reddy             MED SERV & INF DEVP CORPN AP- MANA IOBA0001281128101000012321                    URGENT  Sri KRaja Prasad Reddy                                    128101000012321 EMLdpao-sect@ap.nic.in             
R41000000008927810000000000000000000099999999999999999PAO GOVT OF AP Hyderabad salary    STATE BANK OF INDIA SECRETARIAT    0257000600184301                Sri GLinga Naidu                   MED SERV & INF DEVP CORPN AP- MANA KARB00000250257000600184301                   URGENT  Sri GLinga Naidu                                          0257000600184301EMLdpao-sect@ap.nic.in             
R41000000000198480000000000000000000099999999999999999PAO GOVT OF AP Hyderabad salary    STATE BANK OF INDIA SECRETARIAT    142210011200206                 AP Labour Cess Commissioner HyderabMED SERV & INF DEVP CORPN AP- MANA ANDB0001422142210011200206                    URGENT  AP Labour Cess Commission                                 142210011200206 EMLdpao-sect@ap.nic.in             
R41000000001940400000000000000000000099999999999999999PAO GOVT OF AP Hyderabad salary    STATE BANK OF INDIA SECRETARIAT    142410011000314                 MD APMSIDC Hyderabad               MED SERV & INF DEVP CORPN AP- MANA ANDB0001424142410011000314                    URGENT  MD APMSIDC Hyderabad                                      142410011000314 EMLdpao-sect@ap.nic.in             
