R41000000000465310000000000000000000000000033881454741PD  GOVT OF AP Hyderabad salary    STATE BANK OF INDIA SECRETARIAT    8.0101E+12                      P SUDARSANA RAO                    ITDA FOR PLAIN AREAS, PROJECT OFFI UTIB00000088.0101E+12                         URGENT  P SUDARSANA RAO          8.0101E+12      
R41000000000834370000000000000000000000000033881454741PD  GOVT OF AP Hyderabad salary    STATE BANK OF INDIA SECRETARIAT    62008109974                     B ADINARAYANA RAO                  ITDA FOR PLAIN AREAS, PROJECT OFFI SBHY002102662008109974                        URGENT  B ADINARAYANA RAO        62008109974     
R41000000000539550000000000000000000000000033881454741PD  GOVT OF AP Hyderabad salary    STATE BANK OF INDIA SECRETARIAT    52188999770                     T GOVARDHAN NAIDU                  ITDA FOR PLAIN AREAS, PROJECT OFFI SBHY002102652188999770                        URGENT  T GOVARDHAN NAIDU        52188999770     
R41000000000474850000000000000000000000000033881454741PD  GOVT OF AP Hyderabad salary    STATE BANK OF INDIA SECRETARIAT    62059025754                     T JAGAN MOHAN RAO                  ITDA FOR PLAIN AREAS, PROJECT OFFI SBHY002102662059025754                        URGENT  T JAGAN MOHAN RAO        62059025754     
R41000000000489610000000000000000000000000033881454741PD  GOVT OF AP Hyderabad salary    STATE BANK OF INDIA SECRETARIAT    52188935262                     CH SHIVA KAMESHWARA RAO            ITDA FOR PLAIN AREAS, PROJECT OFFI SBHY002102652188935262                        URGENT  CH SHIVA KAMESHWARA RAO  52188935262     
R41000000000304940000000000000000000000000033881454741PD  GOVT OF AP Hyderabad salary    STATE BANK OF INDIA SECRETARIAT    62239865962                     RTSS MAN POWER SOLUTIONS           ITDA FOR PLAIN AREAS, PROJECT OFFI SBHY002006462239865962                        URGENT  RTSS MAN POWER SOLUTIONS 62239865962     
R41000000000118680000000000000000000000000033881454741PD  GOVT OF AP Hyderabad salary    STATE BANK OF INDIA SECRETARIAT    62036520074                     JYOTHI COMPUTER SERVICES           ITDA FOR PLAIN AREAS, PROJECT OFFI SBHY002047162036520074                        URGENT  JYOTHI COMPUTER SERVICES 62036520074     
