R41000000000095420000000000000000000000000033881454741PAO GOVT OF AP Hyderabad salary    STATE BANK OF INDIA SECRETARIAT    62341658143                     K RAMA SHESHU                      ITDA FOR PLAIN AREAS PROJECT OFFIC SBHY002102662341658143                        URGENT  K RAMA SHESHU            62341658143     
R41000000000030000000000000000000000000000033881454741PAO GOVT OF AP Hyderabad salary    STATE BANK OF INDIA SECRETARIAT    52188998461                     P VENKAT RAO                       ITDA FOR PLAIN AREAS PROJECT OFFIC SBHY002102652188998461                        URGENT  P VENKAT RAO             52188998461     
R41000000000270040000000000000000000000000033881454741PAO GOVT OF AP Hyderabad salary    STATE BANK OF INDIA SECRETARIAT    00090310002295                  CONCORDE MOTORS INDIA LIMITED      ITDA FOR PLAIN AREAS PROJECT OFFIC HDFC000000900090310002295                     URGENT  CONCORDE MOTORS INDIA LIM00090310002295  
R41000000000095740000000000000000000000000033881454741PAO GOVT OF AP Hyderabad salary    STATE BANK OF INDIA SECRETARIAT    52088415021                     DIST MANAGER APS CIVIL SUPPLIES CORITDA FOR PLAIN AREAS PROJECT OFFIC SBHY002007752088415021                        URGENT  DIST MANAGER APS CIVIL SU52088415021     
