R41000000000013180000000000000000000000000034214844554DIRECTOR, URDU ACADEMY - AP        STATE BANK OF INDIA                62030897659                     Zafarullah Khan                    DIRECTOR URDU ACADEMY - AP         SBHY0020713DIRECTOR URDU ACADEMY - AP         URGENT  Zafarullah Khan                                           0155311         athavullakhan@gmail.com            
R41000000000016450000000000000000000000000034214844554DIRECTOR, URDU ACADEMY - AP        STATE BANK OF INDIA                52081880017                     CMd Suhel Pasha                    DIRECTOR URDU ACADEMY - AP         SBHY0020492DIRECTOR URDU ACADEMY - AP         URGENT  CMd Suhel Pasha                                           0155312         athavullakhan@gmail.com            
R41000000000014250000000000000000000000000034214844554DIRECTOR, URDU ACADEMY - AP        STATE BANK OF INDIA                62350379983                     Syed Ghosia Begum                  DIRECTOR URDU ACADEMY - AP         SBHY0020513DIRECTOR URDU ACADEMY - AP         URGENT  Syed Ghosia Begum                                         0155313         athavullakhan@gmail.com            
R41000000000004300000000000000000000000000034214844554DIRECTOR, URDU ACADEMY - AP        STATE BANK OF INDIA                62113265244                     KShahmeer Basha                    DIRECTOR URDU ACADEMY - AP         SBHY0021114DIRECTOR URDU ACADEMY - AP         URGENT  KShahmeer Basha                                           0155314         athavullakhan@gmail.com            
R41000000000003200000000000000000000000000034214844554DIRECTOR, URDU ACADEMY - AP        STATE BANK OF INDIA                52115359497                     Dilshad Mohiuddin                  DIRECTOR URDU ACADEMY - AP         SBHY0020338DIRECTOR URDU ACADEMY - AP         URGENT  Dilshad Mohiuddin                                         0155315         athavullakhan@gmail.com            
R41000000000005150000000000000000000000000034214844554DIRECTOR, URDU ACADEMY - AP        STATE BANK OF INDIA                62032862998                     M A Khuddus                        DIRECTOR URDU ACADEMY - AP         SBHY0021124DIRECTOR URDU ACADEMY - AP         URGENT  M A Khuddus                                               0155316         athavullakhan@gmail.com            
R41000000000006320000000000000000000000000034214844554DIRECTOR, URDU ACADEMY - AP        STATE BANK OF INDIA                62048162488                     Sd Irfani                          DIRECTOR URDU ACADEMY - AP         SBHY0020339DIRECTOR URDU ACADEMY - AP         URGENT  Sd Irfani                                                 0155317         athavullakhan@gmail.com            
R41000000000007500000000000000000000000000034214844554DIRECTOR, URDU ACADEMY - AP        STATE BANK OF INDIA                62033325930                     MMdAbid                            DIRECTOR URDU ACADEMY - AP         SBHY0020901DIRECTOR URDU ACADEMY - AP         URGENT  MMdAbid                                                   0155318         athavullakhan@gmail.com            
R41000000000003300000000000000000000000000034214844554DIRECTOR, URDU ACADEMY - AP        STATE BANK OF INDIA                52129517529                     Silar Jan                          DIRECTOR URDU ACADEMY - AP         SBHY0020384DIRECTOR URDU ACADEMY - AP         URGENT  Silar Jan                                                 0155319         athavullakhan@gmail.com            
R41000000000009830000000000000000000000000034214844554DIRECTOR, URDU ACADEMY - AP        STATE BANK OF INDIA                62030886295                     Akbar Shaik                        DIRECTOR URDU ACADEMY - AP         SBHY0020346DIRECTOR URDU ACADEMY - AP         URGENT  Akbar Shaik                                               01553110        athavullakhan@gmail.com            
R41000000000004000000000000000000000000000034214844554DIRECTOR, URDU ACADEMY - AP        STATE BANK OF INDIA                62032385800                     Mohammad Abdul Bari                DIRECTOR URDU ACADEMY - AP         SBHY0020380DIRECTOR URDU ACADEMY - AP         URGENT  Mohammad Abdul Bari                                       01553111        athavullakhan@gmail.com            
R41000000000004300000000000000000000000000034214844554DIRECTOR, URDU ACADEMY - AP        STATE BANK OF INDIA                62032595125                     Md Ghouse                          DIRECTOR URDU ACADEMY - AP         SBHY0020517DIRECTOR URDU ACADEMY - AP         URGENT  Md Ghouse                                                 01553112        athavullakhan@gmail.com            
R41000000000021910000000000000000000000000034214844554DIRECTOR, URDU ACADEMY - AP        STATE BANK OF INDIA                62032469065                     S Naseeb Jan                       DIRECTOR URDU ACADEMY - AP         SBHY0020901DIRECTOR URDU ACADEMY - AP         URGENT  S Naseeb Jan                                              01553113        athavullakhan@gmail.com            
R41000000000004750000000000000000000000000034214844554DIRECTOR, URDU ACADEMY - AP        STATE BANK OF INDIA                62025212008                     Abdul Rahman Baig                  DIRECTOR URDU ACADEMY - AP         SBHY0020171DIRECTOR URDU ACADEMY - AP         URGENT  Abdul Rahman Baig                                         01553114        athavullakhan@gmail.com            
R41000000000013910000000000000000000000000034214844554DIRECTOR, URDU ACADEMY - AP        STATE BANK OF INDIA                62031527188                     Syed Kareem                        DIRECTOR URDU ACADEMY - AP         SBHY0020677DIRECTOR URDU ACADEMY - AP         URGENT  Syed Kareem                                               01553115        athavullakhan@gmail.com            
R41000000000009400000000000000000000000000034214844554DIRECTOR, URDU ACADEMY - AP        STATE BANK OF INDIA                62032394892                     Sk Hazera Begum                    DIRECTOR URDU ACADEMY - AP         SBHY0020553DIRECTOR URDU ACADEMY - AP         URGENT  Sk Hazera Begum                                           01553116        athavullakhan@gmail.com            
R41000000000006000000000000000000000000000034214844554DIRECTOR, URDU ACADEMY - AP        STATE BANK OF INDIA                52134608997                     Shaik Jilani                       DIRECTOR URDU ACADEMY - AP         SBHY0020815DIRECTOR URDU ACADEMY - AP         URGENT  Shaik Jilani                                              01553117        athavullakhan@gmail.com            
R41000000000004850000000000000000000000000034214844554DIRECTOR, URDU ACADEMY - AP        STATE BANK OF INDIA                62068965153                     Sk Sayyed Baji                     DIRECTOR URDU ACADEMY - AP         SBHY0020518DIRECTOR URDU ACADEMY - AP         URGENT  Sk Sayyed Baji                                            01553118        athavullakhan@gmail.com            
R41000000000007800000000000000000000000000034214844554DIRECTOR, URDU ACADEMY - AP        STATE BANK OF INDIA                62082188586                     Mohammad Umar                      DIRECTOR URDU ACADEMY - AP         SBHY0020772DIRECTOR URDU ACADEMY - AP         URGENT  Mohammad Umar                                             01553119        athavullakhan@gmail.com            
R41000000000009800000000000000000000000000034214844554DIRECTOR, URDU ACADEMY - AP        STATE BANK OF INDIA                62068595099                     S Kareem Ulla                      DIRECTOR URDU ACADEMY - AP         SBHY0020513DIRECTOR URDU ACADEMY - AP         URGENT  S Kareem Ulla                                             01553120        athavullakhan@gmail.com            
R41000000000004550000000000000000000000000034214844554DIRECTOR, URDU ACADEMY - AP        STATE BANK OF INDIA                62166414172                     Pathan Jani Basha                  DIRECTOR URDU ACADEMY - AP         SBHY0020507DIRECTOR URDU ACADEMY - AP         URGENT  Pathan Jani Basha                                         01553121        athavullakhan@gmail.com            
R41000000000004520000000000000000000000000034214844554DIRECTOR, URDU ACADEMY - AP        STATE BANK OF INDIA                62073315266                     Shaik Noor Jahan                   DIRECTOR URDU ACADEMY - AP         SBHY0020761DIRECTOR URDU ACADEMY - AP         URGENT  Shaik Noor Jahan                                          01553122        athavullakhan@gmail.com            
R41000000000008690000000000000000000000000034214844554DIRECTOR, URDU ACADEMY - AP        STATE BANK OF INDIA                62130138767                     Sk Nagul Meera Vali                DIRECTOR URDU ACADEMY - AP         SBHY0020491DIRECTOR URDU ACADEMY - AP         URGENT  Sk Nagul Meera Vali                                       01553123        athavullakhan@gmail.com            
R41000000000005600000000000000000000000000034214844554DIRECTOR, URDU ACADEMY - AP        STATE BANK OF INDIA                62076405293                     Sk Akbar Ali                       DIRECTOR URDU ACADEMY - AP         SBHY0020170DIRECTOR URDU ACADEMY - AP         URGENT  Sk Akbar Ali                                              01553124        athavullakhan@gmail.com            
R41000000000004900000000000000000000000000034214844554DIRECTOR, URDU ACADEMY - AP        STATE BANK OF INDIA                62031792497                     M Md Nasir                         DIRECTOR URDU ACADEMY - AP         SBHY0020575DIRECTOR URDU ACADEMY - AP         URGENT  M Md Nasir                                                01553125        athavullakhan@gmail.com            
R41000000000003200000000000000000000000000034214844554DIRECTOR, URDU ACADEMY - AP        STATE BANK OF INDIA                62272054771                     GSJaveed Hussain                   DIRECTOR URDU ACADEMY - AP         SBHY0020901DIRECTOR URDU ACADEMY - AP         URGENT  GSJaveed Hussain                                          01553126        athavullakhan@gmail.com            
R41000000000008850000000000000000000000000034214844554DIRECTOR, URDU ACADEMY - AP        STATE BANK OF INDIA                62069780998                     Shaik Wajid Ahmed Hussain          DIRECTOR URDU ACADEMY - AP         SBHY0020513DIRECTOR URDU ACADEMY - AP         URGENT  Shaik Wajid Ahmed Hussain                                 01553127        athavullakhan@gmail.com            
R41000000000004140000000000000000000000000034214844554DIRECTOR, URDU ACADEMY - AP        STATE BANK OF INDIA                62094724636                     Sk Saleema                         DIRECTOR URDU ACADEMY - AP         SBHY0020980DIRECTOR URDU ACADEMY - AP         URGENT  Sk Saleema                                                01553128        athavullakhan@gmail.com            
R41000000000004400000000000000000000000000034214844554DIRECTOR, URDU ACADEMY - AP        STATE BANK OF INDIA                62071372179                     Shaik Nazeer                       DIRECTOR URDU ACADEMY - AP         SBHY0020349DIRECTOR URDU ACADEMY - AP         URGENT  Shaik Nazeer                                              01553129        athavullakhan@gmail.com            
R41000000000007700000000000000000000000000034214844554DIRECTOR, URDU ACADEMY - AP        STATE BANK OF INDIA                62094496256                     Sk Jabeen                          DIRECTOR URDU ACADEMY - AP         SBHY0020897DIRECTOR URDU ACADEMY - AP         URGENT  Sk Jabeen                                                 01553130        athavullakhan@gmail.com            
R41000000000003500000000000000000000000000034214844554DIRECTOR, URDU ACADEMY - AP        STATE BANK OF INDIA                62088474252                     DSiddaiah                          DIRECTOR URDU ACADEMY - AP         SBHY0021066DIRECTOR URDU ACADEMY - AP         URGENT  DSiddaiah                                                 01553131        athavullakhan@gmail.com            
R41000000000006800000000000000000000000000034214844554DIRECTOR, URDU ACADEMY - AP        STATE BANK OF INDIA                62337353442                     M Mohammed Zahed                   DIRECTOR URDU ACADEMY - AP         SBHY0020901DIRECTOR URDU ACADEMY - AP         URGENT  M Mohammed Zahed                                          01553132        athavullakhan@gmail.com            
R41000000000010470000000000000000000000000034214844554DIRECTOR, URDU ACADEMY - AP        STATE BANK OF INDIA                52184554156                     Shaik Gulzar                       DIRECTOR URDU ACADEMY - AP         SBHY0020440DIRECTOR URDU ACADEMY - AP         URGENT  Shaik Gulzar                                              01553133        athavullakhan@gmail.com            
R41000000000006050000000000000000000000000034214844554DIRECTOR, URDU ACADEMY - AP        STATE BANK OF INDIA                62181215510                     Shaik Zakeer Hussain               DIRECTOR URDU ACADEMY - AP         SBHY0020570DIRECTOR URDU ACADEMY - AP         URGENT  Shaik Zakeer Hussain                                      01553134        athavullakhan@gmail.com            
R41000000000017990000000000000000000000000034214844554DIRECTOR, URDU ACADEMY - AP        STATE BANK OF INDIA                52081880017                     CMd Suhel Pasha                    DIRECTOR URDU ACADEMY - AP         SBHY0020492DIRECTOR URDU ACADEMY - AP         URGENT  CMd Suhel Pasha                                           01553135        athavullakhan@gmail.com            
R41000000000000750000000000000000000000000034214844554DIRECTOR, URDU ACADEMY - AP        STATE BANK OF INDIA                52102970273                     Sk Siraj Uddin Ahmed               DIRECTOR URDU ACADEMY - AP         SBHY0020349DIRECTOR URDU ACADEMY - AP         URGENT  Sk Siraj Uddin Ahmed                                      01553136        athavullakhan@gmail.com            
R41000000000007030000000000000000000000000034214844554DIRECTOR, URDU ACADEMY - AP        STATE BANK OF INDIA                62073149365                     Shaik Jainullabddin Khadir         DIRECTOR URDU ACADEMY - AP         SBHY0021002DIRECTOR URDU ACADEMY - AP         URGENT  Shaik Jainullabddin Khadi                                 01553137        athavullakhan@gmail.com            
R41000000000002150000000000000000000000000034214844554DIRECTOR, URDU ACADEMY - AP        STATE BANK OF INDIA                62030832001                     Shaik Moulana Azad                 DIRECTOR URDU ACADEMY - AP         SBHY0020171DIRECTOR URDU ACADEMY - AP         URGENT  Shaik Moulana Azad                                        01553138        athavullakhan@gmail.com            
R41000000000002400000000000000000000000000034214844554DIRECTOR, URDU ACADEMY - AP        STATE BANK OF INDIA                62076077509                     Mohd Rizwan Shaik                  DIRECTOR URDU ACADEMY - AP         SBHY0020810DIRECTOR URDU ACADEMY - AP         URGENT  Mohd Rizwan Shaik                                         01553139        athavullakhan@gmail.com            
R41000000000004860000000000000000000000000034214844554DIRECTOR, URDU ACADEMY - AP        STATE BANK OF INDIA                62069133054                     Shaik John Miyan                   DIRECTOR URDU ACADEMY - AP         SBHY0020815DIRECTOR URDU ACADEMY - AP         URGENT  Shaik John Miyan                                          01553140        athavullakhan@gmail.com            
R41000000000004390000000000000000000000000034214844554DIRECTOR, URDU ACADEMY - AP        STATE BANK OF INDIA                62031771895                     N Md Aslam                         DIRECTOR URDU ACADEMY - AP         SBHY0020677DIRECTOR URDU ACADEMY - AP         URGENT  N Md Aslam                                                01553141        athavullakhan@gmail.com            
R41000000000005610000000000000000000000000034214844554DIRECTOR, URDU ACADEMY - AP        STATE BANK OF INDIA                62032555932                     P Sujad Ali                        DIRECTOR URDU ACADEMY - AP         SBHY0020795DIRECTOR URDU ACADEMY - AP         URGENT  P Sujad Ali                                               01553142        athavullakhan@gmail.com            
R41000000000006900000000000000000000000000034214844554DIRECTOR, URDU ACADEMY - AP        STATE BANK OF INDIA                52115913630                     Mohammed Shareef                   DIRECTOR URDU ACADEMY - AP         SBHY0020901DIRECTOR URDU ACADEMY - AP         URGENT  Mohammed Shareef                                          01553143        athavullakhan@gmail.com            
R41000000000001470000000000000000000000000034214844554DIRECTOR, URDU ACADEMY - AP        STATE BANK OF INDIA                62024325839                     Syed Shameem Begum                 DIRECTOR URDU ACADEMY - AP         SBHY0020761DIRECTOR URDU ACADEMY - AP         URGENT  Syed Shameem Begum                                        01553144        athavullakhan@gmail.com            
R41000000000003970000000000000000000000000034214844554DIRECTOR, URDU ACADEMY - AP        STATE BANK OF INDIA                62131933107                     Himama Basha Shaik                 DIRECTOR URDU ACADEMY - AP         SBHY0020513DIRECTOR URDU ACADEMY - AP         URGENT  Himama Basha Shaik                                        01553145        athavullakhan@gmail.com            
R41000000000003410000000000000000000000000034214844554DIRECTOR, URDU ACADEMY - AP        STATE BANK OF INDIA                62032111464                     SSajeeda Siddiqui                  DIRECTOR URDU ACADEMY - AP         SBHY0021114DIRECTOR URDU ACADEMY - AP         URGENT  SSajeeda Siddiqui                                         01553146        athavullakhan@gmail.com            
R41000000000011270000000000000000000000000034214844554DIRECTOR, URDU ACADEMY - AP        STATE BANK OF INDIA                52020409784                     Syed Mohd Ali                      DIRECTOR URDU ACADEMY - AP         SBHY0020346DIRECTOR URDU ACADEMY - AP         URGENT  Syed Mohd Ali                                             01553147        athavullakhan@gmail.com            
R41000000000001370000000000000000000000000034214844554DIRECTOR, URDU ACADEMY - AP        STATE BANK OF INDIA                62071372179                     Shaik Nazeer                       DIRECTOR URDU ACADEMY - AP         SBHY0020349DIRECTOR URDU ACADEMY - AP         URGENT  Shaik Nazeer                                              01553148        athavullakhan@gmail.com            
R41000000000001970000000000000000000000000034214844554DIRECTOR, URDU ACADEMY - AP        STATE BANK OF INDIA                62130008737                     Shaik Siddique                     DIRECTOR URDU ACADEMY - AP         SBHY0020349DIRECTOR URDU ACADEMY - AP         URGENT  Shaik Siddique                                            01553149        athavullakhan@gmail.com            
R41000000000000710000000000000000000000000034214844554DIRECTOR, URDU ACADEMY - AP        STATE BANK OF INDIA                62092978548                     Alia Begum                         DIRECTOR URDU ACADEMY - AP         SBHY0020410DIRECTOR URDU ACADEMY - AP         URGENT  Alia Begum                                                01553150        athavullakhan@gmail.com            
R41000000000002000000000000000000000000000034214844554DIRECTOR, URDU ACADEMY - AP        STATE BANK OF INDIA                62072192287                     Habeeb Karishma                    DIRECTOR URDU ACADEMY - AP         SBHY0020338DIRECTOR URDU ACADEMY - AP         URGENT  Habeeb Karishma                                           01553151        athavullakhan@gmail.com            
R41000000000006900000000000000000000000000034214844554DIRECTOR, URDU ACADEMY - AP        STATE BANK OF INDIA                62125166770                     Mohd Ismail Pattan                 DIRECTOR URDU ACADEMY - AP         SBHY0021210DIRECTOR URDU ACADEMY - AP         URGENT  Mohd Ismail Pattan                                        01553152        athavullakhan@gmail.com            
R41000000000006820000000000000000000000000034214844554DIRECTOR, URDU ACADEMY - AP        STATE BANK OF INDIA                62068595099                     S Kareem Ulla                      DIRECTOR URDU ACADEMY - AP         SBHY0020513DIRECTOR URDU ACADEMY - AP         URGENT  S Kareem Ulla                                             01553153        athavullakhan@gmail.com            
R41000000000001500000000000000000000000000034214844554DIRECTOR, URDU ACADEMY - AP        STATE BANK OF INDIA                62131777747                     Naziya Anjum                       DIRECTOR URDU ACADEMY - AP         SBHY0020901DIRECTOR URDU ACADEMY - AP         URGENT  Naziya Anjum                                              01553154        athavullakhan@gmail.com            
R41000000000000800000000000000000000000000034214844554DIRECTOR, URDU ACADEMY - AP        STATE BANK OF INDIA                62094744788                     Shaik Shoukat Hussain              DIRECTOR URDU ACADEMY - AP         SBHY0020328DIRECTOR URDU ACADEMY - AP         URGENT  Shaik Shoukat Hussain                                     01553155        athavullakhan@gmail.com            
R41000000000005200000000000000000000000000034214844554DIRECTOR, URDU ACADEMY - AP        STATE BANK OF INDIA                62075384523                     B Mohammad Sajeed                  DIRECTOR URDU ACADEMY - AP         SBHY0020995DIRECTOR URDU ACADEMY - AP         URGENT  B Mohammad Sajeed                                         01553156        athavullakhan@gmail.com            
R41000000000005650000000000000000000000000034214844554DIRECTOR, URDU ACADEMY - AP        STATE BANK OF INDIA                62094017741                     Shaik Abdul Zaheer                 DIRECTOR URDU ACADEMY - AP         SBHY0020513DIRECTOR URDU ACADEMY - AP         URGENT  Shaik Abdul Zaheer                                        01553157        athavullakhan@gmail.com            
R41000000000001060000000000000000000000000034214844554DIRECTOR, URDU ACADEMY - AP        STATE BANK OF INDIA                62032329436                     Sk Amitab                          DIRECTOR URDU ACADEMY - AP         SBHY0020346DIRECTOR URDU ACADEMY - AP         URGENT  Sk Amitab                                                 01553158        athavullakhan@gmail.com            
R41000000000000860000000000000000000000000034214844554DIRECTOR, URDU ACADEMY - AP        STATE BANK OF INDIA                62113463552                     Shaik Mastan Bee                   DIRECTOR URDU ACADEMY - AP         SBHY0020570DIRECTOR URDU ACADEMY - AP         URGENT  Shaik Mastan Bee                                          01553159        athavullakhan@gmail.com            
R41000000000020000000000000000000000000000034214844554DIRECTOR, URDU ACADEMY - AP        STATE BANK OF INDIA                62015979361                     Mohd Akbar                         DIRECTOR URDU ACADEMY - AP         SBHY0020170DIRECTOR URDU ACADEMY - AP         URGENT  Mohd Akbar                                                01553160        athavullakhan@gmail.com            
R41000000000005800000000000000000000000000034214844554DIRECTOR, URDU ACADEMY - AP        STATE BANK OF INDIA                62126142421                     K Mohd Zameer                      DIRECTOR URDU ACADEMY - AP         SBHY0020575DIRECTOR URDU ACADEMY - AP         URGENT  K Mohd Zameer                                             01553161        athavullakhan@gmail.com            
