R4132314153217     000000011370040000000000000000000000000033881454741PAO GOVT OF AP Hyderabad salary    STATE BANK OF INDIA SECRETARIAT    32314153217                     RS B  Maredumilli                  TRIBAL WELFARE RESIDENTIAL EDUCATI            32314153217                        URGENT  RS B  Maredumilli        32314153217     
R4111585124166     000000002914190000000000000000000000000033881454741PAO GOVT OF AP Hyderabad salary    STATE BANK OF INDIA SECRETARIAT    11585124166                     RS B Yerragondapalem               TRIBAL WELFARE RESIDENTIAL EDUCATI            11585124166                        URGENT  RS B Yerragondapalem     11585124166     
R4133518973911     000000006942670000000000000000000000000033881454741PAO GOVT OF AP Hyderabad salary    STATE BANK OF INDIA SECRETARIAT    33518973911                     RS B Kota (chittedu)               TRIBAL WELFARE RESIDENTIAL EDUCATI            33518973911                        URGENT  RS B Kota (chittedu)     33518973911     
R4132318695881     000000006708420000000000000000000000000033881454741PAO GOVT OF AP Hyderabad salary    STATE BANK OF INDIA SECRETARIAT    32318695881                     RS B Somasila                      TRIBAL WELFARE RESIDENTIAL EDUCATI            32318695881                        URGENT  RS B Somasila            32318695881     
R4132089055052     000000005452230000000000000000000000000033881454741PAO GOVT OF AP Hyderabad salary    STATE BANK OF INDIA SECRETARIAT    32089055052                     RS G Mahanandi                     TRIBAL WELFARE RESIDENTIAL EDUCATI            32089055052                        URGENT  RS G Mahanandi           32089055052     
R4132444007561     000000006159570000000000000000000000000033881454741PAO GOVT OF AP Hyderabad salary    STATE BANK OF INDIA SECRETARIAT    32444007561                     RS G Rayachoti                     TRIBAL WELFARE RESIDENTIAL EDUCATI            32444007561                        URGENT  RS G Rayachoti           32444007561     
R4111583707751     000000007799030000000000000000000000000033881454741PAO GOVT OF AP Hyderabad salary    STATE BANK OF INDIA SECRETARIAT    11583707751                     RS G Thanakal                      TRIBAL WELFARE RESIDENTIAL EDUCATI            11583707751                        URGENT  RS G Thanakal            11583707751     
R4133628591597     000000003445450000000000000000000000000033881454741PAO GOVT OF AP Hyderabad salary    STATE BANK OF INDIA SECRETARIAT    33628591597                     RJC B Maredumilli                  TRIBAL WELFARE RESIDENTIAL EDUCATI            33628591597                        URGENT  RJC B Maredumilli        33628591597     
R4133193472309     000000002895670000000000000000000000000033881454741PAO GOVT OF AP Hyderabad salary    STATE BANK OF INDIA SECRETARIAT    33193472309                     COE Thanakallu                     TRIBAL WELFARE RESIDENTIAL EDUCATI            33193472309                        URGENT  COE Thanakallu           33193472309     
