R41000000008365990000000000000000000000000033881454741PAO GOVT OF AP Hyderabad salary    STATE BANK OF INDIA SECRETARIAT    109610025000473                 Sri PAswartha Reddy                MED SERV & INF DEVP CORPN AP- MANA ANDB0001096MED SERV & INF DEVP CORPN AP- MANA URGENT  Sri PAswartha Reddy                                       0176602         EMLdpao-sect@ap.nic.in             
R41000000000186910000000000000000000000000033881454741PAO GOVT OF AP Hyderabad salary    STATE BANK OF INDIA SECRETARIAT    142210011200206                 AP Labour Cess Commissioner HyderabMED SERV & INF DEVP CORPN AP- MANA ANDB0001422MED SERV & INF DEVP CORPN AP- MANA URGENT  AP Labour Cess Commission                                 0176603         EMLdpao-sect@ap.nic.in             
R41000000001514680000000000000000000000000033881454741PAO GOVT OF AP Hyderabad salary    STATE BANK OF INDIA SECRETARIAT    142410011000314                 MD APMSIDC Hyderabad               MED SERV & INF DEVP CORPN AP- MANA ANDB0001424MED SERV & INF DEVP CORPN AP- MANA URGENT  MD APMSIDC Hyderabad                                      0176604         EMLdpao-sect@ap.nic.in             
