R4109540500000055  000000001334000000000000000000000099999999999999999PAO GOVT OF AP Hyderabad salary    STATE BANK OF INDIA SECRETARIAT    09540500000055                  Bhagyanagar Khadi Board            FILM AND TV DEVELOPMENT  CORPORATI BARB0KHAIRA09540500000055                     URGENT  Bhagyanagar Khadi Board  09540500000055  
R4111111131000879  000000001568000000000000000000000099999999999999999PAO GOVT OF AP Hyderabad salary    STATE BANK OF INDIA SECRETARIAT    11111131000879                  Trias Software & Consulting ServiceFILM AND TV DEVELOPMENT  CORPORATI ORBC010111111111131000879                     URGENT  Trias Software & Consulti11111131000879  
R4152188920073     000000000032000000000000000000000099999999999999999PAO GOVT OF AP Hyderabad salary    STATE BANK OF INDIA SECRETARIAT    52188920073                     APSFTVTDC                          FILM AND TV DEVELOPMENT  CORPORATI SBHY002007052188920073                        URGENT  APSFTVTDC                52188920073     
