R41000000017320000000000000000000000000000033881454741PAO GOVT OF AP Hyderabad salary    STATE BANK OF INDIA SECRETARIAT    62287658574                     Satyam Seeds                       SEEDS DEV CORP AP STATE -VC & MD   SBHY002057562287658574                        URGENT  Satyam Seeds                                              62287658574     EMLdpao-sect@ap.nic.in             
R41000000024520000000000000000000000000000033881454741PAO GOVT OF AP Hyderabad salary    STATE BANK OF INDIA SECRETARIAT    179120000148589                 Akash Agro Tech                    SEEDS DEV CORP AP STATE -VC & MD   CIUB0000179179120000148589                    URGENT  Akash Agro Tech                                           179120000148589 EMLdpao-sect@ap.nic.in             
R41000000071520000000000000000000000000000033881454741PAO GOVT OF AP Hyderabad salary    STATE BANK OF INDIA SECRETARIAT    122211011000144                 Vijetha Agri Tech                  SEEDS DEV CORP AP STATE -VC & MD   ANDB0001222122211011000144                    URGENT  Vijetha Agri Tech                                         122211011000144 EMLdpao-sect@ap.nic.in             
R41000000023690000000000000000000000000000033881454741PAO GOVT OF AP Hyderabad salary    STATE BANK OF INDIA SECRETARIAT    746011010957                    Jaswanth Seeds                     SEEDS DEV CORP AP STATE -VC & MD   VYSA0007460746011010957                       URGENT  Jaswanth Seeds                                            746011010957    EMLdpao-sect@ap.nic.in             
R41000000059080000000000000000000000000000033881454741PAO GOVT OF AP Hyderabad salary    STATE BANK OF INDIA SECRETARIAT    17500500000126                  Bharatiya Trading Company          SEEDS DEV CORP AP STATE -VC & MD   UCBA000175017500500000126                     URGENT  Bharatiya Trading Company                                 17500500000126  EMLdpao-sect@ap.nic.in             
R41000000103820000000000000000000000000000033881454741PAO GOVT OF AP Hyderabad salary    STATE BANK OF INDIA SECRETARIAT    868920100000025                 Vijaya Agro Seeds                  SEEDS DEV CORP AP STATE -VC & MD   BKID0008689868920100000025                    URGENT  Vijaya Agro Seeds                                         868920100000025 EMLdpao-sect@ap.nic.in             
R41000000031110000000000000000000000000000033881454741PAO GOVT OF AP Hyderabad salary    STATE BANK OF INDIA SECRETARIAT    179120000203504                 Sri Venkateswara Traders           SEEDS DEV CORP AP STATE -VC & MD   CIUB0000179179120000203504                    URGENT  Sri Venkateswara Traders                                  179120000203504 EMLdpao-sect@ap.nic.in             
R41000000009930000000000000000000000000000033881454741PAO GOVT OF AP Hyderabad salary    STATE BANK OF INDIA SECRETARIAT    332044030024                    Sri Rama Krishna Oil Mills         SEEDS DEV CORP AP STATE -VC & MD   VYSA0003320332044030024                       URGENT  Sri Rama Krishna Oil Mill                                 332044030024    EMLdpao-sect@ap.nic.in             
