R41000000000076500000000000000000000000000033977608672Tribal Welfare Residential Educational Institutions Society, AP- SecretarySTATE BANK OF INDIA                62033888019                     S Lakshmana Rao DS Acad            TRIBAL WELFARE RESIDENTIAL EDUCATI SBHY0021026TRIBAL WELFARE RESIDENTIAL EDUCATI URGENT  S Lakshmana Rao DS Acad                                   0182061         gklmaccts@gmail.com                
R41000000000082000000000000000000000000000033977608672Tribal Welfare Residential Educational Institutions Society, AP- SecretarySTATE BANK OF INDIA                62180766113                     R Lokendran AS                     TRIBAL WELFARE RESIDENTIAL EDUCATI SBHY0021026TRIBAL WELFARE RESIDENTIAL EDUCATI URGENT  R Lokendran AS                                            0182062         gklmaccts@gmail.com                
R41000000000260000000000000000000000000000033977608672Tribal Welfare Residential Educational Institutions Society, AP- SecretarySTATE BANK OF INDIA                62029114528                     SOE Parvathipuram                  TRIBAL WELFARE RESIDENTIAL EDUCATI SBHY0021005TRIBAL WELFARE RESIDENTIAL EDUCATI URGENT  SOE Parvathipuram                                         0182063         gklmaccts@gmail.com                
R41000000000190210000000000000000000000000033977608672Tribal Welfare Residential Educational Institutions Society, AP- SecretarySTATE BANK OF INDIA                62176381040                     B Appalanaidu                      TRIBAL WELFARE RESIDENTIAL EDUCATI SBHY0020963TRIBAL WELFARE RESIDENTIAL EDUCATI URGENT  B Appalanaidu                                             0182064         gklmaccts@gmail.com                
