R4111627539187     000000010406270000000000000000000000000033881454741PAO GOVT OF AP Hyderabad salary    STATE BANK OF INDIA SECRETARIAT    11627539187                     RS G Bhadragiri                    TRIBAL WELFARE RESIDENTIAL EDUCATI            11627539187                        URGENT  RS G Bhadragiri          11627539187     
R4131599391228     000000007385610000000000000000000000000033881454741PAO GOVT OF AP Hyderabad salary    STATE BANK OF INDIA SECRETARIAT    31599391228                     URJC G Kurupam                     TRIBAL WELFARE RESIDENTIAL EDUCATI            31599391228                        URGENT  URJC G Kurupam           31599391228     
R4133105524909     000000008655640000000000000000000000000033881454741PAO GOVT OF AP Hyderabad salary    STATE BANK OF INDIA SECRETARIAT    33105524909                     RS G Kunavaram                     TRIBAL WELFARE RESIDENTIAL EDUCATI            33105524909                        URGENT  RS G Kunavaram           33105524909     
R4133927648886     000000002067980000000000000000000000000033881454741PAO GOVT OF AP Hyderabad salary    STATE BANK OF INDIA SECRETARIAT    33927648886                     R S G K V Palli at Piller          TRIBAL WELFARE RESIDENTIAL EDUCATI            33927648886                        URGENT  R S G K V Palli at Piller33927648886     
R4131863175446     000000002007690000000000000000000000000033881454741PAO GOVT OF AP Hyderabad salary    STATE BANK OF INDIA SECRETARIAT    31863175446                     RS B G K Veedhi                    TRIBAL WELFARE RESIDENTIAL EDUCATI            31863175446                        URGENT  RS B G K Veedhi          31863175446     
R4111516007679     000000008721550000000000000000000000000033881454741PAO GOVT OF AP Hyderabad salary    STATE BANK OF INDIA SECRETARIAT    11516007679                     RS G Y Ramavaram                   TRIBAL WELFARE RESIDENTIAL EDUCATI            11516007679                        URGENT  RS G Y Ramavaram         11516007679     
R4134087362344     000000016558940000000000000000000000000033881454741PAO GOVT OF AP Hyderabad salary    STATE BANK OF INDIA SECRETARIAT    34087362344                     RS G Kodavaluru                    TRIBAL WELFARE RESIDENTIAL EDUCATI            34087362344                        URGENT  RS G Kodavaluru          34087362344     
R4131849474409     000000007748130000000000000000000000000033881454741PAO GOVT OF AP Hyderabad salary    STATE BANK OF INDIA SECRETARIAT    31849474409                     RS B EM Renigunta                  TRIBAL WELFARE RESIDENTIAL EDUCATI            31849474409                        URGENT  RS B EM Renigunta        31849474409     
R4132083975133     000000007796330000000000000000000000000033881454741PAO GOVT OF AP Hyderabad salary    STATE BANK OF INDIA SECRETARIAT    32083975133                     RJC G P Konavalasa                 TRIBAL WELFARE RESIDENTIAL EDUCATI            32083975133                        URGENT  RJC G P Konavalasa       32083975133     
