R41000000000122880000000000000000000099999999999999999PAO GOVT OF AP Hyderabad salary    STATE BANK OF INDIA SECRETARIAT    62188483004                     Shelton Hospitality Pvt Ltd        FILM AND TV DEVELOPMENT  CORPORATI SBHY002033962188483004                        URGENT  Shelton Hospitality Pvt L62188483004     
R41000000000250000000000000000000000099999999999999999PAO GOVT OF AP Hyderabad salary    STATE BANK OF INDIA SECRETARIAT    16720100011092                  Reddy Umarani                      FILM AND TV DEVELOPMENT  CORPORATI BARB0HUKUMP16720100011092                     URGENT  Reddy Umarani            16720100011092  
R41000000000013500000000000000000000099999999999999999PAO GOVT OF AP Hyderabad salary    STATE BANK OF INDIA SECRETARIAT    52188920073                     APSFTVTDC LTD                      FILM AND TV DEVELOPMENT  CORPORATI SBHY002007052188920073                        URGENT  APSFTVTDC LTD            52188920073     
