R4152082155102     000000001844410000000000000000000000000000000000011TECH SERV LTD - AP, Managing DirectorSTATE BANK OF INDIA                52082155102                     AP Technology Services Ltd         TECH SERV LTD - AP MANAGING DIRECT SBHY002043252082155102                        URGENT  AP Technology Services Lt52082155102     
R4152082155102     000000001492950000000000000000000000000000000000011TECH SERV LTD - AP, Managing DirectorSTATE BANK OF INDIA                52082155102                     AP Technology Services Ltd         TECH SERV LTD - AP MANAGING DIRECT SBHY002043252082155102                        URGENT  AP Technology Services Lt52082155102     
R4152082155102     000000002189060000000000000000000000000000000000011TECH SERV LTD - AP, Managing DirectorSTATE BANK OF INDIA                52082155102                     AP Technology Services Ltd         TECH SERV LTD - AP MANAGING DIRECT SBHY002043252082155102                        URGENT  AP Technology Services Lt52082155102     
R4144605033970     000000000045000000000000000000000000000000000000011TECH SERV LTD - AP, Managing DirectorSTATE BANK OF INDIA                44605033970                     Swamy Associates                   TECH SERV LTD - AP MANAGING DIRECT SCBL003607544605033970                        URGENT  Swamy Associates         44605033970     
