R41000000020000000000000000000000000000000033881454741PAO GOVT OF AP Hyderabad salary    STATE BANK OF INDIA SECRETARIAT    002603261200002                 Winstreet Impex Pvt Ltd            INDUSTRIES COMMISSIONER AND DIRECT IOBA0000026INDUSTRIES COMMISSIONER AND DIRECT URGENT  Winstreet Impex Pvt Ltd                                   0172334         EMLdpao-sect@ap.nic.in             
R41000000002940000000000000000000000000000033881454741PAO GOVT OF AP Hyderabad salary    STATE BANK OF INDIA SECRETARIAT    62311197822                     Visakha Melting Company            INDUSTRIES COMMISSIONER AND DIRECT SBHY0021030INDUSTRIES COMMISSIONER AND DIRECT URGENT  Visakha Melting Company                                   0172335         EMLdpao-sect@ap.nic.in             
R41000000008148080000000000000000000000000033881454741PAO GOVT OF AP Hyderabad salary    STATE BANK OF INDIA SECRETARIAT    62311197822                     Visakha Melting Company            INDUSTRIES COMMISSIONER AND DIRECT SBHY0021030INDUSTRIES COMMISSIONER AND DIRECT URGENT  Visakha Melting Company                                   0172336         EMLdpao-sect@ap.nic.in             
R41000000013566600000000000000000000000000033881454741PAO GOVT OF AP Hyderabad salary    STATE BANK OF INDIA SECRETARIAT    3297000600115301                Sree Balaji Briquettes and Bio MassINDUSTRIES COMMISSIONER AND DIRECT KARB0000329INDUSTRIES COMMISSIONER AND DIRECT URGENT  Sree Balaji Briquettes an                                 0172337         EMLdpao-sect@ap.nic.in             
R41000000003107500000000000000000000000000033881454741PAO GOVT OF AP Hyderabad salary    STATE BANK OF INDIA SECRETARIAT    3297000600115301                Sree Balaji Briquettes and Bio MassINDUSTRIES COMMISSIONER AND DIRECT KARB0000329INDUSTRIES COMMISSIONER AND DIRECT URGENT  Sree Balaji Briquettes an                                 0172338         EMLdpao-sect@ap.nic.in             
R41000000000996000000000000000000000000000033881454741PAO GOVT OF AP Hyderabad salary    STATE BANK OF INDIA SECRETARIAT    3297000600115301                Sree Balaji Briquettes and Bio MassINDUSTRIES COMMISSIONER AND DIRECT KARB0000329INDUSTRIES COMMISSIONER AND DIRECT URGENT  Sree Balaji Briquettes an                                 0172339         EMLdpao-sect@ap.nic.in             
R41000000000144900000000000000000000000000033881454741PAO GOVT OF AP Hyderabad salary    STATE BANK OF INDIA SECRETARIAT    1458729000001431                Sai Teja Granites                  INDUSTRIES COMMISSIONER AND DIRECT KVBL0001458INDUSTRIES COMMISSIONER AND DIRECT URGENT  Sai Teja Granites                                         01723310        EMLdpao-sect@ap.nic.in             
R41000000000029500000000000000000000000000033881454741PAO GOVT OF AP Hyderabad salary    STATE BANK OF INDIA SECRETARIAT    1458729000001431                Sai Teja Granites                  INDUSTRIES COMMISSIONER AND DIRECT KVBL0001458INDUSTRIES COMMISSIONER AND DIRECT URGENT  Sai Teja Granites                                         01723311        EMLdpao-sect@ap.nic.in             
R41000000002612970000000000000000000000000033881454741PAO GOVT OF AP Hyderabad salary    STATE BANK OF INDIA SECRETARIAT    4930001B00000069                Kisan Coir Industries              INDUSTRIES COMMISSIONER AND DIRECT PUNB0493000INDUSTRIES COMMISSIONER AND DIRECT URGENT  Kisan Coir Industries                                     01723312        EMLdpao-sect@ap.nic.in             
