R41002610100236657 000000000600000000000000000000000099999999999999999PAO GOVT OF AP Hyderabad salary    STATE BANK OF INDIA SECRETARIAT    002610100236657                 Neradu Krishnaiah                  SC COOP FIN CORPORATION AP VCAND M ANDB0000026002610100236657                    URGENT  Neradu Krishnaiah        002610100236657 
R41002610100236666 000000000600000000000000000000000099999999999999999PAO GOVT OF AP Hyderabad salary    STATE BANK OF INDIA SECRETARIAT    002610100236666                 Neredu Venkata Swami               SC COOP FIN CORPORATION AP VCAND M ANDB0000026002610100236666                    URGENT  Neredu Venkata Swami     002610100236666 
R41002610100235311 000000001000000000000000000000000099999999999999999PAO GOVT OF AP Hyderabad salary    STATE BANK OF INDIA SECRETARIAT    002610100235311                 Bangi Linga Raju                   SC COOP FIN CORPORATION AP VCAND M ANDB0000026002610100235311                    URGENT  Bangi Linga Raju         002610100235311 
R41002610100236514 000000000600000000000000000000000099999999999999999PAO GOVT OF AP Hyderabad salary    STATE BANK OF INDIA SECRETARIAT    002610100236514                 Neradi Ruthamma                    SC COOP FIN CORPORATION AP VCAND M ANDB0000026002610100236514                    URGENT  Neradi Ruthamma          002610100236514 
R41002610100236462 000000000600000000000000000000000099999999999999999PAO GOVT OF AP Hyderabad salary    STATE BANK OF INDIA SECRETARIAT    002610100236462                 Basipogu Pakkiraiah                SC COOP FIN CORPORATION AP VCAND M ANDB0000026002610100236462                    URGENT  Basipogu Pakkiraiah      002610100236462 
R41002610100236259 000000000600000000000000000000000099999999999999999PAO GOVT OF AP Hyderabad salary    STATE BANK OF INDIA SECRETARIAT    002610100236259                 Madugula Annamma                   SC COOP FIN CORPORATION AP VCAND M ANDB0000026002610100236259                    URGENT  Madugula Annamma         002610100236259 
R41002610100235296 000000000600000000000000000000000099999999999999999PAO GOVT OF AP Hyderabad salary    STATE BANK OF INDIA SECRETARIAT    002610100235296                 Basipogy Naga Raju                 SC COOP FIN CORPORATION AP VCAND M ANDB0000026002610100235296                    URGENT  Basipogy Naga Raju       002610100235296 
R41002610100236648 000000000600000000000000000000000099999999999999999PAO GOVT OF AP Hyderabad salary    STATE BANK OF INDIA SECRETARIAT    002610100236648                 Kelurlu Venkata Swami              SC COOP FIN CORPORATION AP VCAND M ANDB0000026002610100236648                    URGENT  Kelurlu Venkata Swami    002610100236648 
R41002610100236268 000000000600000000000000000000000099999999999999999PAO GOVT OF AP Hyderabad salary    STATE BANK OF INDIA SECRETARIAT    002610100236268                 Kanakam Saraswati                  SC COOP FIN CORPORATION AP VCAND M ANDB0000026002610100236268                    URGENT  Kanakam Saraswati        002610100236268 
R41002610100235269 000000000600000000000000000000000099999999999999999PAO GOVT OF AP Hyderabad salary    STATE BANK OF INDIA SECRETARIAT    002610100235269                 Madugula Sekhar                    SC COOP FIN CORPORATION AP VCAND M ANDB0000026002610100235269                    URGENT  Madugula Sekhar          002610100235269 
R41002610100236675 000000000420000000000000000000000099999999999999999PAO GOVT OF AP Hyderabad salary    STATE BANK OF INDIA SECRETARIAT    002610100236675                 Nerudu Dibbanna                    SC COOP FIN CORPORATION AP VCAND M ANDB0000026002610100236675                    URGENT  Nerudu Dibbanna          002610100236675 
R41002610100231980 000000000420000000000000000000000099999999999999999PAO GOVT OF AP Hyderabad salary    STATE BANK OF INDIA SECRETARIAT    002610100231980                 Goguuru Rameswaramma               SC COOP FIN CORPORATION AP VCAND M ANDB0000026002610100231980                    URGENT  Goguuru Rameswaramma     002610100231980 
R41002610100236240 000000000600000000000000000000000099999999999999999PAO GOVT OF AP Hyderabad salary    STATE BANK OF INDIA SECRETARIAT    002610100236240                 Kundarapu Ashok                    SC COOP FIN CORPORATION AP VCAND M ANDB0000026002610100236240                    URGENT  Kundarapu Ashok          002610100236240 
R41005910100104978 000000000600000000000000000000000099999999999999999PAO GOVT OF AP Hyderabad salary    STATE BANK OF INDIA SECRETARIAT    005910100104978                 Mekala Rama Maddilety              SC COOP FIN CORPORATION AP VCAND M ANDB0000059005910100104978                    URGENT  Mekala Rama Maddilety    005910100104978 
R41076210100057722 000000000600000000000000000000000099999999999999999PAO GOVT OF AP Hyderabad salary    STATE BANK OF INDIA SECRETARIAT    076210100057722                 Garlapati Subbarayudu              SC COOP FIN CORPORATION AP VCAND M ANDB0000762076210100057722                    URGENT  Garlapati Subbarayudu    076210100057722 
R41076210100057607 000000000360000000000000000000000099999999999999999PAO GOVT OF AP Hyderabad salary    STATE BANK OF INDIA SECRETARIAT    076210100057607                 Govardhanagiri Munemma             SC COOP FIN CORPORATION AP VCAND M ANDB0000762076210100057607                    URGENT  Govardhanagiri Munemma   076210100057607 
R41076210100057625 000000000360000000000000000000000099999999999999999PAO GOVT OF AP Hyderabad salary    STATE BANK OF INDIA SECRETARIAT    076210100057625                 Chatla Suvarna                     SC COOP FIN CORPORATION AP VCAND M ANDB0000762076210100057625                    URGENT  Chatla Suvarna           076210100057625 
R41076210100057616 000000000360000000000000000000000099999999999999999PAO GOVT OF AP Hyderabad salary    STATE BANK OF INDIA SECRETARIAT    076210100057616                 Bandaru Venkateshwaramma           SC COOP FIN CORPORATION AP VCAND M ANDB0000762076210100057616                    URGENT  Bandaru Venkateshwaramma 076210100057616 
R41011110100234242 000000000600000000000000000000000099999999999999999PAO GOVT OF AP Hyderabad salary    STATE BANK OF INDIA SECRETARIAT    011110100234242                 Harijana Raju                      SC COOP FIN CORPORATION AP VCAND M ANDB0000111011110100234242                    URGENT  Harijana Raju            011110100234242 
R41011110100234251 000000000600000000000000000000000099999999999999999PAO GOVT OF AP Hyderabad salary    STATE BANK OF INDIA SECRETARIAT    011110100234251                 Koilakonda Eswaraiah               SC COOP FIN CORPORATION AP VCAND M ANDB0000111011110100234251                    URGENT  Koilakonda Eswaraiah     011110100234251 
R41152510100048113 000000000360000000000000000000000099999999999999999PAO GOVT OF AP Hyderabad salary    STATE BANK OF INDIA SECRETARIAT    152510100048113                 Moola Sreenivasulu                 SC COOP FIN CORPORATION AP VCAND M ANDB0001525152510100048113                    URGENT  Moola Sreenivasulu       152510100048113 
R41143010100062432 000000000600000000000000000000000099999999999999999PAO GOVT OF AP Hyderabad salary    STATE BANK OF INDIA SECRETARIAT    143010100062432                 AShanthi                           SC COOP FIN CORPORATION AP VCAND M ANDB0001430143010100062432                    URGENT  AShanthi                 143010100062432 
R41143010100062487 000000000600000000000000000000000099999999999999999PAO GOVT OF AP Hyderabad salary    STATE BANK OF INDIA SECRETARIAT    143010100062487                 AThulasi                           SC COOP FIN CORPORATION AP VCAND M ANDB0001430143010100062487                    URGENT  AThulasi                 143010100062487 
R41143010100062690 000000001000000000000000000000000099999999999999999PAO GOVT OF AP Hyderabad salary    STATE BANK OF INDIA SECRETARIAT    143010100062690                 Meesala Varalakshmi                SC COOP FIN CORPORATION AP VCAND M ANDB0001430143010100062690                    URGENT  Meesala Varalakshmi      143010100062690 
R41029410100080906 000000000480000000000000000000000099999999999999999PAO GOVT OF AP Hyderabad salary    STATE BANK OF INDIA SECRETARIAT    029410100080906                 Netti Koppula Seshanna             SC COOP FIN CORPORATION AP VCAND M ANDB0000294029410100080906                    URGENT  Netti Koppula Seshanna   029410100080906 
R41029430100097128 000000000456000000000000000000000099999999999999999PAO GOVT OF AP Hyderabad salary    STATE BANK OF INDIA SECRETARIAT    029430100097128                 Katapogu Sheshavedhamma            SC COOP FIN CORPORATION AP VCAND M ANDB0000294029430100097128                    URGENT  Katapogu Sheshavedhamma  029430100097128 
R41039010100191992 000000000600000000000000000000000099999999999999999PAO GOVT OF AP Hyderabad salary    STATE BANK OF INDIA SECRETARIAT    039010100191992                 Kaloor Chinna Linganna             SC COOP FIN CORPORATION AP VCAND M ANDB0000390039010100191992                    URGENT  Kaloor Chinna Linganna   039010100191992 
R41039010100192007 000000000360000000000000000000000099999999999999999PAO GOVT OF AP Hyderabad salary    STATE BANK OF INDIA SECRETARIAT    039010100192007                 Middela Raju                       SC COOP FIN CORPORATION AP VCAND M ANDB0000390039010100192007                    URGENT  Middela Raju             039010100192007 
R41039010100192016 000000000360000000000000000000000099999999999999999PAO GOVT OF AP Hyderabad salary    STATE BANK OF INDIA SECRETARIAT    039010100192016                 Kalooru Dhaavedu                   SC COOP FIN CORPORATION AP VCAND M ANDB0000390039010100192016                    URGENT  Kalooru Dhaavedu         039010100192016 
R41040710100058040 000000000600000000000000000000000099999999999999999PAO GOVT OF AP Hyderabad salary    STATE BANK OF INDIA SECRETARIAT    040710100058040                 Pasupala Lakshmaiah                SC COOP FIN CORPORATION AP VCAND M ANDB0000407040710100058040                    URGENT  Pasupala Lakshmaiah      040710100058040 
R41040710100058031 000000000600000000000000000000000099999999999999999PAO GOVT OF AP Hyderabad salary    STATE BANK OF INDIA SECRETARIAT    040710100058031                 Kommoji Rama Pullayya              SC COOP FIN CORPORATION AP VCAND M ANDB0000407040710100058031                    URGENT  Kommoji Rama Pullayya    040710100058031 
R41065210100145717 000000001200000000000000000000000099999999999999999PAO GOVT OF AP Hyderabad salary    STATE BANK OF INDIA SECRETARIAT    065210100145717                 Harijana Asirawadhamma             SC COOP FIN CORPORATION AP VCAND M ANDB0000652065210100145717                    URGENT  Harijana Asirawadhamma   065210100145717 
R4191034392739     000000000450000000000000000000000099999999999999999PAO GOVT OF AP Hyderabad salary    STATE BANK OF INDIA SECRETARIAT    91034392739                     Madega Ramudu                      SC COOP FIN CORPORATION AP VCAND M APGB000302191034392739                        URGENT  Madega Ramudu            91034392739     
R4119059082227     000000000510000000000000000000000099999999999999999PAO GOVT OF AP Hyderabad salary    STATE BANK OF INDIA SECRETARIAT    19059082227                     Thuppeda Ramalingappa              SC COOP FIN CORPORATION AP VCAND M APGB000302119059082227                        URGENT  Thuppeda Ramalingappa    19059082227     
R4191035650190     000000000360000000000000000000000099999999999999999PAO GOVT OF AP Hyderabad salary    STATE BANK OF INDIA SECRETARIAT    91035650190                     Panga Suvarna                      SC COOP FIN CORPORATION AP VCAND M APGB000314791035650190                        URGENT  Panga Suvarna            91035650190     
R4191036941451     000000000600000000000000000000000099999999999999999PAO GOVT OF AP Hyderabad salary    STATE BANK OF INDIA SECRETARIAT    91036941451                     Jakka Pogula Padmavathi            SC COOP FIN CORPORATION AP VCAND M APGB000314791036941451                        URGENT  Jakka Pogula Padmavathi  91036941451     
R4119077562268     000000000420000000000000000000000099999999999999999PAO GOVT OF AP Hyderabad salary    STATE BANK OF INDIA SECRETARIAT    19077562268                     Mala Rama Devi                     SC COOP FIN CORPORATION AP VCAND M APGB000306319077562268                        URGENT  Mala Rama Devi           19077562268     
R4191032765841     000000000360000000000000000000000099999999999999999PAO GOVT OF AP Hyderabad salary    STATE BANK OF INDIA SECRETARIAT    91032765841                     Lavanya                            SC COOP FIN CORPORATION AP VCAND M APGB000314991032765841                        URGENT  Lavanya                  91032765841     
R4191032409247     000000000360000000000000000000000099999999999999999PAO GOVT OF AP Hyderabad salary    STATE BANK OF INDIA SECRETARIAT    91032409247                     Sandyapogu Somanna                 SC COOP FIN CORPORATION AP VCAND M APGB000314991032409247                        URGENT  Sandyapogu Somanna       91032409247     
R4119054044752     000000000360000000000000000000000099999999999999999PAO GOVT OF AP Hyderabad salary    STATE BANK OF INDIA SECRETARIAT    19054044752                     Harijana Devaraju                  SC COOP FIN CORPORATION AP VCAND M APGB000314919054044752                        URGENT  Harijana Devaraju        19054044752     
R4191010571099     000000000360000000000000000000000099999999999999999PAO GOVT OF AP Hyderabad salary    STATE BANK OF INDIA SECRETARIAT    91010571099                     Harijana Bhagyamma                 SC COOP FIN CORPORATION AP VCAND M APGB000314991010571099                        URGENT  Harijana Bhagyamma       91010571099     
R4119179525356     000000000360000000000000000000000099999999999999999PAO GOVT OF AP Hyderabad salary    STATE BANK OF INDIA SECRETARIAT    19179525356                     Bandaru Jammanna                   SC COOP FIN CORPORATION AP VCAND M APGB000307319179525356                        URGENT  Bandaru Jammanna         19179525356     
R4119179560243     000000000360000000000000000000000099999999999999999PAO GOVT OF AP Hyderabad salary    STATE BANK OF INDIA SECRETARIAT    19179560243                     M Sekappa                          SC COOP FIN CORPORATION AP VCAND M APGB000307319179560243                        URGENT  M Sekappa                19179560243     
R4191006632391     000000000360000000000000000000000099999999999999999PAO GOVT OF AP Hyderabad salary    STATE BANK OF INDIA SECRETARIAT    91006632391                     Gandam Pullaiah                    SC COOP FIN CORPORATION AP VCAND M APGB000307391006632391                        URGENT  Gandam Pullaiah          91006632391     
R4191053833466     000000000360000000000000000000000099999999999999999PAO GOVT OF AP Hyderabad salary    STATE BANK OF INDIA SECRETARIAT    91053833466                     Mallepogu Suvarthamma              SC COOP FIN CORPORATION AP VCAND M APGB000307491053833466                        URGENT  Mallepogu Suvarthamma    91053833466     
R419105450531      000000000360000000000000000000000099999999999999999PAO GOVT OF AP Hyderabad salary    STATE BANK OF INDIA SECRETARIAT    9105450531                      Madiga Dasthagiri                  SC COOP FIN CORPORATION AP VCAND M APGB00031419105450531                         URGENT  Madiga Dasthagiri        9105450531      
R4119062101804     000000000600000000000000000000000099999999999999999PAO GOVT OF AP Hyderabad salary    STATE BANK OF INDIA SECRETARIAT    19062101804                     Padyapogu Bujjamma                 SC COOP FIN CORPORATION AP VCAND M APGB000300919062101804                        URGENT  Padyapogu Bujjamma       19062101804     
R4191013365868     000000000360000000000000000000000099999999999999999PAO GOVT OF AP Hyderabad salary    STATE BANK OF INDIA SECRETARIAT    91013365868                     Budida Bhaskar                     SC COOP FIN CORPORATION AP VCAND M APGB000301191013365868                        URGENT  Budida Bhaskar           91013365868     
R4191008506158     000000000360000000000000000000000099999999999999999PAO GOVT OF AP Hyderabad salary    STATE BANK OF INDIA SECRETARIAT    91008506158                     Madiga Ragu Ramudu                 SC COOP FIN CORPORATION AP VCAND M APGB000301191008506158                        URGENT  Madiga Ragu Ramudu       91008506158     
R4191053628221     000000000360000000000000000000000099999999999999999PAO GOVT OF AP Hyderabad salary    STATE BANK OF INDIA SECRETARIAT    91053628221                     Erapogu Thimanna                   SC COOP FIN CORPORATION AP VCAND M APGB000310091053628221                        URGENT  Erapogu Thimanna         91053628221     
R4191051723783     000000000360000000000000000000000099999999999999999PAO GOVT OF AP Hyderabad salary    STATE BANK OF INDIA SECRETARIAT    91051723783                     Premavaram Kiran Kumar             SC COOP FIN CORPORATION AP VCAND M APGB000310091051723783                        URGENT  Premavaram Kiran Kumar   91051723783     
R4191030792741     000000000600000000000000000000000099999999999999999PAO GOVT OF AP Hyderabad salary    STATE BANK OF INDIA SECRETARIAT    91030792741                     Pulikanti Hymavathi                SC COOP FIN CORPORATION AP VCAND M APGB000315991030792741                        URGENT  Pulikanti Hymavathi      91030792741     
R4191035401290     000000000360000000000000000000000099999999999999999PAO GOVT OF AP Hyderabad salary    STATE BANK OF INDIA SECRETARIAT    91035401290                     Usuulla Madhu Gopal                SC COOP FIN CORPORATION AP VCAND M APGB000302991035401290                        URGENT  Usuulla Madhu Gopal      91035401290     
R4191035211277     000000000480000000000000000000000099999999999999999PAO GOVT OF AP Hyderabad salary    STATE BANK OF INDIA SECRETARIAT    91035211277                     V Nagalakshamma                    SC COOP FIN CORPORATION AP VCAND M APGB000302991035211277                        URGENT  V Nagalakshamma          91035211277     
R4191035398219     000000000360000000000000000000000099999999999999999PAO GOVT OF AP Hyderabad salary    STATE BANK OF INDIA SECRETARIAT    91035398219                     Bala Timmaiah                      SC COOP FIN CORPORATION AP VCAND M APGB000302991035398219                        URGENT  Bala Timmaiah            91035398219     
R4191035206006     000000000360000000000000000000000099999999999999999PAO GOVT OF AP Hyderabad salary    STATE BANK OF INDIA SECRETARIAT    91035206006                     Yarram Chinnama                    SC COOP FIN CORPORATION AP VCAND M APGB000302991035206006                        URGENT  Yarram Chinnama          91035206006     
R4191035351543     000000000360000000000000000000000099999999999999999PAO GOVT OF AP Hyderabad salary    STATE BANK OF INDIA SECRETARIAT    91035351543                     Nandavaram Ranakka                 SC COOP FIN CORPORATION AP VCAND M APGB000302991035351543                        URGENT  Nandavaram Ranakka       91035351543     
R4191035206095     000000000360000000000000000000000099999999999999999PAO GOVT OF AP Hyderabad salary    STATE BANK OF INDIA SECRETARIAT    91035206095                     Mugolla Salamma                    SC COOP FIN CORPORATION AP VCAND M APGB000302991035206095                        URGENT  Mugolla Salamma          91035206095     
R4191053551391     000000000180000000000000000000000099999999999999999PAO GOVT OF AP Hyderabad salary    STATE BANK OF INDIA SECRETARIAT    91053551391                     Maladasari Mallika Christiana      SC COOP FIN CORPORATION AP VCAND M APGB000307091053551391                        URGENT  Maladasari Mallika Christ91053551391     
R4191053551175     000000000180000000000000000000000099999999999999999PAO GOVT OF AP Hyderabad salary    STATE BANK OF INDIA SECRETARIAT    91053551175                     Maladasari Usharani                SC COOP FIN CORPORATION AP VCAND M APGB000307091053551175                        URGENT  Maladasari Usharani      91053551175     
R4191053619828     000000000180000000000000000000000099999999999999999PAO GOVT OF AP Hyderabad salary    STATE BANK OF INDIA SECRETARIAT    91053619828                     Banala Santhoshamma                SC COOP FIN CORPORATION AP VCAND M APGB000307091053619828                        URGENT  Banala Santhoshamma      91053619828     
R4191053619975     000000000180000000000000000000000099999999999999999PAO GOVT OF AP Hyderabad salary    STATE BANK OF INDIA SECRETARIAT    91053619975                     Banala Suvedamma                   SC COOP FIN CORPORATION AP VCAND M APGB000307091053619975                        URGENT  Banala Suvedamma         91053619975     
R41864510410000397 000000000600000000000000000000000099999999999999999PAO GOVT OF AP Hyderabad salary    STATE BANK OF INDIA SECRETARIAT    864510410000397                 A Buchamma                         SC COOP FIN CORPORATION AP VCAND M BKID0008645864510410000397                    URGENT  A Buchamma               864510410000397 
R411816119000054   000000000300000000000000000000000099999999999999999PAO GOVT OF AP Hyderabad salary    STATE BANK OF INDIA SECRETARIAT    1816119000054                   Madiga Nagaraju                    SC COOP FIN CORPORATION AP VCAND M CNRB00018161816119000054                      URGENT  Madiga Nagaraju          1816119000054   
R411816119000053   000000000360000000000000000000000099999999999999999PAO GOVT OF AP Hyderabad salary    STATE BANK OF INDIA SECRETARIAT    1816119000053                   Madiga Emaniyelu                   SC COOP FIN CORPORATION AP VCAND M CNRB00018161816119000053                      URGENT  Madiga Emaniyelu         1816119000053   
R410661108040712   000000000600000000000000000000000099999999999999999PAO GOVT OF AP Hyderabad salary    STATE BANK OF INDIA SECRETARIAT    0661108040712                   Pearapogu Karuna                   SC COOP FIN CORPORATION AP VCAND M CNRB00006610661108040712                      URGENT  Pearapogu Karuna         0661108040712   
R410661108040724   000000000600000000000000000000000099999999999999999PAO GOVT OF AP Hyderabad salary    STATE BANK OF INDIA SECRETARIAT    0661108040724                   Perapogu Rahelamma                 SC COOP FIN CORPORATION AP VCAND M CNRB00006610661108040724                      URGENT  Perapogu Rahelamma       0661108040724   
R413961119002779   000000000360000000000000000000000099999999999999999PAO GOVT OF AP Hyderabad salary    STATE BANK OF INDIA SECRETARIAT    3961119002779                   A Prasad                           SC COOP FIN CORPORATION AP VCAND M CNRB00039613961119002779                      URGENT  A Prasad                 3961119002779   
R411870119005445   000000000450000000000000000000000099999999999999999PAO GOVT OF AP Hyderabad salary    STATE BANK OF INDIA SECRETARIAT    1870119005445                   Busipogu Raju                      SC COOP FIN CORPORATION AP VCAND M CNRB00018701870119005445                      URGENT  Busipogu Raju            1870119005445   
R411870119004319   000000000450000000000000000000000099999999999999999PAO GOVT OF AP Hyderabad salary    STATE BANK OF INDIA SECRETARIAT    1870119004319                   B Madhu                            SC COOP FIN CORPORATION AP VCAND M CNRB00018701870119004319                      URGENT  B Madhu                  1870119004319   
R411870119004321   000000000240000000000000000000000099999999999999999PAO GOVT OF AP Hyderabad salary    STATE BANK OF INDIA SECRETARIAT    1870119004321                   Bhusipogu Bajaramma                SC COOP FIN CORPORATION AP VCAND M CNRB00018701870119004321                      URGENT  Bhusipogu Bajaramma      1870119004321   
R411679108010226   000000001000000000000000000000000099999999999999999PAO GOVT OF AP Hyderabad salary    STATE BANK OF INDIA SECRETARIAT    1679108010226                   Rangamma Uraf P Lakshmi Devi       SC COOP FIN CORPORATION AP VCAND M CNRB00016791679108010226                      URGENT  Rangamma Uraf P Lakshmi D1679108010226   
R411679108010221   000000001000000000000000000000000099999999999999999PAO GOVT OF AP Hyderabad salary    STATE BANK OF INDIA SECRETARIAT    1679108010221                   Dayyala Prabhavathi                SC COOP FIN CORPORATION AP VCAND M CNRB00016791679108010221                      URGENT  Dayyala Prabhavathi      1679108010221   
R411679101010366   000000001000000000000000000000000099999999999999999PAO GOVT OF AP Hyderabad salary    STATE BANK OF INDIA SECRETARIAT    1679101010366                   M Lalemma                          SC COOP FIN CORPORATION AP VCAND M CNRB00016791679101010366                      URGENT  M Lalemma                1679101010366   
R411679108010207   000000001000000000000000000000000099999999999999999PAO GOVT OF AP Hyderabad salary    STATE BANK OF INDIA SECRETARIAT    1679108010207                   D N Madanna                        SC COOP FIN CORPORATION AP VCAND M CNRB00016791679108010207                      URGENT  D N Madanna              1679108010207   
R413307606977      000000001000000000000000000000000099999999999999999PAO GOVT OF AP Hyderabad salary    STATE BANK OF INDIA SECRETARIAT    3307606977                      Perumallu Vijaykumar               SC COOP FIN CORPORATION AP VCAND M CBIN02808433307606977                         URGENT  Perumallu Vijaykumar     3307606977      
R41500101010669676 000000001000000000000000000000000099999999999999999PAO GOVT OF AP Hyderabad salary    STATE BANK OF INDIA SECRETARIAT    500101010669676                 Perapogu Lalitamma                 SC COOP FIN CORPORATION AP VCAND M CIUB0000141500101010669676                    URGENT  Perapogu Lalitamma       500101010669676 
R41071801000015463 000000001000000000000000000000000099999999999999999PAO GOVT OF AP Hyderabad salary    STATE BANK OF INDIA SECRETARIAT    071801000015463                 Annapureddy Lakshmidevi            SC COOP FIN CORPORATION AP VCAND M IOBA0000718071801000015463                    URGENT  Annapureddy Lakshmidevi  071801000015463 
R414282500101528601000000000600000000000000000000000099999999999999999PAO GOVT OF AP Hyderabad salary    STATE BANK OF INDIA SECRETARIAT    4282500101528601                Dasari Kavitha                     SC COOP FIN CORPORATION AP VCAND M KARB00004284282500101528601                   URGENT  Dasari Kavitha           4282500101528601
R4109922121015057  000000001000000000000000000000000099999999999999999PAO GOVT OF AP Hyderabad salary    STATE BANK OF INDIA SECRETARIAT    09922121015057                  Amudala Sundaram                   SC COOP FIN CORPORATION AP VCAND M ORBC010099209922121015057                     URGENT  Amudala Sundaram         09922121015057  
R4162414570913     000000000600000000000000000000000099999999999999999PAO GOVT OF AP Hyderabad salary    STATE BANK OF INDIA SECRETARIAT    62414570913                     Gudisa Venkataramudu               SC COOP FIN CORPORATION AP VCAND M SBHY002049262414570913                        URGENT  Gudisa Venkataramudu     62414570913     
R4133752200076796  000000000600000000000000000000000099999999999999999PAO GOVT OF AP Hyderabad salary    STATE BANK OF INDIA SECRETARIAT    33752200076796                  Dakka Obulamma                     SC COOP FIN CORPORATION AP VCAND M SYNB000337533752200076796                     URGENT  Dakka Obulamma           33752200076796  
R4133752210018688  000000000360000000000000000000000099999999999999999PAO GOVT OF AP Hyderabad salary    STATE BANK OF INDIA SECRETARIAT    33752210018688                  Madiga Venkateswarulu              SC COOP FIN CORPORATION AP VCAND M SYNB000337533752210018688                     URGENT  Madiga Venkateswarulu    33752210018688  
R4133752200117496  000000000300000000000000000000000099999999999999999PAO GOVT OF AP Hyderabad salary    STATE BANK OF INDIA SECRETARIAT    33752200117496                  Mabbu Saala Subbarayudu            SC COOP FIN CORPORATION AP VCAND M SYNB000337533752200117496                     URGENT  Mabbu Saala Subbarayudu  33752200117496  
R4133752200120872  000000000180000000000000000000000099999999999999999PAO GOVT OF AP Hyderabad salary    STATE BANK OF INDIA SECRETARIAT    33752200120872                  Gattu Savithri                     SC COOP FIN CORPORATION AP VCAND M SYNB000337533752200120872                     URGENT  Gattu Savithri           33752200120872  
R4133742010055506  000000000360000000000000000000000099999999999999999PAO GOVT OF AP Hyderabad salary    STATE BANK OF INDIA SECRETARIAT    33742010055506                  Ch Swarup Kumar                    SC COOP FIN CORPORATION AP VCAND M SYNB000337433742010055506                     URGENT  Ch Swarup Kumar          33742010055506  
R4133862210051898  000000000360000000000000000000000099999999999999999PAO GOVT OF AP Hyderabad salary    STATE BANK OF INDIA SECRETARIAT    33862210051898                  Naga Laxmi                         SC COOP FIN CORPORATION AP VCAND M SYNB000338633862210051898                     URGENT  Naga Laxmi               33862210051898  
R4133862210055558  000000000360000000000000000000000099999999999999999PAO GOVT OF AP Hyderabad salary    STATE BANK OF INDIA SECRETARIAT    33862210055558                  Yella Maddi Pullaiah               SC COOP FIN CORPORATION AP VCAND M SYNB000338633862210055558                     URGENT  Yella Maddi Pullaiah     33862210055558  
R4133862210052065  000000000360000000000000000000000099999999999999999PAO GOVT OF AP Hyderabad salary    STATE BANK OF INDIA SECRETARIAT    33862210052065                  Jella  Chandra Mohan               SC COOP FIN CORPORATION AP VCAND M SYNB000338633862210052065                     URGENT  Jella  Chandra Mohan     33862210052065  
R4133812210001263  000000000300000000000000000000000099999999999999999PAO GOVT OF AP Hyderabad salary    STATE BANK OF INDIA SECRETARIAT    33812210001263                  Kommu Chinna Pamulety              SC COOP FIN CORPORATION AP VCAND M SYNB000338133812210001263                     URGENT  Kommu Chinna Pamulety    33812210001263  
R4133812210059560  000000000300000000000000000000000099999999999999999PAO GOVT OF AP Hyderabad salary    STATE BANK OF INDIA SECRETARIAT    33812210059560                  Kommu Lakshmi Devi                 SC COOP FIN CORPORATION AP VCAND M SYNB000338133812210059560                     URGENT  Kommu Lakshmi Devi       33812210059560  
R4133942210019066  000000001000000000000000000000000099999999999999999PAO GOVT OF AP Hyderabad salary    STATE BANK OF INDIA SECRETARIAT    33942210019066                  Keelu Reshma                       SC COOP FIN CORPORATION AP VCAND M SYNB000339433942210019066                     URGENT  Keelu Reshma             33942210019066  
R4133942210019143  000000000360000000000000000000000099999999999999999PAO GOVT OF AP Hyderabad salary    STATE BANK OF INDIA SECRETARIAT    33942210019143                  Perumala Aruna Kumari              SC COOP FIN CORPORATION AP VCAND M SYNB000339433942210019143                     URGENT  Perumala Aruna Kumari    33942210019143  
R4133942210020208  000000001000000000000000000000000099999999999999999PAO GOVT OF AP Hyderabad salary    STATE BANK OF INDIA SECRETARIAT    33942210020208                  R Ramasubbamma                     SC COOP FIN CORPORATION AP VCAND M SYNB000339433942210020208                     URGENT  R Ramasubbamma           33942210020208  
R4133832200029966  000000000360000000000000000000000099999999999999999PAO GOVT OF AP Hyderabad salary    STATE BANK OF INDIA SECRETARIAT    33832200029966                  Bandaru Sowdamani                  SC COOP FIN CORPORATION AP VCAND M SYNB000338333832200029966                     URGENT  Bandaru Sowdamani        33832200029966  
R4119550110049228  000000001000000000000000000000000099999999999999999PAO GOVT OF AP Hyderabad salary    STATE BANK OF INDIA SECRETARIAT    19550110049228                  Arigilla Ravi                      SC COOP FIN CORPORATION AP VCAND M UCBA000195519550110049228                     URGENT  Arigilla Ravi            19550110049228  
R41354602010015880 000000001000000000000000000000000099999999999999999PAO GOVT OF AP Hyderabad salary    STATE BANK OF INDIA SECRETARIAT    354602010015880                 Madiga Ramesh                      SC COOP FIN CORPORATION AP VCAND M UBIN0535460354602010015880                    URGENT  Madiga Ramesh            354602010015880 
R41405001011002407 000000000450000000000000000000000099999999999999999PAO GOVT OF AP Hyderabad salary    STATE BANK OF INDIA SECRETARIAT    405001011002407                 M Vijay Kumar                      SC COOP FIN CORPORATION AP VCAND M VIJB0004050405001011002407                    URGENT  M Vijay Kumar            405001011002407 
R41406001010006771 000000000360000000000000000000000099999999999999999PAO GOVT OF AP Hyderabad salary    STATE BANK OF INDIA SECRETARIAT    406001010006771                 Veera Pogu Savari                  SC COOP FIN CORPORATION AP VCAND M VIJB0004060406001010006771                    URGENT  Veera Pogu Savari        406001010006771 
R41406001010005543 000000001000000000000000000000000099999999999999999PAO GOVT OF AP Hyderabad salary    STATE BANK OF INDIA SECRETARIAT    406001010005543                 Paludoddi Ratnamma                 SC COOP FIN CORPORATION AP VCAND M VIJB0004060406001010005543                    URGENT  Paludoddi Ratnamma       406001010005543 
R4140600101000922  000000000600000000000000000000000099999999999999999PAO GOVT OF AP Hyderabad salary    STATE BANK OF INDIA SECRETARIAT    40600101000922                  Madiga Chinna Linganna             SC COOP FIN CORPORATION AP VCAND M VIJB000406040600101000922                     URGENT  Madiga Chinna Linganna   40600101000922  
R41406001051000381 000000000600000000000000000000000099999999999999999PAO GOVT OF AP Hyderabad salary    STATE BANK OF INDIA SECRETARIAT    406001051000381                 K Lakshmi                          SC COOP FIN CORPORATION AP VCAND M VIJB0004060406001051000381                    URGENT  K Lakshmi                406001051000381 
R41406001011002959 000000000600000000000000000000000099999999999999999PAO GOVT OF AP Hyderabad salary    STATE BANK OF INDIA SECRETARIAT    406001011002959                 Poppula Chinna Ranga Swamy         SC COOP FIN CORPORATION AP VCAND M VIJB0004060406001011002959                    URGENT  Poppula Chinna Ranga Swam406001011002959 
R41406001011002370 000000000360000000000000000000000099999999999999999PAO GOVT OF AP Hyderabad salary    STATE BANK OF INDIA SECRETARIAT    406001011002370                 Harijana Ayyanna                   SC COOP FIN CORPORATION AP VCAND M VIJB0004060406001011002370                    URGENT  Harijana Ayyanna         406001011002370 
