R410000000313751257000000039277470000000000000000000000000033881454741PAO GOVT OF AP Hyderabad salary    STATE BANK OF INDIA SECRETARIAT    00000003137512571               M/sNJRConstructions PvtLtd         MED SERV & INF DEVP CORPN AP- MANA CBIN028236900000003137512571                  URGENT  M/sNJRConstructions PvtLt0000000313751257
R41142210011200206 000000000465790000000000000000000000000033881454741PAO GOVT OF AP Hyderabad salary    STATE BANK OF INDIA SECRETARIAT    142210011200206                 APLabour Cess Commissioner  HyderabMED SERV & INF DEVP CORPN AP- MANA ANDB0001422142210011200206                    URGENT  APLabour Cess Commissione142210011200206 
R41142410011000314 000000003209470000000000000000000000000033881454741PAO GOVT OF AP Hyderabad salary    STATE BANK OF INDIA SECRETARIAT    142410011000314                 MD APMSIDC  Hyderabad              MED SERV & INF DEVP CORPN AP- MANA ANDB0001424142410011000314                    URGENT  MD APMSIDC  Hyderabad    142410011000314 
