R41000000000843780000000000000000000000000033881454741PAO GOVT OF AP Hyderabad salary    STATE BANK OF INDIA SECRETARIAT    000201060632                    Agastyas International Foundation  TRIBAL WELFARE RESIDENTIAL EDUCATI ICIC0000002000201060632                       URGENT  Agastyas International Fo                                 000201060632    EMLdpao-sect@ap.nic.in             
R41000000000042140000000000000000000000000033881454741PAO GOVT OF AP Hyderabad salary    STATE BANK OF INDIA SECRETARIAT    0004103000047791                NSDL e Governance Infrastructure LtdTRIBAL WELFARE RESIDENTIAL EDUCATI IBKL00000040004103000047791                   URGENT  NSDL e Governance Infrast                                 0004103000047791EMLdpao-sect@ap.nic.in             
R41000000000704290000000000000000000000000033881454741PAO GOVT OF AP Hyderabad salary    STATE BANK OF INDIA SECRETARIAT    1969002100012840                M s Balaji Graphics                TRIBAL WELFARE RESIDENTIAL EDUCATI PUNB03702001969002100012840                   URGENT  M s Balaji Graphics                                       1969002100012840EMLdpao-sect@ap.nic.in             
R41000000000150000000000000000000000000000033881454741PAO GOVT OF AP Hyderabad salary    STATE BANK OF INDIA SECRETARIAT    115410025202843                 N Bhupal reddy                     TRIBAL WELFARE RESIDENTIAL EDUCATI ANDB0001154115410025202843                    URGENT  N Bhupal reddy                                            115410025202843 EMLdpao-sect@ap.nic.in             
