R41000000000465310000000000000000000000000033881454741PAO GOVT OF AP Hyderabad salary    STATE BANK OF INDIA SECRETARIAT    008010100229098                 P SUDARSANA RAO                    PD ADMINISTRATOR                   UTIB0000008008010100229098                    URGENT  P SUDARSANA RAO          008010100229098 
R41000000000834370000000000000000000000000033881454741PAO GOVT OF AP Hyderabad salary    STATE BANK OF INDIA SECRETARIAT    62008109974                     B ADINARAYANA RAO                  PD ADMINISTRATOR                   SBHY002102662008109974                        URGENT  B ADINARAYANA RAO        62008109974     
R41000000000539550000000000000000000000000033881454741PAO GOVT OF AP Hyderabad salary    STATE BANK OF INDIA SECRETARIAT    52188999770                     T GOVARDHAN NAIDU                  PD ADMINISTRATOR                   SBHY002102652188999770                        URGENT  T GOVARDHAN NAIDU        52188999770     
R41000000000474850000000000000000000000000033881454741PAO GOVT OF AP Hyderabad salary    STATE BANK OF INDIA SECRETARIAT    62059025754                     T JAGAN MOHAN RAO                  PD ADMINISTRATOR                   SBHY002102662059025754                        URGENT  T JAGAN MOHAN RAO        62059025754     
R41000000000489610000000000000000000000000033881454741PAO GOVT OF AP Hyderabad salary    STATE BANK OF INDIA SECRETARIAT    52188935262                     CH SHIVA KAMESHWARA RAO            PD ADMINISTRATOR                   SBHY002102652188935262                        URGENT  CH SHIVA KAMESHWARA RAO  52188935262     
R41000000000980030000000000000000000000000033881454741PAO GOVT OF AP Hyderabad salary    STATE BANK OF INDIA SECRETARIAT    52188994193                     G CHANDRIKA                        PD ADMINISTRATOR                   SBHY002102652188994193                        URGENT  G CHANDRIKA              52188994193     
R41000000000304940000000000000000000000000033881454741PAO GOVT OF AP Hyderabad salary    STATE BANK OF INDIA SECRETARIAT    62239865962                     RTSS MAN POWER SOLUTIONS           PD ADMINISTRATOR                   SBHY002006462239865962                        URGENT  RTSS MAN POWER SOLUTIONS 62239865962     
R41000000000118680000000000000000000000000033881454741PAO GOVT OF AP Hyderabad salary    STATE BANK OF INDIA SECRETARIAT    62036520074                     JYOTHI COMPUTER SERVICES           PD ADMINISTRATOR                   SBHY002047162036520074                        URGENT  JYOTHI COMPUTER SERVICES 62036520074     
