R41000000051410000000000000000000000000000034224175690SEEDS DEV CORP, AP STATE -V.C & M.DSTATE BANK OF INDIA                015000401110005                 KSR seeds                          SEEDS DEV CORP AP STATE -VC & MD   CORP0000150015000401110005                    URGENT  KSR seeds                015000401110005 
R41000000058170000000000000000000000000000034224175690SEEDS DEV CORP, AP STATE -V.C & M.DSTATE BANK OF INDIA                015000401110005                 KSR seeds                          SEEDS DEV CORP AP STATE -VC & MD   CORP0000150015000401110005                    URGENT  KSR seeds                015000401110005 
R41000000126605780000000000000000000000000034224175690SEEDS DEV CORP, AP STATE -V.C & M.DSTATE BANK OF INDIA                912020028081788                 Swabhiman commercial pvt ltd       SEEDS DEV CORP AP STATE -VC & MD   UTIB0000017912020028081788                    URGENT  Swabhiman commercial pvt 912020028081788 
R41000000039560400000000000000000000000000034224175690SEEDS DEV CORP, AP STATE -V.C & M.DSTATE BANK OF INDIA                912020028081788                 Swabhiman commercial pvt ltd       SEEDS DEV CORP AP STATE -VC & MD   UTIB0000017912020028081788                    URGENT  Swabhiman commercial pvt 912020028081788 
R41000000009610000000000000000000000000000034224175690SEEDS DEV CORP, AP STATE -V.C & M.DSTATE BANK OF INDIA                073911100000061                 Aditya seeds                       SEEDS DEV CORP AP STATE -VC & MD   ANDB0000739073911100000061                    URGENT  Aditya seeds             073911100000061 
R41000000001118870000000000000000000000000034224175690SEEDS DEV CORP, AP STATE -V.C & M.DSTATE BANK OF INDIA                024210027000885                 Vinukonda Manikyala rao            SEEDS DEV CORP AP STATE -VC & MD   ANDB0000242024210027000885                    URGENT  Vinukonda Manikyala rao  024210027000885 
