R41000000000200000000000000000000000000000033881454741PD  GOVT OF AP Hyderabad salary    STATE BANK OF INDIA SECRETARIAT    200610100008027                 SONDRAPPAGARI ROJA                 RES EDN INST SOC - AP(APREI SOCIET ANDB0002006200610100008027                    URGENT  SONDRAPPAGARI ROJA                                        200610100008027 EMLdpao-sect@ap.nic.in             
R41000000000200000000000000000000000000000033881454741PD  GOVT OF AP Hyderabad salary    STATE BANK OF INDIA SECRETARIAT    48710100102305                  YERUKALA ASWINI                    RES EDN INST SOC - AP(APREI SOCIET ANDB000048748710100102305                     URGENT  YERUKALA ASWINI                                           48710100102305  EMLdpao-sect@ap.nic.in             
R41000000000200000000000000000000000000000033881454741PD  GOVT OF AP Hyderabad salary    STATE BANK OF INDIA SECRETARIAT    31522200007250                  P  VISWANADHA GOWD                 RES EDN INST SOC - AP(APREI SOCIET SYNB000315231522200007250                     URGENT  P  VISWANADHA GOWD                                        31522200007250  EMLdpao-sect@ap.nic.in             
R41000000000200000000000000000000000000000033881454741PD  GOVT OF AP Hyderabad salary    STATE BANK OF INDIA SECRETARIAT    922500100837601                 PAYYAVULA RACHANA PRIYA            RES EDN INST SOC - AP(APREI SOCIET KARB0000092922500100837601                    URGENT  PAYYAVULA RACHANA PRIYA                                   922500100837601 EMLdpao-sect@ap.nic.in             
R41000000000200000000000000000000000000000033881454741PD  GOVT OF AP Hyderabad salary    STATE BANK OF INDIA SECRETARIAT    91017798140                     A  THIPPA REDDY                    RES EDN INST SOC - AP(APREI SOCIET APGB000109791017798140                        URGENT  A  THIPPA REDDY                                           91017798140     EMLdpao-sect@ap.nic.in             
R41000000000200000000000000000000000000000033881454741PD  GOVT OF AP Hyderabad salary    STATE BANK OF INDIA SECRETARIAT    922500101415401                 HARIJANA ANNAPOORNA                RES EDN INST SOC - AP(APREI SOCIET KARB0000092922500101415401                    URGENT  HARIJANA ANNAPOORNA                                       922500101415401 EMLdpao-sect@ap.nic.in             
R41000000000200000000000000000000000000000033881454741PD  GOVT OF AP Hyderabad salary    STATE BANK OF INDIA SECRETARIAT    4110100018112                   RAMAVATH SUGALI DEVIKABAI          RES EDN INST SOC - AP(APREI SOCIET ANDB00000414110100018112                      URGENT  RAMAVATH SUGALI DEVIKABAI                                 4110100018112   EMLdpao-sect@ap.nic.in             
R41000000000200000000000000000000000000000033881454741PD  GOVT OF AP Hyderabad salary    STATE BANK OF INDIA SECRETARIAT    31292210031239                  BUGALA FOUJIA                      RES EDN INST SOC - AP(APREI SOCIET SYNB000312931292210031239                     URGENT  BUGALA FOUJIA                                             31292210031239  EMLdpao-sect@ap.nic.in             
R41000000000200000000000000000000000000000033881454741PD  GOVT OF AP Hyderabad salary    STATE BANK OF INDIA SECRETARIAT    162610100056680                 VADDE SIRISHA                      RES EDN INST SOC - AP(APREI SOCIET ANDB0001626162610100056680                    URGENT  VADDE SIRISHA                                             162610100056680 EMLdpao-sect@ap.nic.in             
R41000000000200000000000000000000000000000033881454741PD  GOVT OF AP Hyderabad salary    STATE BANK OF INDIA SECRETARIAT    62382923589                     MALIPATIL SUPRIYA                  RES EDN INST SOC - AP(APREI SOCIET SBHY002128062382923589                        URGENT  MALIPATIL SUPRIYA                                         62382923589     EMLdpao-sect@ap.nic.in             
R41000000000200000000000000000000000000000033881454741PD  GOVT OF AP Hyderabad salary    STATE BANK OF INDIA SECRETARIAT    31362310000266                  DASARI GOKUL                       RES EDN INST SOC - AP(APREI SOCIET SYNB000313631362310000266                     URGENT  DASARI GOKUL                                              31362310000266  EMLdpao-sect@ap.nic.in             
R41000000000200000000000000000000000000000033881454741PD  GOVT OF AP Hyderabad salary    STATE BANK OF INDIA SECRETARIAT    105710100045903                 KORRA RAMESH NAIK                  RES EDN INST SOC - AP(APREI SOCIET ANDB0001057105710100045903                    URGENT  KORRA RAMESH NAIK                                         105710100045903 EMLdpao-sect@ap.nic.in             
R41000000000200000000000000000000000000000033881454741PD  GOVT OF AP Hyderabad salary    STATE BANK OF INDIA SECRETARIAT    62382958614                     RAMAVATH CHANDRA NAIK              RES EDN INST SOC - AP(APREI SOCIET SBHY002128062382958614                        URGENT  RAMAVATH CHANDRA NAIK                                     62382958614     EMLdpao-sect@ap.nic.in             
R41000000000200000000000000000000000000000033881454741PD  GOVT OF AP Hyderabad salary    STATE BANK OF INDIA SECRETARIAT    14910021083485                  G  VENUGOPALA REDDY                RES EDN INST SOC - AP(APREI SOCIET ANDB000014914910021083485                     URGENT  G  VENUGOPALA REDDY                                       14910021083485  EMLdpao-sect@ap.nic.in             
R41000000000200000000000000000000000000000033881454741PD  GOVT OF AP Hyderabad salary    STATE BANK OF INDIA SECRETARIAT    778109020199                    KALLURU SATYAGURURAJ               RES EDN INST SOC - AP(APREI SOCIET CNRB0000778778109020199                       URGENT  KALLURU SATYAGURURAJ                                      778109020199    EMLdpao-sect@ap.nic.in             
R41000000000200000000000000000000000000000033881454741PD  GOVT OF AP Hyderabad salary    STATE BANK OF INDIA SECRETARIAT    48010100032857                  M  KRISHNA VENI                    RES EDN INST SOC - AP(APREI SOCIET ANDB000048048010100032857                     URGENT  M  KRISHNA VENI                                           48010100032857  EMLdpao-sect@ap.nic.in             
R41000000000200000000000000000000000000000033881454741PD  GOVT OF AP Hyderabad salary    STATE BANK OF INDIA SECRETARIAT    62351405542                     ALEKOTI DIVYA                      RES EDN INST SOC - AP(APREI SOCIET SBHY002160662351405542                        URGENT  ALEKOTI DIVYA                                             62351405542     EMLdpao-sect@ap.nic.in             
R41000000000200000000000000000000000000000033881454741PD  GOVT OF AP Hyderabad salary    STATE BANK OF INDIA SECRETARIAT    62384871015                     KARAMTHOT SREEDHAR NAIK            RES EDN INST SOC - AP(APREI SOCIET SBHY002113462384871015                        URGENT  KARAMTHOT SREEDHAR NAIK                                   62384871015     EMLdpao-sect@ap.nic.in             
R41000000000200000000000000000000000000000033881454741PD  GOVT OF AP Hyderabad salary    STATE BANK OF INDIA SECRETARIAT    41210100173668                  GALI MAMATHA                       RES EDN INST SOC - AP(APREI SOCIET ANDB000041241210100173668                     URGENT  GALI MAMATHA                                              41210100173668  EMLdpao-sect@ap.nic.in             
R41000000000200000000000000000000000000000033881454741PD  GOVT OF AP Hyderabad salary    STATE BANK OF INDIA SECRETARIAT    62351027090                     UPPARA HEMALATHA                   RES EDN INST SOC - AP(APREI SOCIET SBHY002160662351027090                        URGENT  UPPARA HEMALATHA                                          62351027090     EMLdpao-sect@ap.nic.in             
R41000000000200000000000000000000000000000033881454741PD  GOVT OF AP Hyderabad salary    STATE BANK OF INDIA SECRETARIAT    41210100177682                  THIRAMPURAM NAGA SWAPNA            RES EDN INST SOC - AP(APREI SOCIET ANDB000041241210100177682                     URGENT  THIRAMPURAM NAGA SWAPNA                                   41210100177682  EMLdpao-sect@ap.nic.in             
R41000000000200000000000000000000000000000033881454741PD  GOVT OF AP Hyderabad salary    STATE BANK OF INDIA SECRETARIAT    33762210048727                  K G B V PEDAVADUGUR                RES EDN INST SOC - AP(APREI SOCIET SYNB000110033762210048727                     URGENT  K G B V PEDAVADUGUR                                       33762210048727  EMLdpao-sect@ap.nic.in             
R41000000000200000000000000000000000000000033881454741PD  GOVT OF AP Hyderabad salary    STATE BANK OF INDIA SECRETARIAT    31252200184026                  BALA SUBRAMANYAM                   RES EDN INST SOC - AP(APREI SOCIET SYNB000312531252200184026                     URGENT  BALA SUBRAMANYAM                                          31252200184026  EMLdpao-sect@ap.nic.in             
R41000000000200000000000000000000000000000033881454741PD  GOVT OF AP Hyderabad salary    STATE BANK OF INDIA SECRETARIAT    31252210058152                  SESHAGANI HARITHA                  RES EDN INST SOC - AP(APREI SOCIET SYNB000312531252210058152                     URGENT  SESHAGANI HARITHA                                         31252210058152  EMLdpao-sect@ap.nic.in             
R41000000000200000000000000000000000000000033881454741PD  GOVT OF AP Hyderabad salary    STATE BANK OF INDIA SECRETARIAT    31252030000244                  N  MADDILETI SWAMY                 RES EDN INST SOC - AP(APREI SOCIET SYNB000312531252030000244                     URGENT  N  MADDILETI SWAMY                                        31252030000244  EMLdpao-sect@ap.nic.in             
R41000000000200000000000000000000000000000033881454741PD  GOVT OF AP Hyderabad salary    STATE BANK OF INDIA SECRETARIAT    3341101008295                   KUMMETHA NAGABHARANI               RES EDN INST SOC - AP(APREI SOCIET CNRB00033413341101008295                      URGENT  KUMMETHA NAGABHARANI                                      3341101008295   EMLdpao-sect@ap.nic.in             
R41000000000200000000000000000000000000000033881454741PD  GOVT OF AP Hyderabad salary    STATE BANK OF INDIA SECRETARIAT    7602500101568601                THIRUPALAIAH J                     RES EDN INST SOC - AP(APREI SOCIET KARB00007607602500101568601                   URGENT  THIRUPALAIAH J                                            7602500101568601EMLdpao-sect@ap.nic.in             
R41000000000200000000000000000000000000000033881454741PD  GOVT OF AP Hyderabad salary    STATE BANK OF INDIA SECRETARIAT    7602500103253401                BALASWAMY GUDLA                    RES EDN INST SOC - AP(APREI SOCIET KARB00007607602500103253401                   URGENT  BALASWAMY GUDLA                                           7602500103253401EMLdpao-sect@ap.nic.in             
R41000000000200000000000000000000000000000033881454741PD  GOVT OF AP Hyderabad salary    STATE BANK OF INDIA SECRETARIAT    62382663416                     JUTURU RAMANJINEYULU               RES EDN INST SOC - AP(APREI SOCIET SBHY002128062382663416                        URGENT  JUTURU RAMANJINEYULU                                      62382663416     EMLdpao-sect@ap.nic.in             
R41000000000200000000000000000000000000000033881454741PD  GOVT OF AP Hyderabad salary    STATE BANK OF INDIA SECRETARIAT    311200101000248                 RAMAVATH VEERESH NAIK              RES EDN INST SOC - AP(APREI SOCIET CORP0003112311200101000248                    URGENT  RAMAVATH VEERESH NAIK                                     311200101000248 EMLdpao-sect@ap.nic.in             
R41000000000200000000000000000000000000000033881454741PD  GOVT OF AP Hyderabad salary    STATE BANK OF INDIA SECRETARIAT    17500110052532                  ANAMALA SRAVANI                    RES EDN INST SOC - AP(APREI SOCIET UCBA000175017500110052532                     URGENT  ANAMALA SRAVANI                                           17500110052532  EMLdpao-sect@ap.nic.in             
R41000000000200000000000000000000000000000033881454741PD  GOVT OF AP Hyderabad salary    STATE BANK OF INDIA SECRETARIAT    91001959060                     Z P HIGH SCHOOL  TARIMALA          RES EDN INST SOC - AP(APREI SOCIET APGB000105791001959060                        URGENT  Z P HIGH SCHOOL  TARIMALA                                 91001959060     EMLdpao-sect@ap.nic.in             
R41000000000200000000000000000000000000000033881454741PD  GOVT OF AP Hyderabad salary    STATE BANK OF INDIA SECRETARIAT    24240100010949                  Z P HIGH SCHOOL  SINGANAMALA       RES EDN INST SOC - AP(APREI SOCIET BARB0ANAPOL24240100010949                     URGENT  Z P HIGH SCHOOL  SINGANAM                                 24240100010949  EMLdpao-sect@ap.nic.in             
R41000000000200000000000000000000000000000033881454741PD  GOVT OF AP Hyderabad salary    STATE BANK OF INDIA SECRETARIAT    0659101062863                   MADUGU MOUNIKA                     RES EDN INST SOC - AP(APREI SOCIET CNRB00006590659101062863                      URGENT  MADUGU MOUNIKA                                            0659101062863   EMLdpao-sect@ap.nic.in             
R41000000000200000000000000000000000000000033881454741PD  GOVT OF AP Hyderabad salary    STATE BANK OF INDIA SECRETARIAT    042210021000271                 P  NALLAPA REDDY                   RES EDN INST SOC - AP(APREI SOCIET ANDB0000422042210021000271                    URGENT  P  NALLAPA REDDY                                          042210021000271 EMLdpao-sect@ap.nic.in             
R41000000000200000000000000000000000000000033881454741PD  GOVT OF AP Hyderabad salary    STATE BANK OF INDIA SECRETARIAT    91042877565                     KASEMMAGARI ANAND                  RES EDN INST SOC - AP(APREI SOCIET APGB000106091042877565                        URGENT  KASEMMAGARI ANAND                                         91042877565     EMLdpao-sect@ap.nic.in             
R41000000000200000000000000000000000000000033881454741PD  GOVT OF AP Hyderabad salary    STATE BANK OF INDIA SECRETARIAT    64159867307                     BYALLA SAILAJA                     RES EDN INST SOC - AP(APREI SOCIET SBMY004092964159867307                        URGENT  BYALLA SAILAJA                                            64159867307     EMLdpao-sect@ap.nic.in             
R41000000000200000000000000000000000000000033881454741PD  GOVT OF AP Hyderabad salary    STATE BANK OF INDIA SECRETARIAT    6257614119                      T  USHA M G T MANJULA              RES EDN INST SOC - AP(APREI SOCIET IDIB000A0226257614119                         URGENT  T  USHA M G T MANJULA                                     6257614119      EMLdpao-sect@ap.nic.in             
R41000000000200000000000000000000000000000033881454741PD  GOVT OF AP Hyderabad salary    STATE BANK OF INDIA SECRETARIAT    31232210036892                  ISHAQ BASHA                        RES EDN INST SOC - AP(APREI SOCIET SYNB000312331232210036892                     URGENT  ISHAQ BASHA                                               31232210036892  EMLdpao-sect@ap.nic.in             
R41000000000200000000000000000000000000000033881454741PD  GOVT OF AP Hyderabad salary    STATE BANK OF INDIA SECRETARIAT    31202200079749                  GANGANNA Y                         RES EDN INST SOC - AP(APREI SOCIET SYNB000312031202200079749                     URGENT  GANGANNA Y                                                31202200079749  EMLdpao-sect@ap.nic.in             
R41000000000200000000000000000000000000000033881454741PD  GOVT OF AP Hyderabad salary    STATE BANK OF INDIA SECRETARIAT    62344847852                     MANGALI DINESH                     RES EDN INST SOC - AP(APREI SOCIET SBHY002168862344847852                        URGENT  MANGALI DINESH                                            62344847852     EMLdpao-sect@ap.nic.in             
R41000000000200000000000000000000000000000033881454741PD  GOVT OF AP Hyderabad salary    STATE BANK OF INDIA SECRETARIAT    62382036905                     BOYA SAIKIRAN                      RES EDN INST SOC - AP(APREI SOCIET SBHY002128062382036905                        URGENT  BOYA SAIKIRAN                                             62382036905     EMLdpao-sect@ap.nic.in             
R41000000000200000000000000000000000000000033881454741PD  GOVT OF AP Hyderabad salary    STATE BANK OF INDIA SECRETARIAT    62368886770                     VADDE ANJALI                       RES EDN INST SOC - AP(APREI SOCIET SBHY002128062368886770                        URGENT  VADDE ANJALI                                              62368886770     EMLdpao-sect@ap.nic.in             
R41000000000200000000000000000000000000000033881454741PD  GOVT OF AP Hyderabad salary    STATE BANK OF INDIA SECRETARIAT    080210100060416                 MASTE KRANTHI KUMAR                RES EDN INST SOC - AP(APREI SOCIET ANDB0000802080210100060416                    URGENT  MASTE KRANTHI KUMAR                                       080210100060416 EMLdpao-sect@ap.nic.in             
R41000000000200000000000000000000000000000033881454741PD  GOVT OF AP Hyderabad salary    STATE BANK OF INDIA SECRETARIAT    009502101130025                 NENAVATH BHEEMIBAI                 RES EDN INST SOC - AP(APREI SOCIET CORP0000095009502101130025                    URGENT  NENAVATH BHEEMIBAI                                        009502101130025 EMLdpao-sect@ap.nic.in             
R41000000000200000000000000000000000000000033881454741PD  GOVT OF AP Hyderabad salary    STATE BANK OF INDIA SECRETARIAT    2994118000006                   CHENNAKESAVULU DASARI              RES EDN INST SOC - AP(APREI SOCIET CNRB00029942994118000006                      URGENT  CHENNAKESAVULU DASARI                                     2994118000006   EMLdpao-sect@ap.nic.in             
R41000000000200000000000000000000000000000033881454741PD  GOVT OF AP Hyderabad salary    STATE BANK OF INDIA SECRETARIAT    24240100010360                  KADAPALA RAVITEJA                  RES EDN INST SOC - AP(APREI SOCIET BARB0ANAPOL24240100010360                     URGENT  KADAPALA RAVITEJA                                         24240100010360  EMLdpao-sect@ap.nic.in             
R41000000000200000000000000000000000000000033881454741PD  GOVT OF AP Hyderabad salary    STATE BANK OF INDIA SECRETARIAT    080210100062946                 RAJULA BHARATHI                    RES EDN INST SOC - AP(APREI SOCIET ANDB0000802080210100062946                    URGENT  RAJULA BHARATHI                                           080210100062946 EMLdpao-sect@ap.nic.in             
R41000000000200000000000000000000000000000033881454741PD  GOVT OF AP Hyderabad salary    STATE BANK OF INDIA SECRETARIAT    62382957698                     AVULA YASWANTH KUMAR               RES EDN INST SOC - AP(APREI SOCIET SBHY002128062382957698                        URGENT  AVULA YASWANTH KUMAR                                      62382957698     EMLdpao-sect@ap.nic.in             
R41000000000200000000000000000000000000000033881454741PD  GOVT OF AP Hyderabad salary    STATE BANK OF INDIA SECRETARIAT    62367604186                     PORALLA VINAY                      RES EDN INST SOC - AP(APREI SOCIET SBHY002128062367604186                        URGENT  PORALLA VINAY                                             62367604186     EMLdpao-sect@ap.nic.in             
R41000000000200000000000000000000000000000033881454741PD  GOVT OF AP Hyderabad salary    STATE BANK OF INDIA SECRETARIAT    62228813122                     MUCHI SOWMYA                       RES EDN INST SOC - AP(APREI SOCIET SBHY002143762228813122                        URGENT  MUCHI SOWMYA                                              62228813122     EMLdpao-sect@ap.nic.in             
R41000000000200000000000000000000000000000033881454741PD  GOVT OF AP Hyderabad salary    STATE BANK OF INDIA SECRETARIAT    62367967184                     SREEKANTH BOLUGONDLA               RES EDN INST SOC - AP(APREI SOCIET SBHY002128062367967184                        URGENT  SREEKANTH BOLUGONDLA                                      62367967184     EMLdpao-sect@ap.nic.in             
R41000000000200000000000000000000000000000033881454741PD  GOVT OF AP Hyderabad salary    STATE BANK OF INDIA SECRETARIAT    028510100092008                 RAVI RAYALADODDI                   RES EDN INST SOC - AP(APREI SOCIET ANDB0000285028510100092008                    URGENT  RAVI RAYALADODDI                                          028510100092008 EMLdpao-sect@ap.nic.in             
R41000000000200000000000000000000000000000033881454741PD  GOVT OF AP Hyderabad salary    STATE BANK OF INDIA SECRETARIAT    62364915435                     THOGATA THIPPAMMA                  RES EDN INST SOC - AP(APREI SOCIET SBHY002152262364915435                        URGENT  THOGATA THIPPAMMA                                         62364915435     EMLdpao-sect@ap.nic.in             
R41000000000200000000000000000000000000000033881454741PD  GOVT OF AP Hyderabad salary    STATE BANK OF INDIA SECRETARIAT    31452250036108                  CHAKALI LALUPRASAD                 RES EDN INST SOC - AP(APREI SOCIET SYNB000314531452250036108                     URGENT  CHAKALI LALUPRASAD                                        31452250036108  EMLdpao-sect@ap.nic.in             
R41000000000200000000000000000000000000000033881454741PD  GOVT OF AP Hyderabad salary    STATE BANK OF INDIA SECRETARIAT    31282210027833                  M  POME NAIK                       RES EDN INST SOC - AP(APREI SOCIET SYNB000312831282210027833                     URGENT  M  POME NAIK                                              31282210027833  EMLdpao-sect@ap.nic.in             
R41000000000200000000000000000000000000000033881454741PD  GOVT OF AP Hyderabad salary    STATE BANK OF INDIA SECRETARIAT    028510100120170                 YELLAPPAGARI BABYSYAMALA           RES EDN INST SOC - AP(APREI SOCIET ANDB0000285028510100120170                    URGENT  YELLAPPAGARI BABYSYAMALA                                  028510100120170 EMLdpao-sect@ap.nic.in             
R41000000000200000000000000000000000000000033881454741PD  GOVT OF AP Hyderabad salary    STATE BANK OF INDIA SECRETARIAT    1916650446 5                    K  SUBBA RAYUDU                    RES EDN INST SOC - AP(APREI SOCIET APGB00010161916650446 5                       URGENT  K  SUBBA RAYUDU                                           1916650446 5    EMLdpao-sect@ap.nic.in             
R41000000000200000000000000000000000000000033881454741PD  GOVT OF AP Hyderabad salary    STATE BANK OF INDIA SECRETARIAT    097310100061132                 MALA VANNURU SWAMY                 RES EDN INST SOC - AP(APREI SOCIET ANDB0000973097310100061132                    URGENT  MALA VANNURU SWAMY                                        097310100061132 EMLdpao-sect@ap.nic.in             
R41000000000200000000000000000000000000000033881454741PD  GOVT OF AP Hyderabad salary    STATE BANK OF INDIA SECRETARIAT    186310100001936                 KAPU SANKERREDDY                   RES EDN INST SOC - AP(APREI SOCIET ANDB0001863186310100001936                    URGENT  KAPU SANKERREDDY                                          186310100001936 EMLdpao-sect@ap.nic.in             
R41000000000200000000000000000000000000000033881454741PD  GOVT OF AP Hyderabad salary    STATE BANK OF INDIA SECRETARIAT    31442250125220                  N ASWINI                           RES EDN INST SOC - AP(APREI SOCIET SYNB000314431442250125220                     URGENT  N ASWINI                                                  31442250125220  EMLdpao-sect@ap.nic.in             
R41000000000200000000000000000000000000000033881454741PD  GOVT OF AP Hyderabad salary    STATE BANK OF INDIA SECRETARIAT    31442250124175                  BOYA NETHRA                        RES EDN INST SOC - AP(APREI SOCIET SYNB000314431442250124175                     URGENT  BOYA NETHRA                                               31442250124175  EMLdpao-sect@ap.nic.in             
R41000000000200000000000000000000000000000033881454741PD  GOVT OF AP Hyderabad salary    STATE BANK OF INDIA SECRETARIAT    186310100024821                 MANJAMMA                           RES EDN INST SOC - AP(APREI SOCIET ANDB0001863186310100024821                    URGENT  MANJAMMA                                                  186310100024821 EMLdpao-sect@ap.nic.in             
R41000000000200000000000000000000000000000033881454741PD  GOVT OF AP Hyderabad salary    STATE BANK OF INDIA SECRETARIAT    62319802005                     SUGALI KOUSALYABAI                 RES EDN INST SOC - AP(APREI SOCIET SBHY002152262319802005                        URGENT  SUGALI KOUSALYABAI                                        62319802005     EMLdpao-sect@ap.nic.in             
R41000000000200000000000000000000000000000033881454741PD  GOVT OF AP Hyderabad salary    STATE BANK OF INDIA SECRETARIAT    203510100003305                 YALIPI SOMAIAH GARI CHANDINI       RES EDN INST SOC - AP(APREI SOCIET ANDB0002035203510100003305                    URGENT  YALIPI SOMAIAH GARI CHAND                                 203510100003305 EMLdpao-sect@ap.nic.in             
R41000000000200000000000000000000000000000033881454741PD  GOVT OF AP Hyderabad salary    STATE BANK OF INDIA SECRETARIAT    033710011019615                 P  MANJUNATH                       RES EDN INST SOC - AP(APREI SOCIET ANDB0000337033710011019615                    URGENT  P  MANJUNATH                                              033710011019615 EMLdpao-sect@ap.nic.in             
R41000000000200000000000000000000000000000033881454741PD  GOVT OF AP Hyderabad salary    STATE BANK OF INDIA SECRETARIAT    62367797596                     NETRAPALLI SULOCHANA               RES EDN INST SOC - AP(APREI SOCIET SBHY002128062367797596                        URGENT  NETRAPALLI SULOCHANA                                      62367797596     EMLdpao-sect@ap.nic.in             
R41000000000200000000000000000000000000000033881454741PD  GOVT OF AP Hyderabad salary    STATE BANK OF INDIA SECRETARIAT    154110100087083                 PAMAPPA GARI SIREESHA              RES EDN INST SOC - AP(APREI SOCIET ANDB0001541154110100087083                    URGENT  PAMAPPA GARI SIREESHA                                     154110100087083 EMLdpao-sect@ap.nic.in             
R41000000000200000000000000000000000000000033881454741PD  GOVT OF AP Hyderabad salary    STATE BANK OF INDIA SECRETARIAT    24240100010344                  Z P HIGH SCHOOL  SANAPA            RES EDN INST SOC - AP(APREI SOCIET BARB0ANAPOL24240100010344                     URGENT  Z P HIGH SCHOOL  SANAPA                                   24240100010344  EMLdpao-sect@ap.nic.in             
R41000000000200000000000000000000000000000033881454741PD  GOVT OF AP Hyderabad salary    STATE BANK OF INDIA SECRETARIAT    312722039567                    S  PULLA REDDY                     RES EDN INST SOC - AP(APREI SOCIET SYNB0003127312722039567                       URGENT  S  PULLA REDDY                                            312722039567    EMLdpao-sect@ap.nic.in             
R41000000000200000000000000000000000000000033881454741PD  GOVT OF AP Hyderabad salary    STATE BANK OF INDIA SECRETARIAT    021710100070024                 RAMAVATH RATHNAMMA                 RES EDN INST SOC - AP(APREI SOCIET ANDB0000217021710100070024                    URGENT  RAMAVATH RATHNAMMA                                        021710100070024 EMLdpao-sect@ap.nic.in             
R41000000000200000000000000000000000000000033881454741PD  GOVT OF AP Hyderabad salary    STATE BANK OF INDIA SECRETARIAT    746010044958                    T  VENKATA SUDHAKAR                RES EDN INST SOC - AP(APREI SOCIET VYSA0007460746010044958                       URGENT  T  VENKATA SUDHAKAR                                       746010044958    EMLdpao-sect@ap.nic.in             
R41000000000200000000000000000000000000000033881454741PD  GOVT OF AP Hyderabad salary    STATE BANK OF INDIA SECRETARIAT    1434155000062840                V  MAHESH KUMAR                    RES EDN INST SOC - AP(APREI SOCIET KVBL00014341434155000062840                   URGENT  V  MAHESH KUMAR                                           1434155000062840EMLdpao-sect@ap.nic.in             
R41000000000200000000000000000000000000000033881454741PD  GOVT OF AP Hyderabad salary    STATE BANK OF INDIA SECRETARIAT    038510021082357                 T  RAVINDRA REDDY                  RES EDN INST SOC - AP(APREI SOCIET ANDB0000385038510021082357                    URGENT  T  RAVINDRA REDDY                                         038510021082357 EMLdpao-sect@ap.nic.in             
R41000000000200000000000000000000000000000033881454741PD  GOVT OF AP Hyderabad salary    STATE BANK OF INDIA SECRETARIAT    62306753173                     KAMBADURI LAKSHMI                  RES EDN INST SOC - AP(APREI SOCIET SBHY002099262306753173                        URGENT  KAMBADURI LAKSHMI                                         62306753173     EMLdpao-sect@ap.nic.in             
R41000000000200000000000000000000000000000033881454741PD  GOVT OF AP Hyderabad salary    STATE BANK OF INDIA SECRETARIAT    112510100092868                 A  PRAVEEN KUMAR                   RES EDN INST SOC - AP(APREI SOCIET ANDB0001125112510100092868                    URGENT  A  PRAVEEN KUMAR                                          112510100092868 EMLdpao-sect@ap.nic.in             
R41000000000200000000000000000000000000000033881454741PD  GOVT OF AP Hyderabad salary    STATE BANK OF INDIA SECRETARIAT    62382969954                     SUGALI VIJAY                       RES EDN INST SOC - AP(APREI SOCIET SBHY002128062382969954                        URGENT  SUGALI VIJAY                                              62382969954     EMLdpao-sect@ap.nic.in             
R41000000000200000000000000000000000000000033881454741PD  GOVT OF AP Hyderabad salary    STATE BANK OF INDIA SECRETARIAT    1851101010479                   S  SEETHARAMAIAH                   RES EDN INST SOC - AP(APREI SOCIET CNRB00018511851101010479                      URGENT  S  SEETHARAMAIAH                                          1851101010479   EMLdpao-sect@ap.nic.in             
R41000000000200000000000000000000000000000033881454741PD  GOVT OF AP Hyderabad salary    STATE BANK OF INDIA SECRETARIAT    0659101062839                   BILLE MANJULA                      RES EDN INST SOC - AP(APREI SOCIET CNRB00006590659101062839                      URGENT  BILLE MANJULA                                             0659101062839   EMLdpao-sect@ap.nic.in             
R41000000000200000000000000000000000000000033881454741PD  GOVT OF AP Hyderabad salary    STATE BANK OF INDIA SECRETARIAT    32132200117266                  DASARI AMRUTHA                     RES EDN INST SOC - AP(APREI SOCIET SYNB000321332132200117266                     URGENT  DASARI AMRUTHA                                            32132200117266  EMLdpao-sect@ap.nic.in             
R41000000000200000000000000000000000000000033881454741PD  GOVT OF AP Hyderabad salary    STATE BANK OF INDIA SECRETARIAT    62366072682                     SANGATI VANAJA                     RES EDN INST SOC - AP(APREI SOCIET SBHY002128062366072682                        URGENT  SANGATI VANAJA                                            62366072682     EMLdpao-sect@ap.nic.in             
R41000000000200000000000000000000000000000033881454741PD  GOVT OF AP Hyderabad salary    STATE BANK OF INDIA SECRETARIAT    62275911225                     HARIJANA NARAYANAMMA               RES EDN INST SOC - AP(APREI SOCIET SBHY002152262275911225                        URGENT  HARIJANA NARAYANAMMA                                      62275911225     EMLdpao-sect@ap.nic.in             
R41000000000200000000000000000000000000000033881454741PD  GOVT OF AP Hyderabad salary    STATE BANK OF INDIA SECRETARIAT    91019562203                     SAMPANGI PEDDANNA                  RES EDN INST SOC - AP(APREI SOCIET APGB000101291019562203                        URGENT  SAMPANGI PEDDANNA                                         91019562203     EMLdpao-sect@ap.nic.in             
R41000000000200000000000000000000000000000033881454741PD  GOVT OF AP Hyderabad salary    STATE BANK OF INDIA SECRETARIAT    31372210034460                  GODUGU KHAJABI                     RES EDN INST SOC - AP(APREI SOCIET SYNB000313731372210034460                     URGENT  GODUGU KHAJABI                                            31372210034460  EMLdpao-sect@ap.nic.in             
R41000000000200000000000000000000000000000033881454741PD  GOVT OF AP Hyderabad salary    STATE BANK OF INDIA SECRETARIAT    24240100011168                  K G B V YELLANUR                   RES EDN INST SOC - AP(APREI SOCIET BARB0ANAPOL24240100011168                     URGENT  K G B V YELLANUR                                          24240100011168  EMLdpao-sect@ap.nic.in             
R41000000000200000000000000000000000000000033881454741PD  GOVT OF AP Hyderabad salary    STATE BANK OF INDIA SECRETARIAT    065710021001618                 P  VENUGOPALA REDDY                RES EDN INST SOC - AP(APREI SOCIET ANDB0000657065710021001618                    URGENT  P  VENUGOPALA REDDY                                       065710021001618 EMLdpao-sect@ap.nic.in             
R41000000000200000000000000000000000000000033881454741PD  GOVT OF AP Hyderabad salary    STATE BANK OF INDIA SECRETARIAT    19168533711                     K  VENKATA RAMANA                  RES EDN INST SOC - AP(APREI SOCIET APGB000105319168533711                        URGENT  K  VENKATA RAMANA                                         19168533711     EMLdpao-sect@ap.nic.in             
R41000000000200000000000000000000000000000033881454741PD  GOVT OF AP Hyderabad salary    STATE BANK OF INDIA SECRETARIAT    010110021001995                 GOPAL NAIK KATRA                   RES EDN INST SOC - AP(APREI SOCIET ANDB0000101010110021001995                    URGENT  GOPAL NAIK KATRA                                          010110021001995 EMLdpao-sect@ap.nic.in             
R41000000000200000000000000000000000000000033881454741PD  GOVT OF AP Hyderabad salary    STATE BANK OF INDIA SECRETARIAT    19076589101                     V  PULLAMMA                        RES EDN INST SOC - AP(APREI SOCIET APGB000105019076589101                        URGENT  V  PULLAMMA                                               19076589101     EMLdpao-sect@ap.nic.in             
R41000000000200000000000000000000000000000033881454741PD  GOVT OF AP Hyderabad salary    STATE BANK OF INDIA SECRETARIAT    62382750365                     VAKIL HIMA SUGANDHI                RES EDN INST SOC - AP(APREI SOCIET SBHY002164362382750365                        URGENT  VAKIL HIMA SUGANDHI                                       62382750365     EMLdpao-sect@ap.nic.in             
R41000000000200000000000000000000000000000033881454741PD  GOVT OF AP Hyderabad salary    STATE BANK OF INDIA SECRETARIAT    018600101020532                 KATAKAM SAI GEETHA REDDY           RES EDN INST SOC - AP(APREI SOCIET CORP0000186018600101020532                    URGENT  KATAKAM SAI GEETHA REDDY                                  018600101020532 EMLdpao-sect@ap.nic.in             
R41000000000200000000000000000000000000000033881454741PD  GOVT OF AP Hyderabad salary    STATE BANK OF INDIA SECRETARIAT    3270006524                      JANAGANI SRINIVASULU               RES EDN INST SOC - AP(APREI SOCIET CBIN02835393270006524                         URGENT  JANAGANI SRINIVASULU                                      3270006524      EMLdpao-sect@ap.nic.in             
R41000000000200000000000000000000000000000033881454741PD  GOVT OF AP Hyderabad salary    STATE BANK OF INDIA SECRETARIAT    105710100046151                 TALARI REDDAPPA                    RES EDN INST SOC - AP(APREI SOCIET ANDB0001057105710100046151                    URGENT  TALARI REDDAPPA                                           105710100046151 EMLdpao-sect@ap.nic.in             
R41000000000200000000000000000000000000000033881454741PD  GOVT OF AP Hyderabad salary    STATE BANK OF INDIA SECRETARIAT    1852101008327                   CHAKALI SRAVANI                    RES EDN INST SOC - AP(APREI SOCIET CNRB00018521852101008327                      URGENT  CHAKALI SRAVANI                                           1852101008327   EMLdpao-sect@ap.nic.in             
R41000000000200000000000000000000000000000033881454741PD  GOVT OF AP Hyderabad salary    STATE BANK OF INDIA SECRETARIAT    91051189261                     BELLAM ANITHA                      RES EDN INST SOC - AP(APREI SOCIET APGB000102491051189261                        URGENT  BELLAM ANITHA                                             91051189261     EMLdpao-sect@ap.nic.in             
R41000000000200000000000000000000000000000033881454741PD  GOVT OF AP Hyderabad salary    STATE BANK OF INDIA SECRETARIAT    021710100081039                 MALLELA NIRANJAN KUMAR             RES EDN INST SOC - AP(APREI SOCIET ANDB0000217021710100081039                    URGENT  MALLELA NIRANJAN KUMAR                                    021710100081039 EMLdpao-sect@ap.nic.in             
R41000000000200000000000000000000000000000033881454741PD  GOVT OF AP Hyderabad salary    STATE BANK OF INDIA SECRETARIAT    1779101026735                   PUNDOLLA SOWBHAGYA                 RES EDN INST SOC - AP(APREI SOCIET CNRB00017791779101026735                      URGENT  PUNDOLLA SOWBHAGYA                                        1779101026735   EMLdpao-sect@ap.nic.in             
R41000000000200000000000000000000000000000033881454741PD  GOVT OF AP Hyderabad salary    STATE BANK OF INDIA SECRETARIAT    122210027050688                 THIMMAREDDY GUDLA                  RES EDN INST SOC - AP(APREI SOCIET ANDB0000755122210027050688                    URGENT  THIMMAREDDY GUDLA                                         122210027050688 EMLdpao-sect@ap.nic.in             
R41000000000200000000000000000000000000000033881454741PD  GOVT OF AP Hyderabad salary    STATE BANK OF INDIA SECRETARIAT    562910110010731                 KANAPANENI MEGHANA                 RES EDN INST SOC - AP(APREI SOCIET BKID0005629562910110010731                    URGENT  KANAPANENI MEGHANA                                        562910110010731 EMLdpao-sect@ap.nic.in             
R41000000000200000000000000000000000000000033881454741PD  GOVT OF AP Hyderabad salary    STATE BANK OF INDIA SECRETARIAT    122210100006861                 PAVAN KUMAND VMMG GANGAMMA         RES EDN INST SOC - AP(APREI SOCIET ANDB0001222122210100006861                    URGENT  PAVAN KUMAND VMMG GANGAMM                                 122210100006861 EMLdpao-sect@ap.nic.in             
R41000000000200000000000000000000000000000033881454741PD  GOVT OF AP Hyderabad salary    STATE BANK OF INDIA SECRETARIAT    185410100004094                 SUNKU VENUGOPAL                    RES EDN INST SOC - AP(APREI SOCIET ANDB0001854185410100004094                    URGENT  SUNKU VENUGOPAL                                           185410100004094 EMLdpao-sect@ap.nic.in             
R41000000000200000000000000000000000000000033881454741PD  GOVT OF AP Hyderabad salary    STATE BANK OF INDIA SECRETARIAT    31282250074350                  KETHIREDDY JAGADEESH REDDY         RES EDN INST SOC - AP(APREI SOCIET SYNB000312831282250074350                     URGENT  KETHIREDDY JAGADEESH REDD                                 31282250074350  EMLdpao-sect@ap.nic.in             
R41000000000200000000000000000000000000000033881454741PD  GOVT OF AP Hyderabad salary    STATE BANK OF INDIA SECRETARIAT    185410100061822                 SAKE NAGA MANI                     RES EDN INST SOC - AP(APREI SOCIET ANDB0001854185410100061822                    URGENT  SAKE NAGA MANI                                            185410100061822 EMLdpao-sect@ap.nic.in             
R41000000000200000000000000000000000000000033881454741PD  GOVT OF AP Hyderabad salary    STATE BANK OF INDIA SECRETARIAT    185410100054859                 BUKKE SOMLANAIK                    RES EDN INST SOC - AP(APREI SOCIET ANDB0001854185410100054859                    URGENT  BUKKE SOMLANAIK                                           185410100054859 EMLdpao-sect@ap.nic.in             
R41000000000200000000000000000000000000000033881454741PD  GOVT OF AP Hyderabad salary    STATE BANK OF INDIA SECRETARIAT    057010100104215                 RANGANI VENKATA CHALAPATHI         RES EDN INST SOC - AP(APREI SOCIET ANDB0000570057010100104215                    URGENT  RANGANI VENKATA CHALAPATH                                 057010100104215 EMLdpao-sect@ap.nic.in             
R41000000000200000000000000000000000000000033881454741PD  GOVT OF AP Hyderabad salary    STATE BANK OF INDIA SECRETARIAT    32312200016504                  MALE PAVANKALYAN                   RES EDN INST SOC - AP(APREI SOCIET SYNB000323132312200016504                     URGENT  MALE PAVANKALYAN                                          32312200016504  EMLdpao-sect@ap.nic.in             
R41000000000200000000000000000000000000000033881454741PD  GOVT OF AP Hyderabad salary    STATE BANK OF INDIA SECRETARIAT    057010100114896                 VEMA AMBIKA                        RES EDN INST SOC - AP(APREI SOCIET ANDB0000570057010100114896                    URGENT  VEMA AMBIKA                                               057010100114896 EMLdpao-sect@ap.nic.in             
R41000000000200000000000000000000000000000033881454741PD  GOVT OF AP Hyderabad salary    STATE BANK OF INDIA SECRETARIAT    62381983448                     DAKKA SAPTAGIRI                    RES EDN INST SOC - AP(APREI SOCIET SBHY002128062381983448                        URGENT  DAKKA SAPTAGIRI                                           62381983448     EMLdpao-sect@ap.nic.in             
R41000000000200000000000000000000000000000033881454741PD  GOVT OF AP Hyderabad salary    STATE BANK OF INDIA SECRETARIAT    153610100070158                 ARVETI SREEVANI                    RES EDN INST SOC - AP(APREI SOCIET ANDB0001536153610100070158                    URGENT  ARVETI SREEVANI                                           153610100070158 EMLdpao-sect@ap.nic.in             
R41000000000200000000000000000000000000000033881454741PD  GOVT OF AP Hyderabad salary    STATE BANK OF INDIA SECRETARIAT    1330155000019520                MIDDE SUBBA REDDY                  RES EDN INST SOC - AP(APREI SOCIET KVBL00013301330155000019520                   URGENT  MIDDE SUBBA REDDY                                         1330155000019520EMLdpao-sect@ap.nic.in             
R41000000000200000000000000000000000000000033881454741PD  GOVT OF AP Hyderabad salary    STATE BANK OF INDIA SECRETARIAT    17500110049884                  KAKARADA AMMAJAN                   RES EDN INST SOC - AP(APREI SOCIET UCBA000175017500110049884                     URGENT  KAKARADA AMMAJAN                                          17500110049884  EMLdpao-sect@ap.nic.in             
R41000000000200000000000000000000000000000033881454741PD  GOVT OF AP Hyderabad salary    STATE BANK OF INDIA SECRETARIAT    62366037852                     GOVINDU MANJULA                    RES EDN INST SOC - AP(APREI SOCIET SBHY002128062366037852                        URGENT  GOVINDU MANJULA                                           62366037852     EMLdpao-sect@ap.nic.in             
R41000000000200000000000000000000000000000033881454741PD  GOVT OF AP Hyderabad salary    STATE BANK OF INDIA SECRETARIAT    042410100119794                 S  SASIKALA                        RES EDN INST SOC - AP(APREI SOCIET ANDB0000424042410100119794                    URGENT  S  SASIKALA                                               042410100119794 EMLdpao-sect@ap.nic.in             
R41000000000200000000000000000000000000000033881454741PD  GOVT OF AP Hyderabad salary    STATE BANK OF INDIA SECRETARIAT    32312210005100                  GANESHNAIK B                       RES EDN INST SOC - AP(APREI SOCIET SYNB000323132312210005100                     URGENT  GANESHNAIK B                                              32312210005100  EMLdpao-sect@ap.nic.in             
R41000000000200000000000000000000000000000033881454741PD  GOVT OF AP Hyderabad salary    STATE BANK OF INDIA SECRETARIAT    030110021006659                 P  KONDAL RAYUDU                   RES EDN INST SOC - AP(APREI SOCIET ANDB0000301030110021006659                    URGENT  P  KONDAL RAYUDU                                          030110021006659 EMLdpao-sect@ap.nic.in             
R41000000000200000000000000000000000000000033881454741PD  GOVT OF AP Hyderabad salary    STATE BANK OF INDIA SECRETARIAT    17500110049679                  SAMA DIVYAVANI                     RES EDN INST SOC - AP(APREI SOCIET UCBA000175017500110049679                     URGENT  SAMA DIVYAVANI                                            17500110049679  EMLdpao-sect@ap.nic.in             
R41000000000200000000000000000000000000000033881454741PD  GOVT OF AP Hyderabad salary    STATE BANK OF INDIA SECRETARIAT    62264970498                     MUDE KULLAY NAIK                   RES EDN INST SOC - AP(APREI SOCIET SBHY002111462264970498                        URGENT  MUDE KULLAY NAIK                                          62264970498     EMLdpao-sect@ap.nic.in             
R41000000000200000000000000000000000000000033881454741PD  GOVT OF AP Hyderabad salary    STATE BANK OF INDIA SECRETARIAT    6285040829                      BHUKYA BALAJI NAIK                 RES EDN INST SOC - AP(APREI SOCIET IDIB000T1526285040829                         URGENT  BHUKYA BALAJI NAIK                                        6285040829      EMLdpao-sect@ap.nic.in             
R41000000000200000000000000000000000000000033881454741PD  GOVT OF AP Hyderabad salary    STATE BANK OF INDIA SECRETARIAT    360010056243                    V  CHANDRA KALA                    RES EDN INST SOC - AP(APREI SOCIET VYSA0003680360010056243                       URGENT  V  CHANDRA KALA                                           360010056243    EMLdpao-sect@ap.nic.in             
R41000000000200000000000000000000000000000033881454741PD  GOVT OF AP Hyderabad salary    STATE BANK OF INDIA SECRETARIAT    030110100158313                 KORRA ANAND NAIK                   RES EDN INST SOC - AP(APREI SOCIET ANDB0000301030110100158313                    URGENT  KORRA ANAND NAIK                                          030110100158313 EMLdpao-sect@ap.nic.in             
R41000000000200000000000000000000000000000033881454741PD  GOVT OF AP Hyderabad salary    STATE BANK OF INDIA SECRETARIAT    62371299754                     MADHUSUDHAN KARANAM                RES EDN INST SOC - AP(APREI SOCIET SBHY002162662371299754                        URGENT  MADHUSUDHAN KARANAM                                       62371299754     EMLdpao-sect@ap.nic.in             
R41000000000200000000000000000000000000000033881454741PD  GOVT OF AP Hyderabad salary    STATE BANK OF INDIA SECRETARIAT    31632210022966                  SASANAKOTA POOJITHA                RES EDN INST SOC - AP(APREI SOCIET SYNB000316331632210022966                     URGENT  SASANAKOTA POOJITHA                                       31632210022966  EMLdpao-sect@ap.nic.in             
R41000000000200000000000000000000000000000033881454741PD  GOVT OF AP Hyderabad salary    STATE BANK OF INDIA SECRETARIAT    185410100051454                 SAKE ALEKYA                        RES EDN INST SOC - AP(APREI SOCIET ANDB0001854185410100051454                    URGENT  SAKE ALEKYA                                               185410100051454 EMLdpao-sect@ap.nic.in             
R41000000000200000000000000000000000000000033881454741PD  GOVT OF AP Hyderabad salary    STATE BANK OF INDIA SECRETARIAT    033910100109991                 GORLA NARAYANA SWAMY               RES EDN INST SOC - AP(APREI SOCIET ANDB0000339033910100109991                    URGENT  GORLA NARAYANA SWAMY                                      033910100109991 EMLdpao-sect@ap.nic.in             
R41000000000200000000000000000000000000000033881454741PD  GOVT OF AP Hyderabad salary    STATE BANK OF INDIA SECRETARIAT    147610100049945                 D DEEPAK                           RES EDN INST SOC - AP(APREI SOCIET ANDB0001476147610100049945                    URGENT  D DEEPAK                                                  147610100049945 EMLdpao-sect@ap.nic.in             
R41000000000200000000000000000000000000000033881454741PD  GOVT OF AP Hyderabad salary    STATE BANK OF INDIA SECRETARIAT    147610100072192                 G KEERTHI                          RES EDN INST SOC - AP(APREI SOCIET ANDB0001476147610100072192                    URGENT  G KEERTHI                                                 147610100072192 EMLdpao-sect@ap.nic.in             
R41000000000200000000000000000000000000000033881454741PD  GOVT OF AP Hyderabad salary    STATE BANK OF INDIA SECRETARIAT    152900101001641                 GAJULA PAVAN BHARGAV               RES EDN INST SOC - AP(APREI SOCIET CORP0001529152900101001641                    URGENT  GAJULA PAVAN BHARGAV                                      152900101001641 EMLdpao-sect@ap.nic.in             
R41000000000200000000000000000000000000000033881454741PD  GOVT OF AP Hyderabad salary    STATE BANK OF INDIA SECRETARIAT    033910021022789                 C GANGADRI                         RES EDN INST SOC - AP(APREI SOCIET ANDB0000339033910021022789                    URGENT  C GANGADRI                                                033910021022789 EMLdpao-sect@ap.nic.in             
R41000000000200000000000000000000000000000033881454741PD  GOVT OF AP Hyderabad salary    STATE BANK OF INDIA SECRETARIAT    1851101004757                   D BHARATH                          RES EDN INST SOC - AP(APREI SOCIET CNRB00018511851101004757                      URGENT  D BHARATH                                                 1851101004757   EMLdpao-sect@ap.nic.in             
R41000000000200000000000000000000000000000033881454741PD  GOVT OF AP Hyderabad salary    STATE BANK OF INDIA SECRETARIAT    090209100000343                 G RAJASHEKAR REDDY                 RES EDN INST SOC - AP(APREI SOCIET ANDB0000755090209100000343                    URGENT  G RAJASHEKAR REDDY                                        090209100000343 EMLdpao-sect@ap.nic.in             
R41000000000200000000000000000000000000000033881454741PD  GOVT OF AP Hyderabad salary    STATE BANK OF INDIA SECRETARIAT    62361843381                     SYED NAHIDA ANJUM                  RES EDN INST SOC - AP(APREI SOCIET SBHY002166662361843381                        URGENT  SYED NAHIDA ANJUM                                         62361843381     EMLdpao-sect@ap.nic.in             
R41000000000200000000000000000000000000000033881454741PD  GOVT OF AP Hyderabad salary    STATE BANK OF INDIA SECRETARIAT    1100108021443                   K HEMAVATHI                        RES EDN INST SOC - AP(APREI SOCIET CNRB00011001100108021443                      URGENT  K HEMAVATHI                                               1100108021443   EMLdpao-sect@ap.nic.in             
R41000000000200000000000000000000000000000033881454741PD  GOVT OF AP Hyderabad salary    STATE BANK OF INDIA SECRETARIAT    001310100154201                 KURUBA CHANDRA LEELA               RES EDN INST SOC - AP(APREI SOCIET ANDB0000013001310100154201                    URGENT  KURUBA CHANDRA LEELA                                      001310100154201 EMLdpao-sect@ap.nic.in             
R41000000000200000000000000000000000000000033881454741PD  GOVT OF AP Hyderabad salary    STATE BANK OF INDIA SECRETARIAT    110010818353                    B SREENIVASULU                     RES EDN INST SOC - AP(APREI SOCIET CNRB0001100110010818353                       URGENT  B SREENIVASULU                                            110010818353    EMLdpao-sect@ap.nic.in             
R41000000000200000000000000000000000000000033881454741PD  GOVT OF AP Hyderabad salary    STATE BANK OF INDIA SECRETARIAT    1200108018996                   K MAHESHWARI                       RES EDN INST SOC - AP(APREI SOCIET CNRB00012001200108018996                      URGENT  K MAHESHWARI                                              1200108018996   EMLdpao-sect@ap.nic.in             
R41000000000200000000000000000000000000000033881454741PD  GOVT OF AP Hyderabad salary    STATE BANK OF INDIA SECRETARIAT    1200101006355                   S NARAYANA SWAMY                   RES EDN INST SOC - AP(APREI SOCIET CNRB00012001200101006355                      URGENT  S NARAYANA SWAMY                                          1200101006355   EMLdpao-sect@ap.nic.in             
R41000000000200000000000000000000000000000033881454741PD  GOVT OF AP Hyderabad salary    STATE BANK OF INDIA SECRETARIAT    1200108018340                   S AEISHA                           RES EDN INST SOC - AP(APREI SOCIET CNRB00012001200108018340                      URGENT  S AEISHA                                                  1200108018340   EMLdpao-sect@ap.nic.in             
R41000000000200000000000000000000000000000033881454741PD  GOVT OF AP Hyderabad salary    STATE BANK OF INDIA SECRETARIAT    1200108018998                   S RAMYA                            RES EDN INST SOC - AP(APREI SOCIET CNRB00012001200108018998                      URGENT  S RAMYA                                                   1200108018998   EMLdpao-sect@ap.nic.in             
R41000000000200000000000000000000000000000033881454741PD  GOVT OF AP Hyderabad salary    STATE BANK OF INDIA SECRETARIAT    31312210036385                  MULINTY VEENA                      RES EDN INST SOC - AP(APREI SOCIET SYNB000313131312210036385                     URGENT  MULINTY VEENA                                             31312210036385  EMLdpao-sect@ap.nic.in             
R41000000000200000000000000000000000000000033881454741PD  GOVT OF AP Hyderabad salary    STATE BANK OF INDIA SECRETARIAT    62364524837                     MULINTI VARI BALACHANDRA REDDY     RES EDN INST SOC - AP(APREI SOCIET SBHY002128062364524837                        URGENT  MULINTI VARI BALACHANDRA                                  62364524837     EMLdpao-sect@ap.nic.in             
R41000000000200000000000000000000000000000033881454741PD  GOVT OF AP Hyderabad salary    STATE BANK OF INDIA SECRETARIAT    62382920667                     S V RAJESWARI BAI                  RES EDN INST SOC - AP(APREI SOCIET SBHY002128062382920667                        URGENT  S V RAJESWARI BAI                                         62382920667     EMLdpao-sect@ap.nic.in             
R41000000000200000000000000000000000000000033881454741PD  GOVT OF AP Hyderabad salary    STATE BANK OF INDIA SECRETARIAT    31312250026461                  K GIRIVARSHINI REDDY               RES EDN INST SOC - AP(APREI SOCIET SYNB000313131312250026461                     URGENT  K GIRIVARSHINI REDDY                                      31312250026461  EMLdpao-sect@ap.nic.in             
R41000000000200000000000000000000000000000033881454741PD  GOVT OF AP Hyderabad salary    STATE BANK OF INDIA SECRETARIAT    31382200088245                  JAGADISH K                         RES EDN INST SOC - AP(APREI SOCIET SYNB000313831382200088245                     URGENT  JAGADISH K                                                31382200088245  EMLdpao-sect@ap.nic.in             
R41000000000200000000000000000000000000000033881454741PD  GOVT OF AP Hyderabad salary    STATE BANK OF INDIA SECRETARIAT    090210100090392                 D K ANILKUMAR                      RES EDN INST SOC - AP(APREI SOCIET ANDB0000902090210100090392                    URGENT  D K ANILKUMAR                                             090210100090392 EMLdpao-sect@ap.nic.in             
R41000000000200000000000000000000000000000033881454741PD  GOVT OF AP Hyderabad salary    STATE BANK OF INDIA SECRETARIAT    020210100120134                 S GOWTHAM                          RES EDN INST SOC - AP(APREI SOCIET ANDB0000202020210100120134                    URGENT  S GOWTHAM                                                 020210100120134 EMLdpao-sect@ap.nic.in             
R41000000000200000000000000000000000000000033881454741PD  GOVT OF AP Hyderabad salary    STATE BANK OF INDIA SECRETARIAT    193301000001297                 S VALE NAIK                        RES EDN INST SOC - AP(APREI SOCIET IOBA0001933193301000001297                    URGENT  S VALE NAIK                                               193301000001297 EMLdpao-sect@ap.nic.in             
R41000000000200000000000000000000000000000033881454741PD  GOVT OF AP Hyderabad salary    STATE BANK OF INDIA SECRETARIAT    31342250116188                  K NANDINI                          RES EDN INST SOC - AP(APREI SOCIET SYNB000313431342250116188                     URGENT  K NANDINI                                                 31342250116188  EMLdpao-sect@ap.nic.in             
R41000000000200000000000000000000000000000033881454741PD  GOVT OF AP Hyderabad salary    STATE BANK OF INDIA SECRETARIAT    020210011012654                 M KRISHNA REDDY                    RES EDN INST SOC - AP(APREI SOCIET ANDB0000202020210011012654                    URGENT  M KRISHNA REDDY                                           020210011012654 EMLdpao-sect@ap.nic.in             
R41000000000200000000000000000000000000000033881454741PD  GOVT OF AP Hyderabad salary    STATE BANK OF INDIA SECRETARIAT    62381263271                     KUMBHAVATH THIRUPAL NAIK           RES EDN INST SOC - AP(APREI SOCIET SBHY002168862381263271                        URGENT  KUMBHAVATH THIRUPAL NAIK                                  62381263271     EMLdpao-sect@ap.nic.in             
R41000000000200000000000000000000000000000033881454741PD  GOVT OF AP Hyderabad salary    STATE BANK OF INDIA SECRETARIAT    185110100067437                 V SUNEETHA                         RES EDN INST SOC - AP(APREI SOCIET ANDB0001861185110100067437                    URGENT  V SUNEETHA                                                185110100067437 EMLdpao-sect@ap.nic.in             
R41000000000200000000000000000000000000000033881454741PD  GOVT OF AP Hyderabad salary    STATE BANK OF INDIA SECRETARIAT    31352210096206                  S SIREESHA                         RES EDN INST SOC - AP(APREI SOCIET SYNB000313531352210096206                     URGENT  S SIREESHA                                                31352210096206  EMLdpao-sect@ap.nic.in             
R41000000000200000000000000000000000000000033881454741PD  GOVT OF AP Hyderabad salary    STATE BANK OF INDIA SECRETARIAT    31352210083511                  S LAKSHMI                          RES EDN INST SOC - AP(APREI SOCIET SYNB000313531352210083511                     URGENT  S LAKSHMI                                                 31352210083511  EMLdpao-sect@ap.nic.in             
R41000000000200000000000000000000000000000033881454741PD  GOVT OF AP Hyderabad salary    STATE BANK OF INDIA SECRETARIAT    62380532360                     KARI NINGAPPA GARI AMBIKA          RES EDN INST SOC - AP(APREI SOCIET SBHY002128062380532360                        URGENT  KARI NINGAPPA GARI AMBIKA                                 62380532360     EMLdpao-sect@ap.nic.in             
R41000000000200000000000000000000000000000033881454741PD  GOVT OF AP Hyderabad salary    STATE BANK OF INDIA SECRETARIAT    31352250066118                  D MANJUNATH                        RES EDN INST SOC - AP(APREI SOCIET SYNB000313531352250066118                     URGENT  D MANJUNATH                                               31352250066118  EMLdpao-sect@ap.nic.in             
R41000000000200000000000000000000000000000033881454741PD  GOVT OF AP Hyderabad salary    STATE BANK OF INDIA SECRETARIAT    31352210083656                  D BHUMIKA                          RES EDN INST SOC - AP(APREI SOCIET SYNB000313531352210083656                     URGENT  D BHUMIKA                                                 31352210083656  EMLdpao-sect@ap.nic.in             
R41000000000200000000000000000000000000000033881454741PD  GOVT OF AP Hyderabad salary    STATE BANK OF INDIA SECRETARIAT    09451010004899                  R J ALIVELAMMA                     RES EDN INST SOC - AP(APREI SOCIET ANDB000094509451010004899                     URGENT  R J ALIVELAMMA                                            09451010004899  EMLdpao-sect@ap.nic.in             
R41000000000200000000000000000000000000000033881454741PD  GOVT OF AP Hyderabad salary    STATE BANK OF INDIA SECRETARIAT    31302210064166                  M SREERAM                          RES EDN INST SOC - AP(APREI SOCIET SYNB000313031302210064166                     URGENT  M SREERAM                                                 31302210064166  EMLdpao-sect@ap.nic.in             
R41000000000200000000000000000000000000000033881454741PD  GOVT OF AP Hyderabad salary    STATE BANK OF INDIA SECRETARIAT    91051238346                     HARITHA SAKIVELA                   RES EDN INST SOC - AP(APREI SOCIET APGB000109391051238346                        URGENT  HARITHA SAKIVELA                                          91051238346     EMLdpao-sect@ap.nic.in             
R41000000000200000000000000000000000000000033881454741PD  GOVT OF AP Hyderabad salary    STATE BANK OF INDIA SECRETARIAT    31302200023617                  JAYAMMA                            RES EDN INST SOC - AP(APREI SOCIET SYNB000313031302200023617                     URGENT  JAYAMMA                                                   31302200023617  EMLdpao-sect@ap.nic.in             
R41000000000200000000000000000000000000000033881454741PD  GOVT OF AP Hyderabad salary    STATE BANK OF INDIA SECRETARIAT    31302210064340                  C RANJITHA                         RES EDN INST SOC - AP(APREI SOCIET SYNB000313031302210064340                     URGENT  C RANJITHA                                                31302210064340  EMLdpao-sect@ap.nic.in             
R41000000000200000000000000000000000000000033881454741PD  GOVT OF AP Hyderabad salary    STATE BANK OF INDIA SECRETARIAT    186110100063024                 RAMACHANDRAPPAGARI HAREESHKUMAR    RES EDN INST SOC - AP(APREI SOCIET ANDB0001861186110100063024                    URGENT  RAMACHANDRAPPAGARI HAREES                                 186110100063024 EMLdpao-sect@ap.nic.in             
R41000000000200000000000000000000000000000033881454741PD  GOVT OF AP Hyderabad salary    STATE BANK OF INDIA SECRETARIAT    186110100036756                 H POOJA                            RES EDN INST SOC - AP(APREI SOCIET ANDB0001861186110100036756                    URGENT  H POOJA                                                   186110100036756 EMLdpao-sect@ap.nic.in             
R41000000000200000000000000000000000000000033881454741PD  GOVT OF AP Hyderabad salary    STATE BANK OF INDIA SECRETARIAT    186110100110562                 KAVITHA                            RES EDN INST SOC - AP(APREI SOCIET ANDB0001861186110100110562                    URGENT  KAVITHA                                                   186110100110562 EMLdpao-sect@ap.nic.in             
R41000000000200000000000000000000000000000033881454741PD  GOVT OF AP Hyderabad salary    STATE BANK OF INDIA SECRETARIAT    19112542201                     MANCHALA VYSHNAVI KUMARI           RES EDN INST SOC - AP(APREI SOCIET APGB000315219112542201                        URGENT  MANCHALA VYSHNAVI KUMARI                                  19112542201     EMLdpao-sect@ap.nic.in             
R41000000000200000000000000000000000000000033881454741PD  GOVT OF AP Hyderabad salary    STATE BANK OF INDIA SECRETARIAT    62388599259                     KONDA HARISH                       RES EDN INST SOC - AP(APREI SOCIET SBHY002184662388599259                        URGENT  KONDA HARISH                                              62388599259     EMLdpao-sect@ap.nic.in             
R41000000000200000000000000000000000000000033881454741PD  GOVT OF AP Hyderabad salary    STATE BANK OF INDIA SECRETARIAT    408701111000501                 YERUKALI ANJALI                    RES EDN INST SOC - AP(APREI SOCIET VIJB0004087408701111000501                    URGENT  YERUKALI ANJALI                                           408701111000501 EMLdpao-sect@ap.nic.in             
R41000000000200000000000000000000000000000033881454741PD  GOVT OF AP Hyderabad salary    STATE BANK OF INDIA SECRETARIAT    33842200052568                  NALLABOTHULA VANITHA               RES EDN INST SOC - AP(APREI SOCIET SYNB000338433842200052568                     URGENT  NALLABOTHULA VANITHA                                      33842200052568  EMLdpao-sect@ap.nic.in             
R41000000000200000000000000000000000000000033881454741PD  GOVT OF AP Hyderabad salary    STATE BANK OF INDIA SECRETARIAT    864510110014664                 REPALLE SIREESHA                   RES EDN INST SOC - AP(APREI SOCIET BKID0008645864510110014664                    URGENT  REPALLE SIREESHA                                          864510110014664 EMLdpao-sect@ap.nic.in             
R41000000000200000000000000000000000000000033881454741PD  GOVT OF AP Hyderabad salary    STATE BANK OF INDIA SECRETARIAT    33842200054875                  K  VEERESH                         RES EDN INST SOC - AP(APREI SOCIET SYNB000338433842200054875                     URGENT  K  VEERESH                                                33842200054875  EMLdpao-sect@ap.nic.in             
R41000000000200000000000000000000000000000033881454741PD  GOVT OF AP Hyderabad salary    STATE BANK OF INDIA SECRETARIAT    33842200032708                  YERUKALA NEELAVATHI                RES EDN INST SOC - AP(APREI SOCIET SYNB000338433842200032708                     URGENT  YERUKALA NEELAVATHI                                       33842200032708  EMLdpao-sect@ap.nic.in             
R41000000000200000000000000000000000000000033881454741PD  GOVT OF AP Hyderabad salary    STATE BANK OF INDIA SECRETARIAT    33842310000018                  LADIGONDI BASAMMA                  RES EDN INST SOC - AP(APREI SOCIET SYNB000338433842310000018                     URGENT  LADIGONDI BASAMMA                                         33842310000018  EMLdpao-sect@ap.nic.in             
R41000000000200000000000000000000000000000033881454741PD  GOVT OF AP Hyderabad salary    STATE BANK OF INDIA SECRETARIAT    846108014852                    SANDYAPOGU PREMA RANI              RES EDN INST SOC - AP(APREI SOCIET CNRB0000846846108014852                       URGENT  SANDYAPOGU PREMA RANI                                     846108014852    EMLdpao-sect@ap.nic.in             
R41000000000200000000000000000000000000000033881454741PD  GOVT OF AP Hyderabad salary    STATE BANK OF INDIA SECRETARIAT    19080032563                     GUNTIKINDI RENUKA                  RES EDN INST SOC - AP(APREI SOCIET APGB000310019080032563                        URGENT  GUNTIKINDI RENUKA                                         19080032563     EMLdpao-sect@ap.nic.in             
R41000000000200000000000000000000000000000033881454741PD  GOVT OF AP Hyderabad salary    STATE BANK OF INDIA SECRETARIAT    62375433549                     UPPARA SAVITHRI                    RES EDN INST SOC - AP(APREI SOCIET SBHY002128062375433549                        URGENT  UPPARA SAVITHRI                                           62375433549     EMLdpao-sect@ap.nic.in             
R41000000000200000000000000000000000000000033881454741PD  GOVT OF AP Hyderabad salary    STATE BANK OF INDIA SECRETARIAT    572610110000675                 BANDI ABIDA                        RES EDN INST SOC - AP(APREI SOCIET BKID0005726572610110000675                    URGENT  BANDI ABIDA                                               572610110000675 EMLdpao-sect@ap.nic.in             
R41000000000200000000000000000000000000000033881454741PD  GOVT OF AP Hyderabad salary    STATE BANK OF INDIA SECRETARIAT    62382927925                     SHAIK DILSHAD                      RES EDN INST SOC - AP(APREI SOCIET SBHY002128062382927925                        URGENT  SHAIK DILSHAD                                             62382927925     EMLdpao-sect@ap.nic.in             
R41000000000200000000000000000000000000000033881454741PD  GOVT OF AP Hyderabad salary    STATE BANK OF INDIA SECRETARIAT    137910100064704                 RAZAKULA BHAARGHAVI                RES EDN INST SOC - AP(APREI SOCIET ANDB0001379137910100064704                    URGENT  RAZAKULA BHAARGHAVI                                       137910100064704 EMLdpao-sect@ap.nic.in             
R41000000000200000000000000000000000000000033881454741PD  GOVT OF AP Hyderabad salary    STATE BANK OF INDIA SECRETARIAT    07421000012077                  Mohd  SUNEER                       RES EDN INST SOC - AP(APREI SOCIET HDFC000074207421000012077                     URGENT  Mohd  SUNEER                                              07421000012077  EMLdpao-sect@ap.nic.in             
R41000000000200000000000000000000000000000033881454741PD  GOVT OF AP Hyderabad salary    STATE BANK OF INDIA SECRETARIAT    6287251443                      UPPARA UMADEVI                     RES EDN INST SOC - AP(APREI SOCIET IDIB000N0856287251443                         URGENT  UPPARA UMADEVI                                            6287251443      EMLdpao-sect@ap.nic.in             
R41000000000200000000000000000000000000000033881454741PD  GOVT OF AP Hyderabad salary    STATE BANK OF INDIA SECRETARIAT    167000101001649                 MIRIYALA ASHISH                    RES EDN INST SOC - AP(APREI SOCIET CORP0001670167000101001649                    URGENT  MIRIYALA ASHISH                                           167000101001649 EMLdpao-sect@ap.nic.in             
R41000000000200000000000000000000000000000033881454741PD  GOVT OF AP Hyderabad salary    STATE BANK OF INDIA SECRETARIAT    39201000050079                  D SARASWATHI                       RES EDN INST SOC - AP(APREI SOCIET IOBA000039239201000050079                     URGENT  D SARASWATHI                                              39201000050079  EMLdpao-sect@ap.nic.in             
R41000000000200000000000000000000000000000033881454741PD  GOVT OF AP Hyderabad salary    STATE BANK OF INDIA SECRETARIAT    039010100146424                 DUDEKULA KOUSER MOIN               RES EDN INST SOC - AP(APREI SOCIET ANDB0000390039010100146424                    URGENT  DUDEKULA KOUSER MOIN                                      039010100146424 EMLdpao-sect@ap.nic.in             
R41000000000200000000000000000000000000000033881454741PD  GOVT OF AP Hyderabad salary    STATE BANK OF INDIA SECRETARIAT    62206561235                     N  SREEDHAR                        RES EDN INST SOC - AP(APREI SOCIET SBHY002077062206561235                        URGENT  N  SREEDHAR                                               62206561235     EMLdpao-sect@ap.nic.in             
R41000000000200000000000000000000000000000033881454741PD  GOVT OF AP Hyderabad salary    STATE BANK OF INDIA SECRETARIAT    62323574332                     CHANDAMALA DINESH KUMAR            RES EDN INST SOC - AP(APREI SOCIET SBHY002077062323574332                        URGENT  CHANDAMALA DINESH KUMAR                                   62323574332     EMLdpao-sect@ap.nic.in             
R41000000000200000000000000000000000000000033881454741PD  GOVT OF AP Hyderabad salary    STATE BANK OF INDIA SECRETARIAT    3407281400                      SATHIPATI RAVI                     RES EDN INST SOC - AP(APREI SOCIET CBIN02847963407281400                         URGENT  SATHIPATI RAVI                                            3407281400      EMLdpao-sect@ap.nic.in             
R41000000000200000000000000000000000000000033881454741PD  GOVT OF AP Hyderabad salary    STATE BANK OF INDIA SECRETARIAT    078610027000584                 PASUPULA KRISHNAMURTHY             RES EDN INST SOC - AP(APREI SOCIET ANDB0000786078610027000584                    URGENT  PASUPULA KRISHNAMURTHY                                    078610027000584 EMLdpao-sect@ap.nic.in             
R41000000000200000000000000000000000000000033881454741PD  GOVT OF AP Hyderabad salary    STATE BANK OF INDIA SECRETARIAT    084210100031186                 GUJJULA CHANDRA SEKHAR             RES EDN INST SOC - AP(APREI SOCIET ANDB0000842084210100031186                    URGENT  GUJJULA CHANDRA SEKHAR                                    084210100031186 EMLdpao-sect@ap.nic.in             
R41000000000200000000000000000000000000000033881454741PD  GOVT OF AP Hyderabad salary    STATE BANK OF INDIA SECRETARIAT    084210100053531                 MOOLINTI GOKARI                    RES EDN INST SOC - AP(APREI SOCIET ANDB0000842084210100053531                    URGENT  MOOLINTI GOKARI                                           084210100053531 EMLdpao-sect@ap.nic.in             
R41000000000200000000000000000000000000000033881454741PD  GOVT OF AP Hyderabad salary    STATE BANK OF INDIA SECRETARIAT    62382955250                     PULIKANTI JYOTHI                   RES EDN INST SOC - AP(APREI SOCIET SBHY002128062382955250                        URGENT  PULIKANTI JYOTHI                                          62382955250     EMLdpao-sect@ap.nic.in             
R41000000000200000000000000000000000000000033881454741PD  GOVT OF AP Hyderabad salary    STATE BANK OF INDIA SECRETARIAT    124510100138355                 KATRAVATH VENKATESH NAIK           RES EDN INST SOC - AP(APREI SOCIET ANDB0001245124510100138355                    URGENT  KATRAVATH VENKATESH NAIK                                  124510100138355 EMLdpao-sect@ap.nic.in             
R41000000000200000000000000000000000000000033881454741PD  GOVT OF AP Hyderabad salary    STATE BANK OF INDIA SECRETARIAT    078610100039540                 YANNAM SREEKANTHA REDDY            RES EDN INST SOC - AP(APREI SOCIET ANDB0000786078610100039540                    URGENT  YANNAM SREEKANTHA REDDY                                   078610100039540 EMLdpao-sect@ap.nic.in             
R41000000000200000000000000000000000000000033881454741PD  GOVT OF AP Hyderabad salary    STATE BANK OF INDIA SECRETARIAT    62382021025                     BANDAGORLA MANOJ                   RES EDN INST SOC - AP(APREI SOCIET SBHY002128062382021025                        URGENT  BANDAGORLA MANOJ                                          62382021025     EMLdpao-sect@ap.nic.in             
R41000000000200000000000000000000000000000033881454741PD  GOVT OF AP Hyderabad salary    STATE BANK OF INDIA SECRETARIAT    62391508812                     PANDUGAYALA SHAHEENA               RES EDN INST SOC - AP(APREI SOCIET SBHY002142462391508812                        URGENT  PANDUGAYALA SHAHEENA                                      62391508812     EMLdpao-sect@ap.nic.in             
R41000000000200000000000000000000000000000033881454741PD  GOVT OF AP Hyderabad salary    STATE BANK OF INDIA SECRETARIAT    002610100193398                 MANGALI RENUKA                     RES EDN INST SOC - AP(APREI SOCIET ANDB0000026002610100193398                    URGENT  MANGALI RENUKA                                            002610100193398 EMLdpao-sect@ap.nic.in             
R41000000000200000000000000000000000000000033881454741PD  GOVT OF AP Hyderabad salary    STATE BANK OF INDIA SECRETARIAT    002610100186927                 RUDAVATH LAKSHMI BAI               RES EDN INST SOC - AP(APREI SOCIET ANDB0000026002610100186927                    URGENT  RUDAVATH LAKSHMI BAI                                      002610100186927 EMLdpao-sect@ap.nic.in             
R41000000000200000000000000000000000000000033881454741PD  GOVT OF AP Hyderabad salary    STATE BANK OF INDIA SECRETARIAT    62383040149                     VADITHE MALLIKARJUNA NAIK          RES EDN INST SOC - AP(APREI SOCIET SBHY002128062383040149                        URGENT  VADITHE MALLIKARJUNA NAIK                                 62383040149     EMLdpao-sect@ap.nic.in             
R41000000000200000000000000000000000000000033881454741PD  GOVT OF AP Hyderabad salary    STATE BANK OF INDIA SECRETARIAT    62383727845                     MEGAVATH SREEKANTH NAIK            RES EDN INST SOC - AP(APREI SOCIET SBHY002158562383727845                        URGENT  MEGAVATH SREEKANTH NAIK                                   62383727845     EMLdpao-sect@ap.nic.in             
R41000000000200000000000000000000000000000033881454741PD  GOVT OF AP Hyderabad salary    STATE BANK OF INDIA SECRETARIAT    62345371052                     JANAVATH MALLIKARJUNA NAIK         RES EDN INST SOC - AP(APREI SOCIET SBHY002158562345371052                        URGENT  JANAVATH MALLIKARJUNA NAI                                 62345371052     EMLdpao-sect@ap.nic.in             
R41000000000200000000000000000000000000000033881454741PD  GOVT OF AP Hyderabad salary    STATE BANK OF INDIA SECRETARIAT    078610100069718                 JALA SUSMITHA                      RES EDN INST SOC - AP(APREI SOCIET ANDB0000786078610100069718                    URGENT  JALA SUSMITHA                                             078610100069718 EMLdpao-sect@ap.nic.in             
R41000000000200000000000000000000000000000033881454741PD  GOVT OF AP Hyderabad salary    STATE BANK OF INDIA SECRETARIAT    029410027000479                 MUNTALA VENKATA KRISHNA REDDY      RES EDN INST SOC - AP(APREI SOCIET ANDB0000755029410027000479                    URGENT  MUNTALA VENKATA KRISHNA R                                 029410027000479 EMLdpao-sect@ap.nic.in             
R41000000000200000000000000000000000000000033881454741PD  GOVT OF AP Hyderabad salary    STATE BANK OF INDIA SECRETARIAT    078610100032103                 LINGALA HARIPRIYA                  RES EDN INST SOC - AP(APREI SOCIET ANDB0000786078610100032103                    URGENT  LINGALA HARIPRIYA                                         078610100032103 EMLdpao-sect@ap.nic.in             
R41000000000200000000000000000000000000000033881454741PD  GOVT OF AP Hyderabad salary    STATE BANK OF INDIA SECRETARIAT    62377599423                     RATLAVATH UPENDRA NAIK             RES EDN INST SOC - AP(APREI SOCIET SBHY002142462377599423                        URGENT  RATLAVATH UPENDRA NAIK                                    62377599423     EMLdpao-sect@ap.nic.in             
R41000000000200000000000000000000000000000033881454741PD  GOVT OF AP Hyderabad salary    STATE BANK OF INDIA SECRETARIAT    78610100056741                  SINTHRE POORNA CHANDRA RAO         RES EDN INST SOC - AP(APREI SOCIET ANDB000078678610100056741                     URGENT  SINTHRE POORNA CHANDRA RA                                 78610100056741  EMLdpao-sect@ap.nic.in             
R41000000000200000000000000000000000000000033881454741PD  GOVT OF AP Hyderabad salary    STATE BANK OF INDIA SECRETARIAT    029410100019175                 DUDEKULA SHAIKSHAVALI              RES EDN INST SOC - AP(APREI SOCIET ANDB0000294029410100019175                    URGENT  DUDEKULA SHAIKSHAVALI                                     029410100019175 EMLdpao-sect@ap.nic.in             
R41000000000200000000000000000000000000000033881454741PD  GOVT OF AP Hyderabad salary    STATE BANK OF INDIA SECRETARIAT    62355625790                     SHAIK SHABANA BEGUM                RES EDN INST SOC - AP(APREI SOCIET SBHY002077062355625790                        URGENT  SHAIK SHABANA BEGUM                                       62355625790     EMLdpao-sect@ap.nic.in             
R41000000000200000000000000000000000000000033881454741PD  GOVT OF AP Hyderabad salary    STATE BANK OF INDIA SECRETARIAT    039201000018084                 CHEVETI AKSHAYA KUMAR              RES EDN INST SOC - AP(APREI SOCIET IOBA0000392039201000018084                    URGENT  CHEVETI AKSHAYA KUMAR                                     039201000018084 EMLdpao-sect@ap.nic.in             
R41000000000200000000000000000000000000000033881454741PD  GOVT OF AP Hyderabad salary    STATE BANK OF INDIA SECRETARIAT    561210510000746                 KARETI RAJA SHEKAR                 RES EDN INST SOC - AP(APREI SOCIET BKI00005612561210510000746                    URGENT  KARETI RAJA SHEKAR                                        561210510000746 EMLdpao-sect@ap.nic.in             
R41000000000200000000000000000000000000000033881454741PD  GOVT OF AP Hyderabad salary    STATE BANK OF INDIA SECRETARIAT    3409207569                      SOGARAJU VIJAYA BHARATHI           RES EDN INST SOC - AP(APREI SOCIET CBIN02847963409207569                         URGENT  SOGARAJU VIJAYA BHARATHI                                  3409207569      EMLdpao-sect@ap.nic.in             
R41000000000200000000000000000000000000000033881454741PD  GOVT OF AP Hyderabad salary    STATE BANK OF INDIA SECRETARIAT    1870108008365                   SUNKARI VENKATESH YADAV            RES EDN INST SOC - AP(APREI SOCIET CNRB00018701870108008365                      URGENT  SUNKARI VENKATESH YADAV                                   1870108008365   EMLdpao-sect@ap.nic.in             
R41000000000200000000000000000000000000000033881454741PD  GOVT OF AP Hyderabad salary    STATE BANK OF INDIA SECRETARIAT    055211100002379                 DUDEKULA MALLEPALLI DASTAGIRI      RES EDN INST SOC - AP(APREI SOCIET ANDB0000552055211100002379                    URGENT  DUDEKULA MALLEPALLI DASTA                                 055211100002379 EMLdpao-sect@ap.nic.in             
R41000000000200000000000000000000000000000033881454741PD  GOVT OF AP Hyderabad salary    STATE BANK OF INDIA SECRETARIAT    1870108007176                   MEKALA RAVI PRAKASH                RES EDN INST SOC - AP(APREI SOCIET CNRB00018701870108007176                      URGENT  MEKALA RAVI PRAKASH                                       1870108007176   EMLdpao-sect@ap.nic.in             
R41000000000200000000000000000000000000000033881454741PD  GOVT OF AP Hyderabad salary    STATE BANK OF INDIA SECRETARIAT    62382720679                     DUNGAVATH ARUNKUMAR NAIK           RES EDN INST SOC - AP(APREI SOCIET SBHY002128062382720679                        URGENT  DUNGAVATH ARUNKUMAR NAIK                                  62382720679     EMLdpao-sect@ap.nic.in             
R41000000000200000000000000000000000000000033881454741PD  GOVT OF AP Hyderabad salary    STATE BANK OF INDIA SECRETARIAT    137910100011915                 M  SUDHAKAR                        RES EDN INST SOC - AP(APREI SOCIET ANDB0001379137910100011915                    URGENT  M  SUDHAKAR                                               137910100011915 EMLdpao-sect@ap.nic.in             
R41000000000200000000000000000000000000000033881454741PD  GOVT OF AP Hyderabad salary    STATE BANK OF INDIA SECRETARIAT    62193088041                     K  SHANKAR REDDY                   RES EDN INST SOC - AP(APREI SOCIET SBHY002141662193088041                        URGENT  K  SHANKAR REDDY                                          62193088041     EMLdpao-sect@ap.nic.in             
R41000000000200000000000000000000000000000033881454741PD  GOVT OF AP Hyderabad salary    STATE BANK OF INDIA SECRETARIAT    1870101000443                   M  LALE ANSARI                     RES EDN INST SOC - AP(APREI SOCIET CNRB00018701870101000443                      URGENT  M  LALE ANSARI                                            1870101000443   EMLdpao-sect@ap.nic.in             
R41000000000200000000000000000000000000000033881454741PD  GOVT OF AP Hyderabad salary    STATE BANK OF INDIA SECRETARIAT    087710100063468                 AAVULA HARI KRISHNA                RES EDN INST SOC - AP(APREI SOCIET ANDB0000877087710100063468                    URGENT  AAVULA HARI KRISHNA                                       087710100063468 EMLdpao-sect@ap.nic.in             
R41000000000200000000000000000000000000000033881454741PD  GOVT OF AP Hyderabad salary    STATE BANK OF INDIA SECRETARIAT    181710100079511                 NENAVATH KUMAR NAIK                RES EDN INST SOC - AP(APREI SOCIET ANDB0001817181710100079511                    URGENT  NENAVATH KUMAR NAIK                                       181710100079511 EMLdpao-sect@ap.nic.in             
R41000000000200000000000000000000000000000033881454741PD  GOVT OF AP Hyderabad salary    STATE BANK OF INDIA SECRETARIAT    1816108011453                   KAMSALI DIVYATHA                   RES EDN INST SOC - AP(APREI SOCIET CNRB00018161816108011453                      URGENT  KAMSALI DIVYATHA                                          1816108011453   EMLdpao-sect@ap.nic.in             
R41000000000200000000000000000000000000000033881454741PD  GOVT OF AP Hyderabad salary    STATE BANK OF INDIA SECRETARIAT    1816119010015                   KONDAPALLI MADHU                   RES EDN INST SOC - AP(APREI SOCIET CNRB00018161816119010015                      URGENT  KONDAPALLI MADHU                                          1816119010015   EMLdpao-sect@ap.nic.in             
R41000000000200000000000000000000000000000033881454741PD  GOVT OF AP Hyderabad salary    STATE BANK OF INDIA SECRETARIAT    194810100075506                 DANDAGALA CHANDRALEKHA             RES EDN INST SOC - AP(APREI SOCIET ANDB0001948194810100075506                    URGENT  DANDAGALA CHANDRALEKHA                                    194810100075506 EMLdpao-sect@ap.nic.in             
R41000000000200000000000000000000000000000033881454741PD  GOVT OF AP Hyderabad salary    STATE BANK OF INDIA SECRETARIAT    62291792035                     BANGI VEDAVATHI                    RES EDN INST SOC - AP(APREI SOCIET SBHY002143662291792035                        URGENT  BANGI VEDAVATHI                                           62291792035     EMLdpao-sect@ap.nic.in             
R41000000000200000000000000000000000000000033881454741PD  GOVT OF AP Hyderabad salary    STATE BANK OF INDIA SECRETARIAT    62291646073                     KOSIGIBOYA LAKSHMINARASAMMA        RES EDN INST SOC - AP(APREI SOCIET SBHY002143662291646073                        URGENT  KOSIGIBOYA LAKSHMINARASAM                                 62291646073     EMLdpao-sect@ap.nic.in             
R41000000000200000000000000000000000000000033881454741PD  GOVT OF AP Hyderabad salary    STATE BANK OF INDIA SECRETARIAT    62291791870                     KAMSALI RADAMMA                    RES EDN INST SOC - AP(APREI SOCIET SBHY002143662291791870                        URGENT  KAMSALI RADAMMA                                           62291791870     EMLdpao-sect@ap.nic.in             
R41000000000200000000000000000000000000000033881454741PD  GOVT OF AP Hyderabad salary    STATE BANK OF INDIA SECRETARIAT    260101000001296                 KURUVA GEETHA                      RES EDN INST SOC - AP(APREI SOCIET IOBA0002601260101000001296                    URGENT  KURUVA GEETHA                                             260101000001296 EMLdpao-sect@ap.nic.in             
R41000000000200000000000000000000000000000033881454741PD  GOVT OF AP Hyderabad salary    STATE BANK OF INDIA SECRETARIAT    194910100189058                 BANAVATH SANDHYA BAI               RES EDN INST SOC - AP(APREI SOCIET ANDB0001948194910100189058                    URGENT  BANAVATH SANDHYA BAI                                      194910100189058 EMLdpao-sect@ap.nic.in             
R41000000000200000000000000000000000000000033881454741PD  GOVT OF AP Hyderabad salary    STATE BANK OF INDIA SECRETARIAT    192610100071351                 KADIRIKOTA SEEMON                  RES EDN INST SOC - AP(APREI SOCIET ANDB0001926192610100071351                    URGENT  KADIRIKOTA SEEMON                                         192610100071351 EMLdpao-sect@ap.nic.in             
R41000000000200000000000000000000000000000033881454741PD  GOVT OF AP Hyderabad salary    STATE BANK OF INDIA SECRETARIAT    339001000001241                 KATTUBADI HUNNISHA PARVEEN         RES EDN INST SOC - AP(APREI SOCIET IOBA0003390339001000001241                    URGENT  KATTUBADI HUNNISHA PARVEE                                 339001000001241 EMLdpao-sect@ap.nic.in             
R41000000000200000000000000000000000000000033881454741PD  GOVT OF AP Hyderabad salary    STATE BANK OF INDIA SECRETARIAT    62382662231                     CHAYA TEJASWINI                    RES EDN INST SOC - AP(APREI SOCIET SBHY002128062382662231                        URGENT  CHAYA TEJASWINI                                           62382662231     EMLdpao-sect@ap.nic.in             
R41000000000200000000000000000000000000000033881454741PD  GOVT OF AP Hyderabad salary    STATE BANK OF INDIA SECRETARIAT    339001000000168                 YERUKALA PRABHAKAR                 RES EDN INST SOC - AP(APREI SOCIET IOBA0003390339001000000168                    URGENT  YERUKALA PRABHAKAR                                        339001000000168 EMLdpao-sect@ap.nic.in             
R41000000000200000000000000000000000000000033881454741PD  GOVT OF AP Hyderabad salary    STATE BANK OF INDIA SECRETARIAT    62365747116                     YERUKULA RANI                      RES EDN INST SOC - AP(APREI SOCIET SBHY002128062365747116                        URGENT  YERUKULA RANI                                             62365747116     EMLdpao-sect@ap.nic.in             
R41000000000200000000000000000000000000000033881454741PD  GOVT OF AP Hyderabad salary    STATE BANK OF INDIA SECRETARIAT    62368829766                     THIRUMALASETTY HARSHITHA           RES EDN INST SOC - AP(APREI SOCIET SBHY002128062368829766                        URGENT  THIRUMALASETTY HARSHITHA                                  62368829766     EMLdpao-sect@ap.nic.in             
R41000000000200000000000000000000000000000033881454741PD  GOVT OF AP Hyderabad salary    STATE BANK OF INDIA SECRETARIAT    572610110000161                 GANTALA MAHA LAKSHMI               RES EDN INST SOC - AP(APREI SOCIET BKID0005726572610110000161                    URGENT  GANTALA MAHA LAKSHMI                                      572610110000161 EMLdpao-sect@ap.nic.in             
R41000000000200000000000000000000000000000033881454741PD  GOVT OF AP Hyderabad salary    STATE BANK OF INDIA SECRETARIAT    011110100144213                 KOMMU NAGESWARAMMA                 RES EDN INST SOC - AP(APREI SOCIET ANDB0000111011110100144213                    URGENT  KOMMU NAGESWARAMMA                                        011110100144213 EMLdpao-sect@ap.nic.in             
R41000000000200000000000000000000000000000033881454741PD  GOVT OF AP Hyderabad salary    STATE BANK OF INDIA SECRETARIAT    194810100102183                 PINJARI SARAMBI                    RES EDN INST SOC - AP(APREI SOCIET ANDB0001948194810100102183                    URGENT  PINJARI SARAMBI                                           194810100102183 EMLdpao-sect@ap.nic.in             
R41000000000200000000000000000000000000000033881454741PD  GOVT OF AP Hyderabad salary    STATE BANK OF INDIA SECRETARIAT    62375436448                     VANKEMDINNE VEERA PRAKASH          RES EDN INST SOC - AP(APREI SOCIET SBHY002128062375436448                        URGENT  VANKEMDINNE VEERA PRAKASH                                 62375436448     EMLdpao-sect@ap.nic.in             
R41000000000200000000000000000000000000000033881454741PD  GOVT OF AP Hyderabad salary    STATE BANK OF INDIA SECRETARIAT    109610100094477                 B  VENKATESWARLU                   RES EDN INST SOC - AP(APREI SOCIET ANDB0001096109610100094477                    URGENT  B  VENKATESWARLU                                          109610100094477 EMLdpao-sect@ap.nic.in             
R41000000000200000000000000000000000000000033881454741PD  GOVT OF AP Hyderabad salary    STATE BANK OF INDIA SECRETARIAT    62372941512                     BIJJAM VENKATESWARA REDDY          RES EDN INST SOC - AP(APREI SOCIET SBHY002128462372941512                        URGENT  BIJJAM VENKATESWARA REDDY                                 62372941512     EMLdpao-sect@ap.nic.in             
R41000000000200000000000000000000000000000033881454741PD  GOVT OF AP Hyderabad salary    STATE BANK OF INDIA SECRETARIAT    3385476412                      TENE MADHU                         RES EDN INST SOC - AP(APREI SOCIET CBIN02818963385476412                         URGENT  TENE MADHU                                                3385476412      EMLdpao-sect@ap.nic.in             
R41000000000200000000000000000000000000000033881454741PD  GOVT OF AP Hyderabad salary    STATE BANK OF INDIA SECRETARIAT    3226402205                      ADDAKULA SIVA JYOTHI               RES EDN INST SOC - AP(APREI SOCIET CBIN02818963226402205                         URGENT  ADDAKULA SIVA JYOTHI                                      3226402205      EMLdpao-sect@ap.nic.in             
R41000000000200000000000000000000000000000033881454741PD  GOVT OF AP Hyderabad salary    STATE BANK OF INDIA SECRETARIAT    62280085200                     G ANUSHA                           RES EDN INST SOC - AP(APREI SOCIET SBHY002067762280085200                        URGENT  G ANUSHA                                                  62280085200     EMLdpao-sect@ap.nic.in             
R41000000000200000000000000000000000000000033881454741PD  GOVT OF AP Hyderabad salary    STATE BANK OF INDIA SECRETARIAT    318010025878                    K V  SUBBA RAO                     RES EDN INST SOC - AP(APREI SOCIET VYSA0003180318010025878                       URGENT  K V  SUBBA RAO                                            318010025878    EMLdpao-sect@ap.nic.in             
R41000000000200000000000000000000000000000033881454741PD  GOVT OF AP Hyderabad salary    STATE BANK OF INDIA SECRETARIAT    625302010000392                 K  RAMA MURTHY                     RES EDN INST SOC - AP(APREI SOCIET UBIN0562530625302010000392                    URGENT  K  RAMA MURTHY                                            625302010000392 EMLdpao-sect@ap.nic.in             
R41000000000200000000000000000000000000000033881454741PD  GOVT OF AP Hyderabad salary    STATE BANK OF INDIA SECRETARIAT    37910011024693                  PENTIBOYENA SREENU                 RES EDN INST SOC - AP(APREI SOCIET ANDB000037937910011024693                     URGENT  PENTIBOYENA SREENU                                        37910011024693  EMLdpao-sect@ap.nic.in             
R41000000000200000000000000000000000000000033881454741PD  GOVT OF AP Hyderabad salary    STATE BANK OF INDIA SECRETARIAT    174001000426579                 KUNTENOLLA POOJITHA                RES EDN INST SOC - AP(APREI SOCIET CIUB0000174174001000426579                    URGENT  KUNTENOLLA POOJITHA                                       174001000426579 EMLdpao-sect@ap.nic.in             
R41000000000200000000000000000000000000000033881454741PD  GOVT OF AP Hyderabad salary    STATE BANK OF INDIA SECRETARIAT    572510110001419                 YERVA RANGAREDDY                   RES EDN INST SOC - AP(APREI SOCIET BKID0005725572510110001419                    URGENT  YERVA RANGAREDDY                                          572510110001419 EMLdpao-sect@ap.nic.in             
R41000000000200000000000000000000000000000033881454741PD  GOVT OF AP Hyderabad salary    STATE BANK OF INDIA SECRETARIAT    91038090029                     CHITTEPU VENKATESH                 RES EDN INST SOC - AP(APREI SOCIET APGB000306291038090029                        URGENT  CHITTEPU VENKATESH                                        91038090029     EMLdpao-sect@ap.nic.in             
R41000000000200000000000000000000000000000033881454741PD  GOVT OF AP Hyderabad salary    STATE BANK OF INDIA SECRETARIAT    91012764364                     MAAMATAN REMESHWARA REDDY          RES EDN INST SOC - AP(APREI SOCIET APGB000306291012764364                        URGENT  MAAMATAN REMESHWARA REDDY                                 91012764364     EMLdpao-sect@ap.nic.in             
R41000000000200000000000000000000000000000033881454741PD  GOVT OF AP Hyderabad salary    STATE BANK OF INDIA SECRETARIAT    62287833647                     NANDYALA RAMA MAHESWARA REDDY      RES EDN INST SOC - AP(APREI SOCIET SBHY002165162287833647                        URGENT  NANDYALA RAMA MAHESWARA R                                 62287833647     EMLdpao-sect@ap.nic.in             
R41000000000200000000000000000000000000000033881454741PD  GOVT OF AP Hyderabad salary    STATE BANK OF INDIA SECRETARIAT    002010100237346                 BUKKE NAGALAKSHMI                  RES EDN INST SOC - AP(APREI SOCIET ANDB0000020002010100237346                    URGENT  BUKKE NAGALAKSHMI                                         002010100237346 EMLdpao-sect@ap.nic.in             
R41000000000200000000000000000000000000000033881454741PD  GOVT OF AP Hyderabad salary    STATE BANK OF INDIA SECRETARIAT    002010100271854                 BYSANI SUBBA PRAVALLIKA            RES EDN INST SOC - AP(APREI SOCIET ANDB0000020002010100271854                    URGENT  BYSANI SUBBA PRAVALLIKA                                   002010100271854 EMLdpao-sect@ap.nic.in             
R41000000000200000000000000000000000000000033881454741PD  GOVT OF AP Hyderabad salary    STATE BANK OF INDIA SECRETARIAT    62383172835                     BANGI KUMAR                        RES EDN INST SOC - AP(APREI SOCIET SBHY002128062383172835                        URGENT  BANGI KUMAR                                               62383172835     EMLdpao-sect@ap.nic.in             
R41000000000200000000000000000000000000000033881454741PD  GOVT OF AP Hyderabad salary    STATE BANK OF INDIA SECRETARIAT    62364569095                     NUKALA SREELATHA                   RES EDN INST SOC - AP(APREI SOCIET SBHY002141662364569095                        URGENT  NUKALA SREELATHA                                          62364569095     EMLdpao-sect@ap.nic.in             
R41000000000200000000000000000000000000000033881454741PD  GOVT OF AP Hyderabad salary    STATE BANK OF INDIA SECRETARIAT    62381773655                     NAVEEN PENUKONDA                   RES EDN INST SOC - AP(APREI SOCIET SBHY002128062381773655                        URGENT  NAVEEN PENUKONDA                                          62381773655     EMLdpao-sect@ap.nic.in             
R41000000000200000000000000000000000000000033881454741PD  GOVT OF AP Hyderabad salary    STATE BANK OF INDIA SECRETARIAT    411201011000616                 KUDARATH BASHA SHAIK               RES EDN INST SOC - AP(APREI SOCIET VIJB0004112411201011000616                    URGENT  KUDARATH BASHA SHAIK                                      411201011000616 EMLdpao-sect@ap.nic.in             
R41000000000200000000000000000000000000000033881454741PD  GOVT OF AP Hyderabad salary    STATE BANK OF INDIA SECRETARIAT    6284482780                      SHAIK HUSSAIN BASHA                RES EDN INST SOC - AP(APREI SOCIET IDIB000N0376284482780                         URGENT  SHAIK HUSSAIN BASHA                                       6284482780      EMLdpao-sect@ap.nic.in             
R41000000000200000000000000000000000000000033881454741PD  GOVT OF AP Hyderabad salary    STATE BANK OF INDIA SECRETARIAT    308900101000654                 DATLA VENKATA RAMA SUBBA REDDY     RES EDN INST SOC - AP(APREI SOCIET CORP0003089308900101000654                    URGENT  DATLA VENKATA RAMA SUBBA                                  308900101000654 EMLdpao-sect@ap.nic.in             
