R41000000001203880000000000000000000000000033881454741PAO GOVT OF AP Hyderabad salary    STATE BANK OF INDIA SECRETARIAT    037011011060798                 SREENIVASA CONSTRUCTION CORPORATIONTECH SERV LTD - AP MANAGING DIRECT ANDB0000370TECH SERV LTD - AP MANAGING DIRECT URGENT  SREENIVASA CONSTRUCTION C                                 0352431         EMLdpao-sect@ap.nic.in             
R41000000000581000000000000000000000000000033881454741PAO GOVT OF AP Hyderabad salary    STATE BANK OF INDIA SECRETARIAT    12938020000060                  Cache Peripherals Pvt Ltd          TECH SERV LTD - AP MANAGING DIRECT HDFC0001293TECH SERV LTD - AP MANAGING DIRECT URGENT  Cache Peripherals Pvt Ltd                                 0352432         EMLdpao-sect@ap.nic.in             
R41000000002481100000000000000000000000000033881454741PAO GOVT OF AP Hyderabad salary    STATE BANK OF INDIA SECRETARIAT    12938020000060                  Cache Peripherals Pvt Ltd          TECH SERV LTD - AP MANAGING DIRECT HDFC0001293TECH SERV LTD - AP MANAGING DIRECT URGENT  Cache Peripherals Pvt Ltd                                 0352433         EMLdpao-sect@ap.nic.in             
R41000000003417470000000000000000000000000033881454741PAO GOVT OF AP Hyderabad salary    STATE BANK OF INDIA SECRETARIAT    913030031517421                 Shell Networks and Solutions       TECH SERV LTD - AP MANAGING DIRECT UTIB0001634TECH SERV LTD - AP MANAGING DIRECT URGENT  Shell Networks and Soluti                                 0352434         EMLdpao-sect@ap.nic.in             
R41000000001862080000000000000000000000000033881454741PAO GOVT OF AP Hyderabad salary    STATE BANK OF INDIA SECRETARIAT    60115690917                     RC All Tech Power Systems Pvt Ltd  TECH SERV LTD - AP MANAGING DIRECT MAHB0000387TECH SERV LTD - AP MANAGING DIRECT URGENT  RC All Tech Power Systems                                 0352435         EMLdpao-sect@ap.nic.in             
