R4131996982232     000000006560840000000000000000000000000033881454741PAO GOVT OF AP Hyderabad salary    STATE BANK OF INDIA SECRETARIAT    31996982232                     RS B Seethampeta                   TRIBAL WELFARE RESIDENTIAL EDUCATI            31996982232                        URGENT  RS B Seethampeta         31996982232     
R4111627538912     000000004112860000000000000000000000000033881454741PAO GOVT OF AP Hyderabad salary    STATE BANK OF INDIA SECRETARIAT    11627538912                     RS B Bhadragiri                    TRIBAL WELFARE RESIDENTIAL EDUCATI            11627538912                        URGENT  RS B Bhadragiri          11627538912     
R4133052488504     000000009331000000000000000000000000000033881454741PAO GOVT OF AP Hyderabad salary    STATE BANK OF INDIA SECRETARIAT    33052488504                     RS B  Araku Valley                 TRIBAL WELFARE RESIDENTIAL EDUCATI            33052488504                        URGENT  RS B  Araku Valley       33052488504     
R4133027185475     000000010892060000000000000000000000000033881454741PAO GOVT OF AP Hyderabad salary    STATE BANK OF INDIA SECRETARIAT    33027185475                     RS G  Araku Valley                 TRIBAL WELFARE RESIDENTIAL EDUCATI            33027185475                        URGENT  RS G  Araku Valley       33027185475     
R4131952778078     000000004498320000000000000000000000000033881454741PAO GOVT OF AP Hyderabad salary    STATE BANK OF INDIA SECRETARIAT    31952778078                     RS B Thummanavalasa                TRIBAL WELFARE RESIDENTIAL EDUCATI            31952778078                        URGENT  RS B Thummanavalasa      31952778078     
R4132447256742     000000005546320000000000000000000000000033881454741PAO GOVT OF AP Hyderabad salary    STATE BANK OF INDIA SECRETARIAT    32447256742                     RS B G Madugula                    TRIBAL WELFARE RESIDENTIAL EDUCATI            32447256742                        URGENT  RS B G Madugula          32447256742     
R4132255048773     000000006883990000000000000000000000000033881454741PAO GOVT OF AP Hyderabad salary    STATE BANK OF INDIA SECRETARIAT    32255048773                     RS B Srisailam                     TRIBAL WELFARE RESIDENTIAL EDUCATI            32255048773                        URGENT  RS B Srisailam           32255048773     
R4133634471908     000000008734720000000000000000000000000033881454741PAO GOVT OF AP Hyderabad salary    STATE BANK OF INDIA SECRETARIAT    33634471908                     RS B Sevagadh Gollaladoddi         TRIBAL WELFARE RESIDENTIAL EDUCATI            33634471908                        URGENT  RS B Sevagadh Gollaladodd33634471908     
