R41000000000095420000000000000000000000000033881454741PAO GOVT OF AP Hyderabad salary    STATE BANK OF INDIA SECRETARIAT    62341658143                     K RAMA SHESHU                      ITDA FOR PLAIN AREAS PROJECT OFFIC SBHY0021026ITDA FOR PLAIN AREAS PROJECT OFFIC URGENT  K RAMA SHESHU                                             0136321         EMLdpao-sect@ap.nic.in             
R41000000000030000000000000000000000000000033881454741PAO GOVT OF AP Hyderabad salary    STATE BANK OF INDIA SECRETARIAT    52188998461                     P VENKAT RAO                       ITDA FOR PLAIN AREAS PROJECT OFFIC SBHY0021026ITDA FOR PLAIN AREAS PROJECT OFFIC URGENT  P VENKAT RAO                                              0136322         EMLdpao-sect@ap.nic.in             
R41000000000270040000000000000000000000000033881454741PAO GOVT OF AP Hyderabad salary    STATE BANK OF INDIA SECRETARIAT    00090310002295                  CONCORDE MOTORS INDIA LIMITED      ITDA FOR PLAIN AREAS PROJECT OFFIC HDFC0000009ITDA FOR PLAIN AREAS PROJECT OFFIC URGENT  CONCORDE MOTORS INDIA LIM                                 0136323         EMLdpao-sect@ap.nic.in             
R41000000000095740000000000000000000000000033881454741PAO GOVT OF AP Hyderabad salary    STATE BANK OF INDIA SECRETARIAT    52088415021                     DIST MANAGER APS CIVIL SUPPLIES CORITDA FOR PLAIN AREAS PROJECT OFFIC SBHY0020077ITDA FOR PLAIN AREAS PROJECT OFFIC URGENT  DIST MANAGER APS CIVIL SU                                 0136324         EMLdpao-sect@ap.nic.in             
