R41000000000392000000000000000000000000000033881454741PAO GOVT OF AP Hyderabad salary    STATE BANK OF INDIA SECRETARIAT    914020048148917                 MAGIC EYE DIGITAL SOLUTIONS        FILM AND TV DEVELOPMENT  CORPORATI UTIB0000008914020048148917                    URGENT  MAGIC EYE DIGITAL SOLUTIO                                 914020048148917 EMLdpao-sect@ap.nic.in             
R41000000000237160000000000000000000000000033881454741PAO GOVT OF AP Hyderabad salary    STATE BANK OF INDIA SECRETARIAT    914020048148917                 MAGIC EYE DIGITAL SOLUTIONS        FILM AND TV DEVELOPMENT  CORPORATI UTIB0000008914020048148917                    URGENT  MAGIC EYE DIGITAL SOLUTIO                                 914020048148917 EMLdpao-sect@ap.nic.in             
R41000000000241080000000000000000000000000033881454741PAO GOVT OF AP Hyderabad salary    STATE BANK OF INDIA SECRETARIAT    914020048148917                 MAGIC EYE DIGITAL SOLUTIONS        FILM AND TV DEVELOPMENT  CORPORATI UTIB0000008914020048148917                    URGENT  MAGIC EYE DIGITAL SOLUTIO                                 914020048148917 EMLdpao-sect@ap.nic.in             
R41000000000331080000000000000000000000000033881454741PAO GOVT OF AP Hyderabad salary    STATE BANK OF INDIA SECRETARIAT    912020034295076                 REAL IMAGE MEDIA TECHNOLOGIES      FILM AND TV DEVELOPMENT  CORPORATI UTIB0000006912020034295076                    URGENT  REAL IMAGE MEDIA TECHNOLO                                 912020034295076 EMLdpao-sect@ap.nic.in             
R41000000000016900000000000000000000000000033881454741PAO GOVT OF AP Hyderabad salary    STATE BANK OF INDIA SECRETARIAT    860920101000928                 UBS OVERSEAS                       FILM AND TV DEVELOPMENT  CORPORATI BKID0008609860920101000928                    URGENT  UBS OVERSEAS                                              860920101000928 EMLdpao-sect@ap.nic.in             
R41000000000784000000000000000000000000000033881454741PAO GOVT OF AP Hyderabad salary    STATE BANK OF INDIA SECRETARIAT    863720110000164                 SS MEDIA                           FILM AND TV DEVELOPMENT  CORPORATI BKID0008637863720110000164                    URGENT  SS MEDIA                                                  863720110000164 EMLdpao-sect@ap.nic.in             
