R41000000000130000000000000000000000000000000000000027ITDA FOR PLAIN AREAS, Project Officer of - APSTATE BANK OF INDIA                62341658143                     K RAMSHESHU                        ITDA FOR PLAIN AREAS PROJECT OFFIC SBHY002102662341658143                        URGENT  K RAMSHESHU              62341658143     
R41000000000015000000000000000000000000000000000000027ITDA FOR PLAIN AREAS, Project Officer of - APSTATE BANK OF INDIA                00421050419925                  D BHANU NURTHY                     ITDA FOR PLAIN AREAS PROJECT OFFIC HDFC000004200421050419925                     URGENT  D BHANU NURTHY           00421050419925  
R41000000000008750000000000000000000000000000000000027ITDA FOR PLAIN AREAS, Project Officer of - APSTATE BANK OF INDIA                3292000100080401                TEJASREE ENTERPRISES               ITDA FOR PLAIN AREAS PROJECT OFFICKARB000003293292000100080401                   URGENT  TEJASREE ENTERPRISES     3292000100080401
R41000000000245000000000000000000000000000000000000027ITDA FOR PLAIN AREAS, Project Officer of - APSTATE BANK OF INDIA                62405882550                     STAR TRAVELS                       ITDA FOR PLAIN AREAS PROJECT OFFIC SBHY002102662405882550                        URGENT  STAR TRAVELS             62405882550     
