R41000000000075340000000000000000000099999999999999999PAO GOVT OF AP Hyderabad salary    STATE BANK OF INDIA SECRETARIAT    52088415021                     DIST MANAGER APS CIVIL SUPPLIES CORITDA FOR PLAIN AREAS PROJECT OFFIC SBHY002007752088415021                        URGENT  DIST MANAGER APS CIVIL SU52088415021     
R41000000000245000000000000000000000099999999999999999PAO GOVT OF AP Hyderabad salary    STATE BANK OF INDIA SECRETARIAT    62405882550                     STAR TRAVELS                       ITDA FOR PLAIN AREAS PROJECT OFFIC SBHY002102662405882550                        URGENT  STAR TRAVELS             62405882550     
R41000000000060600000000000000000000099999999999999999PAO GOVT OF AP Hyderabad salary    STATE BANK OF INDIA SECRETARIAT    52188999770                     T GOVARDHAN NAIDU                  ITDA FOR PLAIN AREAS PROJECT OFFIC SBHY002102652188999770                        URGENT  T GOVARDHAN NAIDU        52188999770     
R41000000000008750000000000000000000099999999999999999PAO GOVT OF AP Hyderabad salary    STATE BANK OF INDIA SECRETARIAT    3292E15                         TEJASREEENTERPRISES                ITDA FOR PLAIN AREAS PROJECT OFFIC KARB00003293292E15                            URGENT  TEJASREEENTERPRISES      3292E15         
R41000000000157800000000000000000000099999999999999999PAO GOVT OF AP Hyderabad salary    STATE BANK OF INDIA SECRETARIAT    52188935262                     CH SHIVA KAMESHWARA RAO            ITDA FOR PLAIN AREAS PROJECT OFFIC SBHY002102652188935262                        URGENT  CH SHIVA KAMESHWARA RAO  52188935262     
R41000000000026000000000000000000000099999999999999999PAO GOVT OF AP Hyderabad salary    STATE BANK OF INDIA SECRETARIAT    20285926707                     SILICO SYSTEM SERVICES             ITDA FOR PLAIN AREAS PROJECT OFFIC ALLA021121420285926707                        URGENT  SILICO SYSTEM SERVICES   20285926707     
R41000000000235200000000000000000000099999999999999999PAO GOVT OF AP Hyderabad salary    STATE BANK OF INDIA SECRETARIAT    11251E14                        G ESWARAIAH                        ITDA FOR PLAIN AREAS PROJECT OFFIC ANDB000112511251E14                           URGENT  G ESWARAIAH              11251E14        
