R4159810011001651  000000000470000000000000000000000000000033881454741PAO GOVT OF AP Hyderabad salary    STATE BANK OF INDIA SECRETARIAT    59810011001651                  VVenkatesh                         ZILLA PARISHAD DY CEO CHITTOOR     ANDB000059859810011001651                     URGENT  VVenkatesh               59810011001651  
R41510925459       000000001000000000000000000000000000000033881454741PAO GOVT OF AP Hyderabad salary    STATE BANK OF INDIA SECRETARIAT    510925459                       NVGajendra Prasad                  ZILLA PARISHAD DY CEO CHITTOOR     IDIB000K058510925459                          URGENT  NVGajendra Prasad        510925459       
R41510930989       000000001900000000000000000000000000000033881454741PAO GOVT OF AP Hyderabad salary    STATE BANK OF INDIA SECRETARIAT    510930989                       PLGaneshan                         ZILLA PARISHAD DY CEO CHITTOOR     IDIB000K058510930989                          URGENT  PLGaneshan               510930989       
R4131702180008768  000000000400000000000000000000000000000033881454741PAO GOVT OF AP Hyderabad salary    STATE BANK OF INDIA SECRETARIAT    31702180008768                  MVRamanaprakash                    ZILLA PARISHAD DY CEO CHITTOOR     SYNB000317031702180008768                     URGENT  MVRamanaprakash          31702180008768  
R411500155000008831000000000810000000000000000000000000000033881454741PAO GOVT OF AP Hyderabad salary    STATE BANK OF INDIA SECRETARIAT    1500155000008831                PMohammed Khan                     ZILLA PARISHAD DY CEO CHITTOOR     KVBL00015001500155000008831                   URGENT  PMohammed Khan           1500155000008831
