R41000000000200000000000000000000000000000033881454741PAO GOVT OF AP Hyderabad salary    STATE BANK OF INDIA SECRETARIAT    146110100038620                 DRavi Teja                         DIRECTOR OF LANGUAGE & CULTURE     ANDB0001461146110100038620                    URGENT  DRavi Teja                                                146110100038620 EMLdpao-sect@ap.nic.in             
R41000000000200000000000000000000000000000033881454741PAO GOVT OF AP Hyderabad salary    STATE BANK OF INDIA SECRETARIAT    6106651564                      CHSai Chandu                       DIRECTOR OF LANGUAGE & CULTURE     IDIB000C0066106651564                         URGENT  CHSai Chandu                                              6106651564      EMLdpao-sect@ap.nic.in             
R41000000000200000000000000000000000000000033881454741PAO GOVT OF AP Hyderabad salary    STATE BANK OF INDIA SECRETARIAT    008910011015063                 MMRao                              DIRECTOR OF LANGUAGE & CULTURE     ANDB0000400008910011015063                    URGENT  MMRao                                                     008910011015063 EMLdpao-sect@ap.nic.in             
R41000000000200000000000000000000000000000033881454741PAO GOVT OF AP Hyderabad salary    STATE BANK OF INDIA SECRETARIAT    62336057104                     PSateesh                           DIRECTOR OF LANGUAGE & CULTURE     SBHY002166662336057104                        URGENT  PSateesh                                                  62336057104     EMLdpao-sect@ap.nic.in             
R41000000000131620000000000000000000000000033881454741PAO GOVT OF AP Hyderabad salary    STATE BANK OF INDIA SECRETARIAT    630505027261                    Global Tours                       DIRECTOR OF LANGUAGE & CULTURE     ICIC0006305630505027261                       URGENT  Global Tours                                              630505027261    EMLdpao-sect@ap.nic.in             
