R41000000000500000000000000000000000000000033881454741PAO GOVT OF AP Hyderabad salary    STATE BANK OF INDIA SECRETARIAT    50193530841                     Shaik Harfiza Begum                MINORITIES FINANCE COR LTD, AP STA ALLA021268350193530841                        URGENT  Shaik Harfiza Begum                                       50193530841     EMLdpao-sect@ap.nic.in             
R41000000000300000000000000000000000000000033881454741PAO GOVT OF AP Hyderabad salary    STATE BANK OF INDIA SECRETARIAT    175210100040236                 Jinkala Raziya Begum               MINORITIES FINANCE COR LTD, AP STA ANDB0001752175210100040236                    URGENT  Jinkala Raziya Begum                                      175210100040236 EMLdpao-sect@ap.nic.in             
R41000000000500000000000000000000000000000033881454741PAO GOVT OF AP Hyderabad salary    STATE BANK OF INDIA SECRETARIAT    146010100049547                 Tappa Gowsa E Azam                 MINORITIES FINANCE COR LTD, AP STA ANDB0001460146010100049547                    URGENT  Tappa Gowsa E Azam                                        146010100049547 EMLdpao-sect@ap.nic.in             
R41000000000300000000000000000000000000000033881454741PAO GOVT OF AP Hyderabad salary    STATE BANK OF INDIA SECRETARIAT    146010100049538                 Shaik Shakeela Banu                MINORITIES FINANCE COR LTD, AP STA ANDB0001460146010100049538                    URGENT  Shaik Shakeela Banu                                       146010100049538 EMLdpao-sect@ap.nic.in             
R41000000000375000000000000000000000000000033881454741PAO GOVT OF AP Hyderabad salary    STATE BANK OF INDIA SECRETARIAT    146010100049583                 A.Nazirun                          MINORITIES FINANCE COR LTD, AP STA ANDB0001460146010100049583                    URGENT  A.Nazirun                                                 146010100049583 EMLdpao-sect@ap.nic.in             
R41000000000300000000000000000000000000000033881454741PAO GOVT OF AP Hyderabad salary    STATE BANK OF INDIA SECRETARIAT    124710100136205                 Shaik Abdul Gafar                  MINORITIES FINANCE COR LTD, AP STA ANDB0001247124710100136205                    URGENT  Shaik Abdul Gafar                                         124710100136205 EMLdpao-sect@ap.nic.in             
R41000000000300000000000000000000000000000033881454741PAO GOVT OF AP Hyderabad salary    STATE BANK OF INDIA SECRETARIAT    124710100125315                 Shaik Vaseemakram                  MINORITIES FINANCE COR LTD, AP STA ANDB0001247124710100125315                    URGENT  Shaik Vaseemakram                                         124710100125315 EMLdpao-sect@ap.nic.in             
R41000000000500000000000000000000000000000033881454741PAO GOVT OF AP Hyderabad salary    STATE BANK OF INDIA SECRETARIAT    156310100103508                 Mohammed Abdul Rahamathulla        MINORITIES FINANCE COR LTD, AP STA ANDB0001563156310100103508                    URGENT  Mohammed Abdul Rahamathul                                 156310100103508 EMLdpao-sect@ap.nic.in             
R41000000000300000000000000000000000000000033881454741PAO GOVT OF AP Hyderabad salary    STATE BANK OF INDIA SECRETARIAT    91033983256                     Thotti Shakeelabe                  MINORITIES FINANCE COR LTD, AP STA APGB000217691033983256                        URGENT  Thotti Shakeelabe                                         91033983256     EMLdpao-sect@ap.nic.in             
R41000000000500000000000000000000000000000033881454741PAO GOVT OF AP Hyderabad salary    STATE BANK OF INDIA SECRETARIAT    91033689459                     Jilan                              MINORITIES FINANCE COR LTD, AP STA APGB000206791033689459                        URGENT  Jilan                                                     91033689459     EMLdpao-sect@ap.nic.in             
R41000000000500000000000000000000000000000033881454741PAO GOVT OF AP Hyderabad salary    STATE BANK OF INDIA SECRETARIAT    91036766590                     S Shahida Begum                    MINORITIES FINANCE COR LTD, AP STA APGB000216191036766590                        URGENT  S Shahida Begum                                           91036766590     EMLdpao-sect@ap.nic.in             
R41000000000500000000000000000000000000000033881454741PAO GOVT OF AP Hyderabad salary    STATE BANK OF INDIA SECRETARIAT    91028821995                     Mehadi  Athavullah Khan            MINORITIES FINANCE COR LTD, AP STA APGB000216191028821995                        URGENT  Mehadi  Athavullah Khan                                   91028821995     EMLdpao-sect@ap.nic.in             
R41000000000500000000000000000000000000000033881454741PAO GOVT OF AP Hyderabad salary    STATE BANK OF INDIA SECRETARIAT    91036759775                     Shaik Ameer Basha                  MINORITIES FINANCE COR LTD, AP STA APGB000214391036759775                        URGENT  Shaik Ameer Basha                                         91036759775     EMLdpao-sect@ap.nic.in             
R41000000000500000000000000000000000000000033881454741PAO GOVT OF AP Hyderabad salary    STATE BANK OF INDIA SECRETARIAT    91033987738                     Kareemullah                        MINORITIES FINANCE COR LTD, AP STA APGB000214091033987738                        URGENT  Kareemullah                                               91033987738     EMLdpao-sect@ap.nic.in             
R41000000000375000000000000000000000000000033881454741PAO GOVT OF AP Hyderabad salary    STATE BANK OF INDIA SECRETARIAT    19058027641                     Shaik Rasool                       MINORITIES FINANCE COR LTD, AP STA APGB000214019058027641                        URGENT  Shaik Rasool                                              19058027641     EMLdpao-sect@ap.nic.in             
R41000000000375000000000000000000000000000033881454741PAO GOVT OF AP Hyderabad salary    STATE BANK OF INDIA SECRETARIAT    19058153870                     Shaik Abida Begum                  MINORITIES FINANCE COR LTD, AP STA APGB000214019058153870                        URGENT  Shaik Abida Begum                                         19058153870     EMLdpao-sect@ap.nic.in             
R41000000000500000000000000000000000000000033881454741PAO GOVT OF AP Hyderabad salary    STATE BANK OF INDIA SECRETARIAT    91036870986                     Shaik  Sabiha                      MINORITIES FINANCE COR LTD, AP STA APGB000201391036870986                        URGENT  Shaik  Sabiha                                             91036870986     EMLdpao-sect@ap.nic.in             
R41000000000500000000000000000000000000000033881454741PAO GOVT OF AP Hyderabad salary    STATE BANK OF INDIA SECRETARIAT    91036855131                     Shaik Md Ashraf                    MINORITIES FINANCE COR LTD, AP STA APGB000201391036855131                        URGENT  Shaik Md Ashraf                                           91036855131     EMLdpao-sect@ap.nic.in             
R41000000000300000000000000000000000000000033881454741PAO GOVT OF AP Hyderabad salary    STATE BANK OF INDIA SECRETARIAT    91033388145                     Shaik Hazeer Khanam                MINORITIES FINANCE COR LTD, AP STA APGB000201391033388145                        URGENT  Shaik Hazeer Khanam                                       91033388145     EMLdpao-sect@ap.nic.in             
R41000000000500000000000000000000000000000033881454741PAO GOVT OF AP Hyderabad salary    STATE BANK OF INDIA SECRETARIAT    91036827261                     Nayab Shameem                      MINORITIES FINANCE COR LTD, AP STA APGB000201391036827261                        URGENT  Nayab Shameem                                             91036827261     EMLdpao-sect@ap.nic.in             
R41000000000500000000000000000000000000000033881454741PAO GOVT OF AP Hyderabad salary    STATE BANK OF INDIA SECRETARIAT    91036972241                     Shaik Waheeda                      MINORITIES FINANCE COR LTD, AP STA APGB000201391036972241                        URGENT  Shaik Waheeda                                             91036972241     EMLdpao-sect@ap.nic.in             
R41000000000300000000000000000000000000000033881454741PAO GOVT OF AP Hyderabad salary    STATE BANK OF INDIA SECRETARIAT    91025299606                     Syed Jakirunisa                    MINORITIES FINANCE COR LTD, AP STA APGB000211691025299606                        URGENT  Syed Jakirunisa                                           91025299606     EMLdpao-sect@ap.nic.in             
R41000000000300000000000000000000000000000033881454741PAO GOVT OF AP Hyderabad salary    STATE BANK OF INDIA SECRETARIAT    91036801990                     Shaik Fairoza Banu                 MINORITIES FINANCE COR LTD, AP STA APGB000211691036801990                        URGENT  Shaik Fairoza Banu                                        91036801990     EMLdpao-sect@ap.nic.in             
R41000000000350000000000000000000000000000033881454741PAO GOVT OF AP Hyderabad salary    STATE BANK OF INDIA SECRETARIAT    91024142191                     Danda Abdul Rasool                 MINORITIES FINANCE COR LTD, AP STA APGB000204191024142191                        URGENT  Danda Abdul Rasool                                        91024142191     EMLdpao-sect@ap.nic.in             
R41000000000750000000000000000000000000000033881454741PAO GOVT OF AP Hyderabad salary    STATE BANK OF INDIA SECRETARIAT    91033227971                     Shaik Karemulla Basha              MINORITIES FINANCE COR LTD, AP STA APGB000200791033227971                        URGENT  Shaik Karemulla Basha                                     91033227971     EMLdpao-sect@ap.nic.in             
R41000000000300000000000000000000000000000033881454741PAO GOVT OF AP Hyderabad salary    STATE BANK OF INDIA SECRETARIAT    91031419257                     Afgan Sabad Ali Khan               MINORITIES FINANCE COR LTD, AP STA APGB000210791031419257                        URGENT  Afgan Sabad Ali Khan                                      91031419257     EMLdpao-sect@ap.nic.in             
R41000000000500000000000000000000000000000033881454741PAO GOVT OF AP Hyderabad salary    STATE BANK OF INDIA SECRETARIAT    91032072448                     Shake Muneer Basha                 MINORITIES FINANCE COR LTD, AP STA APGB000200691032072448                        URGENT  Shake Muneer Basha                                        91032072448     EMLdpao-sect@ap.nic.in             
R41000000000500000000000000000000000000000033881454741PAO GOVT OF AP Hyderabad salary    STATE BANK OF INDIA SECRETARIAT    19176511663                     Shaik Rahamathulla                 MINORITIES FINANCE COR LTD, AP STA APGB000200619176511663                        URGENT  Shaik Rahamathulla                                        19176511663     EMLdpao-sect@ap.nic.in             
R41000000000500000000000000000000000000000033881454741PAO GOVT OF AP Hyderabad salary    STATE BANK OF INDIA SECRETARIAT    91003931235                     Shake Fayaz                        MINORITIES FINANCE COR LTD, AP STA APGB000200691003931235                        URGENT  Shake Fayaz                                               91003931235     EMLdpao-sect@ap.nic.in             
R41000000000500000000000000000000000000000033881454741PAO GOVT OF AP Hyderabad salary    STATE BANK OF INDIA SECRETARIAT    19176516582                     Shaik Raham Thulla                 MINORITIES FINANCE COR LTD, AP STA APGB000200619176516582                        URGENT  Shaik Raham Thulla                                        19176516582     EMLdpao-sect@ap.nic.in             
R41000000000300000000000000000000000000000033881454741PAO GOVT OF AP Hyderabad salary    STATE BANK OF INDIA SECRETARIAT    91037746630                     Shaik Baba Gouse                   MINORITIES FINANCE COR LTD, AP STA APGB000201291037746630                        URGENT  Shaik Baba Gouse                                          91037746630     EMLdpao-sect@ap.nic.in             
R41000000000300000000000000000000000000000033881454741PAO GOVT OF AP Hyderabad salary    STATE BANK OF INDIA SECRETARIAT    91037595362                     Shaik Nashiboon                    MINORITIES FINANCE COR LTD, AP STA APGB000201291037595362                        URGENT  Shaik Nashiboon                                           91037595362     EMLdpao-sect@ap.nic.in             
R41000000000300000000000000000000000000000033881454741PAO GOVT OF AP Hyderabad salary    STATE BANK OF INDIA SECRETARIAT    91037595226                     Mohammad Gouse                     MINORITIES FINANCE COR LTD, AP STA APGB000201291037595226                        URGENT  Mohammad Gouse                                            91037595226     EMLdpao-sect@ap.nic.in             
R41000000000300000000000000000000000000000033881454741PAO GOVT OF AP Hyderabad salary    STATE BANK OF INDIA SECRETARIAT    91037595033                     Shake Patima                       MINORITIES FINANCE COR LTD, AP STA APGB000201291037595033                        URGENT  Shake Patima                                              91037595033     EMLdpao-sect@ap.nic.in             
R41000000000300000000000000000000000000000033881454741PAO GOVT OF AP Hyderabad salary    STATE BANK OF INDIA SECRETARIAT    91037593524                     Shaik Alamvalli                    MINORITIES FINANCE COR LTD, AP STA APGB000201291037593524                        URGENT  Shaik Alamvalli                                           91037593524     EMLdpao-sect@ap.nic.in             
R41000000000500000000000000000000000000000033881454741PAO GOVT OF AP Hyderabad salary    STATE BANK OF INDIA SECRETARIAT    91035141116                     Shaik Azeemuddin                   MINORITIES FINANCE COR LTD, AP STA APGB000216491035141116                        URGENT  Shaik Azeemuddin                                          91035141116     EMLdpao-sect@ap.nic.in             
R41000000000500000000000000000000000000000033881454741PAO GOVT OF AP Hyderabad salary    STATE BANK OF INDIA SECRETARIAT    91027902933                     Shake Hirajan                      MINORITIES FINANCE COR LTD, AP STA APGB000216491027902933                        URGENT  Shake Hirajan                                             91027902933     EMLdpao-sect@ap.nic.in             
R41000000000500000000000000000000000000000033881454741PAO GOVT OF AP Hyderabad salary    STATE BANK OF INDIA SECRETARIAT    91035215840                     Syed Nazeerun                      MINORITIES FINANCE COR LTD, AP STA APGB000216491035215840                        URGENT  Syed Nazeerun                                             91035215840     EMLdpao-sect@ap.nic.in             
R41000000000500000000000000000000000000000033881454741PAO GOVT OF AP Hyderabad salary    STATE BANK OF INDIA SECRETARIAT    9970100006048                   Shaik Mahaboob Basha               MINORITIES FINANCE COR LTD, AP STA BARB0CUDDAP9970100006048                      URGENT  Shaik Mahaboob Basha                                      9970100006048   EMLdpao-sect@ap.nic.in             
R41000000000300000000000000000000000000000033881454741PAO GOVT OF AP Hyderabad salary    STATE BANK OF INDIA SECRETARIAT    9970100009516                   Shaik Munira                       MINORITIES FINANCE COR LTD, AP STA BARB0CUDDAP9970100009516                      URGENT  Shaik Munira                                              9970100009516   EMLdpao-sect@ap.nic.in             
R41000000000500000000000000000000000000000033881454741PAO GOVT OF AP Hyderabad salary    STATE BANK OF INDIA SECRETARIAT    9970100009479                   Shaik Nasreen                      MINORITIES FINANCE COR LTD, AP STA BARB0CUDDAP9970100009479                      URGENT  Shaik Nasreen                                             9970100009479   EMLdpao-sect@ap.nic.in             
R41000000000500000000000000000000000000000033881454741PAO GOVT OF AP Hyderabad salary    STATE BANK OF INDIA SECRETARIAT    867610110001243                 Shaik S Muntaz Begum               MINORITIES FINANCE COR LTD, AP STA BKID0008676867610110001243                    URGENT  Shaik S Muntaz Begum                                      867610110001243 EMLdpao-sect@ap.nic.in             
R41000000000500000000000000000000000000000033881454741PAO GOVT OF AP Hyderabad salary    STATE BANK OF INDIA SECRETARIAT    8635101005186                   Syed Hajivali                      MINORITIES FINANCE COR LTD, AP STA CNRB00086358635101005186                      URGENT  Syed Hajivali                                             8635101005186   EMLdpao-sect@ap.nic.in             
R41000000000500000000000000000000000000000033881454741PAO GOVT OF AP Hyderabad salary    STATE BANK OF INDIA SECRETARIAT    8635101006523                   Patan Sabeerun                     MINORITIES FINANCE COR LTD, AP STA CNRB00086358635101006523                      URGENT  Patan Sabeerun                                            8635101006523   EMLdpao-sect@ap.nic.in             
R41000000000500000000000000000000000000000033881454741PAO GOVT OF AP Hyderabad salary    STATE BANK OF INDIA SECRETARIAT    8635101006727                   Shaik Naseema Banu                 MINORITIES FINANCE COR LTD, AP STA CNRB00086358635101006727                      URGENT  Shaik Naseema Banu                                        8635101006727   EMLdpao-sect@ap.nic.in             
R41000000000500000000000000000000000000000033881454741PAO GOVT OF AP Hyderabad salary    STATE BANK OF INDIA SECRETARIAT    8635101006726                   Shaik Siddiqua                     MINORITIES FINANCE COR LTD, AP STA CNRB00086358635101006726                      URGENT  Shaik Siddiqua                                            8635101006726   EMLdpao-sect@ap.nic.in             
R41000000000500000000000000000000000000000033881454741PAO GOVT OF AP Hyderabad salary    STATE BANK OF INDIA SECRETARIAT    19631010032508                  Budebaikari Parveen                MINORITIES FINANCE COR LTD, AP STA CNRB000196319631010032508                     URGENT  Budebaikari Parveen                                       19631010032508  EMLdpao-sect@ap.nic.in             
R41000000000500000000000000000000000000000033881454741PAO GOVT OF AP Hyderabad salary    STATE BANK OF INDIA SECRETARIAT    3279783912                      Syed Karimoon                      MINORITIES FINANCE COR LTD, AP STA CBIN02808413279783912                         URGENT  Syed Karimoon                                             3279783912      EMLdpao-sect@ap.nic.in             
R41000000000500000000000000000000000000000033881454741PAO GOVT OF AP Hyderabad salary    STATE BANK OF INDIA SECRETARIAT    140001001717478                 Shaik Amjad Ali                    MINORITIES FINANCE COR LTD, AP STA CIUB0000140140001001717478                    URGENT  Shaik Amjad Ali                                           140001001717478 EMLdpao-sect@ap.nic.in             
R41000000000500000000000000000000000000000033881454741PAO GOVT OF AP Hyderabad salary    STATE BANK OF INDIA SECRETARIAT    040700101007230                 Kammubayigari Shabeerun            MINORITIES FINANCE COR LTD, AP STA CORP0000407040700101007230                    URGENT  Kammubayigari Shabeerun                                   040700101007230 EMLdpao-sect@ap.nic.in             
R41000000000300000000000000000000000000000033881454741PAO GOVT OF AP Hyderabad salary    STATE BANK OF INDIA SECRETARIAT    159300101003127                 SHAIK KHADERVALI                   MINORITIES FINANCE COR LTD, AP STA CORP0001593159300101003127                    URGENT  SHAIK KHADERVALI                                          159300101003127 EMLdpao-sect@ap.nic.in             
R41000000000300000000000000000000000000000033881454741PAO GOVT OF AP Hyderabad salary    STATE BANK OF INDIA SECRETARIAT    159300101003318                 Shaik Mohammed Rafi                MINORITIES FINANCE COR LTD, AP STA CORP0001593159300101003318                    URGENT  Shaik Mohammed Rafi                                       159300101003318 EMLdpao-sect@ap.nic.in             
R41000000000500000000000000000000000000000033881454741PAO GOVT OF AP Hyderabad salary    STATE BANK OF INDIA SECRETARIAT    159300101003834                 Shaik Sajida                       MINORITIES FINANCE COR LTD, AP STA CORP0001593159300101003834                    URGENT  Shaik Sajida                                              159300101003834 EMLdpao-sect@ap.nic.in             
R41000000000500000000000000000000000000000033881454741PAO GOVT OF AP Hyderabad salary    STATE BANK OF INDIA SECRETARIAT    159300101002907                 Shaik  Samiulla                    MINORITIES FINANCE COR LTD, AP STA CORP0001593159300101002907                    URGENT  Shaik  Samiulla                                           159300101002907 EMLdpao-sect@ap.nic.in             
R41000000000300000000000000000000000000000033881454741PAO GOVT OF AP Hyderabad salary    STATE BANK OF INDIA SECRETARIAT    159300101003759                 Pathan Arifulla                    MINORITIES FINANCE COR LTD, AP STA CORP0001593159300101003759                    URGENT  Pathan Arifulla                                           159300101003759 EMLdpao-sect@ap.nic.in             
R41000000000500000000000000000000000000000033881454741PAO GOVT OF AP Hyderabad salary    STATE BANK OF INDIA SECRETARIAT    125601000006095                 Sehik Gowshpeer                    MINORITIES FINANCE COR LTD, AP STA IOBA0001256125601000006095                    URGENT  Sehik Gowshpeer                                           125601000006095 EMLdpao-sect@ap.nic.in             
R41000000000500000000000000000000000000000033881454741PAO GOVT OF AP Hyderabad salary    STATE BANK OF INDIA SECRETARIAT    125601000023438                 Shaik Cskutubuddin                 MINORITIES FINANCE COR LTD, AP STA IOBA0001256125601000023438                    URGENT  Shaik Cskutubuddin                                        125601000023438 EMLdpao-sect@ap.nic.in             
R41000000000500000000000000000000000000000033881454741PAO GOVT OF AP Hyderabad salary    STATE BANK OF INDIA SECRETARIAT    1079000100108510                Shaik  Ahamathulla                 MINORITIES FINANCE COR LTD, AP STA PUNB01079001079000100108510                   URGENT  Shaik  Ahamathulla                                        1079000100108510EMLdpao-sect@ap.nic.in             
R41000000000300000000000000000000000000000033881454741PAO GOVT OF AP Hyderabad salary    STATE BANK OF INDIA SECRETARIAT    32062200079227                  Shaik Pachavalli                   MINORITIES FINANCE COR LTD, AP STA SYNB000320632062200079227                     URGENT  Shaik Pachavalli                                          32062200079227  EMLdpao-sect@ap.nic.in             
R41000000000500000000000000000000000000000033881454741PAO GOVT OF AP Hyderabad salary    STATE BANK OF INDIA SECRETARIAT    31902010016546                  Shaik Mohammed Rahamathullah       MINORITIES FINANCE COR LTD, AP STA SYNB000319031902010016546                     URGENT  Shaik Mohammed Rahamathul                                 31902010016546  EMLdpao-sect@ap.nic.in             
R41000000000500000000000000000000000000000033881454741PAO GOVT OF AP Hyderabad salary    STATE BANK OF INDIA SECRETARIAT    31902010042996                  S. Noorjahan                       MINORITIES FINANCE COR LTD, AP STA SYNB000319031902010042996                     URGENT  S. Noorjahan                                              31902010042996  EMLdpao-sect@ap.nic.in             
R41000000000300000000000000000000000000000033881454741PAO GOVT OF AP Hyderabad salary    STATE BANK OF INDIA SECRETARIAT    31902200084886                  Shaik Chan Begum                   MINORITIES FINANCE COR LTD, AP STA SYNB000319031902200084886                     URGENT  Shaik Chan Begum                                          31902200084886  EMLdpao-sect@ap.nic.in             
R41000000000300000000000000000000000000000033881454741PAO GOVT OF AP Hyderabad salary    STATE BANK OF INDIA SECRETARIAT    31902200075119                  Syed Shakila                       MINORITIES FINANCE COR LTD, AP STA SYNB000319031902200075119                     URGENT  Syed Shakila                                              31902200075119  EMLdpao-sect@ap.nic.in             
R41000000000500000000000000000000000000000033881454741PAO GOVT OF AP Hyderabad salary    STATE BANK OF INDIA SECRETARIAT    31902010021592                  Gudipati Mahammad Kaleem           MINORITIES FINANCE COR LTD, AP STA SYNB000319031902010021592                     URGENT  Gudipati Mahammad Kaleem                                  31902010021592  EMLdpao-sect@ap.nic.in             
R41000000000500000000000000000000000000000033881454741PAO GOVT OF AP Hyderabad salary    STATE BANK OF INDIA SECRETARIAT    32152010045100                  Shaik Be Bee Umehani               MINORITIES FINANCE COR LTD, AP STA SYNB000321532152010045100                     URGENT  Shaik Be Bee Umehani                                      32152010045100  EMLdpao-sect@ap.nic.in             
R41000000000500000000000000000000000000000033881454741PAO GOVT OF AP Hyderabad salary    STATE BANK OF INDIA SECRETARIAT    32152210005940                  Shaik Shahinabegum                 MINORITIES FINANCE COR LTD, AP STA SYNB000321532152210005940                     URGENT  Shaik Shahinabegum                                        32152210005940  EMLdpao-sect@ap.nic.in             
R41000000000500000000000000000000000000000033881454741PAO GOVT OF AP Hyderabad salary    STATE BANK OF INDIA SECRETARIAT    32152010053281                  Shaik Reshma                       MINORITIES FINANCE COR LTD, AP STA SYNB000321532152010053281                     URGENT  Shaik Reshma                                              32152010053281  EMLdpao-sect@ap.nic.in             
R41000000000500000000000000000000000000000033881454741PAO GOVT OF AP Hyderabad salary    STATE BANK OF INDIA SECRETARIAT    31912010029174                  Shaik Aliakbar                     MINORITIES FINANCE COR LTD, AP STA SYNB000319131912010029174                     URGENT  Shaik Aliakbar                                            31912010029174  EMLdpao-sect@ap.nic.in             
R41000000000500000000000000000000000000000033881454741PAO GOVT OF AP Hyderabad salary    STATE BANK OF INDIA SECRETARIAT    31912200069563                  Shaik Ghouspeer                    MINORITIES FINANCE COR LTD, AP STA SYNB000319131912200069563                     URGENT  Shaik Ghouspeer                                           31912200069563  EMLdpao-sect@ap.nic.in             
R41000000000500000000000000000000000000000033881454741PAO GOVT OF AP Hyderabad salary    STATE BANK OF INDIA SECRETARIAT    31912200041168                  Shaik Mabunni                      MINORITIES FINANCE COR LTD, AP STA SYNB000319131912200041168                     URGENT  Shaik Mabunni                                             31912200041168  EMLdpao-sect@ap.nic.in             
R41000000000300000000000000000000000000000033881454741PAO GOVT OF AP Hyderabad salary    STATE BANK OF INDIA SECRETARIAT    31942200195602                  Patan Shamshad                     MINORITIES FINANCE COR LTD, AP STA SYNB000319431942200195602                     URGENT  Patan Shamshad                                            31942200195602  EMLdpao-sect@ap.nic.in             
R41000000000300000000000000000000000000000033881454741PAO GOVT OF AP Hyderabad salary    STATE BANK OF INDIA SECRETARIAT    31942200195655                  Sayed Samina                       MINORITIES FINANCE COR LTD, AP STA SYNB000319431942200195655                     URGENT  Sayed Samina                                              31942200195655  EMLdpao-sect@ap.nic.in             
R41000000000300000000000000000000000000000033881454741PAO GOVT OF AP Hyderabad salary    STATE BANK OF INDIA SECRETARIAT    31942200185035                  Shaik Allabakash                   MINORITIES FINANCE COR LTD, AP STA SYNB000319431942200185035                     URGENT  Shaik Allabakash                                          31942200185035  EMLdpao-sect@ap.nic.in             
R41000000000300000000000000000000000000000033881454741PAO GOVT OF AP Hyderabad salary    STATE BANK OF INDIA SECRETARIAT    31942210172692                  Shaik Nooruddin                    MINORITIES FINANCE COR LTD, AP STA SYNB000319431942210172692                     URGENT  Shaik Nooruddin                                           31942210172692  EMLdpao-sect@ap.nic.in             
R41000000000300000000000000000000000000000033881454741PAO GOVT OF AP Hyderabad salary    STATE BANK OF INDIA SECRETARIAT    31942210183138                  Shaik Shareefa                     MINORITIES FINANCE COR LTD, AP STA SYNB000319431942210183138                     URGENT  Shaik Shareefa                                            31942210183138  EMLdpao-sect@ap.nic.in             
R41000000000500000000000000000000000000000033881454741PAO GOVT OF AP Hyderabad salary    STATE BANK OF INDIA SECRETARIAT    19560110076248                  Shaik Jabeen Begum                 MINORITIES FINANCE COR LTD, AP STA UCBA000195619560110076248                     URGENT  Shaik Jabeen Begum                                        19560110076248  EMLdpao-sect@ap.nic.in             
R41000000000500000000000000000000000000000033881454741PAO GOVT OF AP Hyderabad salary    STATE BANK OF INDIA SECRETARIAT    574202010017399                 Mahaboobsabgari Abdulla            MINORITIES FINANCE COR LTD, AP STA UBIN0557421574202010017399                    URGENT  Mahaboobsabgari Abdulla                                   574202010017399 EMLdpao-sect@ap.nic.in             
R41000000001000000000000000000000000000000033881454741PAO GOVT OF AP Hyderabad salary    STATE BANK OF INDIA SECRETARIAT    400701011003338                 Shaik Kham Ruddin                  MINORITIES FINANCE COR LTD, AP STA VIJB0004007400701011003338                    URGENT  Shaik Kham Ruddin                                         400701011003338 EMLdpao-sect@ap.nic.in             
R41000000000500000000000000000000000000000033881454741PAO GOVT OF AP Hyderabad salary    STATE BANK OF INDIA SECRETARIAT    400701011003319                 Shaik Jigni                        MINORITIES FINANCE COR LTD, AP STA VIJB0004007400701011003319                    URGENT  Shaik Jigni                                               400701011003319 EMLdpao-sect@ap.nic.in             
R41000000000500000000000000000000000000000033881454741PAO GOVT OF AP Hyderabad salary    STATE BANK OF INDIA SECRETARIAT    409001011002787                 Shaffin                            MINORITIES FINANCE COR LTD, AP STA VIJB0004090409001011002787                    URGENT  Shaffin                                                   409001011002787 EMLdpao-sect@ap.nic.in             
