R412486201000701   000000008387560000000000000000000000000033881454741PAO GOVT OF AP Hyderabad salary    STATE BANK OF INDIA SECRETARIAT    2486201000701                   SWEETY MEDIA                       FILM AND TV DEVELOPMENT  CORPORATI CNRB00025402486201000701                      URGENT  SWEETY MEDIA             2486201000701   
R413174022978      000000008828800000000000000000000000000033881454741PAO GOVT OF AP Hyderabad salary    STATE BANK OF INDIA SECRETARIAT    3174022978                      CHIRANJEEVI CREATIONS              FILM AND TV DEVELOPMENT  CORPORATI CBIN02838833174022978                         URGENT  CHIRANJEEVI CREATIONS    3174022978      
R4100761100001112  000000005944760000000000000000000000000033881454741PAO GOVT OF AP Hyderabad salary    STATE BANK OF INDIA SECRETARIAT    00761100001112                  LEPAKSHI EXPORT ORIENTED SHOWROOM  FILM AND TV DEVELOPMENT  CORPORATI ANDB000007600761100001112                     URGENT  LEPAKSHI EXPORT ORIENTED 00761100001112  
