R41000000000200000000000000000000000099999999999999999PAO GOVT OF AP Hyderabad salary    STATE BANK OF INDIA SECRETARIAT    52188992753                     CHSRanganatham                     SCHEDULED TRIBES CO-OP FINANCE COR SBHY002102652188992753                        URGENT  CHSRanganatham                                            52188992753     EMLdpao-sect@ap.nic.in             
R41000000000503220000000000000000000099999999999999999PAO GOVT OF AP Hyderabad salary    STATE BANK OF INDIA SECRETARIAT    52188979027                     ASreeramulu                        SCHEDULED TRIBES CO-OP FINANCE COR SBHY002102652188979027                        URGENT  ASreeramulu                                               52188979027     EMLdpao-sect@ap.nic.in             
R41000000000200000000000000000000000099999999999999999PAO GOVT OF AP Hyderabad salary    STATE BANK OF INDIA SECRETARIAT    52188995460                     KVSubba Reddy                      SCHEDULED TRIBES CO-OP FINANCE COR SBHY002102652188995460                        URGENT  KVSubba Reddy                                             52188995460     EMLdpao-sect@ap.nic.in             
R41000000000150000000000000000000000099999999999999999PAO GOVT OF AP Hyderabad salary    STATE BANK OF INDIA SECRETARIAT    30152030004394                  KKMRaju                            SCHEDULED TRIBES CO-OP FINANCE COR SYNB000301530152030004394                     URGENT  KKMRaju                                                   30152030004394  EMLdpao-sect@ap.nic.in             
R41000000000107960000000000000000000099999999999999999PAO GOVT OF AP Hyderabad salary    STATE BANK OF INDIA SECRETARIAT    62364798322                     Sri Sai Baba Travels & Manpower    SCHEDULED TRIBES CO-OP FINANCE COR SBHY002102662364798322                        URGENT  Sri Sai Baba Travels & Ma                                 62364798322     EMLdpao-sect@ap.nic.in             
R41000000000245000000000000000000000099999999999999999PAO GOVT OF AP Hyderabad salary    STATE BANK OF INDIA SECRETARIAT    188902000000146                 Sri Sai Baba Tours & Travels       SCHEDULED TRIBES CO-OP FINANCE COR IOBA0001889188902000000146                    URGENT  Sri Sai Baba Tours & Trav                                 188902000000146 EMLdpao-sect@ap.nic.in             
