R41000000000050450000000000000000000000000033881454741PAO GOVT OF AP Hyderabad salary    STATE BANK OF INDIA SECRETARIAT    015210100121911                 DVSAPPARAO                         PLANNING DEPT CHIEF PLANNING OFFIC ANDM0000152PLANNING DEPT CHIEF PLANNING OFFIC URGENT  DVSAPPARAO                                                0256453         EMLdpao-sect@ap.nic.in             
R41000000000143850000000000000000000000000033881454741PAO GOVT OF AP Hyderabad salary    STATE BANK OF INDIA SECRETARIAT    45610101003504E14               LIMRATOURSAND TRAVELS              PLANNING DEPT CHIEF PLANNING OFFIC UBIN0545619PLANNING DEPT CHIEF PLANNING OFFIC URGENT  LIMRATOURSAND TRAVELS                                     0256455         EMLdpao-sect@ap.nic.in             
R41000000000892000000000000000000000000000033881454741PAO GOVT OF AP Hyderabad salary    STATE BANK OF INDIA SECRETARIAT    1436115000002414                SSCOMPUTERSHOPPEE                  PLANNING DEPT CHIEF PLANNING OFFIC KVBL0001436PLANNING DEPT CHIEF PLANNING OFFIC URGENT  SSCOMPUTERSHOPPEE                                         0256457         EMLdpao-sect@ap.nic.in             
