R4137111100001228  000000002021520000000000000000000000000000000000013SPORTS AUTH - AP,VC & MD           STATE BANK OF INDIA                37111100001228                   Andhra Pradesh Archery AssociationSPORTS AUTH - APVC & MD            ANDB000037137111100001228                     URGENT   Andhra Pradesh Archery A37111100001228  
R4112260010100406E1000000000372900000000000000000000000000000000000013SPORTS AUTH - AP,VC & MD           STATE BANK OF INDIA                12260010100406E14                Andhra Pradesh Athletics AssociatiSPORTS AUTH - APVC & MD            CORP000122612260010100406E14                  URGENT   Andhra Pradesh Athletics12260010100406E1
R41110810100068029 000000000029750000000000000000000000000000000000013SPORTS AUTH - AP,VC & MD           STATE BANK OF INDIA                110810100068029                 YmmJyothi                          SPORTS AUTH - APVC & MD            ANDB0001108110810100068029                    URGENT  YmmJyothi                110810100068029 
R4180610100012224  000000000029750000000000000000000000000000000000013SPORTS AUTH - AP,VC & MD           STATE BANK OF INDIA                80610100012224                  Ande Surya Kumari                  SPORTS AUTH - APVC & MD            ANDB000080680610100012224                     URGENT  Ande Surya Kumari        80610100012224  
R416286785635      000000000029750000000000000000000000000000000000013SPORTS AUTH - AP,VC & MD           STATE BANK OF INDIA                6286785635                      S Soujanya                         SPORTS AUTH - APVC & MD            IDIB000M0016286785635                         URGENT  S Soujanya               6286785635      
R4156031051000873  000000000029750000000000000000000000000000000000013SPORTS AUTH - AP,VC & MD           STATE BANK OF INDIA                56031051000873                  KTejeswari                         SPORTS AUTH - APVC & MD            BKID000560356031051000873                     URGENT  KTejeswari               56031051000873  
R4152201000066666  000000000017400000000000000000000000000000000000013SPORTS AUTH - AP,VC & MD           STATE BANK OF INDIA                52201000066666                  M Tulasi Reddy                     SPORTS AUTH - APVC & MD            IOBA000052252201000066666                     URGENT  M Tulasi Reddy           52201000066666  
R4162143655318     000000000021350000000000000000000000000000000000013SPORTS AUTH - AP,VC & MD           STATE BANK OF INDIA                62143655318                     K Shyam Kumar                      SPORTS AUTH - APVC & MD            SBHY002057362143655318                        URGENT  K Shyam Kumar            62143655318     
R412424108007421   000000000021350000000000000000000000000000000000013SPORTS AUTH - AP,VC & MD           STATE BANK OF INDIA                2424108007421                   K Kranthi                          SPORTS AUTH - APVC & MD            CNRB00024242424108007421                      URGENT  K Kranthi                2424108007421   
R41913010021322    000000000021350000000000000000000000000000000000013SPORTS AUTH - AP,VC & MD           STATE BANK OF INDIA                913010021322                    Kuppuli Satyavathi                 SPORTS AUTH - APVC & MD            UTB10V15816913010021322                       URGENT  Kuppuli Satyavathi       913010021322    
R416080507744      000000000021350000000000000000000000000000000000013SPORTS AUTH - AP,VC & MD           STATE BANK OF INDIA                6080507744                      V Naresh                           SPORTS AUTH - APVC & MD            IDIB000S1186080507744                         URGENT  V Naresh                 6080507744      
R41923005738       000000000021350000000000000000000000000000000000013SPORTS AUTH - AP,VC & MD           STATE BANK OF INDIA                923005738                       N Annapurna                        SPORTS AUTH - APVC & MD            IDIB000S118923005738                          URGENT  N Annapurna              923005738       
R412424101008619   000000000021350000000000000000000000000000000000013SPORTS AUTH - AP,VC & MD           STATE BANK OF INDIA                2424101008619                   S Marthamma                        SPORTS AUTH - APVC & MD            CNRB00024242424101008619                      URGENT  S Marthamma              2424101008619   
R41242410108565    000000000021350000000000000000000000000000000000013SPORTS AUTH - AP,VC & MD           STATE BANK OF INDIA                242410108565                    John Williams Franc                SPORTS AUTH - APVC & MD            CNRB0002424242410108565                       URGENT  John Williams Franc      242410108565    
R41445263135       000000000021350000000000000000000000000000000000013SPORTS AUTH - AP,VC & MD           STATE BANK OF INDIA                445263135                       N Narsing Rao                      SPORTS AUTH - APVC & MD            IDIB000S118445263135                          URGENT  N Narsing Rao            445263135       
R4162166722663     000000000220000000000000000000000000000000000000013SPORTS AUTH - AP,VC & MD           STATE BANK OF INDIA                62166722663                      ASomeshwar                        SPORTS AUTH - APVC & MD            SBHY002031862166722663                        URGENT   ASomeshwar              62166722663     
R4114231010001398E1000000000033700000000000000000000000000000000000013SPORTS AUTH - AP,VC & MD           STATE BANK OF INDIA                14231010001398E14               M Krishna                          SPORTS AUTH - APVC & MD            ANDB000142314231010001398E14                  URGENT  M Krishna                14231010001398E1
R41811050143201    000000000033700000000000000000000000000000000000013SPORTS AUTH - AP,VC & MD           STATE BANK OF INDIA                811050143201                     M Krishna                         SPORTS AUTH - APVC & MD            HDFC0000081811050143201                       URGENT   M Krishna               811050143201    
R4158710201000477E1000000000021320000000000000000000000000000000000013SPORTS AUTH - AP,VC & MD           STATE BANK OF INDIA                58710201000477E14               Sai Sampath Reddy                  SPORTS AUTH - APVC & MD            UBIN055871158710201000477E14                  URGENT  Sai Sampath Reddy        58710201000477E1
R416219160588      000000000025200000000000000000000000000000000000013SPORTS AUTH - AP,VC & MD           STATE BANK OF INDIA                6219160588                       B Hari Babu                       SPORTS AUTH - APVC & MD            IOIB000V0556219160588                         URGENT   B Hari Babu             6219160588      
R4162380150201     000000000025200000000000000000000000000000000000013SPORTS AUTH - AP,VC & MD           STATE BANK OF INDIA                62380150201                     G Naga Swapna                      SPORTS AUTH - APVC & MD            SBHY002087162380150201                        URGENT  G Naga Swapna            62380150201     
R4112281001800001E1000000000018700000000000000000000000000000000000013SPORTS AUTH - AP,VC & MD           STATE BANK OF INDIA                12281001800001E14               R Meghananjali                     SPORTS AUTH - APVC & MD            ANDB000122812281001800001E14                  URGENT  R Meghananjali           12281001800001E1
R4110471010001481E1000000000021320000000000000000000000000000000000013SPORTS AUTH - AP,VC & MD           STATE BANK OF INDIA                10471010001481E14               C Mary Reethika                    SPORTS AUTH - APVC & MD            ANDB000104710471010001481E14                  URGENT  C Mary Reethika          10471010001481E1
R411447100184001E14000000000018700000000000000000000000000000000000013SPORTS AUTH - AP,VC & MD           STATE BANK OF INDIA                1447100184001E14                L Meghana                          SPORTS AUTH - APVC & MD            ANDB00014471447100184001E14                   URGENT  L Meghana                1447100184001E14
R4117020100000341E1000000000018190000000000000000000000000000000000013SPORTS AUTH - AP,VC & MD           STATE BANK OF INDIA                17020100000341E14               C Madhukumar                       SPORTS AUTH - APVC & MD            IOBA000170217020100000341E14                  URGENT  C Madhukumar             17020100000341E1
R4160810011052252  000000000018700000000000000000000000000000000000013SPORTS AUTH - AP,VC & MD           STATE BANK OF INDIA                60810011052252                  G Sanker Rao                       SPORTS AUTH - APVC & MD            ANDB000060860810011052252                     URGENT  G Sanker Rao             60810011052252  
R4162014299037     000000000016600000000000000000000000000000000000013SPORTS AUTH - AP,VC & MD           STATE BANK OF INDIA                62014299037                     G Dhan Raj                         SPORTS AUTH - APVC & MD            SBHY002007762014299037                        URGENT  G Dhan Raj               62014299037     
R41630601520949    000000000016600000000000000000000000000000000000013SPORTS AUTH - AP,VC & MD           STATE BANK OF INDIA                630601520949                    JP Narayana                        SPORTS AUTH - APVC & MD            ICIC0006306630601520949                       URGENT  JP Narayana              630601520949    
R4112961010002023E1000000000016600000000000000000000000000000000000013SPORTS AUTH - AP,VC & MD           STATE BANK OF INDIA                12961010002023E14               Rakesh                             SPORTS AUTH - APVC & MD            ANDB000129612961010002023E14                  URGENT  Rakesh                   12961010002023E1
R412765101064431   000000000021710000000000000000000000000000000000013SPORTS AUTH - AP,VC & MD           STATE BANK OF INDIA                2765101064431                   Satish Kumar                       SPORTS AUTH - APVC & MD            CNRB00027652765101064431                      URGENT  Satish Kumar             2765101064431   
R4115081010002653E1000000000021710000000000000000000000000000000000013SPORTS AUTH - AP,VC & MD           STATE BANK OF INDIA                15081010002653E14               K Amarnadh                         SPORTS AUTH - APVC & MD            ANDB000150815081010002653E14                  URGENT  K Amarnadh               15081010002653E1
R414805015399      000000006082200000000000000000000000000000000000013SPORTS AUTH - AP,VC & MD           STATE BANK OF INDIA                4805015399                      Sachdev Sports Co Pvt Ltd          SPORTS AUTH - APVC & MD            ICIC00000484805015399                         URGENT  Sachdev Sports Co Pvt Ltd4805015399      
R41124610100119217 000000004205000000000000000000000000000000000000013SPORTS AUTH - AP,VC & MD           STATE BANK OF INDIA                124610100119217                 VC and MD SAAP                     SPORTS AUTH - APVC & MD            ANDB0001246124610100119217                    URGENT  VC and MD SAAP           124610100119217 
