R41000000000105000000000000000000000000000033881454741PD  GOVT OF AP Hyderabad salary    STATE BANK OF INDIA SECRETARIAT    7.44E+12                        RAKSHNA SECURITY SERVICES  VZM     COMM MUNICIPALITY VIZIANAGARAM     HDFC00007447.44E+12                           URGENT  RAKSHNA SECURITY SERVICES7.44E+12        
R41000000000052000000000000000000000000000033881454741PD  GOVT OF AP Hyderabad salary    STATE BANK OF INDIA SECRETARIAT    1.07E+14                        K.ADINARAYANA                      COMM MUNICIPALITY VIZIANAGARAM     AND800010651.07E+14                           URGENT  K.ADINARAYANA            1.07E+14        
R41000000000052000000000000000000000000000033881454741PD  GOVT OF AP Hyderabad salary    STATE BANK OF INDIA SECRETARIAT    1.07E+14                        K.RAGHAVA                          COMM MUNICIPALITY VIZIANAGARAM     AND800010651.07E+14                           URGENT  K.RAGHAVA                1.07E+14        
R41000000000052000000000000000000000000000033881454741PD  GOVT OF AP Hyderabad salary    STATE BANK OF INDIA SECRETARIAT    62237612797                     K.VENKATARAO                       COMM MUNICIPALITY VIZIANAGARAM     SBHY002117562237612797                        URGENT  K.VENKATARAO             62237612797     
