R41000000000300000000000000000000000000000033881454741PD  GOVT OF AP Hyderabad salary    STATE BANK OF INDIA SECRETARIAT    6047124973                      Shaik John Saida                   MINORITIES FINANCE COR LTD, AP STA IDIB000J0186047124973                         URGENT  Shaik John Saida         6047124973      
R41000000000250000000000000000000000000000033881454741PD  GOVT OF AP Hyderabad salary    STATE BANK OF INDIA SECRETARIAT    3346158768                      Shaik Jaanbhasha                   MINORITIES FINANCE COR LTD, AP STA CBIN02820843346158768                         URGENT  Shaik Jaanbhasha         3346158768      
R41000000000250000000000000000000000000000033881454741PD  GOVT OF AP Hyderabad salary    STATE BANK OF INDIA SECRETARIAT    3259917941                      Shaik Miravali                     MINORITIES FINANCE COR LTD, AP STA CBIN02820843259917941                         URGENT  Shaik Miravali           3259917941      
R41000000000500000000000000000000000000000033881454741PD  GOVT OF AP Hyderabad salary    STATE BANK OF INDIA SECRETARIAT    33532210038378                  Shaik Tasleem Sultanaa             MINORITIES FINANCE COR LTD, AP STA SYNB000335333532210038378                     URGENT  Shaik Tasleem Sultanaa   33532210038378  
R41000000000300000000000000000000000000000033881454741PD  GOVT OF AP Hyderabad salary    STATE BANK OF INDIA SECRETARIAT    33442210003276                  Patan Farid Bee                    MINORITIES FINANCE COR LTD, AP STA SYNB000334433442210003276                     URGENT  Patan Farid Bee          33442210003276  
R41000000000300000000000000000000000000000033881454741PD  GOVT OF AP Hyderabad salary    STATE BANK OF INDIA SECRETARIAT    33442200150910                  Shaik Nagul Meera                  MINORITIES FINANCE COR LTD, AP STA SYNB000334433442200150910                     URGENT  Shaik Nagul Meera        33442200150910  
R41000000000300000000000000000000000000000033881454741PD  GOVT OF AP Hyderabad salary    STATE BANK OF INDIA SECRETARIAT    33442200003377                  Shaik Asha                         MINORITIES FINANCE COR LTD, AP STA SYNB000334433442200003377                     URGENT  Shaik Asha               33442200003377  
R41000000000300000000000000000000000000000033881454741PD  GOVT OF AP Hyderabad salary    STATE BANK OF INDIA SECRETARIAT    62347238064                     Shake Nurjahan                     MINORITIES FINANCE COR LTD, AP STA SBHY002132162347238064                        URGENT  Shake Nurjahan           62347238064     
R41000000000300000000000000000000000000000033881454741PD  GOVT OF AP Hyderabad salary    STATE BANK OF INDIA SECRETARIAT    98845933                        Shak Lathif                        MINORITIES FINANCE COR LTD, AP STA IDIB0SGB00198845933                           URGENT  Shak Lathif              98845933        
R41000000000300000000000000000000000000000033881454741PD  GOVT OF AP Hyderabad salary    STATE BANK OF INDIA SECRETARIAT    98846936                        Shaik.Bashir                       MINORITIES FINANCE COR LTD, AP STA IDIB0SGB00198846936                           URGENT  Shaik.Bashir             98846936        
R41000000000500000000000000000000000000000033881454741PD  GOVT OF AP Hyderabad salary    STATE BANK OF INDIA SECRETARIAT    94653494                        Shaik Shaukath Ali                 MINORITIES FINANCE COR LTD, AP STA IDIB0SGB00194653494                           URGENT  Shaik Shaukath Ali       94653494        
R41000000000500000000000000000000000000000033881454741PD  GOVT OF AP Hyderabad salary    STATE BANK OF INDIA SECRETARIAT    98141299                        Mahammad Parvin                    MINORITIES FINANCE COR LTD, AP STA IDIB0SGB00198141299                           URGENT  Mahammad Parvin          98141299        
R41000000000500000000000000000000000000000033881454741PD  GOVT OF AP Hyderabad salary    STATE BANK OF INDIA SECRETARIAT    97465952                        Shaik Subhani                      MINORITIES FINANCE COR LTD, AP STA IDIB0SGB00197465952                           URGENT  Shaik Subhani            97465952        
R41000000000300000000000000000000000000000033881454741PD  GOVT OF AP Hyderabad salary    STATE BANK OF INDIA SECRETARIAT    33452200128749                  Shaik Shaidunnisa                  MINORITIES FINANCE COR LTD, AP STA SYNB000334533452200128749                     URGENT  Shaik Shaidunnisa        33452200128749  
R41000000000300000000000000000000000000000033881454741PD  GOVT OF AP Hyderabad salary    STATE BANK OF INDIA SECRETARIAT    138010100047549                 Sheik Maboob Subhani               MINORITIES FINANCE COR LTD, AP STA ANDB0001380138010100047549                    URGENT  Sheik Maboob Subhani     138010100047549 
R41000000000500000000000000000000000000000033881454741PD  GOVT OF AP Hyderabad salary    STATE BANK OF INDIA SECRETARIAT    330102010020688                 Shaik Hussen                       MINORITIES FINANCE COR LTD, AP STA UBIN0533017330102010020688                    URGENT  Shaik Hussen             330102010020688 
R41000000000500000000000000000000000000000033881454741PD  GOVT OF AP Hyderabad salary    STATE BANK OF INDIA SECRETARIAT    144410100075223                 Shaik Rasul                        MINORITIES FINANCE COR LTD, AP STA ANDB0001444144410100075223                    URGENT  Shaik Rasul              144410100075223 
R41000000000500000000000000000000000000000033881454741PD  GOVT OF AP Hyderabad salary    STATE BANK OF INDIA SECRETARIAT    110910100086326                 Mahammed Nasirunnisa               MINORITIES FINANCE COR LTD, AP STA ANDB0001109110910100086326                    URGENT  Mahammed Nasirunnisa     110910100086326 
R41000000000500000000000000000000000000000033881454741PD  GOVT OF AP Hyderabad salary    STATE BANK OF INDIA SECRETARIAT    906626428                       Mahammad Shabbir                   MINORITIES FINANCE COR LTD, AP STA IDIB000V045906626428                          URGENT  Mahammad Shabbir         906626428       
R41000000001000000000000000000000000000000033881454741PD  GOVT OF AP Hyderabad salary    STATE BANK OF INDIA SECRETARIAT    110910100088290                 Shaik Baji                         MINORITIES FINANCE COR LTD, AP STA ANDB0001109110910100088290                    URGENT  Shaik Baji               110910100088290 
R41000000001000000000000000000000000000000033881454741PD  GOVT OF AP Hyderabad salary    STATE BANK OF INDIA SECRETARIAT    110910100088306                 Mahammad Sultana Begum             MINORITIES FINANCE COR LTD, AP STA ANDB0001109110910100088306                    URGENT  Mahammad Sultana Begum   110910100088306 
R41000000001000000000000000000000000000000033881454741PD  GOVT OF AP Hyderabad salary    STATE BANK OF INDIA SECRETARIAT    110910100088315                 Syed Aslam                         MINORITIES FINANCE COR LTD, AP STA ANDB0001109110910100088315                    URGENT  Syed Aslam               110910100088315 
R41000000001000000000000000000000000000000033881454741PD  GOVT OF AP Hyderabad salary    STATE BANK OF INDIA SECRETARIAT    110910100088324                 Shaik Nayaj Rasul                  MINORITIES FINANCE COR LTD, AP STA ANDB0001109110910100088324                    URGENT  Shaik Nayaj Rasul        110910100088324 
R41000000001000000000000000000000000000000033881454741PD  GOVT OF AP Hyderabad salary    STATE BANK OF INDIA SECRETARIAT    110910100088333                 Shaik Shamshad                     MINORITIES FINANCE COR LTD, AP STA ANDB0001109110910100088333                    URGENT  Shaik Shamshad           110910100088333 
R41000000001000000000000000000000000000000033881454741PD  GOVT OF AP Hyderabad salary    STATE BANK OF INDIA SECRETARIAT    110910100088342                 Shaik Shakira                      MINORITIES FINANCE COR LTD, AP STA ANDB0001109110910100088342                    URGENT  Shaik Shakira            110910100088342 
R41000000001000000000000000000000000000000033881454741PD  GOVT OF AP Hyderabad salary    STATE BANK OF INDIA SECRETARIAT    110910100088351                 Shaik Sahabuddin                   MINORITIES FINANCE COR LTD, AP STA ANDB0001109110910100088351                    URGENT  Shaik Sahabuddin         110910100088351 
R41000000001000000000000000000000000000000033881454741PD  GOVT OF AP Hyderabad salary    STATE BANK OF INDIA SECRETARIAT    6150513449                      Sheik Karimulla                    MINORITIES FINANCE COR LTD, AP STA IDIB000G0756150513449                         URGENT  Sheik Karimulla          6150513449      
R41000000000500000000000000000000000000000033881454741PD  GOVT OF AP Hyderabad salary    STATE BANK OF INDIA SECRETARIAT    844209616                       Shaik Mahammad Masthan             MINORITIES FINANCE COR LTD, AP STA IDIB000G075844209616                          URGENT  Shaik Mahammad Masthan   844209616       
R41000000000500000000000000000000000000000033881454741PD  GOVT OF AP Hyderabad salary    STATE BANK OF INDIA SECRETARIAT    99280549                        Pathan Afficekhan                  MINORITIES FINANCE COR LTD, AP STA IDIB0SGB00199280549                           URGENT  Pathan Afficekhan        99280549        
R41000000000375000000000000000000000000000033881454741PD  GOVT OF AP Hyderabad salary    STATE BANK OF INDIA SECRETARIAT    6173318433                      Shaik Rahiman                      MINORITIES FINANCE COR LTD, AP STA IDIB000G0756173318433                         URGENT  Shaik Rahiman            6173318433      
R41000000000250000000000000000000000000000033881454741PD  GOVT OF AP Hyderabad salary    STATE BANK OF INDIA SECRETARIAT    99256888                        Sheik Karimunnisa                  MINORITIES FINANCE COR LTD, AP STA IDIB0SGB00199256888                           URGENT  Sheik Karimunnisa        99256888        
R41000000000500000000000000000000000000000033881454741PD  GOVT OF AP Hyderabad salary    STATE BANK OF INDIA SECRETARIAT    6211702804                      Shaik Shajahan                     MINORITIES FINANCE COR LTD, AP STA IDIB000N0706211702804                         URGENT  Shaik Shajahan           6211702804      
R41000000000750000000000000000000000000000033881454741PD  GOVT OF AP Hyderabad salary    STATE BANK OF INDIA SECRETARIAT    3343813459                      Shaik Jabeeulla                    MINORITIES FINANCE COR LTD, AP STA CBIN02808343343813459                         URGENT  Shaik Jabeeulla          3343813459      
R41000000000475000000000000000000000000000033881454741PD  GOVT OF AP Hyderabad salary    STATE BANK OF INDIA SECRETARIAT    3188224764                      Vahed Meharazunnisa                MINORITIES FINANCE COR LTD, AP STA CBIN02808343188224764                         URGENT  Vahed Meharazunnisa      3188224764      
R41000000000250000000000000000000000000000033881454741PD  GOVT OF AP Hyderabad salary    STATE BANK OF INDIA SECRETARIAT    3300702474                      Khaleel Khan                       MINORITIES FINANCE COR LTD, AP STA CBIN02808343300702474                         URGENT  Khaleel Khan             3300702474      
R41000000000500000000000000000000000000000033881454741PD  GOVT OF AP Hyderabad salary    STATE BANK OF INDIA SECRETARIAT    80810100025343                  Patan Ashiraphkhan                 MINORITIES FINANCE COR LTD, AP STA ANDB000080880810100025343                     URGENT  Patan Ashiraphkhan       80810100025343  
R41000000000500000000000000000000000000000033881454741PD  GOVT OF AP Hyderabad salary    STATE BANK OF INDIA SECRETARIAT    80810100025352                  Rafiya Mahammad Siddik             MINORITIES FINANCE COR LTD, AP STA ANDB000080880810100025352                     URGENT  Rafiya Mahammad Siddik   80810100025352  
R41000000000500000000000000000000000000000033881454741PD  GOVT OF AP Hyderabad salary    STATE BANK OF INDIA SECRETARIAT    039310100038684                 Abdul Habiba Parvin                MINORITIES FINANCE COR LTD, AP STA ANDB0000393039310100038684                    URGENT  Abdul Habiba Parvin      039310100038684 
R41000000000500000000000000000000000000000033881454741PD  GOVT OF AP Hyderabad salary    STATE BANK OF INDIA SECRETARIAT    039310100038620                 Shaik Meeravali                    MINORITIES FINANCE COR LTD, AP STA ANDB0000393039310100038620                    URGENT  Shaik Meeravali          039310100038620 
R41000000000500000000000000000000000000000033881454741PD  GOVT OF AP Hyderabad salary    STATE BANK OF INDIA SECRETARIAT    039310100038675                 Mahammad Aali                      MINORITIES FINANCE COR LTD, AP STA ANDB0000393039310100038675                    URGENT  Mahammad Aali            039310100038675 
R41000000000500000000000000000000000000000033881454741PD  GOVT OF AP Hyderabad salary    STATE BANK OF INDIA SECRETARIAT    788955090                       Shaik Babavali                     MINORITIES FINANCE COR LTD, AP STA IDIB000A037788955090                          URGENT  Shaik Babavali           788955090       
R41000000000500000000000000000000000000000033881454741PD  GOVT OF AP Hyderabad salary    STATE BANK OF INDIA SECRETARIAT    62331961014                     Mahammad Feroj                     MINORITIES FINANCE COR LTD, AP STA SBHY002142362331961014                        URGENT  Mahammad Feroj           62331961014     
R41000000000300000000000000000000000000000033881454741PD  GOVT OF AP Hyderabad salary    STATE BANK OF INDIA SECRETARIAT    62322333852                     Mohammed Sirajullah                MINORITIES FINANCE COR LTD, AP STA SBHY002142362322333852                        URGENT  Mohammed Sirajullah      62322333852     
R41000000000500000000000000000000000000000033881454741PD  GOVT OF AP Hyderabad salary    STATE BANK OF INDIA SECRETARIAT    97783340                        Mahammad Saleem                    MINORITIES FINANCE COR LTD, AP STA IDIB0SGB00197783340                           URGENT  Mahammad Saleem          97783340        
R41000000000300000000000000000000000000000033881454741PD  GOVT OF AP Hyderabad salary    STATE BANK OF INDIA SECRETARIAT    3307269941                      Mukbul Basar Ali                   MINORITIES FINANCE COR LTD, AP STA CBIN02830863307269941                         URGENT  Mukbul Basar Ali         3307269941      
R41000000000500000000000000000000000000000033881454741PD  GOVT OF AP Hyderabad salary    STATE BANK OF INDIA SECRETARIAT    027210100066517                 Mohammed Arif                      MINORITIES FINANCE COR LTD, AP STA ANDB0000272027210100066517                    URGENT  Mohammed Arif            027210100066517 
R41000000000500000000000000000000000000000033881454741PD  GOVT OF AP Hyderabad salary    STATE BANK OF INDIA SECRETARIAT    027210100091577                 Hasina Begam                       MINORITIES FINANCE COR LTD, AP STA ANDB0000272027210100091577                    URGENT  Hasina Begam             027210100091577 
R41000000000500000000000000000000000000000033881454741PD  GOVT OF AP Hyderabad salary    STATE BANK OF INDIA SECRETARIAT    893101012250                    M D Rafeek                         MINORITIES FINANCE COR LTD, AP STA CNRB0000893893101012250                       URGENT  M D Rafeek               893101012250    
R41000000000500000000000000000000000000000033881454741PD  GOVT OF AP Hyderabad salary    STATE BANK OF INDIA SECRETARIAT    62347219245                     Syed Fathima                       MINORITIES FINANCE COR LTD, AP STA SBHY002033462347219245                        URGENT  Syed Fathima             62347219245     
R41000000000300000000000000000000000000000033881454741PD  GOVT OF AP Hyderabad salary    STATE BANK OF INDIA SECRETARIAT    15672191018557                  Shaik Humayun                      MINORITIES FINANCE COR LTD, AP STA ORBC010156715672191018557                     URGENT  Shaik Humayun            15672191018557  
R41000000000500000000000000000000000000000033881454741PD  GOVT OF AP Hyderabad salary    STATE BANK OF INDIA SECRETARIAT    22710110010419                  Abdul Jalal                        MINORITIES FINANCE COR LTD, AP STA UCBA000227122710110010419                     URGENT  Abdul Jalal              22710110010419  
R41000000000300000000000000000000000000000033881454741PD  GOVT OF AP Hyderabad salary    STATE BANK OF INDIA SECRETARIAT    564390200000031                 Mir Jafar Abbas                    MINORITIES FINANCE COR LTD, AP STA BKID0005643564390200000031                    URGENT  Mir Jafar Abbas          564390200000031 
R41000000000500000000000000000000000000000033881454741PD  GOVT OF AP Hyderabad salary    STATE BANK OF INDIA SECRETARIAT    50207371650                     Khadar Sharif                      MINORITIES FINANCE COR LTD, AP STA ALLA021154550207371650                        URGENT  Khadar Sharif            50207371650     
R41000000000300000000000000000000000000000033881454741PD  GOVT OF AP Hyderabad salary    STATE BANK OF INDIA SECRETARIAT    7570000100003900                Abdul Rasheed                      MINORITIES FINANCE COR LTD, AP STA PUNB00757007570000100003900                   URGENT  Abdul Rasheed            7570000100003900
R41000000000300000000000000000000000000000033881454741PD  GOVT OF AP Hyderabad salary    STATE BANK OF INDIA SECRETARIAT    7570000100003890                Mohammad Jareena Begam             MINORITIES FINANCE COR LTD, AP STA PUNB00757007570000100003890                   URGENT  Mohammad Jareena Begam   7570000100003890
R41000000000300000000000000000000000000000033881454741PD  GOVT OF AP Hyderabad salary    STATE BANK OF INDIA SECRETARIAT    407001011002269                 Shaik Munirabegam                  MINORITIES FINANCE COR LTD, AP STA VIJB0004070407001011002269                    URGENT  Shaik Munirabegam        407001011002269 
R41000000000300000000000000000000000000000033881454741PD  GOVT OF AP Hyderabad salary    STATE BANK OF INDIA SECRETARIAT    6225646025                      Mahammad Akbar                     MINORITIES FINANCE COR LTD, AP STA IDIB000G0176225646025                         URGENT  Mahammad Akbar           6225646025      
R41000000000500000000000000000000000000000033881454741PD  GOVT OF AP Hyderabad salary    STATE BANK OF INDIA SECRETARIAT    407001011002364                 Mahamd Ahaimad Ali                 MINORITIES FINANCE COR LTD, AP STA VIJB0004070407001011002364                    URGENT  Mahamd Ahaimad Ali       407001011002364 
R41000000000500000000000000000000000000000033881454741PD  GOVT OF AP Hyderabad salary    STATE BANK OF INDIA SECRETARIAT    62333598045                     Shaik Aakhil                       MINORITIES FINANCE COR LTD, AP STA SBHY002079162333598045                        URGENT  Shaik Aakhil             62333598045     
R41000000000250000000000000000000000000000033881454741PD  GOVT OF AP Hyderabad salary    STATE BANK OF INDIA SECRETARIAT    0210100121832                   Raichoor Khaja Mohiddin            MINORITIES FINANCE COR LTD, AP STA ANDB00000020210100121832                      URGENT  Raichoor Khaja Mohiddin  0210100121832   
R41000000000500000000000000000000000000000033881454741PD  GOVT OF AP Hyderabad salary    STATE BANK OF INDIA SECRETARIAT    002010100296473                 Shaik Shahida                      MINORITIES FINANCE COR LTD, AP STA ANDB0000020002010100296473                    URGENT  Shaik Shahida            002010100296473 
R41000000000500000000000000000000000000000033881454741PD  GOVT OF AP Hyderabad salary    STATE BANK OF INDIA SECRETARIAT    002010100296446                 Mulla Shakila                      MINORITIES FINANCE COR LTD, AP STA ANDB0000020002010100296446                    URGENT  Mulla Shakila            002010100296446 
R41000000000500000000000000000000000000000033881454741PD  GOVT OF AP Hyderabad salary    STATE BANK OF INDIA SECRETARIAT    002010100296482                 Shaik Rahammad Bi                  MINORITIES FINANCE COR LTD, AP STA ANDB0000020002010100296482                    URGENT  Shaik Rahammad Bi        002010100296482 
R41000000000500000000000000000000000000000033881454741PD  GOVT OF AP Hyderabad salary    STATE BANK OF INDIA SECRETARIAT    002010100296464                 Shaik Mallik Begum                 MINORITIES FINANCE COR LTD, AP STA ANDB0000020002010100296464                    URGENT  Shaik Mallik Begum       002010100296464 
R41000000000500000000000000000000000000000033881454741PD  GOVT OF AP Hyderabad salary    STATE BANK OF INDIA SECRETARIAT    029310100112791                 S.Khaleel                          MINORITIES FINANCE COR LTD, AP STA ANDB0000293029310100112791                    URGENT  S.Khaleel                029310100112791 
R41000000000500000000000000000000000000000033881454741PD  GOVT OF AP Hyderabad salary    STATE BANK OF INDIA SECRETARIAT    029310100113523                 Meheroon                           MINORITIES FINANCE COR LTD, AP STA ANDB0000293029310100113523                    URGENT  Meheroon                 029310100113523 
R41000000000300000000000000000000000000000033881454741PD  GOVT OF AP Hyderabad salary    STATE BANK OF INDIA SECRETARIAT    005910100091683                 Shaik Mulla Bee                    MINORITIES FINANCE COR LTD, AP STA ANDB0000059005910100091683                    URGENT  Shaik Mulla Bee          005910100091683 
R41000000000300000000000000000000000000000033881454741PD  GOVT OF AP Hyderabad salary    STATE BANK OF INDIA SECRETARIAT    005910100091373                 Shaik Shamshad                     MINORITIES FINANCE COR LTD, AP STA ANDB0000059005910100091373                    URGENT  Shaik Shamshad           005910100091373 
R41000000000300000000000000000000000000000033881454741PD  GOVT OF AP Hyderabad salary    STATE BANK OF INDIA SECRETARIAT    005910100099056                 Shaik Khathun Bee                  MINORITIES FINANCE COR LTD, AP STA ANDB0000059005910100099056                    URGENT  Shaik Khathun Bee        005910100099056 
R41000000000300000000000000000000000000000033881454741PD  GOVT OF AP Hyderabad salary    STATE BANK OF INDIA SECRETARIAT    101910100086478                 Shaik Basirun Bee                  MINORITIES FINANCE COR LTD, AP STA ANDB0001019101910100086478                    URGENT  Shaik Basirun Bee        101910100086478 
R41000000001000000000000000000000000000000033881454741PD  GOVT OF AP Hyderabad salary    STATE BANK OF INDIA SECRETARIAT    80510100093335                  Shaik Mastan Vali                  MINORITIES FINANCE COR LTD, AP STA ANDB000080580510100093335                     URGENT  Shaik Mastan Vali        80510100093335  
R41000000001000000000000000000000000000000033881454741PD  GOVT OF AP Hyderabad salary    STATE BANK OF INDIA SECRETARIAT    80510100093326                  Palli Konda Ali Bhasha             MINORITIES FINANCE COR LTD, AP STA ANDB000080580510100093326                     URGENT  Palli Konda Ali Bhasha   80510100093326  
R41000000001000000000000000000000000000000033881454741PD  GOVT OF AP Hyderabad salary    STATE BANK OF INDIA SECRETARIAT    80510100095537                  Mahaboob Vali                      MINORITIES FINANCE COR LTD, AP STA ANDB000080580510100095537                     URGENT  Mahaboob Vali            80510100095537  
R41000000001000000000000000000000000000000033881454741PD  GOVT OF AP Hyderabad salary    STATE BANK OF INDIA SECRETARIAT    032010100182648                 Chowdary Umar                      MINORITIES FINANCE COR LTD, AP STA ANDB0000320032010100182648                    URGENT  Chowdary Umar            032010100182648 
R41000000001000000000000000000000000000000033881454741PD  GOVT OF AP Hyderabad salary    STATE BANK OF INDIA SECRETARIAT    032010100182620                 K Kabir Ahamed                     MINORITIES FINANCE COR LTD, AP STA ANDB0000320032010100182620                    URGENT  K Kabir Ahamed           032010100182620 
R41000000000300000000000000000000000000000033881454741PD  GOVT OF AP Hyderabad salary    STATE BANK OF INDIA SECRETARIAT    88410100129409                  Dudekula Fathima                   MINORITIES FINANCE COR LTD, AP STA ANDB000088488410100129409                     URGENT  Dudekula Fathima         88410100129409  
R41000000000300000000000000000000000000000033881454741PD  GOVT OF AP Hyderabad salary    STATE BANK OF INDIA SECRETARIAT    88410100136393                  M. Fathima Bee                     MINORITIES FINANCE COR LTD, AP STA ANDB000088488410100136393                     URGENT  M. Fathima Bee           88410100136393  
R41000000000500000000000000000000000000000033881454741PD  GOVT OF AP Hyderabad salary    STATE BANK OF INDIA SECRETARIAT    110710100118546                 Shaik Jakeer Basha                 MINORITIES FINANCE COR LTD, AP STA ANDB0001107110710100118546                    URGENT  Shaik Jakeer Basha       110710100118546 
R41000000000300000000000000000000000000000033881454741PD  GOVT OF AP Hyderabad salary    STATE BANK OF INDIA SECRETARIAT    110710100132342                 Shaik Shekun Bee                   MINORITIES FINANCE COR LTD, AP STA ANDB0001107110710100132342                    URGENT  Shaik Shekun Bee         110710100132342 
R41000000000500000000000000000000000000000033881454741PD  GOVT OF AP Hyderabad salary    STATE BANK OF INDIA SECRETARIAT    109510100095096                 Syed Khameer Peer                  MINORITIES FINANCE COR LTD, AP STA ANDB0001095109510100095096                    URGENT  Syed Khameer Peer        109510100095096 
R41000000000500000000000000000000000000000033881454741PD  GOVT OF AP Hyderabad salary    STATE BANK OF INDIA SECRETARIAT    91310100068409                  Acchakatta Shariff                 MINORITIES FINANCE COR LTD, AP STA ANDB000091391310100068409                     URGENT  Acchakatta Shariff       91310100068409  
R41000000000500000000000000000000000000000033881454741PD  GOVT OF AP Hyderabad salary    STATE BANK OF INDIA SECRETARIAT    91310100073739                  Shaik Hayab Hansar                 MINORITIES FINANCE COR LTD, AP STA ANDB000091391310100073739                     URGENT  Shaik Hayab Hansar       91310100073739  
R41000000000500000000000000000000000000000033881454741PD  GOVT OF AP Hyderabad salary    STATE BANK OF INDIA SECRETARIAT    91310100073720                  Shaik Ma Bhasha                    MINORITIES FINANCE COR LTD, AP STA ANDB000091391310100073720                     URGENT  Shaik Ma Bhasha          91310100073720  
R41000000000500000000000000000000000000000033881454741PD  GOVT OF AP Hyderabad salary    STATE BANK OF INDIA SECRETARIAT    91310100090930                  Avuku Hajipeera                    MINORITIES FINANCE COR LTD, AP STA ANDB000091391310100090930                     URGENT  Avuku Hajipeera          91310100090930  
R41000000001000000000000000000000000000000033881454741PD  GOVT OF AP Hyderabad salary    STATE BANK OF INDIA SECRETARIAT    152310100049592                 Shaik Noor Basha                   MINORITIES FINANCE COR LTD, AP STA ANDB0001523152310100049592                    URGENT  Shaik Noor Basha         152310100049592 
R41000000001000000000000000000000000000000033881454741PD  GOVT OF AP Hyderabad salary    STATE BANK OF INDIA SECRETARIAT    152310100049556                 Nasyam Shakeer                     MINORITIES FINANCE COR LTD, AP STA ANDB0001523152310100049556                    URGENT  Nasyam Shakeer           152310100049556 
R41000000001000000000000000000000000000000033881454741PD  GOVT OF AP Hyderabad salary    STATE BANK OF INDIA SECRETARIAT    152310100049617                 Syed Khajamohiddin                 MINORITIES FINANCE COR LTD, AP STA ANDB0001523152310100049617                    URGENT  Syed Khajamohiddin       152310100049617 
R41000000000500000000000000000000000000000033881454741PD  GOVT OF AP Hyderabad salary    STATE BANK OF INDIA SECRETARIAT    112510100086089                 Shaik Hafeeza Bee                  MINORITIES FINANCE COR LTD, AP STA ANDB0001125112510100086089                    URGENT  Shaik Hafeeza Bee        112510100086089 
R41000000000500000000000000000000000000000033881454741PD  GOVT OF AP Hyderabad salary    STATE BANK OF INDIA SECRETARIAT    91039101418                     Shake Gai Munissa                  MINORITIES FINANCE COR LTD, AP STA APGB000318091039101418                        URGENT  Shake Gai Munissa        91039101418     
R41000000000300000000000000000000000000000033881454741PD  GOVT OF AP Hyderabad salary    STATE BANK OF INDIA SECRETARIAT    19059047146                     Vushna                             MINORITIES FINANCE COR LTD, AP STA APGB000302119059047146                        URGENT  Vushna                   19059047146     
R41000000000400000000000000000000000000000033881454741PD  GOVT OF AP Hyderabad salary    STATE BANK OF INDIA SECRETARIAT    91034392581                     M Basheer Ahamad                   MINORITIES FINANCE COR LTD, AP STA APGB000302191034392581                        URGENT  M Basheer Ahamad         91034392581     
R41000000000300000000000000000000000000000033881454741PD  GOVT OF AP Hyderabad salary    STATE BANK OF INDIA SECRETARIAT    91034372949                     Kuda Naik Abdul Khadar             MINORITIES FINANCE COR LTD, AP STA APGB000302191034372949                        URGENT  Kuda Naik Abdul Khadar   91034372949     
R41000000000300000000000000000000000000000033881454741PD  GOVT OF AP Hyderabad salary    STATE BANK OF INDIA SECRETARIAT    91044278560                     Shake Chand Basha                  MINORITIES FINANCE COR LTD, AP STA APGB000302791044278560                        URGENT  Shake Chand Basha        91044278560     
R41000000000200000000000000000000000000000033881454741PD  GOVT OF AP Hyderabad salary    STATE BANK OF INDIA SECRETARIAT    91044187218                     Mulla Mabulla                      MINORITIES FINANCE COR LTD, AP STA APGB000302791044187218                        URGENT  Mulla Mabulla            91044187218     
R41000000000300000000000000000000000000000033881454741PD  GOVT OF AP Hyderabad salary    STATE BANK OF INDIA SECRETARIAT    91044278537                     Shaik Vusen Basha                  MINORITIES FINANCE COR LTD, AP STA APGB000302791044278537                        URGENT  Shaik Vusen Basha        91044278537     
R41000000000300000000000000000000000000000033881454741PD  GOVT OF AP Hyderabad salary    STATE BANK OF INDIA SECRETARIAT    91044194940                     Shek Mabbasha                      MINORITIES FINANCE COR LTD, AP STA APGB000302791044194940                        URGENT  Shek Mabbasha            91044194940     
R41000000000200000000000000000000000000000033881454741PD  GOVT OF AP Hyderabad salary    STATE BANK OF INDIA SECRETARIAT    91044187490                     Mulla Hussen Saheb                 MINORITIES FINANCE COR LTD, AP STA APGB000302791044187490                        URGENT  Mulla Hussen Saheb       91044187490     
R41000000000200000000000000000000000000000033881454741PD  GOVT OF AP Hyderabad salary    STATE BANK OF INDIA SECRETARIAT    91044223768                     Mulla Khajabi                      MINORITIES FINANCE COR LTD, AP STA APGB000302791044223768                        URGENT  Mulla Khajabi            91044223768     
R41000000000300000000000000000000000000000033881454741PD  GOVT OF AP Hyderabad salary    STATE BANK OF INDIA SECRETARIAT    91044223688                     Sheke Deenashahid                  MINORITIES FINANCE COR LTD, AP STA APGB000302791044223688                        URGENT  Sheke Deenashahid        91044223688     
R41000000000300000000000000000000000000000033881454741PD  GOVT OF AP Hyderabad salary    STATE BANK OF INDIA SECRETARIAT    91044341498                     Shaik Kasimvali                    MINORITIES FINANCE COR LTD, AP STA APGB000302791044341498                        URGENT  Shaik Kasimvali          91044341498     
R41000000000300000000000000000000000000000033881454741PD  GOVT OF AP Hyderabad salary    STATE BANK OF INDIA SECRETARIAT    91044341590                     Shake Nanne Khaseem                MINORITIES FINANCE COR LTD, AP STA APGB000302791044341590                        URGENT  Shake Nanne Khaseem      91044341590     
R41000000000500000000000000000000000000000033881454741PD  GOVT OF AP Hyderabad salary    STATE BANK OF INDIA SECRETARIAT    91035612451                     Belgum Mohammed Ali                MINORITIES FINANCE COR LTD, AP STA APGB000316091035612451                        URGENT  Belgum Mohammed Ali      91035612451     
R41000000000300000000000000000000000000000033881454741PD  GOVT OF AP Hyderabad salary    STATE BANK OF INDIA SECRETARIAT    91012881216                     Mohamed Ghouse                     MINORITIES FINANCE COR LTD, AP STA APGB000307391012881216                        URGENT  Mohamed Ghouse           91012881216     
R41000000000300000000000000000000000000000033881454741PD  GOVT OF AP Hyderabad salary    STATE BANK OF INDIA SECRETARIAT    19179509286                     Pathan Jemen Bi                    MINORITIES FINANCE COR LTD, AP STA APGB000307319179509286                        URGENT  Pathan Jemen Bi          19179509286     
R41000000000300000000000000000000000000000033881454741PD  GOVT OF AP Hyderabad salary    STATE BANK OF INDIA SECRETARIAT    91033359088                     Shaku Kavlabi                      MINORITIES FINANCE COR LTD, AP STA APGB000307391033359088                        URGENT  Shaku Kavlabi            91033359088     
R41000000000300000000000000000000000000000033881454741PD  GOVT OF AP Hyderabad salary    STATE BANK OF INDIA SECRETARIAT    19179558870                     Bannur Nasimunbee                  MINORITIES FINANCE COR LTD, AP STA APGB000307319179558870                        URGENT  Bannur Nasimunbee        19179558870     
R41000000000300000000000000000000000000000033881454741PD  GOVT OF AP Hyderabad salary    STATE BANK OF INDIA SECRETARIAT    19179536287                     Gonavaram Khadar Bhasha            MINORITIES FINANCE COR LTD, AP STA APGB000307319179536287                        URGENT  Gonavaram Khadar Bhasha  19179536287     
R41000000000300000000000000000000000000000033881454741PD  GOVT OF AP Hyderabad salary    STATE BANK OF INDIA SECRETARIAT    19179566620                     Shahid                             MINORITIES FINANCE COR LTD, AP STA APGB000307319179566620                        URGENT  Shahid                   19179566620     
R41000000000300000000000000000000000000000033881454741PD  GOVT OF AP Hyderabad salary    STATE BANK OF INDIA SECRETARIAT    19179553746                     Shaik Taslimabee                   MINORITIES FINANCE COR LTD, AP STA APGB000307319179553746                        URGENT  Shaik Taslimabee         19179553746     
R41000000000250000000000000000000000000000033881454741PD  GOVT OF AP Hyderabad salary    STATE BANK OF INDIA SECRETARIAT    91039618890                     Attar Abdul Munaf                  MINORITIES FINANCE COR LTD, AP STA APGB000304991039618890                        URGENT  Attar Abdul Munaf        91039618890     
R41000000000300000000000000000000000000000033881454741PD  GOVT OF AP Hyderabad salary    STATE BANK OF INDIA SECRETARIAT    91033367339                     Shaik Chand Basha                  MINORITIES FINANCE COR LTD, AP STA APGB000313691033367339                        URGENT  Shaik Chand Basha        91033367339     
R41000000000500000000000000000000000000000033881454741PD  GOVT OF AP Hyderabad salary    STATE BANK OF INDIA SECRETARIAT    91036275230                     Shaik Usnabegum                    MINORITIES FINANCE COR LTD, AP STA APGB000300991036275230                        URGENT  Shaik Usnabegum          91036275230     
R41000000000500000000000000000000000000000033881454741PD  GOVT OF AP Hyderabad salary    STATE BANK OF INDIA SECRETARIAT    91035856963                     S.Shali Basha                      MINORITIES FINANCE COR LTD, AP STA APGB000300991035856963                        URGENT  S.Shali Basha            91035856963     
R41000000000750000000000000000000000000000033881454741PD  GOVT OF AP Hyderabad salary    STATE BANK OF INDIA SECRETARIAT    91030397593                     Shaik Khaja                        MINORITIES FINANCE COR LTD, AP STA APGB000300991030397593                        URGENT  Shaik Khaja              91030397593     
R41000000000500000000000000000000000000000033881454741PD  GOVT OF AP Hyderabad salary    STATE BANK OF INDIA SECRETARIAT    91035759437                     Shaik Zaleel Ahmed                 MINORITIES FINANCE COR LTD, AP STA APGB000300991035759437                        URGENT  Shaik Zaleel Ahmed       91035759437     
R41000000000500000000000000000000000000000033881454741PD  GOVT OF AP Hyderabad salary    STATE BANK OF INDIA SECRETARIAT    91036249652                     Pathan Murthuja                    MINORITIES FINANCE COR LTD, AP STA APGB000300991036249652                        URGENT  Pathan Murthuja          91036249652     
R41000000000300000000000000000000000000000033881454741PD  GOVT OF AP Hyderabad salary    STATE BANK OF INDIA SECRETARIAT    91007542097                     Shaik Chand Basha                  MINORITIES FINANCE COR LTD, AP STA APGB000301191007542097                        URGENT  Shaik Chand Basha        91007542097     
R41000000000300000000000000000000000000000033881454741PD  GOVT OF AP Hyderabad salary    STATE BANK OF INDIA SECRETARIAT    91033860507                     Faridha                            MINORITIES FINANCE COR LTD, AP STA APGB000301191033860507                        URGENT  Faridha                  91033860507     
R41000000000300000000000000000000000000000033881454741PD  GOVT OF AP Hyderabad salary    STATE BANK OF INDIA SECRETARIAT    91038058994                     Molla Khaja Bee                    MINORITIES FINANCE COR LTD, AP STA APGB000301191038058994                        URGENT  Molla Khaja Bee          91038058994     
R41000000000300000000000000000000000000000033881454741PD  GOVT OF AP Hyderabad salary    STATE BANK OF INDIA SECRETARIAT    91031029142                     Boggula Arish Jaha                 MINORITIES FINANCE COR LTD, AP STA APGB000301191031029142                        URGENT  Boggula Arish Jaha       91031029142     
R41000000000300000000000000000000000000000033881454741PD  GOVT OF AP Hyderabad salary    STATE BANK OF INDIA SECRETARIAT    91037170789                     Hasan                              MINORITIES FINANCE COR LTD, AP STA APGB000316191037170789                        URGENT  Hasan                    91037170789     
R41000000001000000000000000000000000000000033881454741PD  GOVT OF AP Hyderabad salary    STATE BANK OF INDIA SECRETARIAT    91041461296                     Shaik Harif Basha                  MINORITIES FINANCE COR LTD, AP STA APGB000316991041461296                        URGENT  Shaik Harif Basha        91041461296     
R41000000000200000000000000000000000000000033881454741PD  GOVT OF AP Hyderabad salary    STATE BANK OF INDIA SECRETARIAT    571610510000182                 Jummapet Habeeb                    MINORITIES FINANCE COR LTD, AP STA BKID0005716571610510000182                    URGENT  Jummapet Habeeb          571610510000182 
R41000000000200000000000000000000000000000033881454741PD  GOVT OF AP Hyderabad salary    STATE BANK OF INDIA SECRETARIAT    571610510000189                 Obali Haseena                      MINORITIES FINANCE COR LTD, AP STA BKID0005716571610510000189                    URGENT  Obali Haseena            571610510000189 
R41000000000200000000000000000000000000000033881454741PD  GOVT OF AP Hyderabad salary    STATE BANK OF INDIA SECRETARIAT    571610510000192                 Alur Saleemabee                    MINORITIES FINANCE COR LTD, AP STA BKID0005716571610510000192                    URGENT  Alur Saleemabee          571610510000192 
R41000000000200000000000000000000000000000033881454741PD  GOVT OF AP Hyderabad salary    STATE BANK OF INDIA SECRETARIAT    571610510000185                 Mulla Vahida Banu                  MINORITIES FINANCE COR LTD, AP STA BKID0005716571610510000185                    URGENT  Mulla Vahida Banu        571610510000185 
R41000000000200000000000000000000000000000033881454741PD  GOVT OF AP Hyderabad salary    STATE BANK OF INDIA SECRETARIAT    571610510000188                 Alur Rasool Bee                    MINORITIES FINANCE COR LTD, AP STA BKID0005716571610510000188                    URGENT  Alur Rasool Bee          571610510000188 
R41000000000200000000000000000000000000000033881454741PD  GOVT OF AP Hyderabad salary    STATE BANK OF INDIA SECRETARIAT    571610510000187                 Shaik Bhanu Bee                    MINORITIES FINANCE COR LTD, AP STA BKID0005716571610510000187                    URGENT  Shaik Bhanu Bee          571610510000187 
R41000000000200000000000000000000000000000033881454741PD  GOVT OF AP Hyderabad salary    STATE BANK OF INDIA SECRETARIAT    571610510000191                 Gulbarga Jaibun Bee                MINORITIES FINANCE COR LTD, AP STA BKID0005716571610510000191                    URGENT  Gulbarga Jaibun Bee      571610510000191 
R41000000000200000000000000000000000000000033881454741PD  GOVT OF AP Hyderabad salary    STATE BANK OF INDIA SECRETARIAT    571610510000184                 Obali Muntaz Banu                  MINORITIES FINANCE COR LTD, AP STA BKID0005716571610510000184                    URGENT  Obali Muntaz Banu        571610510000184 
R41000000000300000000000000000000000000000033881454741PD  GOVT OF AP Hyderabad salary    STATE BANK OF INDIA SECRETARIAT    864510110017916                 S Raziya Bee                       MINORITIES FINANCE COR LTD, AP STA BKID0008645864510110017916                    URGENT  S Raziya Bee             864510110017916 
R41000000000300000000000000000000000000000033881454741PD  GOVT OF AP Hyderabad salary    STATE BANK OF INDIA SECRETARIAT    601127000554                    Doka   Chand Basha                 MINORITIES FINANCE COR LTD, AP STA CNRB0000601601127000554                       URGENT  Doka   Chand Basha       601127000554    
R41000000000300000000000000000000000000000033881454741PD  GOVT OF AP Hyderabad salary    STATE BANK OF INDIA SECRETARIAT    601127000553                    Badibajji Khaja                    MINORITIES FINANCE COR LTD, AP STA CNRB0000601601127000553                       URGENT  Badibajji Khaja          601127000553    
R41000000000300000000000000000000000000000033881454741PD  GOVT OF AP Hyderabad salary    STATE BANK OF INDIA SECRETARIAT    60112700056                     Shaik Ghouse Moddin                MINORITIES FINANCE COR LTD, AP STA CNRB000060160112700056                        URGENT  Shaik Ghouse Moddin      60112700056     
R41000000000500000000000000000000000000000033881454741PD  GOVT OF AP Hyderabad salary    STATE BANK OF INDIA SECRETARIAT    661108040726                    S.Shahina                          MINORITIES FINANCE COR LTD, AP STA CNRB0000661661108040726                       URGENT  S.Shahina                661108040726    
R41000000000500000000000000000000000000000033881454741PD  GOVT OF AP Hyderabad salary    STATE BANK OF INDIA SECRETARIAT    1679101009476                   Muslim Salella                     MINORITIES FINANCE COR LTD, AP STA CNRB00016791679101009476                      URGENT  Muslim Salella           1679101009476   
R41000000000500000000000000000000000000000033881454741PD  GOVT OF AP Hyderabad salary    STATE BANK OF INDIA SECRETARIAT    1679101009108                   Seke Sekeshavali                   MINORITIES FINANCE COR LTD, AP STA CNRB00016791679101009108                      URGENT  Seke Sekeshavali         1679101009108   
R41000000000500000000000000000000000000000033881454741PD  GOVT OF AP Hyderabad salary    STATE BANK OF INDIA SECRETARIAT    1679108006926                   Muslim Shashavali                  MINORITIES FINANCE COR LTD, AP STA CNRB00016791679108006926                      URGENT  Muslim Shashavali        1679108006926   
R41000000000500000000000000000000000000000033881454741PD  GOVT OF AP Hyderabad salary    STATE BANK OF INDIA SECRETARIAT    1679101009927                   Shek Chinna Vusen                  MINORITIES FINANCE COR LTD, AP STA CNRB00016791679101009927                      URGENT  Shek Chinna Vusen        1679101009927   
R41000000000500000000000000000000000000000033881454741PD  GOVT OF AP Hyderabad salary    STATE BANK OF INDIA SECRETARIAT    3064763354                      Pathan Jahangir Ali Khan           MINORITIES FINANCE COR LTD, AP STA CBIN02839673064763354                         URGENT  Pathan Jahangir Ali Khan 3064763354      
R41000000001000000000000000000000000000000033881454741PD  GOVT OF AP Hyderabad salary    STATE BANK OF INDIA SECRETARIAT    500101010489346                 Shaik Farook                       MINORITIES FINANCE COR LTD, AP STA CIUB0000174500101010489346                    URGENT  Shaik Farook             500101010489346 
R41000000001000000000000000000000000000000033881454741PD  GOVT OF AP Hyderabad salary    STATE BANK OF INDIA SECRETARIAT    500101010489745                 Shaik Karimun                      MINORITIES FINANCE COR LTD, AP STA CIUB0000174500101010489745                    URGENT  Shaik Karimun            500101010489745 
R41000000000500000000000000000000000000000033881454741PD  GOVT OF AP Hyderabad salary    STATE BANK OF INDIA SECRETARIAT    174001000784658                 Shaik  Sumayya                     MINORITIES FINANCE COR LTD, AP STA CIUB0000174174001000784658                    URGENT  Shaik  Sumayya           174001000784658 
R41000000001000000000000000000000000000000033881454741PD  GOVT OF AP Hyderabad salary    STATE BANK OF INDIA SECRETARIAT    500101010490786                 Shaik Gousiya                      MINORITIES FINANCE COR LTD, AP STA CIUB0000174500101010490786                    URGENT  Shaik Gousiya            500101010490786 
R41000000001000000000000000000000000000000033881454741PD  GOVT OF AP Hyderabad salary    STATE BANK OF INDIA SECRETARIAT    500101010490818                 Shaik Nai Munnisa                  MINORITIES FINANCE COR LTD, AP STA CIUB0000174500101010490818                    URGENT  Shaik Nai Munnisa        500101010490818 
R41000000001000000000000000000000000000000033881454741PD  GOVT OF AP Hyderabad salary    STATE BANK OF INDIA SECRETARIAT    500101010489298                 Shaik Nasreen                      MINORITIES FINANCE COR LTD, AP STA CIUB0000174500101010489298                    URGENT  Shaik Nasreen            500101010489298 
R41000000000500000000000000000000000000000033881454741PD  GOVT OF AP Hyderabad salary    STATE BANK OF INDIA SECRETARIAT    20600101016920                  Dudekula Shaikshavali              MINORITIES FINANCE COR LTD, AP STA CORP000020620600101016920                     URGENT  Dudekula Shaikshavali    20600101016920  
R41000000000500000000000000000000000000000033881454741PD  GOVT OF AP Hyderabad salary    STATE BANK OF INDIA SECRETARIAT    20600101017134                  Shaik Afzal Basha                  MINORITIES FINANCE COR LTD, AP STA CORP000020620600101017134                     URGENT  Shaik Afzal Basha        20600101017134  
R41000000000500000000000000000000000000000033881454741PD  GOVT OF AP Hyderabad salary    STATE BANK OF INDIA SECRETARIAT    894013840                       Khilikhat  Mohammad                MINORITIES FINANCE COR LTD, AP STA IDIB000A001894013840                          URGENT  Khilikhat  Mohammad      894013840       
R41000000000500000000000000000000000000000033881454741PD  GOVT OF AP Hyderabad salary    STATE BANK OF INDIA SECRETARIAT    6194299796                      Shaik Nisar Ahmed                  MINORITIES FINANCE COR LTD, AP STA IDIB000A0016194299796                         URGENT  Shaik Nisar Ahmed        6194299796      
R41000000000600000000000000000000000000000033881454741PD  GOVT OF AP Hyderabad salary    STATE BANK OF INDIA SECRETARIAT    6223012840                      Syed Nisar Basha                   MINORITIES FINANCE COR LTD, AP STA IDIB000A0016223012840                         URGENT  Syed Nisar Basha         6223012840      
R41000000000500000000000000000000000000000033881454741PD  GOVT OF AP Hyderabad salary    STATE BANK OF INDIA SECRETARIAT    6206490612                      Sayyad                             MINORITIES FINANCE COR LTD, AP STA IDIB000A0016206490612                         URGENT  Sayyad                   6206490612      
R41000000000750000000000000000000000000000033881454741PD  GOVT OF AP Hyderabad salary    STATE BANK OF INDIA SECRETARIAT    202500101666301                 Janda Husen Bhi                    MINORITIES FINANCE COR LTD, AP STA KARB0000020202500101666301                    URGENT  Janda Husen Bhi          202500101666301 
R41000000000500000000000000000000000000000033881454741PD  GOVT OF AP Hyderabad salary    STATE BANK OF INDIA SECRETARIAT    202500101641901                 Razibare Fareeda Bee               MINORITIES FINANCE COR LTD, AP STA KARB0000020202500101641901                    URGENT  Razibare Fareeda Bee     202500101641901 
R41000000001000000000000000000000000000000033881454741PD  GOVT OF AP Hyderabad salary    STATE BANK OF INDIA SECRETARIAT    2346000100110660                Pinjari Murthujabi                 MINORITIES FINANCE COR LTD, AP STA PUNB02346002346000100110660                   URGENT  Pinjari Murthujabi       2346000100110660
R41000000000500000000000000000000000000000033881454741PD  GOVT OF AP Hyderabad salary    STATE BANK OF INDIA SECRETARIAT    6589001700003250                Shaik Muntaz Begum                 MINORITIES FINANCE COR LTD, AP STA PUNB06589006589001700003250                   URGENT  Shaik Muntaz Begum       6589001700003250
R41000000000500000000000000000000000000000033881454741PD  GOVT OF AP Hyderabad salary    STATE BANK OF INDIA SECRETARIAT    6589000100026490                Dudekula Zaffer                    MINORITIES FINANCE COR LTD, AP STA PUNB06589006589000100026490                   URGENT  Dudekula Zaffer          6589000100026490
R41000000000500000000000000000000000000000033881454741PD  GOVT OF AP Hyderabad salary    STATE BANK OF INDIA SECRETARIAT    6589001700003260                Shaik Rahamat                      MINORITIES FINANCE COR LTD, AP STA PUNB06589006589001700003260                   URGENT  Shaik Rahamat            6589001700003260
R41000000000300000000000000000000000000000033881454741PD  GOVT OF AP Hyderabad salary    STATE BANK OF INDIA SECRETARIAT    62337464006                     Syed Faridabi                      MINORITIES FINANCE COR LTD, AP STA SBHY002097762337464006                        URGENT  Syed Faridabi            62337464006     
R41000000000300000000000000000000000000000033881454741PD  GOVT OF AP Hyderabad salary    STATE BANK OF INDIA SECRETARIAT    62337464164                     Shaik Yusuf                        MINORITIES FINANCE COR LTD, AP STA SBHY002097762337464164                        URGENT  Shaik Yusuf              62337464164     
R41000000000300000000000000000000000000000033881454741PD  GOVT OF AP Hyderabad salary    STATE BANK OF INDIA SECRETARIAT    62337464368                     Shaik Abdul Wahab                  MINORITIES FINANCE COR LTD, AP STA SBHY002097762337464368                        URGENT  Shaik Abdul Wahab        62337464368     
R41000000000300000000000000000000000000000033881454741PD  GOVT OF AP Hyderabad salary    STATE BANK OF INDIA SECRETARIAT    62337463921                     Shaik Rabiy Basheerun              MINORITIES FINANCE COR LTD, AP STA SBHY002097762337463921                        URGENT  Shaik Rabiy Basheerun    62337463921     
R41000000000500000000000000000000000000000033881454741PD  GOVT OF AP Hyderabad salary    STATE BANK OF INDIA SECRETARIAT    62334764437                     Patan Sardar Khan                  MINORITIES FINANCE COR LTD, AP STA SBHY002097762334764437                        URGENT  Patan Sardar Khan        62334764437     
R41000000000300000000000000000000000000000033881454741PD  GOVT OF AP Hyderabad salary    STATE BANK OF INDIA SECRETARIAT    62337464186                     Shaik Haneef                       MINORITIES FINANCE COR LTD, AP STA SBHY002097762337464186                        URGENT  Shaik Haneef             62337464186     
R41000000000300000000000000000000000000000033881454741PD  GOVT OF AP Hyderabad salary    STATE BANK OF INDIA SECRETARIAT    62337464391                     Sayed Abdul Rahiman                MINORITIES FINANCE COR LTD, AP STA SBHY002097762337464391                        URGENT  Sayed Abdul Rahiman      62337464391     
R41000000000500000000000000000000000000000033881454741PD  GOVT OF AP Hyderabad salary    STATE BANK OF INDIA SECRETARIAT    62348110927                     Muslim Shaja Dee                   MINORITIES FINANCE COR LTD, AP STA SBHY002104962348110927                        URGENT  Muslim Shaja Dee         62348110927     
R41000000000500000000000000000000000000000033881454741PD  GOVT OF AP Hyderabad salary    STATE BANK OF INDIA SECRETARIAT    62349761901                     Satarla Idrus                      MINORITIES FINANCE COR LTD, AP STA SBHY002104962349761901                        URGENT  Satarla Idrus            62349761901     
R41000000000300000000000000000000000000000033881454741PD  GOVT OF AP Hyderabad salary    STATE BANK OF INDIA SECRETARIAT    62348110687                     Shake Saila Banu                   MINORITIES FINANCE COR LTD, AP STA SBHY002104962348110687                        URGENT  Shake Saila Banu         62348110687     
R41000000000250000000000000000000000000000033881454741PD  GOVT OF AP Hyderabad salary    STATE BANK OF INDIA SECRETARIAT    33752200119225                  Shaik Yusuf Basha                  MINORITIES FINANCE COR LTD, AP STA SYNB000337533752200119225                     URGENT  Shaik Yusuf Basha        33752200119225  
R41000000001000000000000000000000000000000033881454741PD  GOVT OF AP Hyderabad salary    STATE BANK OF INDIA SECRETARIAT    33952210036762                  Shaik Mahoboobbi                   MINORITIES FINANCE COR LTD, AP STA SYNB000339533952210036762                     URGENT  Shaik Mahoboobbi         33952210036762  
R41000000000500000000000000000000000000000033881454741PD  GOVT OF AP Hyderabad salary    STATE BANK OF INDIA SECRETARIAT    33952210037093                  Shaik Shahera                      MINORITIES FINANCE COR LTD, AP STA SYNB000339533952210037093                     URGENT  Shaik Shahera            33952210037093  
R41000000000250000000000000000000000000000033881454741PD  GOVT OF AP Hyderabad salary    STATE BANK OF INDIA SECRETARIAT    33792200024888                  Shaik Imam Vali                    MINORITIES FINANCE COR LTD, AP STA SYNB000337933792200024888                     URGENT  Shaik Imam Vali          33792200024888  
R41000000000250000000000000000000000000000033881454741PD  GOVT OF AP Hyderabad salary    STATE BANK OF INDIA SECRETARIAT    33792200041222                  Naik Zeyaul Rahiman                MINORITIES FINANCE COR LTD, AP STA SYNB000337933792200041222                     URGENT  Naik Zeyaul Rahiman      33792200041222  
R41000000000250000000000000000000000000000033881454741PD  GOVT OF AP Hyderabad salary    STATE BANK OF INDIA SECRETARIAT    33792200056450                  Gounda Noori Sulthana              MINORITIES FINANCE COR LTD, AP STA SYNB000337933792200056450                     URGENT  Gounda Noori Sulthana    33792200056450  
R41000000000500000000000000000000000000000033881454741PD  GOVT OF AP Hyderabad salary    STATE BANK OF INDIA SECRETARIAT    33702010011105                  Syed Mahammed Rafiq                MINORITIES FINANCE COR LTD, AP STA SYNB000337033702010011105                     URGENT  Syed Mahammed Rafiq      33702010011105  
R41000000000500000000000000000000000000000033881454741PD  GOVT OF AP Hyderabad salary    STATE BANK OF INDIA SECRETARIAT    33702010016789                  Shake Anwar Hussain                MINORITIES FINANCE COR LTD, AP STA SYNB000337033702010016789                     URGENT  Shake Anwar Hussain      33702010016789  
R41000000001000000000000000000000000000000033881454741PD  GOVT OF AP Hyderabad salary    STATE BANK OF INDIA SECRETARIAT    33742010046562                  Syed Iqbal Hussain                 MINORITIES FINANCE COR LTD, AP STA SYNB000337433742010046562                     URGENT  Syed Iqbal Hussain       33742010046562  
R41000000000300000000000000000000000000000033881454741PD  GOVT OF AP Hyderabad salary    STATE BANK OF INDIA SECRETARIAT    33862210052119                  Molla Akbar Basha                  MINORITIES FINANCE COR LTD, AP STA SYNB000338633862210052119                     URGENT  Molla Akbar Basha        33862210052119  
R41000000000300000000000000000000000000000033881454741PD  GOVT OF AP Hyderabad salary    STATE BANK OF INDIA SECRETARIAT    33862210051918                  Chand Basha                        MINORITIES FINANCE COR LTD, AP STA SYNB000338633862210051918                     URGENT  Chand Basha              33862210051918  
R41000000000300000000000000000000000000000033881454741PD  GOVT OF AP Hyderabad salary    STATE BANK OF INDIA SECRETARIAT    33862210050988                  Sheik Mabu Saheb                   MINORITIES FINANCE COR LTD, AP STA SYNB000338633862210050988                     URGENT  Sheik Mabu Saheb         33862210050988  
R41000000000250000000000000000000000000000033881454741PD  GOVT OF AP Hyderabad salary    STATE BANK OF INDIA SECRETARIAT    33812210065156                  Reddy Palli Chinna Abdul           MINORITIES FINANCE COR LTD, AP STA SYNB000338133812210065156                     URGENT  Reddy Palli Chinna Abdul 33812210065156  
R41000000000250000000000000000000000000000033881454741PD  GOVT OF AP Hyderabad salary    STATE BANK OF INDIA SECRETARIAT    33812210063080                  Anil Gafoor                        MINORITIES FINANCE COR LTD, AP STA SYNB000338133812210063080                     URGENT  Anil Gafoor              33812210063080  
R41000000000250000000000000000000000000000033881454741PD  GOVT OF AP Hyderabad salary    STATE BANK OF INDIA SECRETARIAT    33812210064188                  Kalai Ramijabi                     MINORITIES FINANCE COR LTD, AP STA SYNB000338133812210064188                     URGENT  Kalai Ramijabi           33812210064188  
R41000000000250000000000000000000000000000033881454741PD  GOVT OF AP Hyderabad salary    STATE BANK OF INDIA SECRETARIAT    33812210063490                  Devagudi Ramijabi                  MINORITIES FINANCE COR LTD, AP STA SYNB000338133812210063490                     URGENT  Devagudi Ramijabi        33812210063490  
R41000000000250000000000000000000000000000033881454741PD  GOVT OF AP Hyderabad salary    STATE BANK OF INDIA SECRETARIAT    33812210063206                  Nallavagu Palle Khadar Basha       MINORITIES FINANCE COR LTD, AP STA SYNB000338133812210063206                     URGENT  Nallavagu Palle Khadar Ba33812210063206  
R41000000000250000000000000000000000000000033881454741PD  GOVT OF AP Hyderabad salary    STATE BANK OF INDIA SECRETARIAT    33812210064859                  Allisau Javid                      MINORITIES FINANCE COR LTD, AP STA SYNB000338133812210064859                     URGENT  Allisau Javid            33812210064859  
R41000000000250000000000000000000000000000033881454741PD  GOVT OF AP Hyderabad salary    STATE BANK OF INDIA SECRETARIAT    33812210064550                  Gajula Nabirunabegam               MINORITIES FINANCE COR LTD, AP STA SYNB000338133812210064550                     URGENT  Gajula Nabirunabegam     33812210064550  
R41000000000500000000000000000000000000000033881454741PD  GOVT OF AP Hyderabad salary    STATE BANK OF INDIA SECRETARIAT    33852210010763                  Mirja Mahaboob Baig                MINORITIES FINANCE COR LTD, AP STA SYNB000338533852210010763                     URGENT  Mirja Mahaboob Baig      33852210010763  
R41000000000500000000000000000000000000000033881454741PD  GOVT OF AP Hyderabad salary    STATE BANK OF INDIA SECRETARIAT    33852210010778                  Mirza Habibulla Baig               MINORITIES FINANCE COR LTD, AP STA SYNB000338533852210010778                     URGENT  Mirza Habibulla Baig     33852210010778  
R41000000000500000000000000000000000000000033881454741PD  GOVT OF AP Hyderabad salary    STATE BANK OF INDIA SECRETARIAT    33852210011186                  Dafedar Abdul Rasheed              MINORITIES FINANCE COR LTD, AP STA SYNB000338533852210011186                     URGENT  Dafedar Abdul Rasheed    33852210011186  
R41000000000500000000000000000000000000000033881454741PD  GOVT OF AP Hyderabad salary    STATE BANK OF INDIA SECRETARIAT    33852210011167                  Chilukala Mahammad Rafi            MINORITIES FINANCE COR LTD, AP STA SYNB000338533852210011167                     URGENT  Chilukala Mahammad Rafi  33852210011167  
R41000000000500000000000000000000000000000033881454741PD  GOVT OF AP Hyderabad salary    STATE BANK OF INDIA SECRETARIAT    33852210010730                  Mirza Ansar Beg                    MINORITIES FINANCE COR LTD, AP STA SYNB000338533852210010730                     URGENT  Mirza Ansar Beg          33852210010730  
R41000000000500000000000000000000000000000033881454741PD  GOVT OF AP Hyderabad salary    STATE BANK OF INDIA SECRETARIAT    33852210011094                  Mirja Hussain Baig                 MINORITIES FINANCE COR LTD, AP STA SYNB000338533852210011094                     URGENT  Mirja Hussain Baig       33852210011094  
R41000000000500000000000000000000000000000033881454741PD  GOVT OF AP Hyderabad salary    STATE BANK OF INDIA SECRETARIAT    33852210010797                  Kolimi Mahammad Kashim             MINORITIES FINANCE COR LTD, AP STA SYNB000338533852210010797                     URGENT  Kolimi Mahammad Kashim   33852210010797  
R41000000000500000000000000000000000000000033881454741PD  GOVT OF AP Hyderabad salary    STATE BANK OF INDIA SECRETARIAT    33852210010802                  Mmahaboob Basha                    MINORITIES FINANCE COR LTD, AP STA SYNB000338533852210010802                     URGENT  Mmahaboob Basha          33852210010802  
R41000000000250000000000000000000000000000033881454741PD  GOVT OF AP Hyderabad salary    STATE BANK OF INDIA SECRETARIAT    33772210004662                  Shaik Ramijabi                     MINORITIES FINANCE COR LTD, AP STA SYNB000337733772210004662                     URGENT  Shaik Ramijabi           33772210004662  
R41000000000300000000000000000000000000000033881454741PD  GOVT OF AP Hyderabad salary    STATE BANK OF INDIA SECRETARIAT    33942200045356                  Shaik Hameeda Banu                 MINORITIES FINANCE COR LTD, AP STA SYNB000339733942200045356                     URGENT  Shaik Hameeda Banu       33942200045356  
R41000000000500000000000000000000000000000033881454741PD  GOVT OF AP Hyderabad salary    STATE BANK OF INDIA SECRETARIAT    33942210019070                  Syed Rafjaya Bee                   MINORITIES FINANCE COR LTD, AP STA SYNB000339433942210019070                     URGENT  Syed Rafjaya Bee         33942210019070  
R41000000001000000000000000000000000000000033881454741PD  GOVT OF AP Hyderabad salary    STATE BANK OF INDIA SECRETARIAT    33942210019515                  Shaik Khaja                        MINORITIES FINANCE COR LTD, AP STA SYNB000339433942210019515                     URGENT  Shaik Khaja              33942210019515  
R41000000000300000000000000000000000000000033881454741PD  GOVT OF AP Hyderabad salary    STATE BANK OF INDIA SECRETARIAT    33942210019384                  Lingapuram Shaik  Muthija          MINORITIES FINANCE COR LTD, AP STA SYNB000339433942210019384                     URGENT  Lingapuram Shaik  Muthija33942210019384  
R41000000001000000000000000000000000000000033881454741PD  GOVT OF AP Hyderabad salary    STATE BANK OF INDIA SECRETARIAT    33992010025406                  Shaik Nazimoon                     MINORITIES FINANCE COR LTD, AP STA SYNB000339933992010025406                     URGENT  Shaik Nazimoon           33992010025406  
R41000000000300000000000000000000000000000033881454741PD  GOVT OF AP Hyderabad salary    STATE BANK OF INDIA SECRETARIAT    33992010012900                  Shaik Kalam Basha                  MINORITIES FINANCE COR LTD, AP STA SYNB000339933992010012900                     URGENT  Shaik Kalam Basha        33992010012900  
R41000000000300000000000000000000000000000033881454741PD  GOVT OF AP Hyderabad salary    STATE BANK OF INDIA SECRETARIAT    33992010022361                  Shaik Abdul  Riyaz                 MINORITIES FINANCE COR LTD, AP STA SYNB000339933992010022361                     URGENT  Shaik Abdul  Riyaz       33992010022361  
R41000000000300000000000000000000000000000033881454741PD  GOVT OF AP Hyderabad salary    STATE BANK OF INDIA SECRETARIAT    33832200037739                  Mulla Kalimulla                    MINORITIES FINANCE COR LTD, AP STA SYNB000338333832200037739                     URGENT  Mulla Kalimulla          33832200037739  
R41000000000250000000000000000000000000000033881454741PD  GOVT OF AP Hyderabad salary    STATE BANK OF INDIA SECRETARIAT    33832200088117                  Shaik Rami Jabi                    MINORITIES FINANCE COR LTD, AP STA SYNB000338333832200088117                     URGENT  Shaik Rami Jabi          33832200088117  
R41000000000300000000000000000000000000000033881454741PD  GOVT OF AP Hyderabad salary    STATE BANK OF INDIA SECRETARIAT    33832030003384                  B Iqbal Basha                      MINORITIES FINANCE COR LTD, AP STA SYNB000338333832030003384                     URGENT  B Iqbal Basha            33832030003384  
R41000000000300000000000000000000000000000033881454741PD  GOVT OF AP Hyderabad salary    STATE BANK OF INDIA SECRETARIAT    33832210036076                  Mohammad Rafi                      MINORITIES FINANCE COR LTD, AP STA SYNB000338333832210036076                     URGENT  Mohammad Rafi            33832210036076  
R41000000000300000000000000000000000000000033881454741PD  GOVT OF AP Hyderabad salary    STATE BANK OF INDIA SECRETARIAT    33832200044548                  Guntanala Noorjahanbee             MINORITIES FINANCE COR LTD, AP STA SYNB000338333832200044548                     URGENT  Guntanala Noorjahanbee   33832200044548  
R41000000000500000000000000000000000000000033881454741PD  GOVT OF AP Hyderabad salary    STATE BANK OF INDIA SECRETARIAT    337822000105419                 Thureghal Fathima Bee              MINORITIES FINANCE COR LTD, AP STA SYNB0003382337822000105419                    URGENT  Thureghal Fathima Bee    337822000105419 
R41000000000500000000000000000000000000000033881454741PD  GOVT OF AP Hyderabad salary    STATE BANK OF INDIA SECRETARIAT    33782200110128                  Syed Saleem Basha                  MINORITIES FINANCE COR LTD, AP STA SYNB000337833782200110128                     URGENT  Syed Saleem Basha        33782200110128  
R41000000001000000000000000000000000000000033881454741PD  GOVT OF AP Hyderabad salary    STATE BANK OF INDIA SECRETARIAT    33782200110431                  Nagaladenne Shafi                  MINORITIES FINANCE COR LTD, AP STA SYNB000337833782200110431                     URGENT  Nagaladenne Shafi        33782200110431  
R41000000000500000000000000000000000000000033881454741PD  GOVT OF AP Hyderabad salary    STATE BANK OF INDIA SECRETARIAT    337822000105346                 Thuregal Mohammed Karimunnisa BegumMINORITIES FINANCE COR LTD, AP STA SYNB0003378337822000105346                    URGENT  Thuregal Mohammed Karimun337822000105346 
R41000000000500000000000000000000000000000033881454741PD  GOVT OF AP Hyderabad salary    STATE BANK OF INDIA SECRETARIAT    33782250008996                  Mevafarush Sulthana                MINORITIES FINANCE COR LTD, AP STA SYNB000337833782250008996                     URGENT  Mevafarush Sulthana      33782250008996  
R41000000000400000000000000000000000000000033881454741PD  GOVT OF AP Hyderabad salary    STATE BANK OF INDIA SECRETARIAT    33782210008676                  Shaik  Malik Basha                 MINORITIES FINANCE COR LTD, AP STA SYNB000337833782210008676                     URGENT  Shaik  Malik Basha       33782210008676  
R41000000000500000000000000000000000000000033881454741PD  GOVT OF AP Hyderabad salary    STATE BANK OF INDIA SECRETARIAT    33782200111298                  N Khaja Vali                       MINORITIES FINANCE COR LTD, AP STA SYNB000337833782200111298                     URGENT  N Khaja Vali             33782200111298  
R41000000000500000000000000000000000000000033881454741PD  GOVT OF AP Hyderabad salary    STATE BANK OF INDIA SECRETARIAT    337822000105350                 Divan Shahina                      MINORITIES FINANCE COR LTD, AP STA SYNB0003378337822000105350                    URGENT  Divan Shahina            337822000105350 
R41000000000500000000000000000000000000000033881454741PD  GOVT OF AP Hyderabad salary    STATE BANK OF INDIA SECRETARIAT    354602010016393                 Shaik Parveen                      MINORITIES FINANCE COR LTD, AP STA UBIN0535460354602010016393                    URGENT  Shaik Parveen            354602010016393 
R41000000000500000000000000000000000000000033881454741PD  GOVT OF AP Hyderabad salary    STATE BANK OF INDIA SECRETARIAT    400101991000012                 Maniyar Lukman Hakeen              MINORITIES FINANCE COR LTD, AP STA VIJB0004001400101991000012                    URGENT  Maniyar Lukman Hakeen    400101991000012 
R41000000000300000000000000000000000000000033881454741PD  GOVT OF AP Hyderabad salary    STATE BANK OF INDIA SECRETARIAT    405001011003022                 S Saleema                          MINORITIES FINANCE COR LTD, AP STA VIJB0004050405001011003022                    URGENT  S Saleema                405001011003022 
R41000000000300000000000000000000000000000033881454741PD  GOVT OF AP Hyderabad salary    STATE BANK OF INDIA SECRETARIAT    405001011002982                 Shaik Fathima                      MINORITIES FINANCE COR LTD, AP STA VIJB0004050405001011002982                    URGENT  Shaik Fathima            405001011002982 
R41000000000300000000000000000000000000000033881454741PD  GOVT OF AP Hyderabad salary    STATE BANK OF INDIA SECRETARIAT    408701991000008                 Patans Iqbal                       MINORITIES FINANCE COR LTD, AP STA VIJB0004087408701991000008                    URGENT  Patans Iqbal             408701991000008 
R41000000000500000000000000000000000000000033881454741PD  GOVT OF AP Hyderabad salary    STATE BANK OF INDIA SECRETARIAT    411201011001980                 Pathan Rahmatullah Khan            MINORITIES FINANCE COR LTD, AP STA VIJB0004112411201011001980                    URGENT  Pathan Rahmatullah Khan  411201011001980 
R41000000000300000000000000000000000000000033881454741PD  GOVT OF AP Hyderabad salary    STATE BANK OF INDIA SECRETARIAT    025210100047008                 Sayad Eesubh                       MINORITIES FINANCE COR LTD, AP STA ANDB0000252025210100047008                    URGENT  Sayad Eesubh             025210100047008 
R41000000000500000000000000000000000000000033881454741PD  GOVT OF AP Hyderabad salary    STATE BANK OF INDIA SECRETARIAT    1431165000000130                Mohamad Asifa                      MINORITIES FINANCE COR LTD, AP STA KVBL00014311431165000000130                   URGENT  Mohamad Asifa            1431165000000130
R41000000000300000000000000000000000000000033881454741PD  GOVT OF AP Hyderabad salary    STATE BANK OF INDIA SECRETARIAT    62325520453                     Shaik Jahangir Bhasha              MINORITIES FINANCE COR LTD, AP STA SBHY002141362325520453                        URGENT  Shaik Jahangir Bhasha    62325520453     
R41000000000250000000000000000000000000000033881454741PD  GOVT OF AP Hyderabad salary    STATE BANK OF INDIA SECRETARIAT    007710100106949                 Shaik Meera Vali                   MINORITIES FINANCE COR LTD, AP STA ANDB0000077007710100106949                    URGENT  Shaik Meera Vali         007710100106949 
R41000000000250000000000000000000000000000033881454741PD  GOVT OF AP Hyderabad salary    STATE BANK OF INDIA SECRETARIAT    0077101001069538                Sayyed Mabhu Subhani               MINORITIES FINANCE COR LTD, AP STA ANDB00000770077101001069538                   URGENT  Sayyed Mabhu Subhani     0077101001069538
R41000000000500000000000000000000000000000033881454741PD  GOVT OF AP Hyderabad salary    STATE BANK OF INDIA SECRETARIAT    038110100143737                 Shaik Rafi Ahemmad                 MINORITIES FINANCE COR LTD, AP STA ANDB0000381038110100143737                    URGENT  Shaik Rafi Ahemmad       038110100143737 
R41000000000500000000000000000000000000000033881454741PD  GOVT OF AP Hyderabad salary    STATE BANK OF INDIA SECRETARIAT    087910100079779                 Shake Mustap                       MINORITIES FINANCE COR LTD, AP STA ANDB0000879087910100079779                    URGENT  Shake Mustap             087910100079779 
R41000000000300000000000000000000000000000033881454741PD  GOVT OF AP Hyderabad salary    STATE BANK OF INDIA SECRETARIAT    144110100055672                 Shaik Janbi                        MINORITIES FINANCE COR LTD, AP STA ANDB0001441144110100055672                    URGENT  Shaik Janbi              144110100055672 
R41000000000300000000000000000000000000000033881454741PD  GOVT OF AP Hyderabad salary    STATE BANK OF INDIA SECRETARIAT    144110100055715                 Shaik Rasulbee                     MINORITIES FINANCE COR LTD, AP STA ANDB0001441144110100055715                    URGENT  Shaik Rasulbee           144110100055715 
R41000000000300000000000000000000000000000033881454741PD  GOVT OF AP Hyderabad salary    STATE BANK OF INDIA SECRETARIAT    043610100065350                 Shake Rafi Munisa                  MINORITIES FINANCE COR LTD, AP STA ANDB0000436043610100065350                    URGENT  Shake Rafi Munisa        043610100065350 
R41000000000350000000000000000000000000000033881454741PD  GOVT OF AP Hyderabad salary    STATE BANK OF INDIA SECRETARIAT    047610100144143                 Shaik  Sattar                      MINORITIES FINANCE COR LTD, AP STA ANDB0000476047610100144143                    URGENT  Shaik  Sattar            047610100144143 
R41000000000750000000000000000000000000000033881454741PD  GOVT OF AP Hyderabad salary    STATE BANK OF INDIA SECRETARIAT    047610100144170                 Shaik Nagurvali                    MINORITIES FINANCE COR LTD, AP STA ANDB0000476047610100144170                    URGENT  Shaik Nagurvali          047610100144170 
R41000000000500000000000000000000000000000033881454741PD  GOVT OF AP Hyderabad salary    STATE BANK OF INDIA SECRETARIAT    057610100070787                 Shaik Bajisalam                    MINORITIES FINANCE COR LTD, AP STA ANDB0000576057610100070787                    URGENT  Shaik Bajisalam          057610100070787 
R41000000000300000000000000000000000000000033881454741PD  GOVT OF AP Hyderabad salary    STATE BANK OF INDIA SECRETARIAT    567210110004897                 Shaik Kareem Bhasha                MINORITIES FINANCE COR LTD, AP STA BKID0005672567210110004897                    URGENT  Shaik Kareem Bhasha      567210110004897 
R41000000000500000000000000000000000000000033881454741PD  GOVT OF AP Hyderabad salary    STATE BANK OF INDIA SECRETARIAT    567210110004899                 Shaik Subhani                      MINORITIES FINANCE COR LTD, AP STA BKID0005672567210110004899                    URGENT  Shaik Subhani            567210110004899 
R41000000000300000000000000000000000000000033881454741PD  GOVT OF AP Hyderabad salary    STATE BANK OF INDIA SECRETARIAT    863110110007237                 Shaik Baji Saida                   MINORITIES FINANCE COR LTD, AP STA BKID0008631863110110007237                    URGENT  Shaik Baji Saida         863110110007237 
R41000000000500000000000000000000000000000033881454741PD  GOVT OF AP Hyderabad salary    STATE BANK OF INDIA SECRETARIAT    3507101004562                   Pathan Kasimbee                    MINORITIES FINANCE COR LTD, AP STA CNRB00035073507101004562                      URGENT  Pathan Kasimbee          3507101004562   
R41000000000500000000000000000000000000000033881454741PD  GOVT OF AP Hyderabad salary    STATE BANK OF INDIA SECRETARIAT    3507101004598                   Mahammad Abduljaleel               MINORITIES FINANCE COR LTD, AP STA CNRB00035073507101004598                      URGENT  Mahammad Abduljaleel     3507101004598   
R41000000000300000000000000000000000000000033881454741PD  GOVT OF AP Hyderabad salary    STATE BANK OF INDIA SECRETARIAT    704310031030663                 Shaik Masthanvali                  MINORITIES FINANCE COR LTD, AP STA ANDB0007999704310031030663                    URGENT  Shaik Masthanvali        704310031030663 
R41000000000300000000000000000000000000000033881454741PD  GOVT OF AP Hyderabad salary    STATE BANK OF INDIA SECRETARIAT    704310031030656                 Shaik Mahammad Rafi                MINORITIES FINANCE COR LTD, AP STA ANDB0007999704310031030656                    URGENT  Shaik Mahammad Rafi      704310031030656 
R41000000000300000000000000000000000000000033881454741PD  GOVT OF AP Hyderabad salary    STATE BANK OF INDIA SECRETARIAT    704310031030694                 Shaik Jani Basha                   MINORITIES FINANCE COR LTD, AP STA ANDB0007999704310031030694                    URGENT  Shaik Jani Basha         704310031030694 
R41000000000300000000000000000000000000000033881454741PD  GOVT OF AP Hyderabad salary    STATE BANK OF INDIA SECRETARIAT    702810031029278                 Shaik Mahamd                       MINORITIES FINANCE COR LTD, AP STA ANDB0007999702810031029278                    URGENT  Shaik Mahamd             702810031029278 
R41000000000300000000000000000000000000000033881454741PD  GOVT OF AP Hyderabad salary    STATE BANK OF INDIA SECRETARIAT    702810031029193                 Shaik Mahamad Rafi                 MINORITIES FINANCE COR LTD, AP STA ANDB0007999702810031029193                    URGENT  Shaik Mahamad Rafi       702810031029193 
R41000000000500000000000000000000000000000033881454741PD  GOVT OF AP Hyderabad salary    STATE BANK OF INDIA SECRETARIAT    706610100052338                 Sheik Fathima                      MINORITIES FINANCE COR LTD, AP STA ANDB0007999706610100052338                    URGENT  Sheik Fathima            706610100052338 
R41000000000500000000000000000000000000000033881454741PD  GOVT OF AP Hyderabad salary    STATE BANK OF INDIA SECRETARIAT    703310031040761                 Mabub                              MINORITIES FINANCE COR LTD, AP STA ANDB0007999703310031040761                    URGENT  Mabub                    703310031040761 
R41000000000300000000000000000000000000000033881454741PD  GOVT OF AP Hyderabad salary    STATE BANK OF INDIA SECRETARIAT    702230049059731                 Shaik Karimulla                    MINORITIES FINANCE COR LTD, AP STA ANDB0007999702230049059731                    URGENT  Shaik Karimulla          702230049059731 
R41000000000500000000000000000000000000000033881454741PD  GOVT OF AP Hyderabad salary    STATE BANK OF INDIA SECRETARIAT    701910031024785                 Sheik Moulali                      MINORITIES FINANCE COR LTD, AP STA ANDB0007999701910031024785                    URGENT  Sheik Moulali            701910031024785 
R41000000000500000000000000000000000000000033881454741PD  GOVT OF AP Hyderabad salary    STATE BANK OF INDIA SECRETARIAT    704210031032575                 Patlaveeti Shahina Begum           MINORITIES FINANCE COR LTD, AP STA ANDB0007999704210031032575                    URGENT  Patlaveeti Shahina Begum 704210031032575 
R41000000000500000000000000000000000000000033881454741PD  GOVT OF AP Hyderabad salary    STATE BANK OF INDIA SECRETARIAT    704210031032643                 Shaik Jaheerabee                   MINORITIES FINANCE COR LTD, AP STA ANDB0007999704210031032643                    URGENT  Shaik Jaheerabee         704210031032643 
R41000000000500000000000000000000000000000033881454741PD  GOVT OF AP Hyderabad salary    STATE BANK OF INDIA SECRETARIAT    704210031032650                 Sayed Lalabee                      MINORITIES FINANCE COR LTD, AP STA ANDB0007999704210031032650                    URGENT  Sayed Lalabee            704210031032650 
R41000000000500000000000000000000000000000033881454741PD  GOVT OF AP Hyderabad salary    STATE BANK OF INDIA SECRETARIAT    702510031020800                 Shaik Samshad                      MINORITIES FINANCE COR LTD, AP STA ANDB0007999702510031020800                    URGENT  Shaik Samshad            702510031020800 
R41000000000500000000000000000000000000000033881454741PD  GOVT OF AP Hyderabad salary    STATE BANK OF INDIA SECRETARIAT    702510031020817                 Shaik Abdhul Rahim                 MINORITIES FINANCE COR LTD, AP STA ANDB0007999702510031020817                    URGENT  Shaik Abdhul Rahim       702510031020817 
R41000000001000000000000000000000000000000033881454741PD  GOVT OF AP Hyderabad salary    STATE BANK OF INDIA SECRETARIAT    707210100048353                 Shaik Nagulbi                      MINORITIES FINANCE COR LTD, AP STA ANDB0007999707210100048353                    URGENT  Shaik Nagulbi            707210100048353 
R41000000000500000000000000000000000000000033881454741PD  GOVT OF AP Hyderabad salary    STATE BANK OF INDIA SECRETARIAT    70210100048362                  Shaik Mastan Sharieff              MINORITIES FINANCE COR LTD, AP STA ANDB000799970210100048362                     URGENT  Shaik Mastan Sharieff    70210100048362  
R41000000000300000000000000000000000000000033881454741PD  GOVT OF AP Hyderabad salary    STATE BANK OF INDIA SECRETARIAT    79210029563                     Shaik Mahabubjani                  MINORITIES FINANCE COR LTD, AP STA BKDN061079279210029563                        URGENT  Shaik Mahabubjani        79210029563     
R41000000000300000000000000000000000000000033881454741PD  GOVT OF AP Hyderabad salary    STATE BANK OF INDIA SECRETARIAT    6244763802                      Sk.Hussain                         MINORITIES FINANCE COR LTD, AP STA IDIB000M0786244763802                         URGENT  Sk.Hussain               6244763802      
R41000000000300000000000000000000000000000033881454741PD  GOVT OF AP Hyderabad salary    STATE BANK OF INDIA SECRETARIAT    789586143                       Shaik Kalesha                      MINORITIES FINANCE COR LTD, AP STA IDIB000N005789586143                          URGENT  Shaik Kalesha            789586143       
R41000000000300000000000000000000000000000033881454741PD  GOVT OF AP Hyderabad salary    STATE BANK OF INDIA SECRETARIAT    6266215636                      Shaik Masthanvali                  MINORITIES FINANCE COR LTD, AP STA IDIB000N0056266215636                         URGENT  Shaik Masthanvali        6266215636      
R41000000000500000000000000000000000000000033881454741PD  GOVT OF AP Hyderabad salary    STATE BANK OF INDIA SECRETARIAT    33301000018843                  Shaik Mahibun                      MINORITIES FINANCE COR LTD, AP STA IOBA000033333301000018843                     URGENT  Shaik Mahibun            33301000018843  
R41000000000500000000000000000000000000000033881454741PD  GOVT OF AP Hyderabad salary    STATE BANK OF INDIA SECRETARIAT    33301000018920                  Shaik Nasiriman                    MINORITIES FINANCE COR LTD, AP STA IOBA000033333301000018920                     URGENT  Shaik Nasiriman          33301000018920  
R41000000000750000000000000000000000000000033881454741PD  GOVT OF AP Hyderabad salary    STATE BANK OF INDIA SECRETARIAT    33301000012908                  Shaik Galibbi                      MINORITIES FINANCE COR LTD, AP STA IOBA000033333301000012908                     URGENT  Shaik Galibbi            33301000012908  
R41000000000500000000000000000000000000000033881454741PD  GOVT OF AP Hyderabad salary    STATE BANK OF INDIA SECRETARIAT    33301000018637                  Shaik Mastanbi                     MINORITIES FINANCE COR LTD, AP STA IOBA000033333301000018637                     URGENT  Shaik Mastanbi           33301000018637  
R41000000000500000000000000000000000000000033881454741PD  GOVT OF AP Hyderabad salary    STATE BANK OF INDIA SECRETARIAT    33301000013703                  Shaik Guljar                       MINORITIES FINANCE COR LTD, AP STA IOBA000033333301000013703                     URGENT  Shaik Guljar             33301000013703  
R41000000000500000000000000000000000000000033881454741PD  GOVT OF AP Hyderabad salary    STATE BANK OF INDIA SECRETARIAT    33301000015674                  Shaik Munnu                        MINORITIES FINANCE COR LTD, AP STA IOBA000033333301000015674                     URGENT  Shaik Munnu              33301000015674  
R41000000000500000000000000000000000000000033881454741PD  GOVT OF AP Hyderabad salary    STATE BANK OF INDIA SECRETARIAT    33301000018744                  Shaik Karimun                      MINORITIES FINANCE COR LTD, AP STA IOBA000033333301000018744                     URGENT  Shaik Karimun            33301000018744  
R41000000000500000000000000000000000000000033881454741PD  GOVT OF AP Hyderabad salary    STATE BANK OF INDIA SECRETARIAT    62040346858                     Syad Mastan Vali                   MINORITIES FINANCE COR LTD, AP STA SBHY002081062040346858                        URGENT  Syad Mastan Vali         62040346858     
R41000000000500000000000000000000000000000033881454741PD  GOVT OF AP Hyderabad salary    STATE BANK OF INDIA SECRETARIAT    32742200014173                  Sk.Bajibabu                        MINORITIES FINANCE COR LTD, AP STA SYNB000327432742200014173                     URGENT  Sk.Bajibabu              32742200014173  
R41000000000500000000000000000000000000000033881454741PD  GOVT OF AP Hyderabad salary    STATE BANK OF INDIA SECRETARIAT    330206130010220                 Sayyad Mujibul Hasan               MINORITIES FINANCE COR LTD, AP STA UBIN0533025330206130010220                    URGENT  Sayyad Mujibul Hasan     330206130010220 
R41000000000500000000000000000000000000000033881454741PD  GOVT OF AP Hyderabad salary    STATE BANK OF INDIA SECRETARIAT    000210100124185                 Maddi Madugu Mahammad Eliyaz       MINORITIES FINANCE COR LTD, AP STA ANDB0000002000210100124185                    URGENT  Maddi Madugu Mahammad Eli000210100124185 
R41000000000500000000000000000000000000000033881454741PD  GOVT OF AP Hyderabad salary    STATE BANK OF INDIA SECRETARIAT    000210100124194                 R Haseena Banu                     MINORITIES FINANCE COR LTD, AP STA ANDB0000002000210100124194                    URGENT  R Haseena Banu           000210100124194 
R41000000000500000000000000000000000000000033881454741PD  GOVT OF AP Hyderabad salary    STATE BANK OF INDIA SECRETARIAT    000210100124176                 R Md Iqbal                         MINORITIES FINANCE COR LTD, AP STA ANDB0000002000210100124176                    URGENT  R Md Iqbal               000210100124176 
R41000000000500000000000000000000000000000033881454741PD  GOVT OF AP Hyderabad salary    STATE BANK OF INDIA SECRETARIAT    0002610100179592                Makaldar Inthiyaz                  MINORITIES FINANCE COR LTD, AP STA ANDB00000260002610100179592                   URGENT  Makaldar Inthiyaz        0002610100179592
R41000000000500000000000000000000000000000033881454741PD  GOVT OF AP Hyderabad salary    STATE BANK OF INDIA SECRETARIAT    0002610100179671                Syed Gous                          MINORITIES FINANCE COR LTD, AP STA ANDB00000260002610100179671                   URGENT  Syed Gous                0002610100179671
R41000000000500000000000000000000000000000033881454741PD  GOVT OF AP Hyderabad salary    STATE BANK OF INDIA SECRETARIAT    0002610100179608                Syed Kubribe                       MINORITIES FINANCE COR LTD, AP STA ANDB00000260002610100179608                   URGENT  Syed Kubribe             0002610100179608
R41000000000500000000000000000000000000000033881454741PD  GOVT OF AP Hyderabad salary    STATE BANK OF INDIA SECRETARIAT    0002610100179626                Shaik  Kalimullah                  MINORITIES FINANCE COR LTD, AP STA ANDB00000260002610100179626                   URGENT  Shaik  Kalimullah        0002610100179626
R41000000000500000000000000000000000000000033881454741PD  GOVT OF AP Hyderabad salary    STATE BANK OF INDIA SECRETARIAT    0002610100181038                Shaik Musthafa                     MINORITIES FINANCE COR LTD, AP STA ANDB00000260002610100181038                   URGENT  Shaik Musthafa           0002610100181038
R41000000001000000000000000000000000000000033881454741PD  GOVT OF AP Hyderabad salary    STATE BANK OF INDIA SECRETARIAT    124310100098534                 P Hussainappa                      MINORITIES FINANCE COR LTD, AP STA ANDB0001243124310100098534                    URGENT  P Hussainappa            124310100098534 
R41000000001000000000000000000000000000000033881454741PD  GOVT OF AP Hyderabad salary    STATE BANK OF INDIA SECRETARIAT    109510100102998                 Syed Rafik                         MINORITIES FINANCE COR LTD, AP STA ANDB0001095109510100102998                    URGENT  Syed Rafik               109510100102998 
R41000000001000000000000000000000000000000033881454741PD  GOVT OF AP Hyderabad salary    STATE BANK OF INDIA SECRETARIAT    157810100094857                 Shaik Shaikshavali                 MINORITIES FINANCE COR LTD, AP STA ANDB0001578157810100094857                    URGENT  Shaik Shaikshavali       157810100094857 
R41000000000500000000000000000000000000000033881454741PD  GOVT OF AP Hyderabad salary    STATE BANK OF INDIA SECRETARIAT    91044007134                     Tapal Jelani Bee                   MINORITIES FINANCE COR LTD, AP STA APGB000306591044007134                        URGENT  Tapal Jelani Bee         91044007134     
R41000000000300000000000000000000000000000033881454741PD  GOVT OF AP Hyderabad salary    STATE BANK OF INDIA SECRETARIAT    91044105461                     S.Basir Ahmad                      MINORITIES FINANCE COR LTD, AP STA APGB000306591044105461                        URGENT  S.Basir Ahmad            91044105461     
R41000000000300000000000000000000000000000033881454741PD  GOVT OF AP Hyderabad salary    STATE BANK OF INDIA SECRETARIAT    91044002205                     Shaik Khadar Basha                 MINORITIES FINANCE COR LTD, AP STA APGB000306591044002205                        URGENT  Shaik Khadar Basha       91044002205     
R41000000000250000000000000000000000000000033881454741PD  GOVT OF AP Hyderabad salary    STATE BANK OF INDIA SECRETARIAT    91033685115                     Hakeem Husen Basha                 MINORITIES FINANCE COR LTD, AP STA APGB000314991033685115                        URGENT  Hakeem Husen Basha       91033685115     
R41000000000200000000000000000000000000000033881454741PD  GOVT OF AP Hyderabad salary    STATE BANK OF INDIA SECRETARIAT    19054038715                     Mulla Kaleem                       MINORITIES FINANCE COR LTD, AP STA APGB000314919054038715                        URGENT  Mulla Kaleem             19054038715     
R41000000000300000000000000000000000000000033881454741PD  GOVT OF AP Hyderabad salary    STATE BANK OF INDIA SECRETARIAT    91042094255                     M.Dada Bee                         MINORITIES FINANCE COR LTD, AP STA APGB000313191042094255                        URGENT  M.Dada Bee               91042094255     
R41000000000100000000000000000000000000000033881454741PD  GOVT OF AP Hyderabad salary    STATE BANK OF INDIA SECRETARIAT    19054040565                     Sheku Sheku Basha                  MINORITIES FINANCE COR LTD, AP STA APGB000303419054040565                        URGENT  Sheku Sheku Basha        19054040565     
R41000000000100000000000000000000000000000033881454741PD  GOVT OF AP Hyderabad salary    STATE BANK OF INDIA SECRETARIAT    19054040532                     Shake Yousuf Basha                 MINORITIES FINANCE COR LTD, AP STA APGB000303419054040532                        URGENT  Shake Yousuf Basha       19054040532     
R41000000000500000000000000000000000000000033881454741PD  GOVT OF AP Hyderabad salary    STATE BANK OF INDIA SECRETARIAT    91036250894                     Shaik Abeda                        MINORITIES FINANCE COR LTD, AP STA APGB000300991036250894                        URGENT  Shaik Abeda              91036250894     
R41000000001000000000000000000000000000000033881454741PD  GOVT OF AP Hyderabad salary    STATE BANK OF INDIA SECRETARIAT    91035759482                     Mohammed Mohammed Dada Basha       MINORITIES FINANCE COR LTD, AP STA APGB000300991035759482                        URGENT  Mohammed Mohammed Dada Ba91035759482     
R41000000000100000000000000000000000000000033881454741PD  GOVT OF AP Hyderabad salary    STATE BANK OF INDIA SECRETARIAT    19060618574                     Pinjari Dhasthagiramma             MINORITIES FINANCE COR LTD, AP STA APGB000307519060618574                        URGENT  Pinjari Dhasthagiramma   19060618574     
R41000000000200000000000000000000000000000033881454741PD  GOVT OF AP Hyderabad salary    STATE BANK OF INDIA SECRETARIAT    571610510000183                 Saiyadu Hasena Banu                MINORITIES FINANCE COR LTD, AP STA BKID0005716571610510000183                    URGENT  Saiyadu Hasena Banu      571610510000183 
R41000000000300000000000000000000000000000033881454741PD  GOVT OF AP Hyderabad salary    STATE BANK OF INDIA SECRETARIAT    601127000555                    Syed Abbas Ali                     MINORITIES FINANCE COR LTD, AP STA CNRB0000601601127000555                       URGENT  Syed Abbas Ali           601127000555    
R41000000000390000000000000000000000000000033881454741PD  GOVT OF AP Hyderabad salary    STATE BANK OF INDIA SECRETARIAT    601127000549                    A Chand Basha                      MINORITIES FINANCE COR LTD, AP STA CNRB0000601601127000549                       URGENT  A Chand Basha            601127000549    
R41000000000300000000000000000000000000000033881454741PD  GOVT OF AP Hyderabad salary    STATE BANK OF INDIA SECRETARIAT    601127000557                    Shek Jaffer                        MINORITIES FINANCE COR LTD, AP STA CNRB0000601601127000557                       URGENT  Shek Jaffer              601127000557    
R41000000000300000000000000000000000000000033881454741PD  GOVT OF AP Hyderabad salary    STATE BANK OF INDIA SECRETARIAT    601127000550                    Shaik Allabakash                   MINORITIES FINANCE COR LTD, AP STA CNRB0000601601127000550                       URGENT  Shaik Allabakash         601127000550    
R41000000000300000000000000000000000000000033881454741PD  GOVT OF AP Hyderabad salary    STATE BANK OF INDIA SECRETARIAT    846101010082                    Mulla Farida                       MINORITIES FINANCE COR LTD, AP STA CNRB0000846846101010082                       URGENT  Mulla Farida             846101010082    
R41000000000500000000000000000000000000000033881454741PD  GOVT OF AP Hyderabad salary    STATE BANK OF INDIA SECRETARIAT    846101013771                    Shaik Abu Baker                    MINORITIES FINANCE COR LTD, AP STA CNRB0000846846101013771                       URGENT  Shaik Abu Baker          846101013771    
R41000000000300000000000000000000000000000033881454741PD  GOVT OF AP Hyderabad salary    STATE BANK OF INDIA SECRETARIAT    4178108000664                   M.Alla Bakash                      MINORITIES FINANCE COR LTD, AP STA CNRB00041784178108000664                      URGENT  M.Alla Bakash            4178108000664   
R41000000000300000000000000000000000000000033881454741PD  GOVT OF AP Hyderabad salary    STATE BANK OF INDIA SECRETARIAT    3320797328                      Mohammed Rehana Begam              MINORITIES FINANCE COR LTD, AP STA CBIN02808443320797328                         URGENT  Mohammed Rehana Begam    3320797328      
R41000000000300000000000000000000000000000033881454741PD  GOVT OF AP Hyderabad salary    STATE BANK OF INDIA SECRETARIAT    3320797769                      Chugar Sunar Taher Basha           MINORITIES FINANCE COR LTD, AP STA CBIN02808443320797769                         URGENT  Chugar Sunar Taher Basha 3320797769      
R41000000000300000000000000000000000000000033881454741PD  GOVT OF AP Hyderabad salary    STATE BANK OF INDIA SECRETARIAT    15542011025747                  Shaik Sharifa Bee                  MINORITIES FINANCE COR LTD, AP STA ORBC010155415542011025747                     URGENT  Shaik Sharifa Bee        15542011025747  
R41000000000500000000000000000000000000000033881454741PD  GOVT OF AP Hyderabad salary    STATE BANK OF INDIA SECRETARIAT    62362863645                     Mohammad Kouser Bee                MINORITIES FINANCE COR LTD, AP STA SBHY000214262362863645                        URGENT  Mohammad Kouser Bee      62362863645     
R41000000000300000000000000000000000000000033881454741PD  GOVT OF AP Hyderabad salary    STATE BANK OF INDIA SECRETARIAT    62338735431                     S Farzana                          MINORITIES FINANCE COR LTD, AP STA SBHY002099562338735431                        URGENT  S Farzana                62338735431     
R41000000000300000000000000000000000000000033881454741PD  GOVT OF AP Hyderabad salary    STATE BANK OF INDIA SECRETARIAT    33862210056140                  S.Sayyad Basha                     MINORITIES FINANCE COR LTD, AP STA SYNB000338633862210056140                     URGENT  S.Sayyad Basha           33862210056140  
R41000000000300000000000000000000000000000033881454741PD  GOVT OF AP Hyderabad salary    STATE BANK OF INDIA SECRETARIAT    33922210039348                  Bavusarigari Pakkir Basha          MINORITIES FINANCE COR LTD, AP STA SYNB000339233922210039348                     URGENT  Bavusarigari Pakkir Basha33922210039348  
R41000000000300000000000000000000000000000033881454741PD  GOVT OF AP Hyderabad salary    STATE BANK OF INDIA SECRETARIAT    33922210039218                  Bagani Masumbasha                  MINORITIES FINANCE COR LTD, AP STA SYNB000339233922210039218                     URGENT  Bagani Masumbasha        33922210039218  
R41000000000300000000000000000000000000000033881454741PD  GOVT OF AP Hyderabad salary    STATE BANK OF INDIA SECRETARIAT    33922210042218                  M.Dasthagiri                       MINORITIES FINANCE COR LTD, AP STA SYNB000339233922210042218                     URGENT  M.Dasthagiri             33922210042218  
R41000000000250000000000000000000000000000033881454741PD  GOVT OF AP Hyderabad salary    STATE BANK OF INDIA SECRETARIAT    33812210064810                  Pannegatla Imam Sa                 MINORITIES FINANCE COR LTD, AP STA SYNB000338133812210064810                     URGENT  Pannegatla Imam Sa       33812210064810  
