R41049011100001680 000000004897700000000000000000000000000033881454741PAO GOVT OF AP Hyderabad salary    STATE BANK OF INDIA SECRETARIAT    049011100001680                 Bloom Solutions Pvt Ltd            TECH SERV LTD - AP MANAGING DIRECT ANDB0000490049011100001680                    URGENT  Bloom Solutions Pvt Ltd  049011100001680 
R4162413751152     000000000247500000000000000000000000000033881454741PAO GOVT OF AP Hyderabad salary    STATE BANK OF INDIA SECRETARIAT    62413751152                     Ramavath Deepla                    TECH SERV LTD - AP MANAGING DIRECT  SBHY00207762413751152                        URGENT  Ramavath Deepla          62413751152     
R4162382735234     000000000247500000000000000000000000000033881454741PAO GOVT OF AP Hyderabad salary    STATE BANK OF INDIA SECRETARIAT    62382735234                     Ega Chinna Kumar                   TECH SERV LTD - AP MANAGING DIRECT SBHY002043562382735234                        URGENT  Ega Chinna Kumar         62382735234     
