R410004103000047791000000000156560000000000000000000000000033881454741PAO GOVT OF AP Hyderabad salary    STATE BANK OF INDIA SECRETARIAT    0004103000047791                NSDL e Governance                  TRIBAL WELFARE RESIDENTIAL EDUCATI IBKL00000040004103000047791                   URGENT  NSDL e Governance        0004103000047791
R411057102000003599000000000245000000000000000000000000000033881454741PAO GOVT OF AP Hyderabad salary    STATE BANK OF INDIA SECRETARIAT    1057102000003599                M/s Sri suresh kumar Travels       TRIBAL WELFARE RESIDENTIAL EDUCATI IBKL00010571057102000003599                   URGENT  M/s Sri suresh kumar Trav1057102000003599
R41002001200019205 000000000025360000000000000000000000000033881454741PAO GOVT OF AP Hyderabad salary    STATE BANK OF INDIA SECRETARIAT    002001200019205                 Karthik Mineral Water              TRIBAL WELFARE RESIDENTIAL EDUCATI APMC0000002002001200019205                    URGENT  Karthik Mineral Water    002001200019205 
R4162180766113     000000000012950000000000000000000000000033881454741PAO GOVT OF AP Hyderabad salary    STATE BANK OF INDIA SECRETARIAT    62180766113                     R Lokendran                        TRIBAL WELFARE RESIDENTIAL EDUCATI SBHY002102662180766113                        URGENT  R Lokendran              62180766113     
R4162033888019     000000000057500000000000000000000000000033881454741PAO GOVT OF AP Hyderabad salary    STATE BANK OF INDIA SECRETARIAT    62033888019                     S Lakshman rao                     TRIBAL WELFARE RESIDENTIAL EDUCATI SBHY002102662033888019                        URGENT  S Lakshman rao           62033888019     
R4162033888019     000000000064000000000000000000000000000033881454741PAO GOVT OF AP Hyderabad salary    STATE BANK OF INDIA SECRETARIAT    62033888019                     S Lakshman rao                     TRIBAL WELFARE RESIDENTIAL EDUCATI SBHY002102662033888019                        URGENT  S Lakshman rao           62033888019     
R4162181946129     000000000229620000000000000000000000000033881454741PAO GOVT OF AP Hyderabad salary    STATE BANK OF INDIA SECRETARIAT    62181946129                     RS G  Buttayagudem                 TRIBAL WELFARE RESIDENTIAL EDUCATI SBHY002076962181946129                        URGENT  RS G  Buttayagudem       62181946129     
