R41000000000041600000000000000000000000000033881454741PAO GOVT OF AP Hyderabad salary    STATE BANK OF INDIA SECRETARIAT    230710100009965                 CGIRI                              ZILLA PARISHAD DY CEO CHITTOOR     ANDB0001159ZILLA PARISHAD DY CEO CHITTOOR     URGENT  CGIRI                                                     02784110        EMLdpao-sect@ap.nic.in             
R41000000000159000000000000000000000000000033881454741PAO GOVT OF AP Hyderabad salary    STATE BANK OF INDIA SECRETARIAT    115913100000502                 RAVI AUTO MOBILES CHITTOOR         ZILLA PARISHAD DY CEO CHITTOOR     ANDB0001159ZILLA PARISHAD DY CEO CHITTOOR     URGENT  RAVI AUTO MOBILES CHITTOO                                 02784111        EMLdpao-sect@ap.nic.in             
R41000000000192000000000000000000000000000033881454741PAO GOVT OF AP Hyderabad salary    STATE BANK OF INDIA SECRETARIAT    12064                           VENKATESULUS                       ZILLA PARISHAD DY CEO CHITTOOR     UBIN0535966ZILLA PARISHAD DY CEO CHITTOOR     URGENT  VENKATESULUS                                              02784112        EMLdpao-sect@ap.nic.in             
