R4166102000000570  000000000231090000000000000000000099999999999999999PAO GOVT OF AP Hyderabad salary    STATE BANK OF INDIA SECRETARIAT    66102000000570                  M/s Sri Ramakrishna Ice Factory RS INDUSTRIES COMMISSIONER AND DIRECT IOBA000066166102000000570                     URGENT  M/s Sri Ramakrishna Ice F66102000000570  
R41011713100000122 000000000281250000000000000000000099999999999999999PAO GOVT OF AP Hyderabad salary    STATE BANK OF INDIA SECRETARIAT    011713100000122                 M/s Siddartha Plastics RS No 765/5 INDUSTRIES COMMISSIONER AND DIRECT ANDB0000117011713100000122                    URGENT  M/s Siddartha Plastics RS011713100000122 
R41011713100000122 000000000416250000000000000000000099999999999999999PAO GOVT OF AP Hyderabad salary    STATE BANK OF INDIA SECRETARIAT    011713100000122                 M/s Siddartha Plastics 765/5 KippavINDUSTRIES COMMISSIONER AND DIRECT ANDB0000117011713100000122                    URGENT  M/s Siddartha Plastics 76011713100000122 
R41011713100000131 000000000432930000000000000000000099999999999999999PAO GOVT OF AP Hyderabad salary    STATE BANK OF INDIA SECRETARIAT    011713100000131                 M/s Vikram Polymners Koppavaram RoaINDUSTRIES COMMISSIONER AND DIRECT ANDB0000117011713100000131                    URGENT  M/s Vikram Polymners Kopp011713100000131 
R411408280344      000000000504310000000000000000000099999999999999999PAO GOVT OF AP Hyderabad salary    STATE BANK OF INDIA SECRETARIAT    1408280344                      M/s Sri Sri Krishna Food Products RINDUSTRIES COMMISSIONER AND DIRECT KVBL00014081408280344                         URGENT  M/s Sri Sri Krishna Food 1408280344      
R4162288440384     000000000575800000000000000000000099999999999999999PAO GOVT OF AP Hyderabad salary    STATE BANK OF INDIA SECRETARIAT    62288440384                     M/s V R Handlooms Sy No: 505 NGO CoINDUSTRIES COMMISSIONER AND DIRECT SBHY002090262288440384                        URGENT  M/s V R Handlooms Sy No: 62288440384     
R4131213070004166  000000000581700000000000000000000099999999999999999PAO GOVT OF AP Hyderabad salary    STATE BANK OF INDIA SECRETARIAT    31213070004166                  M/s Nikitha Granites Sy No: 46-B ChINDUSTRIES COMMISSIONER AND DIRECT SYNB000312131213070004166                     URGENT  M/s Nikitha Granites Sy N31213070004166  
R413341174343      000000000617500000000000000000000099999999999999999PAO GOVT OF AP Hyderabad salary    STATE BANK OF INDIA SECRETARIAT    3341174343                      M/s Santhoshimatha Ice Factory PlotINDUSTRIES COMMISSIONER AND DIRECT CBIN02845553341174343                         URGENT  M/s Santhoshimatha Ice Fa3341174343      
R41011713100000177 000000000622970000000000000000000099999999999999999PAO GOVT OF AP Hyderabad salary    STATE BANK OF INDIA SECRETARIAT    011713100000177                 M/s Sri Vijaya lakshmi Poly GraphicINDUSTRIES COMMISSIONER AND DIRECT ANDB0000117011713100000177                    URGENT  M/s Sri Vijaya lakshmi Po011713100000177 
R41066102000000570 000000000730700000000000000000000099999999999999999PAO GOVT OF AP Hyderabad salary    STATE BANK OF INDIA SECRETARIAT    066102000000570                 M/s Sri Ramakrishna Ice Factory 188INDUSTRIES COMMISSIONER AND DIRECT IOBA0000661066102000000570                    URGENT  M/s Sri Ramakrishna Ice F066102000000570 
R41011713100000131 000000000832500000000000000000000099999999999999999PAO GOVT OF AP Hyderabad salary    STATE BANK OF INDIA SECRETARIAT    011713100000131                 M/s Vikram Polymers  Koppavaram RoaINDUSTRIES COMMISSIONER AND DIRECT ANDB0000117011713100000131                    URGENT  M/s Vikram Polymers  Kopp011713100000131 
R417602000100225101000000000864750000000000000000000099999999999999999PAO GOVT OF AP Hyderabad salary    STATE BANK OF INDIA SECRETARIAT    7602000100225101                M/s Sree Surya Ajaneya Granites Sy INDUSTRIES COMMISSIONER AND DIRECT KARB00007607602000100225101                   URGENT  M/s Sree Surya Ajaneya Gr7602000100225101
R411408280344      000000000889000000000000000000000099999999999999999PAO GOVT OF AP Hyderabad salary    STATE BANK OF INDIA SECRETARIAT    1408280344                      M/s Sri Sri  Krishna Food Products INDUSTRIES COMMISSIONER AND DIRECT KVBL00014081408280344                         URGENT  M/s Sri Sri  Krishna Food1408280344      
R41072913100001626 000000000909820000000000000000000099999999999999999PAO GOVT OF AP Hyderabad salary    STATE BANK OF INDIA SECRETARIAT    072913100001626                 M/s Subhodaya Coir Products RS No14INDUSTRIES COMMISSIONER AND DIRECT ANDB0000729072913100001626                    URGENT  M/s Subhodaya Coir Produc072913100001626 
R41000813100001671 000000001005010000000000000000000099999999999999999PAO GOVT OF AP Hyderabad salary    STATE BANK OF INDIA SECRETARIAT    000813100001671                 M/s Sri Ramkumar Pack Tec Industry INDUSTRIES COMMISSIONER AND DIRECT ANDB0000008000813100001671                    URGENT  M/s Sri Ramkumar Pack Tec000813100001671 
R41233902000000066 000000001006820000000000000000000099999999999999999PAO GOVT OF AP Hyderabad salary    STATE BANK OF INDIA SECRETARIAT    233902000000066                 M/s SLNS Expors Sy No: 92/2A BudawaINDUSTRIES COMMISSIONER AND DIRECT IOBA0002339233902000000066                    URGENT  M/s SLNS Expors Sy No: 92233902000000066 
R41011713100000201 000000001078240000000000000000000099999999999999999PAO GOVT OF AP Hyderabad salary    STATE BANK OF INDIA SECRETARIAT    011713100000201                 M/s Vijetha PVC Indsutries 89/3 MadINDUSTRIES COMMISSIONER AND DIRECT ANDB0000117011713100000201                    URGENT  M/s Vijetha PVC Indsutrie011713100000201 
R4131211250000484  000000001141990000000000000000000099999999999999999PAO GOVT OF AP Hyderabad salary    STATE BANK OF INDIA SECRETARIAT    31211250000484                  M/s National Granites Sy No22-6 ChuINDUSTRIES COMMISSIONER AND DIRECT SYNB000312131211250000484                     URGENT  M/s National Granites Sy 31211250000484  
R413179150406      000000001257490000000000000000000099999999999999999PAO GOVT OF AP Hyderabad salary    STATE BANK OF INDIA SECRETARIAT    3179150406                      M/s Bharathamatha Ice Factory Plot INDUSTRIES COMMISSIONER AND DIRECT CBIN02833603179150406                         URGENT  M/s Bharathamatha Ice Fac3179150406      
R41130505002124    000000001323100000000000000000000099999999999999999PAO GOVT OF AP Hyderabad salary    STATE BANK OF INDIA SECRETARIAT    130505002124                    M/s Sree Lalitha  Granites SyNo911-INDUSTRIES COMMISSIONER AND DIRECT ICIC0001305130505002124                       URGENT  M/s Sree Lalitha  Granite130505002124    
R41055211100000955 000000001351800000000000000000000099999999999999999PAO GOVT OF AP Hyderabad salary    STATE BANK OF INDIA SECRETARIAT    055211100000955                 M/s Sree Uday Granites SyNo1255-A 1INDUSTRIES COMMISSIONER AND DIRECT ANDB0000552055211100000955                    URGENT  M/s Sree Uday Granites Sy055211100000955 
R41240102000000089 000000001406350000000000000000000099999999999999999PAO GOVT OF AP Hyderabad salary    STATE BANK OF INDIA SECRETARIAT    240102000000089                 M/s Praneeth Granites Sy No: 240 BuINDUSTRIES COMMISSIONER AND DIRECT IOBA0002401240102000000089                    URGENT  M/s Praneeth Granites Sy 240102000000089 
R4131213070004074  000000001475000000000000000000000099999999999999999PAO GOVT OF AP Hyderabad salary    STATE BANK OF INDIA SECRETARIAT    31213070004074                  M/s Sri Narasaimha Granetis Sy No: INDUSTRIES COMMISSIONER AND DIRECT SYNB000312131213070004074                     URGENT  M/s Sri Narasaimha Granet31213070004074  
R41055213100050835 000000001567880000000000000000000099999999999999999PAO GOVT OF AP Hyderabad salary    STATE BANK OF INDIA SECRETARIAT    055213100050835                 M/s Sree Siddi Vinayaka Granites SyINDUSTRIES COMMISSIONER AND DIRECT ANDB0000552055213100050835                    URGENT  M/s Sree Siddi Vinayaka G055213100050835 
R41240102000000061 000000001572930000000000000000000099999999999999999PAO GOVT OF AP Hyderabad salary    STATE BANK OF INDIA SECRETARIAT    240102000000061                 M/s Sri Siva Raghavendra Granites SINDUSTRIES COMMISSIONER AND DIRECT IOBA0002401240102000000061                    URGENT  M/s Sri Siva Raghavendra 240102000000061 
R4162280229142     000000001574860000000000000000000099999999999999999PAO GOVT OF AP Hyderabad salary    STATE BANK OF INDIA SECRETARIAT    62280229142                     M/s Sri Vishnu Pada Granties Sy No:INDUSTRIES COMMISSIONER AND DIRECT SBHY002048862280229142                        URGENT  M/s Sri Vishnu Pada Grant62280229142     
R41240102000000072 000000001626200000000000000000000099999999999999999PAO GOVT OF AP Hyderabad salary    STATE BANK OF INDIA SECRETARIAT    240102000000072                 M/s Sri Garudadri Exports Sy No: 23INDUSTRIES COMMISSIONER AND DIRECT IOBA0002401240102000000072                    URGENT  M/s Sri Garudadri Exports240102000000072 
R4131213070003670  000000001670000000000000000000000099999999999999999PAO GOVT OF AP Hyderabad salary    STATE BANK OF INDIA SECRETARIAT    31213070003670                  M/s Om Bhairava Granites Sy No16/A INDUSTRIES COMMISSIONER AND DIRECT SYNB000312131213070003670                     URGENT  M/s Om Bhairava Granites 31213070003670  
R4136201010000375  000000001679800000000000000000000099999999999999999PAO GOVT OF AP Hyderabad salary    STATE BANK OF INDIA SECRETARIAT    36201010000375                  M/s VB Coir Products RsNo458/7 KoppINDUSTRIES COMMISSIONER AND DIRECT SYNB000362036201010000375                     URGENT  M/s VB Coir Products RsNo36201010000375  
R4162280533547     000000001715580000000000000000000099999999999999999PAO GOVT OF AP Hyderabad salary    STATE BANK OF INDIA SECRETARIAT    62280533547                     M/s Vamana Granites SyNo 237 BudawaINDUSTRIES COMMISSIONER AND DIRECT SBHY002048862280533547                        URGENT  M/s Vamana Granites SyNo 62280533547     
R4162279494738     000000001723650000000000000000000099999999999999999PAO GOVT OF AP Hyderabad salary    STATE BANK OF INDIA SECRETARIAT    62279494738                     M/s Rohini Exports Sy No: 237 BudawINDUSTRIES COMMISSIONER AND DIRECT SBHY002048862279494738                        URGENT  M/s Rohini Exports Sy No:62279494738     
R4162266926662     000000001744000000000000000000000099999999999999999PAO GOVT OF AP Hyderabad salary    STATE BANK OF INDIA SECRETARIAT    62266926662                     M/s Jaya Lakshmi Granites & ExportsINDUSTRIES COMMISSIONER AND DIRECT SBHY002048862266926662                        URGENT  M/s Jaya Lakshmi Granites62266926662     
R417602000100231560000000001762500000000000000000000099999999999999999PAO GOVT OF AP Hyderabad salary    STATE BANK OF INDIA SECRETARIAT    76020001002315601               M/s Vasantham Granites Sy No4 ChukkINDUSTRIES COMMISSIONER AND DIRECT KARB000076076020001002315601                  URGENT  M/s Vasantham Granites Sy7602000100231560
R41120120000140702 000000001768200000000000000000000099999999999999999PAO GOVT OF AP Hyderabad salary    STATE BANK OF INDIA SECRETARIAT    120120000140702                 M/s KSN Dairy 64/1 Morampudi HukumpINDUSTRIES COMMISSIONER AND DIRECT CIUB0000120120120000140702                    URGENT  M/s KSN Dairy 64/1 Moramp120120000140702 
R413341261000005   000000001794380000000000000000000099999999999999999PAO GOVT OF AP Hyderabad salary    STATE BANK OF INDIA SECRETARIAT    3341261000005                   M/s Sree Ram Granites Sy No288 ChukINDUSTRIES COMMISSIONER AND DIRECT CNRB00033413341261000005                      URGENT  M/s Sree Ram Granites Sy 3341261000005   
R417602000229501   000000001816600000000000000000000099999999999999999PAO GOVT OF AP Hyderabad salary    STATE BANK OF INDIA SECRETARIAT    7602000229501                   M/s Lakshmi Sreerama Granites Sy NoINDUSTRIES COMMISSIONER AND DIRECT KARB00007607602000229501                      URGENT  M/s Lakshmi Sreerama Gran7602000229501   
R4109700400000132  000000001851000000000000000000000099999999999999999PAO GOVT OF AP Hyderabad salary    STATE BANK OF INDIA SECRETARIAT    09700400000132                  M/s Surya Polymers Vatluru (V) PedaINDUSTRIES COMMISSIONER AND DIRECT BARB0ELURUX09700400000132                     URGENT  M/s Surya Polymers Vatlur09700400000132  
R41233902000000235 000000001856250000000000000000000099999999999999999PAO GOVT OF AP Hyderabad salary    STATE BANK OF INDIA SECRETARIAT    233902000000235                 M/s Sri Lakshmi Narasimha Swamy NewINDUSTRIES COMMISSIONER AND DIRECT IOBA0002339233902000000235                    URGENT  M/s Sri Lakshmi Narasimha233902000000235 
R413179150406      000000001860590000000000000000000099999999999999999PAO GOVT OF AP Hyderabad salary    STATE BANK OF INDIA SECRETARIAT    3179150406                      Bharathimatha Ice factory SarpavaraINDUSTRIES COMMISSIONER AND DIRECT CBIN02833603179150406                         URGENT  Bharathimatha Ice factory3179150406      
R4162293681152     000000001894480000000000000000000099999999999999999PAO GOVT OF AP Hyderabad salary    STATE BANK OF INDIA SECRETARIAT    62293681152                     Mcrn Granties  Chimakurthy PrakasamINDUSTRIES COMMISSIONER AND DIRECT SBHY002048862293681152                        URGENT  Mcrn Granties  Chimakurth62293681152     
R41036003261200029 000000002070880000000000000000000099999999999999999PAO GOVT OF AP Hyderabad salary    STATE BANK OF INDIA SECRETARIAT    036003261200029                 SS Granites & Enterprises ChimakurtINDUSTRIES COMMISSIONER AND DIRECT IOBA0000360036003261200029                    URGENT  SS Granites & Enterprises036003261200029 
R417602000100222201000000002105600000000000000000000099999999999999999PAO GOVT OF AP Hyderabad salary    STATE BANK OF INDIA SECRETARIAT    7602000100222201                Sree Lakshmi Panduranga Granites TaINDUSTRIES COMMISSIONER AND DIRECT KARB00007607602000100222201                   URGENT  Sree Lakshmi Panduranga G7602000100222201
R41989157898       000000002162680000000000000000000099999999999999999PAO GOVT OF AP Hyderabad salary    STATE BANK OF INDIA SECRETARIAT    989157898                       Gokul GranitesDiguvamsapalli ChittoINDUSTRIES COMMISSIONER AND DIRECT IDIB000C065989157898                          URGENT  Gokul GranitesDiguvamsapa989157898       
R4131213070003931  000000002202400000000000000000000099999999999999999PAO GOVT OF AP Hyderabad salary    STATE BANK OF INDIA SECRETARIAT    31213070003931                  Sri Lingeswara Granites Tadipatri AINDUSTRIES COMMISSIONER AND DIRECT SYNB000312131213070003931                     URGENT  Sri Lingeswara Granites T31213070003931  
R417602000100229901000000002210000000000000000000000099999999999999999PAO GOVT OF AP Hyderabad salary    STATE BANK OF INDIA SECRETARIAT    7602000100229901                Shakthi Ganapathi Granites TadipatrINDUSTRIES COMMISSIONER AND DIRECT KARB00007607602000100229901                   URGENT  Shakthi Ganapathi Granite7602000100229901
R41124230100000919 000000002299700000000000000000000099999999999999999PAO GOVT OF AP Hyderabad salary    STATE BANK OF INDIA SECRETARIAT    124230100000919                 Sri Rajarajeswari Ice & Cold StoragINDUSTRIES COMMISSIONER AND DIRECT ANDB0001242124230100000919                    URGENT  Sri Rajarajeswari Ice & C124230100000919 
R4131213070004017  000000002350100000000000000000000099999999999999999PAO GOVT OF AP Hyderabad salary    STATE BANK OF INDIA SECRETARIAT    31213070004017                  Sai Charan Granites Tadipatri AnantINDUSTRIES COMMISSIONER AND DIRECT SyNB000312131213070004017                     URGENT  Sai Charan Granites Tadip31213070004017  
R41327044052016    000000002426300000000000000000000099999999999999999PAO GOVT OF AP Hyderabad salary    STATE BANK OF INDIA SECRETARIAT    327044052016                    Pushpavathi Cold Storage Pvt Ltd NaINDUSTRIES COMMISSIONER AND DIRECT VYSA0003270327044052016                       URGENT  Pushpavathi Cold Storage 327044052016    
R416231140932      000000002499490000000000000000000099999999999999999PAO GOVT OF AP Hyderabad salary    STATE BANK OF INDIA SECRETARIAT    6231140932                      Symbosis Animal Feeds Peddapuram EGINDUSTRIES COMMISSIONER AND DIRECT SBHY00210466231140932                         URGENT  Symbosis Animal Feeds Ped6231140932      
R41038030100042094 000000002506920000000000000000000099999999999999999PAO GOVT OF AP Hyderabad salary    STATE BANK OF INDIA SECRETARIAT    038030100042094                 TVK Granites  Narasannapeta SrikakuINDUSTRIES COMMISSIONER AND DIRECT ANDB0000380038030100042094                    URGENT  TVK Granites  Narasannape038030100042094 
R41260402000000061 000000002512500000000000000000000099999999999999999PAO GOVT OF AP Hyderabad salary    STATE BANK OF INDIA SECRETARIAT    260402000000061                 Dhana Lakshmi Ice FactorySarpavaramINDUSTRIES COMMISSIONER AND DIRECT IOBA0002604260402000000061                    URGENT  Dhana Lakshmi Ice Factory260402000000061 
R417602000100224601000000002565300000000000000000000099999999999999999PAO GOVT OF AP Hyderabad salary    STATE BANK OF INDIA SECRETARIAT    7602000100224601                Vazradeep Granites Tadipatri AnanthINDUSTRIES COMMISSIONER AND DIRECT KARB00007607602000100224601                   URGENT  Vazradeep Granites Tadipa7602000100224601
R413121400000050   000000002639900000000000000000000099999999999999999PAO GOVT OF AP Hyderabad salary    STATE BANK OF INDIA SECRETARIAT    3121400000050                   Sree Kundana Granites Tadipatri AnaINDUSTRIES COMMISSIONER AND DIRECT SYNB00031213121400000050                      URGENT  Sree Kundana Granites Tad3121400000050   
R41120120000140702 000000002659300000000000000000000099999999999999999PAO GOVT OF AP Hyderabad salary    STATE BANK OF INDIA SECRETARIAT    120120000140702                 KSNDairy Rajahmundry Rural EG DistrINDUSTRIES COMMISSIONER AND DIRECT CIUB0000120120120000140702                    URGENT  KSNDairy Rajahmundry Rura120120000140702 
R41233902000000240 000000003161440000000000000000000099999999999999999PAO GOVT OF AP Hyderabad salary    STATE BANK OF INDIA SECRETARIAT    233902000000240                 SLNS Granites Chimakurthy Prakasam INDUSTRIES COMMISSIONER AND DIRECT IOBA0002339233902000000240                    URGENT  SLNS Granites Chimakurthy233902000000240 
R41055211100001352 000000003236600000000000000000000099999999999999999PAO GOVT OF AP Hyderabad salary    STATE BANK OF INDIA SECRETARIAT    055211100001352                 A J Granites Tadipatri Ananthapur DINDUSTRIES COMMISSIONER AND DIRECT ANDB0000552055211100001352                    URGENT  A J Granites Tadipatri An055211100001352 
R41055213100050668 000000003407750000000000000000000099999999999999999PAO GOVT OF AP Hyderabad salary    STATE BANK OF INDIA SECRETARIAT    055213100050668                 Sri Kanth Granites Tadipatri AnathaINDUSTRIES COMMISSIONER AND DIRECT ANDB0000552055213100050668                    URGENT  Sri Kanth Granites Tadipa055213100050668 
R4131213070003758  000000003467750000000000000000000099999999999999999PAO GOVT OF AP Hyderabad salary    STATE BANK OF INDIA SECRETARIAT    31213070003758                  Lekhasree Granites Tadipatri AnathaINDUSTRIES COMMISSIONER AND DIRECT SYNB000312131213070003758                     URGENT  Lekhasree Granites Tadipa31213070003758  
R417912000100217601000000003504120000000000000000000099999999999999999PAO GOVT OF AP Hyderabad salary    STATE BANK OF INDIA SECRETARIAT    7912000100217601                Sri Sai Bhanu Castings Vijayawada RINDUSTRIES COMMISSIONER AND DIRECT KARB00007917912000100217601                   URGENT  Sri Sai Bhanu Castings Vi7912000100217601
R411408135000002103000000003571870000000000000000000099999999999999999PAO GOVT OF AP Hyderabad salary    STATE BANK OF INDIA SECRETARIAT    1408135000002103                Surya Rubber Industries RajanagaramINDUSTRIES COMMISSIONER AND DIRECT KVBL00014081408135000002103                   URGENT  Surya Rubber Industries R1408135000002103
R4116720500001591  000000003659190000000000000000000099999999999999999PAO GOVT OF AP Hyderabad salary    STATE BANK OF INDIA SECRETARIAT    16720500001591                  Kamakshi Roll Form Industries RajvoINDUSTRIES COMMISSIONER AND DIRECT BARB0HUKUMP16720500001591                     URGENT  Kamakshi Roll Form Indust16720500001591  
R41002602000002547 000000003716100000000000000000000099999999999999999PAO GOVT OF AP Hyderabad salary    STATE BANK OF INDIA SECRETARIAT    002602000002547                 Aryan Ice Factory Unguturu West GodINDUSTRIES COMMISSIONER AND DIRECT IOBA0000026002602000002547                    URGENT  Aryan Ice Factory Ungutur002602000002547 
R416096624446      000000003735000000000000000000000099999999999999999PAO GOVT OF AP Hyderabad salary    STATE BANK OF INDIA SECRETARIAT    6096624446                      KARR Ice & Cold Storage Unguturu WeINDUSTRIES COMMISSIONER AND DIRECT IDIB000E0066096624446                         URGENT  KARR Ice & Cold Storage U6096624446      
R41015300401120001 000000003787710000000000000000000099999999999999999PAO GOVT OF AP Hyderabad salary    STATE BANK OF INDIA SECRETARIAT    015300401120001                 Siva Krishna Egg Pack Rangampeta EGINDUSTRIES COMMISSIONER AND DIRECT CORP0000153015300401120001                    URGENT  Siva Krishna Egg Pack Ran015300401120001 
R411438223000000415000000003993750000000000000000000099999999999999999PAO GOVT OF AP Hyderabad salary    STATE BANK OF INDIA SECRETARIAT    1438223000000415                Varalakshmi Polymers Vatluru PedapaINDUSTRIES COMMISSIONER AND DIRECT KVBL00014381438223000000415                   URGENT  Varalakshmi Polymers Vatl1438223000000415
R41010013100000131 000000004184170000000000000000000099999999999999999PAO GOVT OF AP Hyderabad salary    STATE BANK OF INDIA SECRETARIAT    010013100000131                 Veeraaya Techno Plast Pvt Ltd  KolaINDUSTRIES COMMISSIONER AND DIRECT ANDB0000100010013100000131                    URGENT  Veeraaya Techno Plast Pvt010013100000131 
R413070294495      000000004591600000000000000000000099999999999999999PAO GOVT OF AP Hyderabad salary    STATE BANK OF INDIA SECRETARIAT    3070294495                      Lakshmi Samanvitha Polymers UnguturINDUSTRIES COMMISSIONER AND DIRECT CBIN02838123070294495                         URGENT  Lakshmi Samanvitha Polyme3070294495      
R416096624446      000000004664870000000000000000000099999999999999999PAO GOVT OF AP Hyderabad salary    STATE BANK OF INDIA SECRETARIAT    6096624446                      KAAR Ice & Cold Storage Ungutur WG INDUSTRIES COMMISSIONER AND DIRECT IDIB000E0066096624446                         URGENT  KAAR Ice & Cold Storage U6096624446      
R41970880705       000000004838200000000000000000000099999999999999999PAO GOVT OF AP Hyderabad salary    STATE BANK OF INDIA SECRETARIAT    970880705                       Bala Balaji Agro Industries West GoINDUSTRIES COMMISSIONER AND DIRECT IDIB000T006970880705                          URGENT  Bala Balaji Agro Industri970880705       
R4162105697591     000000005367900000000000000000000099999999999999999PAO GOVT OF AP Hyderabad salary    STATE BANK OF INDIA SECRETARIAT    62105697591                     Vasu Cold Storage Nandigama KrishnaINDUSTRIES COMMISSIONER AND DIRECT SBHY002017062105697591                        URGENT  Vasu Cold Storage Nandiga62105697591     
R41191102000050777 000000005942400000000000000000000099999999999999999PAO GOVT OF AP Hyderabad salary    STATE BANK OF INDIA SECRETARIAT    191102000050777                 Arnav Polymers Ungutur West GodavarINDUSTRIES COMMISSIONER AND DIRECT IOBA0001911191102000050777                    URGENT  Arnav Polymers Ungutur We191102000050777 
R4162105697591     000000006283300000000000000000000099999999999999999PAO GOVT OF AP Hyderabad salary    STATE BANK OF INDIA SECRETARIAT    62105697591                     Vasu Cold Storage Nandigama KrishnaINDUSTRIES COMMISSIONER AND DIRECT SBHY002017062105697591                        URGENT  Vasu Cold Storage Nandiga62105697591     
R4132511010000106  000000006341560000000000000000000099999999999999999PAO GOVT OF AP Hyderabad salary    STATE BANK OF INDIA SECRETARIAT    32511010000106                  Sri Venkata Satya Surya Pipe IndustINDUSTRIES COMMISSIONER AND DIRECT SYNB000325132511010000106                     URGENT  Sri Venkata Satya Surya P32511010000106  
R410777201002103   000000006372100000000000000000000099999999999999999PAO GOVT OF AP Hyderabad salary    STATE BANK OF INDIA SECRETARIAT    0777201002103                   Virat PolymersNidamaru West GodavarINDUSTRIES COMMISSIONER AND DIRECT CNRB00007770777201002103                      URGENT  Virat PolymersNidamaru We0777201002103   
R41001411100000292 000000007497300000000000000000000099999999999999999PAO GOVT OF AP Hyderabad salary    STATE BANK OF INDIA SECRETARIAT    001411100000292                 Satya Bhaskara Poultry Feed MandapeINDUSTRIES COMMISSIONER AND DIRECT  ANDB000014001411100000292                    URGENT  Satya Bhaskara Poultry Fe001411100000292 
R41911030040519108 000000007866920000000000000000000099999999999999999PAO GOVT OF AP Hyderabad salary    STATE BANK OF INDIA SECRETARIAT    911030040519108                 Santhoshimatha Paper Products SarpaINDUSTRIES COMMISSIONER AND DIRECT UTIB0000075911030040519108                    URGENT  Santhoshimatha Paper Prod911030040519108 
R41025711100001370 000000009113700000000000000000000099999999999999999PAO GOVT OF AP Hyderabad salary    STATE BANK OF INDIA SECRETARIAT    025711100001370                 CKS Pharma Labs Private  Limited JaINDUSTRIES COMMISSIONER AND DIRECT ANDB0000257025711100001370                    URGENT  CKS Pharma Labs Private  025711100001370 
R41038511100001130 000000009188800000000000000000000099999999999999999PAO GOVT OF AP Hyderabad salary    STATE BANK OF INDIA SECRETARIAT    038511100001130                 Sri Vijaya Lakshmi Regd PVC Pipes AINDUSTRIES COMMISSIONER AND DIRECT ANDB0000385038511100001130                    URGENT  Sri Vijaya Lakshmi Regd P038511100001130 
R4162231955059     000000009746600000000000000000000099999999999999999PAO GOVT OF AP Hyderabad salary    STATE BANK OF INDIA SECRETARIAT    62231955059                     Bella Green Wood Plastic CompositesINDUSTRIES COMMISSIONER AND DIRECT SBHY002033962231955059                        URGENT  Bella Green Wood Plastic 62231955059     
R4136403070001829  000000010283470000000000000000000099999999999999999PAO GOVT OF AP Hyderabad salary    STATE BANK OF INDIA SECRETARIAT    36403070001829                  Asian Cellulose Private Limited GunINDUSTRIES COMMISSIONER AND DIRECT SYNB000364036403070001829                     URGENT  Asian Cellulose Private L36403070001829  
R41956874405       000000011998100000000000000000000099999999999999999PAO GOVT OF AP Hyderabad salary    STATE BANK OF INDIA SECRETARIAT    956874405                       Andhra Medi Pharma India Pvt Ltd BaINDUSTRIES COMMISSIONER AND DIRECT IDIB000G015956874405                          URGENT  Andhra Medi Pharma India 956874405       
R41012202000001666 000000014798700000000000000000000099999999999999999PAO GOVT OF AP Hyderabad salary    STATE BANK OF INDIA SECRETARIAT    012202000001666                 Yerra Spinners Private Limited DendINDUSTRIES COMMISSIONER AND DIRECT IOBA0000122012202000001666                    URGENT  Yerra Spinners Private Li012202000001666 
R410777201002045   000000014852380000000000000000000099999999999999999PAO GOVT OF AP Hyderabad salary    STATE BANK OF INDIA SECRETARIAT    0777201002045                   Ananda Enterprises Pvt Ltd BheemavaINDUSTRIES COMMISSIONER AND DIRECT CNRB00007770777201002045                      URGENT  Ananda Enterprises Pvt Lt0777201002045   
R41001313100031007 000000021116600000000000000000000099999999999999999PAO GOVT OF AP Hyderabad salary    STATE BANK OF INDIA SECRETARIAT    001313100031007                 Jalabindu Irrigation System Pvt LtdINDUSTRIES COMMISSIONER AND DIRECT ANDB0000013001313100031007                    URGENT  Jalabindu Irrigation Syst001313100031007 
R41125602000000450 000000034394800000000000000000000099999999999999999PAO GOVT OF AP Hyderabad salary    STATE BANK OF INDIA SECRETARIAT    125602000000450                 Sai Lakshmi Venkateswara Solvent ExINDUSTRIES COMMISSIONER AND DIRECT IOBA0001256125602000000450                    URGENT  Sai Lakshmi Venkateswara 125602000000450 
R41508306390000018 000000075035950000000000000000000099999999999999999PAO GOVT OF AP Hyderabad salary    STATE BANK OF INDIA SECRETARIAT    508306390000018                 SVR Drugs Pvt Ltd Parawada VisakhapINDUSTRIES COMMISSIONER AND DIRECT UBIN0550833508306390000018                    URGENT  SVR Drugs Pvt Ltd Parawad508306390000018 
