R41000000007857060000000000000000000000000033881454741PAO GOVT OF AP Hyderabad salary    STATE BANK OF INDIA SECRETARIAT    62240631576                     Executive Engineer RWS & S Paderu  RURAL WATER SUPPLY & SANITATION PR SBHY002028262240631576                        URGENT  Executive Engineer RWS & 62240631576     
R41000000030000000000000000000000000000000033881454741PAO GOVT OF AP Hyderabad salary    STATE BANK OF INDIA SECRETARIAT    62239776300                     Executive Engineer RWS & S Podili  RURAL WATER SUPPLY & SANITATION PR SBHY002120562239776300                        URGENT  Executive Engineer RWS & 62239776300     
R41000000011800000000000000000000000000000033881454741PAO GOVT OF AP Hyderabad salary    STATE BANK OF INDIA SECRETARIAT    62238092195                     Project Manager of DPSU Pakasam    RURAL WATER SUPPLY & SANITATION PR SBHY002077362238092195                        URGENT  Project Manager of DPSU P62238092195     
R41000000015989330000000000000000000000000033881454741PAO GOVT OF AP Hyderabad salary    STATE BANK OF INDIA SECRETARIAT    62238711683                     Project Manager of DPSU YSR Kadapa RURAL WATER SUPPLY & SANITATION PR SBHY002106762238711683                        URGENT  Project Manager of DPSU Y62238711683     
