R41000000000300000000000000000000000000000033881454741PD  GOVT OF AP Hyderabad salary    STATE BANK OF INDIA SECRETARIAT    072410100080395                 Chandaka Simhachalam               BC COOP FIN CORP LTD - AP V.C      ANDB0000724072410100080395                    URGENT  Chandaka Simhachalam                                      072410100080395 EMLdpao-sect@ap.nic.in             
R41000000000250000000000000000000000000000033881454741PD  GOVT OF AP Hyderabad salary    STATE BANK OF INDIA SECRETARIAT    069910100025662                 Koppisetti Balamuralikrishna       BC COOP FIN CORP LTD - AP V.C      ANDB0000699069910100025662                    URGENT  Koppisetti Balamuralikris                                 069910100025662 EMLdpao-sect@ap.nic.in             
R41000000000300000000000000000000000000000033881454741PD  GOVT OF AP Hyderabad salary    STATE BANK OF INDIA SECRETARIAT    069910100025079                 Koppisetti Eswara Rao              BC COOP FIN CORP LTD - AP V.C      ANDB0000699069910100025079                    URGENT  Koppisetti Eswara Rao                                     069910100025079 EMLdpao-sect@ap.nic.in             
R41000000000250000000000000000000000000000033881454741PD  GOVT OF AP Hyderabad salary    STATE BANK OF INDIA SECRETARIAT    069910100025723                 Vasamsetti Bhaskaramurthy          BC COOP FIN CORP LTD - AP V.C      ANDB0000699069910100025723                    URGENT  Vasamsetti Bhaskaramurthy                                 069910100025723 EMLdpao-sect@ap.nic.in             
R41000000000250000000000000000000000000000033881454741PD  GOVT OF AP Hyderabad salary    STATE BANK OF INDIA SECRETARIAT    069910100025699                 Koppisetti Durgabhavani            BC COOP FIN CORP LTD - AP V.C      ANDB0000699069910100025699                    URGENT  Koppisetti Durgabhavani                                   069910100025699 EMLdpao-sect@ap.nic.in             
R41000000000250000000000000000000000000000033881454741PD  GOVT OF AP Hyderabad salary    STATE BANK OF INDIA SECRETARIAT    069910100025705                 Vasamsetti Durga Bhavani           BC COOP FIN CORP LTD - AP V.C      ANDB0000699069910100025705                    URGENT  Vasamsetti Durga Bhavani                                  069910100025705 EMLdpao-sect@ap.nic.in             
R41000000000300000000000000000000000000000033881454741PD  GOVT OF AP Hyderabad salary    STATE BANK OF INDIA SECRETARIAT    069910100025103                 Korasika Padmavathi                BC COOP FIN CORP LTD - AP V.C      ANDB0000699069910100025103                    URGENT  Korasika Padmavathi                                       069910100025103 EMLdpao-sect@ap.nic.in             
R41000000000300000000000000000000000000000033881454741PD  GOVT OF AP Hyderabad salary    STATE BANK OF INDIA SECRETARIAT    069910100025431                 Kudupudi Srinivasarao              BC COOP FIN CORP LTD - AP V.C      ANDB0000699069910100025431                    URGENT  Kudupudi Srinivasarao                                     069910100025431 EMLdpao-sect@ap.nic.in             
R41000000000250000000000000000000000000000033881454741PD  GOVT OF AP Hyderabad salary    STATE BANK OF INDIA SECRETARIAT    069910100025714                 Ganta Venkateswara Rao             BC COOP FIN CORP LTD - AP V.C      ANDB0000699069910100025714                    URGENT  Ganta Venkateswara Rao                                    069910100025714 EMLdpao-sect@ap.nic.in             
R41000000000300000000000000000000000000000033881454741PD  GOVT OF AP Hyderabad salary    STATE BANK OF INDIA SECRETARIAT    069910100024821                 Kamuju Rupavani                    BC COOP FIN CORP LTD - AP V.C      ANDB0000699069910100024821                    URGENT  Kamuju Rupavani                                           069910100024821 EMLdpao-sect@ap.nic.in             
R41000000000250000000000000000000000000000033881454741PD  GOVT OF AP Hyderabad salary    STATE BANK OF INDIA SECRETARIAT    069910100025422                 Yanamadala Janiki                  BC COOP FIN CORP LTD - AP V.C      ANDB0000699069910100025422                    URGENT  Yanamadala Janiki                                         069910100025422 EMLdpao-sect@ap.nic.in             
R41000000000250000000000000000000000000000033881454741PD  GOVT OF AP Hyderabad salary    STATE BANK OF INDIA SECRETARIAT    069910100025051                 Yanamadala Satyanarayana           BC COOP FIN CORP LTD - AP V.C      ANDB0000699069910100025051                    URGENT  Yanamadala Satyanarayana                                  069910100025051 EMLdpao-sect@ap.nic.in             
R41000000000250000000000000000000000000000033881454741PD  GOVT OF AP Hyderabad salary    STATE BANK OF INDIA SECRETARIAT    069910100025361                 Veligatla Srinivasa Rao            BC COOP FIN CORP LTD - AP V.C      ANDB0000699069910100025361                    URGENT  Veligatla Srinivasa Rao                                   069910100025361 EMLdpao-sect@ap.nic.in             
R41000000000250000000000000000000000000000033881454741PD  GOVT OF AP Hyderabad salary    STATE BANK OF INDIA SECRETARIAT    069910100025538                 Koppisetti Durga Lakshmi           BC COOP FIN CORP LTD - AP V.C      ANDB0000699069910100025538                    URGENT  Koppisetti Durga Lakshmi                                  069910100025538 EMLdpao-sect@ap.nic.in             
R41000000000250000000000000000000000000000033881454741PD  GOVT OF AP Hyderabad salary    STATE BANK OF INDIA SECRETARIAT    069910100025592                 Kadali Kanakamahalakshmi           BC COOP FIN CORP LTD - AP V.C      ANDB0000699069910100025592                    URGENT  Kadali Kanakamahalakshmi                                  069910100025592 EMLdpao-sect@ap.nic.in             
R41000000000250000000000000000000000000000033881454741PD  GOVT OF AP Hyderabad salary    STATE BANK OF INDIA SECRETARIAT    069910100025273                 Chappidi Laxmana Rao               BC COOP FIN CORP LTD - AP V.C      ANDB0000699069910100025273                    URGENT  Chappidi Laxmana Rao                                      069910100025273 EMLdpao-sect@ap.nic.in             
R41000000000250000000000000000000000000000033881454741PD  GOVT OF AP Hyderabad salary    STATE BANK OF INDIA SECRETARIAT    069910100025042                 Vittanala Laxmidurga               BC COOP FIN CORP LTD - AP V.C      ANDB0000699069910100025042                    URGENT  Vittanala Laxmidurga                                      069910100025042 EMLdpao-sect@ap.nic.in             
R41000000000250000000000000000000000000000033881454741PD  GOVT OF AP Hyderabad salary    STATE BANK OF INDIA SECRETARIAT    069910100025343                 Bokka Lakshmi Devi                 BC COOP FIN CORP LTD - AP V.C      ANDB0000699069910100025343                    URGENT  Bokka Lakshmi Devi                                        069910100025343 EMLdpao-sect@ap.nic.in             
R41000000000300000000000000000000000000000033881454741PD  GOVT OF AP Hyderabad salary    STATE BANK OF INDIA SECRETARIAT    071810100046364                 Tamada Mohan                       BC COOP FIN CORP LTD - AP V.C      ANDB0000718071810100046364                    URGENT  Tamada Mohan                                              071810100046364 EMLdpao-sect@ap.nic.in             
R41000000000250000000000000000000000000000033881454741PD  GOVT OF AP Hyderabad salary    STATE BANK OF INDIA SECRETARIAT    071810100043761                 Koda Papa Rao                      BC COOP FIN CORP LTD - AP V.C      ANDB0000718071810100043761                    URGENT  Koda Papa Rao                                             071810100043761 EMLdpao-sect@ap.nic.in             
R41000000000300000000000000000000000000000033881454741PD  GOVT OF AP Hyderabad salary    STATE BANK OF INDIA SECRETARIAT    071810100046346                 Koda Sridhar Rao                   BC COOP FIN CORP LTD - AP V.C      ANDB0000718071810100046346                    URGENT  Koda Sridhar Rao                                          071810100046346 EMLdpao-sect@ap.nic.in             
R41000000000300000000000000000000000000000033881454741PD  GOVT OF AP Hyderabad salary    STATE BANK OF INDIA SECRETARIAT    071810100046106                 Dunna Ramesh Kumar                 BC COOP FIN CORP LTD - AP V.C      ANDB0000718071810100046106                    URGENT  Dunna Ramesh Kumar                                        071810100046106 EMLdpao-sect@ap.nic.in             
R41000000000300000000000000000000000000000033881454741PD  GOVT OF AP Hyderabad salary    STATE BANK OF INDIA SECRETARIAT    071810100046300                 Maddu Sudheer                      BC COOP FIN CORP LTD - AP V.C      ANDB0000718071810100046300                    URGENT  Maddu Sudheer                                             071810100046300 EMLdpao-sect@ap.nic.in             
R41000000000300000000000000000000000000000033881454741PD  GOVT OF AP Hyderabad salary    STATE BANK OF INDIA SECRETARIAT    071810100046063                 Guda Bhaskararao                   BC COOP FIN CORP LTD - AP V.C      ANDB0000718071810100046063                    URGENT  Guda Bhaskararao                                          071810100046063 EMLdpao-sect@ap.nic.in             
R41000000000300000000000000000000000000000033881454741PD  GOVT OF AP Hyderabad salary    STATE BANK OF INDIA SECRETARIAT    071810100046054                 Dasari Kasamma                     BC COOP FIN CORP LTD - AP V.C      ANDB0000718071810100046054                    URGENT  Dasari Kasamma                                            071810100046054 EMLdpao-sect@ap.nic.in             
R41000000000250000000000000000000000000000033881454741PD  GOVT OF AP Hyderabad salary    STATE BANK OF INDIA SECRETARIAT    071810100046373                 Koda Someswara Rao                 BC COOP FIN CORP LTD - AP V.C      ANDB0000718071810100046373                    URGENT  Koda Someswara Rao                                        071810100046373 EMLdpao-sect@ap.nic.in             
R41000000000300000000000000000000000000000033881454741PD  GOVT OF AP Hyderabad salary    STATE BANK OF INDIA SECRETARIAT    071810100041721                 Rapaka Suseela                     BC COOP FIN CORP LTD - AP V.C      ANDB0000718071810100041721                    URGENT  Rapaka Suseela                                            071810100041721 EMLdpao-sect@ap.nic.in             
R41000000000250000000000000000000000000000033881454741PD  GOVT OF AP Hyderabad salary    STATE BANK OF INDIA SECRETARIAT    071810100041493                 Gunti Jyothi                       BC COOP FIN CORP LTD - AP V.C      ANDB0000718071810100041493                    URGENT  Gunti Jyothi                                              071810100041493 EMLdpao-sect@ap.nic.in             
R41000000000250000000000000000000000000000033881454741PD  GOVT OF AP Hyderabad salary    STATE BANK OF INDIA SECRETARIAT    071810100047062                 Maddu Savitri                      BC COOP FIN CORP LTD - AP V.C      ANDB0000718071810100047062                    URGENT  Maddu Savitri                                             071810100047062 EMLdpao-sect@ap.nic.in             
R41000000000300000000000000000000000000000033881454741PD  GOVT OF AP Hyderabad salary    STATE BANK OF INDIA SECRETARIAT    071810100046285                 Roja                               BC COOP FIN CORP LTD - AP V.C      ANDB0000718071810100046285                    URGENT  Roja                                                      071810100046285 EMLdpao-sect@ap.nic.in             
R41000000000300000000000000000000000000000033881454741PD  GOVT OF AP Hyderabad salary    STATE BANK OF INDIA SECRETARIAT    071810100046337                 Sathupalli Sridevi                 BC COOP FIN CORP LTD - AP V.C      ANDB0000718071810100046337                    URGENT  Sathupalli Sridevi                                        071810100046337 EMLdpao-sect@ap.nic.in             
R41000000000300000000000000000000000000000033881454741PD  GOVT OF AP Hyderabad salary    STATE BANK OF INDIA SECRETARIAT    071810100046072                 Dhiraj                             BC COOP FIN CORP LTD - AP V.C      ANDB0000718071810100046072                    URGENT  Dhiraj                                                    071810100046072 EMLdpao-sect@ap.nic.in             
R41000000000300000000000000000000000000000033881454741PD  GOVT OF AP Hyderabad salary    STATE BANK OF INDIA SECRETARIAT    071810100046090                 Tamada Rameshkumar                 BC COOP FIN CORP LTD - AP V.C      ANDB0000718071810100046090                    URGENT  Tamada Rameshkumar                                        071810100046090 EMLdpao-sect@ap.nic.in             
R41000000000250000000000000000000000000000033881454741PD  GOVT OF AP Hyderabad salary    STATE BANK OF INDIA SECRETARIAT    071810100047099                 Gandupalli Usharani                BC COOP FIN CORP LTD - AP V.C      ANDB0000718071810100047099                    URGENT  Gandupalli Usharani                                       071810100047099 EMLdpao-sect@ap.nic.in             
R41000000000300000000000000000000000000000033881454741PD  GOVT OF AP Hyderabad salary    STATE BANK OF INDIA SECRETARIAT    071810100046674                 Rayala Lelavati                    BC COOP FIN CORP LTD - AP V.C      ANDB0000718071810100046674                    URGENT  Rayala Lelavati                                           071810100046674 EMLdpao-sect@ap.nic.in             
R41000000000250000000000000000000000000000033881454741PD  GOVT OF AP Hyderabad salary    STATE BANK OF INDIA SECRETARIAT    071810100047071                 Pukkalla Renuka                    BC COOP FIN CORP LTD - AP V.C      ANDB0000718071810100047071                    URGENT  Pukkalla Renuka                                           071810100047071 EMLdpao-sect@ap.nic.in             
R41000000000250000000000000000000000000000033881454741PD  GOVT OF AP Hyderabad salary    STATE BANK OF INDIA SECRETARIAT    071810100046081                 Korlapu Vaikuntarao                BC COOP FIN CORP LTD - AP V.C      ANDB0000718071810100046081                    URGENT  Korlapu Vaikuntarao                                       071810100046081 EMLdpao-sect@ap.nic.in             
R41000000000250000000000000000000000000000033881454741PD  GOVT OF AP Hyderabad salary    STATE BANK OF INDIA SECRETARIAT    071810100046276                 Konari Nirmala                     BC COOP FIN CORP LTD - AP V.C      ANDB0000718071810100046276                    URGENT  Konari Nirmala                                            071810100046276 EMLdpao-sect@ap.nic.in             
R41000000000300000000000000000000000000000033881454741PD  GOVT OF AP Hyderabad salary    STATE BANK OF INDIA SECRETARIAT    071810100046115                 Yampalla Sujatha                   BC COOP FIN CORP LTD - AP V.C      ANDB0000718071810100046115                    URGENT  Yampalla Sujatha                                          071810100046115 EMLdpao-sect@ap.nic.in             
R41000000000250000000000000000000000000000033881454741PD  GOVT OF AP Hyderabad salary    STATE BANK OF INDIA SECRETARIAT    071810100047080                 Maddu Jyothi                       BC COOP FIN CORP LTD - AP V.C      ANDB0000718071810100047080                    URGENT  Maddu Jyothi                                              071810100047080 EMLdpao-sect@ap.nic.in             
R41000000000300000000000000000000000000000033881454741PD  GOVT OF AP Hyderabad salary    STATE BANK OF INDIA SECRETARIAT    054610100050181                 Banna Suryanarayana                BC COOP FIN CORP LTD - AP V.C      ANDB0000546054610100050181                    URGENT  Banna Suryanarayana                                       054610100050181 EMLdpao-sect@ap.nic.in             
R41000000000250000000000000000000000000000033881454741PD  GOVT OF AP Hyderabad salary    STATE BANK OF INDIA SECRETARIAT    054610100045523                 Narsipuram Suneetha                BC COOP FIN CORP LTD - AP V.C      ANDB0000546054610100045523                    URGENT  Narsipuram Suneetha                                       054610100045523 EMLdpao-sect@ap.nic.in             
R41000000000300000000000000000000000000000033881454741PD  GOVT OF AP Hyderabad salary    STATE BANK OF INDIA SECRETARIAT    054610100045514                 Dasumahanti Vani                   BC COOP FIN CORP LTD - AP V.C      ANDB0000546054610100045514                    URGENT  Dasumahanti Vani                                          054610100045514 EMLdpao-sect@ap.nic.in             
R41000000000300000000000000000000000000000033881454741PD  GOVT OF AP Hyderabad salary    STATE BANK OF INDIA SECRETARIAT    054610100045736                 Muddada Niramala                   BC COOP FIN CORP LTD - AP V.C      ANDB0000546054610100045736                    URGENT  Muddada Niramala                                          054610100045736 EMLdpao-sect@ap.nic.in             
R41000000000300000000000000000000000000000033881454741PD  GOVT OF AP Hyderabad salary    STATE BANK OF INDIA SECRETARIAT    094710100064485                 Panga Jagannadarao                 BC COOP FIN CORP LTD - AP V.C      ANDB0000947094710100064485                    URGENT  Panga Jagannadarao                                        094710100064485 EMLdpao-sect@ap.nic.in             
R41000000000250000000000000000000000000000033881454741PD  GOVT OF AP Hyderabad salary    STATE BANK OF INDIA SECRETARIAT    094710100056705                 Nara Laxmana                       BC COOP FIN CORP LTD - AP V.C      ANDB0000947094710100056705                    URGENT  Nara Laxmana                                              094710100056705 EMLdpao-sect@ap.nic.in             
R41000000000250000000000000000000000000000033881454741PD  GOVT OF AP Hyderabad salary    STATE BANK OF INDIA SECRETARIAT    094710100048469                 Guntamukkala Srinivasa Rao         BC COOP FIN CORP LTD - AP V.C      ANDB0000947094710100048469                    URGENT  Guntamukkala Srinivasa Ra                                 094710100048469 EMLdpao-sect@ap.nic.in             
R41000000000250000000000000000000000000000033881454741PD  GOVT OF AP Hyderabad salary    STATE BANK OF INDIA SECRETARIAT    094710100057883                 Ponnana Hariprasadrao              BC COOP FIN CORP LTD - AP V.C      ANDB0000947094710100057883                    URGENT  Ponnana Hariprasadrao                                     094710100057883 EMLdpao-sect@ap.nic.in             
R41000000000250000000000000000000000000000033881454741PD  GOVT OF AP Hyderabad salary    STATE BANK OF INDIA SECRETARIAT    094710100086618                 Bora Gavaramma                     BC COOP FIN CORP LTD - AP V.C      ANDB0000947094710100086618                    URGENT  Bora Gavaramma                                            094710100086618 EMLdpao-sect@ap.nic.in             
R41000000000300000000000000000000000000000033881454741PD  GOVT OF AP Hyderabad salary    STATE BANK OF INDIA SECRETARIAT    094710100063732                 Sakunta Rajam                      BC COOP FIN CORP LTD - AP V.C      ANDB0000947094710100063732                    URGENT  Sakunta Rajam                                             094710100063732 EMLdpao-sect@ap.nic.in             
R41000000000300000000000000000000000000000033881454741PD  GOVT OF AP Hyderabad salary    STATE BANK OF INDIA SECRETARIAT    094710100086627                 Sirasa Durgarao                    BC COOP FIN CORP LTD - AP V.C      ANDB0000947094710100086627                    URGENT  Sirasa Durgarao                                           094710100086627 EMLdpao-sect@ap.nic.in             
R41000000001000000000000000000000000000000033881454741PD  GOVT OF AP Hyderabad salary    STATE BANK OF INDIA SECRETARIAT    011210100074251                 Tummuri Srinavas                   BC COOP FIN CORP LTD - AP V.C      ANDB0000112011210100074251                    URGENT  Tummuri Srinavas                                          011210100074251 EMLdpao-sect@ap.nic.in             
R41000000000500000000000000000000000000000033881454741PD  GOVT OF AP Hyderabad salary    STATE BANK OF INDIA SECRETARIAT    011210100074118                 Srinu Babu                         BC COOP FIN CORP LTD - AP V.C      ANDB0000112011210100074118                    URGENT  Srinu Babu                                                011210100074118 EMLdpao-sect@ap.nic.in             
R41000000000250000000000000000000000000000033881454741PD  GOVT OF AP Hyderabad salary    STATE BANK OF INDIA SECRETARIAT    075610100041332                 Amara Rajulu                       BC COOP FIN CORP LTD - AP V.C      ANDB0000756075610100041332                    URGENT  Amara Rajulu                                              075610100041332 EMLdpao-sect@ap.nic.in             
R41000000000200000000000000000000000000000033881454741PD  GOVT OF AP Hyderabad salary    STATE BANK OF INDIA SECRETARIAT    075610100041138                 Chowdala Vallabharao               BC COOP FIN CORP LTD - AP V.C      ANDB0000756075610100041138                    URGENT  Chowdala Vallabharao                                      075610100041138 EMLdpao-sect@ap.nic.in             
R41000000000300000000000000000000000000000033881454741PD  GOVT OF AP Hyderabad salary    STATE BANK OF INDIA SECRETARIAT    075610100040032                 Adla Dhurvasulu                    BC COOP FIN CORP LTD - AP V.C      ANDB0000756075610100040032                    URGENT  Adla Dhurvasulu                                           075610100040032 EMLdpao-sect@ap.nic.in             
R41000000000300000000000000000000000000000033881454741PD  GOVT OF AP Hyderabad salary    STATE BANK OF INDIA SECRETARIAT    075610100067686                 Bachchala Chinnammi                BC COOP FIN CORP LTD - AP V.C      ANDB0000756075610100067686                    URGENT  Bachchala Chinnammi                                       075610100067686 EMLdpao-sect@ap.nic.in             
R41000000000250000000000000000000000000000033881454741PD  GOVT OF AP Hyderabad salary    STATE BANK OF INDIA SECRETARIAT    075610100041280                 Doogana Kalavathi                  BC COOP FIN CORP LTD - AP V.C      ANDB0000756075610100041280                    URGENT  Doogana Kalavathi                                         075610100041280 EMLdpao-sect@ap.nic.in             
R41000000000250000000000000000000000000000033881454741PD  GOVT OF AP Hyderabad salary    STATE BANK OF INDIA SECRETARIAT    075610100041271                 Uttarala Harathi                   BC COOP FIN CORP LTD - AP V.C      ANDB0000756075610100041271                    URGENT  Uttarala Harathi                                          075610100041271 EMLdpao-sect@ap.nic.in             
R41000000000300000000000000000000000000000033881454741PD  GOVT OF AP Hyderabad salary    STATE BANK OF INDIA SECRETARIAT    075610100039152                 Lakkoju Prasada Rao                BC COOP FIN CORP LTD - AP V.C      ANDB0000756075610100039152                    URGENT  Lakkoju Prasada Rao                                       075610100039152 EMLdpao-sect@ap.nic.in             
R41000000000500000000000000000000000000000033881454741PD  GOVT OF AP Hyderabad salary    STATE BANK OF INDIA SECRETARIAT    075610100041217                 Surapati Yarrayya                  BC COOP FIN CORP LTD - AP V.C      ANDB0000756075610100041217                    URGENT  Surapati Yarrayya                                         075610100041217 EMLdpao-sect@ap.nic.in             
R41000000000250000000000000000000000000000033881454741PD  GOVT OF AP Hyderabad salary    STATE BANK OF INDIA SECRETARIAT    075610100041341                 Govindu Paparao                    BC COOP FIN CORP LTD - AP V.C      ANDB0000756075610100041341                    URGENT  Govindu Paparao                                           075610100041341 EMLdpao-sect@ap.nic.in             
R41000000000300000000000000000000000000000033881454741PD  GOVT OF AP Hyderabad salary    STATE BANK OF INDIA SECRETARIAT    075610100040023                 Gedala Durgamma                    BC COOP FIN CORP LTD - AP V.C      ANDB0000756075610100040023                    URGENT  Gedala Durgamma                                           075610100040023 EMLdpao-sect@ap.nic.in             
R41000000000250000000000000000000000000000033881454741PD  GOVT OF AP Hyderabad salary    STATE BANK OF INDIA SECRETARIAT    075610100041147                 Dharmavarapu Giribabu              BC COOP FIN CORP LTD - AP V.C      ANDB0000756075610100041147                    URGENT  Dharmavarapu Giribabu                                     075610100041147 EMLdpao-sect@ap.nic.in             
R41000000000300000000000000000000000000000033881454741PD  GOVT OF AP Hyderabad salary    STATE BANK OF INDIA SECRETARIAT    075610100042483                 Baddha Ganesh                      BC COOP FIN CORP LTD - AP V.C      ANDB0000756075610100042483                    URGENT  Baddha Ganesh                                             075610100042483 EMLdpao-sect@ap.nic.in             
R41000000000300000000000000000000000000000033881454741PD  GOVT OF AP Hyderabad salary    STATE BANK OF INDIA SECRETARIAT    075610100039179                 Ambati Laxmana Rao                 BC COOP FIN CORP LTD - AP V.C      ANDB0000756075610100039179                    URGENT  Ambati Laxmana Rao                                        075610100039179 EMLdpao-sect@ap.nic.in             
R41000000000250000000000000000000000000000033881454741PD  GOVT OF AP Hyderabad salary    STATE BANK OF INDIA SECRETARIAT    075610100041226                 Parumma Janaki                     BC COOP FIN CORP LTD - AP V.C      ANDB0000756075610100041226                    URGENT  Parumma Janaki                                            075610100041226 EMLdpao-sect@ap.nic.in             
R41000000000300000000000000000000000000000033881454741PD  GOVT OF AP Hyderabad salary    STATE BANK OF INDIA SECRETARIAT    075610100042544                 Bayyi Appa Rao                     BC COOP FIN CORP LTD - AP V.C      ANDB0000756075610100042544                    URGENT  Bayyi Appa Rao                                            075610100042544 EMLdpao-sect@ap.nic.in             
R41000000000300000000000000000000000000000033881454741PD  GOVT OF AP Hyderabad salary    STATE BANK OF INDIA SECRETARIAT    075610100039133                 Chitrada Radha                     BC COOP FIN CORP LTD - AP V.C      ANDB0000756075610100039133                    URGENT  Chitrada Radha                                            075610100039133 EMLdpao-sect@ap.nic.in             
R41000000000300000000000000000000000000000033881454741PD  GOVT OF AP Hyderabad salary    STATE BANK OF INDIA SECRETARIAT    075610100042456                 Ginni Prakasarao                   BC COOP FIN CORP LTD - AP V.C      ANDB0000756075610100042456                    URGENT  Ginni Prakasarao                                          075610100042456 EMLdpao-sect@ap.nic.in             
R41000000000200000000000000000000000000000033881454741PD  GOVT OF AP Hyderabad salary    STATE BANK OF INDIA SECRETARIAT    075610100041129                 Nandfupalli Bhaktulu               BC COOP FIN CORP LTD - AP V.C      ANDB0000756075610100041129                    URGENT  Nandfupalli Bhaktulu                                      075610100041129 EMLdpao-sect@ap.nic.in             
R41000000000300000000000000000000000000000033881454741PD  GOVT OF AP Hyderabad salary    STATE BANK OF INDIA SECRETARIAT    075610100041527                 Pothumaala Kanthamma               BC COOP FIN CORP LTD - AP V.C      ANDB0000756075610100041527                    URGENT  Pothumaala Kanthamma                                      075610100041527 EMLdpao-sect@ap.nic.in             
R41000000000300000000000000000000000000000033881454741PD  GOVT OF AP Hyderabad salary    STATE BANK OF INDIA SECRETARIAT    075610100042474                 Kaarada Vigneswarao                BC COOP FIN CORP LTD - AP V.C      ANDB0000756075610100042474                    URGENT  Kaarada Vigneswarao                                       075610100042474 EMLdpao-sect@ap.nic.in             
R41000000000250000000000000000000000000000033881454741PD  GOVT OF AP Hyderabad salary    STATE BANK OF INDIA SECRETARIAT    075610100041192                 Chevuri Madhubabu                  BC COOP FIN CORP LTD - AP V.C      ANDB0000756075610100041192                    URGENT  Chevuri Madhubabu                                         075610100041192 EMLdpao-sect@ap.nic.in             
R41000000000250000000000000000000000000000033881454741PD  GOVT OF AP Hyderabad salary    STATE BANK OF INDIA SECRETARIAT    010110100114717                 Bathani Rajendra Prasad            BC COOP FIN CORP LTD - AP V.C      ANDB0000101010110100114717                    URGENT  Bathani Rajendra Prasad                                   010110100114717 EMLdpao-sect@ap.nic.in             
R41000000000500000000000000000000000000000033881454741PD  GOVT OF AP Hyderabad salary    STATE BANK OF INDIA SECRETARIAT    011910100123016                 Veeravalli Ayyappa                 BC COOP FIN CORP LTD - AP V.C      ANDB0000119011910100123016                    URGENT  Veeravalli Ayyappa                                        011910100123016 EMLdpao-sect@ap.nic.in             
R41000000000200000000000000000000000000000033881454741PD  GOVT OF AP Hyderabad salary    STATE BANK OF INDIA SECRETARIAT    010110100114708                 Sake Madhusudhanraj                BC COOP FIN CORP LTD - AP V.C      ANDB0000101010110100114708                    URGENT  Sake Madhusudhanraj                                       010110100114708 EMLdpao-sect@ap.nic.in             
R41000000000200000000000000000000000000000033881454741PD  GOVT OF AP Hyderabad salary    STATE BANK OF INDIA SECRETARIAT    010110100092239                 Timmagani Chennamma                BC COOP FIN CORP LTD - AP V.C      ANDB0000101010110100092239                    URGENT  Timmagani Chennamma                                       010110100092239 EMLdpao-sect@ap.nic.in             
R41000000000300000000000000000000000000000033881454741PD  GOVT OF AP Hyderabad salary    STATE BANK OF INDIA SECRETARIAT    010410100092123                 Savadhala Suribabu                 BC COOP FIN CORP LTD - AP V.C      ANDB0000104010410100092123                    URGENT  Savadhala Suribabu                                        010410100092123 EMLdpao-sect@ap.nic.in             
R41000000000300000000000000000000000000000033881454741PD  GOVT OF AP Hyderabad salary    STATE BANK OF INDIA SECRETARIAT    010410100092150                 Sunkara Srinu                      BC COOP FIN CORP LTD - AP V.C      ANDB0000104010410100092150                    URGENT  Sunkara Srinu                                             010410100092150 EMLdpao-sect@ap.nic.in             
R41000000000300000000000000000000000000000033881454741PD  GOVT OF AP Hyderabad salary    STATE BANK OF INDIA SECRETARIAT    010410100093919                 Kandapalli Veera Rama Sagar        BC COOP FIN CORP LTD - AP V.C      ANDB0000104010410100093919                    URGENT  Kandapalli Veera Rama Sag                                 010410100093919 EMLdpao-sect@ap.nic.in             
R41000000000300000000000000000000000000000033881454741PD  GOVT OF AP Hyderabad salary    STATE BANK OF INDIA SECRETARIAT    010410100093928                 Kommara Tataji                     BC COOP FIN CORP LTD - AP V.C      ANDB0000104010410100093928                    URGENT  Kommara Tataji                                            010410100093928 EMLdpao-sect@ap.nic.in             
R41000000000300000000000000000000000000000033881454741PD  GOVT OF AP Hyderabad salary    STATE BANK OF INDIA SECRETARIAT    010410100092646                 Yerupalli Harinadh                 BC COOP FIN CORP LTD - AP V.C      ANDB0000104010410100092646                    URGENT  Yerupalli Harinadh                                        010410100092646 EMLdpao-sect@ap.nic.in             
R41000000000300000000000000000000000000000033881454741PD  GOVT OF AP Hyderabad salary    STATE BANK OF INDIA SECRETARIAT    02491010071865                  Koppishetti Suryanarayana          BC COOP FIN CORP LTD - AP V.C       ANDB00002402491010071865                     URGENT  Koppishetti Suryanarayana                                 02491010071865  EMLdpao-sect@ap.nic.in             
R41000000000300000000000000000000000000000033881454741PD  GOVT OF AP Hyderabad salary    STATE BANK OF INDIA SECRETARIAT    02491010071810                  Naandam Sreenu                     BC COOP FIN CORP LTD - AP V.C       ANDB00002402491010071810                     URGENT  Naandam Sreenu                                            02491010071810  EMLdpao-sect@ap.nic.in             
R41000000000300000000000000000000000000000033881454741PD  GOVT OF AP Hyderabad salary    STATE BANK OF INDIA SECRETARIAT    02491010071801                  Pasalapudi Siva Sankar             BC COOP FIN CORP LTD - AP V.C       ANDB00002402491010071801                     URGENT  Pasalapudi Siva Sankar                                    02491010071801  EMLdpao-sect@ap.nic.in             
R41000000000500000000000000000000000000000033881454741PD  GOVT OF AP Hyderabad salary    STATE BANK OF INDIA SECRETARIAT    028310100052073                 Sarise Veera Nageswararao          BC COOP FIN CORP LTD - AP V.C      ANDB0000283028310100052073                    URGENT  Sarise Veera Nageswararao                                 028310100052073 EMLdpao-sect@ap.nic.in             
R41000000000250000000000000000000000000000033881454741PD  GOVT OF AP Hyderabad salary    STATE BANK OF INDIA SECRETARIAT    023610100100334                 Ramachandramurthy                  BC COOP FIN CORP LTD - AP V.C      ANDB0000236023610100100334                    URGENT  Ramachandramurthy                                         023610100100334 EMLdpao-sect@ap.nic.in             
R41000000000500000000000000000000000000000033881454741PD  GOVT OF AP Hyderabad salary    STATE BANK OF INDIA SECRETARIAT    023610100101014                 Vasachetti Vijaykumar              BC COOP FIN CORP LTD - AP V.C      ANDB0000236023610100101014                    URGENT  Vasachetti Vijaykumar                                     023610100101014 EMLdpao-sect@ap.nic.in             
R41000000000500000000000000000000000000000033881454741PD  GOVT OF AP Hyderabad salary    STATE BANK OF INDIA SECRETARIAT    023610100101032                 Sridevi                            BC COOP FIN CORP LTD - AP V.C      ANDB0000236023610100101032                    URGENT  Sridevi                                                   023610100101032 EMLdpao-sect@ap.nic.in             
R41000000000250000000000000000000000000000033881454741PD  GOVT OF AP Hyderabad salary    STATE BANK OF INDIA SECRETARIAT    023610100100325                 Mereti Venkateswara Rao            BC COOP FIN CORP LTD - AP V.C      ANDB0000236023610100100325                    URGENT  Mereti Venkateswara Rao                                   023610100100325 EMLdpao-sect@ap.nic.in             
R41000000000250000000000000000000000000000033881454741PD  GOVT OF AP Hyderabad salary    STATE BANK OF INDIA SECRETARIAT    023610100100343                 Srinu                              BC COOP FIN CORP LTD - AP V.C      ANDB0000236023610100100343                    URGENT  Srinu                                                     023610100100343 EMLdpao-sect@ap.nic.in             
R41000000000300000000000000000000000000000033881454741PD  GOVT OF AP Hyderabad salary    STATE BANK OF INDIA SECRETARIAT    030810100285820                 Balaka Kalyani                     BC COOP FIN CORP LTD - AP V.C      ANDB0000308030810100285820                    URGENT  Balaka Kalyani                                            030810100285820 EMLdpao-sect@ap.nic.in             
R41000000000250000000000000000000000000000033881454741PD  GOVT OF AP Hyderabad salary    STATE BANK OF INDIA SECRETARIAT    030810100285811                 Dharmapu Renuka                    BC COOP FIN CORP LTD - AP V.C      ANDB0000308030810100285811                    URGENT  Dharmapu Renuka                                           030810100285811 EMLdpao-sect@ap.nic.in             
R41000000000500000000000000000000000000000033881454741PD  GOVT OF AP Hyderabad salary    STATE BANK OF INDIA SECRETARIAT    031310100107328                 Nakka Subbarao                     BC COOP FIN CORP LTD - AP V.C      ANDH0000313031310100107328                    URGENT  Nakka Subbarao                                            031310100107328 EMLdpao-sect@ap.nic.in             
R41000000000300000000000000000000000000000033881454741PD  GOVT OF AP Hyderabad salary    STATE BANK OF INDIA SECRETARIAT    155310100125193                 Dunna Narasamma                    BC COOP FIN CORP LTD - AP V.C      ANDB0001553155310100125193                    URGENT  Dunna Narasamma                                           155310100125193 EMLdpao-sect@ap.nic.in             
R41000000000300000000000000000000000000000033881454741PD  GOVT OF AP Hyderabad salary    STATE BANK OF INDIA SECRETARIAT    155310100109593                 Eppili Kantayya                    BC COOP FIN CORP LTD - AP V.C      ANDB0001553155310100109593                    URGENT  Eppili Kantayya                                           155310100109593 EMLdpao-sect@ap.nic.in             
R41000000000300000000000000000000000000000033881454741PD  GOVT OF AP Hyderabad salary    STATE BANK OF INDIA SECRETARIAT    155310100105807                 Kurumoju Venkataramana             BC COOP FIN CORP LTD - AP V.C      ANDB0001553155310100105807                    URGENT  Kurumoju Venkataramana                                    155310100105807 EMLdpao-sect@ap.nic.in             
R41000000000250000000000000000000000000000033881454741PD  GOVT OF AP Hyderabad salary    STATE BANK OF INDIA SECRETARIAT    151510100040403                 Durga Rao                          BC COOP FIN CORP LTD - AP V.C      ANDB0001515151510100040403                    URGENT  Durga Rao                                                 151510100040403 EMLdpao-sect@ap.nic.in             
R41000000000125000000000000000000000000000033881454741PD  GOVT OF AP Hyderabad salary    STATE BANK OF INDIA SECRETARIAT    089310100051472                 Subrahmanyam                       BC COOP FIN CORP LTD - AP V.C      ANDB0000893089310100051472                    URGENT  Subrahmanyam                                              089310100051472 EMLdpao-sect@ap.nic.in             
R41000000000250000000000000000000000000000033881454741PD  GOVT OF AP Hyderabad salary    STATE BANK OF INDIA SECRETARIAT    043910100108336                 Anasuya                            BC COOP FIN CORP LTD - AP V.C      ANDB0000439043910100108336                    URGENT  Anasuya                                                   043910100108336 EMLdpao-sect@ap.nic.in             
R41000000000300000000000000000000000000000033881454741PD  GOVT OF AP Hyderabad salary    STATE BANK OF INDIA SECRETARIAT    043910100108327                 Chebodula Suresh                   BC COOP FIN CORP LTD - AP V.C      ANDB0000439043910100108327                    URGENT  Chebodula Suresh                                          043910100108327 EMLdpao-sect@ap.nic.in             
R41000000000500000000000000000000000000000033881454741PD  GOVT OF AP Hyderabad salary    STATE BANK OF INDIA SECRETARIAT    044010100111109                 Kota Venkatalaxmi                  BC COOP FIN CORP LTD - AP V.C      ANDB0000440044010100111109                    URGENT  Kota Venkatalaxmi                                         044010100111109 EMLdpao-sect@ap.nic.in             
R41000000000500000000000000000000000000000033881454741PD  GOVT OF AP Hyderabad salary    STATE BANK OF INDIA SECRETARIAT    044010100111057                 Chelluri Veerabraham               BC COOP FIN CORP LTD - AP V.C      ANDB0000440044010100111057                    URGENT  Chelluri Veerabraham                                      044010100111057 EMLdpao-sect@ap.nic.in             
R41000000000250000000000000000000000000000033881454741PD  GOVT OF AP Hyderabad salary    STATE BANK OF INDIA SECRETARIAT    042210100134614                 Bandi Swami                        BC COOP FIN CORP LTD - AP V.C      ANDB0000422042210100134614                    URGENT  Bandi Swami                                               042210100134614 EMLdpao-sect@ap.nic.in             
R41000000000300000000000000000000000000000033881454741PD  GOVT OF AP Hyderabad salary    STATE BANK OF INDIA SECRETARIAT    042210100134623                 Talari Venkatesh                   BC COOP FIN CORP LTD - AP V.C      ANDB0000422042210100134623                    URGENT  Talari Venkatesh                                          042210100134623 EMLdpao-sect@ap.nic.in             
R41000000000300000000000000000000000000000033881454741PD  GOVT OF AP Hyderabad salary    STATE BANK OF INDIA SECRETARIAT    042210100134641                 Bandi Mallikarjuna                 BC COOP FIN CORP LTD - AP V.C      ANDB0000422042210100134641                    URGENT  Bandi Mallikarjuna                                        042210100134641 EMLdpao-sect@ap.nic.in             
R41000000000300000000000000000000000000000033881454741PD  GOVT OF AP Hyderabad salary    STATE BANK OF INDIA SECRETARIAT    042210100134632                 Sanda Sureshbabu                   BC COOP FIN CORP LTD - AP V.C      ANDB0000422042210100134632                    URGENT  Sanda Sureshbabu                                          042210100134632 EMLdpao-sect@ap.nic.in             
R41000000000900000000000000000000000000000033881454741PD  GOVT OF AP Hyderabad salary    STATE BANK OF INDIA SECRETARIAT    043210100098659                 Pilli Venkataramana                BC COOP FIN CORP LTD - AP V.C      ANDB0000432043210100098659                    URGENT  Pilli Venkataramana                                       043210100098659 EMLdpao-sect@ap.nic.in             
R41000000000900000000000000000000000000000033881454741PD  GOVT OF AP Hyderabad salary    STATE BANK OF INDIA SECRETARIAT    043210100050950                 Rayudu Ramakrishna                 BC COOP FIN CORP LTD - AP V.C      ANDB0000432043210100050950                    URGENT  Rayudu Ramakrishna                                        043210100050950 EMLdpao-sect@ap.nic.in             
R41000000000250000000000000000000000000000033881454741PD  GOVT OF AP Hyderabad salary    STATE BANK OF INDIA SECRETARIAT    043210100099117                 Veeravenkatasatyanarayana          BC COOP FIN CORP LTD - AP V.C      ANDB0000432043210100099117                    URGENT  Veeravenkatasatyanarayana                                 043210100099117 EMLdpao-sect@ap.nic.in             
R41000000000300000000000000000000000000000033881454741PD  GOVT OF AP Hyderabad salary    STATE BANK OF INDIA SECRETARIAT    200710100010837                 Thalari Narayanamma                BC COOP FIN CORP LTD - AP V.C      ANDB0002007200710100010837                    URGENT  Thalari Narayanamma                                       200710100010837 EMLdpao-sect@ap.nic.in             
R41000000000250000000000000000000000000000033881454741PD  GOVT OF AP Hyderabad salary    STATE BANK OF INDIA SECRETARIAT    200710100010819                 Talari Raghu                       BC COOP FIN CORP LTD - AP V.C      ANDB0002007200710100010819                    URGENT  Talari Raghu                                              200710100010819 EMLdpao-sect@ap.nic.in             
R41000000000300000000000000000000000000000033881454741PD  GOVT OF AP Hyderabad salary    STATE BANK OF INDIA SECRETARIAT    049510100122576                 Asirayya                           BC COOP FIN CORP LTD - AP V.C      ANDB0000495049510100122576                    URGENT  Asirayya                                                  049510100122576 EMLdpao-sect@ap.nic.in             
R41000000000250000000000000000000000000000033881454741PD  GOVT OF AP Hyderabad salary    STATE BANK OF INDIA SECRETARIAT    049610100166172                 Gaddhada Ramachandararao           BC COOP FIN CORP LTD - AP V.C      ANDB0000496049610100166172                    URGENT  Gaddhada Ramachandararao                                  049610100166172 EMLdpao-sect@ap.nic.in             
R41000000000250000000000000000000000000000033881454741PD  GOVT OF AP Hyderabad salary    STATE BANK OF INDIA SECRETARIAT    049610100166668                 Vaasamsetti Venkataramana          BC COOP FIN CORP LTD - AP V.C      ANDB0000496049610100166668                    URGENT  Vaasamsetti Venkataramana                                 049610100166668 EMLdpao-sect@ap.nic.in             
R41000000000300000000000000000000000000000033881454741PD  GOVT OF AP Hyderabad salary    STATE BANK OF INDIA SECRETARIAT    048710100130229                 Chakali Tippesh                    BC COOP FIN CORP LTD - AP V.C      ANDB0000487048710100130229                    URGENT  Chakali Tippesh                                           048710100130229 EMLdpao-sect@ap.nic.in             
R41000000000300000000000000000000000000000033881454741PD  GOVT OF AP Hyderabad salary    STATE BANK OF INDIA SECRETARIAT    048710100130469                 Golla Tipaiah                      BC COOP FIN CORP LTD - AP V.C      ANDB0000487048710100130469                    URGENT  Golla Tipaiah                                             048710100130469 EMLdpao-sect@ap.nic.in             
R41000000000300000000000000000000000000000033881454741PD  GOVT OF AP Hyderabad salary    STATE BANK OF INDIA SECRETARIAT    048710100130210                 Boya Chinnachowdappa               BC COOP FIN CORP LTD - AP V.C      ANDB0000487048710100130210                    URGENT  Boya Chinnachowdappa                                      048710100130210 EMLdpao-sect@ap.nic.in             
R41000000000300000000000000000000000000000033881454741PD  GOVT OF AP Hyderabad salary    STATE BANK OF INDIA SECRETARIAT    048710100130478                 Kukkula Lakshmanna                 BC COOP FIN CORP LTD - AP V.C      ANDB0000487048710100130478                    URGENT  Kukkula Lakshmanna                                        048710100130478 EMLdpao-sect@ap.nic.in             
R41000000000300000000000000000000000000000033881454741PD  GOVT OF AP Hyderabad salary    STATE BANK OF INDIA SECRETARIAT    048710100130292                 Gowni Koteswara                    BC COOP FIN CORP LTD - AP V.C      ANDB0000487048710100130292                    URGENT  Gowni Koteswara                                           048710100130292 EMLdpao-sect@ap.nic.in             
R41000000000300000000000000000000000000000033881454741PD  GOVT OF AP Hyderabad salary    STATE BANK OF INDIA SECRETARIAT    048710100130399                 Boya Sekhar                        BC COOP FIN CORP LTD - AP V.C      ANDB0000487048710100130399                    URGENT  Boya Sekhar                                               048710100130399 EMLdpao-sect@ap.nic.in             
R41000000000300000000000000000000000000000033881454741PD  GOVT OF AP Hyderabad salary    STATE BANK OF INDIA SECRETARIAT    048710100130308                 Vadde Pavithra                     BC COOP FIN CORP LTD - AP V.C      ANDB0000487048710100130308                    URGENT  Vadde Pavithra                                            048710100130308 EMLdpao-sect@ap.nic.in             
R41000000000300000000000000000000000000000033881454741PD  GOVT OF AP Hyderabad salary    STATE BANK OF INDIA SECRETARIAT    048710100130380                 Golla Ramalakshmi                  BC COOP FIN CORP LTD - AP V.C      ANDB0000487048710100130380                    URGENT  Golla Ramalakshmi                                         048710100130380 EMLdpao-sect@ap.nic.in             
R41000000000300000000000000000000000000000033881454741PD  GOVT OF AP Hyderabad salary    STATE BANK OF INDIA SECRETARIAT    048710100130344                 Parupathi Easwaramma               BC COOP FIN CORP LTD - AP V.C      ANDB0000487048710100130344                    URGENT  Parupathi Easwaramma                                      048710100130344 EMLdpao-sect@ap.nic.in             
R41000000000300000000000000000000000000000033881454741PD  GOVT OF AP Hyderabad salary    STATE BANK OF INDIA SECRETARIAT    048710100130283                 Anjaneya                           BC COOP FIN CORP LTD - AP V.C      ANDB0000487048710100130283                    URGENT  Anjaneya                                                  048710100130283 EMLdpao-sect@ap.nic.in             
R41000000000250000000000000000000000000000033881454741PD  GOVT OF AP Hyderabad salary    STATE BANK OF INDIA SECRETARIAT    051110100099791                 Kalla Janakirao                    BC COOP FIN CORP LTD - AP V.C      ANDB0000511051110100099791                    URGENT  Kalla Janakirao                                           051110100099791 EMLdpao-sect@ap.nic.in             
R41000000000300000000000000000000000000000033881454741PD  GOVT OF AP Hyderabad salary    STATE BANK OF INDIA SECRETARIAT    051110100099913                 Gajjala Madhavarao                 BC COOP FIN CORP LTD - AP V.C      ANDB0000511051110100099913                    URGENT  Gajjala Madhavarao                                        051110100099913 EMLdpao-sect@ap.nic.in             
R41000000000250000000000000000000000000000033881454741PD  GOVT OF AP Hyderabad salary    STATE BANK OF INDIA SECRETARIAT    051110100099843                 Ratnala Arjuna                     BC COOP FIN CORP LTD - AP V.C      ANDB0000511051110100099843                    URGENT  Ratnala Arjuna                                            051110100099843 EMLdpao-sect@ap.nic.in             
R41000000000200000000000000000000000000000033881454741PD  GOVT OF AP Hyderabad salary    STATE BANK OF INDIA SECRETARIAT    051110100099922                 Katari Dinabandhu                  BC COOP FIN CORP LTD - AP V.C      ANDB0000511051110100099922                    URGENT  Katari Dinabandhu                                         051110100099922 EMLdpao-sect@ap.nic.in             
R41000000000400000000000000000000000000000033881454741PD  GOVT OF AP Hyderabad salary    STATE BANK OF INDIA SECRETARIAT    051110100099825                 Buggala Punyavati                  BC COOP FIN CORP LTD - AP V.C      ANDB0000511051110100099825                    URGENT  Buggala Punyavati                                         051110100099825 EMLdpao-sect@ap.nic.in             
R41000000000300000000000000000000000000000033881454741PD  GOVT OF AP Hyderabad salary    STATE BANK OF INDIA SECRETARIAT    051110100099889                 Yaradi Gopamma                     BC COOP FIN CORP LTD - AP V.C      ANDB0000511051110100099889                    URGENT  Yaradi Gopamma                                            051110100099889 EMLdpao-sect@ap.nic.in             
R41000000000300000000000000000000000000000033881454741PD  GOVT OF AP Hyderabad salary    STATE BANK OF INDIA SECRETARIAT    051110100099773                 Durgasi Madhavarao                 BC COOP FIN CORP LTD - AP V.C      ANDB0000511051110100099773                    URGENT  Durgasi Madhavarao                                        051110100099773 EMLdpao-sect@ap.nic.in             
R41000000000400000000000000000000000000000033881454741PD  GOVT OF AP Hyderabad salary    STATE BANK OF INDIA SECRETARIAT    051110100099834                 Pitta Laxmi                        BC COOP FIN CORP LTD - AP V.C      ANDB0000511051110100099834                    URGENT  Pitta Laxmi                                               051110100099834 EMLdpao-sect@ap.nic.in             
R41000000000200000000000000000000000000000033881454741PD  GOVT OF AP Hyderabad salary    STATE BANK OF INDIA SECRETARIAT    051110100099959                 Katari Niranjan                    BC COOP FIN CORP LTD - AP V.C      ANDB0000511051110100099959                    URGENT  Katari Niranjan                                           051110100099959 EMLdpao-sect@ap.nic.in             
R41000000000500000000000000000000000000000033881454741PD  GOVT OF AP Hyderabad salary    STATE BANK OF INDIA SECRETARIAT    051110100099764                 Kalla Dillirao                     BC COOP FIN CORP LTD - AP V.C      ANDB0000511051110100099764                    URGENT  Kalla Dillirao                                            051110100099764 EMLdpao-sect@ap.nic.in             
R41000000000500000000000000000000000000000033881454741PD  GOVT OF AP Hyderabad salary    STATE BANK OF INDIA SECRETARIAT    051110100031043                 Yaradi Narasimhulu                 BC COOP FIN CORP LTD - AP V.C      ANDB0000511051110100031043                    URGENT  Yaradi Narasimhulu                                        051110100031043 EMLdpao-sect@ap.nic.in             
R41000000000250000000000000000000000000000033881454741PD  GOVT OF AP Hyderabad salary    STATE BANK OF INDIA SECRETARIAT    051110100099870                 Nakka Lokanadham                   BC COOP FIN CORP LTD - AP V.C      ANDB0000511051110100099870                    URGENT  Nakka Lokanadham                                          051110100099870 EMLdpao-sect@ap.nic.in             
R41000000000300000000000000000000000000000033881454741PD  GOVT OF AP Hyderabad salary    STATE BANK OF INDIA SECRETARIAT    051110100062362                 Taripili Shakunthala               BC COOP FIN CORP LTD - AP V.C      ANDB0000511051110100062362                    URGENT  Taripili Shakunthala                                      051110100062362 EMLdpao-sect@ap.nic.in             
R41000000000250000000000000000000000000000033881454741PD  GOVT OF AP Hyderabad salary    STATE BANK OF INDIA SECRETARIAT    051110100099782                 Kadagala Mohini                    BC COOP FIN CORP LTD - AP V.C      ANDB0000511051110100099782                    URGENT  Kadagala Mohini                                           051110100099782 EMLdpao-sect@ap.nic.in             
R41000000000250000000000000000000000000000033881454741PD  GOVT OF AP Hyderabad salary    STATE BANK OF INDIA SECRETARIAT    051110100099904                 Durgasi Ranjat                     BC COOP FIN CORP LTD - AP V.C      ANDB0000511051110100099904                    URGENT  Durgasi Ranjat                                            051110100099904 EMLdpao-sect@ap.nic.in             
R41000000000500000000000000000000000000000033881454741PD  GOVT OF AP Hyderabad salary    STATE BANK OF INDIA SECRETARIAT    051110100099852                 Rapaka Dhanalakshmi                BC COOP FIN CORP LTD - AP V.C      ANDB0000511051110100099852                    URGENT  Rapaka Dhanalakshmi                                       051110100099852 EMLdpao-sect@ap.nic.in             
R41000000000300000000000000000000000000000033881454741PD  GOVT OF AP Hyderabad salary    STATE BANK OF INDIA SECRETARIAT    051110100099861                 Namanandi Hemalatha                BC COOP FIN CORP LTD - AP V.C      ANDB0000511051110100099861                    URGENT  Namanandi Hemalatha                                       051110100099861 EMLdpao-sect@ap.nic.in             
R41000000000300000000000000000000000000000033881454741PD  GOVT OF AP Hyderabad salary    STATE BANK OF INDIA SECRETARIAT    051110100099807                 Ratnala Sravani                    BC COOP FIN CORP LTD - AP V.C      ANDB0000511051110100099807                    URGENT  Ratnala Sravani                                           051110100099807 EMLdpao-sect@ap.nic.in             
R41000000000250000000000000000000000000000033881454741PD  GOVT OF AP Hyderabad salary    STATE BANK OF INDIA SECRETARIAT    051110100099940                 Muliki Venkata Ramana              BC COOP FIN CORP LTD - AP V.C      ANDB0000511051110100099940                    URGENT  Muliki Venkata Ramana                                     051110100099940 EMLdpao-sect@ap.nic.in             
R41000000000250000000000000000000000000000033881454741PD  GOVT OF AP Hyderabad salary    STATE BANK OF INDIA SECRETARIAT    051110100099931                 Pindi Nagamma                      BC COOP FIN CORP LTD - AP V.C      ANDB0000511051110100099931                    URGENT  Pindi Nagamma                                             051110100099931 EMLdpao-sect@ap.nic.in             
R41000000000900000000000000000000000000000033881454741PD  GOVT OF AP Hyderabad salary    STATE BANK OF INDIA SECRETARIAT    057410100093876                 Chinthapalli Rambabu               BC COOP FIN CORP LTD - AP V.C      ANDB0000574057410100093876                    URGENT  Chinthapalli Rambabu                                      057410100093876 EMLdpao-sect@ap.nic.in             
R41000000000250000000000000000000000000000033881454741PD  GOVT OF AP Hyderabad salary    STATE BANK OF INDIA SECRETARIAT    056110100217689                 Surla Sathibabu                    BC COOP FIN CORP LTD - AP V.C      ANDB0000561056110100217689                    URGENT  Surla Sathibabu                                           056110100217689 EMLdpao-sect@ap.nic.in             
R41000000000250000000000000000000000000000033881454741PD  GOVT OF AP Hyderabad salary    STATE BANK OF INDIA SECRETARIAT    056110100217670                 Chitikela Manga                    BC COOP FIN CORP LTD - AP V.C      ANDB0000561056110100217670                    URGENT  Chitikela Manga                                           056110100217670 EMLdpao-sect@ap.nic.in             
R41000000000250000000000000000000000000000033881454741PD  GOVT OF AP Hyderabad salary    STATE BANK OF INDIA SECRETARIAT    056110100199426                 Giduthuri Mangalaxmi               BC COOP FIN CORP LTD - AP V.C      ANDB0000561056110100199426                    URGENT  Giduthuri Mangalaxmi                                      056110100199426 EMLdpao-sect@ap.nic.in             
R41000000000300000000000000000000000000000033881454741PD  GOVT OF AP Hyderabad salary    STATE BANK OF INDIA SECRETARIAT    056110100199417                 Surla Manga                        BC COOP FIN CORP LTD - AP V.C      ANDB0000561056110100199417                    URGENT  Surla Manga                                               056110100199417 EMLdpao-sect@ap.nic.in             
R41000000000500000000000000000000000000000033881454741PD  GOVT OF AP Hyderabad salary    STATE BANK OF INDIA SECRETARIAT    195510100033360                 Dhasari Padmavathi                 BC COOP FIN CORP LTD - AP V.C      ANDB0001955195510100033360                    URGENT  Dhasari Padmavathi                                        195510100033360 EMLdpao-sect@ap.nic.in             
R41000000000200000000000000000000000000000033881454741PD  GOVT OF AP Hyderabad salary    STATE BANK OF INDIA SECRETARIAT    061510100067163                 Ponduru Appala Raju                BC COOP FIN CORP LTD - AP V.C      ANDB0000615061510100067163                    URGENT  Ponduru Appala Raju                                       061510100067163 EMLdpao-sect@ap.nic.in             
R41000000000300000000000000000000000000000033881454741PD  GOVT OF AP Hyderabad salary    STATE BANK OF INDIA SECRETARIAT    061510100073289                 Boddana Lakshmi                    BC COOP FIN CORP LTD - AP V.C      ANDB0000615061510100073289                    URGENT  Boddana Lakshmi                                           061510100073289 EMLdpao-sect@ap.nic.in             
R41000000000250000000000000000000000000000033881454741PD  GOVT OF AP Hyderabad salary    STATE BANK OF INDIA SECRETARIAT    061510100067622                 Saleela Duggayya                   BC COOP FIN CORP LTD - AP V.C      ANDB0000615061510100067622                    URGENT  Saleela Duggayya                                          061510100067622 EMLdpao-sect@ap.nic.in             
R41000000000250000000000000000000000000000033881454741PD  GOVT OF AP Hyderabad salary    STATE BANK OF INDIA SECRETARIAT    061510100031122                 Pitta Ramu                         BC COOP FIN CORP LTD - AP V.C      ANDB0000615061510100031122                    URGENT  Pitta Ramu                                                061510100031122 EMLdpao-sect@ap.nic.in             
R41000000000300000000000000000000000000000033881454741PD  GOVT OF AP Hyderabad salary    STATE BANK OF INDIA SECRETARIAT    061510100058794                 Merugula Kalyani                   BC COOP FIN CORP LTD - AP V.C      ANDB0000615061510100058794                    URGENT  Merugula Kalyani                                          061510100058794 EMLdpao-sect@ap.nic.in             
R41000000000250000000000000000000000000000033881454741PD  GOVT OF AP Hyderabad salary    STATE BANK OF INDIA SECRETARIAT    061510100072794                 Koripilli Koteswararao             BC COOP FIN CORP LTD - AP V.C      ANDB0000615061510100072794                    URGENT  Koripilli Koteswararao                                    061510100072794 EMLdpao-sect@ap.nic.in             
R41000000000500000000000000000000000000000033881454741PD  GOVT OF AP Hyderabad salary    STATE BANK OF INDIA SECRETARIAT    061510100073526                 Karanam Chinnamnaidu               BC COOP FIN CORP LTD - AP V.C      ANDB0000615061510100073526                    URGENT  Karanam Chinnamnaidu                                      061510100073526 EMLdpao-sect@ap.nic.in             
R41000000000300000000000000000000000000000033881454741PD  GOVT OF AP Hyderabad salary    STATE BANK OF INDIA SECRETARIAT    061510100073003                 Deddimi Gowriswararao              BC COOP FIN CORP LTD - AP V.C      ANDB0000615061510100073003                    URGENT  Deddimi Gowriswararao                                     061510100073003 EMLdpao-sect@ap.nic.in             
R41000000000200000000000000000000000000000033881454741PD  GOVT OF AP Hyderabad salary    STATE BANK OF INDIA SECRETARIAT    061510100006612                 Macharla Ravi                      BC COOP FIN CORP LTD - AP V.C      ANDB0000615061510100006612                    URGENT  Macharla Ravi                                             061510100006612 EMLdpao-sect@ap.nic.in             
R41000000000250000000000000000000000000000033881454741PD  GOVT OF AP Hyderabad salary    STATE BANK OF INDIA SECRETARIAT    061510100073298                 Rayala Sankararao                  BC COOP FIN CORP LTD - AP V.C      ANDB0000615061510100073298                    URGENT  Rayala Sankararao                                         061510100073298 EMLdpao-sect@ap.nic.in             
R41000000000300000000000000000000000000000033881454741PD  GOVT OF AP Hyderabad salary    STATE BANK OF INDIA SECRETARIAT    061510100073508                 Thati Kala Govinda Rao             BC COOP FIN CORP LTD - AP V.C      ANDB0000615061510100073508                    URGENT  Thati Kala Govinda Rao                                    061510100073508 EMLdpao-sect@ap.nic.in             
R41000000000250000000000000000000000000000033881454741PD  GOVT OF AP Hyderabad salary    STATE BANK OF INDIA SECRETARIAT    061510100073474                 Podhilapu Thirupathirao            BC COOP FIN CORP LTD - AP V.C      ANDB0000615061510100073474                    URGENT  Podhilapu Thirupathirao                                   061510100073474 EMLdpao-sect@ap.nic.in             
R41000000000200000000000000000000000000000033881454741PD  GOVT OF AP Hyderabad salary    STATE BANK OF INDIA SECRETARIAT    061510021003673                 Ponnada Santhoskumar               BC COOP FIN CORP LTD - AP V.C      ANDB0000615061510021003673                    URGENT  Ponnada Santhoskumar                                      061510021003673 EMLdpao-sect@ap.nic.in             
R41000000000250000000000000000000000000000033881454741PD  GOVT OF AP Hyderabad salary    STATE BANK OF INDIA SECRETARIAT    061510100002209                 Pappala Maheswara Rao              BC COOP FIN CORP LTD - AP V.C      ANDB0000615061510100002209                    URGENT  Pappala Maheswara Rao                                     061510100002209 EMLdpao-sect@ap.nic.in             
R41000000000300000000000000000000000000000033881454741PD  GOVT OF AP Hyderabad salary    STATE BANK OF INDIA SECRETARIAT    061510100072785                 Jami Ganesh  Kumar                 BC COOP FIN CORP LTD - AP V.C      ANDB0000615061510100072785                    URGENT  Jami Ganesh  Kumar                                        061510100072785 EMLdpao-sect@ap.nic.in             
R41000000000250000000000000000000000000000033881454741PD  GOVT OF AP Hyderabad salary    STATE BANK OF INDIA SECRETARIAT    061510100071139                 Sutari Simhachalam                 BC COOP FIN CORP LTD - AP V.C      ANDB0000615061510100071139                    URGENT  Sutari Simhachalam                                        061510100071139 EMLdpao-sect@ap.nic.in             
R41000000000200000000000000000000000000000033881454741PD  GOVT OF AP Hyderabad salary    STATE BANK OF INDIA SECRETARIAT    061510100072819                 Karri Guramma                      BC COOP FIN CORP LTD - AP V.C      ANDB0000615061510100072819                    URGENT  Karri Guramma                                             061510100072819 EMLdpao-sect@ap.nic.in             
R41000000000250000000000000000000000000000033881454741PD  GOVT OF AP Hyderabad salary    STATE BANK OF INDIA SECRETARIAT    061510100050631                 Kikkara Laxumunaidu                BC COOP FIN CORP LTD - AP V.C      ANDB0000615061510100050631                    URGENT  Kikkara Laxumunaidu                                       061510100050631 EMLdpao-sect@ap.nic.in             
R41000000000300000000000000000000000000000033881454741PD  GOVT OF AP Hyderabad salary    STATE BANK OF INDIA SECRETARIAT    061510100043251                 Vavilapalli Neelaveni              BC COOP FIN CORP LTD - AP V.C      ANDB0000615061510100043251                    URGENT  Vavilapalli Neelaveni                                     061510100043251 EMLdpao-sect@ap.nic.in             
R41000000000250000000000000000000000000000033881454741PD  GOVT OF AP Hyderabad salary    STATE BANK OF INDIA SECRETARIAT    061510100025352                 Kikkara Appalanaidu                BC COOP FIN CORP LTD - AP V.C      ANDB0000615061510100025352                    URGENT  Kikkara Appalanaidu                                       061510100025352 EMLdpao-sect@ap.nic.in             
R41000000000300000000000000000000000000000033881454741PD  GOVT OF AP Hyderabad salary    STATE BANK OF INDIA SECRETARIAT    061510100073571                 Sai Laxmi                          BC COOP FIN CORP LTD - AP V.C      ANDB0000615061510100073571                    URGENT  Sai Laxmi                                                 061510100073571 EMLdpao-sect@ap.nic.in             
R41000000000250000000000000000000000000000033881454741PD  GOVT OF AP Hyderabad salary    STATE BANK OF INDIA SECRETARIAT    061510100034059                 Macharla Mani                      BC COOP FIN CORP LTD - AP V.C      ANDB0000615061510100034059                    URGENT  Macharla Mani                                             061510100034059 EMLdpao-sect@ap.nic.in             
R41000000000250000000000000000000000000000033881454741PD  GOVT OF AP Hyderabad salary    STATE BANK OF INDIA SECRETARIAT    061510100073641                 Karri Srinuvasa Rao                BC COOP FIN CORP LTD - AP V.C      ANDB0000615061510100073641                    URGENT  Karri Srinuvasa Rao                                       061510100073641 EMLdpao-sect@ap.nic.in             
R41000000000300000000000000000000000000000033881454741PD  GOVT OF AP Hyderabad salary    STATE BANK OF INDIA SECRETARIAT    061510100029394                 Raghumundala Chinnammadu           BC COOP FIN CORP LTD - AP V.C      ANDB0000615061510100029394                    URGENT  Raghumundala Chinnammadu                                  061510100029394 EMLdpao-sect@ap.nic.in             
R41000000000250000000000000000000000000000033881454741PD  GOVT OF AP Hyderabad salary    STATE BANK OF INDIA SECRETARIAT    061510100055292                 Pinninti Venkatramana              BC COOP FIN CORP LTD - AP V.C      ANDB0000615061510100055292                    URGENT  Pinninti Venkatramana                                     061510100055292 EMLdpao-sect@ap.nic.in             
R41000000000300000000000000000000000000000033881454741PD  GOVT OF AP Hyderabad salary    STATE BANK OF INDIA SECRETARIAT    186310100040607                 Dudekula Ushenbee                  BC COOP FIN CORP LTD - AP V.C      ANDB0001863186310100040607                    URGENT  Dudekula Ushenbee                                         186310100040607 EMLdpao-sect@ap.nic.in             
R41000000000300000000000000000000000000000033881454741PD  GOVT OF AP Hyderabad salary    STATE BANK OF INDIA SECRETARIAT    186310100040634                 Chakali Shankaranna                BC COOP FIN CORP LTD - AP V.C      ANDB0001863186310100040634                    URGENT  Chakali Shankaranna                                       186310100040634 EMLdpao-sect@ap.nic.in             
R41000000000300000000000000000000000000000033881454741PD  GOVT OF AP Hyderabad salary    STATE BANK OF INDIA SECRETARIAT    186310100040616                 Boya Bommayya                      BC COOP FIN CORP LTD - AP V.C      ANDB0001863186310100040616                    URGENT  Boya Bommayya                                             186310100040616 EMLdpao-sect@ap.nic.in             
R41000000000300000000000000000000000000000033881454741PD  GOVT OF AP Hyderabad salary    STATE BANK OF INDIA SECRETARIAT    186310100040564                 Kuruba Kariyanna                   BC COOP FIN CORP LTD - AP V.C      ANDB0001863186310100040564                    URGENT  Kuruba Kariyanna                                          186310100040564 EMLdpao-sect@ap.nic.in             
R41000000000250000000000000000000000000000033881454741PD  GOVT OF AP Hyderabad salary    STATE BANK OF INDIA SECRETARIAT    186310100040652                 Boya Yrriswamy                     BC COOP FIN CORP LTD - AP V.C      ANDB0001863186310100040652                    URGENT  Boya Yrriswamy                                            186310100040652 EMLdpao-sect@ap.nic.in             
R41000000000300000000000000000000000000000033881454741PD  GOVT OF AP Hyderabad salary    STATE BANK OF INDIA SECRETARIAT    186310100040591                 Kapu Jayasimma                     BC COOP FIN CORP LTD - AP V.C      ANDB0001863186310100040591                    URGENT  Kapu Jayasimma                                            186310100040591 EMLdpao-sect@ap.nic.in             
R41000000000250000000000000000000000000000033881454741PD  GOVT OF AP Hyderabad salary    STATE BANK OF INDIA SECRETARIAT    186310100040625                 Boya Peddanna                      BC COOP FIN CORP LTD - AP V.C      ANDB0001863186310100040625                    URGENT  Boya Peddanna                                             186310100040625 EMLdpao-sect@ap.nic.in             
R41000000000300000000000000000000000000000033881454741PD  GOVT OF AP Hyderabad salary    STATE BANK OF INDIA SECRETARIAT    186310100040573                 Kapu Sairam                        BC COOP FIN CORP LTD - AP V.C      ANDB0001863186310100040573                    URGENT  Kapu Sairam                                               186310100040573 EMLdpao-sect@ap.nic.in             
R41000000000250000000000000000000000000000033881454741PD  GOVT OF AP Hyderabad salary    STATE BANK OF INDIA SECRETARIAT    186310100040661                 Boya Balaramu                      BC COOP FIN CORP LTD - AP V.C      ANDB0001863186310100040661                    URGENT  Boya Balaramu                                             186310100040661 EMLdpao-sect@ap.nic.in             
R41000000000250000000000000000000000000000033881454741PD  GOVT OF AP Hyderabad salary    STATE BANK OF INDIA SECRETARIAT    186310100040582                 Boya Jayappa                       BC COOP FIN CORP LTD - AP V.C      ANDB0001863186310100040582                    URGENT  Boya Jayappa                                              186310100040582 EMLdpao-sect@ap.nic.in             
R41000000000300000000000000000000000000000033881454741PD  GOVT OF AP Hyderabad salary    STATE BANK OF INDIA SECRETARIAT    186310100040643                 Vadde Narasimhulu                  BC COOP FIN CORP LTD - AP V.C      ANDB0001863186310100040643                    URGENT  Vadde Narasimhulu                                         186310100040643 EMLdpao-sect@ap.nic.in             
R41000000000500000000000000000000000000000033881454741PD  GOVT OF AP Hyderabad salary    STATE BANK OF INDIA SECRETARIAT    066910100128154                 Abothula Apparao                   BC COOP FIN CORP LTD - AP V.C      ANDB0000669066910100128154                    URGENT  Abothula Apparao                                          066910100128154 EMLdpao-sect@ap.nic.in             
R41000000001000000000000000000000000000000033881454741PD  GOVT OF AP Hyderabad salary    STATE BANK OF INDIA SECRETARIAT    066910100128598                 Rambabu                            BC COOP FIN CORP LTD - AP V.C      ANDB0000669066910100128598                    URGENT  Rambabu                                                   066910100128598 EMLdpao-sect@ap.nic.in             
R41000000000250000000000000000000000000000033881454741PD  GOVT OF AP Hyderabad salary    STATE BANK OF INDIA SECRETARIAT    19076599889                     Chenchula Muniswamy                BC COOP FIN CORP LTD - AP V.C      APGB000105019076599889                        URGENT  Chenchula Muniswamy                                       19076599889     EMLdpao-sect@ap.nic.in             
R41000000000200000000000000000000000000000033881454741PD  GOVT OF AP Hyderabad salary    STATE BANK OF INDIA SECRETARIAT    91031900123                     Vadde Ramanjaneyulu                BC COOP FIN CORP LTD - AP V.C      APGB000105091031900123                        URGENT  Vadde Ramanjaneyulu                                       91031900123     EMLdpao-sect@ap.nic.in             
R41000000000250000000000000000000000000000033881454741PD  GOVT OF AP Hyderabad salary    STATE BANK OF INDIA SECRETARIAT    91025456311                     Sula Sankarayya                    BC COOP FIN CORP LTD - AP V.C      APGB000105091025456311                        URGENT  Sula Sankarayya                                           91025456311     EMLdpao-sect@ap.nic.in             
R41000000000300000000000000000000000000000033881454741PD  GOVT OF AP Hyderabad salary    STATE BANK OF INDIA SECRETARIAT    91033772766                     Saddala Renuka                     BC COOP FIN CORP LTD - AP V.C      APGB000105091033772766                        URGENT  Saddala Renuka                                            91033772766     EMLdpao-sect@ap.nic.in             
R41000000000300000000000000000000000000000033881454741PD  GOVT OF AP Hyderabad salary    STATE BANK OF INDIA SECRETARIAT    91025654288                     Nirugattu Rajappa                  BC COOP FIN CORP LTD - AP V.C      APGB000105091025654288                        URGENT  Nirugattu Rajappa                                         91025654288     EMLdpao-sect@ap.nic.in             
R41000000000300000000000000000000000000000033881454741PD  GOVT OF AP Hyderabad salary    STATE BANK OF INDIA SECRETARIAT    19076554305                     Potlla Marri Seetha Rama Lakshmi   BC COOP FIN CORP LTD - AP V.C      APGB000105019076554305                        URGENT  Potlla Marri Seetha Rama                                  19076554305     EMLdpao-sect@ap.nic.in             
R41000000000300000000000000000000000000000033881454741PD  GOVT OF AP Hyderabad salary    STATE BANK OF INDIA SECRETARIAT    91020654872                     Bandamida Rajashekar               BC COOP FIN CORP LTD - AP V.C      APGB000105091020654872                        URGENT  Bandamida Rajashekar                                      91020654872     EMLdpao-sect@ap.nic.in             
R41000000000300000000000000000000000000000033881454741PD  GOVT OF AP Hyderabad salary    STATE BANK OF INDIA SECRETARIAT    91031852511                     Saddala Senkaraiah                 BC COOP FIN CORP LTD - AP V.C      APGB000105091031852511                        URGENT  Saddala Senkaraiah                                        91031852511     EMLdpao-sect@ap.nic.in             
R41000000000250000000000000000000000000000033881454741PD  GOVT OF AP Hyderabad salary    STATE BANK OF INDIA SECRETARIAT    91033082671                     Kalle Lalithamma                   BC COOP FIN CORP LTD - AP V.C      APGB000105091033082671                        URGENT  Kalle Lalithamma                                          91033082671     EMLdpao-sect@ap.nic.in             
R41000000000300000000000000000000000000000033881454741PD  GOVT OF AP Hyderabad salary    STATE BANK OF INDIA SECRETARIAT    91033083164                     Ganji Saraswati                    BC COOP FIN CORP LTD - AP V.C      APGB000105091033083164                        URGENT  Ganji Saraswati                                           91033083164     EMLdpao-sect@ap.nic.in             
R41000000000250000000000000000000000000000033881454741PD  GOVT OF AP Hyderabad salary    STATE BANK OF INDIA SECRETARIAT    91007381990                     Kalle Lakshmidevi                  BC COOP FIN CORP LTD - AP V.C      APGB000105091007381990                        URGENT  Kalle Lakshmidevi                                         91007381990     EMLdpao-sect@ap.nic.in             
R41000000000300000000000000000000000000000033881454741PD  GOVT OF AP Hyderabad salary    STATE BANK OF INDIA SECRETARIAT    91025456333                     Niruganti Somasekhar               BC COOP FIN CORP LTD - AP V.C      APGB000105091025456333                        URGENT  Niruganti Somasekhar                                      91025456333     EMLdpao-sect@ap.nic.in             
R41000000000300000000000000000000000000000033881454741PD  GOVT OF AP Hyderabad salary    STATE BANK OF INDIA SECRETARIAT    91019012827                     Sake Nagaveni                      BC COOP FIN CORP LTD - AP V.C      APGB000105091019012827                        URGENT  Sake Nagaveni                                             91019012827     EMLdpao-sect@ap.nic.in             
R41000000000300000000000000000000000000000033881454741PD  GOVT OF AP Hyderabad salary    STATE BANK OF INDIA SECRETARIAT    91033082988                     Kummanamala Krishanamma            BC COOP FIN CORP LTD - AP V.C      APGB000105091033082988                        URGENT  Kummanamala Krishanamma                                   91033082988     EMLdpao-sect@ap.nic.in             
R41000000000300000000000000000000000000000033881454741PD  GOVT OF AP Hyderabad salary    STATE BANK OF INDIA SECRETARIAT    91032684305                     Kamatham Lakshmidevi               BC COOP FIN CORP LTD - AP V.C      APGB000109591032684305                        URGENT  Kamatham Lakshmidevi                                      91032684305     EMLdpao-sect@ap.nic.in             
R41000000000250000000000000000000000000000033881454741PD  GOVT OF AP Hyderabad salary    STATE BANK OF INDIA SECRETARIAT    19168523442                     Kalava Sivakantha                  BC COOP FIN CORP LTD - AP V.C      APGB000105319168523442                        URGENT  Kalava Sivakantha                                         19168523442     EMLdpao-sect@ap.nic.in             
R41000000000300000000000000000000000000000033881454741PD  GOVT OF AP Hyderabad salary    STATE BANK OF INDIA SECRETARIAT    91002651759                     Pagidi Palli Shareef               BC COOP FIN CORP LTD - AP V.C      APGB000105391002651759                        URGENT  Pagidi Palli Shareef                                      91002651759     EMLdpao-sect@ap.nic.in             
R41000000000300000000000000000000000000000033881454741PD  GOVT OF AP Hyderabad salary    STATE BANK OF INDIA SECRETARIAT    91007901331                     Yallaturu Omalbi                   BC COOP FIN CORP LTD - AP V.C      APGB000105391007901331                        URGENT  Yallaturu Omalbi                                          91007901331     EMLdpao-sect@ap.nic.in             
R41000000000200000000000000000000000000000033881454741PD  GOVT OF AP Hyderabad salary    STATE BANK OF INDIA SECRETARIAT    91033215445                     Pallapu Bhagyamma                  BC COOP FIN CORP LTD - AP V.C      APGB000105391033215445                        URGENT  Pallapu Bhagyamma                                         91033215445     EMLdpao-sect@ap.nic.in             
R41000000000250000000000000000000000000000033881454741PD  GOVT OF AP Hyderabad salary    STATE BANK OF INDIA SECRETARIAT    91032712946                     Sure Nagaiahy                      BC COOP FIN CORP LTD - AP V.C      APGB000105391032712946                        URGENT  Sure Nagaiahy                                             91032712946     EMLdpao-sect@ap.nic.in             
R41000000000200000000000000000000000000000033881454741PD  GOVT OF AP Hyderabad salary    STATE BANK OF INDIA SECRETARIAT    19168527301                     Singanamala Shekshavali            BC COOP FIN CORP LTD - AP V.C      APGB000105319168527301                        URGENT  Singanamala Shekshavali                                   19168527301     EMLdpao-sect@ap.nic.in             
R41000000000300000000000000000000000000000033881454741PD  GOVT OF AP Hyderabad salary    STATE BANK OF INDIA SECRETARIAT    91002787087                     Gaddam Antharamu                   BC COOP FIN CORP LTD - AP V.C      APGB000105391002787087                        URGENT  Gaddam Antharamu                                          91002787087     EMLdpao-sect@ap.nic.in             
R41000000000200000000000000000000000000000033881454741PD  GOVT OF AP Hyderabad salary    STATE BANK OF INDIA SECRETARIAT    19168526181                     Mulla Jehara                       BC COOP FIN CORP LTD - AP V.C      APGB000105319168526181                        URGENT  Mulla Jehara                                              19168526181     EMLdpao-sect@ap.nic.in             
R41000000000250000000000000000000000000000033881454741PD  GOVT OF AP Hyderabad salary    STATE BANK OF INDIA SECRETARIAT    91025398812                     Chennam Palli Saradha              BC COOP FIN CORP LTD - AP V.C      APGB000105391025398812                        URGENT  Chennam Palli Saradha                                     91025398812     EMLdpao-sect@ap.nic.in             
R41000000000300000000000000000000000000000033881454741PD  GOVT OF AP Hyderabad salary    STATE BANK OF INDIA SECRETARIAT    19168519720                     Doriginty Akulappa                 BC COOP FIN CORP LTD - AP V.C      APGB000105319168519720                        URGENT  Doriginty Akulappa                                        19168519720     EMLdpao-sect@ap.nic.in             
R41000000000300000000000000000000000000000033881454741PD  GOVT OF AP Hyderabad salary    STATE BANK OF INDIA SECRETARIAT    91035304296                     Kuruva Gadilinga                   BC COOP FIN CORP LTD - AP V.C      APGB000106891035304296                        URGENT  Kuruva Gadilinga                                          91035304296     EMLdpao-sect@ap.nic.in             
R41000000000300000000000000000000000000000033881454741PD  GOVT OF AP Hyderabad salary    STATE BANK OF INDIA SECRETARIAT    91034943347                     Vepamaninti Tirumalesha            BC COOP FIN CORP LTD - AP V.C      APGB000106891034943347                        URGENT  Vepamaninti Tirumalesha                                   91034943347     EMLdpao-sect@ap.nic.in             
R41000000000300000000000000000000000000000033881454741PD  GOVT OF AP Hyderabad salary    STATE BANK OF INDIA SECRETARIAT    91035072309                     Boya Seena                         BC COOP FIN CORP LTD - AP V.C      APGB000106891035072309                        URGENT  Boya Seena                                                91035072309     EMLdpao-sect@ap.nic.in             
R41000000000300000000000000000000000000000033881454741PD  GOVT OF AP Hyderabad salary    STATE BANK OF INDIA SECRETARIAT    91035152785                     Donekal Bheemesh                   BC COOP FIN CORP LTD - AP V.C      APGB000106891035152785                        URGENT  Donekal Bheemesh                                          91035152785     EMLdpao-sect@ap.nic.in             
R41000000000250000000000000000000000000000033881454741PD  GOVT OF AP Hyderabad salary    STATE BANK OF INDIA SECRETARIAT    91036601414                     ;Kotimiti Ramesh                   BC COOP FIN CORP LTD - AP V.C      APGB000106891036601414                        URGENT  ;Kotimiti Ramesh                                          91036601414     EMLdpao-sect@ap.nic.in             
R41000000000300000000000000000000000000000033881454741PD  GOVT OF AP Hyderabad salary    STATE BANK OF INDIA SECRETARIAT    91034945797                     Talari Shekar                      BC COOP FIN CORP LTD - AP V.C      APGB000106891034945797                        URGENT  Talari Shekar                                             91034945797     EMLdpao-sect@ap.nic.in             
R41000000000300000000000000000000000000000033881454741PD  GOVT OF AP Hyderabad salary    STATE BANK OF INDIA SECRETARIAT    91033023115                     Boya Ramanjeneyulu                 BC COOP FIN CORP LTD - AP V.C      APGB000104991033023115                        URGENT  Boya Ramanjeneyulu                                        91033023115     EMLdpao-sect@ap.nic.in             
R41000000000300000000000000000000000000000033881454741PD  GOVT OF AP Hyderabad salary    STATE BANK OF INDIA SECRETARIAT    91033066568                     Bogi Ramanjeneyulu                 BC COOP FIN CORP LTD - AP V.C      APGB000104991033066568                        URGENT  Bogi Ramanjeneyulu                                        91033066568     EMLdpao-sect@ap.nic.in             
R41000000000300000000000000000000000000000033881454741PD  GOVT OF AP Hyderabad salary    STATE BANK OF INDIA SECRETARIAT    91032192539                     Maddikera Anil Kumar               BC COOP FIN CORP LTD - AP V.C      APGB000104991032192539                        URGENT  Maddikera Anil Kumar                                      91032192539     EMLdpao-sect@ap.nic.in             
R41000000000500000000000000000000000000000033881454741PD  GOVT OF AP Hyderabad salary    STATE BANK OF INDIA SECRETARIAT    91033058047                     Vara Lakshmi                       BC COOP FIN CORP LTD - AP V.C      APGB000104991033058047                        URGENT  Vara Lakshmi                                              91033058047     EMLdpao-sect@ap.nic.in             
R41000000000300000000000000000000000000000033881454741PD  GOVT OF AP Hyderabad salary    STATE BANK OF INDIA SECRETARIAT    19076021489                     Yerraguntla Ramanjineyulu          BC COOP FIN CORP LTD - AP V.C      APGB000104919076021489                        URGENT  Yerraguntla Ramanjineyulu                                 19076021489     EMLdpao-sect@ap.nic.in             
R41000000000300000000000000000000000000000033881454741PD  GOVT OF AP Hyderabad salary    STATE BANK OF INDIA SECRETARIAT    91031870765                     Byallla Chennayya                  BC COOP FIN CORP LTD - AP V.C      APGB000104991031870765                        URGENT  Byallla Chennayya                                         91031870765     EMLdpao-sect@ap.nic.in             
R41000000000300000000000000000000000000000033881454741PD  GOVT OF AP Hyderabad salary    STATE BANK OF INDIA SECRETARIAT    91034948426                     Vanyala Subbaraidu                 BC COOP FIN CORP LTD - AP V.C      APGB000104991034948426                        URGENT  Vanyala Subbaraidu                                        91034948426     EMLdpao-sect@ap.nic.in             
R41000000000300000000000000000000000000000033881454741PD  GOVT OF AP Hyderabad salary    STATE BANK OF INDIA SECRETARIAT    91034941033                     Shaik Mastan Vali                  BC COOP FIN CORP LTD - AP V.C      APGB000104991034941033                        URGENT  Shaik Mastan Vali                                         91034941033     EMLdpao-sect@ap.nic.in             
R41000000000250000000000000000000000000000033881454741PD  GOVT OF AP Hyderabad salary    STATE BANK OF INDIA SECRETARIAT    91004009069                     Merugu Rameshbabu                  BC COOP FIN CORP LTD - AP V.C      APGB000104591004009069                        URGENT  Merugu Rameshbabu                                         91004009069     EMLdpao-sect@ap.nic.in             
R41000000000250000000000000000000000000000033881454741PD  GOVT OF AP Hyderabad salary    STATE BANK OF INDIA SECRETARIAT    91014491950                     Dharmavaram Venkatappa             BC COOP FIN CORP LTD - AP V.C      APGB000104591014491950                        URGENT  Dharmavaram Venkatappa                                    91014491950     EMLdpao-sect@ap.nic.in             
R41000000000300000000000000000000000000000033881454741PD  GOVT OF AP Hyderabad salary    STATE BANK OF INDIA SECRETARIAT    19093080353                     Bathala Indiramma                  BC COOP FIN CORP LTD - AP V.C      APGB000104519093080353                        URGENT  Bathala Indiramma                                         19093080353     EMLdpao-sect@ap.nic.in             
R41000000000200000000000000000000000000000033881454741PD  GOVT OF AP Hyderabad salary    STATE BANK OF INDIA SECRETARIAT    91031943022                     Chintha Kirshana Murthi            BC COOP FIN CORP LTD - AP V.C      APGB000104591031943022                        URGENT  Chintha Kirshana Murthi                                   91031943022     EMLdpao-sect@ap.nic.in             
R41000000000300000000000000000000000000000033881454741PD  GOVT OF AP Hyderabad salary    STATE BANK OF INDIA SECRETARIAT    91031932622                     Kalla Ramadevi                     BC COOP FIN CORP LTD - AP V.C      APGB000104591031932622                        URGENT  Kalla Ramadevi                                            91031932622     EMLdpao-sect@ap.nic.in             
R41000000000300000000000000000000000000000033881454741PD  GOVT OF AP Hyderabad salary    STATE BANK OF INDIA SECRETARIAT    91017839553                     Dharmavaram Prabhakara             BC COOP FIN CORP LTD - AP V.C      APGB000104591017839553                        URGENT  Dharmavaram Prabhakara                                    91017839553     EMLdpao-sect@ap.nic.in             
R41000000000200000000000000000000000000000033881454741PD  GOVT OF AP Hyderabad salary    STATE BANK OF INDIA SECRETARIAT    91031977925                     Dharmavaram Venkatesh              BC COOP FIN CORP LTD - AP V.C      APGB000104591031977925                        URGENT  Dharmavaram Venkatesh                                     91031977925     EMLdpao-sect@ap.nic.in             
R41000000000200000000000000000000000000000033881454741PD  GOVT OF AP Hyderabad salary    STATE BANK OF INDIA SECRETARIAT    91030569586                     Boya Sivakesavalu                  BC COOP FIN CORP LTD - AP V.C      APGB000104591030569586                        URGENT  Boya Sivakesavalu                                         91030569586     EMLdpao-sect@ap.nic.in             
R41000000000250000000000000000000000000000033881454741PD  GOVT OF AP Hyderabad salary    STATE BANK OF INDIA SECRETARIAT    91014110193                     Miriyala Venkatanarayana           BC COOP FIN CORP LTD - AP V.C      APGB000104591014110193                        URGENT  Miriyala Venkatanarayana                                  91014110193     EMLdpao-sect@ap.nic.in             
R41000000000250000000000000000000000000000033881454741PD  GOVT OF AP Hyderabad salary    STATE BANK OF INDIA SECRETARIAT    91034893510                     Sane Surendra Kumar                BC COOP FIN CORP LTD - AP V.C      APGB000100891034893510                        URGENT  Sane Surendra Kumar                                       91034893510     EMLdpao-sect@ap.nic.in             
R41000000000200000000000000000000000000000033881454741PD  GOVT OF AP Hyderabad salary    STATE BANK OF INDIA SECRETARIAT    91034953184                     Alle Venkatesulu                   BC COOP FIN CORP LTD - AP V.C      APGB000106391034953184                        URGENT  Alle Venkatesulu                                          91034953184     EMLdpao-sect@ap.nic.in             
R41000000000200000000000000000000000000000033881454741PD  GOVT OF AP Hyderabad salary    STATE BANK OF INDIA SECRETARIAT    91034953515                     Boya Mutyalanna                    BC COOP FIN CORP LTD - AP V.C      APGB000106391034953515                        URGENT  Boya Mutyalanna                                           91034953515     EMLdpao-sect@ap.nic.in             
R41000000000200000000000000000000000000000033881454741PD  GOVT OF AP Hyderabad salary    STATE BANK OF INDIA SECRETARIAT    91035015613                     Bangaru Sivaiah                    BC COOP FIN CORP LTD - AP V.C      APGB000106391035015613                        URGENT  Bangaru Sivaiah                                           91035015613     EMLdpao-sect@ap.nic.in             
R41000000000200000000000000000000000000000033881454741PD  GOVT OF AP Hyderabad salary    STATE BANK OF INDIA SECRETARIAT    91035669780                     Bogim Naresh                       BC COOP FIN CORP LTD - AP V.C      APGB000106391035669780                        URGENT  Bogim Naresh                                              91035669780     EMLdpao-sect@ap.nic.in             
R41000000000300000000000000000000000000000033881454741PD  GOVT OF AP Hyderabad salary    STATE BANK OF INDIA SECRETARIAT    91035715514                     Malela Bommaya                     BC COOP FIN CORP LTD - AP V.C      APGB000106391035715514                        URGENT  Malela Bommaya                                            91035715514     EMLdpao-sect@ap.nic.in             
R41000000000300000000000000000000000000000033881454741PD  GOVT OF AP Hyderabad salary    STATE BANK OF INDIA SECRETARIAT    91034933554                     Sottappa Sudakar                   BC COOP FIN CORP LTD - AP V.C      APGB000106391034933554                        URGENT  Sottappa Sudakar                                          91034933554     EMLdpao-sect@ap.nic.in             
R41000000000200000000000000000000000000000033881454741PD  GOVT OF AP Hyderabad salary    STATE BANK OF INDIA SECRETARIAT    91035179150                     Seella Ujjini                      BC COOP FIN CORP LTD - AP V.C      APGB000106391035179150                        URGENT  Seella Ujjini                                             91035179150     EMLdpao-sect@ap.nic.in             
R41000000000200000000000000000000000000000033881454741PD  GOVT OF AP Hyderabad salary    STATE BANK OF INDIA SECRETARIAT    91034947397                     Gudishala Muthyalappa              BC COOP FIN CORP LTD - AP V.C      APGB000106391034947397                        URGENT  Gudishala Muthyalappa                                     91034947397     EMLdpao-sect@ap.nic.in             
R41000000000250000000000000000000000000000033881454741PD  GOVT OF AP Hyderabad salary    STATE BANK OF INDIA SECRETARIAT    91034925612                     Anke Linganna                      BC COOP FIN CORP LTD - AP V.C      APGB000106391034925612                        URGENT  Anke Linganna                                             91034925612     EMLdpao-sect@ap.nic.in             
R41000000000250000000000000000000000000000033881454741PD  GOVT OF AP Hyderabad salary    STATE BANK OF INDIA SECRETARIAT    91035177266                     Nalagomda Dhanujaiah               BC COOP FIN CORP LTD - AP V.C      APGB000106391035177266                        URGENT  Nalagomda Dhanujaiah                                      91035177266     EMLdpao-sect@ap.nic.in             
R41000000000250000000000000000000000000000033881454741PD  GOVT OF AP Hyderabad salary    STATE BANK OF INDIA SECRETARIAT    91034953741                     Juttu Thriloknath                  BC COOP FIN CORP LTD - AP V.C      APGB000106391034953741                        URGENT  Juttu Thriloknath                                         91034953741     EMLdpao-sect@ap.nic.in             
R41000000000300000000000000000000000000000033881454741PD  GOVT OF AP Hyderabad salary    STATE BANK OF INDIA SECRETARIAT    91034947716                     Talari Ramakrishana                BC COOP FIN CORP LTD - AP V.C      APGB000106391034947716                        URGENT  Talari Ramakrishana                                       91034947716     EMLdpao-sect@ap.nic.in             
R41000000000200000000000000000000000000000033881454741PD  GOVT OF AP Hyderabad salary    STATE BANK OF INDIA SECRETARIAT    91034950955                     Vadde Ratnamma                     BC COOP FIN CORP LTD - AP V.C      APGB000106391034950955                        URGENT  Vadde Ratnamma                                            91034950955     EMLdpao-sect@ap.nic.in             
R41000000000250000000000000000000000000000033881454741PD  GOVT OF AP Hyderabad salary    STATE BANK OF INDIA SECRETARIAT    91034947228                     Badigi Nagalakshmi                 BC COOP FIN CORP LTD - AP V.C      APGB000106391034947228                        URGENT  Badigi Nagalakshmi                                        91034947228     EMLdpao-sect@ap.nic.in             
R41000000000200000000000000000000000000000033881454741PD  GOVT OF AP Hyderabad salary    STATE BANK OF INDIA SECRETARIAT    91035178102                     Anilkumar                          BC COOP FIN CORP LTD - AP V.C      APGB000106391035178102                        URGENT  Anilkumar                                                 91035178102     EMLdpao-sect@ap.nic.in             
R41000000000300000000000000000000000000000033881454741PD  GOVT OF AP Hyderabad salary    STATE BANK OF INDIA SECRETARIAT    91034948211                     Bille Lakshmidevi                  BC COOP FIN CORP LTD - AP V.C      APGB000106391034948211                        URGENT  Bille Lakshmidevi                                         91034948211     EMLdpao-sect@ap.nic.in             
R41000000000250000000000000000000000000000033881454741PD  GOVT OF AP Hyderabad salary    STATE BANK OF INDIA SECRETARIAT    91035177834                     Golla Hemalatha                    BC COOP FIN CORP LTD - AP V.C      APGB000106391035177834                        URGENT  Golla Hemalatha                                           91035177834     EMLdpao-sect@ap.nic.in             
