R41000000000028460000000000000000000000000033881454741PAO GOVT OF AP Hyderabad salary    STATE BANK OF INDIA SECRETARIAT    11348846286                     NLVRGSRV SCHOOL  NIMMAKUR          RES EDN INST SOC - AP(APREI SOCIET SBIN001505411348846286                        URGENT  NLVRGSRV SCHOOL  NIMMAKUR                                 11348846286     EMLdpao-sect@ap.nic.in             
R41000000000049520000000000000000000000000033881454741PAO GOVT OF AP Hyderabad salary    STATE BANK OF INDIA SECRETARIAT    11137525386                     PRINCIPAL APRS KAMMANAPALLI        RES EDN INST SOC - AP(APREI SOCIET SBIN000026611137525386                        URGENT  PRINCIPAL APRS KAMMANAPAL                                 11137525386     EMLdpao-sect@ap.nic.in             
R41000000000137500000000000000000000000000033881454741PAO GOVT OF AP Hyderabad salary    STATE BANK OF INDIA SECRETARIAT    30345389364                     REGIONAL OFFICE APRS  GUNTUR       RES EDN INST SOC - AP(APREI SOCIET SBIN001562330345389364                        URGENT  REGIONAL OFFICE APRS  GUN                                 30345389364     EMLdpao-sect@ap.nic.in             
R41000000000140000000000000000000000000000033881454741PAO GOVT OF AP Hyderabad salary    STATE BANK OF INDIA SECRETARIAT    11348846377                     NLVRGSRVJC NIMMAKURU               RES EDN INST SOC - AP(APREI SOCIET SBIN000277611348846377                        URGENT  NLVRGSRVJC NIMMAKURU                                      11348846377     EMLdpao-sect@ap.nic.in             
R41000000000273260000000000000000000000000033881454741PAO GOVT OF AP Hyderabad salary    STATE BANK OF INDIA SECRETARIAT    30365484685                     PRINCIPAL APRS CHELAMANUCHENU      RES EDN INST SOC - AP(APREI SOCIET SBIN000084330365484685                        URGENT  PRINCIPAL APRS CHELAMANUC                                 30365484685     EMLdpao-sect@ap.nic.in             
R41000000000285350000000000000000000000000033881454741PAO GOVT OF AP Hyderabad salary    STATE BANK OF INDIA SECRETARIAT    33254049408                     PRINCIPAL APRS KALAKADA            RES EDN INST SOC - AP(APREI SOCIET SBIN000149133254049408                        URGENT  PRINCIPAL APRS KALAKADA                                   33254049408     EMLdpao-sect@ap.nic.in             
R41000000000521680000000000000000000000000033881454741PAO GOVT OF AP Hyderabad salary    STATE BANK OF INDIA SECRETARIAT    11299990403                     PRINCIPAL APRS MYLAVARAM           RES EDN INST SOC - AP(APREI SOCIET SBIN000097711299990403                        URGENT  PRINCIPAL APRS MYLAVARAM                                  11299990403     EMLdpao-sect@ap.nic.in             
R41000000000628780000000000000000000000000033881454741PAO GOVT OF AP Hyderabad salary    STATE BANK OF INDIA SECRETARIAT    11308605043                     PRINCIPAL APRS BHEEMUNIPATNAM      RES EDN INST SOC - AP(APREI SOCIET SBIN000100711308605043                        URGENT  PRINCIPAL APRS BHEEMUNIPA                                 11308605043     EMLdpao-sect@ap.nic.in             
R41000000000867810000000000000000000000000033881454741PAO GOVT OF AP Hyderabad salary    STATE BANK OF INDIA SECRETARIAT    11025879047                     Prl APRJC GYARAMPALLI(JC)          RES EDN INST SOC - AP(APREI SOCIET SBIN000149111025879047                        URGENT  Prl APRJC GYARAMPALLI(JC)                                 11025879047     EMLdpao-sect@ap.nic.in             
R41000000000935470000000000000000000000000033881454741PAO GOVT OF AP Hyderabad salary    STATE BANK OF INDIA SECRETARIAT    33254049408                     PRINCIPAL APRS KALAKADA            RES EDN INST SOC - AP(APREI SOCIET SBIN000149133254049408                        URGENT  PRINCIPAL APRS KALAKADA                                   33254049408     EMLdpao-sect@ap.nic.in             
R41000000000976950000000000000000000000000033881454741PAO GOVT OF AP Hyderabad salary    STATE BANK OF INDIA SECRETARIAT    30541062220                     PRINCIPAL APRS PATHIKONDA          RES EDN INST SOC - AP(APREI SOCIET SBIN000098130541062220                        URGENT  PRINCIPAL APRS PATHIKONDA                                 30541062220     EMLdpao-sect@ap.nic.in             
R41000000001004100000000000000000000000000033881454741PAO GOVT OF AP Hyderabad salary    STATE BANK OF INDIA SECRETARIAT    11279970059                     Prl APRJC VENKATAGIRI(JC)          RES EDN INST SOC - AP(APREI SOCIET SBIN000096911279970059                        URGENT  Prl APRJC VENKATAGIRI(JC)                                 11279970059     EMLdpao-sect@ap.nic.in             
R41000000001018000000000000000000000000000033881454741PAO GOVT OF AP Hyderabad salary    STATE BANK OF INDIA SECRETARIAT    11164865423                     PRINCIPAL APRS BANAVASI            RES EDN INST SOC - AP(APREI SOCIET SBIN000095511164865423                        URGENT  PRINCIPAL APRS BANAVASI                                   11164865423     EMLdpao-sect@ap.nic.in             
R41000000001045220000000000000000000000000033881454741PAO GOVT OF AP Hyderabad salary    STATE BANK OF INDIA SECRETARIAT    11348846377                     NLVRGSRVJC NIMMAKURU               RES EDN INST SOC - AP(APREI SOCIET SBIN000277611348846377                        URGENT  NLVRGSRVJC NIMMAKURU                                      11348846377     EMLdpao-sect@ap.nic.in             
R41000000001140550000000000000000000000000033881454741PAO GOVT OF AP Hyderabad salary    STATE BANK OF INDIA SECRETARIAT    11499974586                     PRINCIPAL APRS BHUPATHIPALEM       RES EDN INST SOC - AP(APREI SOCIET SBIN000273111499974586                        URGENT  PRINCIPAL APRS BHUPATHIPA                                 11499974586     EMLdpao-sect@ap.nic.in             
R41000000001161830000000000000000000000000033881454741PAO GOVT OF AP Hyderabad salary    STATE BANK OF INDIA SECRETARIAT    11584162249                     PRINCIPAL APRS VOMARAVALLI         RES EDN INST SOC - AP(APREI SOCIET SBIN000271911584162249                        URGENT  PRINCIPAL APRS VOMARAVALL                                 11584162249     EMLdpao-sect@ap.nic.in             
R41000000001283130000000000000000000000000033881454741PAO GOVT OF AP Hyderabad salary    STATE BANK OF INDIA SECRETARIAT    11348846286                     NLVRGSRV SCHOOL  NIMMAKUR          RES EDN INST SOC - AP(APREI SOCIET SBIN001505411348846286                        URGENT  NLVRGSRV SCHOOL  NIMMAKUR                                 11348846286     EMLdpao-sect@ap.nic.in             
R41000000001286730000000000000000000000000033881454741PAO GOVT OF AP Hyderabad salary    STATE BANK OF INDIA SECRETARIAT    11367931645                     PRINCIPAL APRS GANDIPALEM          RES EDN INST SOC - AP(APREI SOCIET SBIN001111811367931645                        URGENT  PRINCIPAL APRS GANDIPALEM                                 11367931645     EMLdpao-sect@ap.nic.in             
R41000000001311460000000000000000000000000033881454741PAO GOVT OF AP Hyderabad salary    STATE BANK OF INDIA SECRETARIAT    11279970037                     PRINCIPAL APRS VENKATAGIRI         RES EDN INST SOC - AP(APREI SOCIET SBIN000096911279970037                        URGENT  PRINCIPAL APRS VENKATAGIR                                 11279970037     EMLdpao-sect@ap.nic.in             
R41000000001332730000000000000000000000000033881454741PAO GOVT OF AP Hyderabad salary    STATE BANK OF INDIA SECRETARIAT    32338025775                     Prl APRJC VAYALPADU(JC)            RES EDN INST SOC - AP(APREI SOCIET SBIN000078132338025775                        URGENT  Prl APRJC VAYALPADU(JC)                                   32338025775     EMLdpao-sect@ap.nic.in             
R41000000001452240000000000000000000000000033881454741PAO GOVT OF AP Hyderabad salary    STATE BANK OF INDIA SECRETARIAT    33262117744                     PRINCIPAL APRS GURRAMKONDA         RES EDN INST SOC - AP(APREI SOCIET SBIN000078133262117744                        URGENT  PRINCIPAL APRS GURRAMKOND                                 33262117744     EMLdpao-sect@ap.nic.in             
R41000000001517360000000000000000000000000033881454741PAO GOVT OF AP Hyderabad salary    STATE BANK OF INDIA SECRETARIAT    11499974586                     PRINCIPAL APRS BHUPATHIPALEM       RES EDN INST SOC - AP(APREI SOCIET SBIN000273111499974586                        URGENT  PRINCIPAL APRS BHUPATHIPA                                 11499974586     EMLdpao-sect@ap.nic.in             
R41000000001606730000000000000000000000000033881454741PAO GOVT OF AP Hyderabad salary    STATE BANK OF INDIA SECRETARIAT    34578870383                     PRINCIPAL APRS GANAPAVARAM         RES EDN INST SOC - AP(APREI SOCIET SBIN000372834578870383                        URGENT  PRINCIPAL APRS GANAPAVARA                                 34578870383     EMLdpao-sect@ap.nic.in             
R41000000001607400000000000000000000000000033881454741PAO GOVT OF AP Hyderabad salary    STATE BANK OF INDIA SECRETARIAT    33262117744                     PRINCIPAL APRS GURRAMKONDA         RES EDN INST SOC - AP(APREI SOCIET SBIN000078133262117744                        URGENT  PRINCIPAL APRS GURRAMKOND                                 33262117744     EMLdpao-sect@ap.nic.in             
R41000000001881680000000000000000000000000033881454741PAO GOVT OF AP Hyderabad salary    STATE BANK OF INDIA SECRETARIAT    11249995194                     Prl APRS VALMIKIPURAM              RES EDN INST SOC - AP(APREI SOCIET SBIN004078111249995194                        URGENT  Prl APRS VALMIKIPURAM                                     11249995194     EMLdpao-sect@ap.nic.in             
R41000000002113940000000000000000000000000033881454741PAO GOVT OF AP Hyderabad salary    STATE BANK OF INDIA SECRETARIAT    32338025775                     Prl APRJC VAYALPADU(JC)            RES EDN INST SOC - AP(APREI SOCIET SBIN000078132338025775                        URGENT  Prl APRJC VAYALPADU(JC)                                   32338025775     EMLdpao-sect@ap.nic.in             
R41000000002230320000000000000000000000000033881454741PAO GOVT OF AP Hyderabad salary    STATE BANK OF INDIA SECRETARIAT    11025879036                     PRINCIPAL APRS GYARAMPALLI         RES EDN INST SOC - AP(APREI SOCIET SBIN000149111025879036                        URGENT  PRINCIPAL APRS GYARAMPALL                                 11025879036     EMLdpao-sect@ap.nic.in             
R41000000002245300000000000000000000000000033881454741PAO GOVT OF AP Hyderabad salary    STATE BANK OF INDIA SECRETARIAT    30541062220                     PRINCIPAL APRS PATHIKONDA          RES EDN INST SOC - AP(APREI SOCIET SBIN000098130541062220                        URGENT  PRINCIPAL APRS PATHIKONDA                                 30541062220     EMLdpao-sect@ap.nic.in             
R41000000002449470000000000000000000000000033881454741PAO GOVT OF AP Hyderabad salary    STATE BANK OF INDIA SECRETARIAT    11279970059                     Prl APRJC VENKATAGIRI(JC)          RES EDN INST SOC - AP(APREI SOCIET SBIN000096911279970059                        URGENT  Prl APRJC VENKATAGIRI(JC)                                 11279970059     EMLdpao-sect@ap.nic.in             
R41000000002536070000000000000000000000000033881454741PAO GOVT OF AP Hyderabad salary    STATE BANK OF INDIA SECRETARIAT    11301915018                     Prl APRS PULIGADDA                 RES EDN INST SOC - AP(APREI SOCIET SBIN000081111301915018                        URGENT  Prl APRS PULIGADDA                                        11301915018     EMLdpao-sect@ap.nic.in             
R41000000002631260000000000000000000000000033881454741PAO GOVT OF AP Hyderabad salary    STATE BANK OF INDIA SECRETARIAT    10706919224                     PRINCIPAL APRS MUKKAVARIPALLI      RES EDN INST SOC - AP(APREI SOCIET SBIN000145910706919224                        URGENT  PRINCIPAL APRS MUKKAVARIP                                 10706919224     EMLdpao-sect@ap.nic.in             
R41000000002697110000000000000000000000000033881454741PAO GOVT OF AP Hyderabad salary    STATE BANK OF INDIA SECRETARIAT    11025879047                     Prl APRJC GYARAMPALLI(JC)          RES EDN INST SOC - AP(APREI SOCIET SBIN000149111025879047                        URGENT  Prl APRJC GYARAMPALLI(JC)                                 11025879047     EMLdpao-sect@ap.nic.in             
R41000000003178010000000000000000000000000033881454741PAO GOVT OF AP Hyderabad salary    STATE BANK OF INDIA SECRETARIAT    11584162249                     PRINCIPAL APRS VOMARAVALLI         RES EDN INST SOC - AP(APREI SOCIET SBIN000271911584162249                        URGENT  PRINCIPAL APRS VOMARAVALL                                 11584162249     EMLdpao-sect@ap.nic.in             
R41000000003326350000000000000000000000000033881454741PAO GOVT OF AP Hyderabad salary    STATE BANK OF INDIA SECRETARIAT    11299990403                     PRINCIPAL APRS MYLAVARAM           RES EDN INST SOC - AP(APREI SOCIET SBIN000097711299990403                        URGENT  PRINCIPAL APRS MYLAVARAM                                  11299990403     EMLdpao-sect@ap.nic.in             
R41000000003371690000000000000000000000000033881454741PAO GOVT OF AP Hyderabad salary    STATE BANK OF INDIA SECRETARIAT    30369020661                     Prl APRS CHITTOOR(M)               RES EDN INST SOC - AP(APREI SOCIET SBIN000082530369020661                        URGENT  Prl APRS CHITTOOR(M)                                      30369020661     EMLdpao-sect@ap.nic.in             
R41000000003397300000000000000000000000000033881454741PAO GOVT OF AP Hyderabad salary    STATE BANK OF INDIA SECRETARIAT    11279970037                     PRINCIPAL APRS VENKATAGIRI         RES EDN INST SOC - AP(APREI SOCIET SBIN000096911279970037                        URGENT  PRINCIPAL APRS VENKATAGIR                                 11279970037     EMLdpao-sect@ap.nic.in             
R41000000003512000000000000000000000000000033881454741PAO GOVT OF AP Hyderabad salary    STATE BANK OF INDIA SECRETARIAT    30855917816                     PRINCIPAL APRS ATCHUTAPURAM        RES EDN INST SOC - AP(APREI SOCIET SBIN000652730855917816                        URGENT  PRINCIPAL APRS ATCHUTAPUR                                 30855917816     EMLdpao-sect@ap.nic.in             
R41000000003704850000000000000000000000000033881454741PAO GOVT OF AP Hyderabad salary    STATE BANK OF INDIA SECRETARIAT    34578870383                     PRINCIPAL APRS GANAPAVARAM         RES EDN INST SOC - AP(APREI SOCIET SBIN000372834578870383                        URGENT  PRINCIPAL APRS GANAPAVARA                                 34578870383     EMLdpao-sect@ap.nic.in             
R41000000003882440000000000000000000000000033881454741PAO GOVT OF AP Hyderabad salary    STATE BANK OF INDIA SECRETARIAT    11254486260                     Prl APRS NARSIPATNAM               RES EDN INST SOC - AP(APREI SOCIET SBIN000088611254486260                        URGENT  Prl APRS NARSIPATNAM                                      11254486260     EMLdpao-sect@ap.nic.in             
R41000000003899630000000000000000000000000033881454741PAO GOVT OF AP Hyderabad salary    STATE BANK OF INDIA SECRETARIAT    11025879036                     PRINCIPAL APRS GYARAMPALLI         RES EDN INST SOC - AP(APREI SOCIET SBIN000149111025879036                        URGENT  PRINCIPAL APRS GYARAMPALL                                 11025879036     EMLdpao-sect@ap.nic.in             
R41000000003994270000000000000000000000000033881454741PAO GOVT OF AP Hyderabad salary    STATE BANK OF INDIA SECRETARIAT    11308605043                     PRINCIPAL APRS BHEEMUNIPATNAM      RES EDN INST SOC - AP(APREI SOCIET SBIN000100711308605043                        URGENT  PRINCIPAL APRS BHEEMUNIPA                                 11308605043     EMLdpao-sect@ap.nic.in             
R41000000004765050000000000000000000000000033881454741PAO GOVT OF AP Hyderabad salary    STATE BANK OF INDIA SECRETARIAT    30855917816                     PRINCIPAL APRS ATCHUTAPURAM        RES EDN INST SOC - AP(APREI SOCIET SBIN000652730855917816                        URGENT  PRINCIPAL APRS ATCHUTAPUR                                 30855917816     EMLdpao-sect@ap.nic.in             
R41000000004791110000000000000000000000000033881454741PAO GOVT OF AP Hyderabad salary    STATE BANK OF INDIA SECRETARIAT    11564587017                     Prl APRS NAGIREDDY GUDEM           RES EDN INST SOC - AP(APREI SOCIET SBIN000100211564587017                        URGENT  Prl APRS NAGIREDDY GUDEM                                  11564587017     EMLdpao-sect@ap.nic.in             
R41000000005973350000000000000000000000000033881454741PAO GOVT OF AP Hyderabad salary    STATE BANK OF INDIA SECRETARIAT    10706919224                     PRINCIPAL APRS MUKKAVARIPALLI      RES EDN INST SOC - AP(APREI SOCIET SBIN000145910706919224                        URGENT  PRINCIPAL APRS MUKKAVARIP                                 10706919224     EMLdpao-sect@ap.nic.in             
