R41000000001000000000000000000000000099999999999999999PAO GOVT OF AP Hyderabad salary    STATE BANK OF INDIA SECRETARIAT    158300101001099                 Kaalur Kaliem Basha                MINORITIES FINANCE COR LTD, AP STA CORP0001583158300101001099                    URGENT  Kaalur Kaliem Basha      158300101001099 
R41000000000250000000000000000000000099999999999999999PAO GOVT OF AP Hyderabad salary    STATE BANK OF INDIA SECRETARIAT    50004323753                     S Jainulla                         MINORITIES FINANCE COR LTD, AP STA IDIB0SGB00150004323753                        URGENT  S Jainulla               50004323753     
R41000000000500000000000000000000000099999999999999999PAO GOVT OF AP Hyderabad salary    STATE BANK OF INDIA SECRETARIAT    628101035311                    Shaik Chandsultana                 MINORITIES FINANCE COR LTD, AP STA CNRB0000628628101035311                       URGENT  Shaik Chandsultana       628101035311    
R41000000000300000000000000000000000099999999999999999PAO GOVT OF AP Hyderabad salary    STATE BANK OF INDIA SECRETARIAT    34722200116454                  Sheik Gulamrasul                   MINORITIES FINANCE COR LTD, AP STA SYNB000347234722200116454                     URGENT  Sheik Gulamrasul         34722200116454  
R41000000000150000000000000000000000099999999999999999PAO GOVT OF AP Hyderabad salary    STATE BANK OF INDIA SECRETARIAT    32052200142918                  Shaik Beejapur Nazima              MINORITIES FINANCE COR LTD, AP STA SYNB000320532052200142918                     URGENT  Shaik Beejapur Nazima    32052200142918  
R41000000000500000000000000000000000099999999999999999PAO GOVT OF AP Hyderabad salary    STATE BANK OF INDIA SECRETARIAT    1409101101892                   Shaik Rubeen Begam                 MINORITIES FINANCE COR LTD, AP STA CNRB00014091409101101892                      URGENT  Shaik Rubeen Begam       1409101101892   
R41000000001000000000000000000000000099999999999999999PAO GOVT OF AP Hyderabad salary    STATE BANK OF INDIA SECRETARIAT    3940101003442                   Mohammed Azimulla Baig             MINORITIES FINANCE COR LTD, AP STA CNRB00039403940101003442                      URGENT  Mohammed Azimulla Baig   3940101003442   
