R41000000001000000000000000000000000000000033881454741PAO GOVT OF AP Hyderabad salary    STATE BANK OF INDIA SECRETARIAT    014010100090684                 Mohammade Esmail  Shakha Dhari     MINORITIES FINANCE COR LTD, AP STA ANDB0000140014010100090684                    URGENT  Mohammade Esmail  Shakha                                  014010100090684 EMLdpao-sect@ap.nic.in             
R41000000000500000000000000000000000000000033881454741PAO GOVT OF AP Hyderabad salary    STATE BANK OF INDIA SECRETARIAT    1341108055596                   Sk.Babji                           MINORITIES FINANCE COR LTD, AP STA CNRB00013411341108055596                      URGENT  Sk.Babji                                                  1341108055596   EMLdpao-sect@ap.nic.in             
R41000000001000000000000000000000000000000033881454741PAO GOVT OF AP Hyderabad salary    STATE BANK OF INDIA SECRETARIAT    1427155000085100                Mahammad Badurunnisa  Begam        MINORITIES FINANCE COR LTD, AP STA KVBL00014271427155000085100                   URGENT  Mahammad Badurunnisa  Beg                                 1427155000085100EMLdpao-sect@ap.nic.in             
R41000000001000000000000000000000000000000033881454741PAO GOVT OF AP Hyderabad salary    STATE BANK OF INDIA SECRETARIAT    1427155000085170                Sabijhunnisabegum                  MINORITIES FINANCE COR LTD, AP STA KVBL00014271427155000085170                   URGENT  Sabijhunnisabegum                                         1427155000085170EMLdpao-sect@ap.nic.in             
R41000000000150000000000000000000000000000033881454741PAO GOVT OF AP Hyderabad salary    STATE BANK OF INDIA SECRETARIAT    400501011004243                 Shaik Lalsaheb                     MINORITIES FINANCE COR LTD, AP STA VIJB0004005400501011004243                    URGENT  Shaik Lalsaheb                                            400501011004243 EMLdpao-sect@ap.nic.in             
