R41000000000879090000000000000000000000000033881454741PAO GOVT OF AP Hyderabad salary    STATE BANK OF INDIA SECRETARIAT    344902010105476                 India Trade Promotion Organisation INDUSTRIES COMMISSIONER AND DIRECT UBIN0534498INDUSTRIES COMMISSIONER AND DIRECT URGENT  India Trade Promotion Org                                 0172311         EMLdpao-sect@ap.nic.in             
R41000000002746800000000000000000000000000033881454741PAO GOVT OF AP Hyderabad salary    STATE BANK OF INDIA SECRETARIAT    344902010105476                 India Trade Promotion Organisation INDUSTRIES COMMISSIONER AND DIRECT UBIN0534498INDUSTRIES COMMISSIONER AND DIRECT URGENT  India Trade Promotion Org                                 0172312         EMLdpao-sect@ap.nic.in             
R41000000053703800000000000000000000000000033881454741PAO GOVT OF AP Hyderabad salary    STATE BANK OF INDIA SECRETARIAT    344902010105476                 India Trade Promotion Organisation INDUSTRIES COMMISSIONER AND DIRECT UBIN0534498INDUSTRIES COMMISSIONER AND DIRECT URGENT  India Trade Promotion Org                                 0172313         EMLdpao-sect@ap.nic.in             
R41000000011202470000000000000000000000000033881454741PAO GOVT OF AP Hyderabad salary    STATE BANK OF INDIA SECRETARIAT    008411100000441                 JSChauhan & Associates New Delhi   INDUSTRIES COMMISSIONER AND DIRECT ANDB0000084INDUSTRIES COMMISSIONER AND DIRECT URGENT  JSChauhan & Associates Ne                                 0172314         EMLdpao-sect@ap.nic.in             
R41000000004797100000000000000000000000000033881454741PAO GOVT OF AP Hyderabad salary    STATE BANK OF INDIA SECRETARIAT    008411100000441                 JSChauhan & Associates New Delhi   INDUSTRIES COMMISSIONER AND DIRECT ANDB0000084INDUSTRIES COMMISSIONER AND DIRECT URGENT  JSChauhan & Associates Ne                                 0172315         EMLdpao-sect@ap.nic.in             
R41000000003034900000000000000000000000000033881454741PAO GOVT OF AP Hyderabad salary    STATE BANK OF INDIA SECRETARIAT    008411100000441                 JSChauhan & Associates New Delhi   INDUSTRIES COMMISSIONER AND DIRECT ANDB0000084INDUSTRIES COMMISSIONER AND DIRECT URGENT  JSChauhan & Associates Ne                                 0172316         EMLdpao-sect@ap.nic.in             
R41000000017236020000000000000000000000000033881454741PAO GOVT OF AP Hyderabad salary    STATE BANK OF INDIA SECRETARIAT    0359018039363                   FICCI New Delhi                    INDUSTRIES COMMISSIONER AND DIRECT UTBI0TNM709INDUSTRIES COMMISSIONER AND DIRECT URGENT  FICCI New Delhi                                           0172317         EMLdpao-sect@ap.nic.in             
R41000000005121520000000000000000000000000033881454741PAO GOVT OF AP Hyderabad salary    STATE BANK OF INDIA SECRETARIAT    3029201064554                   Commissioner of Industries C&EP winINDUSTRIES COMMISSIONER AND DIRECT SYNB0003029INDUSTRIES COMMISSIONER AND DIRECT URGENT  Commissioner of Industrie                                 0172318         EMLdpao-sect@ap.nic.in             
