R41000000000500000000000000000000000000000033881454741PAO GOVT OF AP Hyderabad salary    STATE BANK OF INDIA SECRETARIAT    62075888270                     Machavarapu Anjaneyulu             BC COOP FIN CORP LTD - AP V.C      SBHY002048862075888270                        URGENT  Machavarapu Anjaneyulu   62075888270     
R41000000001000000000000000000000000000000033881454741PAO GOVT OF AP Hyderabad salary    STATE BANK OF INDIA SECRETARIAT    62334174068                     Himamulla                          BC COOP FIN CORP LTD - AP V.C      SBHY002091962334174068                        URGENT  Himamulla                62334174068     
R41000000000500000000000000000000000000000033881454741PAO GOVT OF AP Hyderabad salary    STATE BANK OF INDIA SECRETARIAT    62104506133                     Dudekula Veera Bramhaiah           BC COOP FIN CORP LTD - AP V.C      SBHY002106662104506133                        URGENT  Dudekula Veera Bramhaiah 62104506133     
R41000000000500000000000000000000000000000033881454741PAO GOVT OF AP Hyderabad salary    STATE BANK OF INDIA SECRETARIAT    62335331861                     Kammala Harinath                   BC COOP FIN CORP LTD - AP V.C      SBHY002106662335331861                        URGENT  Kammala Harinath         62335331861     
R41000000000500000000000000000000000000000033881454741PAO GOVT OF AP Hyderabad salary    STATE BANK OF INDIA SECRETARIAT    62335148572                     Molaka Lakshmidevi                 BC COOP FIN CORP LTD - AP V.C      SBHY002106662335148572                        URGENT  Molaka Lakshmidevi       62335148572     
