R41000000133373870000000000000000000000000033881454741PAO GOVT OF AP Hyderabad salary    STATE BANK OF INDIA SECRETARIAT    6244054148                      Kalyanam Prasad Babu               IND INF CORP LTD AP-VC AND MD      IDIB000S070IND INF CORP LTD AP-VC AND MD      URGENT  Kalyanam Prasad Babu                                      0140351         EMLdpao-sect@ap.nic.in             
R41000000078732720000000000000000000000000033881454741PAO GOVT OF AP Hyderabad salary    STATE BANK OF INDIA SECRETARIAT    914020017353854                  N Krishna Reddy  Co               IND INF CORP LTD AP-VC AND MD      UTIB0001113IND INF CORP LTD AP-VC AND MD      URGENT   N Krishna Reddy  Co                                      0140352         EMLdpao-sect@ap.nic.in             
R41000000028488840000000000000000000000000033881454741PAO GOVT OF AP Hyderabad salary    STATE BANK OF INDIA SECRETARIAT    110905000088                    APIIC Ltd                          IND INF CORP LTD AP-VC AND MD      ICIC0001109IND INF CORP LTD AP-VC AND MD      URGENT  APIIC Ltd                                                 0140353         EMLdpao-sect@ap.nic.in             
R41000000002149320000000000000000000000000033881454741PAO GOVT OF AP Hyderabad salary    STATE BANK OF INDIA SECRETARIAT    142210011805015                 The Secretary APBCWWB              IND INF CORP LTD AP-VC AND MD      ANDB0001422IND INF CORP LTD AP-VC AND MD      URGENT  The Secretary APBCWWB                                     0140354         EMLdpao-sect@ap.nic.in             
R41000000007839660000000000000000000000000033881454741PAO GOVT OF AP Hyderabad salary    STATE BANK OF INDIA SECRETARIAT    333011001529                    APIIC Ltd                          IND INF CORP LTD AP-VC AND MD      VYSA0003330IND INF CORP LTD AP-VC AND MD      URGENT  APIIC Ltd                                                 0140355         EMLdpao-sect@ap.nic.in             
R41000000044963750000000000000000000000000033881454741PAO GOVT OF AP Hyderabad salary    STATE BANK OF INDIA SECRETARIAT    328011000296                    APIIC Ltd                          IND INF CORP LTD AP-VC AND MD      VYSA0003280IND INF CORP LTD AP-VC AND MD      URGENT  APIIC Ltd                                                 0140356         EMLdpao-sect@ap.nic.in             
