R416244054148      000000133373870000000000000000000000000033881454741PAO GOVT OF AP Hyderabad salary    STATE BANK OF INDIA SECRETARIAT    6244054148                      Kalyanam Prasad Babu               IND INF CORP LTD AP-VC AND MD      IDIB000S0706244054148                         URGENT  Kalyanam Prasad Babu     6244054148      
R41914020017353854 000000078732720000000000000000000000000033881454741PAO GOVT OF AP Hyderabad salary    STATE BANK OF INDIA SECRETARIAT    914020017353854                  N Krishna Reddy  Co               IND INF CORP LTD AP-VC AND MD      UTIB0001113914020017353854                    URGENT   N Krishna Reddy  Co     914020017353854 
R41110905000088    000000028488840000000000000000000000000033881454741PAO GOVT OF AP Hyderabad salary    STATE BANK OF INDIA SECRETARIAT    110905000088                    APIIC Ltd                          IND INF CORP LTD AP-VC AND MD      ICIC0001109110905000088                       URGENT  APIIC Ltd                110905000088    
R41142210011805015 000000002149320000000000000000000000000033881454741PAO GOVT OF AP Hyderabad salary    STATE BANK OF INDIA SECRETARIAT    142210011805015                 The Secretary APBCWWB              IND INF CORP LTD AP-VC AND MD      ANDB0001422142210011805015                    URGENT  The Secretary APBCWWB    142210011805015 
R41333011001529    000000007839660000000000000000000000000033881454741PAO GOVT OF AP Hyderabad salary    STATE BANK OF INDIA SECRETARIAT    333011001529                    APIIC Ltd                          IND INF CORP LTD AP-VC AND MD      VYSA0003330333011001529                       URGENT  APIIC Ltd                333011001529    
R41328011000296    000000044963750000000000000000000000000033881454741PAO GOVT OF AP Hyderabad salary    STATE BANK OF INDIA SECRETARIAT    328011000296                    APIIC Ltd                          IND INF CORP LTD AP-VC AND MD      VYSA0003280328011000296                       URGENT  APIIC Ltd                328011000296    
