R41000000000122460000000000000000000000000033881454741PAO GOVT OF AP Hyderabad salary    STATE BANK OF INDIA SECRETARIAT    11607265753                     KDAMAYANTHAMMA                     PD ADMINISTRATOR                             1PD ADMINISTRATOR                   URGENT  KDAMAYANTHAMMA                                            0181891         EMLdpao-sect@ap.nic.in             
R41000000000075380000000000000000000000000033881454741PAO GOVT OF AP Hyderabad salary    STATE BANK OF INDIA SECRETARIAT    11607271289                     TLKANTAMMA                         PD ADMINISTRATOR                             1PD ADMINISTRATOR                   URGENT  TLKANTAMMA                                                0181892         EMLdpao-sect@ap.nic.in             
R41000000000088760000000000000000000000000033881454741PAO GOVT OF AP Hyderabad salary    STATE BANK OF INDIA SECRETARIAT    32236497018                     DSAROJINI                          PD ADMINISTRATOR                             1PD ADMINISTRATOR                   URGENT  DSAROJINI                                                 0181893         EMLdpao-sect@ap.nic.in             
R41000000000094670000000000000000000000000033881454741PAO GOVT OF AP Hyderabad salary    STATE BANK OF INDIA SECRETARIAT    30420766462                     PPUNNAIAH                          PD ADMINISTRATOR                             2PD ADMINISTRATOR                   URGENT  PPUNNAIAH                                                 0181894         EMLdpao-sect@ap.nic.in             
R41000000000104880000000000000000000000000033881454741PAO GOVT OF AP Hyderabad salary    STATE BANK OF INDIA SECRETARIAT    11302009432                     VGOPALA RAO                        PD ADMINISTRATOR                             2PD ADMINISTRATOR                   URGENT  VGOPALA RAO                                               0181895         EMLdpao-sect@ap.nic.in             
R41000000000044350000000000000000000000000033881454741PAO GOVT OF AP Hyderabad salary    STATE BANK OF INDIA SECRETARIAT    11302006055                     BDURGAMMA(EMP)                     PD ADMINISTRATOR                             2PD ADMINISTRATOR                   URGENT  BDURGAMMA(EMP)                                            0181896         EMLdpao-sect@ap.nic.in             
R41000000000071550000000000000000000000000033881454741PAO GOVT OF AP Hyderabad salary    STATE BANK OF INDIA SECRETARIAT    11302009771                     VPITACHAMMA                        PD ADMINISTRATOR                             2PD ADMINISTRATOR                   URGENT  VPITACHAMMA                                               0181897         EMLdpao-sect@ap.nic.in             
R41000000000113530000000000000000000000000033881454741PAO GOVT OF AP Hyderabad salary    STATE BANK OF INDIA SECRETARIAT    11302010233                     YNARASIMHA RAO                     PD ADMINISTRATOR                             2PD ADMINISTRATOR                   URGENT  YNARASIMHA RAO                                            0181898         EMLdpao-sect@ap.nic.in             
R41000000000071550000000000000000000000000033881454741PAO GOVT OF AP Hyderabad salary    STATE BANK OF INDIA SECRETARIAT    11302010551                     KSYAMALAMMA                        PD ADMINISTRATOR                             2PD ADMINISTRATOR                   URGENT  KSYAMALAMMA                                               0181899         EMLdpao-sect@ap.nic.in             
R41000000000044350000000000000000000000000033881454741PAO GOVT OF AP Hyderabad salary    STATE BANK OF INDIA SECRETARIAT    11302001885                     K RAMA RAO(EMP)                    PD ADMINISTRATOR                             2PD ADMINISTRATOR                   URGENT  K RAMA RAO(EMP)                                           01818910        EMLdpao-sect@ap.nic.in             
R41000000000116350000000000000000000000000033881454741PAO GOVT OF AP Hyderabad salary    STATE BANK OF INDIA SECRETARIAT    11302010947                     CHVENKATESWARULU                   PD ADMINISTRATOR                             2PD ADMINISTRATOR                   URGENT  CHVENKATESWARULU                                          01818911        EMLdpao-sect@ap.nic.in             
R41000000000044350000000000000000000000000033881454741PAO GOVT OF AP Hyderabad salary    STATE BANK OF INDIA SECRETARIAT    11301998335                     YNUKALAMM (EMP)                    PD ADMINISTRATOR                             2PD ADMINISTRATOR                   URGENT  YNUKALAMM (EMP)                                           01818912        EMLdpao-sect@ap.nic.in             
R41000000000044350000000000000000000000000033881454741PAO GOVT OF AP Hyderabad salary    STATE BANK OF INDIA SECRETARIAT    11301937326                     DANASUYA (EMP)                     PD ADMINISTRATOR                             2PD ADMINISTRATOR                   URGENT  DANASUYA (EMP)                                            01818913        EMLdpao-sect@ap.nic.in             
R41000000000122500000000000000000000000000033881454741PAO GOVT OF AP Hyderabad salary    STATE BANK OF INDIA SECRETARIAT    30449675186                     M DEVIKA                           PD ADMINISTRATOR                             2PD ADMINISTRATOR                   URGENT  M DEVIKA                                                  01818914        EMLdpao-sect@ap.nic.in             
R41000000000115840000000000000000000000000033881454741PAO GOVT OF AP Hyderabad salary    STATE BANK OF INDIA SECRETARIAT    11301998302                     YSUSEELA                           PD ADMINISTRATOR                             2PD ADMINISTRATOR                   URGENT  YSUSEELA                                                  01818915        EMLdpao-sect@ap.nic.in             
R41000000000122460000000000000000000000000033881454741PAO GOVT OF AP Hyderabad salary    STATE BANK OF INDIA SECRETARIAT    11302001885                     K RAMA RAO                         PD ADMINISTRATOR                             2PD ADMINISTRATOR                   URGENT  K RAMA RAO                                                01818916        EMLdpao-sect@ap.nic.in             
R41000000000055280000000000000000000000000033881454741PAO GOVT OF AP Hyderabad salary    STATE BANK OF INDIA SECRETARIAT    30885879067                     CH POTHURAJU                       PD ADMINISTRATOR                             2PD ADMINISTRATOR                   URGENT  CH POTHURAJU                                              01818917        EMLdpao-sect@ap.nic.in             
R41000000000089390000000000000000000000000033881454741PAO GOVT OF AP Hyderabad salary    STATE BANK OF INDIA SECRETARIAT    11302009953                     BVENKATAKRISHNA RAO                PD ADMINISTRATOR                             2PD ADMINISTRATOR                   URGENT  BVENKATAKRISHNA RAO                                       01818918        EMLdpao-sect@ap.nic.in             
R41000000000116350000000000000000000000000033881454741PAO GOVT OF AP Hyderabad salary    STATE BANK OF INDIA SECRETARIAT    11302011168                     NRENUKAMMA                         PD ADMINISTRATOR                             2PD ADMINISTRATOR                   URGENT  NRENUKAMMA                                                01818919        EMLdpao-sect@ap.nic.in             
R41000000000074440000000000000000000000000033881454741PAO GOVT OF AP Hyderabad salary    STATE BANK OF INDIA SECRETARIAT    30203109551                     PNAGA SESHA KUMARI                 PD ADMINISTRATOR                             2PD ADMINISTRATOR                   URGENT  PNAGA SESHA KUMARI                                        01818920        EMLdpao-sect@ap.nic.in             
R41000000000158590000000000000000000000000033881454741PAO GOVT OF AP Hyderabad salary    STATE BANK OF INDIA SECRETARIAT    30997672055                     P JHANSI                           PD ADMINISTRATOR                             2PD ADMINISTRATOR                   URGENT  P JHANSI                                                  01818921        EMLdpao-sect@ap.nic.in             
R41000000000080280000000000000000000000000033881454741PAO GOVT OF AP Hyderabad salary    STATE BANK OF INDIA SECRETARIAT    32996110309                     BBASAVARATNAM                      PD ADMINISTRATOR                             2PD ADMINISTRATOR                   URGENT  BBASAVARATNAM                                             01818922        EMLdpao-sect@ap.nic.in             
R41000000000116350000000000000000000000000033881454741PAO GOVT OF AP Hyderabad salary    STATE BANK OF INDIA SECRETARIAT    11301949853                     SSITHARAVAMMA                      PD ADMINISTRATOR                             2PD ADMINISTRATOR                   URGENT  SSITHARAVAMMA                                             01818923        EMLdpao-sect@ap.nic.in             
R41000000000122520000000000000000000000000033881454741PAO GOVT OF AP Hyderabad salary    STATE BANK OF INDIA SECRETARIAT    31664658067                     YBHARATHI                          PD ADMINISTRATOR                             2PD ADMINISTRATOR                   URGENT  YBHARATHI                                                 01818924        EMLdpao-sect@ap.nic.in             
R41000000000114970000000000000000000000000033881454741PAO GOVT OF AP Hyderabad salary    STATE BANK OF INDIA SECRETARIAT    11580044466                     PJAPAMALA                          PD ADMINISTRATOR                             3PD ADMINISTRATOR                   URGENT  PJAPAMALA                                                 01818925        EMLdpao-sect@ap.nic.in             
R41000000000071550000000000000000000000000033881454741PAO GOVT OF AP Hyderabad salary    STATE BANK OF INDIA SECRETARIAT    30479290189                     ASIVANAGULU                        PD ADMINISTRATOR                             3PD ADMINISTRATOR                   URGENT  ASIVANAGULU                                               01818926        EMLdpao-sect@ap.nic.in             
R41000000000080280000000000000000000000000033881454741PAO GOVT OF AP Hyderabad salary    STATE BANK OF INDIA SECRETARIAT    11579998905                     BNANCHARAMMA                       PD ADMINISTRATOR                             3PD ADMINISTRATOR                   URGENT  BNANCHARAMMA                                              01818927        EMLdpao-sect@ap.nic.in             
R41000000000071550000000000000000000000000033881454741PAO GOVT OF AP Hyderabad salary    STATE BANK OF INDIA SECRETARIAT    11580043643                     ASUBBAMMA                          PD ADMINISTRATOR                             3PD ADMINISTRATOR                   URGENT  ASUBBAMMA                                                 01818928        EMLdpao-sect@ap.nic.in             
R41000000000078310000000000000000000000000033881454741PAO GOVT OF AP Hyderabad salary    STATE BANK OF INDIA SECRETARIAT    11580044579                     MDIBRAHIM                          PD ADMINISTRATOR                             3PD ADMINISTRATOR                   URGENT  MDIBRAHIM                                                 01818929        EMLdpao-sect@ap.nic.in             
R41000000000119400000000000000000000000000033881454741PAO GOVT OF AP Hyderabad salary    STATE BANK OF INDIA SECRETARIAT    11580030281                     GCHANDRAMMA                        PD ADMINISTRATOR                             3PD ADMINISTRATOR                   URGENT  GCHANDRAMMA                                               01818930        EMLdpao-sect@ap.nic.in             
R41000000000132160000000000000000000000000033881454741PAO GOVT OF AP Hyderabad salary    STATE BANK OF INDIA SECRETARIAT    11580017410                     KHYMAVATHI                         PD ADMINISTRATOR                             3PD ADMINISTRATOR                   URGENT  KHYMAVATHI                                                01818931        EMLdpao-sect@ap.nic.in             
R41000000000071550000000000000000000000000033881454741PAO GOVT OF AP Hyderabad salary    STATE BANK OF INDIA SECRETARIAT    11580016427                     DRAJAMMA                           PD ADMINISTRATOR                             3PD ADMINISTRATOR                   URGENT  DRAJAMMA                                                  01818932        EMLdpao-sect@ap.nic.in             
R41000000000102110000000000000000000000000033881454741PAO GOVT OF AP Hyderabad salary    STATE BANK OF INDIA SECRETARIAT    11580044228                     PNAGESWARA RAO                     PD ADMINISTRATOR                             3PD ADMINISTRATOR                   URGENT  PNAGESWARA RAO                                            01818933        EMLdpao-sect@ap.nic.in             
R41000000000071550000000000000000000000000033881454741PAO GOVT OF AP Hyderabad salary    STATE BANK OF INDIA SECRETARIAT    11580044603                     CHESWARAMMA                        PD ADMINISTRATOR                             3PD ADMINISTRATOR                   URGENT  CHESWARAMMA                                               01818934        EMLdpao-sect@ap.nic.in             
R41000000000078230000000000000000000000000033881454741PAO GOVT OF AP Hyderabad salary    STATE BANK OF INDIA SECRETARIAT    31037229289                     SMAHALAKSHMI                       PD ADMINISTRATOR                             3PD ADMINISTRATOR                   URGENT  SMAHALAKSHMI                                              01818935        EMLdpao-sect@ap.nic.in             
R41000000000078250000000000000000000000000033881454741PAO GOVT OF AP Hyderabad salary    STATE BANK OF INDIA SECRETARIAT    32156402547                     BVENKATESWARA RAO                  PD ADMINISTRATOR                             3PD ADMINISTRATOR                   URGENT  BVENKATESWARA RAO                                         01818936        EMLdpao-sect@ap.nic.in             
R41000000000071550000000000000000000000000033881454741PAO GOVT OF AP Hyderabad salary    STATE BANK OF INDIA SECRETARIAT    32526186955                     BDURGA                             PD ADMINISTRATOR                             5PD ADMINISTRATOR                   URGENT  BDURGA                                                    01818937        EMLdpao-sect@ap.nic.in             
R41000000000111560000000000000000000000000033881454741PAO GOVT OF AP Hyderabad salary    STATE BANK OF INDIA SECRETARIAT    10442783914                     PVENKATESWARA RAO                  PD ADMINISTRATOR                             6PD ADMINISTRATOR                   URGENT  PVENKATESWARA RAO                                         01818938        EMLdpao-sect@ap.nic.in             
R41000000000075490000000000000000000000000033881454741PAO GOVT OF AP Hyderabad salary    STATE BANK OF INDIA SECRETARIAT    10442774375                     SANJANADEVI                        PD ADMINISTRATOR                             6PD ADMINISTRATOR                   URGENT  SANJANADEVI                                               01818939        EMLdpao-sect@ap.nic.in             
R41000000000078230000000000000000000000000033881454741PAO GOVT OF AP Hyderabad salary    STATE BANK OF INDIA SECRETARIAT    10442785297                     KJAMALAMMA                         PD ADMINISTRATOR                             6PD ADMINISTRATOR                   URGENT  KJAMALAMMA                                                01818940        EMLdpao-sect@ap.nic.in             
R41000000000071550000000000000000000000000033881454741PAO GOVT OF AP Hyderabad salary    STATE BANK OF INDIA SECRETARIAT    30117502745                     VRAMANAMMA                         PD ADMINISTRATOR                             6PD ADMINISTRATOR                   URGENT  VRAMANAMMA                                                01818941        EMLdpao-sect@ap.nic.in             
R41000000000074300000000000000000000000000033881454741PAO GOVT OF AP Hyderabad salary    STATE BANK OF INDIA SECRETARIAT    11357188542                     MBHASKER RAO                       PD ADMINISTRATOR                             7PD ADMINISTRATOR                   URGENT  MBHASKER RAO                                              01818942        EMLdpao-sect@ap.nic.in             
R41000000000046050000000000000000000000000033881454741PAO GOVT OF AP Hyderabad salary    STATE BANK OF INDIA SECRETARIAT    11357200457                     VGANGAMMA     (EMP)                PD ADMINISTRATOR                             7PD ADMINISTRATOR                   URGENT  VGANGAMMA     (EMP)                                       01818943        EMLdpao-sect@ap.nic.in             
R41000000000082490000000000000000000000000033881454741PAO GOVT OF AP Hyderabad salary    STATE BANK OF INDIA SECRETARIAT    11357161766                     BNUKALAMMA                         PD ADMINISTRATOR                             7PD ADMINISTRATOR                   URGENT  BNUKALAMMA                                                01818944        EMLdpao-sect@ap.nic.in             
R41000000000103040000000000000000000000000033881454741PAO GOVT OF AP Hyderabad salary    STATE BANK OF INDIA SECRETARIAT    11357203345                     YRAJALU                            PD ADMINISTRATOR                             7PD ADMINISTRATOR                   URGENT  YRAJALU                                                   01818945        EMLdpao-sect@ap.nic.in             
R41000000000107900000000000000000000000000033881454741PAO GOVT OF AP Hyderabad salary    STATE BANK OF INDIA SECRETARIAT    11357272172                     VSANYASI                           PD ADMINISTRATOR                             7PD ADMINISTRATOR                   URGENT  VSANYASI                                                  01818946        EMLdpao-sect@ap.nic.in             
R41000000000044350000000000000000000000000033881454741PAO GOVT OF AP Hyderabad salary    STATE BANK OF INDIA SECRETARIAT    11357161766                     BNUKALAMMA (EMP)                   PD ADMINISTRATOR                             7PD ADMINISTRATOR                   URGENT  BNUKALAMMA (EMP)                                          01818947        EMLdpao-sect@ap.nic.in             
R41000000000119200000000000000000000000000033881454741PAO GOVT OF AP Hyderabad salary    STATE BANK OF INDIA SECRETARIAT    11357273629                     TKONDAIAH                          PD ADMINISTRATOR                             7PD ADMINISTRATOR                   URGENT  TKONDAIAH                                                 01818948        EMLdpao-sect@ap.nic.in             
R41000000000046530000000000000000000000000033881454741PAO GOVT OF AP Hyderabad salary    STATE BANK OF INDIA SECRETARIAT    11357221820                     AKOTESWARAMMA                      PD ADMINISTRATOR                             7PD ADMINISTRATOR                   URGENT  AKOTESWARAMMA                                             01818949        EMLdpao-sect@ap.nic.in             
R41000000000074300000000000000000000000000033881454741PAO GOVT OF AP Hyderabad salary    STATE BANK OF INDIA SECRETARIAT    11357201814                     YELIJEBETHAMMA                     PD ADMINISTRATOR                             7PD ADMINISTRATOR                   URGENT  YELIJEBETHAMMA                                            01818950        EMLdpao-sect@ap.nic.in             
R41000000000044350000000000000000000000000033881454741PAO GOVT OF AP Hyderabad salary    STATE BANK OF INDIA SECRETARIAT    11357264514                     CHSIVAKUMARI (EMP)                 PD ADMINISTRATOR                             7PD ADMINISTRATOR                   URGENT  CHSIVAKUMARI (EMP)                                        01818951        EMLdpao-sect@ap.nic.in             
R41000000000071550000000000000000000000000033881454741PAO GOVT OF AP Hyderabad salary    STATE BANK OF INDIA SECRETARIAT    30751456272                     A VENKATA SEETHAMMA                PD ADMINISTRATOR                             7PD ADMINISTRATOR                   URGENT  A VENKATA SEETHAMMA                                       01818952        EMLdpao-sect@ap.nic.in             
R41000000000119400000000000000000000000000033881454741PAO GOVT OF AP Hyderabad salary    STATE BANK OF INDIA SECRETARIAT    11357273765                     YKONDAMMA                          PD ADMINISTRATOR                             7PD ADMINISTRATOR                   URGENT  YKONDAMMA                                                 01818953        EMLdpao-sect@ap.nic.in             
R41000000000072540000000000000000000000000033881454741PAO GOVT OF AP Hyderabad salary    STATE BANK OF INDIA SECRETARIAT    32959269261                     ISAROJINI(F)                       PD ADMINISTRATOR                             7PD ADMINISTRATOR                   URGENT  ISAROJINI(F)                                              01818954        EMLdpao-sect@ap.nic.in             
R41000000000129450000000000000000000000000033881454741PAO GOVT OF AP Hyderabad salary    STATE BANK OF INDIA SECRETARIAT    32703594306                     VNUKALAMMA                         PD ADMINISTRATOR                             7PD ADMINISTRATOR                   URGENT  VNUKALAMMA                                                01818955        EMLdpao-sect@ap.nic.in             
R41000000000088800000000000000000000000000033881454741PAO GOVT OF AP Hyderabad salary    STATE BANK OF INDIA SECRETARIAT    10455025230                     TNAGENDRAMMA                       PD ADMINISTRATOR                             8PD ADMINISTRATOR                   URGENT  TNAGENDRAMMA                                              01818956        EMLdpao-sect@ap.nic.in             
R41000000000075070000000000000000000000000033881454741PAO GOVT OF AP Hyderabad salary    STATE BANK OF INDIA SECRETARIAT    10607883299                     RLALITHA                           PD ADMINISTRATOR                             9PD ADMINISTRATOR                   URGENT  RLALITHA                                                  01818957        EMLdpao-sect@ap.nic.in             
R41000000000075490000000000000000000000000033881454741PAO GOVT OF AP Hyderabad salary    STATE BANK OF INDIA SECRETARIAT    10607881826                     MVARALAKSHMI                       PD ADMINISTRATOR                             9PD ADMINISTRATOR                   URGENT  MVARALAKSHMI                                              01818958        EMLdpao-sect@ap.nic.in             
R41000000000075070000000000000000000000000033881454741PAO GOVT OF AP Hyderabad salary    STATE BANK OF INDIA SECRETARIAT    10607884362                     VLJAYAPRADA                        PD ADMINISTRATOR                             9PD ADMINISTRATOR                   URGENT  VLJAYAPRADA                                               01818959        EMLdpao-sect@ap.nic.in             
R41000000000074300000000000000000000000000033881454741PAO GOVT OF AP Hyderabad salary    STATE BANK OF INDIA SECRETARIAT    10607880390                     KCHANDRAIAH                        PD ADMINISTRATOR                             9PD ADMINISTRATOR                   URGENT  KCHANDRAIAH                                               01818960        EMLdpao-sect@ap.nic.in             
R41000000000071550000000000000000000000000033881454741PAO GOVT OF AP Hyderabad salary    STATE BANK OF INDIA SECRETARIAT    10607884883                     VSAMUEL                            PD ADMINISTRATOR                             9PD ADMINISTRATOR                   URGENT  VSAMUEL                                                   01818961        EMLdpao-sect@ap.nic.in             
R41000000000071550000000000000000000000000033881454741PAO GOVT OF AP Hyderabad salary    STATE BANK OF INDIA SECRETARIAT    10607880924                     KJAYAMMA                           PD ADMINISTRATOR                             9PD ADMINISTRATOR                   URGENT  KJAYAMMA                                                  01818962        EMLdpao-sect@ap.nic.in             
R41000000000071550000000000000000000000000033881454741PAO GOVT OF AP Hyderabad salary    STATE BANK OF INDIA SECRETARIAT    10607888107                     DMARIYAMMA (FP)                    PD ADMINISTRATOR                             9PD ADMINISTRATOR                   URGENT  DMARIYAMMA (FP)                                           01818963        EMLdpao-sect@ap.nic.in             
R41000000000074440000000000000000000000000033881454741PAO GOVT OF AP Hyderabad salary    STATE BANK OF INDIA SECRETARIAT    10607892408                     CHSAROJINI                         PD ADMINISTRATOR                             9PD ADMINISTRATOR                   URGENT  CHSAROJINI                                                01818964        EMLdpao-sect@ap.nic.in             
R41000000000071550000000000000000000000000033881454741PAO GOVT OF AP Hyderabad salary    STATE BANK OF INDIA SECRETARIAT    30329192617                     GSUVARTHAMMA                       PD ADMINISTRATOR                             9PD ADMINISTRATOR                   URGENT  GSUVARTHAMMA                                              01818965        EMLdpao-sect@ap.nic.in             
R41000000000105700000000000000000000000000033881454741PAO GOVT OF AP Hyderabad salary    STATE BANK OF INDIA SECRETARIAT    10607887421                     KSEETHAMAHALAKSHMI                 PD ADMINISTRATOR                             9PD ADMINISTRATOR                   URGENT  KSEETHAMAHALAKSHMI                                        01818966        EMLdpao-sect@ap.nic.in             
R41000000000044350000000000000000000000000033881454741PAO GOVT OF AP Hyderabad salary    STATE BANK OF INDIA SECRETARIAT    10607889280                     UKAMALAMMA(EMP)                    PD ADMINISTRATOR                             9PD ADMINISTRATOR                   URGENT  UKAMALAMMA(EMP)                                           01818967        EMLdpao-sect@ap.nic.in             
R41000000000108580000000000000000000000000033881454741PAO GOVT OF AP Hyderabad salary    STATE BANK OF INDIA SECRETARIAT    10607889847                     CHVENKATA RAVAMMA                  PD ADMINISTRATOR                             9PD ADMINISTRATOR                   URGENT  CHVENKATA RAVAMMA                                         01818968        EMLdpao-sect@ap.nic.in             
R41000000000071550000000000000000000000000033881454741PAO GOVT OF AP Hyderabad salary    STATE BANK OF INDIA SECRETARIAT    10607884293                     VPARVATHAMMA                       PD ADMINISTRATOR                             9PD ADMINISTRATOR                   URGENT  VPARVATHAMMA                                              01818969        EMLdpao-sect@ap.nic.in             
R41000000000046050000000000000000000000000033881454741PAO GOVT OF AP Hyderabad salary    STATE BANK OF INDIA SECRETARIAT    10607878518                     DAVAMMA(EMP)                       PD ADMINISTRATOR                             9PD ADMINISTRATOR                   URGENT  DAVAMMA(EMP)                                              01818970        EMLdpao-sect@ap.nic.in             
R41000000000071550000000000000000000000000033881454741PAO GOVT OF AP Hyderabad salary    STATE BANK OF INDIA SECRETARIAT    10607885173                     ONANCHARAMMA                       PD ADMINISTRATOR                             9PD ADMINISTRATOR                   URGENT  ONANCHARAMMA                                              01818971        EMLdpao-sect@ap.nic.in             
R41000000000044350000000000000000000000000033881454741PAO GOVT OF AP Hyderabad salary    STATE BANK OF INDIA SECRETARIAT    10607885730                     UATCHALA KUMARI (EMP)              PD ADMINISTRATOR                             9PD ADMINISTRATOR                   URGENT  UATCHALA KUMARI (EMP)                                     01818972        EMLdpao-sect@ap.nic.in             
R41000000000061070000000000000000000000000033881454741PAO GOVT OF AP Hyderabad salary    STATE BANK OF INDIA SECRETARIAT    30547454336                     PSEETHAMMA                         PD ADMINISTRATOR                             9PD ADMINISTRATOR                   URGENT  PSEETHAMMA                                                01818973        EMLdpao-sect@ap.nic.in             
R41000000000068640000000000000000000000000033881454741PAO GOVT OF AP Hyderabad salary    STATE BANK OF INDIA SECRETARIAT    30112452834                     DMANGATAYARAMMA                    PD ADMINISTRATOR                             9PD ADMINISTRATOR                   URGENT  DMANGATAYARAMMA                                           01818974        EMLdpao-sect@ap.nic.in             
R41000000000107900000000000000000000000000033881454741PAO GOVT OF AP Hyderabad salary    STATE BANK OF INDIA SECRETARIAT    31648653590                     BBABY SAROJINI                     PD ADMINISTRATOR                             9PD ADMINISTRATOR                   URGENT  BBABY SAROJINI                                            01818975        EMLdpao-sect@ap.nic.in             
R41000000000092040000000000000000000000000033881454741PAO GOVT OF AP Hyderabad salary    STATE BANK OF INDIA SECRETARIAT    10607888152                     PNANCHARAMMA                       PD ADMINISTRATOR                             9PD ADMINISTRATOR                   URGENT  PNANCHARAMMA                                              01818976        EMLdpao-sect@ap.nic.in             
R41000000000068640000000000000000000000000033881454741PAO GOVT OF AP Hyderabad salary    STATE BANK OF INDIA SECRETARIAT    33122410302                     YLAKSHMI KUMARI                    PD ADMINISTRATOR                             9PD ADMINISTRATOR                   URGENT  YLAKSHMI KUMARI                                           01818977        EMLdpao-sect@ap.nic.in             
R41000000000046530000000000000000000000000033881454741PAO GOVT OF AP Hyderabad salary    STATE BANK OF INDIA SECRETARIAT    11588438578                     PRATNAMANIKYAM(EMP)                PD ADMINISTRATOR                            10PD ADMINISTRATOR                   URGENT  PRATNAMANIKYAM(EMP)                                       01818978        EMLdpao-sect@ap.nic.in             
R41000000000044350000000000000000000000000033881454741PAO GOVT OF AP Hyderabad salary    STATE BANK OF INDIA SECRETARIAT    11588438679                     RCHINA KANAKAIAH (EMP)             PD ADMINISTRATOR                            10PD ADMINISTRATOR                   URGENT  RCHINA KANAKAIAH (EMP)                                    01818979        EMLdpao-sect@ap.nic.in             
R41000000000071550000000000000000000000000033881454741PAO GOVT OF AP Hyderabad salary    STATE BANK OF INDIA SECRETARIAT    11588437937                     MAMRUTHAM                          PD ADMINISTRATOR                            10PD ADMINISTRATOR                   URGENT  MAMRUTHAM                                                 01818980        EMLdpao-sect@ap.nic.in             
R41000000000071550000000000000000000000000033881454741PAO GOVT OF AP Hyderabad salary    STATE BANK OF INDIA SECRETARIAT    11588439219                     VRAVAMMA                           PD ADMINISTRATOR                            10PD ADMINISTRATOR                   URGENT  VRAVAMMA                                                  01818981        EMLdpao-sect@ap.nic.in             
R41000000000142060000000000000000000000000033881454741PAO GOVT OF AP Hyderabad salary    STATE BANK OF INDIA SECRETARIAT    11588437507                     KPANDU JAYARAVAMMA                 PD ADMINISTRATOR                            10PD ADMINISTRATOR                   URGENT  KPANDU JAYARAVAMMA                                        01818982        EMLdpao-sect@ap.nic.in             
R41000000000088490000000000000000000000000033881454741PAO GOVT OF AP Hyderabad salary    STATE BANK OF INDIA SECRETARIAT    11588437449                     J LAKSHMIBAYAMMA                   PD ADMINISTRATOR                            10PD ADMINISTRATOR                   URGENT  J LAKSHMIBAYAMMA                                          01818983        EMLdpao-sect@ap.nic.in             
R41000000000110720000000000000000000000000033881454741PAO GOVT OF AP Hyderabad salary    STATE BANK OF INDIA SECRETARIAT    11588439548                     CHPUNNAMMA                         PD ADMINISTRATOR                            10PD ADMINISTRATOR                   URGENT  CHPUNNAMMA                                                01818984        EMLdpao-sect@ap.nic.in             
R41000000000096730000000000000000000000000033881454741PAO GOVT OF AP Hyderabad salary    STATE BANK OF INDIA SECRETARIAT    11588438679                     RCHINA KANAKAIAH                   PD ADMINISTRATOR                            10PD ADMINISTRATOR                   URGENT  RCHINA KANAKAIAH                                          01818985        EMLdpao-sect@ap.nic.in             
R41000000000071550000000000000000000000000033881454741PAO GOVT OF AP Hyderabad salary    STATE BANK OF INDIA SECRETARIAT    11588400815                     VSAVITHRI                          PD ADMINISTRATOR                            10PD ADMINISTRATOR                   URGENT  VSAVITHRI                                                 01818986        EMLdpao-sect@ap.nic.in             
R41000000000071550000000000000000000000000033881454741PAO GOVT OF AP Hyderabad salary    STATE BANK OF INDIA SECRETARIAT    11588439774                     YSESHAMMA                          PD ADMINISTRATOR                            10PD ADMINISTRATOR                   URGENT  YSESHAMMA                                                 01818987        EMLdpao-sect@ap.nic.in             
R41000000000100390000000000000000000000000033881454741PAO GOVT OF AP Hyderabad salary    STATE BANK OF INDIA SECRETARIAT    11588436751                     ASEETHAMMA                         PD ADMINISTRATOR                            10PD ADMINISTRATOR                   URGENT  ASEETHAMMA                                                01818988        EMLdpao-sect@ap.nic.in             
R41000000000143940000000000000000000000000033881454741PAO GOVT OF AP Hyderabad salary    STATE BANK OF INDIA SECRETARIAT    11588384417                     VVENKATESWAR RAO                   PD ADMINISTRATOR                            10PD ADMINISTRATOR                   URGENT  VVENKATESWAR RAO                                          01818989        EMLdpao-sect@ap.nic.in             
R41000000000075490000000000000000000000000033881454741PAO GOVT OF AP Hyderabad salary    STATE BANK OF INDIA SECRETARIAT    11588380127                     SKOTESWARAMMA                      PD ADMINISTRATOR                            10PD ADMINISTRATOR                   URGENT  SKOTESWARAMMA                                             01818990        EMLdpao-sect@ap.nic.in             
R41000000000118130000000000000000000000000033881454741PAO GOVT OF AP Hyderabad salary    STATE BANK OF INDIA SECRETARIAT    30641314856                     IMADHURI                           PD ADMINISTRATOR                            10PD ADMINISTRATOR                   URGENT  IMADHURI                                                  01818991        EMLdpao-sect@ap.nic.in             
R41000000000133150000000000000000000000000033881454741PAO GOVT OF AP Hyderabad salary    STATE BANK OF INDIA SECRETARIAT    11588372014                     MRAJARAO                           PD ADMINISTRATOR                            10PD ADMINISTRATOR                   URGENT  MRAJARAO                                                  01818992        EMLdpao-sect@ap.nic.in             
R41000000000094090000000000000000000000000033881454741PAO GOVT OF AP Hyderabad salary    STATE BANK OF INDIA SECRETARIAT    20242131642                     KLAKSHMIRAJYAM                     PD ADMINISTRATOR                            10PD ADMINISTRATOR                   URGENT  KLAKSHMIRAJYAM                                            01818993        EMLdpao-sect@ap.nic.in             
R41000000000082350000000000000000000000000033881454741PAO GOVT OF AP Hyderabad salary    STATE BANK OF INDIA SECRETARIAT    11265554977                     KPENTAIAH(FP)                      PD ADMINISTRATOR                            11PD ADMINISTRATOR                   URGENT  KPENTAIAH(FP)                                             01818994        EMLdpao-sect@ap.nic.in             
R41000000000081180000000000000000000000000033881454741PAO GOVT OF AP Hyderabad salary    STATE BANK OF INDIA SECRETARIAT    11265513168                     PPARISUDDAM                        PD ADMINISTRATOR                            11PD ADMINISTRATOR                   URGENT  PPARISUDDAM                                               01818995        EMLdpao-sect@ap.nic.in             
R41000000000067120000000000000000000000000033881454741PAO GOVT OF AP Hyderabad salary    STATE BANK OF INDIA SECRETARIAT    11265554977                     KPENTAIAH                          PD ADMINISTRATOR                            11PD ADMINISTRATOR                   URGENT  KPENTAIAH                                                 01818996        EMLdpao-sect@ap.nic.in             
R41000000000122460000000000000000000000000033881454741PAO GOVT OF AP Hyderabad salary    STATE BANK OF INDIA SECRETARIAT    11265549446                     DVENKATESWARA RAO                  PD ADMINISTRATOR                            11PD ADMINISTRATOR                   URGENT  DVENKATESWARA RAO                                         01818997        EMLdpao-sect@ap.nic.in             
R41000000000103040000000000000000000000000033881454741PAO GOVT OF AP Hyderabad salary    STATE BANK OF INDIA SECRETARIAT    11265552970                     KSUBHADRA                          PD ADMINISTRATOR                            11PD ADMINISTRATOR                   URGENT  KSUBHADRA                                                 01818998        EMLdpao-sect@ap.nic.in             
R41000000000116350000000000000000000000000033881454741PAO GOVT OF AP Hyderabad salary    STATE BANK OF INDIA SECRETARIAT    11265554966                     TKANAKARATNAM                      PD ADMINISTRATOR                            11PD ADMINISTRATOR                   URGENT  TKANAKARATNAM                                             01818999        EMLdpao-sect@ap.nic.in             
R41000000000071550000000000000000000000000033881454741PAO GOVT OF AP Hyderabad salary    STATE BANK OF INDIA SECRETARIAT    30299197900                     KSAMPOORNAMMA                      PD ADMINISTRATOR                            11PD ADMINISTRATOR                   URGENT  KSAMPOORNAMMA                                             018189100       EMLdpao-sect@ap.nic.in             
R41000000000085400000000000000000000000000033881454741PAO GOVT OF AP Hyderabad salary    STATE BANK OF INDIA SECRETARIAT    10138437621                     YDEVULLU                           PD ADMINISTRATOR                            12PD ADMINISTRATOR                   URGENT  YDEVULLU                                                  018189101       EMLdpao-sect@ap.nic.in             
R41000000000069740000000000000000000000000033881454741PAO GOVT OF AP Hyderabad salary    STATE BANK OF INDIA SECRETARIAT    10138437417                     VNUKAMMA                           PD ADMINISTRATOR                            12PD ADMINISTRATOR                   URGENT  VNUKAMMA                                                  018189102       EMLdpao-sect@ap.nic.in             
R41000000000071550000000000000000000000000033881454741PAO GOVT OF AP Hyderabad salary    STATE BANK OF INDIA SECRETARIAT    10138437712                     MKANAKA DURGA                      PD ADMINISTRATOR                            12PD ADMINISTRATOR                   URGENT  MKANAKA DURGA                                             018189103       EMLdpao-sect@ap.nic.in             
R41000000000111560000000000000000000000000033881454741PAO GOVT OF AP Hyderabad salary    STATE BANK OF INDIA SECRETARIAT    10138437892                     YKONDAMMA                          PD ADMINISTRATOR                            12PD ADMINISTRATOR                   URGENT  YKONDAMMA                                                 018189104       EMLdpao-sect@ap.nic.in             
R41000000000072290000000000000000000000000033881454741PAO GOVT OF AP Hyderabad salary    STATE BANK OF INDIA SECRETARIAT    30399833003                     EMARTHAMMA                         PD ADMINISTRATOR                            12PD ADMINISTRATOR                   URGENT  EMARTHAMMA                                                018189105       EMLdpao-sect@ap.nic.in             
R41000000000113990000000000000000000000000033881454741PAO GOVT OF AP Hyderabad salary    STATE BANK OF INDIA SECRETARIAT    30530395309                     BPULLAMMA                          PD ADMINISTRATOR                            12PD ADMINISTRATOR                   URGENT  BPULLAMMA                                                 018189106       EMLdpao-sect@ap.nic.in             
R41000000000046050000000000000000000000000033881454741PAO GOVT OF AP Hyderabad salary    STATE BANK OF INDIA SECRETARIAT    10138423437                     TKUMARI(EMP)                       PD ADMINISTRATOR                            12PD ADMINISTRATOR                   URGENT  TKUMARI(EMP)                                              018189107       EMLdpao-sect@ap.nic.in             
R41000000000071550000000000000000000000000033881454741PAO GOVT OF AP Hyderabad salary    STATE BANK OF INDIA SECRETARIAT    10138437246                     SJANAKIRAMAIAH                     PD ADMINISTRATOR                            12PD ADMINISTRATOR                   URGENT  SJANAKIRAMAIAH                                            018189108       EMLdpao-sect@ap.nic.in             
R41000000000071550000000000000000000000000033881454741PAO GOVT OF AP Hyderabad salary    STATE BANK OF INDIA SECRETARIAT    10138435443                     BRAMULAMMA                         PD ADMINISTRATOR                            12PD ADMINISTRATOR                   URGENT  BRAMULAMMA                                                018189109       EMLdpao-sect@ap.nic.in             
R41000000000071550000000000000000000000000033881454741PAO GOVT OF AP Hyderabad salary    STATE BANK OF INDIA SECRETARIAT    10138437927                     RSAVITRAMMA                        PD ADMINISTRATOR                            12PD ADMINISTRATOR                   URGENT  RSAVITRAMMA                                               018189110       EMLdpao-sect@ap.nic.in             
R41000000000074250000000000000000000000000033881454741PAO GOVT OF AP Hyderabad salary    STATE BANK OF INDIA SECRETARIAT    10138401683                     GVENKATESWARAMMA                   PD ADMINISTRATOR                            12PD ADMINISTRATOR                   URGENT  GVENKATESWARAMMA                                          018189111       EMLdpao-sect@ap.nic.in             
R41000000000082350000000000000000000000000033881454741PAO GOVT OF AP Hyderabad salary    STATE BANK OF INDIA SECRETARIAT    30016573540                     TPULLAMMA                          PD ADMINISTRATOR                            12PD ADMINISTRATOR                   URGENT  TPULLAMMA                                                 018189112       EMLdpao-sect@ap.nic.in             
R41000000000071550000000000000000000000000033881454741PAO GOVT OF AP Hyderabad salary    STATE BANK OF INDIA SECRETARIAT    10138437994                     CHKAMALAMM                         PD ADMINISTRATOR                            12PD ADMINISTRATOR                   URGENT  CHKAMALAMM                                                018189113       EMLdpao-sect@ap.nic.in             
R41000000000170060000000000000000000000000033881454741PAO GOVT OF AP Hyderabad salary    STATE BANK OF INDIA SECRETARIAT    33041694927                     PTEREJAMMA                         PD ADMINISTRATOR                            12PD ADMINISTRATOR                   URGENT  PTEREJAMMA                                                018189114       EMLdpao-sect@ap.nic.in             
R41000000000094070000000000000000000000000033881454741PAO GOVT OF AP Hyderabad salary    STATE BANK OF INDIA SECRETARIAT    33039162215                     MNAGALAXIMI                        PD ADMINISTRATOR                            13PD ADMINISTRATOR                   URGENT  MNAGALAXIMI                                               018189115       EMLdpao-sect@ap.nic.in             
R41000000000086670000000000000000000000000033881454741PAO GOVT OF AP Hyderabad salary    STATE BANK OF INDIA SECRETARIAT    11359960109                     SKBADARUNNISA                      PD ADMINISTRATOR                            14PD ADMINISTRATOR                   URGENT  SKBADARUNNISA                                             018189116       EMLdpao-sect@ap.nic.in             
R41000000000169990000000000000000000000000033881454741PAO GOVT OF AP Hyderabad salary    STATE BANK OF INDIA SECRETARIAT    11359963983                     RRAMA RAO                          PD ADMINISTRATOR                            14PD ADMINISTRATOR                   URGENT  RRAMA RAO                                                 018189117       EMLdpao-sect@ap.nic.in             
R41000000000100560000000000000000000000000033881454741PAO GOVT OF AP Hyderabad salary    STATE BANK OF INDIA SECRETARIAT    11359961432                     ESOMAIAH                           PD ADMINISTRATOR                            14PD ADMINISTRATOR                   URGENT  ESOMAIAH                                                  018189118       EMLdpao-sect@ap.nic.in             
R41000000000071550000000000000000000000000033881454741PAO GOVT OF AP Hyderabad salary    STATE BANK OF INDIA SECRETARIAT    11359960472                     BNAGESWARA RAO                     PD ADMINISTRATOR                            14PD ADMINISTRATOR                   URGENT  BNAGESWARA RAO                                            018189119       EMLdpao-sect@ap.nic.in             
R41000000000114970000000000000000000000000033881454741PAO GOVT OF AP Hyderabad salary    STATE BANK OF INDIA SECRETARIAT    11359965426                     KVENKATESWARA RAO                  PD ADMINISTRATOR                            14PD ADMINISTRATOR                   URGENT  KVENKATESWARA RAO                                         018189120       EMLdpao-sect@ap.nic.in             
R41000000000119400000000000000000000000000033881454741PAO GOVT OF AP Hyderabad salary    STATE BANK OF INDIA SECRETARIAT    11359934180                     PVSURYANARAYANA RAJU               PD ADMINISTRATOR                            14PD ADMINISTRATOR                   URGENT  PVSURYANARAYANA RAJU                                      018189121       EMLdpao-sect@ap.nic.in             
R41000000000119400000000000000000000000000033881454741PAO GOVT OF AP Hyderabad salary    STATE BANK OF INDIA SECRETARIAT    11359966112                     KVENKATAPULLAYYA                   PD ADMINISTRATOR                            14PD ADMINISTRATOR                   URGENT  KVENKATAPULLAYYA                                          018189122       EMLdpao-sect@ap.nic.in             
R41000000000093660000000000000000000000000033881454741PAO GOVT OF AP Hyderabad salary    STATE BANK OF INDIA SECRETARIAT    11359962254                     KVSUBBAMMA                         PD ADMINISTRATOR                            14PD ADMINISTRATOR                   URGENT  KVSUBBAMMA                                                018189123       EMLdpao-sect@ap.nic.in             
R41000000000107900000000000000000000000000033881454741PAO GOVT OF AP Hyderabad salary    STATE BANK OF INDIA SECRETARIAT    11359922732                     MNARASAMMA                         PD ADMINISTRATOR                            14PD ADMINISTRATOR                   URGENT  MNARASAMMA                                                018189124       EMLdpao-sect@ap.nic.in             
R41000000000074300000000000000000000000000033881454741PAO GOVT OF AP Hyderabad salary    STATE BANK OF INDIA SECRETARIAT    11359964411                     TSIMHACHALAM                       PD ADMINISTRATOR                            14PD ADMINISTRATOR                   URGENT  TSIMHACHALAM                                              018189125       EMLdpao-sect@ap.nic.in             
R41000000000110720000000000000000000000000033881454741PAO GOVT OF AP Hyderabad salary    STATE BANK OF INDIA SECRETARIAT    11359947474                     BNANCHARAMMA                       PD ADMINISTRATOR                            14PD ADMINISTRATOR                   URGENT  BNANCHARAMMA                                              018189126       EMLdpao-sect@ap.nic.in             
R41000000000110640000000000000000000000000033881454741PAO GOVT OF AP Hyderabad salary    STATE BANK OF INDIA SECRETARIAT    11359960552                     CHCHVENKATA SUBBAMMA               PD ADMINISTRATOR                            14PD ADMINISTRATOR                   URGENT  CHCHVENKATA SUBBAMMA                                      018189127       EMLdpao-sect@ap.nic.in             
R41000000000078230000000000000000000000000033881454741PAO GOVT OF AP Hyderabad salary    STATE BANK OF INDIA SECRETARIAT    30312407157                     CHCHALIVELAMMA                     PD ADMINISTRATOR                            14PD ADMINISTRATOR                   URGENT  CHCHALIVELAMMA                                            018189128       EMLdpao-sect@ap.nic.in             
R41000000000129450000000000000000000000000033881454741PAO GOVT OF AP Hyderabad salary    STATE BANK OF INDIA SECRETARIAT    32276339687                     BSATTEMMA                          PD ADMINISTRATOR                            14PD ADMINISTRATOR                   URGENT  BSATTEMMA                                                 018189129       EMLdpao-sect@ap.nic.in             
R41000000000075490000000000000000000000000033881454741PAO GOVT OF AP Hyderabad salary    STATE BANK OF INDIA SECRETARIAT    11527204416                     NSURYA NARAYANAMMA                 PD ADMINISTRATOR                            15PD ADMINISTRATOR                   URGENT  NSURYA NARAYANAMMA                                        018189130       EMLdpao-sect@ap.nic.in             
R41000000000002260000000000000000000000000033881454741PAO GOVT OF AP Hyderabad salary    STATE BANK OF INDIA SECRETARIAT    11527233866                     BTEREJAMMA                         PD ADMINISTRATOR                            15PD ADMINISTRATOR                   URGENT  BTEREJAMMA                                                018189131       EMLdpao-sect@ap.nic.in             
R41000000000078410000000000000000000000000033881454741PAO GOVT OF AP Hyderabad salary    STATE BANK OF INDIA SECRETARIAT    11527234543                     PRAVAMMA                           PD ADMINISTRATOR                            15PD ADMINISTRATOR                   URGENT  PRAVAMMA                                                  018189132       EMLdpao-sect@ap.nic.in             
R41000000000069110000000000000000000000000033881454741PAO GOVT OF AP Hyderabad salary    STATE BANK OF INDIA SECRETARIAT    11527233866                     BTEREJAMMA                         PD ADMINISTRATOR                            15PD ADMINISTRATOR                   URGENT  BTEREJAMMA                                                018189133       EMLdpao-sect@ap.nic.in             
R41000000000071550000000000000000000000000033881454741PAO GOVT OF AP Hyderabad salary    STATE BANK OF INDIA SECRETARIAT    11382530441                     YADALA YESAMMA                     PD ADMINISTRATOR                            16PD ADMINISTRATOR                   URGENT  YADALA YESAMMA                                            018189134       EMLdpao-sect@ap.nic.in             
R41000000000071550000000000000000000000000033881454741PAO GOVT OF AP Hyderabad salary    STATE BANK OF INDIA SECRETARIAT    11382550253                     IDANAMMA                           PD ADMINISTRATOR                            16PD ADMINISTRATOR                   URGENT  IDANAMMA                                                  018189135       EMLdpao-sect@ap.nic.in             
R41000000000069240000000000000000000000000033881454741PAO GOVT OF AP Hyderabad salary    STATE BANK OF INDIA SECRETARIAT    11382497640                     ESATYAVATHI                        PD ADMINISTRATOR                            16PD ADMINISTRATOR                   URGENT  ESATYAVATHI                                               018189136       EMLdpao-sect@ap.nic.in             
R41000000000102660000000000000000000000000033881454741PAO GOVT OF AP Hyderabad salary    STATE BANK OF INDIA SECRETARIAT    11382549816                     BVRAMANAMMA                        PD ADMINISTRATOR                            16PD ADMINISTRATOR                   URGENT  BVRAMANAMMA                                               018189137       EMLdpao-sect@ap.nic.in             
R41000000000105700000000000000000000000000033881454741PAO GOVT OF AP Hyderabad salary    STATE BANK OF INDIA SECRETARIAT    11382550559                     KKOTIRATNAMMA                      PD ADMINISTRATOR                            16PD ADMINISTRATOR                   URGENT  KKOTIRATNAMMA                                             018189138       EMLdpao-sect@ap.nic.in             
R41000000000147930000000000000000000000000033881454741PAO GOVT OF AP Hyderabad salary    STATE BANK OF INDIA SECRETARIAT    31019934247                     NABRAHAM                           PD ADMINISTRATOR                            16PD ADMINISTRATOR                   URGENT  NABRAHAM                                                  018189139       EMLdpao-sect@ap.nic.in             
R41000000000355440000000000000000000000000033881454741PAO GOVT OF AP Hyderabad salary    STATE BANK OF INDIA SECRETARIAT    34793275516                     SSUVARTHAMMA                       PD ADMINISTRATOR                            16PD ADMINISTRATOR                   URGENT  SSUVARTHAMMA                                              018189140       EMLdpao-sect@ap.nic.in             
R41000000000078230000000000000000000000000033881454741PAO GOVT OF AP Hyderabad salary    STATE BANK OF INDIA SECRETARIAT    30194363139                     MYOGAESWARI                        PD ADMINISTRATOR                            17PD ADMINISTRATOR                   URGENT  MYOGAESWARI                                               018189141       EMLdpao-sect@ap.nic.in             
R41000000000075070000000000000000000000000033881454741PAO GOVT OF AP Hyderabad salary    STATE BANK OF INDIA SECRETARIAT    10616199773                     LSEETHAMAHALAKSHMI                 PD ADMINISTRATOR                            17PD ADMINISTRATOR                   URGENT  LSEETHAMAHALAKSHMI                                        018189142       EMLdpao-sect@ap.nic.in             
R41000000000046050000000000000000000000000033881454741PAO GOVT OF AP Hyderabad salary    STATE BANK OF INDIA SECRETARIAT    10494482485                     DPOLAMMA (EMP)                     PD ADMINISTRATOR                            17PD ADMINISTRATOR                   URGENT  DPOLAMMA (EMP)                                            018189143       EMLdpao-sect@ap.nic.in             
R41000000000074300000000000000000000000000033881454741PAO GOVT OF AP Hyderabad salary    STATE BANK OF INDIA SECRETARIAT    10494464341                     VSIMHACHALAM                       PD ADMINISTRATOR                            17PD ADMINISTRATOR                   URGENT  VSIMHACHALAM                                              018189144       EMLdpao-sect@ap.nic.in             
R41000000000044350000000000000000000000000033881454741PAO GOVT OF AP Hyderabad salary    STATE BANK OF INDIA SECRETARIAT    10494488216                     DTIRUPATAMMA(EMP)                  PD ADMINISTRATOR                            17PD ADMINISTRATOR                   URGENT  DTIRUPATAMMA(EMP)                                         018189145       EMLdpao-sect@ap.nic.in             
R41000000000071550000000000000000000000000033881454741PAO GOVT OF AP Hyderabad salary    STATE BANK OF INDIA SECRETARIAT    10494453645                     GSAMPOORNAMMA                      PD ADMINISTRATOR                            17PD ADMINISTRATOR                   URGENT  GSAMPOORNAMMA                                             018189146       EMLdpao-sect@ap.nic.in             
R41000000000046050000000000000000000000000033881454741PAO GOVT OF AP Hyderabad salary    STATE BANK OF INDIA SECRETARIAT    10494490994                     DSIMHACHALAM (EMP)                 PD ADMINISTRATOR                            17PD ADMINISTRATOR                   URGENT  DSIMHACHALAM (EMP)                                        018189147       EMLdpao-sect@ap.nic.in             
R41000000000071550000000000000000000000000033881454741PAO GOVT OF AP Hyderabad salary    STATE BANK OF INDIA SECRETARIAT    10494466382                     BCHANDRA KANTHAMMA                 PD ADMINISTRATOR                            17PD ADMINISTRATOR                   URGENT  BCHANDRA KANTHAMMA                                        018189148       EMLdpao-sect@ap.nic.in             
R41000000000074300000000000000000000000000033881454741PAO GOVT OF AP Hyderabad salary    STATE BANK OF INDIA SECRETARIAT    10494490790                     NNAGENDRAMMA                       PD ADMINISTRATOR                            17PD ADMINISTRATOR                   URGENT  NNAGENDRAMMA                                              018189149       EMLdpao-sect@ap.nic.in             
R41000000000071550000000000000000000000000033881454741PAO GOVT OF AP Hyderabad salary    STATE BANK OF INDIA SECRETARIAT    10494490983                     KSANKARA RAO                       PD ADMINISTRATOR                            17PD ADMINISTRATOR                   URGENT  KSANKARA RAO                                              018189150       EMLdpao-sect@ap.nic.in             
R41000000000071550000000000000000000000000033881454741PAO GOVT OF AP Hyderabad salary    STATE BANK OF INDIA SECRETARIAT    10494475057                     DDURGAMMA                          PD ADMINISTRATOR                            17PD ADMINISTRATOR                   URGENT  DDURGAMMA                                                 018189151       EMLdpao-sect@ap.nic.in             
R41000000000108590000000000000000000000000033881454741PAO GOVT OF AP Hyderabad salary    STATE BANK OF INDIA SECRETARIAT    10494490994                     DSIMHACHALAM                       PD ADMINISTRATOR                            17PD ADMINISTRATOR                   URGENT  DSIMHACHALAM                                              018189152       EMLdpao-sect@ap.nic.in             
R41000000000046050000000000000000000000000033881454741PAO GOVT OF AP Hyderabad salary    STATE BANK OF INDIA SECRETARIAT    10494476276                     DNUKAMMA(EMP)                      PD ADMINISTRATOR                            17PD ADMINISTRATOR                   URGENT  DNUKAMMA(EMP)                                             018189153       EMLdpao-sect@ap.nic.in             
R41000000000071550000000000000000000000000033881454741PAO GOVT OF AP Hyderabad salary    STATE BANK OF INDIA SECRETARIAT    10494491400                     KKONDAMMA                          PD ADMINISTRATOR                            17PD ADMINISTRATOR                   URGENT  KKONDAMMA                                                 018189154       EMLdpao-sect@ap.nic.in             
R41000000000073020000000000000000000000000033881454741PAO GOVT OF AP Hyderabad salary    STATE BANK OF INDIA SECRETARIAT    10494478717                     GNAGENDRAMMA                       PD ADMINISTRATOR                            17PD ADMINISTRATOR                   URGENT  GNAGENDRAMMA                                              018189155       EMLdpao-sect@ap.nic.in             
R41000000000044350000000000000000000000000033881454741PAO GOVT OF AP Hyderabad salary    STATE BANK OF INDIA SECRETARIAT    30030335438                     KDURGAMMA (EMP)                    PD ADMINISTRATOR                            17PD ADMINISTRATOR                   URGENT  KDURGAMMA (EMP)                                           018189156       EMLdpao-sect@ap.nic.in             
R41000000000119400000000000000000000000000033881454741PAO GOVT OF AP Hyderabad salary    STATE BANK OF INDIA SECRETARIAT    30089672681                     VVEERASWAMY                        PD ADMINISTRATOR                            17PD ADMINISTRATOR                   URGENT  VVEERASWAMY                                               018189157       EMLdpao-sect@ap.nic.in             
R41000000000119400000000000000000000000000033881454741PAO GOVT OF AP Hyderabad salary    STATE BANK OF INDIA SECRETARIAT    30086422044                     VBHULAKSHMI                        PD ADMINISTRATOR                            17PD ADMINISTRATOR                   URGENT  VBHULAKSHMI                                               018189158       EMLdpao-sect@ap.nic.in             
R41000000000044350000000000000000000000000033881454741PAO GOVT OF AP Hyderabad salary    STATE BANK OF INDIA SECRETARIAT    30086422044                     VBHULAKSHMI(EMP)                   PD ADMINISTRATOR                            17PD ADMINISTRATOR                   URGENT  VBHULAKSHMI(EMP)                                          018189159       EMLdpao-sect@ap.nic.in             
R41000000000119050000000000000000000000000033881454741PAO GOVT OF AP Hyderabad salary    STATE BANK OF INDIA SECRETARIAT    30823462683                     KDURGAMMA                          PD ADMINISTRATOR                            17PD ADMINISTRATOR                   URGENT  KDURGAMMA                                                 018189160       EMLdpao-sect@ap.nic.in             
R41000000000119050000000000000000000000000033881454741PAO GOVT OF AP Hyderabad salary    STATE BANK OF INDIA SECRETARIAT    30823302469                     DPOLAMMA                           PD ADMINISTRATOR                            17PD ADMINISTRATOR                   URGENT  DPOLAMMA                                                  018189161       EMLdpao-sect@ap.nic.in             
R41000000000116350000000000000000000000000033881454741PAO GOVT OF AP Hyderabad salary    STATE BANK OF INDIA SECRETARIAT    30052485661                     SKDONTULAMMA                       PD ADMINISTRATOR                            17PD ADMINISTRATOR                   URGENT  SKDONTULAMMA                                              018189162       EMLdpao-sect@ap.nic.in             
R41000000000074300000000000000000000000000033881454741PAO GOVT OF AP Hyderabad salary    STATE BANK OF INDIA SECRETARIAT    10494452574                     DMARIYAMMA                         PD ADMINISTRATOR                            17PD ADMINISTRATOR                   URGENT  DMARIYAMMA                                                018189163       EMLdpao-sect@ap.nic.in             
R41000000000071550000000000000000000000000033881454741PAO GOVT OF AP Hyderabad salary    STATE BANK OF INDIA SECRETARIAT    10494450316                     ADAVID                             PD ADMINISTRATOR                            17PD ADMINISTRATOR                   URGENT  ADAVID                                                    018189164       EMLdpao-sect@ap.nic.in             
R41000000000097590000000000000000000000000033881454741PAO GOVT OF AP Hyderabad salary    STATE BANK OF INDIA SECRETARIAT    10494467024                     NSRIRAMULU                         PD ADMINISTRATOR                            17PD ADMINISTRATOR                   URGENT  NSRIRAMULU                                                018189165       EMLdpao-sect@ap.nic.in             
R41000000000079380000000000000000000000000033881454741PAO GOVT OF AP Hyderabad salary    STATE BANK OF INDIA SECRETARIAT    30523299728                     KPAPA                              PD ADMINISTRATOR                            17PD ADMINISTRATOR                   URGENT  KPAPA                                                     018189166       EMLdpao-sect@ap.nic.in             
R41000000000071550000000000000000000000000033881454741PAO GOVT OF AP Hyderabad salary    STATE BANK OF INDIA SECRETARIAT    10494490927                     VCHINARAMUDU                       PD ADMINISTRATOR                            17PD ADMINISTRATOR                   URGENT  VCHINARAMUDU                                              018189167       EMLdpao-sect@ap.nic.in             
R41000000000074300000000000000000000000000033881454741PAO GOVT OF AP Hyderabad salary    STATE BANK OF INDIA SECRETARIAT    10494457367                     LVEERASWAMY                        PD ADMINISTRATOR                            17PD ADMINISTRATOR                   URGENT  LVEERASWAMY                                               018189168       EMLdpao-sect@ap.nic.in             
R41000000000094410000000000000000000000000033881454741PAO GOVT OF AP Hyderabad salary    STATE BANK OF INDIA SECRETARIAT    30376864131                     OKOWSALYA                          PD ADMINISTRATOR                            17PD ADMINISTRATOR                   URGENT  OKOWSALYA                                                 018189169       EMLdpao-sect@ap.nic.in             
R41000000000071550000000000000000000000000033881454741PAO GOVT OF AP Hyderabad salary    STATE BANK OF INDIA SECRETARIAT    33077839645                     UPUSHAPAVATHI                      PD ADMINISTRATOR                            17PD ADMINISTRATOR                   URGENT  UPUSHAPAVATHI                                             018189170       EMLdpao-sect@ap.nic.in             
R41000000000092040000000000000000000000000033881454741PAO GOVT OF AP Hyderabad salary    STATE BANK OF INDIA SECRETARIAT    11613609925                     GADEMMA                            PD ADMINISTRATOR                            18PD ADMINISTRATOR                   URGENT  GADEMMA                                                   018189171       EMLdpao-sect@ap.nic.in             
R41000000000098980000000000000000000000000033881454741PAO GOVT OF AP Hyderabad salary    STATE BANK OF INDIA SECRETARIAT    11613589135                     CHKAMESWARAMMA                     PD ADMINISTRATOR                            18PD ADMINISTRATOR                   URGENT  CHKAMESWARAMMA                                            018189172       EMLdpao-sect@ap.nic.in             
R41000000000119400000000000000000000000000033881454741PAO GOVT OF AP Hyderabad salary    STATE BANK OF INDIA SECRETARIAT    11613610476                     KSAI BABU                          PD ADMINISTRATOR                            18PD ADMINISTRATOR                   URGENT  KSAI BABU                                                 018189173       EMLdpao-sect@ap.nic.in             
R41000000000125530000000000000000000000000033881454741PAO GOVT OF AP Hyderabad salary    STATE BANK OF INDIA SECRETARIAT    11613610512                     KVENKATESWARA RAO                  PD ADMINISTRATOR                            18PD ADMINISTRATOR                   URGENT  KVENKATESWARA RAO                                         018189174       EMLdpao-sect@ap.nic.in             
R41000000000071550000000000000000000000000033881454741PAO GOVT OF AP Hyderabad salary    STATE BANK OF INDIA SECRETARIAT    34455864982                     MSAVITRAMMA                        PD ADMINISTRATOR                            19PD ADMINISTRATOR                   URGENT  MSAVITRAMMA                                               018189175       EMLdpao-sect@ap.nic.in             
R41000000000071550000000000000000000000000033881454741PAO GOVT OF AP Hyderabad salary    STATE BANK OF INDIA SECRETARIAT    11621336842                     VNANCHARAMMA                       PD ADMINISTRATOR                            19PD ADMINISTRATOR                   URGENT  VNANCHARAMMA                                              018189176       EMLdpao-sect@ap.nic.in             
R41000000000115840000000000000000000000000033881454741PAO GOVT OF AP Hyderabad salary    STATE BANK OF INDIA SECRETARIAT    30430091304                     MBASAVAPUNAMMA                     PD ADMINISTRATOR                            19PD ADMINISTRATOR                   URGENT  MBASAVAPUNAMMA                                            018189177       EMLdpao-sect@ap.nic.in             
R41000000000222900000000000000000000000000033881454741PAO GOVT OF AP Hyderabad salary    STATE BANK OF INDIA SECRETARIAT    31552502003                     NMUTHAMMA                          PD ADMINISTRATOR                            19PD ADMINISTRATOR                   URGENT  NMUTHAMMA                                                 018189178       EMLdpao-sect@ap.nic.in             
R41000000000097350000000000000000000000000033881454741PAO GOVT OF AP Hyderabad salary    STATE BANK OF INDIA SECRETARIAT    11621336773                     SKRAHIMUNNISA                      PD ADMINISTRATOR                            19PD ADMINISTRATOR                   URGENT  SKRAHIMUNNISA                                             018189179       EMLdpao-sect@ap.nic.in             
R41000000000071550000000000000000000000000033881454741PAO GOVT OF AP Hyderabad salary    STATE BANK OF INDIA SECRETARIAT    11643950675                     ASIMHADRAMMA                       PD ADMINISTRATOR                            20PD ADMINISTRATOR                   URGENT  ASIMHADRAMMA                                              018189180       EMLdpao-sect@ap.nic.in             
R41000000000214650000000000000000000000000033881454741PAO GOVT OF AP Hyderabad salary    STATE BANK OF INDIA SECRETARIAT    31776108343                     PLAKSHMAMMA                        PD ADMINISTRATOR                            20PD ADMINISTRATOR                   URGENT  PLAKSHMAMMA                                               018189181       EMLdpao-sect@ap.nic.in             
R41000000000044350000000000000000000000000033881454741PAO GOVT OF AP Hyderabad salary    STATE BANK OF INDIA SECRETARIAT    11499897395                     BLAKSHMI(EMP)                      PD ADMINISTRATOR                            21PD ADMINISTRATOR                   URGENT  BLAKSHMI(EMP)                                             018189182       EMLdpao-sect@ap.nic.in             
R41000000000071550000000000000000000000000033881454741PAO GOVT OF AP Hyderabad salary    STATE BANK OF INDIA SECRETARIAT    11499898333                     MNAGESWARAMMA                      PD ADMINISTRATOR                            21PD ADMINISTRATOR                   URGENT  MNAGESWARAMMA                                             018189183       EMLdpao-sect@ap.nic.in             
R41000000000069370000000000000000000000000033881454741PAO GOVT OF AP Hyderabad salary    STATE BANK OF INDIA SECRETARIAT    11499898832                     PRANGA RAO                         PD ADMINISTRATOR                            21PD ADMINISTRATOR                   URGENT  PRANGA RAO                                                018189184       EMLdpao-sect@ap.nic.in             
R41000000000116350000000000000000000000000033881454741PAO GOVT OF AP Hyderabad salary    STATE BANK OF INDIA SECRETARIAT    11499897395                     BLAXIMI                            PD ADMINISTRATOR                            21PD ADMINISTRATOR                   URGENT  BLAXIMI                                                   018189185       EMLdpao-sect@ap.nic.in             
R41000000000100390000000000000000000000000033881454741PAO GOVT OF AP Hyderabad salary    STATE BANK OF INDIA SECRETARIAT    11499898616                     NBANGARAMMA                        PD ADMINISTRATOR                            21PD ADMINISTRATOR                   URGENT  NBANGARAMMA                                               018189186       EMLdpao-sect@ap.nic.in             
R41000000000071550000000000000000000000000033881454741PAO GOVT OF AP Hyderabad salary    STATE BANK OF INDIA SECRETARIAT    11499899700                     KCHIRANJEEVI                       PD ADMINISTRATOR                            21PD ADMINISTRATOR                   URGENT  KCHIRANJEEVI                                              018189187       EMLdpao-sect@ap.nic.in             
R41000000000119050000000000000000000000000033881454741PAO GOVT OF AP Hyderabad salary    STATE BANK OF INDIA SECRETARIAT    11499903478                     T TAYARAMMA                        PD ADMINISTRATOR                            21PD ADMINISTRATOR                   URGENT  T TAYARAMMA                                               018189188       EMLdpao-sect@ap.nic.in             
R41000000000045960000000000000000000000000033881454741PAO GOVT OF AP Hyderabad salary    STATE BANK OF INDIA SECRETARIAT    11499898785                     PNANCHARAMMA (EMP)                 PD ADMINISTRATOR                            21PD ADMINISTRATOR                   URGENT  PNANCHARAMMA (EMP)                                        018189189       EMLdpao-sect@ap.nic.in             
R41000000000102660000000000000000000000000033881454741PAO GOVT OF AP Hyderabad salary    STATE BANK OF INDIA SECRETARIAT    11499900160                     TBHIKSHALU                         PD ADMINISTRATOR                            21PD ADMINISTRATOR                   URGENT  TBHIKSHALU                                                018189190       EMLdpao-sect@ap.nic.in             
R41000000000084410000000000000000000000000033881454741PAO GOVT OF AP Hyderabad salary    STATE BANK OF INDIA SECRETARIAT    11499899518                     K NAKSHATRAM                       PD ADMINISTRATOR                            21PD ADMINISTRATOR                   URGENT  K NAKSHATRAM                                              018189191       EMLdpao-sect@ap.nic.in             
R41000000000071550000000000000000000000000033881454741PAO GOVT OF AP Hyderabad salary    STATE BANK OF INDIA SECRETARIAT    33546705007                     KBASAVARATNAM                      PD ADMINISTRATOR                            21PD ADMINISTRATOR                   URGENT  KBASAVARATNAM                                             018189192       EMLdpao-sect@ap.nic.in             
R41000000000160850000000000000000000000000033881454741PAO GOVT OF AP Hyderabad salary    STATE BANK OF INDIA SECRETARIAT    33573920703                     KSAKUNTHALA                        PD ADMINISTRATOR                            21PD ADMINISTRATOR                   URGENT  KSAKUNTHALA                                               018189193       EMLdpao-sect@ap.nic.in             
R41000000000143940000000000000000000000000033881454741PAO GOVT OF AP Hyderabad salary    STATE BANK OF INDIA SECRETARIAT    32597885075                     EEGE PAPARAO                       PD ADMINISTRATOR                            21PD ADMINISTRATOR                   URGENT  EEGE PAPARAO                                              018189194       EMLdpao-sect@ap.nic.in             
R41000000000075070000000000000000000000000033881454741PAO GOVT OF AP Hyderabad salary    STATE BANK OF INDIA SECRETARIAT    11394566281                     DRAMUDU                            PD ADMINISTRATOR                            22PD ADMINISTRATOR                   URGENT  DRAMUDU                                                   018189195       EMLdpao-sect@ap.nic.in             
R41000000000074300000000000000000000000000033881454741PAO GOVT OF AP Hyderabad salary    STATE BANK OF INDIA SECRETARIAT    11394567296                     MRAMANAMMA                         PD ADMINISTRATOR                            22PD ADMINISTRATOR                   URGENT  MRAMANAMMA                                                018189196       EMLdpao-sect@ap.nic.in             
R41000000000046050000000000000000000000000033881454741PAO GOVT OF AP Hyderabad salary    STATE BANK OF INDIA SECRETARIAT    11394568063                     PVIJAYALAKSHMI(EMP)                PD ADMINISTRATOR                            22PD ADMINISTRATOR                   URGENT  PVIJAYALAKSHMI(EMP)                                       018189197       EMLdpao-sect@ap.nic.in             
R41000000000087780000000000000000000000000033881454741PAO GOVT OF AP Hyderabad salary    STATE BANK OF INDIA SECRETARIAT    11394568711                     TVENKATESWARLU                     PD ADMINISTRATOR                            22PD ADMINISTRATOR                   URGENT  TVENKATESWARLU                                            018189198       EMLdpao-sect@ap.nic.in             
R41000000000071550000000000000000000000000033881454741PAO GOVT OF AP Hyderabad salary    STATE BANK OF INDIA SECRETARIAT    11394567999                     PANASUYA                           PD ADMINISTRATOR                            22PD ADMINISTRATOR                   URGENT  PANASUYA                                                  018189199       EMLdpao-sect@ap.nic.in             
R41000000000108580000000000000000000000000033881454741PAO GOVT OF AP Hyderabad salary    STATE BANK OF INDIA SECRETARIAT    11394568642                     TANJANEYULU                        PD ADMINISTRATOR                            22PD ADMINISTRATOR                   URGENT  TANJANEYULU                                               018189200       EMLdpao-sect@ap.nic.in             
R41000000000071550000000000000000000000000033881454741PAO GOVT OF AP Hyderabad salary    STATE BANK OF INDIA SECRETARIAT    11394534656                     KNAGARATNAM                        PD ADMINISTRATOR                            22PD ADMINISTRATOR                   URGENT  KNAGARATNAM                                               018189201       EMLdpao-sect@ap.nic.in             
R41000000000122460000000000000000000000000033881454741PAO GOVT OF AP Hyderabad salary    STATE BANK OF INDIA SECRETARIAT    11394554651                     MSUBBA RAO                         PD ADMINISTRATOR                            22PD ADMINISTRATOR                   URGENT  MSUBBA RAO                                                018189202       EMLdpao-sect@ap.nic.in             
R41000000000071550000000000000000000000000033881454741PAO GOVT OF AP Hyderabad salary    STATE BANK OF INDIA SECRETARIAT    11394569703                     VLAKSHMI                           PD ADMINISTRATOR                            22PD ADMINISTRATOR                   URGENT  VLAKSHMI                                                  018189203       EMLdpao-sect@ap.nic.in             
R41000000000072540000000000000000000000000033881454741PAO GOVT OF AP Hyderabad salary    STATE BANK OF INDIA SECRETARIAT    30388802158                     BSATYANARAYANAMMA                  PD ADMINISTRATOR                            22PD ADMINISTRATOR                   URGENT  BSATYANARAYANAMMA                                         018189204       EMLdpao-sect@ap.nic.in             
R41000000000113530000000000000000000000000033881454741PAO GOVT OF AP Hyderabad salary    STATE BANK OF INDIA SECRETARIAT    30779885392                     PANKALU                            PD ADMINISTRATOR                            22PD ADMINISTRATOR                   URGENT  PANKALU                                                   018189205       EMLdpao-sect@ap.nic.in             
R41000000000071550000000000000000000000000033881454741PAO GOVT OF AP Hyderabad salary    STATE BANK OF INDIA SECRETARIAT    11394566724                     KARJUNUDU                          PD ADMINISTRATOR                            22PD ADMINISTRATOR                   URGENT  KARJUNUDU                                                 018189206       EMLdpao-sect@ap.nic.in             
R41000000000103040000000000000000000000000033881454741PAO GOVT OF AP Hyderabad salary    STATE BANK OF INDIA SECRETARIAT    11394566361                     DSEETHAMAHALAKSHMI                 PD ADMINISTRATOR                            22PD ADMINISTRATOR                   URGENT  DSEETHAMAHALAKSHMI                                        018189207       EMLdpao-sect@ap.nic.in             
R41000000000110720000000000000000000000000033881454741PAO GOVT OF AP Hyderabad salary    STATE BANK OF INDIA SECRETARIAT    11394533211                     KRANGAMMA                          PD ADMINISTRATOR                            22PD ADMINISTRATOR                   URGENT  KRANGAMMA                                                 018189208       EMLdpao-sect@ap.nic.in             
R41000000000110720000000000000000000000000033881454741PAO GOVT OF AP Hyderabad salary    STATE BANK OF INDIA SECRETARIAT    11394537817                     KNANCHARAMMA                       PD ADMINISTRATOR                            22PD ADMINISTRATOR                   URGENT  KNANCHARAMMA                                              018189209       EMLdpao-sect@ap.nic.in             
R41000000000116350000000000000000000000000033881454741PAO GOVT OF AP Hyderabad salary    STATE BANK OF INDIA SECRETARIAT    11394489056                     VGANGAMMA                          PD ADMINISTRATOR                            22PD ADMINISTRATOR                   URGENT  VGANGAMMA                                                 018189210       EMLdpao-sect@ap.nic.in             
R41000000000112620000000000000000000000000033881454741PAO GOVT OF AP Hyderabad salary    STATE BANK OF INDIA SECRETARIAT    31053576844                     AMAMILLAMMA                        PD ADMINISTRATOR                            22PD ADMINISTRATOR                   URGENT  AMAMILLAMMA                                               018189211       EMLdpao-sect@ap.nic.in             
R41000000000113900000000000000000000000000033881454741PAO GOVT OF AP Hyderabad salary    STATE BANK OF INDIA SECRETARIAT    11394567003                     KKRISHNA MURTHY                    PD ADMINISTRATOR                            22PD ADMINISTRATOR                   URGENT  KKRISHNA MURTHY                                           018189212       EMLdpao-sect@ap.nic.in             
R41000000000071550000000000000000000000000033881454741PAO GOVT OF AP Hyderabad salary    STATE BANK OF INDIA SECRETARIAT    30707771229                     APITCHAMMA                         PD ADMINISTRATOR                            22PD ADMINISTRATOR                   URGENT  APITCHAMMA                                                018189213       EMLdpao-sect@ap.nic.in             
R41000000000103730000000000000000000000000033881454741PAO GOVT OF AP Hyderabad salary    STATE BANK OF INDIA SECRETARIAT    11394485041                     SNARASIMHULU                       PD ADMINISTRATOR                            22PD ADMINISTRATOR                   URGENT  SNARASIMHULU                                              018189214       EMLdpao-sect@ap.nic.in             
R41000000000147710000000000000000000000000033881454741PAO GOVT OF AP Hyderabad salary    STATE BANK OF INDIA SECRETARIAT    11394461700                     DSURYAKUMARI                       PD ADMINISTRATOR                            22PD ADMINISTRATOR                   URGENT  DSURYAKUMARI                                              018189215       EMLdpao-sect@ap.nic.in             
R41000000000127100000000000000000000000000033881454741PAO GOVT OF AP Hyderabad salary    STATE BANK OF INDIA SECRETARIAT    32732503255                     KMASTAN NAGOOR                     PD ADMINISTRATOR                            22PD ADMINISTRATOR                   URGENT  KMASTAN NAGOOR                                            018189216       EMLdpao-sect@ap.nic.in             
R41000000000147930000000000000000000000000033881454741PAO GOVT OF AP Hyderabad salary    STATE BANK OF INDIA SECRETARIAT    20170127137                     MINDIRA                            PD ADMINISTRATOR                            22PD ADMINISTRATOR                   URGENT  MINDIRA                                                   018189217       EMLdpao-sect@ap.nic.in             
R41000000000046530000000000000000000000000033881454741PAO GOVT OF AP Hyderabad salary    STATE BANK OF INDIA SECRETARIAT    10052473187                     BVIJAYAKUMARI(EMP)                 PD ADMINISTRATOR                            23PD ADMINISTRATOR                   URGENT  BVIJAYAKUMARI(EMP)                                        018189218       EMLdpao-sect@ap.nic.in             
R41000000000075070000000000000000000000000033881454741PAO GOVT OF AP Hyderabad salary    STATE BANK OF INDIA SECRETARIAT    30003871450                     MVRAMANA                           PD ADMINISTRATOR                            23PD ADMINISTRATOR                   URGENT  MVRAMANA                                                  018189219       EMLdpao-sect@ap.nic.in             
R41000000000076620000000000000000000000000033881454741PAO GOVT OF AP Hyderabad salary    STATE BANK OF INDIA SECRETARIAT    10052519102                     JVENKAYAMMA                        PD ADMINISTRATOR                            23PD ADMINISTRATOR                   URGENT  JVENKAYAMMA                                               018189220       EMLdpao-sect@ap.nic.in             
R41000000000075490000000000000000000000000033881454741PAO GOVT OF AP Hyderabad salary    STATE BANK OF INDIA SECRETARIAT    10074293428                     KANJANADEVI                        PD ADMINISTRATOR                            24PD ADMINISTRATOR                   URGENT  KANJANADEVI                                               018189221       EMLdpao-sect@ap.nic.in             
R41000000000074300000000000000000000000000033881454741PAO GOVT OF AP Hyderabad salary    STATE BANK OF INDIA SECRETARIAT    10074255223                     GVAZRAMMA                          PD ADMINISTRATOR                            24PD ADMINISTRATOR                   URGENT  GVAZRAMMA                                                 018189222       EMLdpao-sect@ap.nic.in             
R41000000000075070000000000000000000000000033881454741PAO GOVT OF AP Hyderabad salary    STATE BANK OF INDIA SECRETARIAT    10074259294                     SHAHAJIDI                          PD ADMINISTRATOR                            24PD ADMINISTRATOR                   URGENT  SHAHAJIDI                                                 018189223       EMLdpao-sect@ap.nic.in             
R41000000000075070000000000000000000000000033881454741PAO GOVT OF AP Hyderabad salary    STATE BANK OF INDIA SECRETARIAT    10873085329                     KRAJYALAKSHMI                      PD ADMINISTRATOR                            25PD ADMINISTRATOR                   URGENT  KRAJYALAKSHMI                                             018189224       EMLdpao-sect@ap.nic.in             
R41000000000074300000000000000000000000000033881454741PAO GOVT OF AP Hyderabad salary    STATE BANK OF INDIA SECRETARIAT    10873151145                     K SARASWATHI                       PD ADMINISTRATOR                            25PD ADMINISTRATOR                   URGENT  K SARASWATHI                                              018189225       EMLdpao-sect@ap.nic.in             
R41000000000071550000000000000000000000000033881454741PAO GOVT OF AP Hyderabad salary    STATE BANK OF INDIA SECRETARIAT    10873151258                     BDAMAYANTHI                        PD ADMINISTRATOR                            25PD ADMINISTRATOR                   URGENT  BDAMAYANTHI                                               018189226       EMLdpao-sect@ap.nic.in             
R41000000000075070000000000000000000000000033881454741PAO GOVT OF AP Hyderabad salary    STATE BANK OF INDIA SECRETARIAT    10873102903                     PAHALYABAI                         PD ADMINISTRATOR                            25PD ADMINISTRATOR                   URGENT  PAHALYABAI                                                018189227       EMLdpao-sect@ap.nic.in             
R41000000000107390000000000000000000000000033881454741PAO GOVT OF AP Hyderabad salary    STATE BANK OF INDIA SECRETARIAT    10873150968                     BVENKATESWARLU                     PD ADMINISTRATOR                            25PD ADMINISTRATOR                   URGENT  BVENKATESWARLU                                            018189228       EMLdpao-sect@ap.nic.in             
R41000000000071550000000000000000000000000033881454741PAO GOVT OF AP Hyderabad salary    STATE BANK OF INDIA SECRETARIAT    10873150753                     LVARALAKSHMI                       PD ADMINISTRATOR                            25PD ADMINISTRATOR                   URGENT  LVARALAKSHMI                                              018189229       EMLdpao-sect@ap.nic.in             
R41000000000096430000000000000000000000000033881454741PAO GOVT OF AP Hyderabad salary    STATE BANK OF INDIA SECRETARIAT    10873150775                     LALBEE                             PD ADMINISTRATOR                            25PD ADMINISTRATOR                   URGENT  LALBEE                                                    018189230       EMLdpao-sect@ap.nic.in             
R41000000000075860000000000000000000000000033881454741PAO GOVT OF AP Hyderabad salary    STATE BANK OF INDIA SECRETARIAT    10873150742                     DRAVULAMMA                         PD ADMINISTRATOR                            25PD ADMINISTRATOR                   URGENT  DRAVULAMMA                                                018189231       EMLdpao-sect@ap.nic.in             
R41000000000081880000000000000000000000000033881454741PAO GOVT OF AP Hyderabad salary    STATE BANK OF INDIA SECRETARIAT    10873150764                     DVAZRAM                            PD ADMINISTRATOR                            25PD ADMINISTRATOR                   URGENT  DVAZRAM                                                   018189232       EMLdpao-sect@ap.nic.in             
R41000000000116350000000000000000000000000033881454741PAO GOVT OF AP Hyderabad salary    STATE BANK OF INDIA SECRETARIAT    10873155785                     AMEERUNNISA                        PD ADMINISTRATOR                            25PD ADMINISTRATOR                   URGENT  AMEERUNNISA                                               018189233       EMLdpao-sect@ap.nic.in             
R41000000000125530000000000000000000000000033881454741PAO GOVT OF AP Hyderabad salary    STATE BANK OF INDIA SECRETARIAT    30768193697                     CHTULASI DAS                       PD ADMINISTRATOR                            25PD ADMINISTRATOR                   URGENT  CHTULASI DAS                                              018189234       EMLdpao-sect@ap.nic.in             
R41000000000075490000000000000000000000000033881454741PAO GOVT OF AP Hyderabad salary    STATE BANK OF INDIA SECRETARIAT    10873150196                     RJAYALAKSHMI                       PD ADMINISTRATOR                            25PD ADMINISTRATOR                   URGENT  RJAYALAKSHMI                                              018189235       EMLdpao-sect@ap.nic.in             
R41000000000075070000000000000000000000000033881454741PAO GOVT OF AP Hyderabad salary    STATE BANK OF INDIA SECRETARIAT    10873151009                     SMAHALAKSHMAMMA                    PD ADMINISTRATOR                            25PD ADMINISTRATOR                   URGENT  SMAHALAKSHMAMMA                                           018189236       EMLdpao-sect@ap.nic.in             
R41000000000075070000000000000000000000000033881454741PAO GOVT OF AP Hyderabad salary    STATE BANK OF INDIA SECRETARIAT    10873115742                     NRANGANAYAKAMMA                    PD ADMINISTRATOR                            25PD ADMINISTRATOR                   URGENT  NRANGANAYAKAMMA                                           018189237       EMLdpao-sect@ap.nic.in             
R41000000000078390000000000000000000000000033881454741PAO GOVT OF AP Hyderabad salary    STATE BANK OF INDIA SECRETARIAT    10873086672                     MSAKUNTHALA                        PD ADMINISTRATOR                            25PD ADMINISTRATOR                   URGENT  MSAKUNTHALA                                               018189238       EMLdpao-sect@ap.nic.in             
R41000000000074300000000000000000000000000033881454741PAO GOVT OF AP Hyderabad salary    STATE BANK OF INDIA SECRETARIAT    10873151178                     JNANCHARAMA                        PD ADMINISTRATOR                            25PD ADMINISTRATOR                   URGENT  JNANCHARAMA                                               018189239       EMLdpao-sect@ap.nic.in             
R41000000000105700000000000000000000000000033881454741PAO GOVT OF AP Hyderabad salary    STATE BANK OF INDIA SECRETARIAT    10873114170                     ANANCHARAIAH                       PD ADMINISTRATOR                            25PD ADMINISTRATOR                   URGENT  ANANCHARAIAH                                              018189240       EMLdpao-sect@ap.nic.in             
R41000000000076700000000000000000000000000033881454741PAO GOVT OF AP Hyderabad salary    STATE BANK OF INDIA SECRETARIAT    10873151510                     KSAROJINI                          PD ADMINISTRATOR                            25PD ADMINISTRATOR                   URGENT  KSAROJINI                                                 018189241       EMLdpao-sect@ap.nic.in             
R41000000000094120000000000000000000000000033881454741PAO GOVT OF AP Hyderabad salary    STATE BANK OF INDIA SECRETARIAT    10873112627                     CHNANCHARAIAH                      PD ADMINISTRATOR                            25PD ADMINISTRATOR                   URGENT  CHNANCHARAIAH                                             018189242       EMLdpao-sect@ap.nic.in             
R41000000000122460000000000000000000000000033881454741PAO GOVT OF AP Hyderabad salary    STATE BANK OF INDIA SECRETARIAT    30443393572                     VVARA LAKSHMI                      PD ADMINISTRATOR                            25PD ADMINISTRATOR                   URGENT  VVARA LAKSHMI                                             018189243       EMLdpao-sect@ap.nic.in             
R41000000000088760000000000000000000000000033881454741PAO GOVT OF AP Hyderabad salary    STATE BANK OF INDIA SECRETARIAT    31167804070                     CHRPRASUNAMBA                      PD ADMINISTRATOR                            25PD ADMINISTRATOR                   URGENT  CHRPRASUNAMBA                                             018189244       EMLdpao-sect@ap.nic.in             
R41000000000125480000000000000000000000000033881454741PAO GOVT OF AP Hyderabad salary    STATE BANK OF INDIA SECRETARIAT    31689956041                     JVENKATESWARAMMA                   PD ADMINISTRATOR                            25PD ADMINISTRATOR                   URGENT  JVENKATESWARAMMA                                          018189245       EMLdpao-sect@ap.nic.in             
R41000000000071550000000000000000000000000033881454741PAO GOVT OF AP Hyderabad salary    STATE BANK OF INDIA SECRETARIAT    31827665321                     AAMMAJI                            PD ADMINISTRATOR                            25PD ADMINISTRATOR                   URGENT  AAMMAJI                                                   018189246       EMLdpao-sect@ap.nic.in             
R41000000000078230000000000000000000000000033881454741PAO GOVT OF AP Hyderabad salary    STATE BANK OF INDIA SECRETARIAT    11613705017                     KBHULAKSHMI                        PD ADMINISTRATOR                            26PD ADMINISTRATOR                   URGENT  KBHULAKSHMI                                               018189247       EMLdpao-sect@ap.nic.in             
R41000000000075490000000000000000000000000033881454741PAO GOVT OF AP Hyderabad salary    STATE BANK OF INDIA SECRETARIAT    11613703484                     KKANAKAMMA                         PD ADMINISTRATOR                            26PD ADMINISTRATOR                   URGENT  KKANAKAMMA                                                018189248       EMLdpao-sect@ap.nic.in             
R41000000000075490000000000000000000000000033881454741PAO GOVT OF AP Hyderabad salary    STATE BANK OF INDIA SECRETARIAT    11613703698                     KRENUKAMMA                         PD ADMINISTRATOR                            26PD ADMINISTRATOR                   URGENT  KRENUKAMMA                                                018189249       EMLdpao-sect@ap.nic.in             
R41000000000074440000000000000000000000000033881454741PAO GOVT OF AP Hyderabad salary    STATE BANK OF INDIA SECRETARIAT    11499439072                     CHKANNAMMA                         PD ADMINISTRATOR                            27PD ADMINISTRATOR                   URGENT  CHKANNAMMA                                                018189250       EMLdpao-sect@ap.nic.in             
R41000000000094410000000000000000000000000033881454741PAO GOVT OF AP Hyderabad salary    STATE BANK OF INDIA SECRETARIAT    11499493937                     KLAKSHMI                           PD ADMINISTRATOR                            27PD ADMINISTRATOR                   URGENT  KLAKSHMI                                                  018189251       EMLdpao-sect@ap.nic.in             
R41000000000091690000000000000000000000000033881454741PAO GOVT OF AP Hyderabad salary    STATE BANK OF INDIA SECRETARIAT    11499493201                     AMAHALAKSHMI                       PD ADMINISTRATOR                            27PD ADMINISTRATOR                   URGENT  AMAHALAKSHMI                                              018189252       EMLdpao-sect@ap.nic.in             
R41000000000111560000000000000000000000000033881454741PAO GOVT OF AP Hyderabad salary    STATE BANK OF INDIA SECRETARIAT    11499494760                     TVENKATA SITHAMAHALSKHMI           PD ADMINISTRATOR                            27PD ADMINISTRATOR                   URGENT  TVENKATA SITHAMAHALSKHMI                                  018189253       EMLdpao-sect@ap.nic.in             
R41000000000113530000000000000000000000000033881454741PAO GOVT OF AP Hyderabad salary    STATE BANK OF INDIA SECRETARIAT    11499431936                     MVMKAMALABAYAMMA                   PD ADMINISTRATOR                            27PD ADMINISTRATOR                   URGENT  MVMKAMALABAYAMMA                                          018189254       EMLdpao-sect@ap.nic.in             
R41000000000112620000000000000000000000000033881454741PAO GOVT OF AP Hyderabad salary    STATE BANK OF INDIA SECRETARIAT    30462878522                     N SUBBAMMA                         PD ADMINISTRATOR                            27PD ADMINISTRATOR                   URGENT  N SUBBAMMA                                                018189255       EMLdpao-sect@ap.nic.in             
R41000000000092450000000000000000000000000033881454741PAO GOVT OF AP Hyderabad salary    STATE BANK OF INDIA SECRETARIAT    11499493314                     BYOHAN                             PD ADMINISTRATOR                            27PD ADMINISTRATOR                   URGENT  BYOHAN                                                    018189256       EMLdpao-sect@ap.nic.in             
