R41000000003000000000000000000000000000000033881454741PD  GOVT OF AP Hyderabad salary    STATE BANK OF INDIA SECRETARIAT    142710011000536                 District Supply Officer Srikakulam CIVIL SUPPLIES AND CONSUMER  AFFAI ANDB0001427142710011000536                    URGENT  District Supply Officer S142710011000536 
R41000000003000000000000000000000000000000033881454741PD  GOVT OF AP Hyderabad salary    STATE BANK OF INDIA SECRETARIAT    144010011000284                 Collector (CS) East Godavari       CIVIL SUPPLIES AND CONSUMER  AFFAI ANDB0001440144010011000284                    URGENT  Collector (CS) East Godav144010011000284 
R41000000003000000000000000000000000000000033881454741PD  GOVT OF AP Hyderabad salary    STATE BANK OF INDIA SECRETARIAT    107110100049556                 Collector (CS) West Godavari       CIVIL SUPPLIES AND CONSUMER  AFFAI ANDB0001071107110100049556                    URGENT  Collector (CS) West Godav107110100049556 
R41000000003000000000000000000000000000000033881454741PD  GOVT OF AP Hyderabad salary    STATE BANK OF INDIA SECRETARIAT    142910011000655                 Collector (CS) Anantapur           CIVIL SUPPLIES AND CONSUMER  AFFAI ANDB0001429142910011000655                    URGENT  Collector (CS) Anantapur 142910011000655 
