R41000000000300000000000000000000000099999999999999999PAO GOVT OF AP Hyderabad salary    STATE BANK OF INDIA SECRETARIAT    33552210015296                  Shaik Aktarunnisa                  MINORITIES FINANCE COR LTD AP STAT SYNB000335533552210015296                     URGENT  Shaik Aktarunnisa        33552210015296  
R41000000000500000000000000000000000099999999999999999PAO GOVT OF AP Hyderabad salary    STATE BANK OF INDIA SECRETARIAT    62334099237                     Mohammed Imran                     MINORITIES FINANCE COR LTD AP STAT SBHY002077462334099237                        URGENT  Mohammed Imran           62334099237     
R41000000000500000000000000000000000099999999999999999PAO GOVT OF AP Hyderabad salary    STATE BANK OF INDIA SECRETARIAT    36712210027311                  Shaik Haseenabegam                 MINORITIES FINANCE COR LTD AP STAT SYNB000367136712210027311                     URGENT  Shaik Haseenabegam       36712210027311  
R41000000000675000000000000000000000099999999999999999PAO GOVT OF AP Hyderabad salary    STATE BANK OF INDIA SECRETARIAT    36712210027307                  Shaik China Baji                   MINORITIES FINANCE COR LTD AP STAT SYNB000367136712210027307                     URGENT  Shaik China Baji         36712210027307  
R41000000000030000000000000000000000099999999999999999PAO GOVT OF AP Hyderabad salary    STATE BANK OF INDIA SECRETARIAT    57210100081154                  Khyrunnisha Begum                  MINORITIES FINANCE COR LTD AP STAT ANDB000057257210100081154                     URGENT  Khyrunnisha Begum        57210100081154  
R41000000000300000000000000000000000099999999999999999PAO GOVT OF AP Hyderabad salary    STATE BANK OF INDIA SECRETARIAT    73010100101810                  Sheik Subhani Begam                MINORITIES FINANCE COR LTD AP STAT ANDB000073073010100101810                     URGENT  Sheik Subhani Begam      73010100101810  
R41000000000030000000000000000000000099999999999999999PAO GOVT OF AP Hyderabad salary    STATE BANK OF INDIA SECRETARIAT    57210100080997                  Meher Rubab                        MINORITIES FINANCE COR LTD AP STAT ANDB000057257210100080997                     URGENT  Meher Rubab              57210100080997  
R41000000000030000000000000000000000099999999999999999PAO GOVT OF AP Hyderabad salary    STATE BANK OF INDIA SECRETARIAT    57210100081127                  A Vazira Khaman                    MINORITIES FINANCE COR LTD AP STAT ANDB000057257210100081127                     URGENT  A Vazira Khaman          57210100081127  
R41000000000030000000000000000000000099999999999999999PAO GOVT OF AP Hyderabad salary    STATE BANK OF INDIA SECRETARIAT    57210100080960                  Pizadhanu                          MINORITIES FINANCE COR LTD AP STAT ANDB000057257210100080960                     URGENT  Pizadhanu                57210100080960  
R41000000000030000000000000000000000099999999999999999PAO GOVT OF AP Hyderabad salary    STATE BANK OF INDIA SECRETARIAT    57210100081057                  Naimunnisha                        MINORITIES FINANCE COR LTD AP STAT ANDB000057257210100081057                     URGENT  Naimunnisha              57210100081057  
R41000000000030000000000000000000000099999999999999999PAO GOVT OF AP Hyderabad salary    STATE BANK OF INDIA SECRETARIAT    57210100080906                  Sabiya Zahera                      MINORITIES FINANCE COR LTD AP STAT ANDB000057257210100080906                     URGENT  Sabiya Zahera            57210100080906  
R41000000000030000000000000000000000099999999999999999PAO GOVT OF AP Hyderabad salary    STATE BANK OF INDIA SECRETARIAT    57210100080924                  A Nargis Chan                      MINORITIES FINANCE COR LTD AP STAT ANDB000057257210100080924                     URGENT  A Nargis Chan            57210100080924  
R41000000000030000000000000000000000099999999999999999PAO GOVT OF AP Hyderabad salary    STATE BANK OF INDIA SECRETARIAT    57210100080951                  Sharmila                           MINORITIES FINANCE COR LTD AP STAT ANDB000057257210100080951                     URGENT  Sharmila                 57210100080951  
R41000000000030000000000000000000000099999999999999999PAO GOVT OF AP Hyderabad salary    STATE BANK OF INDIA SECRETARIAT    57210100081011                  Abbar Shahazadi                    MINORITIES FINANCE COR LTD AP STAT ANDB000057257210100081011                     URGENT  Abbar Shahazadi          57210100081011  
R41000000000030000000000000000000000099999999999999999PAO GOVT OF AP Hyderabad salary    STATE BANK OF INDIA SECRETARIAT    57210100081093                  Ummaru Bab                         MINORITIES FINANCE COR LTD AP STAT ANDB000057257210100081093                     URGENT  Ummaru Bab               57210100081093  
R41000000000030000000000000000000000099999999999999999PAO GOVT OF AP Hyderabad salary    STATE BANK OF INDIA SECRETARIAT    57210100081109                  Agneela Abbas                      MINORITIES FINANCE COR LTD AP STAT ANDB000057257210100081109                     URGENT  Agneela Abbas            57210100081109  
R41000000000030000000000000000000000099999999999999999PAO GOVT OF AP Hyderabad salary    STATE BANK OF INDIA SECRETARIAT    57210100080933                  Mohammad Dilshaad Begum            MINORITIES FINANCE COR LTD AP STAT ANDB000057257210100080933                     URGENT  Mohammad Dilshaad Begum  57210100080933  
R41000000000500000000000000000000000099999999999999999PAO GOVT OF AP Hyderabad salary    STATE BANK OF INDIA SECRETARIAT    102110100040689                 Sheik Bhaseer                      MINORITIES FINANCE COR LTD AP STAT ANDB0001021102110100040689                    URGENT  Sheik Bhaseer            102110100040689 
R41000000000030000000000000000000000099999999999999999PAO GOVT OF AP Hyderabad salary    STATE BANK OF INDIA SECRETARIAT    57210100081066                  Mohammad Shajid Begum              MINORITIES FINANCE COR LTD AP STAT ANDB000057257210100081066                     URGENT  Mohammad Shajid Begum    57210100081066  
R41000000000030000000000000000000000099999999999999999PAO GOVT OF AP Hyderabad salary    STATE BANK OF INDIA SECRETARIAT    57210100081039                  Kanize Fatema                      MINORITIES FINANCE COR LTD AP STAT ANDB000057257210100081039                     URGENT  Kanize Fatema            57210100081039  
R41000000000030000000000000000000000099999999999999999PAO GOVT OF AP Hyderabad salary    STATE BANK OF INDIA SECRETARIAT    57210100081118                  Md Fatima Begum                    MINORITIES FINANCE COR LTD AP STAT ANDB000057257210100081118                     URGENT  Md Fatima Begum          57210100081118  
R41000000001000000000000000000000000099999999999999999PAO GOVT OF AP Hyderabad salary    STATE BANK OF INDIA SECRETARIAT    40910100269141                  Mohammed Majaharuddin              MINORITIES FINANCE COR LTD AP STAT ANDB000040940910100269141                     URGENT  Mohammed Majaharuddin    40910100269141  
R41000000000030000000000000000000000099999999999999999PAO GOVT OF AP Hyderabad salary    STATE BANK OF INDIA SECRETARIAT    57210100080988                  Vazira Begum Vazira Begum          MINORITIES FINANCE COR LTD AP STAT ANDB000057257210100080988                     URGENT  Vazira Begum Vazira Begum57210100080988  
R41000000000030000000000000000000000099999999999999999PAO GOVT OF AP Hyderabad salary    STATE BANK OF INDIA SECRETARIAT    57210100081172                  Merza Gyhan Banu                   MINORITIES FINANCE COR LTD AP STAT ANDB000057257210100081172                     URGENT  Merza Gyhan Banu         57210100081172  
R41000000000030000000000000000000000099999999999999999PAO GOVT OF AP Hyderabad salary    STATE BANK OF INDIA SECRETARIAT    57210100080915                  A Kai Runnisa Begum                MINORITIES FINANCE COR LTD AP STAT ANDB000057257210100080915                     URGENT  A Kai Runnisa Begum      57210100080915  
R41000000000030000000000000000000000099999999999999999PAO GOVT OF AP Hyderabad salary    STATE BANK OF INDIA SECRETARIAT    57210100080942                  Kaneeze Zahera                     MINORITIES FINANCE COR LTD AP STAT ANDB000057257210100080942                     URGENT  Kaneeze Zahera           57210100080942  
R41000000000030000000000000000000000099999999999999999PAO GOVT OF AP Hyderabad salary    STATE BANK OF INDIA SECRETARIAT    57210100081002                  Isvehani Bunnisa                   MINORITIES FINANCE COR LTD AP STAT ANDB000057257210100081002                     URGENT  Isvehani Bunnisa         57210100081002  
R41000000000030000000000000000000000099999999999999999PAO GOVT OF AP Hyderabad salary    STATE BANK OF INDIA SECRETARIAT    57210100081048                  Khurshid Zamani                    MINORITIES FINANCE COR LTD AP STAT ANDB000057257210100081048                     URGENT  Khurshid Zamani          57210100081048  
R41000000000030000000000000000000000099999999999999999PAO GOVT OF AP Hyderabad salary    STATE BANK OF INDIA SECRETARIAT    57210100081136                  Mohammad Shakeela Banu             MINORITIES FINANCE COR LTD AP STAT ANDB000057257210100081136                     URGENT  Mohammad Shakeela Banu   57210100081136  
R41000000000030000000000000000000000099999999999999999PAO GOVT OF AP Hyderabad salary    STATE BANK OF INDIA SECRETARIAT    57210100081145                  Raziya Kahatan                     MINORITIES FINANCE COR LTD AP STAT ANDB000057257210100081145                     URGENT  Raziya Kahatan           57210100081145  
R41000000000500000000000000000000000099999999999999999PAO GOVT OF AP Hyderabad salary    STATE BANK OF INDIA SECRETARIAT    57210100081084                  Mahmad Mallika Khatun              MINORITIES FINANCE COR LTD AP STAT ANDB000057257210100081084                     URGENT  Mahmad Mallika Khatun    57210100081084  
R41000000000030000000000000000000000099999999999999999PAO GOVT OF AP Hyderabad salary    STATE BANK OF INDIA SECRETARIAT    57210100081163                  Absadi Begam                       MINORITIES FINANCE COR LTD AP STAT ANDB000057257210100081163                     URGENT  Absadi Begam             57210100081163  
R41000000001000000000000000000000000099999999999999999PAO GOVT OF AP Hyderabad salary    STATE BANK OF INDIA SECRETARIAT    40910100269309                  Mohammed Gouse Mohiddin            MINORITIES FINANCE COR LTD AP STAT ANDB000040940910100269309                     URGENT  Mohammed Gouse Mohiddin  40910100269309  
R41000000000030000000000000000000000099999999999999999PAO GOVT OF AP Hyderabad salary    STATE BANK OF INDIA SECRETARIAT    57210100081020                  Rubhabi Fathima                    MINORITIES FINANCE COR LTD AP STAT ANDB000057257210100081020                     URGENT  Rubhabi Fathima          57210100081020  
R41000000000030000000000000000000000099999999999999999PAO GOVT OF AP Hyderabad salary    STATE BANK OF INDIA SECRETARIAT    57210100081075                  S Mazharijaha                      MINORITIES FINANCE COR LTD AP STAT ANDB000057257210100081075                     URGENT  S Mazharijaha            57210100081075  
R41000000000500000000000000000000000099999999999999999PAO GOVT OF AP Hyderabad salary    STATE BANK OF INDIA SECRETARIAT    18458100000876                  S Silarsaheb                       MINORITIES FINANCE COR LTD AP STAT BARB0PEDAPA18458100000876                     URGENT  S Silarsaheb             18458100000876  
R41000000000500000000000000000000000099999999999999999PAO GOVT OF AP Hyderabad salary    STATE BANK OF INDIA SECRETARIAT    18458100000263                  S Subhan Saheb                     MINORITIES FINANCE COR LTD AP STAT BARB0PEDAPA18458100000263                     URGENT  S Subhan Saheb           18458100000263  
R41000000000750000000000000000000000099999999999999999PAO GOVT OF AP Hyderabad salary    STATE BANK OF INDIA SECRETARIAT    562110110003892                 Mahmmad Bilaal                     MINORITIES FINANCE COR LTD AP STAT BKID0005621562110110003892                    URGENT  Mahmmad Bilaal           562110110003892 
R41000000001000000000000000000000000099999999999999999PAO GOVT OF AP Hyderabad salary    STATE BANK OF INDIA SECRETARIAT    562110110003687                 Muntaj                             MINORITIES FINANCE COR LTD AP STAT BKID0005621562110110003687                    URGENT  Muntaj                   562110110003687 
R41000000001000000000000000000000000099999999999999999PAO GOVT OF AP Hyderabad salary    STATE BANK OF INDIA SECRETARIAT    562110110004002                 Sheik Haseena                      MINORITIES FINANCE COR LTD AP STAT BKID0005621562110110004002                    URGENT  Sheik Haseena            562110110004002 
R41000000001000000000000000000000000099999999999999999PAO GOVT OF AP Hyderabad salary    STATE BANK OF INDIA SECRETARIAT    562010310000226                 Mahaboob Basha                     MINORITIES FINANCE COR LTD AP STAT BKID0005620562010310000226                    URGENT  Mahaboob Basha           562010310000226 
R41000000001000000000000000000000000099999999999999999PAO GOVT OF AP Hyderabad salary    STATE BANK OF INDIA SECRETARIAT    562110110004001                 Parvin                             MINORITIES FINANCE COR LTD AP STAT BKID0005621562110110004001                    URGENT  Parvin                   562110110004001 
R41000000001000000000000000000000000099999999999999999PAO GOVT OF AP Hyderabad salary    STATE BANK OF INDIA SECRETARIAT    562110110004005                 Mohammad Ahamad Bhasha             MINORITIES FINANCE COR LTD AP STAT BKID0005621562110110004005                    URGENT  Mohammad Ahamad Bhasha   562110110004005 
R41000000001000000000000000000000000099999999999999999PAO GOVT OF AP Hyderabad salary    STATE BANK OF INDIA SECRETARIAT    562110110004003                 Mahmad Haphina                     MINORITIES FINANCE COR LTD AP STAT BKID0005621562110110004003                    URGENT  Mahmad Haphina           562110110004003 
R41000000001000000000000000000000000099999999999999999PAO GOVT OF AP Hyderabad salary    STATE BANK OF INDIA SECRETARIAT    562010110003429                 Sheik Abdul Rahim                  MINORITIES FINANCE COR LTD AP STAT BKID0005620562010110003429                    URGENT  Sheik Abdul Rahim        562010110003429 
R41000000001000000000000000000000000099999999999999999PAO GOVT OF AP Hyderabad salary    STATE BANK OF INDIA SECRETARIAT    562110110003999                 Shek Sabrin Bhanu                  MINORITIES FINANCE COR LTD AP STAT BKID0005621562110110003999                    URGENT  Shek Sabrin Bhanu        562110110003999 
R41000000001000000000000000000000000099999999999999999PAO GOVT OF AP Hyderabad salary    STATE BANK OF INDIA SECRETARIAT    562110110004000                 Mohammad Asma                      MINORITIES FINANCE COR LTD AP STAT BKID0005621562110110004000                    URGENT  Mohammad Asma            562110110004000 
R41000000001000000000000000000000000099999999999999999PAO GOVT OF AP Hyderabad salary    STATE BANK OF INDIA SECRETARIAT    867510110003144                 Shaik Munnee                       MINORITIES FINANCE COR LTD AP STAT BKID0008675867510110003144                    URGENT  Shaik Munnee             867510110003144 
R41000000001000000000000000000000000099999999999999999PAO GOVT OF AP Hyderabad salary    STATE BANK OF INDIA SECRETARIAT    562110110003686                 Mahamad Bebe Jani                  MINORITIES FINANCE COR LTD AP STAT BKID0005621562110110003686                    URGENT  Mahamad Bebe Jani        562110110003686 
R41000000000500000000000000000000000099999999999999999PAO GOVT OF AP Hyderabad salary    STATE BANK OF INDIA SECRETARIAT    867510110003051                 Shaik Jahara Beebi                 MINORITIES FINANCE COR LTD AP STAT BKID0008675867510110003051                    URGENT  Shaik Jahara Beebi       867510110003051 
R41000000001000000000000000000000000099999999999999999PAO GOVT OF AP Hyderabad salary    STATE BANK OF INDIA SECRETARIAT    60210278925                     Mohammad Jahangeer                 MINORITIES FINANCE COR LTD AP STAT MAHB000044060210278925                        URGENT  Mohammad Jahangeer       60210278925     
R41000000000500000000000000000000000099999999999999999PAO GOVT OF AP Hyderabad salary    STATE BANK OF INDIA SECRETARIAT    60191502323                     Khyrunnisa Begum                   MINORITIES FINANCE COR LTD AP STAT MAHB000044060191502323                        URGENT  Khyrunnisa Begum         60191502323     
R41000000000500000000000000000000000099999999999999999PAO GOVT OF AP Hyderabad salary    STATE BANK OF INDIA SECRETARIAT    60210278823                     Md Ahamdunnisha                    MINORITIES FINANCE COR LTD AP STAT MAHB000044060210278823                        URGENT  Md Ahamdunnisha          60210278823     
R41000000001000000000000000000000000099999999999999999PAO GOVT OF AP Hyderabad salary    STATE BANK OF INDIA SECRETARIAT    60210019743                     Mohammad Shakeela Begum            MINORITIES FINANCE COR LTD AP STAT MAHB000044060210019743                        URGENT  Mohammad Shakeela Begum  60210019743     
R41000000000500000000000000000000000099999999999999999PAO GOVT OF AP Hyderabad salary    STATE BANK OF INDIA SECRETARIAT    60191502731                     Md Hazara Fariga                   MINORITIES FINANCE COR LTD AP STAT MAHB000044060191502731                        URGENT  Md Hazara Fariga         60191502731     
R41000000001000000000000000000000000099999999999999999PAO GOVT OF AP Hyderabad salary    STATE BANK OF INDIA SECRETARIAT    60209740340                     Mahammad Samdani                   MINORITIES FINANCE COR LTD AP STAT MAHB000044060209740340                        URGENT  Mahammad Samdani         60209740340     
R41000000000300000000000000000000000099999999999999999PAO GOVT OF AP Hyderabad salary    STATE BANK OF INDIA SECRETARIAT    713610031028349                 Sheik Jaina Bibi                   MINORITIES FINANCE COR LTD AP STAT ANDB0007999713610031028349                    URGENT  Sheik Jaina Bibi         713610031028349 
R41000000000300000000000000000000000099999999999999999PAO GOVT OF AP Hyderabad salary    STATE BANK OF INDIA SECRETARIAT    713610031028332                 Shek Ajij Unnisa                   MINORITIES FINANCE COR LTD AP STAT ANDB0007999713610031028332                    URGENT  Shek Ajij Unnisa         713610031028332 
R41000000000500000000000000000000000099999999999999999PAO GOVT OF AP Hyderabad salary    STATE BANK OF INDIA SECRETARIAT    347401000000121                 Sayyad Saleem                      MINORITIES FINANCE COR LTD AP STAT IOBA0003474347401000000121                    URGENT  Sayyad Saleem            347401000000121 
R41000000000500000000000000000000000099999999999999999PAO GOVT OF AP Hyderabad salary    STATE BANK OF INDIA SECRETARIAT    347401000000128                 Nagu                               MINORITIES FINANCE COR LTD AP STAT IOBA0003474347401000000128                    URGENT  Nagu                     347401000000128 
R41000000000500000000000000000000000099999999999999999PAO GOVT OF AP Hyderabad salary    STATE BANK OF INDIA SECRETARIAT    347401000000140                 Pathan Kasim Bhasha                MINORITIES FINANCE COR LTD AP STAT IOBA0003474347401000000140                    URGENT  Pathan Kasim Bhasha      347401000000140 
R41000000001000000000000000000000000099999999999999999PAO GOVT OF AP Hyderabad salary    STATE BANK OF INDIA SECRETARIAT    214001000010796                 Shaik Parveen                      MINORITIES FINANCE COR LTD AP STAT IOBA0002140214001000010796                    URGENT  Shaik Parveen            214001000010796 
R41000000001000000000000000000000000099999999999999999PAO GOVT OF AP Hyderabad salary    STATE BANK OF INDIA SECRETARIAT    214001000010802                 Shaik Haseena                      MINORITIES FINANCE COR LTD AP STAT IOBA0002140214001000010802                    URGENT  Shaik Haseena            214001000010802 
R41000000001000000000000000000000000099999999999999999PAO GOVT OF AP Hyderabad salary    STATE BANK OF INDIA SECRETARIAT    214001000010779                 Mohammed Gulbadanbadan             MINORITIES FINANCE COR LTD AP STAT IOBA0002140214001000010779                    URGENT  Mohammed Gulbadanbadan   214001000010779 
R41000000001000000000000000000000000099999999999999999PAO GOVT OF AP Hyderabad salary    STATE BANK OF INDIA SECRETARIAT    347401000000298                 Saiyad Pachabi                     MINORITIES FINANCE COR LTD AP STAT IOBA0003474347401000000298                    URGENT  Saiyad Pachabi           347401000000298 
R41000000000500000000000000000000000099999999999999999PAO GOVT OF AP Hyderabad salary    STATE BANK OF INDIA SECRETARIAT    347401000000130                 Aslam                              MINORITIES FINANCE COR LTD AP STAT IOBA0003474347401000000130                    URGENT  Aslam                    347401000000130 
R41000000001000000000000000000000000099999999999999999PAO GOVT OF AP Hyderabad salary    STATE BANK OF INDIA SECRETARIAT    1426155000047120                Rabbani                            MINORITIES FINANCE COR LTD AP STAT KVBL00014261426155000047120                   URGENT  Rabbani                  1426155000047120
R41000000001000000000000000000000000099999999999999999PAO GOVT OF AP Hyderabad salary    STATE BANK OF INDIA SECRETARIAT    8162191010601                   Sheik Naseema Begum                MINORITIES FINANCE COR LTD AP STAT ORBC01008168162191010601                      URGENT  Sheik Naseema Begum      8162191010601   
R41000000001000000000000000000000000099999999999999999PAO GOVT OF AP Hyderabad salary    STATE BANK OF INDIA SECRETARIAT    62412327756                     Shaik Kalesha                      MINORITIES FINANCE COR LTD AP STAT SBHY002124662412327756                        URGENT  Shaik Kalesha            62412327756     
R41000000001000000000000000000000000099999999999999999PAO GOVT OF AP Hyderabad salary    STATE BANK OF INDIA SECRETARIAT    62412324507                     Mahmmad Alisha                     MINORITIES FINANCE COR LTD AP STAT SBHY002124662412324507                        URGENT  Mahmmad Alisha           62412324507     
R41000000000300000000000000000000000099999999999999999PAO GOVT OF AP Hyderabad salary    STATE BANK OF INDIA SECRETARIAT    62412335020                     Shaik Gowsmdhaudin                 MINORITIES FINANCE COR LTD AP STAT SBHY002124662412335020                        URGENT  Shaik Gowsmdhaudin       62412335020     
R41000000001000000000000000000000000099999999999999999PAO GOVT OF AP Hyderabad salary    STATE BANK OF INDIA SECRETARIAT    32582250012053                  Shaik Habeeb Unisa                 MINORITIES FINANCE COR LTD AP STAT SYNB000325832582250012053                     URGENT  Shaik Habeeb Unisa       32582250012053  
R41000000001000000000000000000000000099999999999999999PAO GOVT OF AP Hyderabad salary    STATE BANK OF INDIA SECRETARIAT    32622200009338                  Aftab Afroze                       MINORITIES FINANCE COR LTD AP STAT SYNB000326232622200009338                     URGENT  Aftab Afroze             32622200009338  
R41000000001000000000000000000000000099999999999999999PAO GOVT OF AP Hyderabad salary    STATE BANK OF INDIA SECRETARIAT    32582250007007                  Sk Madhina Valli                   MINORITIES FINANCE COR LTD AP STAT SYNB000325832582250007007                     URGENT  Sk Madhina Valli         32582250007007  
R41000000001000000000000000000000000099999999999999999PAO GOVT OF AP Hyderabad salary    STATE BANK OF INDIA SECRETARIAT    19803211011392                  Mohmad Arif Bhasha                 MINORITIES FINANCE COR LTD AP STAT UCBA000198019803211011392                     URGENT  Mohmad Arif Bhasha       19803211011392  
R41000000001000000000000000000000000099999999999999999PAO GOVT OF AP Hyderabad salary    STATE BANK OF INDIA SECRETARIAT    19800110083758                  Abdul Aleem                        MINORITIES FINANCE COR LTD AP STAT UCBA000198019800110083758                     URGENT  Abdul Aleem              19800110083758  
