R41000000059786410000000000000000000000000033930064359MED SERV & INF DEVP CORPN, AP- Managing DirectorSTATE BANK OF INDIA                867325110000021                 M/S Muni Mohan  Reddy & Co         MED SERV & INF DEVP CORPN AP- MANA BKID0008673MED SERV & INF DEVP CORPN AP- MANA URGENT  M/S Muni Mohan  Reddy & C                                 0181731         foapmsidc@gmail.com                
R41000000000705540000000000000000000000000033930064359MED SERV & INF DEVP CORPN, AP- Managing DirectorSTATE BANK OF INDIA                142210011200206                 APLabour Cess Commissioner  HyderabMED SERV & INF DEVP CORPN AP- MANA ANDB0001422MED SERV & INF DEVP CORPN AP- MANA URGENT  APLabour Cess Commissione                                 0181732         foapmsidc@gmail.com                
R41000000004568390000000000000000000000000033930064359MED SERV & INF DEVP CORPN, AP- Managing DirectorSTATE BANK OF INDIA                142410011000314                 MD APMSIDC Hyderabad               MED SERV & INF DEVP CORPN AP- MANA ANDB0001424MED SERV & INF DEVP CORPN AP- MANA URGENT  MD APMSIDC Hyderabad                                      0181733         foapmsidc@gmail.com                
