R41000000000500000000000000000000000000000033881454741PAO GOVT OF AP Hyderabad salary    STATE BANK OF INDIA SECRETARIAT    0765711516                      Shaik Amurunnisa                   MINORITIES FINANCE COR LTD, AP STA IDIB000N0290765711516                         URGENT  Shaik Amurunnisa                                          0765711516      EMLdpao-sect@ap.nic.in             
R41000000000500000000000000000000000000000033881454741PAO GOVT OF AP Hyderabad salary    STATE BANK OF INDIA SECRETARIAT    6218902578                      M. Amathulla Khan                  MINORITIES FINANCE COR LTD, AP STA IDIB000N0296218902578                         URGENT  M. Amathulla Khan                                         6218902578      EMLdpao-sect@ap.nic.in             
R41000000000500000000000000000000000000000033881454741PAO GOVT OF AP Hyderabad salary    STATE BANK OF INDIA SECRETARIAT    584743972                       Shaik Mahammed Kasim               MINORITIES FINANCE COR LTD, AP STA IDIB000N029584743972                          URGENT  Shaik Mahammed Kasim                                      584743972       EMLdpao-sect@ap.nic.in             
R41000000000500000000000000000000000000000033881454741PAO GOVT OF AP Hyderabad salary    STATE BANK OF INDIA SECRETARIAT    6074539612                      Shaik Abidulla Saheb               MINORITIES FINANCE COR LTD, AP STA IDIB000N0296074539612                         URGENT  Shaik Abidulla Saheb                                      6074539612      EMLdpao-sect@ap.nic.in             
R41000000000500000000000000000000000000000033881454741PAO GOVT OF AP Hyderabad salary    STATE BANK OF INDIA SECRETARIAT    6312636915                      Gowri Shamsad                      MINORITIES FINANCE COR LTD, AP STA IDIB000N0296312636915                         URGENT  Gowri Shamsad                                             6312636915      EMLdpao-sect@ap.nic.in             
R41000000000300000000000000000000000000000033881454741PAO GOVT OF AP Hyderabad salary    STATE BANK OF INDIA SECRETARIAT    22024482                        Ibrahim S                          MINORITIES FINANCE COR LTD, AP STA IDIB0SGB00122024482                           URGENT  Ibrahim S                                                 22024482        EMLdpao-sect@ap.nic.in             
