R41000000001844410000000000000000000000000000000000011TECH SERV LTD - AP, Managing DirectorSTATE BANK OF INDIA                52082155102                     AP Technology Services Ltd         TECH SERV LTD - AP MANAGING DIRECT SBHY0020432TECH SERV LTD - AP MANAGING DIRECT URGENT  AP Technology Services Lt                                 0352561         ksavitasri@apts.gov.in             
R41000000001492950000000000000000000000000000000000011TECH SERV LTD - AP, Managing DirectorSTATE BANK OF INDIA                52082155102                     AP Technology Services Ltd         TECH SERV LTD - AP MANAGING DIRECT SBHY0020432TECH SERV LTD - AP MANAGING DIRECT URGENT  AP Technology Services Lt                                 0352562         ksavitasri@apts.gov.in             
R41000000002189060000000000000000000000000000000000011TECH SERV LTD - AP, Managing DirectorSTATE BANK OF INDIA                52082155102                     AP Technology Services Ltd         TECH SERV LTD - AP MANAGING DIRECT SBHY0020432TECH SERV LTD - AP MANAGING DIRECT URGENT  AP Technology Services Lt                                 0352563         ksavitasri@apts.gov.in             
R41000000000045000000000000000000000000000000000000011TECH SERV LTD - AP, Managing DirectorSTATE BANK OF INDIA                44605033970                     Swamy Associates                   TECH SERV LTD - AP MANAGING DIRECT SCBL0036075TECH SERV LTD - AP MANAGING DIRECT URGENT  Swamy Associates                                          0352564         ksavitasri@apts.gov.in             
