R41030110100169610 000000000360000000000000000000000000000033881454741PAO GOVT OF AP Hyderabad salary    STATE BANK OF INDIA SECRETARIAT    030110100169610                 Bookya Balu Naik                   SCHEDULED TRIBES CO-OP FINANCE COR ANDB0000301030110100169610                    URGENT  Bookya Balu Naik         030110100169610 
R41033910100123663 000000000600000000000000000000000000000033881454741PAO GOVT OF AP Hyderabad salary    STATE BANK OF INDIA SECRETARIAT    033910100123663                 Mondi Lakshmidevi                  SCHEDULED TRIBES CO-OP FINANCE COR ANDB0000339033910100123663                    URGENT  Mondi Lakshmidevi        033910100123663 
R41033910100123654 000000000600000000000000000000000000000033881454741PAO GOVT OF AP Hyderabad salary    STATE BANK OF INDIA SECRETARIAT    033910100123654                 Sugali Narasimha Naik              SCHEDULED TRIBES CO-OP FINANCE COR ANDB0000339033910100123654                    URGENT  Sugali Narasimha Naik    033910100123654 
R41042210100104093 000000000600000000000000000000000000000033881454741PAO GOVT OF AP Hyderabad salary    STATE BANK OF INDIA SECRETARIAT    042210100104093                 Mude Ballu Naik                    SCHEDULED TRIBES CO-OP FINANCE COR ANDB0000422042210100104093                    URGENT  Mude Ballu Naik          042210100104093 
R4142210100104093  000000000600000000000000000000000000000033881454741PAO GOVT OF AP Hyderabad salary    STATE BANK OF INDIA SECRETARIAT    42210100104093                  N.Ragavendra                       SCHEDULED TRIBES CO-OP FINANCE COR ANDB000042242210100104093                     URGENT  N.Ragavendra             42210100104093  
R41041210100168259 000000000600000000000000000000000000000033881454741PAO GOVT OF AP Hyderabad salary    STATE BANK OF INDIA SECRETARIAT    041210100168259                 A Venkataramudu                    SCHEDULED TRIBES CO-OP FINANCE COR ANDB0000412041210100168259                    URGENT  A Venkataramudu          041210100168259 
R41041210100168240 000000000360000000000000000000000000000033881454741PAO GOVT OF AP Hyderabad salary    STATE BANK OF INDIA SECRETARIAT    041210100168240                 Y Srinivasulu                      SCHEDULED TRIBES CO-OP FINANCE COR ANDB0000412041210100168240                    URGENT  Y Srinivasulu            041210100168240 
R41090210100105375 000000000600000000000000000000000000000033881454741PAO GOVT OF AP Hyderabad salary    STATE BANK OF INDIA SECRETARIAT    090210100105375                 Pitha Vath Sunitha Bai             SCHEDULED TRIBES CO-OP FINANCE COR ANDB0000902090210100105375                    URGENT  Pitha Vath Sunitha Bai   090210100105375 
R41090210100105384 000000000600000000000000000000000000000033881454741PAO GOVT OF AP Hyderabad salary    STATE BANK OF INDIA SECRETARIAT    090210100105384                 S.Chandra Kantamma                 SCHEDULED TRIBES CO-OP FINANCE COR ANDB0000902090210100105384                    URGENT  S.Chandra Kantamma       090210100105384 
R41090210100105366 000000000600000000000000000000000000000033881454741PAO GOVT OF AP Hyderabad salary    STATE BANK OF INDIA SECRETARIAT    090210100105366                 Sugali Lakshmi Ram Naik            SCHEDULED TRIBES CO-OP FINANCE COR ANDB0000902090210100105366                    URGENT  Sugali Lakshmi Ram Naik  090210100105366 
R4119076510436     000000000600000000000000000000000000000033881454741PAO GOVT OF AP Hyderabad salary    STATE BANK OF INDIA SECRETARIAT    19076510436                     Gujjala Venkatalakshmi             SCHEDULED TRIBES CO-OP FINANCE COR APGB000105019076510436                        URGENT  Gujjala Venkatalakshmi   19076510436     
R4191033753540     000000000360000000000000000000000000000033881454741PAO GOVT OF AP Hyderabad salary    STATE BANK OF INDIA SECRETARIAT    91033753540                     Mudavath Same Naik                 SCHEDULED TRIBES CO-OP FINANCE COR APGB000107891033753540                        URGENT  Mudavath Same Naik       91033753540     
R4191035859817     000000000600000000000000000000000000000033881454741PAO GOVT OF AP Hyderabad salary    STATE BANK OF INDIA SECRETARIAT    91035859817                     Ramavath Ramanjulu Naik            SCHEDULED TRIBES CO-OP FINANCE COR APGB000100791035859817                        URGENT  Ramavath Ramanjulu Naik  91035859817     
R4191037863457     000000000360000000000000000000000000000033881454741PAO GOVT OF AP Hyderabad salary    STATE BANK OF INDIA SECRETARIAT    91037863457                     Moddilla Nagalakshmi               SCHEDULED TRIBES CO-OP FINANCE COR APGB000102691037863457                        URGENT  Moddilla Nagalakshmi     91037863457     
R4191037863286     000000000360000000000000000000000000000033881454741PAO GOVT OF AP Hyderabad salary    STATE BANK OF INDIA SECRETARIAT    91037863286                     Saake Sunkkamma                    SCHEDULED TRIBES CO-OP FINANCE COR APGB000102691037863286                        URGENT  Saake Sunkkamma          91037863286     
R4191037863559     000000000360000000000000000000000000000033881454741PAO GOVT OF AP Hyderabad salary    STATE BANK OF INDIA SECRETARIAT    91037863559                     Moddilla Manjula                   SCHEDULED TRIBES CO-OP FINANCE COR APGB000102691037863559                        URGENT  Moddilla Manjula         91037863559     
R4191037863515     000000000360000000000000000000000000000033881454741PAO GOVT OF AP Hyderabad salary    STATE BANK OF INDIA SECRETARIAT    91037863515                     Saake Sunkkamma                    SCHEDULED TRIBES CO-OP FINANCE COR APGB000102691037863515                        URGENT  Saake Sunkkamma          91037863515     
R4191021292854     000000000360000000000000000000000000000033881454741PAO GOVT OF AP Hyderabad salary    STATE BANK OF INDIA SECRETARIAT    91021292854                     Yerikal Nallappa                   SCHEDULED TRIBES CO-OP FINANCE COR APGB000102691021292854                        URGENT  Yerikal Nallappa         91021292854     
R4191037863366     000000000360000000000000000000000000000033881454741PAO GOVT OF AP Hyderabad salary    STATE BANK OF INDIA SECRETARIAT    91037863366                     Chinna Gangamma                    SCHEDULED TRIBES CO-OP FINANCE COR APGB000102691037863366                        URGENT  Chinna Gangamma          91037863366     
R4191037863399     000000000360000000000000000000000000000033881454741PAO GOVT OF AP Hyderabad salary    STATE BANK OF INDIA SECRETARIAT    91037863399                     Kalva Palli Gangamma               SCHEDULED TRIBES CO-OP FINANCE COR APGB000102691037863399                        URGENT  Kalva Palli Gangamma     91037863399     
R410979119001088   000000000600000000000000000000000000000033881454741PAO GOVT OF AP Hyderabad salary    STATE BANK OF INDIA SECRETARIAT    0979119001088                   Shake Harinath                     SCHEDULED TRIBES CO-OP FINANCE COR CNRB00009790979119001088                      URGENT  Shake Harinath           0979119001088   
R410979119001107   000000000600000000000000000000000000000033881454741PAO GOVT OF AP Hyderabad salary    STATE BANK OF INDIA SECRETARIAT    0979119001107                   M Sankar Nayak                     SCHEDULED TRIBES CO-OP FINANCE COR CNRB00009790979119001107                      URGENT  M Sankar Nayak           0979119001107   
R411851119015747   000000000600000000000000000000000000000033881454741PAO GOVT OF AP Hyderabad salary    STATE BANK OF INDIA SECRETARIAT    1851119015747                   Gujjala Venkatesulu                SCHEDULED TRIBES CO-OP FINANCE COR CNRB00018511851119015747                      URGENT  Gujjala Venkatesulu      1851119015747   
R41009500101018140 000000000600000000000000000000000000000033881454741PAO GOVT OF AP Hyderabad salary    STATE BANK OF INDIA SECRETARIAT    009500101018140                 Sugali Rajesh Nayak                SCHEDULED TRIBES CO-OP FINANCE COR CORP0000095009500101018140                    URGENT  Sugali Rajesh Nayak      009500101018140 
R41009500101008096 000000000600000000000000000000000000000033881454741PAO GOVT OF AP Hyderabad salary    STATE BANK OF INDIA SECRETARIAT    009500101008096                 D.Kumaraswamy Naik                 SCHEDULED TRIBES CO-OP FINANCE COR CORP0000095009500101008096                    URGENT  D.Kumaraswamy Naik       009500101008096 
R4131332200095262  000000001000000000000000000000000000000033881454741PAO GOVT OF AP Hyderabad salary    STATE BANK OF INDIA SECRETARIAT    31332200095262                  Jarpala Pratap Naik                SCHEDULED TRIBES CO-OP FINANCE COR SYNB000313331332200095262                     URGENT  Jarpala Pratap Naik      31332200095262  
R4131212200143711  000000000600000000000000000000000000000033881454741PAO GOVT OF AP Hyderabad salary    STATE BANK OF INDIA SECRETARIAT    31212200143711                  Ramavath Madhubai                  SCHEDULED TRIBES CO-OP FINANCE COR SYNB000312131212200143711                     URGENT  Ramavath Madhubai        31212200143711  
R4131212200163813  000000000600000000000000000000000000000033881454741PAO GOVT OF AP Hyderabad salary    STATE BANK OF INDIA SECRETARIAT    31212200163813                  Ramavathi Salamma Bai              SCHEDULED TRIBES CO-OP FINANCE COR SYNB000312131212200163813                     URGENT  Ramavathi Salamma Bai    31212200163813  
R4131212200105169  000000000600000000000000000000000000000033881454741PAO GOVT OF AP Hyderabad salary    STATE BANK OF INDIA SECRETARIAT    31212200105169                  Keluth Balibai                     SCHEDULED TRIBES CO-OP FINANCE COR SYNB000312131212200105169                     URGENT  Keluth Balibai           31212200105169  
R4131212210015217  000000000600000000000000000000000000000033881454741PAO GOVT OF AP Hyderabad salary    STATE BANK OF INDIA SECRETARIAT    31212210015217                  Ramatuja Lakshmi                   SCHEDULED TRIBES CO-OP FINANCE COR SYNB000312131212210015217                     URGENT  Ramatuja Lakshmi         31212210015217  
