R41000000000936300000000000000000000000000033881454741PAO GOVT OF AP Hyderabad salary    STATE BANK OF INDIA SECRETARIAT    260202000001006                 Sri NVenkateswara Rao              MED SERV & INF DEVP CORPN AP- MANA IOBA0002602260202000001006                    URGENT  Sri NVenkateswara Rao    260202000001006 
R41000000031668430000000000000000000000000033881454741PAO GOVT OF AP Hyderabad salary    STATE BANK OF INDIA SECRETARIAT    332011006266                    M/s Neelakanteswara Constructions  MED SERV & INF DEVP CORPN AP- MANA VYSA0003320332011006266                       URGENT  M/s Neelakanteswara Const332011006266    
R41000000055550080000000000000000000000000033881454741PAO GOVT OF AP Hyderabad salary    STATE BANK OF INDIA SECRETARIAT    001331100000131                 Sri B Lingappa                     MED SERV & INF DEVP CORPN AP- MANA ANDB0000013001331100000131                    URGENT  Sri B Lingappa           001331100000131 
R41000000034822020000000000000000000000000033881454741PAO GOVT OF AP Hyderabad salary    STATE BANK OF INDIA SECRETARIAT    128101000012321                 Sri KRaja Prasad Reddy             MED SERV & INF DEVP CORPN AP- MANA IOBA0001281128101000012321                    URGENT  Sri KRaja Prasad Reddy   128101000012321 
R41000000001326390000000000000000000000000033881454741PAO GOVT OF AP Hyderabad salary    STATE BANK OF INDIA SECRETARIAT    142210011200206                 APLabour Cess Commissioner  HyderabMED SERV & INF DEVP CORPN AP- MANA ANDB0001422142210011200206                    URGENT  APLabour Cess Commissione142210011200206 
R41000000015695650000000000000000000000000033881454741PAO GOVT OF AP Hyderabad salary    STATE BANK OF INDIA SECRETARIAT    142410011000314                 MD APMSIDC  Hyderabad              MED SERV & INF DEVP CORPN AP- MANA ANDB0001424142410011000314                    URGENT  MD APMSIDC  Hyderabad    142410011000314 
