R41000000000240000000000000000000000099999999999999999PAO GOVT OF AP Hyderabad salary    STATE BANK OF INDIA SECRETARIAT    52188920073                     APSFTVTDC LTD                      FILM AND TV DEVELOPMENT  CORPORATI SBHY002007052188920073                        URGENT  APSFTVTDC LTD            52188920073     
R41000000001800000000000000000000000099999999999999999PAO GOVT OF AP Hyderabad salary    STATE BANK OF INDIA SECRETARIAT    911010016211564                 KASTURI NATARAJ                    FILM AND TV DEVELOPMENT  CORPORATI UTIB0001379911010016211564                    URGENT  KASTURI NATARAJ          911010016211564 
R41000000000100000000000000000000000099999999999999999PAO GOVT OF AP Hyderabad salary    STATE BANK OF INDIA SECRETARIAT    553902010001913                 MS PRASAD                          FILM AND TV DEVELOPMENT  CORPORATI UBIN0555398553902010001913                    URGENT  MS PRASAD                553902010001913 
