R41000000010735730000000000000000000000000033881454741PAO GOVT OF AP Hyderabad salary    STATE BANK OF INDIA SECRETARIAT    910020013098140                 Clark Lloyd Designers Pvt Ltd      IND INF CORP LTD AP-VC AND MD      UTIB0000515910020013098140                    URGENT  Clark Lloyd Designers Pvt910020013098140 
R41000000001192860000000000000000000000000033881454741PAO GOVT OF AP Hyderabad salary    STATE BANK OF INDIA SECRETARIAT    110905000088                    APIIC Ltd                          IND INF CORP LTD AP-VC AND MD      ICIC0001109110905000088                       URGENT  APIIC Ltd                110905000088    
R41000000000063000000000000000000000000000033881454741PAO GOVT OF AP Hyderabad salary    STATE BANK OF INDIA SECRETARIAT    4262050000026                   AAO/ERO/APEPDCL/KAKINADA           IND INF CORP LTD AP-VC AND MD      HDFC00004264262050000026                      URGENT  AAO/ERO/APEPDCL/KAKINADA 4262050000026   
