R41051411011000456 000000017480000000000000000000000000000033881454741PAO GOVT OF AP Hyderabad salary    STATE BANK OF INDIA SECRETARIAT    051411011000456                 APSSDC Ltd Srikalahasti            SEEDS DEV CORP AP STATE -VC & MD   ANDB0000514051411011000456                    URGENT  APSSDC Ltd Srikalahasti  051411011000456 
R41005311011000489 000000005000000000000000000000000000000033881454741PAO GOVT OF AP Hyderabad salary    STATE BANK OF INDIA SECRETARIAT    005311011000489                 APSSDC Ltd  Kurnool                SEEDS DEV CORP AP STATE -VC & MD   ANDB0000053005311011000489                    URGENT  APSSDC Ltd  Kurnool      005311011000489 
R41024211011000433 000000011000000000000000000000000000000033881454741PAO GOVT OF AP Hyderabad salary    STATE BANK OF INDIA SECRETARIAT    024211011000433                 APSSDC Ltd Guntur                  SEEDS DEV CORP AP STATE -VC & MD   ANDB0000242024211011000433                    URGENT  APSSDC Ltd Guntur        024211011000433 
R41071911011000190 000000002000000000000000000000000000000033881454741PAO GOVT OF AP Hyderabad salary    STATE BANK OF INDIA SECRETARIAT    071911011000190                 APSSDC Ltd Eluru                   SEEDS DEV CORP AP STATE -VC & MD   ANDB0000719071911011000190                    URGENT  APSSDC Ltd Eluru         071911011000190 
R41714010193270    000000015772890000000000000000000000000033881454741PAO GOVT OF AP Hyderabad salary    STATE BANK OF INDIA SECRETARIAT    714010193270                    B Rama Chandraiah                  SEEDS DEV CORP AP STATE -VC & MD   VYSA0007140714010193270                       URGENT  B Rama Chandraiah        714010193270    
R41024210027000885 000000000959480000000000000000000000000033881454741PAO GOVT OF AP Hyderabad salary    STATE BANK OF INDIA SECRETARIAT    024210027000885                 Vinukonda Manikyala Rao            SEEDS DEV CORP AP STATE -VC & MD   ANDB0000242024210027000885                    URGENT  Vinukonda Manikyala Rao  024210027000885 
