R4100144011000175  000000093920000000000000000000000000000034224175690SEEDS DEV CORP, AP STATE -V.C & M.DSTATE BANK OF INDIA                00144011000175                  PR Enterprises  Delhi              SEEDS DEV CORP AP STATE -VC & MD   ORBC010001400144011000175                     URGENT  PR Enterprises  Delhi    00144011000175  
R410126008700007250000000092550000000000000000000000000000034224175690SEEDS DEV CORP, AP STATE -V.C & M.DSTATE BANK OF INDIA                0126008700007250                Jai Shankar Seeds Corporation   DelSEEDS DEV CORP AP STATE -VC & MD   PUNB00126000126008700007250                   URGENT  Jai Shankar Seeds Corpora0126008700007250
R41053431100000496 000000004555660000000000000000000000000034224175690SEEDS DEV CORP, AP STATE -V.C & M.DSTATE BANK OF INDIA                053431100000496                 Heights Communication(india) PVt LtSEEDS DEV CORP AP STATE -VC & MD   ANDB0000534053431100000496                    URGENT  Heights Communication(ind053431100000496 
R41371901010029059 000000018112180000000000000000000000000034224175690SEEDS DEV CORP, AP STATE -V.C & M.DSTATE BANK OF INDIA                371901010029059                 Sri Cold Storage  Maddipadu        SEEDS DEV CORP AP STATE -VC & MD   UBIN0537195371901010029059                    URGENT  Sri Cold Storage  Maddipa371901010029059 
R41371901010029053 000000008070080000000000000000000000000034224175690SEEDS DEV CORP, AP STATE -V.C & M.DSTATE BANK OF INDIA                371901010029053                 Sree Durga Cold Storage  UppugundurSEEDS DEV CORP AP STATE -VC & MD   UBIN0537195371901010029053                    URGENT  Sree Durga Cold Storage  371901010029053 
R41119211100000061 000000010970000000000000000000000000000034224175690SEEDS DEV CORP, AP STATE -V.C & M.DSTATE BANK OF INDIA                119211100000061                 APSSDC Ltd   Vijayawada            SEEDS DEV CORP AP STATE -VC & MD   ANDB0000134119211100000061                    URGENT  APSSDC Ltd   Vijayawada  119211100000061 
R41008911011000497 000000001190000000000000000000000000000034224175690SEEDS DEV CORP, AP STATE -V.C & M.DSTATE BANK OF INDIA                008911011000497                 APSSDC Ltd   Ongole                SEEDS DEV CORP AP STATE -VC & MD   ANDB0000089008911011000497                    URGENT  APSSDC Ltd   Ongole      008911011000497 
R41029310100091081 000000005960000000000000000000000000000034224175690SEEDS DEV CORP, AP STATE -V.C & M.DSTATE BANK OF INDIA                029310100091081                 U Suvarnamma                       SEEDS DEV CORP AP STATE -VC & MD   ANDB0000293029310100091081                    URGENT  U Suvarnamma             029310100091081 
R41864510110003190 000000003190000000000000000000000000000034224175690SEEDS DEV CORP, AP STATE -V.C & M.DSTATE BANK OF INDIA                864510110003190                 R Leelavathamma                    SEEDS DEV CORP AP STATE -VC & MD   BKID0008645864510110003190                    URGENT  R Leelavathamma          864510110003190 
R41015000401110005 000000003800000000000000000000000000000034224175690SEEDS DEV CORP, AP STATE -V.C & M.DSTATE BANK OF INDIA                015000401110005                 KSR Seeds   Guntur                 SEEDS DEV CORP AP STATE -VC & MD   CORP0000150015000401110005                    URGENT  KSR Seeds   Guntur       015000401110005 
R41073911100000061 000000009650000000000000000000000000000034224175690SEEDS DEV CORP, AP STATE -V.C & M.DSTATE BANK OF INDIA                073911100000061                 Aditya seeds  Guntur               SEEDS DEV CORP AP STATE -VC & MD   ANDB0000739073911100000061                    URGENT  Aditya seeds  Guntur     073911100000061 
R41055110011007434 000000001850000000000000000000000000000034224175690SEEDS DEV CORP, AP STATE -V.C & M.DSTATE BANK OF INDIA                055110011007434                 V Sesharatnam  Guntur              SEEDS DEV CORP AP STATE -VC & MD   ANDB0000551055110011007434                    URGENT  V Sesharatnam  Guntur    055110011007434 
R41055110023002276 000000009000000000000000000000000000000034224175690SEEDS DEV CORP, AP STATE -V.C & M.DSTATE BANK OF INDIA                055110023002276                 V Nagajyothi  Guntur               SEEDS DEV CORP AP STATE -VC & MD   ANDB0000551055110023002276                    URGENT  V Nagajyothi  Guntur     055110023002276 
