R41000000000300000000000000000000000000000033881454741PAO GOVT OF AP Hyderabad salary    STATE BANK OF INDIA SECRETARIAT    91032637900                     Shaik Samina                       MINORITIES FINANCE COR LTD, AP STA APGB000405091032637900                        URGENT  Shaik Samina                                              91032637900     EMLdpao-sect@ap.nic.in             
R41000000000300000000000000000000000000000033881454741PAO GOVT OF AP Hyderabad salary    STATE BANK OF INDIA SECRETARIAT    869777810000003                 Sk Haseena W/O Nazeem              MINORITIES FINANCE COR LTD, AP STA BKID0008697869777810000003                    URGENT  Sk Haseena W/O Nazeem                                     869777810000003 EMLdpao-sect@ap.nic.in             
R41000000000300000000000000000000000000000033881454741PAO GOVT OF AP Hyderabad salary    STATE BANK OF INDIA SECRETARIAT    6316515793                      Shaik Gouse Basha                  MINORITIES FINANCE COR LTD, AP STA IDIB000K1546316515793                         URGENT  Shaik Gouse Basha                                         6316515793      EMLdpao-sect@ap.nic.in             
R41000000000300000000000000000000000000000033881454741PAO GOVT OF AP Hyderabad salary    STATE BANK OF INDIA SECRETARIAT    40201000015075                  Shaik Haseena                      MINORITIES FINANCE COR LTD, AP STA IOBA000040240201000015075                     URGENT  Shaik Haseena                                             40201000015075  EMLdpao-sect@ap.nic.in             
R41000000000300000000000000000000000000000033881454741PAO GOVT OF AP Hyderabad salary    STATE BANK OF INDIA SECRETARIAT    34722200122088                  Shaik Mastan                       MINORITIES FINANCE COR LTD, AP STA SYNB000347234722200122088                     URGENT  Shaik Mastan                                              34722200122088  EMLdpao-sect@ap.nic.in             
R41000000000300000000000000000000000000000033881454741PAO GOVT OF AP Hyderabad salary    STATE BANK OF INDIA SECRETARIAT    330602010927363                 Syed  Resma                        MINORITIES FINANCE COR LTD, AP STA UBIN0533068330602010927363                    URGENT  Syed  Resma                                               330602010927363 EMLdpao-sect@ap.nic.in             
R41000000000300000000000000000000000000000033881454741PAO GOVT OF AP Hyderabad salary    STATE BANK OF INDIA SECRETARIAT    330602010927454                 Sheik Thasleem                     MINORITIES FINANCE COR LTD, AP STA UBIN0533068330602010927454                    URGENT  Sheik Thasleem                                            330602010927454 EMLdpao-sect@ap.nic.in             
R41000000000300000000000000000000000000000033881454741PAO GOVT OF AP Hyderabad salary    STATE BANK OF INDIA SECRETARIAT    330602010927352                 Shaik Thhaseen                     MINORITIES FINANCE COR LTD, AP STA UBIN0533068330602010927352                    URGENT  Shaik Thhaseen                                            330602010927352 EMLdpao-sect@ap.nic.in             
R41000000000300000000000000000000000000000033881454741PAO GOVT OF AP Hyderabad salary    STATE BANK OF INDIA SECRETARIAT    642002120000357                 Shaik Nasira                       MINORITIES FINANCE COR LTD, AP STA UBIN0564206642002120000357                    URGENT  Shaik Nasira                                              642002120000357 EMLdpao-sect@ap.nic.in             
R41000000000300000000000000000000000000000033881454741PAO GOVT OF AP Hyderabad salary    STATE BANK OF INDIA SECRETARIAT    642002120000268                 Shaik  Sameera                     MINORITIES FINANCE COR LTD, AP STA UBIN0564206642002120000268                    URGENT  Shaik  Sameera                                            642002120000268 EMLdpao-sect@ap.nic.in             
R41000000000300000000000000000000000000000033881454741PAO GOVT OF AP Hyderabad salary    STATE BANK OF INDIA SECRETARIAT    642002120000251                 Syed Shahina                       MINORITIES FINANCE COR LTD, AP STA UBIN0564206642002120000251                    URGENT  Syed Shahina                                              642002120000251 EMLdpao-sect@ap.nic.in             
