R413655261000011   000000017035910000000000000000000099999999999999999PAO GOVT OF AP Hyderabad salary    STATE BANK OF INDIA SECRETARIAT    3655261000011                   Costal Nursery Gardens & landscape IND INF CORP LTD AP-VC AND MD      CNRB00036553655261000011                      URGENT  Costal Nursery Gardens & 3655261000011   
R416244054148      000000085069690000000000000000000099999999999999999PAO GOVT OF AP Hyderabad salary    STATE BANK OF INDIA SECRETARIAT    6244054148                      Kalyanam Prasad Babu               IND INF CORP LTD AP-VC AND MD      IDIB000S0706244054148                         URGENT  Kalyanam Prasad Babu     6244054148      
R41110905E11       000000004956390000000000000000000099999999999999999PAO GOVT OF AP Hyderabad salary    STATE BANK OF INDIA SECRETARIAT    110905E11                       APIIC Ltd                          IND INF CORP LTD AP-VC AND MD      ICIC0001109110905E11                          URGENT  APIIC Ltd                110905E11       
R4114221E14        000000001149810000000000000000000099999999999999999PAO GOVT OF AP Hyderabad salary    STATE BANK OF INDIA SECRETARIAT    14221E14                        The Secretary APBCWWB              IND INF CORP LTD AP-VC AND MD      ANDB000142214221E14                           URGENT  The Secretary APBCWWB    14221E14        
R4133301101529     000000005680340000000000000000000099999999999999999PAO GOVT OF AP Hyderabad salary    STATE BANK OF INDIA SECRETARIAT    33301101529                     APIIC Ltd                          IND INF CORP LTD AP-VC AND MD      VYSA000333033301101529                        URGENT  APIIC Ltd                33301101529     
