R4104262050000026  000000000086980000000000000000000099999999999999999PAO GOVT OF AP Hyderabad salary    STATE BANK OF INDIA SECRETARIAT    04262050000026                  AAO/ERO/APEPDCL/KAKINADA           IND INF CORP LTD AP-VC AND MD      HDFC000042604262050000026                     URGENT  AAO/ERO/APEPDCL/KAKINADA 04262050000026  
R4152089645576     000000000670530000000000000000000099999999999999999PAO GOVT OF AP Hyderabad salary    STATE BANK OF INDIA SECRETARIAT    52089645576                     Senior Accounts Officer Operation CIND INF CORP LTD AP-VC AND MD      SBHY002032852089645576                        URGENT  Senior Accounts Officer O52089645576     
R41146611100000007 000000006587380000000000000000000099999999999999999PAO GOVT OF AP Hyderabad salary    STATE BANK OF INDIA SECRETARIAT    146611100000007                  Sri Balaji Nursery                IND INF CORP LTD AP-VC AND MD      ANDB0001466146611100000007                    URGENT   Sri Balaji Nursery      146611100000007 
R41110905000088    000000000141600000000000000000000099999999999999999PAO GOVT OF AP Hyderabad salary    STATE BANK OF INDIA SECRETARIAT    110905000088                    APIIC Ltd                          IND INF CORP LTD AP-VC AND MD      ICIC0001109110905000088                       URGENT  APIIC Ltd                110905000088    
R41142210011805015 000000000070100000000000000000000099999999999999999PAO GOVT OF AP Hyderabad salary    STATE BANK OF INDIA SECRETARIAT    142210011805015                 The Secretary APBCWWB              IND INF CORP LTD AP-VC AND MD      ANDB0001422142210011805015                    URGENT  The Secretary APBCWWB    142210011805015 
R41328011000296    000000000280800000000000000000000099999999999999999PAO GOVT OF AP Hyderabad salary    STATE BANK OF INDIA SECRETARIAT    328011000296                    APIIC Ltd                          IND INF CORP LTD AP-VC AND MD      VYSA0003280328011000296                       URGENT  APIIC Ltd                328011000296    
R4133301101529     000000002785990000000000000000000099999999999999999PAO GOVT OF AP Hyderabad salary    STATE BANK OF INDIA SECRETARIAT    33301101529                     APIIC Ltd                          IND INF CORP LTD AP-VC AND MD      VYSA000333033301101529                        URGENT  APIIC Ltd                33301101529     
