R41BANKERSCHEQUE   000000000238000000000000000000000099999999999999999PAO GOVT OF AP Hyderabad salary    STATE BANK OF INDIA SECRETARIAT    BANKERSCHEQUE                   K RAMESH BABU                      COMM MUNICIPALITY VIZIANAGARAM                BANKERSCHEQUE                      URGENT  K RAMESH BABU            BANKERSCHEQUE   
R41BANKERSCHEQUE   000000000788880000000000000000000099999999999999999PAO GOVT OF AP Hyderabad salary    STATE BANK OF INDIA SECRETARIAT    BANKERSCHEQUE                   D RAMASWAMY                        COMM MUNICIPALITY VIZIANAGARAM                BANKERSCHEQUE                      URGENT  D RAMASWAMY              BANKERSCHEQUE   
R41BANKERSCHEQUE   000000000023800000000000000000000099999999999999999PAO GOVT OF AP Hyderabad salary    STATE BANK OF INDIA SECRETARIAT    BANKERSCHEQUE                   T V P Appa Rao                     COMM MUNICIPALITY VIZIANAGARAM                BANKERSCHEQUE                      URGENT  T V P Appa Rao           BANKERSCHEQUE   
R41BANKERSCHEQUE   000000000028250000000000000000000099999999999999999PAO GOVT OF AP Hyderabad salary    STATE BANK OF INDIA SECRETARIAT    BANKERSCHEQUE                   M APPALA RAJU                      COMM MUNICIPALITY VIZIANAGARAM                BANKERSCHEQUE                      URGENT  M APPALA RAJU            BANKERSCHEQUE   
R41BANKERSCHEQUE   000000000050000000000000000000000099999999999999999PAO GOVT OF AP Hyderabad salary    STATE BANK OF INDIA SECRETARIAT    BANKERSCHEQUE                   HARSHA VISION TELUGU DAILY VZM     COMM MUNICIPALITY VIZIANAGARAM                BANKERSCHEQUE                      URGENT  HARSHA VISION TELUGU DAILBANKERSCHEQUE   
R41BANKERSCHEQUE   000000000012500000000000000000000099999999999999999PAO GOVT OF AP Hyderabad salary    STATE BANK OF INDIA SECRETARIAT    BANKERSCHEQUE                   R PADMA                            COMM MUNICIPALITY VIZIANAGARAM                BANKERSCHEQUE                      URGENT  R PADMA                  BANKERSCHEQUE   
R41BANKERSCHEQUE   000000000025000000000000000000000099999999999999999PAO GOVT OF AP Hyderabad salary    STATE BANK OF INDIA SECRETARIAT    BANKERSCHEQUE                   G SATYANARAYANA                    COMM MUNICIPALITY VIZIANAGARAM                BANKERSCHEQUE                      URGENT  G SATYANARAYANA          BANKERSCHEQUE   
R41BANKERSCHEQUE   000000000025000000000000000000000099999999999999999PAO GOVT OF AP Hyderabad salary    STATE BANK OF INDIA SECRETARIAT    BANKERSCHEQUE                   G UMA                              COMM MUNICIPALITY VIZIANAGARAM                BANKERSCHEQUE                      URGENT  G UMA                    BANKERSCHEQUE   
R41BANKERSCHEQUE   000000000012500000000000000000000099999999999999999PAO GOVT OF AP Hyderabad salary    STATE BANK OF INDIA SECRETARIAT    BANKERSCHEQUE                   G KONDAMMA                         COMM MUNICIPALITY VIZIANAGARAM                BANKERSCHEQUE                      URGENT  G KONDAMMA               BANKERSCHEQUE   
R41BANKERSCHEQUE   000000000027460000000000000000000099999999999999999PAO GOVT OF AP Hyderabad salary    STATE BANK OF INDIA SECRETARIAT    BANKERSCHEQUE                   Y V BUTCHI RAJU                    COMM MUNICIPALITY VIZIANAGARAM                BANKERSCHEQUE                      URGENT  Y V BUTCHI RAJU          BANKERSCHEQUE   
R41BANKERSCHEQUE   000000000152230000000000000000000099999999999999999PAO GOVT OF AP Hyderabad salary    STATE BANK OF INDIA SECRETARIAT    BANKERSCHEQUE                   A O (CASH) BSNL VZM                COMM MUNICIPALITY VIZIANAGARAM                BANKERSCHEQUE                      URGENT  A O (CASH) BSNL VZM      BANKERSCHEQUE   
R41BANKERSCHEQUE   000000000352000000000000000000000099999999999999999PAO GOVT OF AP Hyderabad salary    STATE BANK OF INDIA SECRETARIAT    BANKERSCHEQUE                   BHARATHI ATRTEL (P) LTD            COMM MUNICIPALITY VIZIANAGARAM                BANKERSCHEQUE                      URGENT  BHARATHI ATRTEL (P) LTD  BANKERSCHEQUE   
R41BANKERSCHEQUE   000000000075000000000000000000000099999999999999999PAO GOVT OF AP Hyderabad salary    STATE BANK OF INDIA SECRETARIAT    BANKERSCHEQUE                   G PRATAP KUMAR                     COMM MUNICIPALITY VIZIANAGARAM                BANKERSCHEQUE                      URGENT  G PRATAP KUMAR           BANKERSCHEQUE   
