R41100022182163    000000006030000000000000000000000000000033881454741PAO GOVT OF AP Hyderabad salary    STATE BANK OF INDIA SECRETARIAT    100022182163                    R Venkatarami Reddy                SEEDS DEV CORP AP STATE -VC & MD   INDB0000063100022182163                       URGENT  R Venkatarami Reddy      100022182163    
R4107421700000716  000000007500000000000000000000000000000033881454741PAO GOVT OF AP Hyderabad salary    STATE BANK OF INDIA SECRETARIAT    07421700000716                  CB Govinda Reddy                   SEEDS DEV CORP AP STATE -VC & MD   HDFC000074207421700000716                     URGENT  CB Govinda Reddy         07421700000716  
R411499155000006730000000005170000000000000000000000000000033881454741PAO GOVT OF AP Hyderabad salary    STATE BANK OF INDIA SECRETARIAT    1499155000006730                K Someswara Reddy                  SEEDS DEV CORP AP STATE -VC & MD   KVBL00014991499155000006730                   URGENT  K Someswara Reddy        1499155000006730
R410661101039545   000000006810000000000000000000000000000033881454741PAO GOVT OF AP Hyderabad salary    STATE BANK OF INDIA SECRETARIAT    0661101039545                   B Panduranga Reddy                 SEEDS DEV CORP AP STATE -VC & MD   CNRB00006610661101039545                      URGENT  B Panduranga Reddy       0661101039545   
R410000006219430976000000051440000000000000000000000000000033881454741PAO GOVT OF AP Hyderabad salary    STATE BANK OF INDIA SECRETARIAT    00000062194309763               V Care seeds Pvt Ltd               SEEDS DEV CORP AP STATE -VC & MD   SBHY002087100000062194309763                  URGENT  V Care seeds Pvt Ltd     0000006219430976
R41060911011002450 000000004850000000000000000000000000000033881454741PAO GOVT OF AP Hyderabad salary    STATE BANK OF INDIA SECRETARIAT    060911011002450                 APSSDC Vizianagaram                SEEDS DEV CORP AP STATE -VC & MD   ANDB0000609060911011002450                    URGENT  APSSDC Vizianagaram      060911011002450 
