R41000000008365990000000000000000000000000033881454741PAO GOVT OF AP Hyderabad salary    STATE BANK OF INDIA SECRETARIAT    109610025000473                 Sri PAswartha Reddy                MED SERV & INF DEVP CORPN AP- MANA ANDB0001096109610025000473                    URGENT  Sri PAswartha Reddy      109610025000473 
R41000000000186910000000000000000000000000033881454741PAO GOVT OF AP Hyderabad salary    STATE BANK OF INDIA SECRETARIAT    142210011200206                 AP Labour Cess Commissioner HyderabMED SERV & INF DEVP CORPN AP- MANA ANDB0001422142210011200206                    URGENT  AP Labour Cess Commission142210011200206 
R41000000001514680000000000000000000000000033881454741PAO GOVT OF AP Hyderabad salary    STATE BANK OF INDIA SECRETARIAT    142410011000314                 MD APMSIDC Hyderabad               MED SERV & INF DEVP CORPN AP- MANA ANDB0001424142410011000314                    URGENT  MD APMSIDC Hyderabad     142410011000314 
