R41000000034884870000000000000000000000000033881454741PAO GOVT OF AP Hyderabad salary    STATE BANK OF INDIA SECRETARIAT    12521025400017                  Manager                            AGRL MARKETING COMMITTEE SECY GUNT ANDB0001252AGRL MARKETING COMMITTEE SECY GUNT URGENT  Manager                                                   02215447        EMLdpao-sect@ap.nic.in             
R41000000005693680000000000000000000000000033881454741PAO GOVT OF AP Hyderabad salary    STATE BANK OF INDIA SECRETARIAT    62352336325                     Senior Accounts Officer APSPDCL GunAGRL MARKETING COMMITTEE SECY GUNT SBHY0020346AGRL MARKETING COMMITTEE SECY GUNT URGENT  Senior Accounts Officer A                                 02215448        EMLdpao-sect@ap.nic.in             
R41000000000976420000000000000000000000000033881454741PAO GOVT OF AP Hyderabad salary    STATE BANK OF INDIA SECRETARIAT    52099566269                     A A O ERO Guntur 1                 AGRL MARKETING COMMITTEE SECY GUNT SBHY0020171AGRL MARKETING COMMITTEE SECY GUNT URGENT  A A O ERO Guntur 1                                        02215449        EMLdpao-sect@ap.nic.in             
R41000000000474270000000000000000000000000033881454741PAO GOVT OF AP Hyderabad salary    STATE BANK OF INDIA SECRETARIAT    52112780362                     K Siva Linga Prasad Guntur         AGRL MARKETING COMMITTEE SECY GUNT SBHY0020715AGRL MARKETING COMMITTEE SECY GUNT URGENT  K Siva Linga Prasad Guntu                                 02215451        EMLdpao-sect@ap.nic.in             
