R41911030062648747 000000000399880000000000000000000000000033881454741PAO GOVT OF AP Hyderabad salary    STATE BANK OF INDIA SECRETARIAT    911030062648747                 M s JYOTHI COMPUTER SERVICES       RES EDN INST SOC - AP(APREI SOCIET UTIB0001634911030062648747                    URGENT  M s JYOTHI COMPUTER SERVI911030062648747 
R4152100685030     000000000207450000000000000000000000000033881454741PAO GOVT OF AP Hyderabad salary    STATE BANK OF INDIA SECRETARIAT    52100685030                     PRL APRS GUNTUR                    RES EDN INST SOC - AP(APREI SOCIET SBHY002034652100685030                        URGENT  PRL APRS GUNTUR          52100685030     
R4152064980249     000000000677400000000000000000000000000033881454741PAO GOVT OF AP Hyderabad salary    STATE BANK OF INDIA SECRETARIAT    52064980249                     PRL APRS S M PURAM                 RES EDN INST SOC - AP(APREI SOCIET SBHY002018452064980249                        URGENT  PRL APRS S M PURAM       52064980249     
R4152129786218     000000000327550000000000000000000000000033881454741PAO GOVT OF AP Hyderabad salary    STATE BANK OF INDIA SECRETARIAT    52129786218                     PRL APRS SANTHANUTALAPAD           RES EDN INST SOC - AP(APREI SOCIET SBHY002048852129786218                        URGENT  PRL APRS SANTHANUTALAPAD 52129786218     
R4152118448035     000000000257100000000000000000000000000033881454741PAO GOVT OF AP Hyderabad salary    STATE BANK OF INDIA SECRETARIAT    52118448035                     PRL APRS TUNI                      RES EDN INST SOC - AP(APREI SOCIET SBHY002076852118448035                        URGENT  PRL APRS TUNI            52118448035     
R4162002066264     000000000224350000000000000000000000000033881454741PAO GOVT OF AP Hyderabad salary    STATE BANK OF INDIA SECRETARIAT    62002066264                     PRL APRS VEMPALLY                  RES EDN INST SOC - AP(APREI SOCIET SBHY002051362002066264                        URGENT  PRL APRS VEMPALLY        62002066264     
R4152081845618     000000001029300000000000000000000000000033881454741PAO GOVT OF AP Hyderabad salary    STATE BANK OF INDIA SECRETARIAT    52081845618                     PRL APRS KURNOOL                   RES EDN INST SOC - AP(APREI SOCIET SBHY002049252081845618                        URGENT  PRL APRS KURNOOL         52081845618     
