R41000000001966480000000000000000000000000033881454741PAO GOVT OF AP Hyderabad salary    STATE BANK OF INDIA SECRETARIAT    33193472309                     COE Thanakallu                     TRIBAL WELFARE RESIDENTIAL EDUCATI SBIN000279733193472309                        URGENT  COE Thanakallu                                            33193472309     EMLdpao-sect@ap.nic.in             
R41000000001832810000000000000000000000000033881454741PAO GOVT OF AP Hyderabad salary    STATE BANK OF INDIA SECRETARIAT    32083975133                     RJC G P Konavalasa                 TRIBAL WELFARE RESIDENTIAL EDUCATI SBIN000091432083975133                        URGENT  RJC G P Konavalasa                                        32083975133     EMLdpao-sect@ap.nic.in             
R41000000008234670000000000000000000000000033881454741PAO GOVT OF AP Hyderabad salary    STATE BANK OF INDIA SECRETARIAT    32085741352                     RS B P Konavalasa                  TRIBAL WELFARE RESIDENTIAL EDUCATI SBIN000091432085741352                        URGENT  RS B P Konavalasa                                         32085741352     EMLdpao-sect@ap.nic.in             
R41000000008110060000000000000000000000000033881454741PAO GOVT OF AP Hyderabad salary    STATE BANK OF INDIA SECRETARIAT    11254486827                     RS B Koyyuru                       TRIBAL WELFARE RESIDENTIAL EDUCATI SBIN000088611254486827                        URGENT  RS B Koyyuru                                              11254486827     EMLdpao-sect@ap.nic.in             
R41000000008389010000000000000000000000000033881454741PAO GOVT OF AP Hyderabad salary    STATE BANK OF INDIA SECRETARIAT    32126623890                     RS G Paderu                        TRIBAL WELFARE RESIDENTIAL EDUCATI SBIN000947332126623890                        URGENT  RS G Paderu                                               32126623890     EMLdpao-sect@ap.nic.in             
R41000000008149910000000000000000000000000033881454741PAO GOVT OF AP Hyderabad salary    STATE BANK OF INDIA SECRETARIAT    32426954694                     RS B Pedabayalu                    TRIBAL WELFARE RESIDENTIAL EDUCATI SBIN000947632426954694                        URGENT  RS B Pedabayalu                                           32426954694     EMLdpao-sect@ap.nic.in             
R41000000006520580000000000000000000000000033881454741PAO GOVT OF AP Hyderabad salary    STATE BANK OF INDIA SECRETARIAT    34027803777                     RS B Upper Sileru                  TRIBAL WELFARE RESIDENTIAL EDUCATI SBIN000088634027803777                        URGENT  RS B Upper Sileru                                         34027803777     EMLdpao-sect@ap.nic.in             
R41000000007861160000000000000000000000000033881454741PAO GOVT OF AP Hyderabad salary    STATE BANK OF INDIA SECRETARIAT    31906552465                     RS B Addateegala                   TRIBAL WELFARE RESIDENTIAL EDUCATI SBIN000588331906552465                        URGENT  RS B Addateegala                                          31906552465     EMLdpao-sect@ap.nic.in             
