R41000000021846750000000000000000000000000033881454741PAO GOVT OF AP Hyderabad salary    STATE BANK OF INDIA SECRETARIAT    297702000000100                 M/s Suma Sree Constructions        MED SERV & INF DEVP CORPN AP- MANA IOBA0002977297702000000100                    URGENT  M/s Suma Sree Constructio                                 297702000000100 EMLdpao-sect@ap.nic.in             
R41000000000203730000000000000000000000000033881454741PAO GOVT OF AP Hyderabad salary    STATE BANK OF INDIA SECRETARIAT    142210011200206                 APLabour Cess Commissioner  HyderabMED SERV & INF DEVP CORPN AP- MANA ANDB0001422142210011200206                    URGENT  APLabour Cess Commissione                                 142210011200206 EMLdpao-sect@ap.nic.in             
R41000000005034920000000000000000000000000033881454741PAO GOVT OF AP Hyderabad salary    STATE BANK OF INDIA SECRETARIAT    142410011000314                 MD APMSIDC  Hyderabad              MED SERV & INF DEVP CORPN AP- MANA ANDB0001424142410011000314                    URGENT  MD APMSIDC  Hyderabad                                     142410011000314 EMLdpao-sect@ap.nic.in             
