R41230710100009965 000000000041600000000000000000000000000033881454741PAO GOVT OF AP Hyderabad salary    STATE BANK OF INDIA SECRETARIAT    230710100009965                 CGIRI                              ZILLA PARISHAD DY CEO CHITTOOR     ANDB0001159230710100009965                    URGENT  CGIRI                    230710100009965 
R41115913100000502 000000000159000000000000000000000000000033881454741PAO GOVT OF AP Hyderabad salary    STATE BANK OF INDIA SECRETARIAT    115913100000502                 RAVI AUTO MOBILES CHITTOOR         ZILLA PARISHAD DY CEO CHITTOOR     ANDB0001159115913100000502                    URGENT  RAVI AUTO MOBILES CHITTOO115913100000502 
R4112064           000000000192000000000000000000000000000033881454741PAO GOVT OF AP Hyderabad salary    STATE BANK OF INDIA SECRETARIAT    12064                           VENKATESULUS                       ZILLA PARISHAD DY CEO CHITTOOR     UBIN053596612064                              URGENT  VENKATESULUS             12064           
