R41000000000032460000000000000000000000000034999029838MUNICIPAL COMMISSIONER, SRIKAKULAM STATE BANK OF INDIA                6144963215                      Rella Ramana Rao                   MUNICIPAL COMMISSIONER SRIKAKULAM  idib000s070MUNICIPAL COMMISSIONER SRIKAKULAM  URGENT  Rella Ramana Rao                                          0359541         commissionersklm@yahoo.co.in       
R41000000000032460000000000000000000000000034999029838MUNICIPAL COMMISSIONER, SRIKAKULAM STATE BANK OF INDIA                142710100040281                 Joga Kalidasu                      MUNICIPAL COMMISSIONER SRIKAKULAM  andb0001427MUNICIPAL COMMISSIONER SRIKAKULAM  URGENT  Joga Kalidasu                                             0359542         commissionersklm@yahoo.co.in       
R41000000000032460000000000000000000000000034999029838MUNICIPAL COMMISSIONER, SRIKAKULAM STATE BANK OF INDIA                386802010014476                 Duddhi Appalakonda                 MUNICIPAL COMMISSIONER SRIKAKULAM  ubin0538680MUNICIPAL COMMISSIONER SRIKAKULAM  URGENT  Duddhi Appalakonda                                        0359543         commissionersklm@yahoo.co.in       
R41000000000032460000000000000000000000000034999029838MUNICIPAL COMMISSIONER, SRIKAKULAM STATE BANK OF INDIA                33049232895                     Nakka Narasinga Rao                MUNICIPAL COMMISSIONER SRIKAKULAM  sbin0015103MUNICIPAL COMMISSIONER SRIKAKULAM  URGENT  Nakka Narasinga Rao                                       0359544         commissionersklm@yahoo.co.in       
R41000000000032460000000000000000000000000034999029838MUNICIPAL COMMISSIONER, SRIKAKULAM STATE BANK OF INDIA                33624303253                     Umasankar Dola                     MUNICIPAL COMMISSIONER SRIKAKULAM  sbin0011105MUNICIPAL COMMISSIONER SRIKAKULAM  URGENT  Umasankar Dola                                            0359545         commissionersklm@yahoo.co.in       
