R41000000001301620000000000000000000000000033881454741PAO GOVT OF AP Hyderabad salary    STATE BANK OF INDIA SECRETARIAT    62333370358                     RS B VP South Nagarjunasagar       TRIBAL WELFARE RESIDENTIAL EDUCATI SBHY002062162333370358                        URGENT  RS B VP South Nagarjunasa62333370358     
R41000000002628780000000000000000000000000033881454741PAO GOVT OF AP Hyderabad salary    STATE BANK OF INDIA SECRETARIAT    62205023388                     RJC B RC Varam                     TRIBAL WELFARE RESIDENTIAL EDUCATI SBHY002119962205023388                        URGENT  RJC B RC Varam           62205023388     
R41000000000906040000000000000000000000000033881454741PAO GOVT OF AP Hyderabad salary    STATE BANK OF INDIA SECRETARIAT    62039007705                     RS G Rajavommangi                  TRIBAL WELFARE RESIDENTIAL EDUCATI SBHY002052162039007705                        URGENT  RS G Rajavommangi        62039007705     
