R41000000006030000000000000000000000000000033881454741PAO GOVT OF AP Hyderabad salary    STATE BANK OF INDIA SECRETARIAT    100022182163                    R Venkatarami Reddy                SEEDS DEV CORP AP STATE -VC & MD   INDB0000063SEEDS DEV CORP AP STATE -VC & MD   URGENT  R Venkatarami Reddy                                       0181152         EMLdpao-sect@ap.nic.in             
R41000000007500000000000000000000000000000033881454741PAO GOVT OF AP Hyderabad salary    STATE BANK OF INDIA SECRETARIAT    07421700000716                  CB Govinda Reddy                   SEEDS DEV CORP AP STATE -VC & MD   HDFC0000742SEEDS DEV CORP AP STATE -VC & MD   URGENT  CB Govinda Reddy                                          0181153         EMLdpao-sect@ap.nic.in             
R41000000005170000000000000000000000000000033881454741PAO GOVT OF AP Hyderabad salary    STATE BANK OF INDIA SECRETARIAT    1499155000006730                K Someswara Reddy                  SEEDS DEV CORP AP STATE -VC & MD   KVBL0001499SEEDS DEV CORP AP STATE -VC & MD   URGENT  K Someswara Reddy                                         0181155         EMLdpao-sect@ap.nic.in             
R41000000006810000000000000000000000000000033881454741PAO GOVT OF AP Hyderabad salary    STATE BANK OF INDIA SECRETARIAT    0661101039545                   B Panduranga Reddy                 SEEDS DEV CORP AP STATE -VC & MD   CNRB0000661SEEDS DEV CORP AP STATE -VC & MD   URGENT  B Panduranga Reddy                                        0181156         EMLdpao-sect@ap.nic.in             
R41000000051440000000000000000000000000000033881454741PAO GOVT OF AP Hyderabad salary    STATE BANK OF INDIA SECRETARIAT    00000062194309763               V Care seeds Pvt Ltd               SEEDS DEV CORP AP STATE -VC & MD   SBHY0020871SEEDS DEV CORP AP STATE -VC & MD   URGENT  V Care seeds Pvt Ltd                                      0181157         EMLdpao-sect@ap.nic.in             
R41000000004850000000000000000000000000000033881454741PAO GOVT OF AP Hyderabad salary    STATE BANK OF INDIA SECRETARIAT    060911011002450                 APSSDC Vizianagaram                SEEDS DEV CORP AP STATE -VC & MD   ANDB0000609SEEDS DEV CORP AP STATE -VC & MD   URGENT  APSSDC Vizianagaram                                       0181158         EMLdpao-sect@ap.nic.in             
