R41000000001000000000000000000000000000000033881454741PAO GOVT OF AP Hyderabad salary    STATE BANK OF INDIA SECRETARIAT    868810110008999                 Serakari Rehumathulla              MINORITIES FINANCE COR LTD, AP STA BKID0008688868810110008999                    URGENT  Serakari Rehumathulla                                     868810110008999 EMLdpao-sect@ap.nic.in             
R41000000001000000000000000000000000000000033881454741PAO GOVT OF AP Hyderabad salary    STATE BANK OF INDIA SECRETARIAT    2609108005462                   Shaik Fathimunnisa                 MINORITIES FINANCE COR LTD, AP STA CNRB00026092609108005462                      URGENT  Shaik Fathimunnisa                                        2609108005462   EMLdpao-sect@ap.nic.in             
R41000000001000000000000000000000000000000033881454741PAO GOVT OF AP Hyderabad salary    STATE BANK OF INDIA SECRETARIAT    2609101008527                   Hazra Begum                        MINORITIES FINANCE COR LTD, AP STA CNRB00026092609101008527                      URGENT  Hazra Begum                                               2609101008527   EMLdpao-sect@ap.nic.in             
R41000000001000000000000000000000000000000033881454741PAO GOVT OF AP Hyderabad salary    STATE BANK OF INDIA SECRETARIAT    2609101008528                   Mahaboob Jameela Begum             MINORITIES FINANCE COR LTD, AP STA CNRB00026092609101008528                      URGENT  Mahaboob Jameela Begum                                    2609101008528   EMLdpao-sect@ap.nic.in             
R41000000001000000000000000000000000000000033881454741PAO GOVT OF AP Hyderabad salary    STATE BANK OF INDIA SECRETARIAT    2609101006601                   Nazmunnisha Nazmunnisha            MINORITIES FINANCE COR LTD, AP STA CNRB00026092609101006601                      URGENT  Nazmunnisha Nazmunnisha                                   2609101006601   EMLdpao-sect@ap.nic.in             
R41000000001000000000000000000000000000000033881454741PAO GOVT OF AP Hyderabad salary    STATE BANK OF INDIA SECRETARIAT    2609108004457                   Shaik Gousiya Begum                MINORITIES FINANCE COR LTD, AP STA CNRB00026092609108004457                      URGENT  Shaik Gousiya Begum                                       2609108004457   EMLdpao-sect@ap.nic.in             
R41000000001000000000000000000000000000000033881454741PAO GOVT OF AP Hyderabad salary    STATE BANK OF INDIA SECRETARIAT    3441473178                      Thamilansari                       MINORITIES FINANCE COR LTD, AP STACBIN0284553 3441473178                         URGENT  Thamilansari                                              3441473178      EMLdpao-sect@ap.nic.in             
R41000000001000000000000000000000000000000033881454741PAO GOVT OF AP Hyderabad salary    STATE BANK OF INDIA SECRETARIAT    35892010005926                  Mahammad Naseeraparveen            MINORITIES FINANCE COR LTD, AP STA SYNB000358935892010005926                     URGENT  Mahammad Naseeraparveen                                   35892010005926  EMLdpao-sect@ap.nic.in             
