R41000000001141700000000000000000000000000033881454741PD  GOVT OF AP Hyderabad salary    STATE BANK OF INDIA SECRETARIAT    BANKERS CHEQUE                  THE BM SBI MAIN BRANCH VZM         COMM MUNICIPALITY VIZIANAGARAM                BANKERS CHEQUE                     URGENT  THE BM SBI MAIN BRANCH VZBANKERS CHEQUE  
R41000000001450820000000000000000000000000033881454741PD  GOVT OF AP Hyderabad salary    STATE BANK OF INDIA SECRETARIAT    BANKERS CHEQUE                  THE BM SBI MAIN BRANCH VZM         COMM MUNICIPALITY VIZIANAGARAM                BANKERS CHEQUE                     URGENT  THE BM SBI MAIN BRANCH VZBANKERS CHEQUE  
R41000000000239320000000000000000000000000033881454741PD  GOVT OF AP Hyderabad salary    STATE BANK OF INDIA SECRETARIAT    BANKERS CHEQUE                  THE BM SBI MAIN BRANCH VZM         COMM MUNICIPALITY VIZIANAGARAM                BANKERS CHEQUE                     URGENT  THE BM SBI MAIN BRANCH VZBANKERS CHEQUE  
R41000000000258600000000000000000000000000033881454741PD  GOVT OF AP Hyderabad salary    STATE BANK OF INDIA SECRETARIAT    BANKERS CHEQUE                  THE BM ANDHRA BANK VZM             COMM MUNICIPALITY VIZIANAGARAM                BANKERS CHEQUE                     URGENT  THE BM ANDHRA BANK VZM   BANKERS CHEQUE  
R41000000000016230000000000000000000000000033881454741PD  GOVT OF AP Hyderabad salary    STATE BANK OF INDIA SECRETARIAT    32246673491                     B GANDHI                           COMM MUNICIPALITY VIZIANAGARAM                32246673491                        URGENT  B GANDHI                 32246673491     
