R41000000000050450000000000000000000000000033881454741PAO GOVT OF AP Hyderabad salary    STATE BANK OF INDIA SECRETARIAT    015210100121911                 DVSAPPARAO                         PLANNING DEPT CHIEF PLANNING OFFIC ANDM0000152015210100121911                    URGENT  DVSAPPARAO               015210100121911 
R41000000000143850000000000000000000000000033881454741PAO GOVT OF AP Hyderabad salary    STATE BANK OF INDIA SECRETARIAT    45610101003504E14               LIMRATOURSAND TRAVELS              PLANNING DEPT CHIEF PLANNING OFFIC UBIN054561945610101003504E14                  URGENT  LIMRATOURSAND TRAVELS    45610101003504E1
R41000000000892000000000000000000000000000033881454741PAO GOVT OF AP Hyderabad salary    STATE BANK OF INDIA SECRETARIAT    1436115000002414                SSCOMPUTERSHOPPEE                  PLANNING DEPT CHIEF PLANNING OFFIC KVBL00014361436115000002414                   URGENT  SSCOMPUTERSHOPPEE        1436115000002414
