R4112521025400017  000000034884870000000000000000000000000033881454741PAO GOVT OF AP Hyderabad salary    STATE BANK OF INDIA SECRETARIAT    12521025400017                  Manager                            AGRL MARKETING COMMITTEE SECY GUNT ANDB000125212521025400017                     URGENT  Manager                  12521025400017  
R4162352336325     000000005693680000000000000000000000000033881454741PAO GOVT OF AP Hyderabad salary    STATE BANK OF INDIA SECRETARIAT    62352336325                     Senior Accounts Officer APSPDCL GunAGRL MARKETING COMMITTEE SECY GUNT SBHY002034662352336325                        URGENT  Senior Accounts Officer A62352336325     
R4152099566269     000000000976420000000000000000000000000033881454741PAO GOVT OF AP Hyderabad salary    STATE BANK OF INDIA SECRETARIAT    52099566269                     A A O ERO Guntur 1                 AGRL MARKETING COMMITTEE SECY GUNT SBHY002017152099566269                        URGENT  A A O ERO Guntur 1       52099566269     
R4152112780362     000000000474270000000000000000000000000033881454741PAO GOVT OF AP Hyderabad salary    STATE BANK OF INDIA SECRETARIAT    52112780362                     K Siva Linga Prasad Guntur         AGRL MARKETING COMMITTEE SECY GUNT SBHY002071552112780362                        URGENT  K Siva Linga Prasad Guntu52112780362     
