R41000000000300000000000000000000000000000033881454741PAO GOVT OF AP Hyderabad salary    STATE BANK OF INDIA SECRETARIAT    3440201319                      Shake Kamala                       MINORITIES FINANCE COR LTD, AP STA CBIN02833643440201319                         URGENT  Shake Kamala                                              3440201319      EMLdpao-sect@ap.nic.in             
R41000000000500000000000000000000000000000033881454741PAO GOVT OF AP Hyderabad salary    STATE BANK OF INDIA SECRETARIAT    102000101006084                 Asha                               MINORITIES FINANCE COR LTD, AP STA CORP0001020102000101006084                    URGENT  Asha                                                      102000101006084 EMLdpao-sect@ap.nic.in             
R41000000000300000000000000000000000000000033881454741PAO GOVT OF AP Hyderabad salary    STATE BANK OF INDIA SECRETARIAT    573502010006423                 Shek Nurjahan                      MINORITIES FINANCE COR LTD, AP STA UBIN0557358573502010006423                    URGENT  Shek Nurjahan                                             573502010006423 EMLdpao-sect@ap.nic.in             
