R41000000000346200000000000000000000099999999999999999PAO GOVT OF AP Hyderabad salary    STATE BANK OF INDIA SECRETARIAT    62224284511                     Sri RSSantha Ram                   MED SERV & INF DEVP CORPN AP- MANA SBHY002124762224284511                        URGENT  Sri RSSantha Ram                                          62224284511     EMLdpao-sect@ap.nic.in             
R41000000000124000000000000000000000099999999999999999PAO GOVT OF AP Hyderabad salary    STATE BANK OF INDIA SECRETARIAT    142210011200206                 AP Labour Cess Commissioner HyderabMED SERV & INF DEVP CORPN AP- MANA ANDB0001422142210011200206                    URGENT  AP Labour Cess Commission                                 142210011200206 EMLdpao-sect@ap.nic.in             
R41000000000865190000000000000000000099999999999999999PAO GOVT OF AP Hyderabad salary    STATE BANK OF INDIA SECRETARIAT    142410011000314                 MD APMSIDC Hyderabad               MED SERV & INF DEVP CORPN AP- MANA ANDB0001424142410011000314                    URGENT  MD APMSIDC Hyderabad                                      142410011000314 EMLdpao-sect@ap.nic.in             
