R4111607265753     000000000122460000000000000000000000000033881454741PAO GOVT OF AP Hyderabad salary    STATE BANK OF INDIA SECRETARIAT    11607265753                     KDAMAYANTHAMMA                     PD ADMINISTRATOR                             111607265753                        URGENT  KDAMAYANTHAMMA           11607265753     
R4111607271289     000000000075380000000000000000000000000033881454741PAO GOVT OF AP Hyderabad salary    STATE BANK OF INDIA SECRETARIAT    11607271289                     TLKANTAMMA                         PD ADMINISTRATOR                             111607271289                        URGENT  TLKANTAMMA               11607271289     
R4132236497018     000000000088760000000000000000000000000033881454741PAO GOVT OF AP Hyderabad salary    STATE BANK OF INDIA SECRETARIAT    32236497018                     DSAROJINI                          PD ADMINISTRATOR                             132236497018                        URGENT  DSAROJINI                32236497018     
R4130420766462     000000000094670000000000000000000000000033881454741PAO GOVT OF AP Hyderabad salary    STATE BANK OF INDIA SECRETARIAT    30420766462                     PPUNNAIAH                          PD ADMINISTRATOR                             230420766462                        URGENT  PPUNNAIAH                30420766462     
R4111302009432     000000000104880000000000000000000000000033881454741PAO GOVT OF AP Hyderabad salary    STATE BANK OF INDIA SECRETARIAT    11302009432                     VGOPALA RAO                        PD ADMINISTRATOR                             211302009432                        URGENT  VGOPALA RAO              11302009432     
R4111302006055     000000000044350000000000000000000000000033881454741PAO GOVT OF AP Hyderabad salary    STATE BANK OF INDIA SECRETARIAT    11302006055                     BDURGAMMA(EMP)                     PD ADMINISTRATOR                             211302006055                        URGENT  BDURGAMMA(EMP)           11302006055     
R4111302009771     000000000071550000000000000000000000000033881454741PAO GOVT OF AP Hyderabad salary    STATE BANK OF INDIA SECRETARIAT    11302009771                     VPITACHAMMA                        PD ADMINISTRATOR                             211302009771                        URGENT  VPITACHAMMA              11302009771     
R4111302010233     000000000113530000000000000000000000000033881454741PAO GOVT OF AP Hyderabad salary    STATE BANK OF INDIA SECRETARIAT    11302010233                     YNARASIMHA RAO                     PD ADMINISTRATOR                             211302010233                        URGENT  YNARASIMHA RAO           11302010233     
R4111302010551     000000000071550000000000000000000000000033881454741PAO GOVT OF AP Hyderabad salary    STATE BANK OF INDIA SECRETARIAT    11302010551                     KSYAMALAMMA                        PD ADMINISTRATOR                             211302010551                        URGENT  KSYAMALAMMA              11302010551     
R4111302001885     000000000044350000000000000000000000000033881454741PAO GOVT OF AP Hyderabad salary    STATE BANK OF INDIA SECRETARIAT    11302001885                     K RAMA RAO(EMP)                    PD ADMINISTRATOR                             211302001885                        URGENT  K RAMA RAO(EMP)          11302001885     
R4111302010947     000000000116350000000000000000000000000033881454741PAO GOVT OF AP Hyderabad salary    STATE BANK OF INDIA SECRETARIAT    11302010947                     CHVENKATESWARULU                   PD ADMINISTRATOR                             211302010947                        URGENT  CHVENKATESWARULU         11302010947     
R4111301998335     000000000044350000000000000000000000000033881454741PAO GOVT OF AP Hyderabad salary    STATE BANK OF INDIA SECRETARIAT    11301998335                     YNUKALAMM (EMP)                    PD ADMINISTRATOR                             211301998335                        URGENT  YNUKALAMM (EMP)          11301998335     
R4111301937326     000000000044350000000000000000000000000033881454741PAO GOVT OF AP Hyderabad salary    STATE BANK OF INDIA SECRETARIAT    11301937326                     DANASUYA (EMP)                     PD ADMINISTRATOR                             211301937326                        URGENT  DANASUYA (EMP)           11301937326     
R4130449675186     000000000122500000000000000000000000000033881454741PAO GOVT OF AP Hyderabad salary    STATE BANK OF INDIA SECRETARIAT    30449675186                     M DEVIKA                           PD ADMINISTRATOR                             230449675186                        URGENT  M DEVIKA                 30449675186     
R4111301998302     000000000115840000000000000000000000000033881454741PAO GOVT OF AP Hyderabad salary    STATE BANK OF INDIA SECRETARIAT    11301998302                     YSUSEELA                           PD ADMINISTRATOR                             211301998302                        URGENT  YSUSEELA                 11301998302     
R4111302001885     000000000122460000000000000000000000000033881454741PAO GOVT OF AP Hyderabad salary    STATE BANK OF INDIA SECRETARIAT    11302001885                     K RAMA RAO                         PD ADMINISTRATOR                             211302001885                        URGENT  K RAMA RAO               11302001885     
R4130885879067     000000000055280000000000000000000000000033881454741PAO GOVT OF AP Hyderabad salary    STATE BANK OF INDIA SECRETARIAT    30885879067                     CH POTHURAJU                       PD ADMINISTRATOR                             230885879067                        URGENT  CH POTHURAJU             30885879067     
R4111302009953     000000000089390000000000000000000000000033881454741PAO GOVT OF AP Hyderabad salary    STATE BANK OF INDIA SECRETARIAT    11302009953                     BVENKATAKRISHNA RAO                PD ADMINISTRATOR                             211302009953                        URGENT  BVENKATAKRISHNA RAO      11302009953     
R4111302011168     000000000116350000000000000000000000000033881454741PAO GOVT OF AP Hyderabad salary    STATE BANK OF INDIA SECRETARIAT    11302011168                     NRENUKAMMA                         PD ADMINISTRATOR                             211302011168                        URGENT  NRENUKAMMA               11302011168     
R4130203109551     000000000074440000000000000000000000000033881454741PAO GOVT OF AP Hyderabad salary    STATE BANK OF INDIA SECRETARIAT    30203109551                     PNAGA SESHA KUMARI                 PD ADMINISTRATOR                             230203109551                        URGENT  PNAGA SESHA KUMARI       30203109551     
R4130997672055     000000000158590000000000000000000000000033881454741PAO GOVT OF AP Hyderabad salary    STATE BANK OF INDIA SECRETARIAT    30997672055                     P JHANSI                           PD ADMINISTRATOR                             230997672055                        URGENT  P JHANSI                 30997672055     
R4132996110309     000000000080280000000000000000000000000033881454741PAO GOVT OF AP Hyderabad salary    STATE BANK OF INDIA SECRETARIAT    32996110309                     BBASAVARATNAM                      PD ADMINISTRATOR                             232996110309                        URGENT  BBASAVARATNAM            32996110309     
R4111301949853     000000000116350000000000000000000000000033881454741PAO GOVT OF AP Hyderabad salary    STATE BANK OF INDIA SECRETARIAT    11301949853                     SSITHARAVAMMA                      PD ADMINISTRATOR                             211301949853                        URGENT  SSITHARAVAMMA            11301949853     
R4131664658067     000000000122520000000000000000000000000033881454741PAO GOVT OF AP Hyderabad salary    STATE BANK OF INDIA SECRETARIAT    31664658067                     YBHARATHI                          PD ADMINISTRATOR                             231664658067                        URGENT  YBHARATHI                31664658067     
R4111580044466     000000000114970000000000000000000000000033881454741PAO GOVT OF AP Hyderabad salary    STATE BANK OF INDIA SECRETARIAT    11580044466                     PJAPAMALA                          PD ADMINISTRATOR                             311580044466                        URGENT  PJAPAMALA                11580044466     
R4130479290189     000000000071550000000000000000000000000033881454741PAO GOVT OF AP Hyderabad salary    STATE BANK OF INDIA SECRETARIAT    30479290189                     ASIVANAGULU                        PD ADMINISTRATOR                             330479290189                        URGENT  ASIVANAGULU              30479290189     
R4111579998905     000000000080280000000000000000000000000033881454741PAO GOVT OF AP Hyderabad salary    STATE BANK OF INDIA SECRETARIAT    11579998905                     BNANCHARAMMA                       PD ADMINISTRATOR                             311579998905                        URGENT  BNANCHARAMMA             11579998905     
R4111580043643     000000000071550000000000000000000000000033881454741PAO GOVT OF AP Hyderabad salary    STATE BANK OF INDIA SECRETARIAT    11580043643                     ASUBBAMMA                          PD ADMINISTRATOR                             311580043643                        URGENT  ASUBBAMMA                11580043643     
R4111580044579     000000000078310000000000000000000000000033881454741PAO GOVT OF AP Hyderabad salary    STATE BANK OF INDIA SECRETARIAT    11580044579                     MDIBRAHIM                          PD ADMINISTRATOR                             311580044579                        URGENT  MDIBRAHIM                11580044579     
R4111580030281     000000000119400000000000000000000000000033881454741PAO GOVT OF AP Hyderabad salary    STATE BANK OF INDIA SECRETARIAT    11580030281                     GCHANDRAMMA                        PD ADMINISTRATOR                             311580030281                        URGENT  GCHANDRAMMA              11580030281     
R4111580017410     000000000132160000000000000000000000000033881454741PAO GOVT OF AP Hyderabad salary    STATE BANK OF INDIA SECRETARIAT    11580017410                     KHYMAVATHI                         PD ADMINISTRATOR                             311580017410                        URGENT  KHYMAVATHI               11580017410     
R4111580016427     000000000071550000000000000000000000000033881454741PAO GOVT OF AP Hyderabad salary    STATE BANK OF INDIA SECRETARIAT    11580016427                     DRAJAMMA                           PD ADMINISTRATOR                             311580016427                        URGENT  DRAJAMMA                 11580016427     
R4111580044228     000000000102110000000000000000000000000033881454741PAO GOVT OF AP Hyderabad salary    STATE BANK OF INDIA SECRETARIAT    11580044228                     PNAGESWARA RAO                     PD ADMINISTRATOR                             311580044228                        URGENT  PNAGESWARA RAO           11580044228     
R4111580044603     000000000071550000000000000000000000000033881454741PAO GOVT OF AP Hyderabad salary    STATE BANK OF INDIA SECRETARIAT    11580044603                     CHESWARAMMA                        PD ADMINISTRATOR                             311580044603                        URGENT  CHESWARAMMA              11580044603     
R4131037229289     000000000078230000000000000000000000000033881454741PAO GOVT OF AP Hyderabad salary    STATE BANK OF INDIA SECRETARIAT    31037229289                     SMAHALAKSHMI                       PD ADMINISTRATOR                             331037229289                        URGENT  SMAHALAKSHMI             31037229289     
R4132156402547     000000000078250000000000000000000000000033881454741PAO GOVT OF AP Hyderabad salary    STATE BANK OF INDIA SECRETARIAT    32156402547                     BVENKATESWARA RAO                  PD ADMINISTRATOR                             332156402547                        URGENT  BVENKATESWARA RAO        32156402547     
R4132526186955     000000000071550000000000000000000000000033881454741PAO GOVT OF AP Hyderabad salary    STATE BANK OF INDIA SECRETARIAT    32526186955                     BDURGA                             PD ADMINISTRATOR                             532526186955                        URGENT  BDURGA                   32526186955     
R4110442783914     000000000111560000000000000000000000000033881454741PAO GOVT OF AP Hyderabad salary    STATE BANK OF INDIA SECRETARIAT    10442783914                     PVENKATESWARA RAO                  PD ADMINISTRATOR                             610442783914                        URGENT  PVENKATESWARA RAO        10442783914     
R4110442774375     000000000075490000000000000000000000000033881454741PAO GOVT OF AP Hyderabad salary    STATE BANK OF INDIA SECRETARIAT    10442774375                     SANJANADEVI                        PD ADMINISTRATOR                             610442774375                        URGENT  SANJANADEVI              10442774375     
R4110442785297     000000000078230000000000000000000000000033881454741PAO GOVT OF AP Hyderabad salary    STATE BANK OF INDIA SECRETARIAT    10442785297                     KJAMALAMMA                         PD ADMINISTRATOR                             610442785297                        URGENT  KJAMALAMMA               10442785297     
R4130117502745     000000000071550000000000000000000000000033881454741PAO GOVT OF AP Hyderabad salary    STATE BANK OF INDIA SECRETARIAT    30117502745                     VRAMANAMMA                         PD ADMINISTRATOR                             630117502745                        URGENT  VRAMANAMMA               30117502745     
R4111357188542     000000000074300000000000000000000000000033881454741PAO GOVT OF AP Hyderabad salary    STATE BANK OF INDIA SECRETARIAT    11357188542                     MBHASKER RAO                       PD ADMINISTRATOR                             711357188542                        URGENT  MBHASKER RAO             11357188542     
R4111357200457     000000000046050000000000000000000000000033881454741PAO GOVT OF AP Hyderabad salary    STATE BANK OF INDIA SECRETARIAT    11357200457                     VGANGAMMA     (EMP)                PD ADMINISTRATOR                             711357200457                        URGENT  VGANGAMMA     (EMP)      11357200457     
R4111357161766     000000000082490000000000000000000000000033881454741PAO GOVT OF AP Hyderabad salary    STATE BANK OF INDIA SECRETARIAT    11357161766                     BNUKALAMMA                         PD ADMINISTRATOR                             711357161766                        URGENT  BNUKALAMMA               11357161766     
R4111357203345     000000000103040000000000000000000000000033881454741PAO GOVT OF AP Hyderabad salary    STATE BANK OF INDIA SECRETARIAT    11357203345                     YRAJALU                            PD ADMINISTRATOR                             711357203345                        URGENT  YRAJALU                  11357203345     
R4111357272172     000000000107900000000000000000000000000033881454741PAO GOVT OF AP Hyderabad salary    STATE BANK OF INDIA SECRETARIAT    11357272172                     VSANYASI                           PD ADMINISTRATOR                             711357272172                        URGENT  VSANYASI                 11357272172     
R4111357161766     000000000044350000000000000000000000000033881454741PAO GOVT OF AP Hyderabad salary    STATE BANK OF INDIA SECRETARIAT    11357161766                     BNUKALAMMA (EMP)                   PD ADMINISTRATOR                             711357161766                        URGENT  BNUKALAMMA (EMP)         11357161766     
R4111357273629     000000000119200000000000000000000000000033881454741PAO GOVT OF AP Hyderabad salary    STATE BANK OF INDIA SECRETARIAT    11357273629                     TKONDAIAH                          PD ADMINISTRATOR                             711357273629                        URGENT  TKONDAIAH                11357273629     
R4111357221820     000000000046530000000000000000000000000033881454741PAO GOVT OF AP Hyderabad salary    STATE BANK OF INDIA SECRETARIAT    11357221820                     AKOTESWARAMMA                      PD ADMINISTRATOR                             711357221820                        URGENT  AKOTESWARAMMA            11357221820     
R4111357201814     000000000074300000000000000000000000000033881454741PAO GOVT OF AP Hyderabad salary    STATE BANK OF INDIA SECRETARIAT    11357201814                     YELIJEBETHAMMA                     PD ADMINISTRATOR                             711357201814                        URGENT  YELIJEBETHAMMA           11357201814     
R4111357264514     000000000044350000000000000000000000000033881454741PAO GOVT OF AP Hyderabad salary    STATE BANK OF INDIA SECRETARIAT    11357264514                     CHSIVAKUMARI (EMP)                 PD ADMINISTRATOR                             711357264514                        URGENT  CHSIVAKUMARI (EMP)       11357264514     
R4130751456272     000000000071550000000000000000000000000033881454741PAO GOVT OF AP Hyderabad salary    STATE BANK OF INDIA SECRETARIAT    30751456272                     A VENKATA SEETHAMMA                PD ADMINISTRATOR                             730751456272                        URGENT  A VENKATA SEETHAMMA      30751456272     
R4111357273765     000000000119400000000000000000000000000033881454741PAO GOVT OF AP Hyderabad salary    STATE BANK OF INDIA SECRETARIAT    11357273765                     YKONDAMMA                          PD ADMINISTRATOR                             711357273765                        URGENT  YKONDAMMA                11357273765     
R4132959269261     000000000072540000000000000000000000000033881454741PAO GOVT OF AP Hyderabad salary    STATE BANK OF INDIA SECRETARIAT    32959269261                     ISAROJINI(F)                       PD ADMINISTRATOR                             732959269261                        URGENT  ISAROJINI(F)             32959269261     
R4132703594306     000000000129450000000000000000000000000033881454741PAO GOVT OF AP Hyderabad salary    STATE BANK OF INDIA SECRETARIAT    32703594306                     VNUKALAMMA                         PD ADMINISTRATOR                             732703594306                        URGENT  VNUKALAMMA               32703594306     
R4110455025230     000000000088800000000000000000000000000033881454741PAO GOVT OF AP Hyderabad salary    STATE BANK OF INDIA SECRETARIAT    10455025230                     TNAGENDRAMMA                       PD ADMINISTRATOR                             810455025230                        URGENT  TNAGENDRAMMA             10455025230     
R4110607883299     000000000075070000000000000000000000000033881454741PAO GOVT OF AP Hyderabad salary    STATE BANK OF INDIA SECRETARIAT    10607883299                     RLALITHA                           PD ADMINISTRATOR                             910607883299                        URGENT  RLALITHA                 10607883299     
R4110607881826     000000000075490000000000000000000000000033881454741PAO GOVT OF AP Hyderabad salary    STATE BANK OF INDIA SECRETARIAT    10607881826                     MVARALAKSHMI                       PD ADMINISTRATOR                             910607881826                        URGENT  MVARALAKSHMI             10607881826     
R4110607884362     000000000075070000000000000000000000000033881454741PAO GOVT OF AP Hyderabad salary    STATE BANK OF INDIA SECRETARIAT    10607884362                     VLJAYAPRADA                        PD ADMINISTRATOR                             910607884362                        URGENT  VLJAYAPRADA              10607884362     
R4110607880390     000000000074300000000000000000000000000033881454741PAO GOVT OF AP Hyderabad salary    STATE BANK OF INDIA SECRETARIAT    10607880390                     KCHANDRAIAH                        PD ADMINISTRATOR                             910607880390                        URGENT  KCHANDRAIAH              10607880390     
R4110607884883     000000000071550000000000000000000000000033881454741PAO GOVT OF AP Hyderabad salary    STATE BANK OF INDIA SECRETARIAT    10607884883                     VSAMUEL                            PD ADMINISTRATOR                             910607884883                        URGENT  VSAMUEL                  10607884883     
R4110607880924     000000000071550000000000000000000000000033881454741PAO GOVT OF AP Hyderabad salary    STATE BANK OF INDIA SECRETARIAT    10607880924                     KJAYAMMA                           PD ADMINISTRATOR                             910607880924                        URGENT  KJAYAMMA                 10607880924     
R4110607888107     000000000071550000000000000000000000000033881454741PAO GOVT OF AP Hyderabad salary    STATE BANK OF INDIA SECRETARIAT    10607888107                     DMARIYAMMA (FP)                    PD ADMINISTRATOR                             910607888107                        URGENT  DMARIYAMMA (FP)          10607888107     
R4110607892408     000000000074440000000000000000000000000033881454741PAO GOVT OF AP Hyderabad salary    STATE BANK OF INDIA SECRETARIAT    10607892408                     CHSAROJINI                         PD ADMINISTRATOR                             910607892408                        URGENT  CHSAROJINI               10607892408     
R4130329192617     000000000071550000000000000000000000000033881454741PAO GOVT OF AP Hyderabad salary    STATE BANK OF INDIA SECRETARIAT    30329192617                     GSUVARTHAMMA                       PD ADMINISTRATOR                             930329192617                        URGENT  GSUVARTHAMMA             30329192617     
R4110607887421     000000000105700000000000000000000000000033881454741PAO GOVT OF AP Hyderabad salary    STATE BANK OF INDIA SECRETARIAT    10607887421                     KSEETHAMAHALAKSHMI                 PD ADMINISTRATOR                             910607887421                        URGENT  KSEETHAMAHALAKSHMI       10607887421     
R4110607889280     000000000044350000000000000000000000000033881454741PAO GOVT OF AP Hyderabad salary    STATE BANK OF INDIA SECRETARIAT    10607889280                     UKAMALAMMA(EMP)                    PD ADMINISTRATOR                             910607889280                        URGENT  UKAMALAMMA(EMP)          10607889280     
R4110607889847     000000000108580000000000000000000000000033881454741PAO GOVT OF AP Hyderabad salary    STATE BANK OF INDIA SECRETARIAT    10607889847                     CHVENKATA RAVAMMA                  PD ADMINISTRATOR                             910607889847                        URGENT  CHVENKATA RAVAMMA        10607889847     
R4110607884293     000000000071550000000000000000000000000033881454741PAO GOVT OF AP Hyderabad salary    STATE BANK OF INDIA SECRETARIAT    10607884293                     VPARVATHAMMA                       PD ADMINISTRATOR                             910607884293                        URGENT  VPARVATHAMMA             10607884293     
R4110607878518     000000000046050000000000000000000000000033881454741PAO GOVT OF AP Hyderabad salary    STATE BANK OF INDIA SECRETARIAT    10607878518                     DAVAMMA(EMP)                       PD ADMINISTRATOR                             910607878518                        URGENT  DAVAMMA(EMP)             10607878518     
R4110607885173     000000000071550000000000000000000000000033881454741PAO GOVT OF AP Hyderabad salary    STATE BANK OF INDIA SECRETARIAT    10607885173                     ONANCHARAMMA                       PD ADMINISTRATOR                             910607885173                        URGENT  ONANCHARAMMA             10607885173     
R4110607885730     000000000044350000000000000000000000000033881454741PAO GOVT OF AP Hyderabad salary    STATE BANK OF INDIA SECRETARIAT    10607885730                     UATCHALA KUMARI (EMP)              PD ADMINISTRATOR                             910607885730                        URGENT  UATCHALA KUMARI (EMP)    10607885730     
R4130547454336     000000000061070000000000000000000000000033881454741PAO GOVT OF AP Hyderabad salary    STATE BANK OF INDIA SECRETARIAT    30547454336                     PSEETHAMMA                         PD ADMINISTRATOR                             930547454336                        URGENT  PSEETHAMMA               30547454336     
R4130112452834     000000000068640000000000000000000000000033881454741PAO GOVT OF AP Hyderabad salary    STATE BANK OF INDIA SECRETARIAT    30112452834                     DMANGATAYARAMMA                    PD ADMINISTRATOR                             930112452834                        URGENT  DMANGATAYARAMMA          30112452834     
R4131648653590     000000000107900000000000000000000000000033881454741PAO GOVT OF AP Hyderabad salary    STATE BANK OF INDIA SECRETARIAT    31648653590                     BBABY SAROJINI                     PD ADMINISTRATOR                             931648653590                        URGENT  BBABY SAROJINI           31648653590     
R4110607888152     000000000092040000000000000000000000000033881454741PAO GOVT OF AP Hyderabad salary    STATE BANK OF INDIA SECRETARIAT    10607888152                     PNANCHARAMMA                       PD ADMINISTRATOR                             910607888152                        URGENT  PNANCHARAMMA             10607888152     
R4133122410302     000000000068640000000000000000000000000033881454741PAO GOVT OF AP Hyderabad salary    STATE BANK OF INDIA SECRETARIAT    33122410302                     YLAKSHMI KUMARI                    PD ADMINISTRATOR                             933122410302                        URGENT  YLAKSHMI KUMARI          33122410302     
R4111588438578     000000000046530000000000000000000000000033881454741PAO GOVT OF AP Hyderabad salary    STATE BANK OF INDIA SECRETARIAT    11588438578                     PRATNAMANIKYAM(EMP)                PD ADMINISTRATOR                            1011588438578                        URGENT  PRATNAMANIKYAM(EMP)      11588438578     
R4111588438679     000000000044350000000000000000000000000033881454741PAO GOVT OF AP Hyderabad salary    STATE BANK OF INDIA SECRETARIAT    11588438679                     RCHINA KANAKAIAH (EMP)             PD ADMINISTRATOR                            1011588438679                        URGENT  RCHINA KANAKAIAH (EMP)   11588438679     
R4111588437937     000000000071550000000000000000000000000033881454741PAO GOVT OF AP Hyderabad salary    STATE BANK OF INDIA SECRETARIAT    11588437937                     MAMRUTHAM                          PD ADMINISTRATOR                            1011588437937                        URGENT  MAMRUTHAM                11588437937     
R4111588439219     000000000071550000000000000000000000000033881454741PAO GOVT OF AP Hyderabad salary    STATE BANK OF INDIA SECRETARIAT    11588439219                     VRAVAMMA                           PD ADMINISTRATOR                            1011588439219                        URGENT  VRAVAMMA                 11588439219     
R4111588437507     000000000142060000000000000000000000000033881454741PAO GOVT OF AP Hyderabad salary    STATE BANK OF INDIA SECRETARIAT    11588437507                     KPANDU JAYARAVAMMA                 PD ADMINISTRATOR                            1011588437507                        URGENT  KPANDU JAYARAVAMMA       11588437507     
R4111588437449     000000000088490000000000000000000000000033881454741PAO GOVT OF AP Hyderabad salary    STATE BANK OF INDIA SECRETARIAT    11588437449                     J LAKSHMIBAYAMMA                   PD ADMINISTRATOR                            1011588437449                        URGENT  J LAKSHMIBAYAMMA         11588437449     
R4111588439548     000000000110720000000000000000000000000033881454741PAO GOVT OF AP Hyderabad salary    STATE BANK OF INDIA SECRETARIAT    11588439548                     CHPUNNAMMA                         PD ADMINISTRATOR                            1011588439548                        URGENT  CHPUNNAMMA               11588439548     
R4111588438679     000000000096730000000000000000000000000033881454741PAO GOVT OF AP Hyderabad salary    STATE BANK OF INDIA SECRETARIAT    11588438679                     RCHINA KANAKAIAH                   PD ADMINISTRATOR                            1011588438679                        URGENT  RCHINA KANAKAIAH         11588438679     
R4111588400815     000000000071550000000000000000000000000033881454741PAO GOVT OF AP Hyderabad salary    STATE BANK OF INDIA SECRETARIAT    11588400815                     VSAVITHRI                          PD ADMINISTRATOR                            1011588400815                        URGENT  VSAVITHRI                11588400815     
R4111588439774     000000000071550000000000000000000000000033881454741PAO GOVT OF AP Hyderabad salary    STATE BANK OF INDIA SECRETARIAT    11588439774                     YSESHAMMA                          PD ADMINISTRATOR                            1011588439774                        URGENT  YSESHAMMA                11588439774     
R4111588436751     000000000100390000000000000000000000000033881454741PAO GOVT OF AP Hyderabad salary    STATE BANK OF INDIA SECRETARIAT    11588436751                     ASEETHAMMA                         PD ADMINISTRATOR                            1011588436751                        URGENT  ASEETHAMMA               11588436751     
R4111588384417     000000000143940000000000000000000000000033881454741PAO GOVT OF AP Hyderabad salary    STATE BANK OF INDIA SECRETARIAT    11588384417                     VVENKATESWAR RAO                   PD ADMINISTRATOR                            1011588384417                        URGENT  VVENKATESWAR RAO         11588384417     
R4111588380127     000000000075490000000000000000000000000033881454741PAO GOVT OF AP Hyderabad salary    STATE BANK OF INDIA SECRETARIAT    11588380127                     SKOTESWARAMMA                      PD ADMINISTRATOR                            1011588380127                        URGENT  SKOTESWARAMMA            11588380127     
R4130641314856     000000000118130000000000000000000000000033881454741PAO GOVT OF AP Hyderabad salary    STATE BANK OF INDIA SECRETARIAT    30641314856                     IMADHURI                           PD ADMINISTRATOR                            1030641314856                        URGENT  IMADHURI                 30641314856     
R4111588372014     000000000133150000000000000000000000000033881454741PAO GOVT OF AP Hyderabad salary    STATE BANK OF INDIA SECRETARIAT    11588372014                     MRAJARAO                           PD ADMINISTRATOR                            1011588372014                        URGENT  MRAJARAO                 11588372014     
R4120242131642     000000000094090000000000000000000000000033881454741PAO GOVT OF AP Hyderabad salary    STATE BANK OF INDIA SECRETARIAT    20242131642                     KLAKSHMIRAJYAM                     PD ADMINISTRATOR                            1020242131642                        URGENT  KLAKSHMIRAJYAM           20242131642     
R4111265554977     000000000082350000000000000000000000000033881454741PAO GOVT OF AP Hyderabad salary    STATE BANK OF INDIA SECRETARIAT    11265554977                     KPENTAIAH(FP)                      PD ADMINISTRATOR                            1111265554977                        URGENT  KPENTAIAH(FP)            11265554977     
R4111265513168     000000000081180000000000000000000000000033881454741PAO GOVT OF AP Hyderabad salary    STATE BANK OF INDIA SECRETARIAT    11265513168                     PPARISUDDAM                        PD ADMINISTRATOR                            1111265513168                        URGENT  PPARISUDDAM              11265513168     
R4111265554977     000000000067120000000000000000000000000033881454741PAO GOVT OF AP Hyderabad salary    STATE BANK OF INDIA SECRETARIAT    11265554977                     KPENTAIAH                          PD ADMINISTRATOR                            1111265554977                        URGENT  KPENTAIAH                11265554977     
R4111265549446     000000000122460000000000000000000000000033881454741PAO GOVT OF AP Hyderabad salary    STATE BANK OF INDIA SECRETARIAT    11265549446                     DVENKATESWARA RAO                  PD ADMINISTRATOR                            1111265549446                        URGENT  DVENKATESWARA RAO        11265549446     
R4111265552970     000000000103040000000000000000000000000033881454741PAO GOVT OF AP Hyderabad salary    STATE BANK OF INDIA SECRETARIAT    11265552970                     KSUBHADRA                          PD ADMINISTRATOR                            1111265552970                        URGENT  KSUBHADRA                11265552970     
R4111265554966     000000000116350000000000000000000000000033881454741PAO GOVT OF AP Hyderabad salary    STATE BANK OF INDIA SECRETARIAT    11265554966                     TKANAKARATNAM                      PD ADMINISTRATOR                            1111265554966                        URGENT  TKANAKARATNAM            11265554966     
R4130299197900     000000000071550000000000000000000000000033881454741PAO GOVT OF AP Hyderabad salary    STATE BANK OF INDIA SECRETARIAT    30299197900                     KSAMPOORNAMMA                      PD ADMINISTRATOR                            1130299197900                        URGENT  KSAMPOORNAMMA            30299197900     
R4110138437621     000000000085400000000000000000000000000033881454741PAO GOVT OF AP Hyderabad salary    STATE BANK OF INDIA SECRETARIAT    10138437621                     YDEVULLU                           PD ADMINISTRATOR                            1210138437621                        URGENT  YDEVULLU                 10138437621     
R4110138437417     000000000069740000000000000000000000000033881454741PAO GOVT OF AP Hyderabad salary    STATE BANK OF INDIA SECRETARIAT    10138437417                     VNUKAMMA                           PD ADMINISTRATOR                            1210138437417                        URGENT  VNUKAMMA                 10138437417     
R4110138437712     000000000071550000000000000000000000000033881454741PAO GOVT OF AP Hyderabad salary    STATE BANK OF INDIA SECRETARIAT    10138437712                     MKANAKA DURGA                      PD ADMINISTRATOR                            1210138437712                        URGENT  MKANAKA DURGA            10138437712     
R4110138437892     000000000111560000000000000000000000000033881454741PAO GOVT OF AP Hyderabad salary    STATE BANK OF INDIA SECRETARIAT    10138437892                     YKONDAMMA                          PD ADMINISTRATOR                            1210138437892                        URGENT  YKONDAMMA                10138437892     
R4130399833003     000000000072290000000000000000000000000033881454741PAO GOVT OF AP Hyderabad salary    STATE BANK OF INDIA SECRETARIAT    30399833003                     EMARTHAMMA                         PD ADMINISTRATOR                            1230399833003                        URGENT  EMARTHAMMA               30399833003     
R4130530395309     000000000113990000000000000000000000000033881454741PAO GOVT OF AP Hyderabad salary    STATE BANK OF INDIA SECRETARIAT    30530395309                     BPULLAMMA                          PD ADMINISTRATOR                            1230530395309                        URGENT  BPULLAMMA                30530395309     
R4110138423437     000000000046050000000000000000000000000033881454741PAO GOVT OF AP Hyderabad salary    STATE BANK OF INDIA SECRETARIAT    10138423437                     TKUMARI(EMP)                       PD ADMINISTRATOR                            1210138423437                        URGENT  TKUMARI(EMP)             10138423437     
R4110138437246     000000000071550000000000000000000000000033881454741PAO GOVT OF AP Hyderabad salary    STATE BANK OF INDIA SECRETARIAT    10138437246                     SJANAKIRAMAIAH                     PD ADMINISTRATOR                            1210138437246                        URGENT  SJANAKIRAMAIAH           10138437246     
R4110138435443     000000000071550000000000000000000000000033881454741PAO GOVT OF AP Hyderabad salary    STATE BANK OF INDIA SECRETARIAT    10138435443                     BRAMULAMMA                         PD ADMINISTRATOR                            1210138435443                        URGENT  BRAMULAMMA               10138435443     
R4110138437927     000000000071550000000000000000000000000033881454741PAO GOVT OF AP Hyderabad salary    STATE BANK OF INDIA SECRETARIAT    10138437927                     RSAVITRAMMA                        PD ADMINISTRATOR                            1210138437927                        URGENT  RSAVITRAMMA              10138437927     
R4110138401683     000000000074250000000000000000000000000033881454741PAO GOVT OF AP Hyderabad salary    STATE BANK OF INDIA SECRETARIAT    10138401683                     GVENKATESWARAMMA                   PD ADMINISTRATOR                            1210138401683                        URGENT  GVENKATESWARAMMA         10138401683     
R4130016573540     000000000082350000000000000000000000000033881454741PAO GOVT OF AP Hyderabad salary    STATE BANK OF INDIA SECRETARIAT    30016573540                     TPULLAMMA                          PD ADMINISTRATOR                            1230016573540                        URGENT  TPULLAMMA                30016573540     
R4110138437994     000000000071550000000000000000000000000033881454741PAO GOVT OF AP Hyderabad salary    STATE BANK OF INDIA SECRETARIAT    10138437994                     CHKAMALAMM                         PD ADMINISTRATOR                            1210138437994                        URGENT  CHKAMALAMM               10138437994     
R4133041694927     000000000170060000000000000000000000000033881454741PAO GOVT OF AP Hyderabad salary    STATE BANK OF INDIA SECRETARIAT    33041694927                     PTEREJAMMA                         PD ADMINISTRATOR                            1233041694927                        URGENT  PTEREJAMMA               33041694927     
R4133039162215     000000000094070000000000000000000000000033881454741PAO GOVT OF AP Hyderabad salary    STATE BANK OF INDIA SECRETARIAT    33039162215                     MNAGALAXIMI                        PD ADMINISTRATOR                            1333039162215                        URGENT  MNAGALAXIMI              33039162215     
R4111359960109     000000000086670000000000000000000000000033881454741PAO GOVT OF AP Hyderabad salary    STATE BANK OF INDIA SECRETARIAT    11359960109                     SKBADARUNNISA                      PD ADMINISTRATOR                            1411359960109                        URGENT  SKBADARUNNISA            11359960109     
R4111359963983     000000000169990000000000000000000000000033881454741PAO GOVT OF AP Hyderabad salary    STATE BANK OF INDIA SECRETARIAT    11359963983                     RRAMA RAO                          PD ADMINISTRATOR                            1411359963983                        URGENT  RRAMA RAO                11359963983     
R4111359961432     000000000100560000000000000000000000000033881454741PAO GOVT OF AP Hyderabad salary    STATE BANK OF INDIA SECRETARIAT    11359961432                     ESOMAIAH                           PD ADMINISTRATOR                            1411359961432                        URGENT  ESOMAIAH                 11359961432     
R4111359960472     000000000071550000000000000000000000000033881454741PAO GOVT OF AP Hyderabad salary    STATE BANK OF INDIA SECRETARIAT    11359960472                     BNAGESWARA RAO                     PD ADMINISTRATOR                            1411359960472                        URGENT  BNAGESWARA RAO           11359960472     
R4111359965426     000000000114970000000000000000000000000033881454741PAO GOVT OF AP Hyderabad salary    STATE BANK OF INDIA SECRETARIAT    11359965426                     KVENKATESWARA RAO                  PD ADMINISTRATOR                            1411359965426                        URGENT  KVENKATESWARA RAO        11359965426     
R4111359934180     000000000119400000000000000000000000000033881454741PAO GOVT OF AP Hyderabad salary    STATE BANK OF INDIA SECRETARIAT    11359934180                     PVSURYANARAYANA RAJU               PD ADMINISTRATOR                            1411359934180                        URGENT  PVSURYANARAYANA RAJU     11359934180     
R4111359966112     000000000119400000000000000000000000000033881454741PAO GOVT OF AP Hyderabad salary    STATE BANK OF INDIA SECRETARIAT    11359966112                     KVENKATAPULLAYYA                   PD ADMINISTRATOR                            1411359966112                        URGENT  KVENKATAPULLAYYA         11359966112     
R4111359962254     000000000093660000000000000000000000000033881454741PAO GOVT OF AP Hyderabad salary    STATE BANK OF INDIA SECRETARIAT    11359962254                     KVSUBBAMMA                         PD ADMINISTRATOR                            1411359962254                        URGENT  KVSUBBAMMA               11359962254     
R4111359922732     000000000107900000000000000000000000000033881454741PAO GOVT OF AP Hyderabad salary    STATE BANK OF INDIA SECRETARIAT    11359922732                     MNARASAMMA                         PD ADMINISTRATOR                            1411359922732                        URGENT  MNARASAMMA               11359922732     
R4111359964411     000000000074300000000000000000000000000033881454741PAO GOVT OF AP Hyderabad salary    STATE BANK OF INDIA SECRETARIAT    11359964411                     TSIMHACHALAM                       PD ADMINISTRATOR                            1411359964411                        URGENT  TSIMHACHALAM             11359964411     
R4111359947474     000000000110720000000000000000000000000033881454741PAO GOVT OF AP Hyderabad salary    STATE BANK OF INDIA SECRETARIAT    11359947474                     BNANCHARAMMA                       PD ADMINISTRATOR                            1411359947474                        URGENT  BNANCHARAMMA             11359947474     
R4111359960552     000000000110640000000000000000000000000033881454741PAO GOVT OF AP Hyderabad salary    STATE BANK OF INDIA SECRETARIAT    11359960552                     CHCHVENKATA SUBBAMMA               PD ADMINISTRATOR                            1411359960552                        URGENT  CHCHVENKATA SUBBAMMA     11359960552     
R4130312407157     000000000078230000000000000000000000000033881454741PAO GOVT OF AP Hyderabad salary    STATE BANK OF INDIA SECRETARIAT    30312407157                     CHCHALIVELAMMA                     PD ADMINISTRATOR                            1430312407157                        URGENT  CHCHALIVELAMMA           30312407157     
R4132276339687     000000000129450000000000000000000000000033881454741PAO GOVT OF AP Hyderabad salary    STATE BANK OF INDIA SECRETARIAT    32276339687                     BSATTEMMA                          PD ADMINISTRATOR                            1432276339687                        URGENT  BSATTEMMA                32276339687     
R4111527204416     000000000075490000000000000000000000000033881454741PAO GOVT OF AP Hyderabad salary    STATE BANK OF INDIA SECRETARIAT    11527204416                     NSURYA NARAYANAMMA                 PD ADMINISTRATOR                            1511527204416                        URGENT  NSURYA NARAYANAMMA       11527204416     
R4111527233866     000000000002260000000000000000000000000033881454741PAO GOVT OF AP Hyderabad salary    STATE BANK OF INDIA SECRETARIAT    11527233866                     BTEREJAMMA                         PD ADMINISTRATOR                            1511527233866                        URGENT  BTEREJAMMA               11527233866     
R4111527234543     000000000078410000000000000000000000000033881454741PAO GOVT OF AP Hyderabad salary    STATE BANK OF INDIA SECRETARIAT    11527234543                     PRAVAMMA                           PD ADMINISTRATOR                            1511527234543                        URGENT  PRAVAMMA                 11527234543     
R4111527233866     000000000069110000000000000000000000000033881454741PAO GOVT OF AP Hyderabad salary    STATE BANK OF INDIA SECRETARIAT    11527233866                     BTEREJAMMA                         PD ADMINISTRATOR                            1511527233866                        URGENT  BTEREJAMMA               11527233866     
R4111382530441     000000000071550000000000000000000000000033881454741PAO GOVT OF AP Hyderabad salary    STATE BANK OF INDIA SECRETARIAT    11382530441                     YADALA YESAMMA                     PD ADMINISTRATOR                            1611382530441                        URGENT  YADALA YESAMMA           11382530441     
R4111382550253     000000000071550000000000000000000000000033881454741PAO GOVT OF AP Hyderabad salary    STATE BANK OF INDIA SECRETARIAT    11382550253                     IDANAMMA                           PD ADMINISTRATOR                            1611382550253                        URGENT  IDANAMMA                 11382550253     
R4111382497640     000000000069240000000000000000000000000033881454741PAO GOVT OF AP Hyderabad salary    STATE BANK OF INDIA SECRETARIAT    11382497640                     ESATYAVATHI                        PD ADMINISTRATOR                            1611382497640                        URGENT  ESATYAVATHI              11382497640     
R4111382549816     000000000102660000000000000000000000000033881454741PAO GOVT OF AP Hyderabad salary    STATE BANK OF INDIA SECRETARIAT    11382549816                     BVRAMANAMMA                        PD ADMINISTRATOR                            1611382549816                        URGENT  BVRAMANAMMA              11382549816     
R4111382550559     000000000105700000000000000000000000000033881454741PAO GOVT OF AP Hyderabad salary    STATE BANK OF INDIA SECRETARIAT    11382550559                     KKOTIRATNAMMA                      PD ADMINISTRATOR                            1611382550559                        URGENT  KKOTIRATNAMMA            11382550559     
R4131019934247     000000000147930000000000000000000000000033881454741PAO GOVT OF AP Hyderabad salary    STATE BANK OF INDIA SECRETARIAT    31019934247                     NABRAHAM                           PD ADMINISTRATOR                            1631019934247                        URGENT  NABRAHAM                 31019934247     
R4134793275516     000000000355440000000000000000000000000033881454741PAO GOVT OF AP Hyderabad salary    STATE BANK OF INDIA SECRETARIAT    34793275516                     SSUVARTHAMMA                       PD ADMINISTRATOR                            1634793275516                        URGENT  SSUVARTHAMMA             34793275516     
R4130194363139     000000000078230000000000000000000000000033881454741PAO GOVT OF AP Hyderabad salary    STATE BANK OF INDIA SECRETARIAT    30194363139                     MYOGAESWARI                        PD ADMINISTRATOR                            1730194363139                        URGENT  MYOGAESWARI              30194363139     
R4110616199773     000000000075070000000000000000000000000033881454741PAO GOVT OF AP Hyderabad salary    STATE BANK OF INDIA SECRETARIAT    10616199773                     LSEETHAMAHALAKSHMI                 PD ADMINISTRATOR                            1710616199773                        URGENT  LSEETHAMAHALAKSHMI       10616199773     
R4110494482485     000000000046050000000000000000000000000033881454741PAO GOVT OF AP Hyderabad salary    STATE BANK OF INDIA SECRETARIAT    10494482485                     DPOLAMMA (EMP)                     PD ADMINISTRATOR                            1710494482485                        URGENT  DPOLAMMA (EMP)           10494482485     
R4110494464341     000000000074300000000000000000000000000033881454741PAO GOVT OF AP Hyderabad salary    STATE BANK OF INDIA SECRETARIAT    10494464341                     VSIMHACHALAM                       PD ADMINISTRATOR                            1710494464341                        URGENT  VSIMHACHALAM             10494464341     
R4110494488216     000000000044350000000000000000000000000033881454741PAO GOVT OF AP Hyderabad salary    STATE BANK OF INDIA SECRETARIAT    10494488216                     DTIRUPATAMMA(EMP)                  PD ADMINISTRATOR                            1710494488216                        URGENT  DTIRUPATAMMA(EMP)        10494488216     
R4110494453645     000000000071550000000000000000000000000033881454741PAO GOVT OF AP Hyderabad salary    STATE BANK OF INDIA SECRETARIAT    10494453645                     GSAMPOORNAMMA                      PD ADMINISTRATOR                            1710494453645                        URGENT  GSAMPOORNAMMA            10494453645     
R4110494490994     000000000046050000000000000000000000000033881454741PAO GOVT OF AP Hyderabad salary    STATE BANK OF INDIA SECRETARIAT    10494490994                     DSIMHACHALAM (EMP)                 PD ADMINISTRATOR                            1710494490994                        URGENT  DSIMHACHALAM (EMP)       10494490994     
R4110494466382     000000000071550000000000000000000000000033881454741PAO GOVT OF AP Hyderabad salary    STATE BANK OF INDIA SECRETARIAT    10494466382                     BCHANDRA KANTHAMMA                 PD ADMINISTRATOR                            1710494466382                        URGENT  BCHANDRA KANTHAMMA       10494466382     
R4110494490790     000000000074300000000000000000000000000033881454741PAO GOVT OF AP Hyderabad salary    STATE BANK OF INDIA SECRETARIAT    10494490790                     NNAGENDRAMMA                       PD ADMINISTRATOR                            1710494490790                        URGENT  NNAGENDRAMMA             10494490790     
R4110494490983     000000000071550000000000000000000000000033881454741PAO GOVT OF AP Hyderabad salary    STATE BANK OF INDIA SECRETARIAT    10494490983                     KSANKARA RAO                       PD ADMINISTRATOR                            1710494490983                        URGENT  KSANKARA RAO             10494490983     
R4110494475057     000000000071550000000000000000000000000033881454741PAO GOVT OF AP Hyderabad salary    STATE BANK OF INDIA SECRETARIAT    10494475057                     DDURGAMMA                          PD ADMINISTRATOR                            1710494475057                        URGENT  DDURGAMMA                10494475057     
R4110494490994     000000000108590000000000000000000000000033881454741PAO GOVT OF AP Hyderabad salary    STATE BANK OF INDIA SECRETARIAT    10494490994                     DSIMHACHALAM                       PD ADMINISTRATOR                            1710494490994                        URGENT  DSIMHACHALAM             10494490994     
R4110494476276     000000000046050000000000000000000000000033881454741PAO GOVT OF AP Hyderabad salary    STATE BANK OF INDIA SECRETARIAT    10494476276                     DNUKAMMA(EMP)                      PD ADMINISTRATOR                            1710494476276                        URGENT  DNUKAMMA(EMP)            10494476276     
R4110494491400     000000000071550000000000000000000000000033881454741PAO GOVT OF AP Hyderabad salary    STATE BANK OF INDIA SECRETARIAT    10494491400                     KKONDAMMA                          PD ADMINISTRATOR                            1710494491400                        URGENT  KKONDAMMA                10494491400     
R4110494478717     000000000073020000000000000000000000000033881454741PAO GOVT OF AP Hyderabad salary    STATE BANK OF INDIA SECRETARIAT    10494478717                     GNAGENDRAMMA                       PD ADMINISTRATOR                            1710494478717                        URGENT  GNAGENDRAMMA             10494478717     
R4130030335438     000000000044350000000000000000000000000033881454741PAO GOVT OF AP Hyderabad salary    STATE BANK OF INDIA SECRETARIAT    30030335438                     KDURGAMMA (EMP)                    PD ADMINISTRATOR                            1730030335438                        URGENT  KDURGAMMA (EMP)          30030335438     
R4130089672681     000000000119400000000000000000000000000033881454741PAO GOVT OF AP Hyderabad salary    STATE BANK OF INDIA SECRETARIAT    30089672681                     VVEERASWAMY                        PD ADMINISTRATOR                            1730089672681                        URGENT  VVEERASWAMY              30089672681     
R4130086422044     000000000119400000000000000000000000000033881454741PAO GOVT OF AP Hyderabad salary    STATE BANK OF INDIA SECRETARIAT    30086422044                     VBHULAKSHMI                        PD ADMINISTRATOR                            1730086422044                        URGENT  VBHULAKSHMI              30086422044     
R4130086422044     000000000044350000000000000000000000000033881454741PAO GOVT OF AP Hyderabad salary    STATE BANK OF INDIA SECRETARIAT    30086422044                     VBHULAKSHMI(EMP)                   PD ADMINISTRATOR                            1730086422044                        URGENT  VBHULAKSHMI(EMP)         30086422044     
R4130823462683     000000000119050000000000000000000000000033881454741PAO GOVT OF AP Hyderabad salary    STATE BANK OF INDIA SECRETARIAT    30823462683                     KDURGAMMA                          PD ADMINISTRATOR                            1730823462683                        URGENT  KDURGAMMA                30823462683     
R4130823302469     000000000119050000000000000000000000000033881454741PAO GOVT OF AP Hyderabad salary    STATE BANK OF INDIA SECRETARIAT    30823302469                     DPOLAMMA                           PD ADMINISTRATOR                            1730823302469                        URGENT  DPOLAMMA                 30823302469     
R4130052485661     000000000116350000000000000000000000000033881454741PAO GOVT OF AP Hyderabad salary    STATE BANK OF INDIA SECRETARIAT    30052485661                     SKDONTULAMMA                       PD ADMINISTRATOR                            1730052485661                        URGENT  SKDONTULAMMA             30052485661     
R4110494452574     000000000074300000000000000000000000000033881454741PAO GOVT OF AP Hyderabad salary    STATE BANK OF INDIA SECRETARIAT    10494452574                     DMARIYAMMA                         PD ADMINISTRATOR                            1710494452574                        URGENT  DMARIYAMMA               10494452574     
R4110494450316     000000000071550000000000000000000000000033881454741PAO GOVT OF AP Hyderabad salary    STATE BANK OF INDIA SECRETARIAT    10494450316                     ADAVID                             PD ADMINISTRATOR                            1710494450316                        URGENT  ADAVID                   10494450316     
R4110494467024     000000000097590000000000000000000000000033881454741PAO GOVT OF AP Hyderabad salary    STATE BANK OF INDIA SECRETARIAT    10494467024                     NSRIRAMULU                         PD ADMINISTRATOR                            1710494467024                        URGENT  NSRIRAMULU               10494467024     
R4130523299728     000000000079380000000000000000000000000033881454741PAO GOVT OF AP Hyderabad salary    STATE BANK OF INDIA SECRETARIAT    30523299728                     KPAPA                              PD ADMINISTRATOR                            1730523299728                        URGENT  KPAPA                    30523299728     
R4110494490927     000000000071550000000000000000000000000033881454741PAO GOVT OF AP Hyderabad salary    STATE BANK OF INDIA SECRETARIAT    10494490927                     VCHINARAMUDU                       PD ADMINISTRATOR                            1710494490927                        URGENT  VCHINARAMUDU             10494490927     
R4110494457367     000000000074300000000000000000000000000033881454741PAO GOVT OF AP Hyderabad salary    STATE BANK OF INDIA SECRETARIAT    10494457367                     LVEERASWAMY                        PD ADMINISTRATOR                            1710494457367                        URGENT  LVEERASWAMY              10494457367     
R4130376864131     000000000094410000000000000000000000000033881454741PAO GOVT OF AP Hyderabad salary    STATE BANK OF INDIA SECRETARIAT    30376864131                     OKOWSALYA                          PD ADMINISTRATOR                            1730376864131                        URGENT  OKOWSALYA                30376864131     
R4133077839645     000000000071550000000000000000000000000033881454741PAO GOVT OF AP Hyderabad salary    STATE BANK OF INDIA SECRETARIAT    33077839645                     UPUSHAPAVATHI                      PD ADMINISTRATOR                            1733077839645                        URGENT  UPUSHAPAVATHI            33077839645     
R4111613609925     000000000092040000000000000000000000000033881454741PAO GOVT OF AP Hyderabad salary    STATE BANK OF INDIA SECRETARIAT    11613609925                     GADEMMA                            PD ADMINISTRATOR                            1811613609925                        URGENT  GADEMMA                  11613609925     
R4111613589135     000000000098980000000000000000000000000033881454741PAO GOVT OF AP Hyderabad salary    STATE BANK OF INDIA SECRETARIAT    11613589135                     CHKAMESWARAMMA                     PD ADMINISTRATOR                            1811613589135                        URGENT  CHKAMESWARAMMA           11613589135     
R4111613610476     000000000119400000000000000000000000000033881454741PAO GOVT OF AP Hyderabad salary    STATE BANK OF INDIA SECRETARIAT    11613610476                     KSAI BABU                          PD ADMINISTRATOR                            1811613610476                        URGENT  KSAI BABU                11613610476     
R4111613610512     000000000125530000000000000000000000000033881454741PAO GOVT OF AP Hyderabad salary    STATE BANK OF INDIA SECRETARIAT    11613610512                     KVENKATESWARA RAO                  PD ADMINISTRATOR                            1811613610512                        URGENT  KVENKATESWARA RAO        11613610512     
R4134455864982     000000000071550000000000000000000000000033881454741PAO GOVT OF AP Hyderabad salary    STATE BANK OF INDIA SECRETARIAT    34455864982                     MSAVITRAMMA                        PD ADMINISTRATOR                            1934455864982                        URGENT  MSAVITRAMMA              34455864982     
R4111621336842     000000000071550000000000000000000000000033881454741PAO GOVT OF AP Hyderabad salary    STATE BANK OF INDIA SECRETARIAT    11621336842                     VNANCHARAMMA                       PD ADMINISTRATOR                            1911621336842                        URGENT  VNANCHARAMMA             11621336842     
R4130430091304     000000000115840000000000000000000000000033881454741PAO GOVT OF AP Hyderabad salary    STATE BANK OF INDIA SECRETARIAT    30430091304                     MBASAVAPUNAMMA                     PD ADMINISTRATOR                            1930430091304                        URGENT  MBASAVAPUNAMMA           30430091304     
R4131552502003     000000000222900000000000000000000000000033881454741PAO GOVT OF AP Hyderabad salary    STATE BANK OF INDIA SECRETARIAT    31552502003                     NMUTHAMMA                          PD ADMINISTRATOR                            1931552502003                        URGENT  NMUTHAMMA                31552502003     
R4111621336773     000000000097350000000000000000000000000033881454741PAO GOVT OF AP Hyderabad salary    STATE BANK OF INDIA SECRETARIAT    11621336773                     SKRAHIMUNNISA                      PD ADMINISTRATOR                            1911621336773                        URGENT  SKRAHIMUNNISA            11621336773     
R4111643950675     000000000071550000000000000000000000000033881454741PAO GOVT OF AP Hyderabad salary    STATE BANK OF INDIA SECRETARIAT    11643950675                     ASIMHADRAMMA                       PD ADMINISTRATOR                            2011643950675                        URGENT  ASIMHADRAMMA             11643950675     
R4131776108343     000000000214650000000000000000000000000033881454741PAO GOVT OF AP Hyderabad salary    STATE BANK OF INDIA SECRETARIAT    31776108343                     PLAKSHMAMMA                        PD ADMINISTRATOR                            2031776108343                        URGENT  PLAKSHMAMMA              31776108343     
R4111499897395     000000000044350000000000000000000000000033881454741PAO GOVT OF AP Hyderabad salary    STATE BANK OF INDIA SECRETARIAT    11499897395                     BLAKSHMI(EMP)                      PD ADMINISTRATOR                            2111499897395                        URGENT  BLAKSHMI(EMP)            11499897395     
R4111499898333     000000000071550000000000000000000000000033881454741PAO GOVT OF AP Hyderabad salary    STATE BANK OF INDIA SECRETARIAT    11499898333                     MNAGESWARAMMA                      PD ADMINISTRATOR                            2111499898333                        URGENT  MNAGESWARAMMA            11499898333     
R4111499898832     000000000069370000000000000000000000000033881454741PAO GOVT OF AP Hyderabad salary    STATE BANK OF INDIA SECRETARIAT    11499898832                     PRANGA RAO                         PD ADMINISTRATOR                            2111499898832                        URGENT  PRANGA RAO               11499898832     
R4111499897395     000000000116350000000000000000000000000033881454741PAO GOVT OF AP Hyderabad salary    STATE BANK OF INDIA SECRETARIAT    11499897395                     BLAXIMI                            PD ADMINISTRATOR                            2111499897395                        URGENT  BLAXIMI                  11499897395     
R4111499898616     000000000100390000000000000000000000000033881454741PAO GOVT OF AP Hyderabad salary    STATE BANK OF INDIA SECRETARIAT    11499898616                     NBANGARAMMA                        PD ADMINISTRATOR                            2111499898616                        URGENT  NBANGARAMMA              11499898616     
R4111499899700     000000000071550000000000000000000000000033881454741PAO GOVT OF AP Hyderabad salary    STATE BANK OF INDIA SECRETARIAT    11499899700                     KCHIRANJEEVI                       PD ADMINISTRATOR                            2111499899700                        URGENT  KCHIRANJEEVI             11499899700     
R4111499903478     000000000119050000000000000000000000000033881454741PAO GOVT OF AP Hyderabad salary    STATE BANK OF INDIA SECRETARIAT    11499903478                     T TAYARAMMA                        PD ADMINISTRATOR                            2111499903478                        URGENT  T TAYARAMMA              11499903478     
R4111499898785     000000000045960000000000000000000000000033881454741PAO GOVT OF AP Hyderabad salary    STATE BANK OF INDIA SECRETARIAT    11499898785                     PNANCHARAMMA (EMP)                 PD ADMINISTRATOR                            2111499898785                        URGENT  PNANCHARAMMA (EMP)       11499898785     
R4111499900160     000000000102660000000000000000000000000033881454741PAO GOVT OF AP Hyderabad salary    STATE BANK OF INDIA SECRETARIAT    11499900160                     TBHIKSHALU                         PD ADMINISTRATOR                            2111499900160                        URGENT  TBHIKSHALU               11499900160     
R4111499899518     000000000084410000000000000000000000000033881454741PAO GOVT OF AP Hyderabad salary    STATE BANK OF INDIA SECRETARIAT    11499899518                     K NAKSHATRAM                       PD ADMINISTRATOR                            2111499899518                        URGENT  K NAKSHATRAM             11499899518     
R4133546705007     000000000071550000000000000000000000000033881454741PAO GOVT OF AP Hyderabad salary    STATE BANK OF INDIA SECRETARIAT    33546705007                     KBASAVARATNAM                      PD ADMINISTRATOR                            2133546705007                        URGENT  KBASAVARATNAM            33546705007     
R4133573920703     000000000160850000000000000000000000000033881454741PAO GOVT OF AP Hyderabad salary    STATE BANK OF INDIA SECRETARIAT    33573920703                     KSAKUNTHALA                        PD ADMINISTRATOR                            2133573920703                        URGENT  KSAKUNTHALA              33573920703     
R4132597885075     000000000143940000000000000000000000000033881454741PAO GOVT OF AP Hyderabad salary    STATE BANK OF INDIA SECRETARIAT    32597885075                     EEGE PAPARAO                       PD ADMINISTRATOR                            2132597885075                        URGENT  EEGE PAPARAO             32597885075     
R4111394566281     000000000075070000000000000000000000000033881454741PAO GOVT OF AP Hyderabad salary    STATE BANK OF INDIA SECRETARIAT    11394566281                     DRAMUDU                            PD ADMINISTRATOR                            2211394566281                        URGENT  DRAMUDU                  11394566281     
R4111394567296     000000000074300000000000000000000000000033881454741PAO GOVT OF AP Hyderabad salary    STATE BANK OF INDIA SECRETARIAT    11394567296                     MRAMANAMMA                         PD ADMINISTRATOR                            2211394567296                        URGENT  MRAMANAMMA               11394567296     
R4111394568063     000000000046050000000000000000000000000033881454741PAO GOVT OF AP Hyderabad salary    STATE BANK OF INDIA SECRETARIAT    11394568063                     PVIJAYALAKSHMI(EMP)                PD ADMINISTRATOR                            2211394568063                        URGENT  PVIJAYALAKSHMI(EMP)      11394568063     
R4111394568711     000000000087780000000000000000000000000033881454741PAO GOVT OF AP Hyderabad salary    STATE BANK OF INDIA SECRETARIAT    11394568711                     TVENKATESWARLU                     PD ADMINISTRATOR                            2211394568711                        URGENT  TVENKATESWARLU           11394568711     
R4111394567999     000000000071550000000000000000000000000033881454741PAO GOVT OF AP Hyderabad salary    STATE BANK OF INDIA SECRETARIAT    11394567999                     PANASUYA                           PD ADMINISTRATOR                            2211394567999                        URGENT  PANASUYA                 11394567999     
R4111394568642     000000000108580000000000000000000000000033881454741PAO GOVT OF AP Hyderabad salary    STATE BANK OF INDIA SECRETARIAT    11394568642                     TANJANEYULU                        PD ADMINISTRATOR                            2211394568642                        URGENT  TANJANEYULU              11394568642     
R4111394534656     000000000071550000000000000000000000000033881454741PAO GOVT OF AP Hyderabad salary    STATE BANK OF INDIA SECRETARIAT    11394534656                     KNAGARATNAM                        PD ADMINISTRATOR                            2211394534656                        URGENT  KNAGARATNAM              11394534656     
R4111394554651     000000000122460000000000000000000000000033881454741PAO GOVT OF AP Hyderabad salary    STATE BANK OF INDIA SECRETARIAT    11394554651                     MSUBBA RAO                         PD ADMINISTRATOR                            2211394554651                        URGENT  MSUBBA RAO               11394554651     
R4111394569703     000000000071550000000000000000000000000033881454741PAO GOVT OF AP Hyderabad salary    STATE BANK OF INDIA SECRETARIAT    11394569703                     VLAKSHMI                           PD ADMINISTRATOR                            2211394569703                        URGENT  VLAKSHMI                 11394569703     
R4130388802158     000000000072540000000000000000000000000033881454741PAO GOVT OF AP Hyderabad salary    STATE BANK OF INDIA SECRETARIAT    30388802158                     BSATYANARAYANAMMA                  PD ADMINISTRATOR                            2230388802158                        URGENT  BSATYANARAYANAMMA        30388802158     
R4130779885392     000000000113530000000000000000000000000033881454741PAO GOVT OF AP Hyderabad salary    STATE BANK OF INDIA SECRETARIAT    30779885392                     PANKALU                            PD ADMINISTRATOR                            2230779885392                        URGENT  PANKALU                  30779885392     
R4111394566724     000000000071550000000000000000000000000033881454741PAO GOVT OF AP Hyderabad salary    STATE BANK OF INDIA SECRETARIAT    11394566724                     KARJUNUDU                          PD ADMINISTRATOR                            2211394566724                        URGENT  KARJUNUDU                11394566724     
R4111394566361     000000000103040000000000000000000000000033881454741PAO GOVT OF AP Hyderabad salary    STATE BANK OF INDIA SECRETARIAT    11394566361                     DSEETHAMAHALAKSHMI                 PD ADMINISTRATOR                            2211394566361                        URGENT  DSEETHAMAHALAKSHMI       11394566361     
R4111394533211     000000000110720000000000000000000000000033881454741PAO GOVT OF AP Hyderabad salary    STATE BANK OF INDIA SECRETARIAT    11394533211                     KRANGAMMA                          PD ADMINISTRATOR                            2211394533211                        URGENT  KRANGAMMA                11394533211     
R4111394537817     000000000110720000000000000000000000000033881454741PAO GOVT OF AP Hyderabad salary    STATE BANK OF INDIA SECRETARIAT    11394537817                     KNANCHARAMMA                       PD ADMINISTRATOR                            2211394537817                        URGENT  KNANCHARAMMA             11394537817     
R4111394489056     000000000116350000000000000000000000000033881454741PAO GOVT OF AP Hyderabad salary    STATE BANK OF INDIA SECRETARIAT    11394489056                     VGANGAMMA                          PD ADMINISTRATOR                            2211394489056                        URGENT  VGANGAMMA                11394489056     
R4131053576844     000000000112620000000000000000000000000033881454741PAO GOVT OF AP Hyderabad salary    STATE BANK OF INDIA SECRETARIAT    31053576844                     AMAMILLAMMA                        PD ADMINISTRATOR                            2231053576844                        URGENT  AMAMILLAMMA              31053576844     
R4111394567003     000000000113900000000000000000000000000033881454741PAO GOVT OF AP Hyderabad salary    STATE BANK OF INDIA SECRETARIAT    11394567003                     KKRISHNA MURTHY                    PD ADMINISTRATOR                            2211394567003                        URGENT  KKRISHNA MURTHY          11394567003     
R4130707771229     000000000071550000000000000000000000000033881454741PAO GOVT OF AP Hyderabad salary    STATE BANK OF INDIA SECRETARIAT    30707771229                     APITCHAMMA                         PD ADMINISTRATOR                            2230707771229                        URGENT  APITCHAMMA               30707771229     
R4111394485041     000000000103730000000000000000000000000033881454741PAO GOVT OF AP Hyderabad salary    STATE BANK OF INDIA SECRETARIAT    11394485041                     SNARASIMHULU                       PD ADMINISTRATOR                            2211394485041                        URGENT  SNARASIMHULU             11394485041     
R4111394461700     000000000147710000000000000000000000000033881454741PAO GOVT OF AP Hyderabad salary    STATE BANK OF INDIA SECRETARIAT    11394461700                     DSURYAKUMARI                       PD ADMINISTRATOR                            2211394461700                        URGENT  DSURYAKUMARI             11394461700     
R4132732503255     000000000127100000000000000000000000000033881454741PAO GOVT OF AP Hyderabad salary    STATE BANK OF INDIA SECRETARIAT    32732503255                     KMASTAN NAGOOR                     PD ADMINISTRATOR                            2232732503255                        URGENT  KMASTAN NAGOOR           32732503255     
R4120170127137     000000000147930000000000000000000000000033881454741PAO GOVT OF AP Hyderabad salary    STATE BANK OF INDIA SECRETARIAT    20170127137                     MINDIRA                            PD ADMINISTRATOR                            2220170127137                        URGENT  MINDIRA                  20170127137     
R4110052473187     000000000046530000000000000000000000000033881454741PAO GOVT OF AP Hyderabad salary    STATE BANK OF INDIA SECRETARIAT    10052473187                     BVIJAYAKUMARI(EMP)                 PD ADMINISTRATOR                            2310052473187                        URGENT  BVIJAYAKUMARI(EMP)       10052473187     
R4130003871450     000000000075070000000000000000000000000033881454741PAO GOVT OF AP Hyderabad salary    STATE BANK OF INDIA SECRETARIAT    30003871450                     MVRAMANA                           PD ADMINISTRATOR                            2330003871450                        URGENT  MVRAMANA                 30003871450     
R4110052519102     000000000076620000000000000000000000000033881454741PAO GOVT OF AP Hyderabad salary    STATE BANK OF INDIA SECRETARIAT    10052519102                     JVENKAYAMMA                        PD ADMINISTRATOR                            2310052519102                        URGENT  JVENKAYAMMA              10052519102     
R4110074293428     000000000075490000000000000000000000000033881454741PAO GOVT OF AP Hyderabad salary    STATE BANK OF INDIA SECRETARIAT    10074293428                     KANJANADEVI                        PD ADMINISTRATOR                            2410074293428                        URGENT  KANJANADEVI              10074293428     
R4110074255223     000000000074300000000000000000000000000033881454741PAO GOVT OF AP Hyderabad salary    STATE BANK OF INDIA SECRETARIAT    10074255223                     GVAZRAMMA                          PD ADMINISTRATOR                            2410074255223                        URGENT  GVAZRAMMA                10074255223     
R4110074259294     000000000075070000000000000000000000000033881454741PAO GOVT OF AP Hyderabad salary    STATE BANK OF INDIA SECRETARIAT    10074259294                     SHAHAJIDI                          PD ADMINISTRATOR                            2410074259294                        URGENT  SHAHAJIDI                10074259294     
R4110873085329     000000000075070000000000000000000000000033881454741PAO GOVT OF AP Hyderabad salary    STATE BANK OF INDIA SECRETARIAT    10873085329                     KRAJYALAKSHMI                      PD ADMINISTRATOR                            2510873085329                        URGENT  KRAJYALAKSHMI            10873085329     
R4110873151145     000000000074300000000000000000000000000033881454741PAO GOVT OF AP Hyderabad salary    STATE BANK OF INDIA SECRETARIAT    10873151145                     K SARASWATHI                       PD ADMINISTRATOR                            2510873151145                        URGENT  K SARASWATHI             10873151145     
R4110873151258     000000000071550000000000000000000000000033881454741PAO GOVT OF AP Hyderabad salary    STATE BANK OF INDIA SECRETARIAT    10873151258                     BDAMAYANTHI                        PD ADMINISTRATOR                            2510873151258                        URGENT  BDAMAYANTHI              10873151258     
R4110873102903     000000000075070000000000000000000000000033881454741PAO GOVT OF AP Hyderabad salary    STATE BANK OF INDIA SECRETARIAT    10873102903                     PAHALYABAI                         PD ADMINISTRATOR                            2510873102903                        URGENT  PAHALYABAI               10873102903     
R4110873150968     000000000107390000000000000000000000000033881454741PAO GOVT OF AP Hyderabad salary    STATE BANK OF INDIA SECRETARIAT    10873150968                     BVENKATESWARLU                     PD ADMINISTRATOR                            2510873150968                        URGENT  BVENKATESWARLU           10873150968     
R4110873150753     000000000071550000000000000000000000000033881454741PAO GOVT OF AP Hyderabad salary    STATE BANK OF INDIA SECRETARIAT    10873150753                     LVARALAKSHMI                       PD ADMINISTRATOR                            2510873150753                        URGENT  LVARALAKSHMI             10873150753     
R4110873150775     000000000096430000000000000000000000000033881454741PAO GOVT OF AP Hyderabad salary    STATE BANK OF INDIA SECRETARIAT    10873150775                     LALBEE                             PD ADMINISTRATOR                            2510873150775                        URGENT  LALBEE                   10873150775     
R4110873150742     000000000075860000000000000000000000000033881454741PAO GOVT OF AP Hyderabad salary    STATE BANK OF INDIA SECRETARIAT    10873150742                     DRAVULAMMA                         PD ADMINISTRATOR                            2510873150742                        URGENT  DRAVULAMMA               10873150742     
R4110873150764     000000000081880000000000000000000000000033881454741PAO GOVT OF AP Hyderabad salary    STATE BANK OF INDIA SECRETARIAT    10873150764                     DVAZRAM                            PD ADMINISTRATOR                            2510873150764                        URGENT  DVAZRAM                  10873150764     
R4110873155785     000000000116350000000000000000000000000033881454741PAO GOVT OF AP Hyderabad salary    STATE BANK OF INDIA SECRETARIAT    10873155785                     AMEERUNNISA                        PD ADMINISTRATOR                            2510873155785                        URGENT  AMEERUNNISA              10873155785     
R4130768193697     000000000125530000000000000000000000000033881454741PAO GOVT OF AP Hyderabad salary    STATE BANK OF INDIA SECRETARIAT    30768193697                     CHTULASI DAS                       PD ADMINISTRATOR                            2530768193697                        URGENT  CHTULASI DAS             30768193697     
R4110873150196     000000000075490000000000000000000000000033881454741PAO GOVT OF AP Hyderabad salary    STATE BANK OF INDIA SECRETARIAT    10873150196                     RJAYALAKSHMI                       PD ADMINISTRATOR                            2510873150196                        URGENT  RJAYALAKSHMI             10873150196     
R4110873151009     000000000075070000000000000000000000000033881454741PAO GOVT OF AP Hyderabad salary    STATE BANK OF INDIA SECRETARIAT    10873151009                     SMAHALAKSHMAMMA                    PD ADMINISTRATOR                            2510873151009                        URGENT  SMAHALAKSHMAMMA          10873151009     
R4110873115742     000000000075070000000000000000000000000033881454741PAO GOVT OF AP Hyderabad salary    STATE BANK OF INDIA SECRETARIAT    10873115742                     NRANGANAYAKAMMA                    PD ADMINISTRATOR                            2510873115742                        URGENT  NRANGANAYAKAMMA          10873115742     
R4110873086672     000000000078390000000000000000000000000033881454741PAO GOVT OF AP Hyderabad salary    STATE BANK OF INDIA SECRETARIAT    10873086672                     MSAKUNTHALA                        PD ADMINISTRATOR                            2510873086672                        URGENT  MSAKUNTHALA              10873086672     
R4110873151178     000000000074300000000000000000000000000033881454741PAO GOVT OF AP Hyderabad salary    STATE BANK OF INDIA SECRETARIAT    10873151178                     JNANCHARAMA                        PD ADMINISTRATOR                            2510873151178                        URGENT  JNANCHARAMA              10873151178     
R4110873114170     000000000105700000000000000000000000000033881454741PAO GOVT OF AP Hyderabad salary    STATE BANK OF INDIA SECRETARIAT    10873114170                     ANANCHARAIAH                       PD ADMINISTRATOR                            2510873114170                        URGENT  ANANCHARAIAH             10873114170     
R4110873151510     000000000076700000000000000000000000000033881454741PAO GOVT OF AP Hyderabad salary    STATE BANK OF INDIA SECRETARIAT    10873151510                     KSAROJINI                          PD ADMINISTRATOR                            2510873151510                        URGENT  KSAROJINI                10873151510     
R4110873112627     000000000094120000000000000000000000000033881454741PAO GOVT OF AP Hyderabad salary    STATE BANK OF INDIA SECRETARIAT    10873112627                     CHNANCHARAIAH                      PD ADMINISTRATOR                            2510873112627                        URGENT  CHNANCHARAIAH            10873112627     
R4130443393572     000000000122460000000000000000000000000033881454741PAO GOVT OF AP Hyderabad salary    STATE BANK OF INDIA SECRETARIAT    30443393572                     VVARA LAKSHMI                      PD ADMINISTRATOR                            2530443393572                        URGENT  VVARA LAKSHMI            30443393572     
R4131167804070     000000000088760000000000000000000000000033881454741PAO GOVT OF AP Hyderabad salary    STATE BANK OF INDIA SECRETARIAT    31167804070                     CHRPRASUNAMBA                      PD ADMINISTRATOR                            2531167804070                        URGENT  CHRPRASUNAMBA            31167804070     
R4131689956041     000000000125480000000000000000000000000033881454741PAO GOVT OF AP Hyderabad salary    STATE BANK OF INDIA SECRETARIAT    31689956041                     JVENKATESWARAMMA                   PD ADMINISTRATOR                            2531689956041                        URGENT  JVENKATESWARAMMA         31689956041     
R4131827665321     000000000071550000000000000000000000000033881454741PAO GOVT OF AP Hyderabad salary    STATE BANK OF INDIA SECRETARIAT    31827665321                     AAMMAJI                            PD ADMINISTRATOR                            2531827665321                        URGENT  AAMMAJI                  31827665321     
R4111613705017     000000000078230000000000000000000000000033881454741PAO GOVT OF AP Hyderabad salary    STATE BANK OF INDIA SECRETARIAT    11613705017                     KBHULAKSHMI                        PD ADMINISTRATOR                            2611613705017                        URGENT  KBHULAKSHMI              11613705017     
R4111613703484     000000000075490000000000000000000000000033881454741PAO GOVT OF AP Hyderabad salary    STATE BANK OF INDIA SECRETARIAT    11613703484                     KKANAKAMMA                         PD ADMINISTRATOR                            2611613703484                        URGENT  KKANAKAMMA               11613703484     
R4111613703698     000000000075490000000000000000000000000033881454741PAO GOVT OF AP Hyderabad salary    STATE BANK OF INDIA SECRETARIAT    11613703698                     KRENUKAMMA                         PD ADMINISTRATOR                            2611613703698                        URGENT  KRENUKAMMA               11613703698     
R4111499439072     000000000074440000000000000000000000000033881454741PAO GOVT OF AP Hyderabad salary    STATE BANK OF INDIA SECRETARIAT    11499439072                     CHKANNAMMA                         PD ADMINISTRATOR                            2711499439072                        URGENT  CHKANNAMMA               11499439072     
R4111499493937     000000000094410000000000000000000000000033881454741PAO GOVT OF AP Hyderabad salary    STATE BANK OF INDIA SECRETARIAT    11499493937                     KLAKSHMI                           PD ADMINISTRATOR                            2711499493937                        URGENT  KLAKSHMI                 11499493937     
R4111499493201     000000000091690000000000000000000000000033881454741PAO GOVT OF AP Hyderabad salary    STATE BANK OF INDIA SECRETARIAT    11499493201                     AMAHALAKSHMI                       PD ADMINISTRATOR                            2711499493201                        URGENT  AMAHALAKSHMI             11499493201     
R4111499494760     000000000111560000000000000000000000000033881454741PAO GOVT OF AP Hyderabad salary    STATE BANK OF INDIA SECRETARIAT    11499494760                     TVENKATA SITHAMAHALSKHMI           PD ADMINISTRATOR                            2711499494760                        URGENT  TVENKATA SITHAMAHALSKHMI 11499494760     
R4111499431936     000000000113530000000000000000000000000033881454741PAO GOVT OF AP Hyderabad salary    STATE BANK OF INDIA SECRETARIAT    11499431936                     MVMKAMALABAYAMMA                   PD ADMINISTRATOR                            2711499431936                        URGENT  MVMKAMALABAYAMMA         11499431936     
R4130462878522     000000000112620000000000000000000000000033881454741PAO GOVT OF AP Hyderabad salary    STATE BANK OF INDIA SECRETARIAT    30462878522                     N SUBBAMMA                         PD ADMINISTRATOR                            2730462878522                        URGENT  N SUBBAMMA               30462878522     
R4111499493314     000000000092450000000000000000000000000033881454741PAO GOVT OF AP Hyderabad salary    STATE BANK OF INDIA SECRETARIAT    11499493314                     BYOHAN                             PD ADMINISTRATOR                            2711499493314                        URGENT  BYOHAN                   11499493314     
R4120133597710     000000000118800000000000000000000000000033881454741PAO GOVT OF AP Hyderabad salary    STATE BANK OF INDIA SECRETARIAT    20133597710                     MDAVID RAJU                        PD ADMINISTRATOR                            2720133597710                        URGENT  MDAVID RAJU              20133597710     
R4111483964521     000000000102660000000000000000000000000033881454741PAO GOVT OF AP Hyderabad salary    STATE BANK OF INDIA SECRETARIAT    11483964521                     SVEENAMMA                          PD ADMINISTRATOR                            2811483964521                        URGENT  SVEENAMMA                11483964521     
R4111483914592     000000000071550000000000000000000000000033881454741PAO GOVT OF AP Hyderabad salary    STATE BANK OF INDIA SECRETARIAT    11483914592                     PMAHALAKSHMI                       PD ADMINISTRATOR                            2811483914592                        URGENT  PMAHALAKSHMI             11483914592     
R4111483913826     000000000071550000000000000000000000000033881454741PAO GOVT OF AP Hyderabad salary    STATE BANK OF INDIA SECRETARIAT    11483913826                     VBABY                              PD ADMINISTRATOR                            2811483913826                        URGENT  VBABY                    11483913826     
R4111483964859     000000000114040000000000000000000000000033881454741PAO GOVT OF AP Hyderabad salary    STATE BANK OF INDIA SECRETARIAT    11483964859                     BBHARATHAMMA                       PD ADMINISTRATOR                            2811483964859                        URGENT  BBHARATHAMMA             11483964859     
R4130317097580     000000000071550000000000000000000000000033881454741PAO GOVT OF AP Hyderabad salary    STATE BANK OF INDIA SECRETARIAT    30317097580                     SVENKAMMA                          PD ADMINISTRATOR                            2830317097580                        URGENT  SVENKAMMA                30317097580     
R4111483933581     000000000114600000000000000000000000000033881454741PAO GOVT OF AP Hyderabad salary    STATE BANK OF INDIA SECRETARIAT    11483933581                     PEERABI                            PD ADMINISTRATOR                            2811483933581                        URGENT  PEERABI                  11483933581     
R4111483964429     000000000075490000000000000000000000000033881454741PAO GOVT OF AP Hyderabad salary    STATE BANK OF INDIA SECRETARIAT    11483964429                     MHYMAVATHI                         PD ADMINISTRATOR                            2811483964429                        URGENT  MHYMAVATHI               11483964429     
R4111483964532     000000000071550000000000000000000000000033881454741PAO GOVT OF AP Hyderabad salary    STATE BANK OF INDIA SECRETARIAT    11483964532                     SRADHAMMA                          PD ADMINISTRATOR                            2811483964532                        URGENT  SRADHAMMA                11483964532     
R4111483954375     000000000076510000000000000000000000000033881454741PAO GOVT OF AP Hyderabad salary    STATE BANK OF INDIA SECRETARIAT    11483954375                     SVEERAIAH                          PD ADMINISTRATOR                            2811483954375                        URGENT  SVEERAIAH                11483954375     
R4111483944469     000000000097780000000000000000000000000033881454741PAO GOVT OF AP Hyderabad salary    STATE BANK OF INDIA SECRETARIAT    11483944469                     VKANAKAIAH                         PD ADMINISTRATOR                            2811483944469                        URGENT  VKANAKAIAH               11483944469     
R4130314466451     000000000071550000000000000000000000000033881454741PAO GOVT OF AP Hyderabad salary    STATE BANK OF INDIA SECRETARIAT    30314466451                     DPADMA                             PD ADMINISTRATOR                            2930314466451                        URGENT  DPADMA                   30314466451     
R4111313159192     000000000112620000000000000000000000000033881454741PAO GOVT OF AP Hyderabad salary    STATE BANK OF INDIA SECRETARIAT    11313159192                     BCHINNIKRISHNAMMA                  PD ADMINISTRATOR                            2911313159192                        URGENT  BCHINNIKRISHNAMMA        11313159192     
R4111313123530     000000000074300000000000000000000000000033881454741PAO GOVT OF AP Hyderabad salary    STATE BANK OF INDIA SECRETARIAT    11313123530                     KYALAMANDAMMA                      PD ADMINISTRATOR                            2911313123530                        URGENT  KYALAMANDAMMA            11313123530     
R4111313132227     000000000046050000000000000000000000000033881454741PAO GOVT OF AP Hyderabad salary    STATE BANK OF INDIA SECRETARIAT    11313132227                     NKAMALAMMA(EMP)                    PD ADMINISTRATOR                            2911313132227                        URGENT  NKAMALAMMA(EMP)          11313132227     
R4111313119670     000000000046050000000000000000000000000033881454741PAO GOVT OF AP Hyderabad salary    STATE BANK OF INDIA SECRETARIAT    11313119670                     GADILAKSHMI(EMP)                   PD ADMINISTRATOR                            2911313119670                        URGENT  GADILAKSHMI(EMP)         11313119670     
R4111313116125     000000000097960000000000000000000000000033881454741PAO GOVT OF AP Hyderabad salary    STATE BANK OF INDIA SECRETARIAT    11313116125                     CHLALAIAH                          PD ADMINISTRATOR                            2911313116125                        URGENT  CHLALAIAH                11313116125     
R4111313141877     000000000071550000000000000000000000000033881454741PAO GOVT OF AP Hyderabad salary    STATE BANK OF INDIA SECRETARIAT    11313141877                     TSUBBAMMA (FP)                     PD ADMINISTRATOR                            2911313141877                        URGENT  TSUBBAMMA (FP)           11313141877     
R4111313178319     000000000105700000000000000000000000000033881454741PAO GOVT OF AP Hyderabad salary    STATE BANK OF INDIA SECRETARIAT    11313178319                     KMOSHA RAO                         PD ADMINISTRATOR                            2911313178319                        URGENT  KMOSHA RAO               11313178319     
R4111313180282     000000000111560000000000000000000000000033881454741PAO GOVT OF AP Hyderabad salary    STATE BANK OF INDIA SECRETARIAT    11313180282                     SRAJA RAO                          PD ADMINISTRATOR                            2911313180282                        URGENT  SRAJA RAO                11313180282     
R4111313147369     000000000227090000000000000000000000000033881454741PAO GOVT OF AP Hyderabad salary    STATE BANK OF INDIA SECRETARIAT    11313147369                     SNAGESWARA RAO                     PD ADMINISTRATOR                            2911313147369                        URGENT  SNAGESWARA RAO           11313147369     
R4111313177609     000000000071550000000000000000000000000033881454741PAO GOVT OF AP Hyderabad salary    STATE BANK OF INDIA SECRETARIAT    11313177609                     DSANTHAMMA                         PD ADMINISTRATOR                            2911313177609                        URGENT  DSANTHAMMA               11313177609     
R4111313143513     000000000096430000000000000000000000000033881454741PAO GOVT OF AP Hyderabad salary    STATE BANK OF INDIA SECRETARIAT    11313143513                     VRAMULAMMA                         PD ADMINISTRATOR                            2911313143513                        URGENT  VRAMULAMMA               11313143513     
R4131146858112     000000000116020000000000000000000000000033881454741PAO GOVT OF AP Hyderabad salary    STATE BANK OF INDIA SECRETARIAT    31146858112                     CH NAGESWARA RAO                   PD ADMINISTRATOR                            2931146858112                        URGENT  CH NAGESWARA RAO         31146858112     
R4130369889803     000000000122460000000000000000000000000033881454741PAO GOVT OF AP Hyderabad salary    STATE BANK OF INDIA SECRETARIAT    30369889803                     BSUSEELA                           PD ADMINISTRATOR                            2930369889803                        URGENT  BSUSEELA                 30369889803     
R4133486843158     000000000071550000000000000000000000000033881454741PAO GOVT OF AP Hyderabad salary    STATE BANK OF INDIA SECRETARIAT    33486843158                     KMARTHAMMA                         PD ADMINISTRATOR                            2933486843158                        URGENT  KMARTHAMMA               33486843158     
R4130742537572     000000000074300000000000000000000000000033881454741PAO GOVT OF AP Hyderabad salary    STATE BANK OF INDIA SECRETARIAT    30742537572                     PVAIDEVAMMA                        PD ADMINISTRATOR                            3030742537572                        URGENT  PVAIDEVAMMA              30742537572     
R4132077901044     000000000068640000000000000000000000000033881454741PAO GOVT OF AP Hyderabad salary    STATE BANK OF INDIA SECRETARIAT    32077901044                     YSAVITHRIDEVI                      PD ADMINISTRATOR                            3132077901044                        URGENT  YSAVITHRIDEVI            32077901044     
R4110720090718     000000000114970000000000000000000000000033881454741PAO GOVT OF AP Hyderabad salary    STATE BANK OF INDIA SECRETARIAT    10720090718                     NMANGAMMA                          PD ADMINISTRATOR                            3110720090718                        URGENT  NMANGAMMA                10720090718     
R4130177074193     000000000071550000000000000000000000000033881454741PAO GOVT OF AP Hyderabad salary    STATE BANK OF INDIA SECRETARIAT    30177074193                     NSRIDEVI                           PD ADMINISTRATOR                            3130177074193                        URGENT  NSRIDEVI                 30177074193     
R4130137582648     000000000125530000000000000000000000000033881454741PAO GOVT OF AP Hyderabad salary    STATE BANK OF INDIA SECRETARIAT    30137582648                     RVENKATESU                         PD ADMINISTRATOR                            3130137582648                        URGENT  RVENKATESU               30137582648     
R4110720084137     000000000222900000000000000000000000000033881454741PAO GOVT OF AP Hyderabad salary    STATE BANK OF INDIA SECRETARIAT    10720084137                     SKKHASIMBI                         PD ADMINISTRATOR                            3110720084137                        URGENT  SKKHASIMBI               10720084137     
R4111348904432     000000000074300000000000000000000000000033881454741PAO GOVT OF AP Hyderabad salary    STATE BANK OF INDIA SECRETARIAT    11348904432                     RVENKATARAMANA                     PD ADMINISTRATOR                            3211348904432                        URGENT  RVENKATARAMANA           11348904432     
R4111348902242     000000000074300000000000000000000000000033881454741PAO GOVT OF AP Hyderabad salary    STATE BANK OF INDIA SECRETARIAT    11348902242                     BLAKSHMIDASAMMA                    PD ADMINISTRATOR                            3211348902242                        URGENT  BLAKSHMIDASAMMA          11348902242     
R4111348903541     000000000091840000000000000000000000000033881454741PAO GOVT OF AP Hyderabad salary    STATE BANK OF INDIA SECRETARIAT    11348903541                     MRAVAMMA                           PD ADMINISTRATOR                            3211348903541                        URGENT  MRAVAMMA                 11348903541     
R4111348903530     000000000103040000000000000000000000000033881454741PAO GOVT OF AP Hyderabad salary    STATE BANK OF INDIA SECRETARIAT    11348903530                     MGURUMURTHY                        PD ADMINISTRATOR                            3211348903530                        URGENT  MGURUMURTHY              11348903530     
R4111348903416     000000000100010000000000000000000000000033881454741PAO GOVT OF AP Hyderabad salary    STATE BANK OF INDIA SECRETARIAT    11348903416                     KUMPATI PICHAIAH                   PD ADMINISTRATOR                            3211348903416                        URGENT  KUMPATI PICHAIAH         11348903416     
R4111348904078     000000000093190000000000000000000000000033881454741PAO GOVT OF AP Hyderabad salary    STATE BANK OF INDIA SECRETARIAT    11348904078                     PAMARTHI PEDAMAHANKALI             PD ADMINISTRATOR                            3211348904078                        URGENT  PAMARTHI PEDAMAHANKALI   11348904078     
R4111348905334     000000000072540000000000000000000000000033881454741PAO GOVT OF AP Hyderabad salary    STATE BANK OF INDIA SECRETARIAT    11348905334                     MRAMULAMMA                         PD ADMINISTRATOR                            3211348905334                        URGENT  MRAMULAMMA               11348905334     
