R41000000059786410000000000000000000000000033930064359MED SERV & INF DEVP CORPN, AP- Managing DirectorSTATE BANK OF INDIA                867325110000021                 M/S Muni Mohan  Reddy & Co         MED SERV & INF DEVP CORPN AP- MANA BKID0008673867325110000021                    URGENT  M/S Muni Mohan  Reddy & C867325110000021 
R41000000000705540000000000000000000000000033930064359MED SERV & INF DEVP CORPN, AP- Managing DirectorSTATE BANK OF INDIA                142210011200206                 APLabour Cess Commissioner  HyderabMED SERV & INF DEVP CORPN AP- MANA ANDB0001422142210011200206                    URGENT  APLabour Cess Commissione142210011200206 
R41000000004568390000000000000000000000000033930064359MED SERV & INF DEVP CORPN, AP- Managing DirectorSTATE BANK OF INDIA                142410011000314                 MD APMSIDC Hyderabad               MED SERV & INF DEVP CORPN AP- MANA ANDB0001424142410011000314                    URGENT  MD APMSIDC Hyderabad     142410011000314 
