R41000000000156560000000000000000000000000033881454741PAO GOVT OF AP Hyderabad salary    STATE BANK OF INDIA SECRETARIAT    0004103000047791                NSDL e Governance                  TRIBAL WELFARE RESIDENTIAL EDUCATI IBKL0000004TRIBAL WELFARE RESIDENTIAL EDUCATI URGENT  NSDL e Governance                                         0182051         EMLdpao-sect@ap.nic.in             
R41000000000245000000000000000000000000000033881454741PAO GOVT OF AP Hyderabad salary    STATE BANK OF INDIA SECRETARIAT    1057102000003599                M/s Sri suresh kumar Travels       TRIBAL WELFARE RESIDENTIAL EDUCATI IBKL0001057TRIBAL WELFARE RESIDENTIAL EDUCATI URGENT  M/s Sri suresh kumar Trav                                 0182052         EMLdpao-sect@ap.nic.in             
R41000000000025360000000000000000000000000033881454741PAO GOVT OF AP Hyderabad salary    STATE BANK OF INDIA SECRETARIAT    002001200019205                 Karthik Mineral Water              TRIBAL WELFARE RESIDENTIAL EDUCATI APMC0000002TRIBAL WELFARE RESIDENTIAL EDUCATI URGENT  Karthik Mineral Water                                     0182053         EMLdpao-sect@ap.nic.in             
R41000000000012950000000000000000000000000033881454741PAO GOVT OF AP Hyderabad salary    STATE BANK OF INDIA SECRETARIAT    62180766113                     R Lokendran                        TRIBAL WELFARE RESIDENTIAL EDUCATI SBHY0021026TRIBAL WELFARE RESIDENTIAL EDUCATI URGENT  R Lokendran                                               0182054         EMLdpao-sect@ap.nic.in             
R41000000000057500000000000000000000000000033881454741PAO GOVT OF AP Hyderabad salary    STATE BANK OF INDIA SECRETARIAT    62033888019                     S Lakshman rao                     TRIBAL WELFARE RESIDENTIAL EDUCATI SBHY0021026TRIBAL WELFARE RESIDENTIAL EDUCATI URGENT  S Lakshman rao                                            0182055         EMLdpao-sect@ap.nic.in             
R41000000000064000000000000000000000000000033881454741PAO GOVT OF AP Hyderabad salary    STATE BANK OF INDIA SECRETARIAT    62033888019                     S Lakshman rao                     TRIBAL WELFARE RESIDENTIAL EDUCATI SBHY0021026TRIBAL WELFARE RESIDENTIAL EDUCATI URGENT  S Lakshman rao                                            0182056         EMLdpao-sect@ap.nic.in             
R41000000000229620000000000000000000000000033881454741PAO GOVT OF AP Hyderabad salary    STATE BANK OF INDIA SECRETARIAT    62181946129                     RS G  Buttayagudem                 TRIBAL WELFARE RESIDENTIAL EDUCATI SBHY0020769TRIBAL WELFARE RESIDENTIAL EDUCATI URGENT  RS G  Buttayagudem                                        0182057         EMLdpao-sect@ap.nic.in             
