R41000000010230190000000000000000000000000033881454741PAO GOVT OF AP Hyderabad salary    STATE BANK OF INDIA SECRETARIAT    62038329485                     RS B Peddamadi                     TRIBAL WELFARE RESIDENTIAL EDUCATI SBHY002080962038329485                        URGENT  RS B Peddamadi           62038329485     
R41000000009749750000000000000000000000000033881454741PAO GOVT OF AP Hyderabad salary    STATE BANK OF INDIA SECRETARIAT    62039007705                     RS G Rajavommangi                  TRIBAL WELFARE RESIDENTIAL EDUCATI SBHY002052162039007705                        URGENT  RS G Rajavommangi        62039007705     
R41000000009588620000000000000000000000000033881454741PAO GOVT OF AP Hyderabad salary    STATE BANK OF INDIA SECRETARIAT    62181946129                     RS G  Buttayagudem                 TRIBAL WELFARE RESIDENTIAL EDUCATI SBHY002076962181946129                        URGENT  RS G  Buttayagudem       62181946129     
