R41000000004359140000000000000000000000000033881454741PD  GOVT OF AP Hyderabad salary    STATE BANK OF INDIA SECRETARIAT    BANKERS CHEQUE                  The New India Assurance Co  LTD    COMM MUNICIPALITY VIZIANAGARAM                BANKERS CHEQUE                     URGENT  The New India Assurance C                                 BANKERS CHEQUE  EMLdpao-sect@ap.nic.in             
R41000000000153350000000000000000000000000033881454741PD  GOVT OF AP Hyderabad salary    STATE BANK OF INDIA SECRETARIAT    BANKERS CHEQUE                  A O (cash) BSNL VZM                COMM MUNICIPALITY VIZIANAGARAM                BANKERS CHEQUE                     URGENT  A O (cash) BSNL VZM                                       BANKERS CHEQUE  EMLdpao-sect@ap.nic.in             
R41000000000165000000000000000000000000000033881454741PD  GOVT OF AP Hyderabad salary    STATE BANK OF INDIA SECRETARIAT    10676934765                     P Uma Maheswari                    COMM MUNICIPALITY VIZIANAGARAM                10676934765                        URGENT  P Uma Maheswari                                           10676934765     EMLdpao-sect@ap.nic.in             
