R41000000000468760000000000000000000000000033881454741PAO GOVT OF AP Hyderabad salary    STATE BANK OF INDIA SECRETARIAT    31131973855                     K SAI KUMAR                        COMM MUNICIPALITY VIZIANAGARAM                31131973855                        URGENT  K SAI KUMAR              31131973855     
R41000000000520380000000000000000000000000033881454741PAO GOVT OF AP Hyderabad salary    STATE BANK OF INDIA SECRETARIAT                                    CH APPA RAO                        COMM MUNICIPALITY VIZIANAGARAM                                                   URGENT  CH APPA RAO                              
R41000000000520380000000000000000000000000033881454741PAO GOVT OF AP Hyderabad salary    STATE BANK OF INDIA SECRETARIAT                                    K APPAYAMMA                        COMM MUNICIPALITY VIZIANAGARAM                                                   URGENT  K APPAYAMMA                              
R41000000000520380000000000000000000000000033881454741PAO GOVT OF AP Hyderabad salary    STATE BANK OF INDIA SECRETARIAT    62267155381                     B SANYASAPPADU                     COMM MUNICIPALITY VIZIANAGARAM                62267155381                        URGENT  B SANYASAPPADU           62267155381     
R41000000000121910000000000000000000000000033881454741PAO GOVT OF AP Hyderabad salary    STATE BANK OF INDIA SECRETARIAT    2.42E+13                        VARUN MOTORS                       COMM MUNICIPALITY VIZIANAGARAM     BARB0VIZKOT2.42E+13                           URGENT  VARUN MOTORS             2.42E+13        
R41000000000025900000000000000000000000000033881454741PAO GOVT OF AP Hyderabad salary    STATE BANK OF INDIA SECRETARIAT                                    S KHALEEL                          COMM MUNICIPALITY VIZIANAGARAM                                                   URGENT  S KHALEEL                                
R41000000000028000000000000000000000000000033881454741PAO GOVT OF AP Hyderabad salary    STATE BANK OF INDIA SECRETARIAT                                    MICRO TECHNOLOGIES  VZM            COMM MUNICIPALITY VIZIANAGARAM                                                   URGENT  MICRO TECHNOLOGIES  VZM                  
R41000000000016350000000000000000000000000033881454741PAO GOVT OF AP Hyderabad salary    STATE BANK OF INDIA SECRETARIAT                                    N SANYASI RAO                      COMM MUNICIPALITY VIZIANAGARAM                                                   URGENT  N SANYASI RAO                            
