R412.02E+14        000000000200000000000000000000000000000033881454741PD  GOVT OF AP Hyderabad salary    STATE BANK OF INDIA SECRETARIAT    2.02E+14                        GUNDA SAMPURNA ALIAS SAMPURNAMMA   RES EDN INST SOC - AP(APREI SOCIET ANDB00020242.02E+14                           URGENT  GUNDA SAMPURNA ALIAS SAMP2.02E+14        
R414.76E+13        000000000200000000000000000000000000000033881454741PD  GOVT OF AP Hyderabad salary    STATE BANK OF INDIA SECRETARIAT    4.76E+13                        MORAM SANDEEP REDDY                RES EDN INST SOC - AP(APREI SOCIET ANDB00004764.76E+13                           URGENT  MORAM SANDEEP REDDY      4.76E+13        
R414.76E+13        000000000200000000000000000000000000000033881454741PD  GOVT OF AP Hyderabad salary    STATE BANK OF INDIA SECRETARIAT    4.76E+13                        MUTYAM VENKATESWARLU               RES EDN INST SOC - AP(APREI SOCIET ANDB00004764.76E+13                           URGENT  MUTYAM VENKATESWARLU     4.76E+13        
R413.45E+13        000000000200000000000000000000000000000033881454741PD  GOVT OF AP Hyderabad salary    STATE BANK OF INDIA SECRETARIAT    3.45E+13                        PULIPOGU AKHILKUMAR                RES EDN INST SOC - AP(APREI SOCIET ANDB00003453.45E+13                           URGENT  PULIPOGU AKHILKUMAR      3.45E+13        
R412.42E+13        000000000200000000000000000000000000000033881454741PD  GOVT OF AP Hyderabad salary    STATE BANK OF INDIA SECRETARIAT    2.42E+13                        PERAM NAGESWAR RAO                 RES EDN INST SOC - AP(APREI SOCIET ANDB00002422.42E+13                           URGENT  PERAM NAGESWAR RAO       2.42E+13        
R413.45E+13        000000000200000000000000000000000000000033881454741PD  GOVT OF AP Hyderabad salary    STATE BANK OF INDIA SECRETARIAT    3.45E+13                        VEMULA HARSHITHA CHOWDARY          RES EDN INST SOC - AP(APREI SOCIET ANDB00003453.45E+13                           URGENT  VEMULA HARSHITHA CHOWDARY3.45E+13        
R411.58E+14        000000000200000000000000000000000000000033881454741PD  GOVT OF AP Hyderabad salary    STATE BANK OF INDIA SECRETARIAT    1.58E+14                        POLE MOUNIKA                       RES EDN INST SOC - AP(APREI SOCIET ANDB00016801.58E+14                           URGENT  POLE MOUNIKA             1.58E+14        
R416.96E+13        000000000200000000000000000000000000000033881454741PD  GOVT OF AP Hyderabad salary    STATE BANK OF INDIA SECRETARIAT    6.96E+13                        CHITTELA VAMSI                     RES EDN INST SOC - AP(APREI SOCIET ANDB00006966.96E+13                           URGENT  CHITTELA VAMSI           6.96E+13        
R413.81E+13        000000000200000000000000000000000000000033881454741PD  GOVT OF AP Hyderabad salary    STATE BANK OF INDIA SECRETARIAT    3.81E+13                        RUDRAPATI ASHABI                   RES EDN INST SOC - AP(APREI SOCIET ANDB00003813.81E+13                           URGENT  RUDRAPATI ASHABI         3.81E+13        
R411.98E+14        000000000200000000000000000000000000000033881454741PD  GOVT OF AP Hyderabad salary    STATE BANK OF INDIA SECRETARIAT    1.98E+14                        BHAVIRISHETTY KASI ANNAPURNA       RES EDN INST SOC - AP(APREI SOCIET ANDB00019811.98E+14                           URGENT  BHAVIRISHETTY KASI ANNAPU1.98E+14        
R411.98E+14        000000000200000000000000000000000000000033881454741PD  GOVT OF AP Hyderabad salary    STATE BANK OF INDIA SECRETARIAT    1.98E+14                        KUMBHA RAVI KUMAR                  RES EDN INST SOC - AP(APREI SOCIET ANDB00019811.98E+14                           URGENT  KUMBHA RAVI KUMAR        1.98E+14        
R415.76E+13        000000000200000000000000000000000000000033881454741PD  GOVT OF AP Hyderabad salary    STATE BANK OF INDIA SECRETARIAT    5.76E+13                        YAMARTHI SAMBASIVARAO              RES EDN INST SOC - AP(APREI SOCIET ANDB00005765.76E+13                           URGENT  YAMARTHI SAMBASIVARAO    5.76E+13        
R419.10E+11        000000000200000000000000000000000000000033881454741PD  GOVT OF AP Hyderabad salary    STATE BANK OF INDIA SECRETARIAT    9.10E+11                        G. DEVA RAJU                       RES EDN INST SOC - AP(APREI SOCIET ANDB00000099.10E+11                           URGENT  G. DEVA RAJU             9.10E+11        
R419.23E+13        000000000200000000000000000000000000000033881454741PD  GOVT OF AP Hyderabad salary    STATE BANK OF INDIA SECRETARIAT    9.23E+13                        BORRA VARAPRASAD                   RES EDN INST SOC - AP(APREI SOCIET ANDB00019239.23E+13                           URGENT  BORRA VARAPRASAD         9.23E+13        
R413.66E+13        000000000200000000000000000000000000000033881454741PD  GOVT OF AP Hyderabad salary    STATE BANK OF INDIA SECRETARIAT    3.66E+13                        K. RADHA RANI                      RES EDN INST SOC - AP(APREI SOCIET ANDB00003663.66E+13                           URGENT  K. RADHA RANI            3.66E+13        
R415.76E+13        000000000200000000000000000000000000000033881454741PD  GOVT OF AP Hyderabad salary    STATE BANK OF INDIA SECRETARIAT    5.76E+13                        GUTHIKONDA VENKATA REDDY           RES EDN INST SOC - AP(APREI SOCIET ANDB00005765.76E+13                           URGENT  GUTHIKONDA VENKATA REDDY 5.76E+13        
R411.93E+14        000000000200000000000000000000000000000033881454741PD  GOVT OF AP Hyderabad salary    STATE BANK OF INDIA SECRETARIAT    1.93E+14                        KAMBHAMPATI CHANDRASEKHARA RAO     RES EDN INST SOC - AP(APREI SOCIET ANDB00019271.93E+14                           URGENT  KAMBHAMPATI CHANDRASEKHAR1.93E+14        
R411.98E+14        000000000200000000000000000000000000000033881454741PD  GOVT OF AP Hyderabad salary    STATE BANK OF INDIA SECRETARIAT    1.98E+14                        NANDIGAMA MOHANARAO                RES EDN INST SOC - AP(APREI SOCIET ANDB00019811.98E+14                           URGENT  NANDIGAMA MOHANARAO      1.98E+14        
R417.03E+14        000000000200000000000000000000000000000033881454741PD  GOVT OF AP Hyderabad salary    STATE BANK OF INDIA SECRETARIAT    7.03E+14                        GADIDAMALLA KOTESWARAMMA           RES EDN INST SOC - AP(APREI SOCIET ANDB00079997.03E+14                           URGENT  GADIDAMALLA KOTESWARAMMA 7.03E+14        
R414.98E+13        000000000200000000000000000000000000000033881454741PD  GOVT OF AP Hyderabad salary    STATE BANK OF INDIA SECRETARIAT    4.98E+13                        DHIKONDA SRINIVASA RAO             RES EDN INST SOC - AP(APREI SOCIET ANDB00004984.98E+13                           URGENT  DHIKONDA SRINIVASA RAO   4.98E+13        
R414.98E+13        000000000200000000000000000000000000000033881454741PD  GOVT OF AP Hyderabad salary    STATE BANK OF INDIA SECRETARIAT    4.98E+13                        NALLAGORLA KAVITHA                 RES EDN INST SOC - AP(APREI SOCIET ANDB00004984.98E+13                           URGENT  NALLAGORLA KAVITHA       4.98E+13        
R414.98E+13        000000000200000000000000000000000000000033881454741PD  GOVT OF AP Hyderabad salary    STATE BANK OF INDIA SECRETARIAT    4.98E+13                        PRATTHIPATI NAGENDRA BABU          RES EDN INST SOC - AP(APREI SOCIET ANDB00004984.98E+13                           URGENT  PRATTHIPATI NAGENDRA BABU4.98E+13        
R411.25E+14        000000000200000000000000000000000000000033881454741PD  GOVT OF AP Hyderabad salary    STATE BANK OF INDIA SECRETARIAT    1.25E+14                        CHINNAPOTHULA KEERTHI              RES EDN INST SOC - AP(APREI SOCIET ANDB00012521.25E+14                           URGENT  CHINNAPOTHULA KEERTHI    1.25E+14        
R411.98E+14        000000000200000000000000000000000000000033881454741PD  GOVT OF AP Hyderabad salary    STATE BANK OF INDIA SECRETARIAT    1.98E+14                        MUCHERLA PAVAN SAI                 RES EDN INST SOC - AP(APREI SOCIET ANDB00019821.98E+14                           URGENT  MUCHERLA PAVAN SAI       1.98E+14        
R411.93E+14        000000000200000000000000000000000000000033881454741PD  GOVT OF AP Hyderabad salary    STATE BANK OF INDIA SECRETARIAT    1.93E+14                        THOLLAMADUGU HARITHA               RES EDN INST SOC - AP(APREI SOCIET ANDB00019291.93E+14                           URGENT  THOLLAMADUGU HARITHA     1.93E+14        
R417.07E+14        000000000200000000000000000000000000000033881454741PD  GOVT OF AP Hyderabad salary    STATE BANK OF INDIA SECRETARIAT    7.07E+14                        KORRAPATI CHANDANA                 RES EDN INST SOC - AP(APREI SOCIET ANDB00079997.07E+14                           URGENT  KORRAPATI CHANDANA       7.07E+14        
R414.31E+13        000000000200000000000000000000000000000033881454741PD  GOVT OF AP Hyderabad salary    STATE BANK OF INDIA SECRETARIAT    4.31E+13                        DUSARI KOMALI                      RES EDN INST SOC - AP(APREI SOCIET ANDB00004314.31E+13                           URGENT  DUSARI KOMALI            4.31E+13        
R414.31E+13        000000000200000000000000000000000000000033881454741PD  GOVT OF AP Hyderabad salary    STATE BANK OF INDIA SECRETARIAT    4.31E+13                        PASAM VENKATA NAGA INDRANI         RES EDN INST SOC - AP(APREI SOCIET ANDB00004314.31E+13                           URGENT  PASAM VENKATA NAGA INDRAN4.31E+13        
R414.31E+13        000000000200000000000000000000000000000033881454741PD  GOVT OF AP Hyderabad salary    STATE BANK OF INDIA SECRETARIAT    4.31E+13                        JAGANNADAM JYOTHI                  RES EDN INST SOC - AP(APREI SOCIET ANDB00004314.31E+13                           URGENT  JAGANNADAM JYOTHI        4.31E+13        
R411.34E+13        000000000200000000000000000000000000000033881454741PD  GOVT OF AP Hyderabad salary    STATE BANK OF INDIA SECRETARIAT    1.34E+13                        KUMBHA MONALISA                    RES EDN INST SOC - AP(APREI SOCIET ANDB00001341.34E+13                           URGENT  KUMBHA MONALISA          1.34E+13        
R411.01E+14        000000000200000000000000000000000000000033881454741PD  GOVT OF AP Hyderabad salary    STATE BANK OF INDIA SECRETARIAT    1.01E+14                        RUNJALA CHENNAIAH                  RES EDN INST SOC - AP(APREI SOCIET ANDB00010071.01E+14                           URGENT  RUNJALA CHENNAIAH        1.01E+14        
R411.05E+13        000000000200000000000000000000000000000033881454741PD  GOVT OF AP Hyderabad salary    STATE BANK OF INDIA SECRETARIAT    1.05E+13                        KAVURI PARIMALA                    RES EDN INST SOC - AP(APREI SOCIET ANDB00001051.05E+13                           URGENT  KAVURI PARIMALA          1.05E+13        
R411.05E+13        000000000200000000000000000000000000000033881454741PD  GOVT OF AP Hyderabad salary    STATE BANK OF INDIA SECRETARIAT    1.05E+13                        N SRINIVAS RAO                     RES EDN INST SOC - AP(APREI SOCIET ANDB00001051.05E+13                           URGENT  N SRINIVAS RAO           1.05E+13        
R414.16E+13        000000000200000000000000000000000000000033881454741PD  GOVT OF AP Hyderabad salary    STATE BANK OF INDIA SECRETARIAT    4.16E+13                        YARLAGADDA VENKATA RAMA KOTAIAH    RES EDN INST SOC - AP(APREI SOCIET ANDB00004164.16E+13                           URGENT  YARLAGADDA VENKATA RAMA K4.16E+13        
R415.32E+13        000000000200000000000000000000000000000033881454741PD  GOVT OF AP Hyderabad salary    STATE BANK OF INDIA SECRETARIAT    5.32E+13                        KAMINIPATI NAGA PRAVALLIKA         RES EDN INST SOC - AP(APREI SOCIET ANDB00005325.32E+13                           URGENT  KAMINIPATI NAGA PRAVALLIK5.32E+13        
R416.96E+13        000000000200000000000000000000000000000033881454741PD  GOVT OF AP Hyderabad salary    STATE BANK OF INDIA SECRETARIAT    6.96E+13                        DEVIREDDY LAKSHMI                  RES EDN INST SOC - AP(APREI SOCIET ANDB00006966.96E+13                           URGENT  DEVIREDDY LAKSHMI        6.96E+13        
R417.02E+14        000000000200000000000000000000000000000033881454741PD  GOVT OF AP Hyderabad salary    STATE BANK OF INDIA SECRETARIAT    7.02E+14                        NAMA KAILASAGIRI                   RES EDN INST SOC - AP(APREI SOCIET ANDB00079997.02E+14                           URGENT  NAMA KAILASAGIRI         7.02E+14        
R411.93E+14        000000000200000000000000000000000000000033881454741PD  GOVT OF AP Hyderabad salary    STATE BANK OF INDIA SECRETARIAT    1.93E+14                        MANCHALA BHANU CHANDAR             RES EDN INST SOC - AP(APREI SOCIET ANDB00019261.93E+14                           URGENT  MANCHALA BHANU CHANDAR   1.93E+14        
R411.92E+14        000000000200000000000000000000000000000033881454741PD  GOVT OF AP Hyderabad salary    STATE BANK OF INDIA SECRETARIAT    1.92E+14                        MANUKONDA VIJAYABHASKRA REDDY      RES EDN INST SOC - AP(APREI SOCIET ANDB00019221.92E+14                           URGENT  MANUKONDA VIJAYABHASKRA R1.92E+14        
R414.36E+13        000000000200000000000000000000000000000033881454741PD  GOVT OF AP Hyderabad salary    STATE BANK OF INDIA SECRETARIAT    4.36E+13                        KAJA CHINNA VENKATAPPA REDDY       RES EDN INST SOC - AP(APREI SOCIET ANDB00004364.36E+13                           URGENT  KAJA CHINNA VENKATAPPA RE4.36E+13        
R417.03E+14        000000000200000000000000000000000000000033881454741PD  GOVT OF AP Hyderabad salary    STATE BANK OF INDIA SECRETARIAT    7.03E+14                        KUMBHA LAKSHMI POORNIMA            RES EDN INST SOC - AP(APREI SOCIET ANDB00079997.03E+14                           URGENT  KUMBHA LAKSHMI POORNIMA  7.03E+14        
R417.03E+14        000000000200000000000000000000000000000033881454741PD  GOVT OF AP Hyderabad salary    STATE BANK OF INDIA SECRETARIAT    7.03E+14                        PARUCHURI VYSHNAVI                 RES EDN INST SOC - AP(APREI SOCIET ANDB00079997.03E+14                           URGENT  PARUCHURI VYSHNAVI       7.03E+14        
R417.01E+14        000000000200000000000000000000000000000033881454741PD  GOVT OF AP Hyderabad salary    STATE BANK OF INDIA SECRETARIAT    7.01E+14                        SHAIK YALAVARTHI PEDA KHASIM       RES EDN INST SOC - AP(APREI SOCIET ANDB00079997.01E+14                           URGENT  SHAIK YALAVARTHI PEDA KHA7.01E+14        
R411.82E+13        000000000200000000000000000000000000000033881454741PD  GOVT OF AP Hyderabad salary    STATE BANK OF INDIA SECRETARIAT    1.82E+13                        ALAPARTHI SRINIVASA RAO            RES EDN INST SOC - AP(APREI SOCIET ANDB00001821.82E+13                           URGENT  ALAPARTHI SRINIVASA RAO  1.82E+13        
R411.51E+14        000000000200000000000000000000000000000033881454741PD  GOVT OF AP Hyderabad salary    STATE BANK OF INDIA SECRETARIAT    1.51E+14                        SHAIK JAKEERA                      RES EDN INST SOC - AP(APREI SOCIET ANDB00015051.51E+14                           URGENT  SHAIK JAKEERA            1.51E+14        
R411.51E+14        000000000200000000000000000000000000000033881454741PD  GOVT OF AP Hyderabad salary    STATE BANK OF INDIA SECRETARIAT    1.51E+14                        DEVARAKONDA NAGAJYOTHI             RES EDN INST SOC - AP(APREI SOCIET ANDB00015051.51E+14                           URGENT  DEVARAKONDA NAGAJYOTHI   1.51E+14        
R411.93E+14        000000000200000000000000000000000000000033881454741PD  GOVT OF AP Hyderabad salary    STATE BANK OF INDIA SECRETARIAT    1.93E+14                        NADENDLA YEDUKONDALU               RES EDN INST SOC - AP(APREI SOCIET ANDB00019281.93E+14                           URGENT  NADENDLA YEDUKONDALU     1.93E+14        
R412.01E+14        000000000200000000000000000000000000000033881454741PD  GOVT OF AP Hyderabad salary    STATE BANK OF INDIA SECRETARIAT    2.01E+14                        KANDLAVATH VIGNESWARI BAI          RES EDN INST SOC - AP(APREI SOCIET ANDB00020082.01E+14                           URGENT  KANDLAVATH VIGNESWARI BAI2.01E+14        
R412.37E+13        000000000200000000000000000000000000000033881454741PD  GOVT OF AP Hyderabad salary    STATE BANK OF INDIA SECRETARIAT    2.37E+13                        RAMAVATHU BHASKAR NAIK             RES EDN INST SOC - AP(APREI SOCIET ANDB00002372.37E+13                           URGENT  RAMAVATHU BHASKAR NAIK   2.37E+13        
R413.81E+13        000000000200000000000000000000000000000033881454741PD  GOVT OF AP Hyderabad salary    STATE BANK OF INDIA SECRETARIAT    3.81E+13                        PAVULURI BANGARU BABU              RES EDN INST SOC - AP(APREI SOCIET ANDB00003813.81E+13                           URGENT  PAVULURI BANGARU BABU    3.81E+13        
R411.44E+14        000000000200000000000000000000000000000033881454741PD  GOVT OF AP Hyderabad salary    STATE BANK OF INDIA SECRETARIAT    1.44E+14                        MUKIRI RAJU                        RES EDN INST SOC - AP(APREI SOCIET ANDB00014421.44E+14                           URGENT  MUKIRI RAJU              1.44E+14        
R417.06E+14        000000000200000000000000000000000000000033881454741PD  GOVT OF AP Hyderabad salary    STATE BANK OF INDIA SECRETARIAT    7.06E+14                        BODAVULA SRIRAM MURTHY             RES EDN INST SOC - AP(APREI SOCIET ANDB00079997.06E+14                           URGENT  BODAVULA SRIRAM MURTHY   7.06E+14        
R411.83E+14        000000000200000000000000000000000000000033881454741PD  GOVT OF AP Hyderabad salary    STATE BANK OF INDIA SECRETARIAT    1.83E+14                        PAVULURI JHANSI RANI               RES EDN INST SOC - AP(APREI SOCIET ANDB00018251.83E+14                           URGENT  PAVULURI JHANSI RANI     1.83E+14        
R414.33E+13        000000000200000000000000000000000000000033881454741PD  GOVT OF AP Hyderabad salary    STATE BANK OF INDIA SECRETARIAT    4.33E+13                        GUDIPATI SRIDEVI                   RES EDN INST SOC - AP(APREI SOCIET ANDB00004334.33E+13                           URGENT  GUDIPATI SRIDEVI         4.33E+13        
R412.33E+13        000000000200000000000000000000000000000033881454741PD  GOVT OF AP Hyderabad salary    STATE BANK OF INDIA SECRETARIAT    2.33E+13                        KEERTHIPATI JYOTHIRMAYI            RES EDN INST SOC - AP(APREI SOCIET ANDB00002332.33E+13                           URGENT  KEERTHIPATI JYOTHIRMAYI  2.33E+13        
R418.36E+13        000000000200000000000000000000000000000033881454741PD  GOVT OF AP Hyderabad salary    STATE BANK OF INDIA SECRETARIAT    8.36E+13                        REBBA ANILKUMAR                    RES EDN INST SOC - AP(APREI SOCIET ANDB00008368.36E+13                           URGENT  REBBA ANILKUMAR          8.36E+13        
R418.36E+13        000000000200000000000000000000000000000033881454741PD  GOVT OF AP Hyderabad salary    STATE BANK OF INDIA SECRETARIAT    8.36E+13                        MATLAPUDI SOWRI BABU               RES EDN INST SOC - AP(APREI SOCIET ANDB00008368.36E+13                           URGENT  MATLAPUDI SOWRI BABU     8.36E+13        
R411.53E+13        000000000200000000000000000000000000000033881454741PD  GOVT OF AP Hyderabad salary    STATE BANK OF INDIA SECRETARIAT    1.53E+13                        CHANDU SAHITHI                     RES EDN INST SOC - AP(APREI SOCIET ANDB00001531.53E+13                           URGENT  CHANDU SAHITHI           1.53E+13        
R414.41E+12        000000000200000000000000000000000000000033881454741PD  GOVT OF AP Hyderabad salary    STATE BANK OF INDIA SECRETARIAT    4.41E+12                        KARRA BABU RAO                     RES EDN INST SOC - AP(APREI SOCIET ANDB00000444.41E+12                           URGENT  KARRA BABU RAO           4.41E+12        
R416.96E+13        000000000200000000000000000000000000000033881454741PD  GOVT OF AP Hyderabad salary    STATE BANK OF INDIA SECRETARIAT    6.96E+13                        VAKA SHALEM RAJU                   RES EDN INST SOC - AP(APREI SOCIET ANDB00006966.96E+13                           URGENT  VAKA SHALEM RAJU         6.96E+13        
R419.05E+13        000000000200000000000000000000000000000033881454741PD  GOVT OF AP Hyderabad salary    STATE BANK OF INDIA SECRETARIAT    9.05E+13                        THOTA SRINIVAS RAO                 RES EDN INST SOC - AP(APREI SOCIET ANDB00009059.05E+13                           URGENT  THOTA SRINIVAS RAO       9.05E+13        
R419.05E+13        000000000200000000000000000000000000000033881454741PD  GOVT OF AP Hyderabad salary    STATE BANK OF INDIA SECRETARIAT    9.05E+13                        RAMAYANAM MADHAVI                  RES EDN INST SOC - AP(APREI SOCIET ANDB00009059.05E+13                           URGENT  RAMAYANAM MADHAVI        9.05E+13        
R417.00E+14        000000000200000000000000000000000000000033881454741PD  GOVT OF AP Hyderabad salary    STATE BANK OF INDIA SECRETARIAT    7.00E+14                        ANNE NAGASRI SAI KIRAN             RES EDN INST SOC - AP(APREI SOCIET ANDB00079997.00E+14                           URGENT  ANNE NAGASRI SAI KIRAN   7.00E+14        
R414.19E+13        000000000200000000000000000000000000000033881454741PD  GOVT OF AP Hyderabad salary    STATE BANK OF INDIA SECRETARIAT    4.19E+13                        GODAVARTHI MANIKANTA MAHIDHAR      RES EDN INST SOC - AP(APREI SOCIET ANDB00004194.19E+13                           URGENT  GODAVARTHI MANIKANTA MAHI4.19E+13        
R414.19E+13        000000000200000000000000000000000000000033881454741PD  GOVT OF AP Hyderabad salary    STATE BANK OF INDIA SECRETARIAT    4.19E+13                        PAMULA CHINNA KOTESWARA RAO        RES EDN INST SOC - AP(APREI SOCIET ANDB00004194.19E+13                           URGENT  PAMULA CHINNA KOTESWARA R4.19E+13        
R411.19E+14        000000000200000000000000000000000000000033881454741PD  GOVT OF AP Hyderabad salary    STATE BANK OF INDIA SECRETARIAT    1.19E+14                        SHAIK YASMINE                      RES EDN INST SOC - AP(APREI SOCIET ANDB00011851.19E+14                           URGENT  SHAIK YASMINE            1.19E+14        
R411.65E+13        000000000200000000000000000000000000000033881454741PD  GOVT OF AP Hyderabad salary    STATE BANK OF INDIA SECRETARIAT    1.65E+13                        KOMMANABOYINA THIRUMALA BABU       RES EDN INST SOC - AP(APREI SOCIET ANDB00001651.65E+13                           URGENT  KOMMANABOYINA THIRUMALA B1.65E+13        
R411.19E+14        000000000200000000000000000000000000000033881454741PD  GOVT OF AP Hyderabad salary    STATE BANK OF INDIA SECRETARIAT    1.19E+14                        KALUVA SRI RAM GUPTA               RES EDN INST SOC - AP(APREI SOCIET ANDB00011851.19E+14                           URGENT  KALUVA SRI RAM GUPTA     1.19E+14        
R419.14E+14        000000000200000000000000000000000000000033881454741PD  GOVT OF AP Hyderabad salary    STATE BANK OF INDIA SECRETARIAT    9.14E+14                        KONDURU RAMESH                     RES EDN INST SOC - AP(APREI SOCIET UTIB00025569.14E+14                           URGENT  KONDURU RAMESH           9.14E+14        
R418.00E+14        000000000200000000000000000000000000000033881454741PD  GOVT OF AP Hyderabad salary    STATE BANK OF INDIA SECRETARIAT    8.00E+14                        KATTA YEDUKONDALU                  RES EDN INST SOC - AP(APREI SOCIET UTIB00008008.00E+14                           URGENT  KATTA YEDUKONDALU        8.00E+14        
R415.18E+12        000000000200000000000000000000000000000033881454741PD  GOVT OF AP Hyderabad salary    STATE BANK OF INDIA SECRETARIAT    5.18E+12                        NOORBHASH DILSHAD BEGUM            RES EDN INST SOC - AP(APREI SOCIET BARB0PEDANA5.18E+12                           URGENT  NOORBHASH DILSHAD BEGUM  5.18E+12        
R415.18E+12        000000000200000000000000000000000000000033881454741PD  GOVT OF AP Hyderabad salary    STATE BANK OF INDIA SECRETARIAT    5.18E+12                        ANNAVARAPU CHANDU                  RES EDN INST SOC - AP(APREI SOCIET BARB0PEDANA5.18E+12                           URGENT  ANNAVARAPU CHANDU        5.18E+12        
R415.18E+12        000000000200000000000000000000000000000033881454741PD  GOVT OF AP Hyderabad salary    STATE BANK OF INDIA SECRETARIAT    5.18E+12                        THAMALAPAKULA HEPSIBA              RES EDN INST SOC - AP(APREI SOCIET BARB0PEDANA5.18E+12                           URGENT  THAMALAPAKULA HEPSIBA    5.18E+12        
R414.03E+13        000000000200000000000000000000000000000033881454741PD  GOVT OF AP Hyderabad salary    STATE BANK OF INDIA SECRETARIAT    4.03E+13                        VARIKUTI SRINIVAS RAO              RES EDN INST SOC - AP(APREI SOCIET BARB0REPALL4.03E+13                           URGENT  VARIKUTI SRINIVAS RAO    4.03E+13        
R415.62E+14        000000000200000000000000000000000000000033881454741PD  GOVT OF AP Hyderabad salary    STATE BANK OF INDIA SECRETARIAT    5.62E+14                        DEVARAPU RAMBABU                   RES EDN INST SOC - AP(APREI SOCIET BKID00056165.62E+14                           URGENT  DEVARAPU RAMBABU         5.62E+14        
R415.67E+14        000000000200000000000000000000000000000033881454741PD  GOVT OF AP Hyderabad salary    STATE BANK OF INDIA SECRETARIAT    5.67E+14                        GURRAM PUNNA REDDY                 RES EDN INST SOC - AP(APREI SOCIET BKID00056745.67E+14                           URGENT  GURRAM PUNNA REDDY       5.67E+14        
R415.67E+14        000000000200000000000000000000000000000033881454741PD  GOVT OF AP Hyderabad salary    STATE BANK OF INDIA SECRETARIAT    5.67E+14                        YESUPONGU PRABHAVATHI              RES EDN INST SOC - AP(APREI SOCIET BKID00056745.67E+14                           URGENT  YESUPONGU PRABHAVATHI    5.67E+14        
R418.62E+14        000000000200000000000000000000000000000033881454741PD  GOVT OF AP Hyderabad salary    STATE BANK OF INDIA SECRETARIAT    8.62E+14                        BHUKYA AMARAVANI                   RES EDN INST SOC - AP(APREI SOCIET BKID00086208.62E+14                           URGENT  BHUKYA AMARAVANI         8.62E+14        
R415.67E+13        000000000200000000000000000000000000000033881454741PD  GOVT OF AP Hyderabad salary    STATE BANK OF INDIA SECRETARIAT    5.67E+13                        SHAIK SANOBAR                      RES EDN INST SOC - AP(APREI SOCIET BKID00056715.67E+13                           URGENT  SHAIK SANOBAR            5.67E+13        
R415.68E+14        000000000200000000000000000000000000000033881454741PD  GOVT OF AP Hyderabad salary    STATE BANK OF INDIA SECRETARIAT    5.68E+14                        SYKAM TEJASWINI                    RES EDN INST SOC - AP(APREI SOCIET BKID00056755.68E+14                           URGENT  SYKAM TEJASWINI          5.68E+14        
R418.62E+14        000000000200000000000000000000000000000033881454741PD  GOVT OF AP Hyderabad salary    STATE BANK OF INDIA SECRETARIAT    8.62E+14                        KOLLATI VENKATESWARA RAO           RES EDN INST SOC - AP(APREI SOCIET BKID00086218.62E+14                           URGENT  KOLLATI VENKATESWARA RAO 8.62E+14        
R411.10E+12        000000000200000000000000000000000000000033881454741PD  GOVT OF AP Hyderabad salary    STATE BANK OF INDIA SECRETARIAT    1.10E+12                        VELAMAKANNI SURIBABU               RES EDN INST SOC - AP(APREI SOCIET CNRB00010961.10E+12                           URGENT  VELAMAKANNI SURIBABU     1.10E+12        
R411.31E+12        000000000200000000000000000000000000000033881454741PD  GOVT OF AP Hyderabad salary    STATE BANK OF INDIA SECRETARIAT    1.31E+12                        SHEIK CHINNA HASSANA               RES EDN INST SOC - AP(APREI SOCIET CNRB00013111.31E+12                           URGENT  SHEIK CHINNA HASSANA     1.31E+12        
R411.30E+12        000000000200000000000000000000000000000033881454741PD  GOVT OF AP Hyderabad salary    STATE BANK OF INDIA SECRETARIAT    1.30E+12                        DANTU SATYAPRASAD                  RES EDN INST SOC - AP(APREI SOCIET CNRB00013031.30E+12                           URGENT  DANTU SATYAPRASAD        1.30E+12        
R411.30E+12        000000000200000000000000000000000000000033881454741PD  GOVT OF AP Hyderabad salary    STATE BANK OF INDIA SECRETARIAT    1.30E+12                        SHAIK MAHEBUNNISA                  RES EDN INST SOC - AP(APREI SOCIET CNRB00013041.30E+12                           URGENT  SHAIK MAHEBUNNISA        1.30E+12        
R411.68E+12        000000000200000000000000000000000000000033881454741PD  GOVT OF AP Hyderabad salary    STATE BANK OF INDIA SECRETARIAT    1.68E+12                        SHAIK NOORJAHAN                    RES EDN INST SOC - AP(APREI SOCIET CNRB00016781.68E+12                           URGENT  SHAIK NOORJAHAN          1.68E+12        
R413331959196      000000000200000000000000000000000000000033881454741PD  GOVT OF AP Hyderabad salary    STATE BANK OF INDIA SECRETARIAT    3331959196                      PODILI APPARAO                     RES EDN INST SOC - AP(APREI SOCIET CBIN02844583331959196                         URGENT  PODILI APPARAO           3331959196      
R413438306699      000000000200000000000000000000000000000033881454741PD  GOVT OF AP Hyderabad salary    STATE BANK OF INDIA SECRETARIAT    3438306699                      ILLURI BHARGAVI                    RES EDN INST SOC - AP(APREI SOCIET CBIN02843403438306699                         URGENT  ILLURI BHARGAVI          3438306699      
R411910661153      000000000200000000000000000000000000000033881454741PD  GOVT OF AP Hyderabad salary    STATE BANK OF INDIA SECRETARIAT    1910661153                      YENDRAPATI SUSAN                   RES EDN INST SOC - AP(APREI SOCIET CBIN02808371910661153                         URGENT  YENDRAPATI SUSAN         1910661153      
R412036149388      000000000200000000000000000000000000000033881454741PD  GOVT OF AP Hyderabad salary    STATE BANK OF INDIA SECRETARIAT    2036149388                      TADIKONDA SIVA SRINIVAS RAO        RES EDN INST SOC - AP(APREI SOCIET CBIN02831362036149388                         URGENT  TADIKONDA SIVA SRINIVAS R2036149388      
R413222123576      000000000200000000000000000000000000000033881454741PD  GOVT OF AP Hyderabad salary    STATE BANK OF INDIA SECRETARIAT    3222123576                      THAMANAM NAVEEN                    RES EDN INST SOC - AP(APREI SOCIET CBIN02808383222123576                         URGENT  THAMANAM NAVEEN          3222123576      
R413238122950      000000000200000000000000000000000000000033881454741PD  GOVT OF AP Hyderabad salary    STATE BANK OF INDIA SECRETARIAT    3238122950                      BALIGA LOKESH                      RES EDN INST SOC - AP(APREI SOCIET CBIN02808383238122950                         URGENT  BALIGA LOKESH            3238122950      
R412036192822      000000000200000000000000000000000000000033881454741PD  GOVT OF AP Hyderabad salary    STATE BANK OF INDIA SECRETARIAT    2036192822                      P PRABHAKAR RAO                    RES EDN INST SOC - AP(APREI SOCIET CBIN02831362036192822                         URGENT  P PRABHAKAR RAO          2036192822      
R413222130367      000000000200000000000000000000000000000033881454741PD  GOVT OF AP Hyderabad salary    STATE BANK OF INDIA SECRETARIAT    3222130367                      GUNDALASUBHASH                     RES EDN INST SOC - AP(APREI SOCIET CBIN02808383222130367                         URGENT  GUNDALASUBHASH           3222130367      
R417.04E+14        000000000200000000000000000000000000000033881454741PD  GOVT OF AP Hyderabad salary    STATE BANK OF INDIA SECRETARIAT    7.04E+14                        KUNAMNENI AKHILA                   RES EDN INST SOC - AP(APREI SOCIET AMDB00079997.04E+14                           URGENT  KUNAMNENI AKHILA         7.04E+14        
R417.03E+14        000000000200000000000000000000000000000033881454741PD  GOVT OF AP Hyderabad salary    STATE BANK OF INDIA SECRETARIAT    7.03E+14                        GANGASANI MARY SRIKALA             RES EDN INST SOC - AP(APREI SOCIET AMDB00079997.03E+14                           URGENT  GANGASANI MARY SRIKALA   7.03E+14        
R411.50E+13        000000000200000000000000000000000000000033881454741PD  GOVT OF AP Hyderabad salary    STATE BANK OF INDIA SECRETARIAT    1.50E+13                        CHENDUPULU MAMATHA                 RES EDN INST SOC - AP(APREI SOCIET CORP00001501.50E+13                           URGENT  CHENDUPULU MAMATHA       1.50E+13        
R416281666533      000000000200000000000000000000000000000033881454741PD  GOVT OF AP Hyderabad salary    STATE BANK OF INDIA SECRETARIAT    6281666533                      BANAVATH ABINASH NAYAK             RES EDN INST SOC - AP(APREI SOCIET IDIB000M0786281666533                         URGENT  BANAVATH ABINASH NAYAK   6281666533      
R41585334163       000000000200000000000000000000000000000033881454741PD  GOVT OF AP Hyderabad salary    STATE BANK OF INDIA SECRETARIAT    585334163                       SAIDAIAH JAMMIGUMPULA              RES EDN INST SOC - AP(APREI SOCIET IDIB000M078585334163                          URGENT  SAIDAIAH JAMMIGUMPULA    585334163       
R416235809964      000000000200000000000000000000000000000033881454741PD  GOVT OF AP Hyderabad salary    STATE BANK OF INDIA SECRETARIAT    6235809964                      DASARI SAI KRISHNA                 RES EDN INST SOC - AP(APREI SOCIET IDIB000N0056235809964                         URGENT  DASARI SAI KRISHNA       6235809964      
R41928884292       000000000200000000000000000000000000000033881454741PD  GOVT OF AP Hyderabad salary    STATE BANK OF INDIA SECRETARIAT    928884292                       SHAIK MUBEENA                      RES EDN INST SOC - AP(APREI SOCIET IDBI000T008928884292                          URGENT  SHAIK MUBEENA            928884292       
R41844460582       000000000200000000000000000000000000000033881454741PD  GOVT OF AP Hyderabad salary    STATE BANK OF INDIA SECRETARIAT    844460582                       SHAIK IMRAN                        RES EDN INST SOC - AP(APREI SOCIET IDIB000M121844460582                          URGENT  SHAIK IMRAN              844460582       
R416242180175      000000000200000000000000000000000000000033881454741PD  GOVT OF AP Hyderabad salary    STATE BANK OF INDIA SECRETARIAT    6242180175                      DEVARAKONDA SWATHI                 RES EDN INST SOC - AP(APREI SOCIET IDIB000N0056242180175                         URGENT  DEVARAKONDA SWATHI       6242180175      
R416283396142      000000000200000000000000000000000000000033881454741PD  GOVT OF AP Hyderabad salary    STATE BANK OF INDIA SECRETARIAT    6283396142                      GORREMUTCHU AJAY CLINTON           RES EDN INST SOC - AP(APREI SOCIET IDIB000B1466283396142                         URGENT  GORREMUTCHU AJAY CLINTON 6283396142      
R411.53E+14        000000000200000000000000000000000000000033881454741PD  GOVT OF AP Hyderabad salary    STATE BANK OF INDIA SECRETARIAT    1.53E+14                        BHUKYA RAJESH NAIK                 RES EDN INST SOC - AP(APREI SOCIET IOBA00015311.53E+14                           URGENT  BHUKYA RAJESH NAIK       1.53E+14        
R411.12E+14        000000000200000000000000000000000000000033881454741PD  GOVT OF AP Hyderabad salary    STATE BANK OF INDIA SECRETARIAT    1.12E+14                        NALLAGONDA NEELAKANTESWARARAO      RES EDN INST SOC - AP(APREI SOCIET IOBA00011221.12E+14                           URGENT  NALLAGONDA NEELAKANTESWAR1.12E+14        
R411.15E+14        000000000200000000000000000000000000000033881454741PD  GOVT OF AP Hyderabad salary    STATE BANK OF INDIA SECRETARIAT    1.15E+14                        KANAPARTHI SONIYA                  RES EDN INST SOC - AP(APREI SOCIET IOBA00011491.15E+14                           URGENT  KANAPARTHI SONIYA        1.15E+14        
R4162345158077     000000000200000000000000000000000000000033881454741PD  GOVT OF AP Hyderabad salary    STATE BANK OF INDIA SECRETARIAT    62345158077                     GOLI SESHA SAI                     RES EDN INST SOC - AP(APREI SOCIET SBHY002141062345158077                        URGENT  GOLI SESHA SAI           62345158077     
R4162381433041     000000000200000000000000000000000000000033881454741PD  GOVT OF AP Hyderabad salary    STATE BANK OF INDIA SECRETARIAT    62381433041                     KOTHAPALLI GEETHIKA CHANDRA ELEENA RES EDN INST SOC - AP(APREI SOCIET SBHY002141062381433041                        URGENT  KOTHAPALLI GEETHIKA CHAND62381433041     
R4162369360804     000000000200000000000000000000000000000033881454741PD  GOVT OF AP Hyderabad salary    STATE BANK OF INDIA SECRETARIAT    62369360804                     RAMAVATH NAGENDRANAIK              RES EDN INST SOC - AP(APREI SOCIET SBHY002123362369360804                        URGENT  RAMAVATH NAGENDRANAIK    62369360804     
R4162363890907     000000000200000000000000000000000000000033881454741PD  GOVT OF AP Hyderabad salary    STATE BANK OF INDIA SECRETARIAT    62363890907                     VUDUMULA VENKATA KRISHNA REDDY     RES EDN INST SOC - AP(APREI SOCIET SBHY002123362363890907                        URGENT  VUDUMULA VENKATA KRISHNA 62363890907     
R4162366156734     000000000200000000000000000000000000000033881454741PD  GOVT OF AP Hyderabad salary    STATE BANK OF INDIA SECRETARIAT    62366156734                     GODUGUNURI SRILAKSHMI              RES EDN INST SOC - AP(APREI SOCIET SBHY002123362366156734                        URGENT  GODUGUNURI SRILAKSHMI    62366156734     
R4162369345220     000000000200000000000000000000000000000033881454741PD  GOVT OF AP Hyderabad salary    STATE BANK OF INDIA SECRETARIAT    62369345220                     SHAIK ABDUL KAREEM                 RES EDN INST SOC - AP(APREI SOCIET SBHY002123362369345220                        URGENT  SHAIK ABDUL KAREEM       62369345220     
R4162363783361     000000000200000000000000000000000000000033881454741PD  GOVT OF AP Hyderabad salary    STATE BANK OF INDIA SECRETARIAT    62363783361                     GADE MAHENDER REDDY                RES EDN INST SOC - AP(APREI SOCIET SBHY002123362363783361                        URGENT  GADE MAHENDER REDDY      62363783361     
R4162369834811     000000000200000000000000000000000000000033881454741PD  GOVT OF AP Hyderabad salary    STATE BANK OF INDIA SECRETARIAT    62369834811                     CHILAKA PRAVEENKUMAR               RES EDN INST SOC - AP(APREI SOCIET SBHY002123362369834811                        URGENT  CHILAKA PRAVEENKUMAR     62369834811     
R4162352398178     000000000200000000000000000000000000000033881454741PD  GOVT OF AP Hyderabad salary    STATE BANK OF INDIA SECRETARIAT    62352398178                     SANKARA HANUMAN VALIVETI           RES EDN INST SOC - AP(APREI SOCIET SBHY002185862352398178                        URGENT  SANKARA HANUMAN VALIVETI 62352398178     
R4162365662550     000000000200000000000000000000000000000033881454741PD  GOVT OF AP Hyderabad salary    STATE BANK OF INDIA SECRETARIAT    62365662550                     RATCHA MEGHANA                     RES EDN INST SOC - AP(APREI SOCIET SBHY002123362365662550                        URGENT  RATCHA MEGHANA           62365662550     
R4162369834775     000000000200000000000000000000000000000033881454741PD  GOVT OF AP Hyderabad salary    STATE BANK OF INDIA SECRETARIAT    62369834775                     DUMAVATH VAGYA NAIK                RES EDN INST SOC - AP(APREI SOCIET SBHY002123362369834775                        URGENT  DUMAVATH VAGYA NAIK      62369834775     
R4162369839922     000000000200000000000000000000000000000033881454741PD  GOVT OF AP Hyderabad salary    STATE BANK OF INDIA SECRETARIAT    62369839922                     GURRALA BEULAH                     RES EDN INST SOC - AP(APREI SOCIET SBHY002123362369839922                        URGENT  GURRALA BEULAH           62369839922     
R4162369341666     000000000200000000000000000000000000000033881454741PD  GOVT OF AP Hyderabad salary    STATE BANK OF INDIA SECRETARIAT    62369341666                     SHAIK MABU JANI                    RES EDN INST SOC - AP(APREI SOCIET SBHY002123362369341666                        URGENT  SHAIK MABU JANI          62369341666     
R4162371937266     000000000200000000000000000000000000000033881454741PD  GOVT OF AP Hyderabad salary    STATE BANK OF INDIA SECRETARIAT    62371937266                     RAYINI JEEVANA MADHURYA            RES EDN INST SOC - AP(APREI SOCIET SBHY002081562371937266                        URGENT  RAYINI JEEVANA MADHURYA  62371937266     
R4162369204867     000000000200000000000000000000000000000033881454741PD  GOVT OF AP Hyderabad salary    STATE BANK OF INDIA SECRETARIAT    62369204867                     VADITHE RAMESH KUMAR NAIK          RES EDN INST SOC - AP(APREI SOCIET SBHY002123362369204867                        URGENT  VADITHE RAMESH KUMAR NAIK62369204867     
R4162366048093     000000000200000000000000000000000000000033881454741PD  GOVT OF AP Hyderabad salary    STATE BANK OF INDIA SECRETARIAT    62366048093                     KARPURAPU VANAJA                   RES EDN INST SOC - AP(APREI SOCIET SBHY002123362366048093                        URGENT  KARPURAPU VANAJA         62366048093     
R4162265306297     000000000200000000000000000000000000000033881454741PD  GOVT OF AP Hyderabad salary    STATE BANK OF INDIA SECRETARIAT    62265306297                     ADEPU KEERTHI PRIYA                RES EDN INST SOC - AP(APREI SOCIET SBHY002141062265306297                        URGENT  ADEPU KEERTHI PRIYA      62265306297     
R4162381705459     000000000200000000000000000000000000000033881454741PD  GOVT OF AP Hyderabad salary    STATE BANK OF INDIA SECRETARIAT    62381705459                     THOTA RAJESWARI                    RES EDN INST SOC - AP(APREI SOCIET SBHY002128062381705459                        URGENT  THOTA RAJESWARI          62381705459     
R4162368929170     000000000200000000000000000000000000000033881454741PD  GOVT OF AP Hyderabad salary    STATE BANK OF INDIA SECRETARIAT    62368929170                     VEMAVARAPU KRUPAMANI               RES EDN INST SOC - AP(APREI SOCIET SBHY002123362368929170                        URGENT  VEMAVARAPU KRUPAMANI     62368929170     
R4162369273296     000000000200000000000000000000000000000033881454741PD  GOVT OF AP Hyderabad salary    STATE BANK OF INDIA SECRETARIAT    62369273296                     MEGHAVATH MALLESWARI BAI           RES EDN INST SOC - AP(APREI SOCIET SBHY002123362369273296                        URGENT  MEGHAVATH MALLESWARI BAI 62369273296     
R4162368867418     000000000200000000000000000000000000000033881454741PD  GOVT OF AP Hyderabad salary    STATE BANK OF INDIA SECRETARIAT    62368867418                     DONDAPATI KAMALA                   RES EDN INST SOC - AP(APREI SOCIET SBHY002123362368867418                        URGENT  DONDAPATI KAMALA         62368867418     
R4162354389581     000000000200000000000000000000000000000033881454741PD  GOVT OF AP Hyderabad salary    STATE BANK OF INDIA SECRETARIAT    62354389581                     VAJRALA KAVYA NANDINI              RES EDN INST SOC - AP(APREI SOCIET SBHY002134562354389581                        URGENT  VAJRALA KAVYA NANDINI    62354389581     
R4162369211445     000000000200000000000000000000000000000033881454741PD  GOVT OF AP Hyderabad salary    STATE BANK OF INDIA SECRETARIAT    62369211445                     GOSI ANITHA                        RES EDN INST SOC - AP(APREI SOCIET SBHY002123362369211445                        URGENT  GOSI ANITHA              62369211445     
R4162280406746     000000000200000000000000000000000000000033881454741PD  GOVT OF AP Hyderabad salary    STATE BANK OF INDIA SECRETARIAT    62280406746                     K VENKATA REDDY                    RES EDN INST SOC - AP(APREI SOCIET SBHY002048762280406746                        URGENT  K VENKATA REDDY          62280406746     
R4162368736359     000000000200000000000000000000000000000033881454741PD  GOVT OF AP Hyderabad salary    STATE BANK OF INDIA SECRETARIAT    62368736359                     MANDEPUDI SURYA MOHAN              RES EDN INST SOC - AP(APREI SOCIET SBHY002123362368736359                        URGENT  MANDEPUDI SURYA MOHAN    62368736359     
R4162369344180     000000000200000000000000000000000000000033881454741PD  GOVT OF AP Hyderabad salary    STATE BANK OF INDIA SECRETARIAT    62369344180                     RAMAVATH BALAJINAIK                RES EDN INST SOC - AP(APREI SOCIET SBHY002123362369344180                        URGENT  RAMAVATH BALAJINAIK      62369344180     
R4162169838121     000000000200000000000000000000000000000033881454741PD  GOVT OF AP Hyderabad salary    STATE BANK OF INDIA SECRETARIAT    62169838121                     B NARAYANA                         RES EDN INST SOC - AP(APREI SOCIET SBHY002126762169838121                        URGENT  B NARAYANA               62169838121     
R4162343692444     000000000200000000000000000000000000000033881454741PD  GOVT OF AP Hyderabad salary    STATE BANK OF INDIA SECRETARIAT    62343692444                     CHENCHU SUNITHA                    RES EDN INST SOC - AP(APREI SOCIET SBHY002038962343692444                        URGENT  CHENCHU SUNITHA          62343692444     
R4162366046903     000000000200000000000000000000000000000033881454741PD  GOVT OF AP Hyderabad salary    STATE BANK OF INDIA SECRETARIAT    62366046903                     TUNGALA SRAVANI                    RES EDN INST SOC - AP(APREI SOCIET SBHY002123362366046903                        URGENT  TUNGALA SRAVANI          62366046903     
R4162365663042     000000000200000000000000000000000000000033881454741PD  GOVT OF AP Hyderabad salary    STATE BANK OF INDIA SECRETARIAT    62365663042                     YEDDU MOUNIKA LAKSHMI              RES EDN INST SOC - AP(APREI SOCIET SBHY002123362365663042                        URGENT  YEDDU MOUNIKA LAKSHMI    62365663042     
R4162362729393     000000000200000000000000000000000000000033881454741PD  GOVT OF AP Hyderabad salary    STATE BANK OF INDIA SECRETARIAT    62362729393                     SOMARAJU CHANDRAKALA               RES EDN INST SOC - AP(APREI SOCIET SBHY002123362362729393                        URGENT  SOMARAJU CHANDRAKALA     62362729393     
R4162382535790     000000000200000000000000000000000000000033881454741PD  GOVT OF AP Hyderabad salary    STATE BANK OF INDIA SECRETARIAT    62382535790                     BHUPATHI SWATHI                    RES EDN INST SOC - AP(APREI SOCIET SBHY002179362382535790                        URGENT  BHUPATHI SWATHI          62382535790     
R4162372964674     000000000200000000000000000000000000000033881454741PD  GOVT OF AP Hyderabad salary    STATE BANK OF INDIA SECRETARIAT    62372964674                     CHINTABATTINI SANTHI PRIYA         RES EDN INST SOC - AP(APREI SOCIET SBHY002179362372964674                        URGENT  CHINTABATTINI SANTHI PRIY62372964674     
R4162376544996     000000000200000000000000000000000000000033881454741PD  GOVT OF AP Hyderabad salary    STATE BANK OF INDIA SECRETARIAT    62376544996                     RAMAVATHU HANUMA NAIK              RES EDN INST SOC - AP(APREI SOCIET SBHY002062162376544996                        URGENT  RAMAVATHU HANUMA NAIK    62376544996     
R4162365378306     000000000200000000000000000000000000000033881454741PD  GOVT OF AP Hyderabad salary    STATE BANK OF INDIA SECRETARIAT    62365378306                     EMMADI GOPI                        RES EDN INST SOC - AP(APREI SOCIET SBHY002123362365378306                        URGENT  EMMADI GOPI              62365378306     
R4162382587115     000000000200000000000000000000000000000033881454741PD  GOVT OF AP Hyderabad salary    STATE BANK OF INDIA SECRETARIAT    62382587115                     VIPPARLA KALYAN                    RES EDN INST SOC - AP(APREI SOCIET SBHY002128062382587115                        URGENT  VIPPARLA KALYAN          62382587115     
R4152101059238     000000000200000000000000000000000000000033881454741PD  GOVT OF AP Hyderabad salary    STATE BANK OF INDIA SECRETARIAT    52101059238                     ANUMALASETTY SRINIVAS RAO          RES EDN INST SOC - AP(APREI SOCIET SBHY002081052101059238                        URGENT  ANUMALASETTY SRINIVAS RAO52101059238     
R4162319493562     000000000200000000000000000000000000000033881454741PD  GOVT OF AP Hyderabad salary    STATE BANK OF INDIA SECRETARIAT    62319493562                     NARAGARLA UMA SANKAR               RES EDN INST SOC - AP(APREI SOCIET SBHY002048762319493562                        URGENT  NARAGARLA UMA SANKAR     62319493562     
R4162225981463     000000000200000000000000000000000000000033881454741PD  GOVT OF AP Hyderabad salary    STATE BANK OF INDIA SECRETARIAT    62225981463                     ALLATIPALLI BHARATHI               RES EDN INST SOC - AP(APREI SOCIET SBHY002048762225981463                        URGENT  ALLATIPALLI BHARATHI     62225981463     
R4162367884242     000000000200000000000000000000000000000033881454741PD  GOVT OF AP Hyderabad salary    STATE BANK OF INDIA SECRETARIAT    62367884242                     ALLURI HARISH BABU                 RES EDN INST SOC - AP(APREI SOCIET SBHY002128062367884242                        URGENT  ALLURI HARISH BABU       62367884242     
R4162380545405     000000000200000000000000000000000000000033881454741PD  GOVT OF AP Hyderabad salary    STATE BANK OF INDIA SECRETARIAT    62380545405                     GUMMALLA VIDIYA                    RES EDN INST SOC - AP(APREI SOCIET SBHY002128062380545405                        URGENT  GUMMALLA VIDIYA          62380545405     
R4162328901311     000000000200000000000000000000000000000033881454741PD  GOVT OF AP Hyderabad salary    STATE BANK OF INDIA SECRETARIAT    62328901311                     GUNTUPALLI SIVA SANKAR             RES EDN INST SOC - AP(APREI SOCIET SBHY002057962328901311                        URGENT  GUNTUPALLI SIVA SANKAR   62328901311     
R4162396465974     000000000200000000000000000000000000000033881454741PD  GOVT OF AP Hyderabad salary    STATE BANK OF INDIA SECRETARIAT    62396465974                     KONAKANCHI KEERTHISRI              RES EDN INST SOC - AP(APREI SOCIET SBHY002057962396465974                        URGENT  KONAKANCHI KEERTHISRI    62396465974     
R4162366599313     000000000200000000000000000000000000000033881454741PD  GOVT OF AP Hyderabad salary    STATE BANK OF INDIA SECRETARIAT    62366599313                     VELLALACHERUVU VENKATA SIVA SAI ANIL KUMARRES EDN INST SOC - AP(APREI SOCIET SBHY002123362366599313                        URGENT  VELLALACHERUVU VENKATA SI62366599313     
R4162041915431     000000000200000000000000000000000000000033881454741PD  GOVT OF AP Hyderabad salary    STATE BANK OF INDIA SECRETARIAT    62041915431                     BOJJA SESHAGIRI                    RES EDN INST SOC - AP(APREI SOCIET SBHY002057962041915431                        URGENT  BOJJA SESHAGIRI          62041915431     
R4162044122824     000000000200000000000000000000000000000033881454741PD  GOVT OF AP Hyderabad salary    STATE BANK OF INDIA SECRETARIAT    62044122824                     SIVA PARVATHI MOGILI               RES EDN INST SOC - AP(APREI SOCIET SBHY002057962044122824                        URGENT  SIVA PARVATHI MOGILI     62044122824     
R4162369340550     000000000200000000000000000000000000000033881454741PD  GOVT OF AP Hyderabad salary    STATE BANK OF INDIA SECRETARIAT    62369340550                     POORIMETLA IBABU                   RES EDN INST SOC - AP(APREI SOCIET SBHY002123362369340550                        URGENT  POORIMETLA IBABU         62369340550     
R4162382719631     000000000200000000000000000000000000000033881454741PD  GOVT OF AP Hyderabad salary    STATE BANK OF INDIA SECRETARIAT    62382719631                     TUNGA SUNEETA                      RES EDN INST SOC - AP(APREI SOCIET SBHY002126362382719631                        URGENT  TUNGA SUNEETA            62382719631     
R4162382962052     000000000200000000000000000000000000000033881454741PD  GOVT OF AP Hyderabad salary    STATE BANK OF INDIA SECRETARIAT    62382962052                     CHINNAPOTHULA SRI VYSHNAVI         RES EDN INST SOC - AP(APREI SOCIET SBHY002128062382962052                        URGENT  CHINNAPOTHULA SRI VYSHNAV62382962052     
R4162381683161     000000000200000000000000000000000000000033881454741PD  GOVT OF AP Hyderabad salary    STATE BANK OF INDIA SECRETARIAT    62381683161                     YENDRAPATI KISHORE BABU            RES EDN INST SOC - AP(APREI SOCIET SBHY002079262381683161                        URGENT  YENDRAPATI KISHORE BABU  62381683161     
R4162363122345     000000000200000000000000000000000000000033881454741PD  GOVT OF AP Hyderabad salary    STATE BANK OF INDIA SECRETARIAT    62363122345                     KROTHAPALLI SREELASYA              RES EDN INST SOC - AP(APREI SOCIET SBHY002123362363122345                        URGENT  KROTHAPALLI SREELASYA    62363122345     
R4162363892304     000000000200000000000000000000000000000033881454741PD  GOVT OF AP Hyderabad salary    STATE BANK OF INDIA SECRETARIAT    62363892304                     SHAIK SAMEER AHMAD                 RES EDN INST SOC - AP(APREI SOCIET SBHY002123362363892304                        URGENT  SHAIK SAMEER AHMAD       62363892304     
R4162369204528     000000000200000000000000000000000000000033881454741PD  GOVT OF AP Hyderabad salary    STATE BANK OF INDIA SECRETARIAT    62369204528                     KETHAVATH KUMAR NAIK               RES EDN INST SOC - AP(APREI SOCIET SBHY002123362369204528                        URGENT  KETHAVATH KUMAR NAIK     62369204528     
R4167293064370     000000000200000000000000000000000000000033881454741PD  GOVT OF AP Hyderabad salary    STATE BANK OF INDIA SECRETARIAT    67293064370                     JARUGUMALLA SRAVANI                RES EDN INST SOC - AP(APREI SOCIET SBTR000012067293064370                        URGENT  JARUGUMALLA SRAVANI      67293064370     
R413.37E+13        000000000200000000000000000000000000000033881454741PD  GOVT OF AP Hyderabad salary    STATE BANK OF INDIA SECRETARIAT    3.37E+13                        PVN DEEKSHITULU                    RES EDN INST SOC - AP(APREI SOCIET SYNB00033653.37E+13                           URGENT  PVN DEEKSHITULU          3.37E+13        
R412.54E+13        000000000200000000000000000000000000000033881454741PD  GOVT OF AP Hyderabad salary    STATE BANK OF INDIA SECRETARIAT    2.54E+13                        DODDIPATI KONDALU                  RES EDN INST SOC - AP(APREI SOCIET UCBA00025412.54E+13                           URGENT  DODDIPATI KONDALU        2.54E+13        
R413.31E+14        000000000200000000000000000000000000000033881454741PD  GOVT OF AP Hyderabad salary    STATE BANK OF INDIA SECRETARIAT    3.31E+14                        KAMMA SARADA DEVI                  RES EDN INST SOC - AP(APREI SOCIET UBIN05330503.31E+14                           URGENT  KAMMA SARADA DEVI        3.31E+14        
R413.53E+14        000000000200000000000000000000000000000033881454741PD  GOVT OF AP Hyderabad salary    STATE BANK OF INDIA SECRETARIAT    3.53E+14                        MOHAMMAD KOUSAR BEGUM              RES EDN INST SOC - AP(APREI SOCIET UBIN05353033.53E+14                           URGENT  MOHAMMAD KOUSAR BEGUM    3.53E+14        
R413.53E+14        000000000200000000000000000000000000000033881454741PD  GOVT OF AP Hyderabad salary    STATE BANK OF INDIA SECRETARIAT    3.53E+14                        DIDLA SURENDRA REDDY               RES EDN INST SOC - AP(APREI SOCIET UBIN05353033.53E+14                           URGENT  DIDLA SURENDRA REDDY     3.53E+14        
R417.40E+13        000000000200000000000000000000000000000033881454741PD  GOVT OF AP Hyderabad salary    STATE BANK OF INDIA SECRETARIAT    7.40E+13                        KANDAGADLA VENKATA SUSMITHA        RES EDN INST SOC - AP(APREI SOCIET UBIN05740157.40E+13                           URGENT  KANDAGADLA VENKATA SUSMIT7.40E+13        
R414.01E+14        000000000200000000000000000000000000000033881454741PD  GOVT OF AP Hyderabad salary    STATE BANK OF INDIA SECRETARIAT    4.01E+14                        SHAIK FARUK AHAMAD                 RES EDN INST SOC - AP(APREI SOCIET VIJB00040114.01E+14                           URGENT  SHAIK FARUK AHAMAD       4.01E+14        
R414.06E+14        000000000200000000000000000000000000000033881454741PD  GOVT OF AP Hyderabad salary    STATE BANK OF INDIA SECRETARIAT    4.06E+14                        RANTHU MADHAVI                     RES EDN INST SOC - AP(APREI SOCIET VIJB00040554.06E+14                           URGENT  RANTHU MADHAVI           4.06E+14        
R4150215073360     000000000200000000000000000000000000000033881454741PD  GOVT OF AP Hyderabad salary    STATE BANK OF INDIA SECRETARIAT    50215073360                     CHOPPARA JAYASREE                  RES EDN INST SOC - AP(APREI SOCIET ALLA021223150215073360                        URGENT  CHOPPARA JAYASREE        50215073360     
R412.57E+13        000000000200000000000000000000000000000033881454741PD  GOVT OF AP Hyderabad salary    STATE BANK OF INDIA SECRETARIAT    2.57E+13                        PACHIPALA SRINIVAS RAO             RES EDN INST SOC - AP(APREI SOCIET ANDB00002572.57E+13                           URGENT  PACHIPALA SRINIVAS RAO   2.57E+13        
R412.57E+13        000000000200000000000000000000000000000033881454741PD  GOVT OF AP Hyderabad salary    STATE BANK OF INDIA SECRETARIAT    2.57E+13                        DARLA ABRAHAM                      RES EDN INST SOC - AP(APREI SOCIET ANDB00002572.57E+13                           URGENT  DARLA ABRAHAM            2.57E+13        
R412.30E+14        000000000200000000000000000000000000000033881454741PD  GOVT OF AP Hyderabad salary    STATE BANK OF INDIA SECRETARIAT    2.30E+14                        MOCHARLA TRIVENI                   RES EDN INST SOC - AP(APREI SOCIET ANDB00022972.30E+14                           URGENT  MOCHARLA TRIVENI         2.30E+14        
R411.38E+14        000000000200000000000000000000000000000033881454741PD  GOVT OF AP Hyderabad salary    STATE BANK OF INDIA SECRETARIAT    1.38E+14                        VELLANKI RAMA RAO                  RES EDN INST SOC - AP(APREI SOCIET ANDB00013751.38E+14                           URGENT  VELLANKI RAMA RAO        1.38E+14        
R413.94E+13        000000000200000000000000000000000000000033881454741PD  GOVT OF AP Hyderabad salary    STATE BANK OF INDIA SECRETARIAT    3.94E+13                        SHAIK NURULLA HUSSAIN              RES EDN INST SOC - AP(APREI SOCIET ANDB00003943.94E+13                           URGENT  SHAIK NURULLA HUSSAIN    3.94E+13        
R413.94E+13        000000000200000000000000000000000000000033881454741PD  GOVT OF AP Hyderabad salary    STATE BANK OF INDIA SECRETARIAT    3.94E+13                        CHIRUMAMILLA RAMYA                 RES EDN INST SOC - AP(APREI SOCIET ANDB00003943.94E+13                           URGENT  CHIRUMAMILLA RAMYA       3.94E+13        
R413.94E+13        000000000200000000000000000000000000000033881454741PD  GOVT OF AP Hyderabad salary    STATE BANK OF INDIA SECRETARIAT    3.94E+13                        LAKKISETTI SRINIVAS RAO            RES EDN INST SOC - AP(APREI SOCIET ANDB00003943.94E+13                           URGENT  LAKKISETTI SRINIVAS RAO  3.94E+13        
R411.63E+14        000000000200000000000000000000000000000033881454741PD  GOVT OF AP Hyderabad salary    STATE BANK OF INDIA SECRETARIAT    1.63E+14                        JAVVADI SIVA RAMA KRISHNA          RES EDN INST SOC - AP(APREI SOCIET ANDB00016261.63E+14                           URGENT  JAVVADI SIVA RAMA KRISHNA1.63E+14        
R411.90E+14        000000000200000000000000000000000000000033881454741PD  GOVT OF AP Hyderabad salary    STATE BANK OF INDIA SECRETARIAT    1.90E+14                        CHIRRA KRISHNA TEJA SRI            RES EDN INST SOC - AP(APREI SOCIET ANDB00018981.90E+14                           URGENT  CHIRRA KRISHNA TEJA SRI  1.90E+14        
R411.56E+13        000000000200000000000000000000000000000033881454741PD  GOVT OF AP Hyderabad salary    STATE BANK OF INDIA SECRETARIAT    1.56E+13                        KAJA LAKSHMI SRIKANTH              RES EDN INST SOC - AP(APREI SOCIET ANDB00015621.56E+13                           URGENT  KAJA LAKSHMI SRIKANTH    1.56E+13        
R411.56E+14        000000000200000000000000000000000000000033881454741PD  GOVT OF AP Hyderabad salary    STATE BANK OF INDIA SECRETARIAT    1.56E+14                        BHUKYA HARITHA                     RES EDN INST SOC - AP(APREI SOCIET ANDB00015621.56E+14                           URGENT  BHUKYA HARITHA           1.56E+14        
R411.90E+14        000000000200000000000000000000000000000033881454741PD  GOVT OF AP Hyderabad salary    STATE BANK OF INDIA SECRETARIAT    1.90E+14                        BADUGU SRINIVASA RAO               RES EDN INST SOC - AP(APREI SOCIET ANDB00018981.90E+14                           URGENT  BADUGU SRINIVASA RAO     1.90E+14        
R411.90E+14        000000000200000000000000000000000000000033881454741PD  GOVT OF AP Hyderabad salary    STATE BANK OF INDIA SECRETARIAT    1.90E+14                        DIVI JAGANMOHAN DURGA PRASAD RAO   RES EDN INST SOC - AP(APREI SOCIET ANDB00018981.90E+14                           URGENT  DIVI JAGANMOHAN DURGA PRA1.90E+14        
R412.12E+14        000000000200000000000000000000000000000033881454741PD  GOVT OF AP Hyderabad salary    STATE BANK OF INDIA SECRETARIAT    2.12E+14                        ANUMOLU VENKATA KRISHNA RAO        RES EDN INST SOC - AP(APREI SOCIET ANDB00021232.12E+14                           URGENT  ANUMOLU VENKATA KRISHNA R2.12E+14        
R411.38E+14        000000000200000000000000000000000000000033881454741PD  GOVT OF AP Hyderabad salary    STATE BANK OF INDIA SECRETARIAT    1.38E+14                        REMALLI ALIVELUMONGA               RES EDN INST SOC - AP(APREI SOCIET ANDB00013801.38E+14                           URGENT  REMALLI ALIVELUMONGA     1.38E+14        
R4199757680        000000000200000000000000000000000000000033881454741PD  GOVT OF AP Hyderabad salary    STATE BANK OF INDIA SECRETARIAT    99757680                        PALTHYA RAMA DASU                  RES EDN INST SOC - AP(APREI SOCIET IDIB0SGB00199757680                           URGENT  PALTHYA RAMA DASU        99757680        
R411.26E+13        000000000200000000000000000000000000000033881454741PD  GOVT OF AP Hyderabad salary    STATE BANK OF INDIA SECRETARIAT    1.26E+13                        VANKAYALAPATI DINESH VARMA         RES EDN INST SOC - AP(APREI SOCIET ANDB00001261.26E+13                           URGENT  VANKAYALAPATI DINESH VARM1.26E+13        
R414.24E+13        000000000200000000000000000000000000000033881454741PD  GOVT OF AP Hyderabad salary    STATE BANK OF INDIA SECRETARIAT    4.24E+13                        KOTTEVENKATASWARA RAO              RES EDN INST SOC - AP(APREI SOCIET ANDB00004244.24E+13                           URGENT  KOTTEVENKATASWARA RAO    4.24E+13        
R411.34E+13        000000000200000000000000000000000000000033881454741PD  GOVT OF AP Hyderabad salary    STATE BANK OF INDIA SECRETARIAT    1.34E+13                        KUMBHA DIVYA RUPA                  RES EDN INST SOC - AP(APREI SOCIET ANDB00001341.34E+13                           URGENT  KUMBHA DIVYA RUPA        1.34E+13        
R411.44E+13        000000000200000000000000000000000000000033881454741PD  GOVT OF AP Hyderabad salary    STATE BANK OF INDIA SECRETARIAT    1.44E+13                        CHIMATA DELLISREE                  RES EDN INST SOC - AP(APREI SOCIET ANDB00014441.44E+13                           URGENT  CHIMATA DELLISREE        1.44E+13        
R413.10E+11        000000000200000000000000000000000000000033881454741PD  GOVT OF AP Hyderabad salary    STATE BANK OF INDIA SECRETARIAT    3.10E+11                        NALAJALA ANJESWARA RAO             RES EDN INST SOC - AP(APREI SOCIET ANDB00000033.10E+11                           URGENT  NALAJALA ANJESWARA RAO   3.10E+11        
R412.57E+13        000000000200000000000000000000000000000033881454741PD  GOVT OF AP Hyderabad salary    STATE BANK OF INDIA SECRETARIAT    2.57E+13                        MALAVATHU NAGAMANI                 RES EDN INST SOC - AP(APREI SOCIET ANDB00002572.57E+13                           URGENT  MALAVATHU NAGAMANI       2.57E+13        
R413.88E+13        000000000200000000000000000000000000000033881454741PD  GOVT OF AP Hyderabad salary    STATE BANK OF INDIA SECRETARIAT    3.88E+13                        SRIPATHI GOWRISANKAR RAO           RES EDN INST SOC - AP(APREI SOCIET ANDB00003883.88E+13                           URGENT  SRIPATHI GOWRISANKAR RAO 3.88E+13        
R4110100043710     000000000200000000000000000000000000000033881454741PD  GOVT OF AP Hyderabad salary    STATE BANK OF INDIA SECRETARIAT    10100043710                     MOHAMMAD GULSHAD BEGUM             RES EDN INST SOC - AP(APREI SOCIET ANDB000062510100043710                        URGENT  MOHAMMAD GULSHAD BEGUM   10100043710     
R412.00E+13        000000000200000000000000000000000000000033881454741PD  GOVT OF AP Hyderabad salary    STATE BANK OF INDIA SECRETARIAT    2.00E+13                        MAJJI JAGADEESH                    RES EDN INST SOC - AP(APREI SOCIET ANDB00002002.00E+13                           URGENT  MAJJI JAGADEESH          2.00E+13        
R411.54E+13        000000000200000000000000000000000000000033881454741PD  GOVT OF AP Hyderabad salary    STATE BANK OF INDIA SECRETARIAT    1.54E+13                        KOTA VIJAY KUMAR                   RES EDN INST SOC - AP(APREI SOCIET ANDB00001541.54E+13                           URGENT  KOTA VIJAY KUMAR         1.54E+13        
R416.00E+13        000000000200000000000000000000000000000033881454741PD  GOVT OF AP Hyderabad salary    STATE BANK OF INDIA SECRETARIAT    6.00E+13                        DEEVARAKONDA PRABHAKAR             RES EDN INST SOC - AP(APREI SOCIET ANDB00006006.00E+13                           URGENT  DEEVARAKONDA PRABHAKAR   6.00E+13        
R415.92E+13        000000000200000000000000000000000000000033881454741PD  GOVT OF AP Hyderabad salary    STATE BANK OF INDIA SECRETARIAT    5.92E+13                        GOGA SRIVALLI                      RES EDN INST SOC - AP(APREI SOCIET ANDB00005925.92E+13                           URGENT  GOGA SRIVALLI            5.92E+13        
R416.00E+13        000000000200000000000000000000000000000033881454741PD  GOVT OF AP Hyderabad salary    STATE BANK OF INDIA SECRETARIAT    6.00E+13                        BOBBA SAMBASIVA RAO                RES EDN INST SOC - AP(APREI SOCIET ANDB00006006.00E+13                           URGENT  BOBBA SAMBASIVA RAO      6.00E+13        
R416.44E+13        000000000200000000000000000000000000000033881454741PD  GOVT OF AP Hyderabad salary    STATE BANK OF INDIA SECRETARIAT    6.44E+13                        GORIPARTHI RAJA RAJESWARI          RES EDN INST SOC - AP(APREI SOCIET ANDB00006446.44E+13                           URGENT  GORIPARTHI RAJA RAJESWARI6.44E+13        
R415.25E+13        000000000200000000000000000000000000000033881454741PD  GOVT OF AP Hyderabad salary    STATE BANK OF INDIA SECRETARIAT    5.25E+13                        SRIKAKULAM LALITHA                 RES EDN INST SOC - AP(APREI SOCIET ANDB00005255.25E+13                           URGENT  SRIKAKULAM LALITHA       5.25E+13        
R416.44E+13        000000000200000000000000000000000000000033881454741PD  GOVT OF AP Hyderabad salary    STATE BANK OF INDIA SECRETARIAT    6.44E+13                        EDE VASAVI                         RES EDN INST SOC - AP(APREI SOCIET ANDB00006446.44E+13                           URGENT  EDE VASAVI               6.44E+13        
R413.76E+13        000000000200000000000000000000000000000033881454741PD  GOVT OF AP Hyderabad salary    STATE BANK OF INDIA SECRETARIAT    3.76E+13                        TUNGALA VENKATESWARA RAO           RES EDN INST SOC - AP(APREI SOCIET ANDB00003763.76E+13                           URGENT  TUNGALA VENKATESWARA RAO 3.76E+13        
R411.40E+14        000000000200000000000000000000000000000033881454741PD  GOVT OF AP Hyderabad salary    STATE BANK OF INDIA SECRETARIAT    1.40E+14                        KODURU RADHA KRISHNA               RES EDN INST SOC - AP(APREI SOCIET ANDB00013951.40E+14                           URGENT  KODURU RADHA KRISHNA     1.40E+14        
R411.40E+14        000000000200000000000000000000000000000033881454741PD  GOVT OF AP Hyderabad salary    STATE BANK OF INDIA SECRETARIAT    1.40E+14                        NANDYALA SATYANARAYANA             RES EDN INST SOC - AP(APREI SOCIET ANDB00013951.40E+14                           URGENT  NANDYALA SATYANARAYANA   1.40E+14        
R414.27E+13        000000000200000000000000000000000000000033881454741PD  GOVT OF AP Hyderabad salary    STATE BANK OF INDIA SECRETARIAT    4.27E+13                        VEMANA ANUSHA                      RES EDN INST SOC - AP(APREI SOCIET ANDB00004274.27E+13                           URGENT  VEMANA ANUSHA            4.27E+13        
R415.92E+13        000000000200000000000000000000000000000033881454741PD  GOVT OF AP Hyderabad salary    STATE BANK OF INDIA SECRETARIAT    5.92E+13                        AMBATI NAGAMURALI                  RES EDN INST SOC - AP(APREI SOCIET ANDB00005925.92E+13                           URGENT  AMBATI NAGAMURALI        5.92E+13        
R416.61E+12        000000000200000000000000000000000000000033881454741PD  GOVT OF AP Hyderabad salary    STATE BANK OF INDIA SECRETARIAT    6.61E+12                        EDE MADHAVI LATHA                  RES EDN INST SOC - AP(APREI SOCIET ANDB00000666.61E+12                           URGENT  EDE MADHAVI LATHA        6.61E+12        
R416.61E+12        000000000200000000000000000000000000000033881454741PD  GOVT OF AP Hyderabad salary    STATE BANK OF INDIA SECRETARIAT    6.61E+12                        KUMBHA SRILAKSHMI                  RES EDN INST SOC - AP(APREI SOCIET ANDB00000666.61E+12                           URGENT  KUMBHA SRILAKSHMI        6.61E+12        
R411.46E+13        000000000200000000000000000000000000000033881454741PD  GOVT OF AP Hyderabad salary    STATE BANK OF INDIA SECRETARIAT    1.46E+13                        ABDUL SHAHIN SULTHANA              RES EDN INST SOC - AP(APREI SOCIET ANDB00001461.46E+13                           URGENT  ABDUL SHAHIN SULTHANA    1.46E+13        
R411.46E+13        000000000200000000000000000000000000000033881454741PD  GOVT OF AP Hyderabad salary    STATE BANK OF INDIA SECRETARIAT    1.46E+13                        NAKKA PRADEEP                      RES EDN INST SOC - AP(APREI SOCIET  ANDB0001461.46E+13                           URGENT  NAKKA PRADEEP            1.46E+13        
R412.57E+13        000000000200000000000000000000000000000033881454741PD  GOVT OF AP Hyderabad salary    STATE BANK OF INDIA SECRETARIAT    2.57E+13                        PALURI VENKATA NARASIMHA SAI RAM   RES EDN INST SOC - AP(APREI SOCIET ANDB00002572.57E+13                           URGENT  PALURI VENKATA NARASIMHA 2.57E+13        
R415.92E+13        000000000200000000000000000000000000000033881454741PD  GOVT OF AP Hyderabad salary    STATE BANK OF INDIA SECRETARIAT    5.92E+13                        THERA KEERTHANA                    RES EDN INST SOC - AP(APREI SOCIET ANDB00005925.92E+13                           URGENT  THERA KEERTHANA          5.92E+13        
R413.19E+13        000000000200000000000000000000000000000033881454741PD  GOVT OF AP Hyderabad salary    STATE BANK OF INDIA SECRETARIAT    3.19E+13                        KURADA KANAKA MAHA LAKSHMI         RES EDN INST SOC - AP(APREI SOCIET ANDB00003193.19E+13                           URGENT  KURADA KANAKA MAHA LAKSHM3.19E+13        
R413.19E+13        000000000200000000000000000000000000000033881454741PD  GOVT OF AP Hyderabad salary    STATE BANK OF INDIA SECRETARIAT    3.19E+13                        SHAIK RESHMA                       RES EDN INST SOC - AP(APREI SOCIET ANDB00003193.19E+13                           URGENT  SHAIK RESHMA             3.19E+13        
R413.31E+13        000000000200000000000000000000000000000033881454741PD  GOVT OF AP Hyderabad salary    STATE BANK OF INDIA SECRETARIAT    3.31E+13                        KODALI VYNITHA                     RES EDN INST SOC - AP(APREI SOCIET ANDB00003313.31E+13                           URGENT  KODALI VYNITHA           3.31E+13        
R411.79E+13        000000000200000000000000000000000000000033881454741PD  GOVT OF AP Hyderabad salary    STATE BANK OF INDIA SECRETARIAT    1.79E+13                        PALAKURTHI JYOTHI                  RES EDN INST SOC - AP(APREI SOCIET ANDB00001791.79E+13                           URGENT  PALAKURTHI JYOTHI        1.79E+13        
R416.19E+13        000000000200000000000000000000000000000033881454741PD  GOVT OF AP Hyderabad salary    STATE BANK OF INDIA SECRETARIAT    6.19E+13                        MUKKAMALA MOUNIKA                  RES EDN INST SOC - AP(APREI SOCIET APBL00060196.19E+13                           URGENT  MUKKAMALA MOUNIKA        6.19E+13        
R414.52E+13        000000000200000000000000000000000000000033881454741PD  GOVT OF AP Hyderabad salary    STATE BANK OF INDIA SECRETARIAT    4.52E+13                        K N V S SUJATHA                    RES EDN INST SOC - AP(APREI SOCIET BARB0NUZVID4.52E+13                           URGENT  K N V S SUJATHA          4.52E+13        
R418.62E+14        000000000200000000000000000000000000000033881454741PD  GOVT OF AP Hyderabad salary    STATE BANK OF INDIA SECRETARIAT    8.62E+14                        MADDI JYOTHSNA PRIYA               RES EDN INST SOC - AP(APREI SOCIET BKID00086208.62E+14                           URGENT  MADDI JYOTHSNA PRIYA     8.62E+14        
R415.64E+14        000000000200000000000000000000000000000033881454741PD  GOVT OF AP Hyderabad salary    STATE BANK OF INDIA SECRETARIAT    5.64E+14                        NANUPATRUNI HEMA                   RES EDN INST SOC - AP(APREI SOCIET BKID00056375.64E+14                           URGENT  NANUPATRUNI HEMA         5.64E+14        
R415.64E+14        000000000200000000000000000000000000000033881454741PD  GOVT OF AP Hyderabad salary    STATE BANK OF INDIA SECRETARIAT    5.64E+14                        GEDDAM NAGA SAIPRAVALLIKA          RES EDN INST SOC - AP(APREI SOCIET BKID00056385.64E+14                           URGENT  GEDDAM NAGA SAIPRAVALLIKA5.64E+14        
R415.64E+14        000000000200000000000000000000000000000033881454741PD  GOVT OF AP Hyderabad salary    STATE BANK OF INDIA SECRETARIAT    5.64E+14                        MORU KUSUMA KUMARI                 RES EDN INST SOC - AP(APREI SOCIET BKID00056385.64E+14                           URGENT  MORU KUSUMA KUMARI       5.64E+14        
R415.64E+14        000000000200000000000000000000000000000033881454741PD  GOVT OF AP Hyderabad salary    STATE BANK OF INDIA SECRETARIAT    5.64E+14                        BODAVULA NAGA DURGA BALAJI         RES EDN INST SOC - AP(APREI SOCIET BKID00056385.64E+14                           URGENT  BODAVULA NAGA DURGA BALAJ5.64E+14        
R415.69E+14        000000000200000000000000000000000000000033881454741PD  GOVT OF AP Hyderabad salary    STATE BANK OF INDIA SECRETARIAT    5.69E+14                        CHALAM CHALAM DURGABHAVANI         RES EDN INST SOC - AP(APREI SOCIET BKID00056945.69E+14                           URGENT  CHALAM CHALAM DURGABHAVAN5.69E+14        
R413.97E+12        000000000200000000000000000000000000000033881454741PD  GOVT OF AP Hyderabad salary    STATE BANK OF INDIA SECRETARIAT    3.97E+12                        BUDHAVARAPU V S R K PRASAD         RES EDN INST SOC - AP(APREI SOCIET CNRB00039733.97E+12                           URGENT  BUDHAVARAPU V S R K PRASA3.97E+12        
R413.97E+12        000000000200000000000000000000000000000033881454741PD  GOVT OF AP Hyderabad salary    STATE BANK OF INDIA SECRETARIAT    3.97E+12                        ISLAVATHU SITA                     RES EDN INST SOC - AP(APREI SOCIET CNRB00039733.97E+12                           URGENT  ISLAVATHU SITA           3.97E+12        
R413258333138      000000000200000000000000000000000000000033881454741PD  GOVT OF AP Hyderabad salary    STATE BANK OF INDIA SECRETARIAT    3258333138                      UNNAM NARASIMHA RAO                RES EDN INST SOC - AP(APREI SOCIET CBIN02820843258333138                         URGENT  UNNAM NARASIMHA RAO      3258333138      
R413409375090      000000000200000000000000000000000000000033881454741PD  GOVT OF AP Hyderabad salary    STATE BANK OF INDIA SECRETARIAT    3409375090                      GANDHAM YESUBABU                   RES EDN INST SOC - AP(APREI SOCIET CBIN02815673409375090                         URGENT  GANDHAM YESUBABU         3409375090      
R413355875900      000000000200000000000000000000000000000033881454741PD  GOVT OF AP Hyderabad salary    STATE BANK OF INDIA SECRETARIAT    3355875900                      BUDIGI MANIKANTA                   RES EDN INST SOC - AP(APREI SOCIET CBIN02827703355875900                         URGENT  BUDIGI MANIKANTA         3355875900      
R413263646124      000000000200000000000000000000000000000033881454741PD  GOVT OF AP Hyderabad salary    STATE BANK OF INDIA SECRETARIAT    3263646124                      KOTYA NAIK                         RES EDN INST SOC - AP(APREI SOCIET CBIN02827703263646124                         URGENT  KOTYA NAIK               3263646124      
R413389400404      000000000200000000000000000000000000000033881454741PD  GOVT OF AP Hyderabad salary    STATE BANK OF INDIA SECRETARIAT    3389400404                      PAMARTHI BHARGAVI                  RES EDN INST SOC - AP(APREI SOCIET CBIN02827703389400404                         URGENT  PAMARTHI BHARGAVI        3389400404      
R413078623593      000000000200000000000000000000000000000033881454741PD  GOVT OF AP Hyderabad salary    STATE BANK OF INDIA SECRETARIAT    3078623593                      RATHALA JOSH KUMAR NAYAK           RES EDN INST SOC - AP(APREI SOCIET CBIN02808303078623593                         URGENT  RATHALA JOSH KUMAR NAYAK 3078623593      
R413223102963      000000000200000000000000000000000000000033881454741PD  GOVT OF AP Hyderabad salary    STATE BANK OF INDIA SECRETARIAT    3223102963                      KUMBHA HARIKRISHNA                 RES EDN INST SOC - AP(APREI SOCIET CBIN02810283223102963                         URGENT  KUMBHA HARIKRISHNA       3223102963      
R413182118707      000000000200000000000000000000000000000033881454741PD  GOVT OF AP Hyderabad salary    STATE BANK OF INDIA SECRETARIAT    3182118707                      PULAVARTHI RAJABABU                RES EDN INST SOC - AP(APREI SOCIET CBIN02810283182118707                         URGENT  PULAVARTHI RAJABABU      3182118707      
R419.40E+13        000000000200000000000000000000000000000033881454741PD  GOVT OF AP Hyderabad salary    STATE BANK OF INDIA SECRETARIAT    9.40E+13                        BOBBILI BIMAL KUMAR                RES EDN INST SOC - AP(APREI SOCIET CIUB00000949.40E+13                           URGENT  BOBBILI BIMAL KUMAR      9.40E+13        
R411.96E+14        000000000200000000000000000000000000000033881454741PD  GOVT OF AP Hyderabad salary    STATE BANK OF INDIA SECRETARIAT    1.96E+14                        SHAIK CHANDINI                     RES EDN INST SOC - AP(APREI SOCIET Corp00019621.96E+14                           URGENT  SHAIK CHANDINI           1.96E+14        
R411.82E+14        000000000200000000000000000000000000000033881454741PD  GOVT OF AP Hyderabad salary    STATE BANK OF INDIA SECRETARIAT    1.82E+14                        GUNTURU JYOTHSNA                   RES EDN INST SOC - AP(APREI SOCIET CORP00018181.82E+14                           URGENT  GUNTURU JYOTHSNA         1.82E+14        
R418.71E+14        000000000200000000000000000000000000000033881454741PD  GOVT OF AP Hyderabad salary    STATE BANK OF INDIA SECRETARIAT    8.71E+14                        GOLLA VOGITA NAGA SNEHA PRIYA      RES EDN INST SOC - AP(APREI SOCIET IBKL00008718.71E+14                           URGENT  GOLLA VOGITA NAGA SNEHA P8.71E+14        
R41548528040       000000000200000000000000000000000000000033881454741PD  GOVT OF AP Hyderabad salary    STATE BANK OF INDIA SECRETARIAT    548528040                       PENTELA HANUMANTH RAO              RES EDN INST SOC - AP(APREI SOCIET IDIB000V033548528040                          URGENT  PENTELA HANUMANTH RAO    548528040       
R41976239255       000000000200000000000000000000000000000033881454741PD  GOVT OF AP Hyderabad salary    STATE BANK OF INDIA SECRETARIAT    976239255                       GUTTA VEERAIAH                     RES EDN INST SOC - AP(APREI SOCIET IDIB000V033976239255                          URGENT  GUTTA VEERAIAH           976239255       
R416241668425      000000000200000000000000000000000000000033881454741PD  GOVT OF AP Hyderabad salary    STATE BANK OF INDIA SECRETARIAT    6241668425                      GADUPUDI SAIDA RAO                 RES EDN INST SOC - AP(APREI SOCIET IDIB000C0436241668425                         URGENT  GADUPUDI SAIDA RAO       6241668425      
R416048527608      000000000200000000000000000000000000000033881454741PD  GOVT OF AP Hyderabad salary    STATE BANK OF INDIA SECRETARIAT    6048527608                      SAYED SHAREEF                      RES EDN INST SOC - AP(APREI SOCIET IDIB000C0436048527608                         URGENT  SAYED SHAREEF            6048527608      
R41535927481       000000000200000000000000000000000000000033881454741PD  GOVT OF AP Hyderabad salary    STATE BANK OF INDIA SECRETARIAT    535927481                       NARISETTI VENKATESWARA RAO         RES EDN INST SOC - AP(APREI SOCIET IDIB000C043535927481                          URGENT  NARISETTI VENKATESWARA RA535927481       
R41969757833       000000000200000000000000000000000000000033881454741PD  GOVT OF AP Hyderabad salary    STATE BANK OF INDIA SECRETARIAT    969757833                       YAMARTHI ANJALI                    RES EDN INST SOC - AP(APREI SOCIET IDIB000J018969757833                          URGENT  YAMARTHI ANJALI          969757833       
R416055186237      000000000200000000000000000000000000000033881454741PD  GOVT OF AP Hyderabad salary    STATE BANK OF INDIA SECRETARIAT    6055186237                      PONNAMPALLI JAYASRI                RES EDN INST SOC - AP(APREI SOCIET IDIB000K0886055186237                         URGENT  PONNAMPALLI JAYASRI      6055186237      
R416285217506      000000000200000000000000000000000000000033881454741PD  GOVT OF AP Hyderabad salary    STATE BANK OF INDIA SECRETARIAT    6285217506                      CHEEDIRALA DIVYA SAI SREE          RES EDN INST SOC - AP(APREI SOCIET IDIB000C0516285217506                         URGENT  CHEEDIRALA DIVYA SAI SREE6285217506      
R416237109212      000000000200000000000000000000000000000033881454741PD  GOVT OF AP Hyderabad salary    STATE BANK OF INDIA SECRETARIAT    6237109212                      VADLAMUDI SIVA RAMA KRISHNA        RES EDN INST SOC - AP(APREI SOCIET IDIB000V0536237109212                         URGENT  VADLAMUDI SIVA RAMA KRISH6237109212      
R4125293555        000000000200000000000000000000000000000033881454741PD  GOVT OF AP Hyderabad salary    STATE BANK OF INDIA SECRETARIAT    25293555                        CHITTULURI NAGADURGA               RES EDN INST SOC - AP(APREI SOCIET IDIB0SGB00125293555                           URGENT  CHITTULURI NAGADURGA     25293555        
R41846760323       000000000200000000000000000000000000000033881454741PD  GOVT OF AP Hyderabad salary    STATE BANK OF INDIA SECRETARIAT    846760323                       MOHAMMAD SHARMILA                  RES EDN INST SOC - AP(APREI SOCIET IDIB000S142846760323                          URGENT  MOHAMMAD SHARMILA        846760323       
R416265783406      000000000200000000000000000000000000000033881454741PD  GOVT OF AP Hyderabad salary    STATE BANK OF INDIA SECRETARIAT    6265783406                      KUKKALA JAYA VENKATA KUMAR         RES EDN INST SOC - AP(APREI SOCIET IDIB000V0536265783406                         URGENT  KUKKALA JAYA VENKATA KUMA6265783406      
R416267049041      000000000200000000000000000000000000000033881454741PD  GOVT OF AP Hyderabad salary    STATE BANK OF INDIA SECRETARIAT    6267049041                      BUSAM HIMALATHA                    RES EDN INST SOC - AP(APREI SOCIET IDIB000F0406267049041                         URGENT  BUSAM HIMALATHA          6267049041      
R41982570868       000000000200000000000000000000000000000033881454741PD  GOVT OF AP Hyderabad salary    STATE BANK OF INDIA SECRETARIAT    982570868                       SAJJA RAMYA NAGA SAI               RES EDN INST SOC - AP(APREI SOCIET IDIB000P090982570868                          URGENT  SAJJA RAMYA NAGA SAI     982570868       
R416134810771      000000000200000000000000000000000000000033881454741PD  GOVT OF AP Hyderabad salary    STATE BANK OF INDIA SECRETARIAT    6134810771                      SAJJA VENKATA RAMANA               RES EDN INST SOC - AP(APREI SOCIET IDIB000P0906134810771                         URGENT  SAJJA VENKATA RAMANA     6134810771      
R416252358250      000000000200000000000000000000000000000033881454741PD  GOVT OF AP Hyderabad salary    STATE BANK OF INDIA SECRETARIAT    6252358250                      KAKI SRAVYA                        RES EDN INST SOC - AP(APREI SOCIET IDIB000A0376252358250                         URGENT  KAKI SRAVYA              6252358250      
R416252335866      000000000200000000000000000000000000000033881454741PD  GOVT OF AP Hyderabad salary    STATE BANK OF INDIA SECRETARIAT    6252335866                      KAITEPALLI KIRANMAI                RES EDN INST SOC - AP(APREI SOCIET IDIB000A0376252335866                         URGENT  KAITEPALLI KIRANMAI      6252335866      
R416285613496      000000000200000000000000000000000000000033881454741PD  GOVT OF AP Hyderabad salary    STATE BANK OF INDIA SECRETARIAT    6285613496                      KOTA DHANA LAKSHMI                 RES EDN INST SOC - AP(APREI SOCIET IDIB000A0376285613496                         URGENT  KOTA DHANA LAKSHMI       6285613496      
R416252351957      000000000200000000000000000000000000000033881454741PD  GOVT OF AP Hyderabad salary    STATE BANK OF INDIA SECRETARIAT    6252351957                      BODDU DIVYA                        RES EDN INST SOC - AP(APREI SOCIET IDIB000A0376252351957                         URGENT  BODDU DIVYA              6252351957      
R416221836968      000000000200000000000000000000000000000033881454741PD  GOVT OF AP Hyderabad salary    STATE BANK OF INDIA SECRETARIAT    6221836968                      DOMA KALYAN                        RES EDN INST SOC - AP(APREI SOCIET IDIB000M0436221836968                         URGENT  DOMA KALYAN              6221836968      
R416282824921      000000000200000000000000000000000000000033881454741PD  GOVT OF AP Hyderabad salary    STATE BANK OF INDIA SECRETARIAT    6282824921                      CHITTULURI SOMANNA                 RES EDN INST SOC - AP(APREI SOCIET IDIB000V0496282824921                         URGENT  CHITTULURI SOMANNA       6282824921      
R41545421735       000000000200000000000000000000000000000033881454741PD  GOVT OF AP Hyderabad salary    STATE BANK OF INDIA SECRETARIAT    545421735                       KOURU MEERAIAH                     RES EDN INST SOC - AP(APREI SOCIET IDIB000B065545421735                          URGENT  KOURU MEERAIAH           545421735       
R416263263401      000000000200000000000000000000000000000033881454741PD  GOVT OF AP Hyderabad salary    STATE BANK OF INDIA SECRETARIAT    6263263401                      KANDULA DURGA SAI                  RES EDN INST SOC - AP(APREI SOCIET IDIB000M0646263263401                         URGENT  KANDULA DURGA SAI        6263263401      
R416287234063      000000000200000000000000000000000000000033881454741PD  GOVT OF AP Hyderabad salary    STATE BANK OF INDIA SECRETARIAT    6287234063                      PUVVALA RAJKUMAR                   RES EDN INST SOC - AP(APREI SOCIET IDIB000B0656287234063                         URGENT  PUVVALA RAJKUMAR         6287234063      
R412.60E+14        000000000200000000000000000000000000000033881454741PD  GOVT OF AP Hyderabad salary    STATE BANK OF INDIA SECRETARIAT    2.60E+14                        CHITIKELA VENKATA SAI REVATHI      RES EDN INST SOC - AP(APREI SOCIET IOBA00026032.60E+14                           URGENT  CHITIKELA VENKATA SAI REV2.60E+14        
R411.57E+13        000000000200000000000000000000000000000033881454741PD  GOVT OF AP Hyderabad salary    STATE BANK OF INDIA SECRETARIAT    1.57E+13                        GALLA VEERA VENKATA KONDA BABU     RES EDN INST SOC - AP(APREI SOCIET ORBC01015671.57E+13                           URGENT  GALLA VEERA VENKATA KONDA1.57E+13        
R4152129276036     000000000200000000000000000000000000000033881454741PD  GOVT OF AP Hyderabad salary    STATE BANK OF INDIA SECRETARIAT    52129276036                     BANAVATHU SRINIVAS RAO             RES EDN INST SOC - AP(APREI SOCIET SBHY002017052129276036                        URGENT  BANAVATHU SRINIVAS RAO   52129276036     
R4162241725556     000000000200000000000000000000000000000033881454741PD  GOVT OF AP Hyderabad salary    STATE BANK OF INDIA SECRETARIAT    62241725556                     KALLURU MUTYALA VENKAT REDDY       RES EDN INST SOC - AP(APREI SOCIET SBHY002131962241725556                        URGENT  KALLURU MUTYALA VENKAT RE62241725556     
R4152208672552     000000000200000000000000000000000000000033881454741PD  GOVT OF AP Hyderabad salary    STATE BANK OF INDIA SECRETARIAT    52208672552                     PENUMATSA VENKATASWARA RAO         RES EDN INST SOC - AP(APREI SOCIET SBHY002131952208672552                        URGENT  PENUMATSA VENKATASWARA RA52208672552     
R4162269691524     000000000200000000000000000000000000000033881454741PD  GOVT OF AP Hyderabad salary    STATE BANK OF INDIA SECRETARIAT    62269691524                     NAGELLI RAMARAO                    RES EDN INST SOC - AP(APREI SOCIET SBHY002131962269691524                        URGENT  NAGELLI RAMARAO          62269691524     
R4162310184165     000000000200000000000000000000000000000033881454741PD  GOVT OF AP Hyderabad salary    STATE BANK OF INDIA SECRETARIAT    62310184165                     VELPULA SRAVANTHI                  RES EDN INST SOC - AP(APREI SOCIET SBHY002129362310184165                        URGENT  VELPULA SRAVANTHI        62310184165     
R4162366614946     000000000200000000000000000000000000000033881454741PD  GOVT OF AP Hyderabad salary    STATE BANK OF INDIA SECRETARIAT    62366614946                     VALLEPU SIVA PRASAD                RES EDN INST SOC - AP(APREI SOCIET SBHY002123362366614946                        URGENT  VALLEPU SIVA PRASAD      62366614946     
R4162369523827     000000000200000000000000000000000000000033881454741PD  GOVT OF AP Hyderabad salary    STATE BANK OF INDIA SECRETARIAT    62369523827                     RATHNAVARAPU NARENDRA              RES EDN INST SOC - AP(APREI SOCIET SBHY002123362369523827                        URGENT  RATHNAVARAPU NARENDRA    62369523827     
R4162366045490     000000000200000000000000000000000000000033881454741PD  GOVT OF AP Hyderabad salary    STATE BANK OF INDIA SECRETARIAT    62366045490                     AILURI KRISHNAPRIYA                RES EDN INST SOC - AP(APREI SOCIET SBHY002123362366045490                        URGENT  AILURI KRISHNAPRIYA      62366045490     
R4162369520893     000000000200000000000000000000000000000033881454741PD  GOVT OF AP Hyderabad salary    STATE BANK OF INDIA SECRETARIAT    62369520893                     RAMAVATHU SOMA SEKHAR NAYAK        RES EDN INST SOC - AP(APREI SOCIET SBHY002123362369520893                        URGENT  RAMAVATHU SOMA SEKHAR NAY62369520893     
R4162361717549     000000000200000000000000000000000000000033881454741PD  GOVT OF AP Hyderabad salary    STATE BANK OF INDIA SECRETARIAT    62361717549                     PAMPANABOINA MANASA                RES EDN INST SOC - AP(APREI SOCIET SBHY002048362361717549                        URGENT  PAMPANABOINA MANASA      62361717549     
R4162366610022     000000000200000000000000000000000000000033881454741PD  GOVT OF AP Hyderabad salary    STATE BANK OF INDIA SECRETARIAT    62366610022                     YASARAPU GOPALA KRISHNA            RES EDN INST SOC - AP(APREI SOCIET SBHY002123362366610022                        URGENT  YASARAPU GOPALA KRISHNA  62366610022     
R4152152616452     000000000200000000000000000000000000000033881454741PD  GOVT OF AP Hyderabad salary    STATE BANK OF INDIA SECRETARIAT    52152616452                     VANAMA SATYANARAYANA               RES EDN INST SOC - AP(APREI SOCIET SBHY002067852152616452                        URGENT  VANAMA SATYANARAYANA     52152616452     
R4162368738040     000000000200000000000000000000000000000033881454741PD  GOVT OF AP Hyderabad salary    STATE BANK OF INDIA SECRETARIAT    62368738040                     KONGALA GOPI                       RES EDN INST SOC - AP(APREI SOCIET SBHY002123362368738040                        URGENT  KONGALA GOPI             62368738040     
R4162404802959     000000000200000000000000000000000000000033881454741PD  GOVT OF AP Hyderabad salary    STATE BANK OF INDIA SECRETARIAT    62404802959                     BHUKYA NAGARANI                    RES EDN INST SOC - AP(APREI SOCIET SBHY002132162404802959                        URGENT  BHUKYA NAGARANI          62404802959     
R4162404698798     000000000200000000000000000000000000000033881454741PD  GOVT OF AP Hyderabad salary    STATE BANK OF INDIA SECRETARIAT    62404698798                     PULIPATI VARUN                     RES EDN INST SOC - AP(APREI SOCIET SBHY002127062404698798                        URGENT  PULIPATI VARUN           62404698798     
R4162373691332     000000000200000000000000000000000000000033881454741PD  GOVT OF AP Hyderabad salary    STATE BANK OF INDIA SECRETARIAT    62373691332                     MUNAGALA SRINIVASA RAO             RES EDN INST SOC - AP(APREI SOCIET SBHY002182662373691332                        URGENT  MUNAGALA SRINIVASA RAO   62373691332     
R4162381961195     000000000200000000000000000000000000000033881454741PD  GOVT OF AP Hyderabad salary    STATE BANK OF INDIA SECRETARIAT    62381961195                     SUROJU KRISHNA KANTH               RES EDN INST SOC - AP(APREI SOCIET SBHY002117962381961195                        URGENT  SUROJU KRISHNA KANTH     62381961195     
R4152179365235     000000000200000000000000000000000000000033881454741PD  GOVT OF AP Hyderabad salary    STATE BANK OF INDIA SECRETARIAT    52179365235                     THONGHAR BALKISHAN SING            RES EDN INST SOC - AP(APREI SOCIET SBHY002019052179365235                        URGENT  THONGHAR BALKISHAN SING  52179365235     
R4162381307130     000000000200000000000000000000000000000033881454741PD  GOVT OF AP Hyderabad salary    STATE BANK OF INDIA SECRETARIAT    62381307130                     VAJRAPU SWATHI                     RES EDN INST SOC - AP(APREI SOCIET SBHY002123362381307130                        URGENT  VAJRAPU SWATHI           62381307130     
R4152101169092     000000000200000000000000000000000000000033881454741PD  GOVT OF AP Hyderabad salary    STATE BANK OF INDIA SECRETARIAT    52101169092                     ATLURI MADHUMOHAN                  RES EDN INST SOC - AP(APREI SOCIET SBHY002079152101169092                        URGENT  ATLURI MADHUMOHAN        52101169092     
R4162369360190     000000000200000000000000000000000000000033881454741PD  GOVT OF AP Hyderabad salary    STATE BANK OF INDIA SECRETARIAT    62369360190                     MANDAVALLI VINEETHA                RES EDN INST SOC - AP(APREI SOCIET SBHY002123362369360190                        URGENT  MANDAVALLI VINEETHA      62369360190     
R4162369344226     000000000200000000000000000000000000000033881454741PD  GOVT OF AP Hyderabad salary    STATE BANK OF INDIA SECRETARIAT    62369344226                     SHAIK SHAKEELA                     RES EDN INST SOC - AP(APREI SOCIET SBHY002123362369344226                        URGENT  SHAIK SHAKEELA           62369344226     
R4162363784762     000000000200000000000000000000000000000033881454741PD  GOVT OF AP Hyderabad salary    STATE BANK OF INDIA SECRETARIAT    62363784762                     GUGGULOTHU GOPI KRISHNA NAYAK      RES EDN INST SOC - AP(APREI SOCIET SBHY002123362363784762                        URGENT  GUGGULOTHU GOPI KRISHNA N62363784762     
R4162369519899     000000000200000000000000000000000000000033881454741PD  GOVT OF AP Hyderabad salary    STATE BANK OF INDIA SECRETARIAT    62369519899                     TELLAKULA KAMESWARA RAO            RES EDN INST SOC - AP(APREI SOCIET SBHY002123362369519899                        URGENT  TELLAKULA KAMESWARA RAO  62369519899     
R4162363017964     000000000200000000000000000000000000000033881454741PD  GOVT OF AP Hyderabad salary    STATE BANK OF INDIA SECRETARIAT    62363017964                     GUDIVENDI SANDEEPTHI               RES EDN INST SOC - AP(APREI SOCIET SBHY002123362363017964                        URGENT  GUDIVENDI SANDEEPTHI     62363017964     
R4162362911704     000000000200000000000000000000000000000033881454741PD  GOVT OF AP Hyderabad salary    STATE BANK OF INDIA SECRETARIAT    62362911704                     PONNURU DURGA ANUSHA               RES EDN INST SOC - AP(APREI SOCIET SBHY002123362362911704                        URGENT  PONNURU DURGA ANUSHA     62362911704     
R4162369345537     000000000200000000000000000000000000000033881454741PD  GOVT OF AP Hyderabad salary    STATE BANK OF INDIA SECRETARIAT    62369345537                     MEDANKI SASI KUMAR                 RES EDN INST SOC - AP(APREI SOCIET SBHY002123362369345537                        URGENT  MEDANKI SASI KUMAR       62369345537     
R4162368734942     000000000200000000000000000000000000000033881454741PD  GOVT OF AP Hyderabad salary    STATE BANK OF INDIA SECRETARIAT    62368734942                     HUMSHAN FATHIMA                    RES EDN INST SOC - AP(APREI SOCIET SBHY002123362368734942                        URGENT  HUMSHAN FATHIMA          62368734942     
R4162363476509     000000000200000000000000000000000000000033881454741PD  GOVT OF AP Hyderabad salary    STATE BANK OF INDIA SECRETARIAT    62363476509                     VEERANKI ANJANEYULU                RES EDN INST SOC - AP(APREI SOCIET SBHY002123362363476509                        URGENT  VEERANKI ANJANEYULU      62363476509     
R4162385960685     000000000200000000000000000000000000000033881454741PD  GOVT OF AP Hyderabad salary    STATE BANK OF INDIA SECRETARIAT    62385960685                     DEEKOLLU SAI KEERTHI               RES EDN INST SOC - AP(APREI SOCIET SBHY002144062385960685                        URGENT  DEEKOLLU SAI KEERTHI     62385960685     
