R41000000039277470000000000000000000000000033881454741PAO GOVT OF AP Hyderabad salary    STATE BANK OF INDIA SECRETARIAT    00000003137512571               M/sNJRConstructions PvtLtd         MED SERV & INF DEVP CORPN AP- MANA CBIN028236900000003137512571                  URGENT  M/sNJRConstructions PvtLt                                 0000000313751257EMLdpao-sect@ap.nic.in             
R41000000000465790000000000000000000000000033881454741PAO GOVT OF AP Hyderabad salary    STATE BANK OF INDIA SECRETARIAT    142210011200206                 APLabour Cess Commissioner  HyderabMED SERV & INF DEVP CORPN AP- MANA ANDB0001422142210011200206                    URGENT  APLabour Cess Commissione                                 142210011200206 EMLdpao-sect@ap.nic.in             
R41000000003209470000000000000000000000000033881454741PAO GOVT OF AP Hyderabad salary    STATE BANK OF INDIA SECRETARIAT    142410011000314                 MD APMSIDC  Hyderabad              MED SERV & INF DEVP CORPN AP- MANA ANDB0001424142410011000314                    URGENT  MD APMSIDC  Hyderabad                                     142410011000314 EMLdpao-sect@ap.nic.in             
