R41000000001301620000000000000000000000000033881454741PAO GOVT OF AP Hyderabad salary    STATE BANK OF INDIA SECRETARIAT    62333370358                     RS B VP South Nagarjunasagar       TRIBAL WELFARE RESIDENTIAL EDUCATI SBHY0020621TRIBAL WELFARE RESIDENTIAL EDUCATI URGENT  RS B VP South Nagarjunasa                                 0182041         EMLdpao-sect@ap.nic.in             
R41000000002628780000000000000000000000000033881454741PAO GOVT OF AP Hyderabad salary    STATE BANK OF INDIA SECRETARIAT    62205023388                     RJC B RC Varam                     TRIBAL WELFARE RESIDENTIAL EDUCATI SBHY0021199TRIBAL WELFARE RESIDENTIAL EDUCATI URGENT  RJC B RC Varam                                            0182042         EMLdpao-sect@ap.nic.in             
R41000000000906040000000000000000000000000033881454741PAO GOVT OF AP Hyderabad salary    STATE BANK OF INDIA SECRETARIAT    62039007705                     RS G Rajavommangi                  TRIBAL WELFARE RESIDENTIAL EDUCATI SBHY0020521TRIBAL WELFARE RESIDENTIAL EDUCATI URGENT  RS G Rajavommangi                                         0182043         EMLdpao-sect@ap.nic.in             
