R41000000051540000000000000000000000000000033881454741PAO GOVT OF AP Hyderabad salary    STATE BANK OF INDIA SECRETARIAT    122211011000144                 Vijetha Agri Tech                  SEEDS DEV CORP AP STATE -VC & MD   ANDB0001222122211011000144                    URGENT  Vijetha Agri Tech                                         122211011000144 EMLdpao-sect@ap.nic.in             
R41000000069000000000000000000000000000000033881454741PAO GOVT OF AP Hyderabad salary    STATE BANK OF INDIA SECRETARIAT    4287000600192901                Sri Krishna Seeds                  SEEDS DEV CORP AP STATE -VC & MD   KARB00004284287000600192901                   URGENT  Sri Krishna Seeds                                         4287000600192901EMLdpao-sect@ap.nic.in             
R41000000062670000000000000000000000000000033881454741PAO GOVT OF AP Hyderabad salary    STATE BANK OF INDIA SECRETARIAT    179120000148589                 Akash Agro Tech                    SEEDS DEV CORP AP STATE -VC & MD   CIUB0000179179120000148589                    URGENT  Akash Agro Tech                                           179120000148589 EMLdpao-sect@ap.nic.in             
R41000000059520000000000000000000000000000033881454741PAO GOVT OF AP Hyderabad salary    STATE BANK OF INDIA SECRETARIAT    4287000600193301                Venu Seeds                         SEEDS DEV CORP AP STATE -VC & MD   KARB00004284287000600193301                   URGENT  Venu Seeds                                                4287000600193301EMLdpao-sect@ap.nic.in             
R41000000068420000000000000000000000000000033881454741PAO GOVT OF AP Hyderabad salary    STATE BANK OF INDIA SECRETARIAT    332044030024                    Sri Ramakrishna Oil Mills          SEEDS DEV CORP AP STATE -VC & MD   VYSA0003320332044030024                       URGENT  Sri Ramakrishna Oil Mills                                 332044030024    EMLdpao-sect@ap.nic.in             
R41000000066730000000000000000000000000000033881454741PAO GOVT OF AP Hyderabad salary    STATE BANK OF INDIA SECRETARIAT    001311100000502                 Krishna Traders                    SEEDS DEV CORP AP STATE -VC & MD   ANDB0000013001311100000502                    URGENT  Krishna Traders                                           001311100000502 EMLdpao-sect@ap.nic.in             
R41000000082000000000000000000000000000000033881454741PAO GOVT OF AP Hyderabad salary    STATE BANK OF INDIA SECRETARIAT    015000401110005                 K S R Seeds                        SEEDS DEV CORP AP STATE -VC & MD   CORP0000150015000401110005                    URGENT  K S R Seeds                                               015000401110005 EMLdpao-sect@ap.nic.in             
