R4130292010088856  000000000200000000000000000000000099999999999999999PAO GOVT OF AP Hyderabad salary    STATE BANK OF INDIA SECRETARIAT    30292010088856                  M/s Sirimuvva Culturals            FILM AND TV DEVELOPMENT  CORPORATI SYNB000302930292010088856                     URGENT  M/s Sirimuvva Culturals  30292010088856  
R4130292010028174  000000000030000000000000000000000099999999999999999PAO GOVT OF AP Hyderabad salary    STATE BANK OF INDIA SECRETARIAT    30292010028174                  Ravinuthala Prema Kishore          FILM AND TV DEVELOPMENT  CORPORATI SYNB000302930292010028174                     URGENT  Ravinuthala Prema Kishore30292010028174  
R4125840100009508  000000000200000000000000000000000099999999999999999PAO GOVT OF AP Hyderabad salary    STATE BANK OF INDIA SECRETARIAT    25840100009508                  M/s Krishna Arts Cultural AssociatiFILM AND TV DEVELOPMENT  CORPORATI BARB0GUDIVA25840100009508                     URGENT  M/s Krishna Arts Cultural25840100009508  
R411419115000005680000000000200000000000000000000000099999999999999999PAO GOVT OF AP Hyderabad salary    STATE BANK OF INDIA SECRETARIAT    1419115000005680                M/s Montessori English Medium High FILM AND TV DEVELOPMENT  CORPORATI KVBL00014191419115000005680                   URGENT  M/s Montessori English Me1419115000005680
R41002104000301244 000000000200000000000000000000000099999999999999999PAO GOVT OF AP Hyderabad salary    STATE BANK OF INDIA SECRETARIAT    002104000301244                 M/s Aman Biradari Trust (Aman VedikFILM AND TV DEVELOPMENT  CORPORATI IBKL0000002002104000301244                    URGENT  M/s Aman Biradari Trust (002104000301244 
R41329402010109671 000000000400000000000000000000000099999999999999999PAO GOVT OF AP Hyderabad salary    STATE BANK OF INDIA SECRETARIAT    329402010109671                 M/s Helapuri Cultural Association  FILM AND TV DEVELOPMENT  CORPORATI  UBIN053294329402010109671                    URGENT  M/s Helapuri Cultural Ass329402010109671 
R413453776521      000000000400000000000000000000000099999999999999999PAO GOVT OF AP Hyderabad salary    STATE BANK OF INDIA SECRETARIAT    3453776521                      M/s TGV Kalakshetram               FILM AND TV DEVELOPMENT  CORPORATI CBIN02839673453776521                         URGENT  M/s TGV Kalakshetram     3453776521      
