R4126101E12        000000000500000000000000000000000099999999999999999PAO GOVT OF AP Hyderabad salary    STATE BANK OF INDIA SECRETARIAT    26101E12                        Yatham Srinivasulu                 BC COOP FIN CORP LTD - AP VC       ANDB000002626101E12                           URGENT  Yatham Srinivasulu       26101E12        
R4126101E12        000000000500000000000000000000000099999999999999999PAO GOVT OF AP Hyderabad salary    STATE BANK OF INDIA SECRETARIAT    26101E12                        Billa Venkatanarayan               BC COOP FIN CORP LTD - AP VC       ANDB000002626101E12                           URGENT  Billa Venkatanarayan     26101E12        
R417321E13         000000000200000000000000000000000099999999999999999PAO GOVT OF AP Hyderabad salary    STATE BANK OF INDIA SECRETARIAT    7321E13                         Gunduru Atchamma                   BC COOP FIN CORP LTD - AP VC       ANDB00007327321E13                            URGENT  Gunduru Atchamma         7321E13         
R417321E13         000000000225000000000000000000000099999999999999999PAO GOVT OF AP Hyderabad salary    STATE BANK OF INDIA SECRETARIAT    7321E13                         Nelapuram Venkatasubbaiah          BC COOP FIN CORP LTD - AP VC       ANDB00007327321E13                            URGENT  Nelapuram Venkatasubbaiah7321E13         
R41732101E13       000000000300000000000000000000000099999999999999999PAO GOVT OF AP Hyderabad salary    STATE BANK OF INDIA SECRETARIAT    732101E13                       Puchakutta Sudhakar                BC COOP FIN CORP LTD - AP VC       ANDB0000732732101E13                          URGENT  Puchakutta Sudhakar      732101E13       
R41732101E13       000000000250000000000000000000000099999999999999999PAO GOVT OF AP Hyderabad salary    STATE BANK OF INDIA SECRETARIAT    732101E13                       Ramanaboina Venkatasubbaiah        BC COOP FIN CORP LTD - AP VC       ANDB0000732732101E13                          URGENT  Ramanaboina Venkatasubbai732101E13       
R41732101E13       000000000250000000000000000000000099999999999999999PAO GOVT OF AP Hyderabad salary    STATE BANK OF INDIA SECRETARIAT    732101E13                       Konnepati Subbaiah                 BC COOP FIN CORP LTD - AP VC       ANDB0000732732101E13                          URGENT  Konnepati Subbaiah       732101E13       
R41732101E13       000000000250000000000000000000000099999999999999999PAO GOVT OF AP Hyderabad salary    STATE BANK OF INDIA SECRETARIAT    732101E13                       Sigicharla Gangaiah                BC COOP FIN CORP LTD - AP VC       ANDB0000732732101E13                          URGENT  Sigicharla Gangaiah      732101E13       
R41732101E13       000000000300000000000000000000000099999999999999999PAO GOVT OF AP Hyderabad salary    STATE BANK OF INDIA SECRETARIAT    732101E13                       Konipati Sridevi                   BC COOP FIN CORP LTD - AP VC       ANDB0000732732101E13                          URGENT  Konipati Sridevi         732101E13       
R417321E13         000000000250000000000000000000000099999999999999999PAO GOVT OF AP Hyderabad salary    STATE BANK OF INDIA SECRETARIAT    7321E13                         Nelapuram Ramanaiah                BC COOP FIN CORP LTD - AP VC       ANDB00007327321E13                            URGENT  Nelapuram Ramanaiah      7321E13         
R4158101E12        000000000300000000000000000000000099999999999999999PAO GOVT OF AP Hyderabad salary    STATE BANK OF INDIA SECRETARIAT    58101E12                        Vatadi Radhakrishna                BC COOP FIN CORP LTD - AP VC        ANDB00005858101E12                           URGENT  Vatadi Radhakrishna      58101E12        
R4158101E12        000000000300000000000000000000000099999999999999999PAO GOVT OF AP Hyderabad salary    STATE BANK OF INDIA SECRETARIAT    58101E12                        Koppati Satyanarayana              BC COOP FIN CORP LTD - AP VC        ANDB00005858101E12                           URGENT  Koppati Satyanarayana    58101E12        
R41581002E12       000000000300000000000000000000000099999999999999999PAO GOVT OF AP Hyderabad salary    STATE BANK OF INDIA SECRETARIAT    581002E12                       Koppadi Sai Babu                   BC COOP FIN CORP LTD - AP VC        ANDB000058581002E12                          URGENT  Koppadi Sai Babu         581002E12       
R4158101E12        000000000300000000000000000000000099999999999999999PAO GOVT OF AP Hyderabad salary    STATE BANK OF INDIA SECRETARIAT    58101E12                        Sangani Venkateswarlu              BC COOP FIN CORP LTD - AP VC        ANDB00005858101E12                           URGENT  Sangani Venkateswarlu    58101E12        
R4158101E12        000000000300000000000000000000000099999999999999999PAO GOVT OF AP Hyderabad salary    STATE BANK OF INDIA SECRETARIAT    58101E12                        Vaidadi Lohidasu                   BC COOP FIN CORP LTD - AP VC        ANDB00005858101E12                           URGENT  Vaidadi Lohidasu         58101E12        
R4158101E12        000000000300000000000000000000000099999999999999999PAO GOVT OF AP Hyderabad salary    STATE BANK OF INDIA SECRETARIAT    58101E12                        Vatada Mangarao                    BC COOP FIN CORP LTD - AP VC        ANDB00005858101E12                           URGENT  Vatada Mangarao          58101E12        
R4158101E12        000000000300000000000000000000000099999999999999999PAO GOVT OF AP Hyderabad salary    STATE BANK OF INDIA SECRETARIAT    58101E12                        Kollu Masenurao                    BC COOP FIN CORP LTD - AP VC        ANDB00005858101E12                           URGENT  Kollu Masenurao          58101E12        
R4158101E12        000000000300000000000000000000000099999999999999999PAO GOVT OF AP Hyderabad salary    STATE BANK OF INDIA SECRETARIAT    58101E12                        Koppadi Srinivasulu                BC COOP FIN CORP LTD - AP VC        ANDB00005858101E12                           URGENT  Koppadi Srinivasulu      58101E12        
R4158101E12        000000000300000000000000000000000099999999999999999PAO GOVT OF AP Hyderabad salary    STATE BANK OF INDIA SECRETARIAT    58101E12                        Vaidadi Rangayya                   BC COOP FIN CORP LTD - AP VC        ANDB00005858101E12                           URGENT  Vaidadi Rangayya         58101E12        
R4158101E12        000000000300000000000000000000000099999999999999999PAO GOVT OF AP Hyderabad salary    STATE BANK OF INDIA SECRETARIAT    58101E12                        Koppadi Ramanjaneyulu              BC COOP FIN CORP LTD - AP VC        ANDB00005858101E12                           URGENT  Koppadi Ramanjaneyulu    58101E12        
R4158101E12        000000000300000000000000000000000099999999999999999PAO GOVT OF AP Hyderabad salary    STATE BANK OF INDIA SECRETARIAT    58101E12                        Vatadi Srinivasa Rao               BC COOP FIN CORP LTD - AP VC        ANDB00005858101E12                           URGENT  Vatadi Srinivasa Rao     58101E12        
R4158101E12        000000000300000000000000000000000099999999999999999PAO GOVT OF AP Hyderabad salary    STATE BANK OF INDIA SECRETARIAT    58101E12                        Vatadi Satyanarayana               BC COOP FIN CORP LTD - AP VC        ANDB00005858101E12                           URGENT  Vatadi Satyanarayana     58101E12        
R4158101E12        000000000300000000000000000000000099999999999999999PAO GOVT OF AP Hyderabad salary    STATE BANK OF INDIA SECRETARIAT    58101E12                        Samgani Yedukondalu                BC COOP FIN CORP LTD - AP VC        ANDB00005858101E12                           URGENT  Samgani Yedukondalu      58101E12        
R4158101E12        000000000300000000000000000000000099999999999999999PAO GOVT OF AP Hyderabad salary    STATE BANK OF INDIA SECRETARIAT    58101E12                        Kopanathi Chinapeddiraju           BC COOP FIN CORP LTD - AP VC        ANDB00005858101E12                           URGENT  Kopanathi Chinapeddiraju 58101E12        
R4158101E12        000000000300000000000000000000000099999999999999999PAO GOVT OF AP Hyderabad salary    STATE BANK OF INDIA SECRETARIAT    58101E12                        Seru Kanakadurgarao                BC COOP FIN CORP LTD - AP VC        ANDB00005858101E12                           URGENT  Seru Kanakadurgarao      58101E12        
R41581002E12       000000000300000000000000000000000099999999999999999PAO GOVT OF AP Hyderabad salary    STATE BANK OF INDIA SECRETARIAT    581002E12                       Koppadi Ramudu                     BC COOP FIN CORP LTD - AP VC        ANDB000058581002E12                          URGENT  Koppadi Ramudu           581002E12       
R4158101E12        000000000300000000000000000000000099999999999999999PAO GOVT OF AP Hyderabad salary    STATE BANK OF INDIA SECRETARIAT    58101E12                        Pessengi Masenurao                 BC COOP FIN CORP LTD - AP VC        ANDB00005858101E12                           URGENT  Pessengi Masenurao       58101E12        
R41581001E12       000000000300000000000000000000000099999999999999999PAO GOVT OF AP Hyderabad salary    STATE BANK OF INDIA SECRETARIAT    581001E12                       Koppadi Nageswararao               BC COOP FIN CORP LTD - AP VC        ANDB000058581001E12                          URGENT  Koppadi Nageswararao     581001E12       
R41581002E12       000000000300000000000000000000000099999999999999999PAO GOVT OF AP Hyderabad salary    STATE BANK OF INDIA SECRETARIAT    581002E12                       Koppadi Peda Kanakaraju            BC COOP FIN CORP LTD - AP VC        ANDB000058581002E12                          URGENT  Koppadi Peda Kanakaraju  581002E12       
R4158101E12        000000000300000000000000000000000099999999999999999PAO GOVT OF AP Hyderabad salary    STATE BANK OF INDIA SECRETARIAT    58101E12                        Tadi Srinivasarao                  BC COOP FIN CORP LTD - AP VC        ANDB00005858101E12                           URGENT  Tadi Srinivasarao        58101E12        
R4158101E12        000000000300000000000000000000000099999999999999999PAO GOVT OF AP Hyderabad salary    STATE BANK OF INDIA SECRETARIAT    58101E12                        Koppadi Satyanarayana              BC COOP FIN CORP LTD - AP VC        ANDB00005858101E12                           URGENT  Koppadi Satyanarayana    58101E12        
R4158101E12        000000000300000000000000000000000099999999999999999PAO GOVT OF AP Hyderabad salary    STATE BANK OF INDIA SECRETARIAT    58101E12                        Koppadi Srinivasu                  BC COOP FIN CORP LTD - AP VC        ANDB00005858101E12                           URGENT  Koppadi Srinivasu        58101E12        
R4158101E12        000000000300000000000000000000000099999999999999999PAO GOVT OF AP Hyderabad salary    STATE BANK OF INDIA SECRETARIAT    58101E12                        Vatadi Srinivasa Rao               BC COOP FIN CORP LTD - AP VC        ANDB00005858101E12                           URGENT  Vatadi Srinivasa Rao     58101E12        
R4158101E12        000000000300000000000000000000000099999999999999999PAO GOVT OF AP Hyderabad salary    STATE BANK OF INDIA SECRETARIAT    58101E12                        Masakapalli Srinu                  BC COOP FIN CORP LTD - AP VC        ANDB00005858101E12                           URGENT  Masakapalli Srinu        58101E12        
R41581002E12       000000000300000000000000000000000099999999999999999PAO GOVT OF AP Hyderabad salary    STATE BANK OF INDIA SECRETARIAT    581002E12                       Koppadi Nageswararao               BC COOP FIN CORP LTD - AP VC        ANDB000058581002E12                          URGENT  Koppadi Nageswararao     581002E12       
R41581001E12       000000000300000000000000000000000099999999999999999PAO GOVT OF AP Hyderabad salary    STATE BANK OF INDIA SECRETARIAT    581001E12                       Kola Dharmaraju                    BC COOP FIN CORP LTD - AP VC        ANDB000058581001E12                          URGENT  Kola Dharmaraju          581001E12       
R4158101E12        000000000300000000000000000000000099999999999999999PAO GOVT OF AP Hyderabad salary    STATE BANK OF INDIA SECRETARIAT    58101E12                        Kollu Dasu                         BC COOP FIN CORP LTD - AP VC        ANDB00005858101E12                           URGENT  Kollu Dasu               58101E12        
R4158101E12        000000000300000000000000000000000099999999999999999PAO GOVT OF AP Hyderabad salary    STATE BANK OF INDIA SECRETARIAT    58101E12                        Vatadi Durgarao                    BC COOP FIN CORP LTD - AP VC        ANDB00005858101E12                           URGENT  Vatadi Durgarao          58101E12        
R4158101E12        000000000300000000000000000000000099999999999999999PAO GOVT OF AP Hyderabad salary    STATE BANK OF INDIA SECRETARIAT    58101E12                        Vatadi Srinivasa Rao               BC COOP FIN CORP LTD - AP VC        ANDB00005858101E12                           URGENT  Vatadi Srinivasa Rao     58101E12        
R4158101E12        000000000300000000000000000000000099999999999999999PAO GOVT OF AP Hyderabad salary    STATE BANK OF INDIA SECRETARIAT    58101E12                        Malladi Verriyya                   BC COOP FIN CORP LTD - AP VC        ANDB00005858101E12                           URGENT  Malladi Verriyya         58101E12        
R4158101E12        000000000300000000000000000000000099999999999999999PAO GOVT OF AP Hyderabad salary    STATE BANK OF INDIA SECRETARIAT    58101E12                        Vatadi Dhanaraju                   BC COOP FIN CORP LTD - AP VC        ANDB00005858101E12                           URGENT  Vatadi Dhanaraju         58101E12        
R4158101E12        000000000300000000000000000000000099999999999999999PAO GOVT OF AP Hyderabad salary    STATE BANK OF INDIA SECRETARIAT    58101E12                        Vatadi Govindaraju                 BC COOP FIN CORP LTD - AP VC        ANDB00005858101E12                           URGENT  Vatadi Govindaraju       58101E12        
R4158101E12        000000000300000000000000000000000099999999999999999PAO GOVT OF AP Hyderabad salary    STATE BANK OF INDIA SECRETARIAT    58101E12                        Kollu Varadaraju                   BC COOP FIN CORP LTD - AP VC        ANDB00005858101E12                           URGENT  Kollu Varadaraju         58101E12        
R41581001E12       000000000300000000000000000000000099999999999999999PAO GOVT OF AP Hyderabad salary    STATE BANK OF INDIA SECRETARIAT    581001E12                       Ankadi Peddiraju                   BC COOP FIN CORP LTD - AP VC        ANDB000058581001E12                          URGENT  Ankadi Peddiraju         581001E12       
R4158101E12        000000000300000000000000000000000099999999999999999PAO GOVT OF AP Hyderabad salary    STATE BANK OF INDIA SECRETARIAT    58101E12                        Ankani Srinivasarao                BC COOP FIN CORP LTD - AP VC        ANDB00005858101E12                           URGENT  Ankani Srinivasarao      58101E12        
R4158101E12        000000000300000000000000000000000099999999999999999PAO GOVT OF AP Hyderabad salary    STATE BANK OF INDIA SECRETARIAT    58101E12                        Sangani Nageswara Rao              BC COOP FIN CORP LTD - AP VC        ANDB00005858101E12                           URGENT  Sangani Nageswara Rao    58101E12        
R41581002E12       000000000300000000000000000000000099999999999999999PAO GOVT OF AP Hyderabad salary    STATE BANK OF INDIA SECRETARIAT    581002E12                       Koppadi Satyanarayana              BC COOP FIN CORP LTD - AP VC        ANDB000058581002E12                          URGENT  Koppadi Satyanarayana    581002E12       
R4158101E12        000000000300000000000000000000000099999999999999999PAO GOVT OF AP Hyderabad salary    STATE BANK OF INDIA SECRETARIAT    58101E12                        Pantani Narasimhaswami             BC COOP FIN CORP LTD - AP VC        ANDB00005858101E12                           URGENT  Pantani Narasimhaswami   58101E12        
R41581002E12       000000000300000000000000000000000099999999999999999PAO GOVT OF AP Hyderabad salary    STATE BANK OF INDIA SECRETARIAT    581002E12                       Koppadi Suryanarayana              BC COOP FIN CORP LTD - AP VC        ANDB000058581002E12                          URGENT  Koppadi Suryanarayana    581002E12       
R41581002E12       000000000300000000000000000000000099999999999999999PAO GOVT OF AP Hyderabad salary    STATE BANK OF INDIA SECRETARIAT    581002E12                       Koppadi Ramakrishna                BC COOP FIN CORP LTD - AP VC        ANDB000058581002E12                          URGENT  Koppadi Ramakrishna      581002E12       
R4158101E12        000000000300000000000000000000000099999999999999999PAO GOVT OF AP Hyderabad salary    STATE BANK OF INDIA SECRETARIAT    58101E12                        Koppadi Nagalakshmi                BC COOP FIN CORP LTD - AP VC        ANDB00005858101E12                           URGENT  Koppadi Nagalakshmi      58101E12        
R4158101E12        000000000300000000000000000000000099999999999999999PAO GOVT OF AP Hyderabad salary    STATE BANK OF INDIA SECRETARIAT    58101E12                        Valudi Veeraju                     BC COOP FIN CORP LTD - AP VC        ANDB00005858101E12                           URGENT  Valudi Veeraju           58101E12        
R4158101E12        000000000300000000000000000000000099999999999999999PAO GOVT OF AP Hyderabad salary    STATE BANK OF INDIA SECRETARIAT    58101E12                        Kollu Satyanarayana                BC COOP FIN CORP LTD - AP VC        ANDB00005858101E12                           URGENT  Kollu Satyanarayana      58101E12        
R41581002E12       000000000300000000000000000000000099999999999999999PAO GOVT OF AP Hyderabad salary    STATE BANK OF INDIA SECRETARIAT    581002E12                       Koppadi V V Satyanarayana          BC COOP FIN CORP LTD - AP VC        ANDB000058581002E12                          URGENT  Koppadi V V Satyanarayana581002E12       
R4158101E12        000000000300000000000000000000000099999999999999999PAO GOVT OF AP Hyderabad salary    STATE BANK OF INDIA SECRETARIAT    58101E12                        Ankadi Edukondalu                  BC COOP FIN CORP LTD - AP VC        ANDB00005858101E12                           URGENT  Ankadi Edukondalu        58101E12        
R4158101E12        000000000300000000000000000000000099999999999999999PAO GOVT OF AP Hyderabad salary    STATE BANK OF INDIA SECRETARIAT    58101E12                        Koppadi Srinivasarao               BC COOP FIN CORP LTD - AP VC        ANDB00005858101E12                           URGENT  Koppadi Srinivasarao     58101E12        
R41581002E12       000000000300000000000000000000000099999999999999999PAO GOVT OF AP Hyderabad salary    STATE BANK OF INDIA SECRETARIAT    581002E12                       Karadi Srinivasarao                BC COOP FIN CORP LTD - AP VC        ANDB000058581002E12                          URGENT  Karadi Srinivasarao      581002E12       
R4158101E12        000000000300000000000000000000000099999999999999999PAO GOVT OF AP Hyderabad salary    STATE BANK OF INDIA SECRETARIAT    58101E12                        Koppadi Durgarao                   BC COOP FIN CORP LTD - AP VC        ANDB00005858101E12                           URGENT  Koppadi Durgarao         58101E12        
R4158101E12        000000000300000000000000000000000099999999999999999PAO GOVT OF AP Hyderabad salary    STATE BANK OF INDIA SECRETARIAT    58101E12                        Vatadi Sita Ramayya                BC COOP FIN CORP LTD - AP VC        ANDB00005858101E12                           URGENT  Vatadi Sita Ramayya      58101E12        
R41581001E12       000000000300000000000000000000000099999999999999999PAO GOVT OF AP Hyderabad salary    STATE BANK OF INDIA SECRETARIAT    581001E12                       Kolli Srinivasarao                 BC COOP FIN CORP LTD - AP VC        ANDB000058581001E12                          URGENT  Kolli Srinivasarao       581001E12       
R4158101E12        000000000300000000000000000000000099999999999999999PAO GOVT OF AP Hyderabad salary    STATE BANK OF INDIA SECRETARIAT    58101E12                        Pantani China Nanchari             BC COOP FIN CORP LTD - AP VC        ANDB00005858101E12                           URGENT  Pantani China Nanchari   58101E12        
R4158101E12        000000000300000000000000000000000099999999999999999PAO GOVT OF AP Hyderabad salary    STATE BANK OF INDIA SECRETARIAT    58101E12                        Vatadi Pullayya                    BC COOP FIN CORP LTD - AP VC        ANDB00005858101E12                           URGENT  Vatadi Pullayya          58101E12        
R4158101E12        000000000300000000000000000000000099999999999999999PAO GOVT OF AP Hyderabad salary    STATE BANK OF INDIA SECRETARIAT    58101E12                        Maila Satyanarayana                BC COOP FIN CORP LTD - AP VC        ANDB00005858101E12                           URGENT  Maila Satyanarayana      58101E12        
R4158101E12        000000000300000000000000000000000099999999999999999PAO GOVT OF AP Hyderabad salary    STATE BANK OF INDIA SECRETARIAT    58101E12                        Vaidadi Suryanarayana              BC COOP FIN CORP LTD - AP VC        ANDB00005858101E12                           URGENT  Vaidadi Suryanarayana    58101E12        
R4158101E12        000000000300000000000000000000000099999999999999999PAO GOVT OF AP Hyderabad salary    STATE BANK OF INDIA SECRETARIAT    58101E12                        Koppadi Sarveswararao              BC COOP FIN CORP LTD - AP VC        ANDB00005858101E12                           URGENT  Koppadi Sarveswararao    58101E12        
R4158101E12        000000000300000000000000000000000099999999999999999PAO GOVT OF AP Hyderabad salary    STATE BANK OF INDIA SECRETARIAT    58101E12                        Vatadi Gopalarao                   BC COOP FIN CORP LTD - AP VC        ANDB00005858101E12                           URGENT  Vatadi Gopalarao         58101E12        
R4158101E12        000000000300000000000000000000000099999999999999999PAO GOVT OF AP Hyderabad salary    STATE BANK OF INDIA SECRETARIAT    58101E12                        Voleti Ramarao                     BC COOP FIN CORP LTD - AP VC        ANDB00005858101E12                           URGENT  Voleti Ramarao           58101E12        
R4158101E12        000000000300000000000000000000000099999999999999999PAO GOVT OF AP Hyderabad salary    STATE BANK OF INDIA SECRETARIAT    58101E12                        Koppadi Satyanarayana              BC COOP FIN CORP LTD - AP VC        ANDB00005858101E12                           URGENT  Koppadi Satyanarayana    58101E12        
R4158101E12        000000000300000000000000000000000099999999999999999PAO GOVT OF AP Hyderabad salary    STATE BANK OF INDIA SECRETARIAT    58101E12                        Karadi Nandeswarudu                BC COOP FIN CORP LTD - AP VC        ANDB00005858101E12                           URGENT  Karadi Nandeswarudu      58101E12        
R4158101E12        000000000300000000000000000000000099999999999999999PAO GOVT OF AP Hyderabad salary    STATE BANK OF INDIA SECRETARIAT    58101E12                        Pessing Pundari Kakshudu           BC COOP FIN CORP LTD - AP VC        ANDB00005858101E12                           URGENT  Pessing Pundari Kakshudu 58101E12        
R4158101E12        000000000300000000000000000000000099999999999999999PAO GOVT OF AP Hyderabad salary    STATE BANK OF INDIA SECRETARIAT    58101E12                        Kollu Venkateswarlu                BC COOP FIN CORP LTD - AP VC        ANDB00005858101E12                           URGENT  Kollu Venkateswarlu      58101E12        
R4158101E12        000000000300000000000000000000000099999999999999999PAO GOVT OF AP Hyderabad salary    STATE BANK OF INDIA SECRETARIAT    58101E12                        Voleti Srinu                       BC COOP FIN CORP LTD - AP VC        ANDB00005858101E12                           URGENT  Voleti Srinu             58101E12        
R4158101E12        000000000300000000000000000000000099999999999999999PAO GOVT OF AP Hyderabad salary    STATE BANK OF INDIA SECRETARIAT    58101E12                        Koppadi Krishna                    BC COOP FIN CORP LTD - AP VC        ANDB00005858101E12                           URGENT  Koppadi Krishna          58101E12        
R4158101E12        000000000300000000000000000000000099999999999999999PAO GOVT OF AP Hyderabad salary    STATE BANK OF INDIA SECRETARIAT    58101E12                        Lanke Srinubabu                    BC COOP FIN CORP LTD - AP VC        ANDB00005858101E12                           URGENT  Lanke Srinubabu          58101E12        
R4158101E12        000000000300000000000000000000000099999999999999999PAO GOVT OF AP Hyderabad salary    STATE BANK OF INDIA SECRETARIAT    58101E12                        Lanke Nandikeswararao              BC COOP FIN CORP LTD - AP VC        ANDB00005858101E12                           URGENT  Lanke Nandikeswararao    58101E12        
R4158101E12        000000000300000000000000000000000099999999999999999PAO GOVT OF AP Hyderabad salary    STATE BANK OF INDIA SECRETARIAT    58101E12                        Pantani Srinu                      BC COOP FIN CORP LTD - AP VC        ANDB00005858101E12                           URGENT  Pantani Srinu            58101E12        
R4158101E12        000000000300000000000000000000000099999999999999999PAO GOVT OF AP Hyderabad salary    STATE BANK OF INDIA SECRETARIAT    58101E12                        Kollu Venkanna                     BC COOP FIN CORP LTD - AP VC        ANDB00005858101E12                           URGENT  Kollu Venkanna           58101E12        
R4158101E12        000000000300000000000000000000000099999999999999999PAO GOVT OF AP Hyderabad salary    STATE BANK OF INDIA SECRETARIAT    58101E12                        Sangani Pothuraju                  BC COOP FIN CORP LTD - AP VC        ANDB00005858101E12                           URGENT  Sangani Pothuraju        58101E12        
R4158101E12        000000000300000000000000000000000099999999999999999PAO GOVT OF AP Hyderabad salary    STATE BANK OF INDIA SECRETARIAT    58101E12                        Pantani Ramakrishna                BC COOP FIN CORP LTD - AP VC        ANDB00005858101E12                           URGENT  Pantani Ramakrishna      58101E12        
R4158101E12        000000000300000000000000000000000099999999999999999PAO GOVT OF AP Hyderabad salary    STATE BANK OF INDIA SECRETARIAT    58101E12                        Koppadi Rambabu                    BC COOP FIN CORP LTD - AP VC        ANDB00005858101E12                           URGENT  Koppadi Rambabu          58101E12        
R41581002E12       000000000300000000000000000000000099999999999999999PAO GOVT OF AP Hyderabad salary    STATE BANK OF INDIA SECRETARIAT    581002E12                       Lanke Srinivasarao                 BC COOP FIN CORP LTD - AP VC        ANDB000058581002E12                          URGENT  Lanke Srinivasarao       581002E12       
R4158101E12        000000000300000000000000000000000099999999999999999PAO GOVT OF AP Hyderabad salary    STATE BANK OF INDIA SECRETARIAT    58101E12                        Sandadi Yedukondalu                BC COOP FIN CORP LTD - AP VC        ANDB00005858101E12                           URGENT  Sandadi Yedukondalu      58101E12        
R4158101E12        000000000300000000000000000000000099999999999999999PAO GOVT OF AP Hyderabad salary    STATE BANK OF INDIA SECRETARIAT    58101E12                        Vatadi Mallikharjunarao            BC COOP FIN CORP LTD - AP VC        ANDB00005858101E12                           URGENT  Vatadi Mallikharjunarao  58101E12        
R41581002E12       000000000300000000000000000000000099999999999999999PAO GOVT OF AP Hyderabad salary    STATE BANK OF INDIA SECRETARIAT    581002E12                       Seru Yedukondalu                   BC COOP FIN CORP LTD - AP VC        ANDB000058581002E12                          URGENT  Seru Yedukondalu         581002E12       
R4158101E12        000000000300000000000000000000000099999999999999999PAO GOVT OF AP Hyderabad salary    STATE BANK OF INDIA SECRETARIAT    58101E12                        Vatadi Nageswara Rao               BC COOP FIN CORP LTD - AP VC        ANDB00005858101E12                           URGENT  Vatadi Nageswara Rao     58101E12        
R4158101E12        000000000300000000000000000000000099999999999999999PAO GOVT OF AP Hyderabad salary    STATE BANK OF INDIA SECRETARIAT    58101E12                        Koppadi Edukondalu                 BC COOP FIN CORP LTD - AP VC        ANDB00005858101E12                           URGENT  Koppadi Edukondalu       58101E12        
R4158101E12        000000000300000000000000000000000099999999999999999PAO GOVT OF AP Hyderabad salary    STATE BANK OF INDIA SECRETARIAT    58101E12                        Koppadi Satyanarayana              BC COOP FIN CORP LTD - AP VC        ANDB00005858101E12                           URGENT  Koppadi Satyanarayana    58101E12        
R4158101E12        000000000300000000000000000000000099999999999999999PAO GOVT OF AP Hyderabad salary    STATE BANK OF INDIA SECRETARIAT    58101E12                        Koppadi Satyanarayana              BC COOP FIN CORP LTD - AP VC        ANDB00005858101E12                           URGENT  Koppadi Satyanarayana    58101E12        
R4177101E12        000000000250000000000000000000000099999999999999999PAO GOVT OF AP Hyderabad salary    STATE BANK OF INDIA SECRETARIAT    77101E12                        Shaik Mastan Bi                    BC COOP FIN CORP LTD - AP VC       ANDB000007777101E12                           URGENT  Shaik Mastan Bi          77101E12        
R4177101E12        000000000250000000000000000000000099999999999999999PAO GOVT OF AP Hyderabad salary    STATE BANK OF INDIA SECRETARIAT    77101E12                        Shaik Mula Saheb                   BC COOP FIN CORP LTD - AP VC       ANDB000007777101E12                           URGENT  Shaik Mula Saheb         77101E12        
R4177101E12        000000000250000000000000000000000099999999999999999PAO GOVT OF AP Hyderabad salary    STATE BANK OF INDIA SECRETARIAT    77101E12                        Shaik Bajivali                     BC COOP FIN CORP LTD - AP VC       ANDB000007777101E12                           URGENT  Shaik Bajivali           77101E12        
R4177101E12        000000000250000000000000000000000099999999999999999PAO GOVT OF AP Hyderabad salary    STATE BANK OF INDIA SECRETARIAT    77101E12                        Koneti Nageswara Rao               BC COOP FIN CORP LTD - AP VC       ANDB000007777101E12                           URGENT  Koneti Nageswara Rao     77101E12        
R4177101E12        000000000250000000000000000000000099999999999999999PAO GOVT OF AP Hyderabad salary    STATE BANK OF INDIA SECRETARIAT    77101E12                        Peela Mangamma                     BC COOP FIN CORP LTD - AP VC       ANDB000007777101E12                           URGENT  Peela Mangamma           77101E12        
R4177101E12        000000000250000000000000000000000099999999999999999PAO GOVT OF AP Hyderabad salary    STATE BANK OF INDIA SECRETARIAT    77101E12                        Anukutram Srinivasarao             BC COOP FIN CORP LTD - AP VC       ANDB000007777101E12                           URGENT  Anukutram Srinivasarao   77101E12        
R41762301E13       000000000300000000000000000000000099999999999999999PAO GOVT OF AP Hyderabad salary    STATE BANK OF INDIA SECRETARIAT    762301E13                       Thatikayala Manohar                BC COOP FIN CORP LTD - AP VC       ANDB0000762762301E13                          URGENT  Thatikayala Manohar      762301E13       
R41762301E13       000000000300000000000000000000000099999999999999999PAO GOVT OF AP Hyderabad salary    STATE BANK OF INDIA SECRETARIAT    762301E13                       Dudekula Hussain Peera             BC COOP FIN CORP LTD - AP VC       ANDB0000762762301E13                          URGENT  Dudekula Hussain Peera   762301E13       
R41762301E13       000000000300000000000000000000000099999999999999999PAO GOVT OF AP Hyderabad salary    STATE BANK OF INDIA SECRETARIAT    762301E13                       Mullagurthi Linganna               BC COOP FIN CORP LTD - AP VC       ANDB0000762762301E13                          URGENT  Mullagurthi Linganna     762301E13       
R41762301E13       000000000300000000000000000000000099999999999999999PAO GOVT OF AP Hyderabad salary    STATE BANK OF INDIA SECRETARIAT    762301E13                       Talari Chandrasekhar               BC COOP FIN CORP LTD - AP VC       ANDB0000762762301E13                          URGENT  Talari Chandrasekhar     762301E13       
R4115591E14        000000000500000000000000000000000099999999999999999PAO GOVT OF AP Hyderabad salary    STATE BANK OF INDIA SECRETARIAT    15591E14                        Maddukuri Sivaprasad               BC COOP FIN CORP LTD - AP VC       ANDB000155915591E14                           URGENT  Maddukuri Sivaprasad     15591E14        
R41137101E13       000000000300000000000000000000000099999999999999999PAO GOVT OF AP Hyderabad salary    STATE BANK OF INDIA SECRETARIAT    137101E13                       Varre Shivaramakrishna             BC COOP FIN CORP LTD - AP VC       ANDB0000137137101E13                          URGENT  Varre Shivaramakrishna   137101E13       
R4110381E14        000000000500000000000000000000000099999999999999999PAO GOVT OF AP Hyderabad salary    STATE BANK OF INDIA SECRETARIAT    10381E14                        Godla Veeti Prasad                 BC COOP FIN CORP LTD - AP VC       ANDB000103810381E14                           URGENT  Godla Veeti Prasad       10381E14        
R4110381E14        000000000500000000000000000000000099999999999999999PAO GOVT OF AP Hyderabad salary    STATE BANK OF INDIA SECRETARIAT    10381E14                        Bokarajomula Prasad                BC COOP FIN CORP LTD - AP VC       ANDB000103810381E14                           URGENT  Bokarajomula Prasad      10381E14        
R4110381E14        000000000500000000000000000000000099999999999999999PAO GOVT OF AP Hyderabad salary    STATE BANK OF INDIA SECRETARIAT    10381E14                        Chilaka Kashaiah                   BC COOP FIN CORP LTD - AP VC       ANDB000103810381E14                           URGENT  Chilaka Kashaiah         10381E14        
R41696101E13       000000000300000000000000000000000099999999999999999PAO GOVT OF AP Hyderabad salary    STATE BANK OF INDIA SECRETARIAT    696101E13                       Guntupalli Sujata                  BC COOP FIN CORP LTD - AP VC       ANDB0000696696101E13                          URGENT  Guntupalli Sujata        696101E13       
R4117521E14        000000000300000000000000000000000099999999999999999PAO GOVT OF AP Hyderabad salary    STATE BANK OF INDIA SECRETARIAT    17521E14                        Sinohe Radhabai                    BC COOP FIN CORP LTD - AP VC       ANDB000175217521E14                           URGENT  Sinohe Radhabai          17521E14        
R4110393E14        000000000500000000000000000000000099999999999999999PAO GOVT OF AP Hyderabad salary    STATE BANK OF INDIA SECRETARIAT    10393E14                        Bhapana Palle Chinna Gurappa       BC COOP FIN CORP LTD - AP VC       ANDB000103910393E14                           URGENT  Bhapana Palle Chinna Gura10393E14        
R4110393E14        000000000500000000000000000000000099999999999999999PAO GOVT OF AP Hyderabad salary    STATE BANK OF INDIA SECRETARIAT    10393E14                        Kummara Guru Mohan                 BC COOP FIN CORP LTD - AP VC       ANDB000103910393E14                           URGENT  Kummara Guru Mohan       10393E14        
R4110393E14        000000000500000000000000000000000099999999999999999PAO GOVT OF AP Hyderabad salary    STATE BANK OF INDIA SECRETARIAT    10393E14                        Shivaiah                           BC COOP FIN CORP LTD - AP VC       ANDB000103910393E14                           URGENT  Shivaiah                 10393E14        
R4110393E14        000000000500000000000000000000000099999999999999999PAO GOVT OF AP Hyderabad salary    STATE BANK OF INDIA SECRETARIAT    10393E14                        Talari Hanumanthu                  BC COOP FIN CORP LTD - AP VC       ANDB000103910393E14                           URGENT  Talari Hanumanthu        10393E14        
R4110393E14        000000000500000000000000000000000099999999999999999PAO GOVT OF AP Hyderabad salary    STATE BANK OF INDIA SECRETARIAT    10393E14                        Kalangi Subbarayudu                BC COOP FIN CORP LTD - AP VC       ANDB000103910393E14                           URGENT  Kalangi Subbarayudu      10393E14        
R4110393E14        000000000500000000000000000000000099999999999999999PAO GOVT OF AP Hyderabad salary    STATE BANK OF INDIA SECRETARIAT    10393E14                        Mangala Suresh                     BC COOP FIN CORP LTD - AP VC       ANDB000103910393E14                           URGENT  Mangala Suresh           10393E14        
R4110393E14        000000000500000000000000000000000099999999999999999PAO GOVT OF AP Hyderabad salary    STATE BANK OF INDIA SECRETARIAT    10393E14                        Akkala Mallikarjuna                BC COOP FIN CORP LTD - AP VC       ANDB000103910393E14                           URGENT  Akkala Mallikarjuna      10393E14        
R4110393E14        000000000500000000000000000000000099999999999999999PAO GOVT OF AP Hyderabad salary    STATE BANK OF INDIA SECRETARIAT    10393E14                        Madduri Sanjeevarayudu             BC COOP FIN CORP LTD - AP VC       ANDB000103910393E14                           URGENT  Madduri Sanjeevarayudu   10393E14        
R4114021E14        000000000300000000000000000000000099999999999999999PAO GOVT OF AP Hyderabad salary    STATE BANK OF INDIA SECRETARIAT    14021E14                        Chekatlla Suribabu                 BC COOP FIN CORP LTD - AP VC       ANDB000140214021E14                           URGENT  Chekatlla Suribabu       14021E14        
R41336101E13       000000000500000000000000000000000099999999999999999PAO GOVT OF AP Hyderabad salary    STATE BANK OF INDIA SECRETARIAT    336101E13                       Rachakonda Siva Nagalakshmi        BC COOP FIN CORP LTD - AP VC       ANDB0000336336101E13                          URGENT  Rachakonda Siva Nagalaksh336101E13       
R41809101E13       000000000350000000000000000000000099999999999999999PAO GOVT OF AP Hyderabad salary    STATE BANK OF INDIA SECRETARIAT    809101E13                       Mekala Srinivasulu                 BC COOP FIN CORP LTD - AP VC       ANDB0000809809101E13                          URGENT  Mekala Srinivasulu       809101E13       
R41905101E13       000000000300000000000000000000000099999999999999999PAO GOVT OF AP Hyderabad salary    STATE BANK OF INDIA SECRETARIAT    905101E13                       Lukka Tulasipadmavthi              BC COOP FIN CORP LTD - AP VC       ANDB0000905905101E13                          URGENT  Lukka Tulasipadmavthi    905101E13       
R41905101E13       000000000300000000000000000000000099999999999999999PAO GOVT OF AP Hyderabad salary    STATE BANK OF INDIA SECRETARIAT    905101E13                       Gadda Narasimharao                 BC COOP FIN CORP LTD - AP VC       ANDB0000905905101E13                          URGENT  Gadda Narasimharao       905101E13       
R41905101E13       000000000300000000000000000000000099999999999999999PAO GOVT OF AP Hyderabad salary    STATE BANK OF INDIA SECRETARIAT    905101E13                       Meka Kanta Rao                     BC COOP FIN CORP LTD - AP VC       ANDB0000905905101E13                          URGENT  Meka Kanta Rao           905101E13       
R41905101E13       000000000300000000000000000000000099999999999999999PAO GOVT OF AP Hyderabad salary    STATE BANK OF INDIA SECRETARIAT    905101E13                       Yenumula Veralakshmi               BC COOP FIN CORP LTD - AP VC       ANDB0000905905101E13                          URGENT  Yenumula Veralakshmi     905101E13       
R41905101E13       000000000300000000000000000000000099999999999999999PAO GOVT OF AP Hyderabad salary    STATE BANK OF INDIA SECRETARIAT    905101E13                       Morla Srinivasa Rao                BC COOP FIN CORP LTD - AP VC       ANDB0000905905101E13                          URGENT  Morla Srinivasa Rao      905101E13       
R41905101E13       000000000300000000000000000000000099999999999999999PAO GOVT OF AP Hyderabad salary    STATE BANK OF INDIA SECRETARIAT    905101E13                       Addanki Krishna Manohar            BC COOP FIN CORP LTD - AP VC       ANDB0000905905101E13                          URGENT  Addanki Krishna Manohar  905101E13       
R41905101E13       000000000300000000000000000000000099999999999999999PAO GOVT OF AP Hyderabad salary    STATE BANK OF INDIA SECRETARIAT    905101E13                       Gurram Nancharamma                 BC COOP FIN CORP LTD - AP VC       ANDB0000905905101E13                          URGENT  Gurram Nancharamma       905101E13       
R4115811E14        000000000300000000000000000000000099999999999999999PAO GOVT OF AP Hyderabad salary    STATE BANK OF INDIA SECRETARIAT    15811E14                        Jajula Koteswararao                BC COOP FIN CORP LTD - AP VC       ANDB000158115811E14                           URGENT  Jajula Koteswararao      15811E14        
R4110351E14        000000000300000000000000000000000099999999999999999PAO GOVT OF AP Hyderabad salary    STATE BANK OF INDIA SECRETARIAT    10351E14                        Salika Narasimharao                BC COOP FIN CORP LTD - AP VC       ANDB000103510351E14                           URGENT  Salika Narasimharao      10351E14        
R4110351E14        000000000300000000000000000000000099999999999999999PAO GOVT OF AP Hyderabad salary    STATE BANK OF INDIA SECRETARIAT    10351E14                        Chentala Pudi Sobhan               BC COOP FIN CORP LTD - AP VC       ANDB000103510351E14                           URGENT  Chentala Pudi Sobhan     10351E14        
R4110351E14        000000000300000000000000000000000099999999999999999PAO GOVT OF AP Hyderabad salary    STATE BANK OF INDIA SECRETARIAT    10351E14                        Kondamuddi Nageswarrao             BC COOP FIN CORP LTD - AP VC       ANDB000103510351E14                           URGENT  Kondamuddi Nageswarrao   10351E14        
R4110351E14        000000000250000000000000000000000099999999999999999PAO GOVT OF AP Hyderabad salary    STATE BANK OF INDIA SECRETARIAT    10351E14                        Chemaladenna Nagumaiah             BC COOP FIN CORP LTD - AP VC       ANDB000103510351E14                           URGENT  Chemaladenna Nagumaiah   10351E14        
R4110351E14        000000000250000000000000000000000099999999999999999PAO GOVT OF AP Hyderabad salary    STATE BANK OF INDIA SECRETARIAT    10351E14                        Cheemaladinne Mallikharjuna        BC COOP FIN CORP LTD - AP VC       ANDB000103510351E14                           URGENT  Cheemaladinne Mallikharju10351E14        
R4110351E14        000000000300000000000000000000000099999999999999999PAO GOVT OF AP Hyderabad salary    STATE BANK OF INDIA SECRETARIAT    10351E14                        Chemaladinne Srinivasarao          BC COOP FIN CORP LTD - AP VC       ANDB000103510351E14                           URGENT  Chemaladinne Srinivasarao10351E14        
R4110351E14        000000000250000000000000000000000099999999999999999PAO GOVT OF AP Hyderabad salary    STATE BANK OF INDIA SECRETARIAT    10351E14                        Gatta Nagaraja Kumary              BC COOP FIN CORP LTD - AP VC       ANDB000103510351E14                           URGENT  Gatta Nagaraja Kumary    10351E14        
R4110351E14        000000000300000000000000000000000099999999999999999PAO GOVT OF AP Hyderabad salary    STATE BANK OF INDIA SECRETARIAT    10351E14                        Veligonda Gopikrishnarao           BC COOP FIN CORP LTD - AP VC       ANDB000103510351E14                           URGENT  Veligonda Gopikrishnarao 10351E14        
R4110351E14        000000000300000000000000000000000099999999999999999PAO GOVT OF AP Hyderabad salary    STATE BANK OF INDIA SECRETARIAT    10351E14                        Veligonda Sivaparvathi             BC COOP FIN CORP LTD - AP VC       ANDB000103510351E14                           URGENT  Veligonda Sivaparvathi   10351E14        
R4110351E14        000000000300000000000000000000000099999999999999999PAO GOVT OF AP Hyderabad salary    STATE BANK OF INDIA SECRETARIAT    10351E14                        Kondamudi Venugopal                BC COOP FIN CORP LTD - AP VC       ANDB000103510351E14                           URGENT  Kondamudi Venugopal      10351E14        
R4110351E14        000000000250000000000000000000000099999999999999999PAO GOVT OF AP Hyderabad salary    STATE BANK OF INDIA SECRETARIAT    10351E14                        Modukuru Srinivasarao              BC COOP FIN CORP LTD - AP VC       ANDB000103510351E14                           URGENT  Modukuru Srinivasarao    10351E14        
R4110351E14        000000000250000000000000000000000099999999999999999PAO GOVT OF AP Hyderabad salary    STATE BANK OF INDIA SECRETARIAT    10351E14                        Karnati Gandhi                     BC COOP FIN CORP LTD - AP VC       ANDB000103510351E14                           URGENT  Karnati Gandhi           10351E14        
R4110351E14        000000000250000000000000000000000099999999999999999PAO GOVT OF AP Hyderabad salary    STATE BANK OF INDIA SECRETARIAT    10351E14                        Shaik Moulali                      BC COOP FIN CORP LTD - AP VC       ANDB000103510351E14                           URGENT  Shaik Moulali            10351E14        
R4110351E14        000000000250000000000000000000000099999999999999999PAO GOVT OF AP Hyderabad salary    STATE BANK OF INDIA SECRETARIAT    10351E14                        Thadichetti Srinivasarao           BC COOP FIN CORP LTD - AP VC       ANDB000103510351E14                           URGENT  Thadichetti Srinivasarao 10351E14        
R4116251E14        000000000300000000000000000000000099999999999999999PAO GOVT OF AP Hyderabad salary    STATE BANK OF INDIA SECRETARIAT    16251E14                        C Srinivasulu                      BC COOP FIN CORP LTD - AP VC       ANDB000162516251E14                           URGENT  C Srinivasulu            16251E14        
R4116251E14        000000000300000000000000000000000099999999999999999PAO GOVT OF AP Hyderabad salary    STATE BANK OF INDIA SECRETARIAT    16251E14                        Agaduru Gangadara                  BC COOP FIN CORP LTD - AP VC       ANDB000162516251E14                           URGENT  Agaduru Gangadara        16251E14        
R4116251E14        000000000250000000000000000000000099999999999999999PAO GOVT OF AP Hyderabad salary    STATE BANK OF INDIA SECRETARIAT    16251E14                        Kambam Srinivasulu                 BC COOP FIN CORP LTD - AP VC       ANDB000162516251E14                           URGENT  Kambam Srinivasulu       16251E14        
R4116251E14        000000000300000000000000000000000099999999999999999PAO GOVT OF AP Hyderabad salary    STATE BANK OF INDIA SECRETARIAT    16251E14                        Kaluvapalli Srinivasulu            BC COOP FIN CORP LTD - AP VC       ANDB000162516251E14                           URGENT  Kaluvapalli Srinivasulu  16251E14        
R4116251E14        000000000300000000000000000000000099999999999999999PAO GOVT OF AP Hyderabad salary    STATE BANK OF INDIA SECRETARIAT    16251E14                        Sujana                             BC COOP FIN CORP LTD - AP VC       ANDB000162516251E14                           URGENT  Sujana                   16251E14        
R4116251E14        000000000300000000000000000000000099999999999999999PAO GOVT OF AP Hyderabad salary    STATE BANK OF INDIA SECRETARIAT    16251E14                        Chtti Boiana 13eswaramma           BC COOP FIN CORP LTD - AP VC       ANDB000162516251E14                           URGENT  Chtti Boiana 13eswaramma 16251E14        
R41381101E13       000000000300000000000000000000000099999999999999999PAO GOVT OF AP Hyderabad salary    STATE BANK OF INDIA SECRETARIAT    381101E13                       Chintala Ramesh Babu               BC COOP FIN CORP LTD - AP VC       ANDB0000381381101E13                          URGENT  Chintala Ramesh Babu     381101E13       
R41381101E13       000000000300000000000000000000000099999999999999999PAO GOVT OF AP Hyderabad salary    STATE BANK OF INDIA SECRETARIAT    381101E13                       Lingala Venkatanageswararao        BC COOP FIN CORP LTD - AP VC       ANDB0000381381101E13                          URGENT  Lingala Venkatanageswarar381101E13       
R41381101E13       000000000300000000000000000000000099999999999999999PAO GOVT OF AP Hyderabad salary    STATE BANK OF INDIA SECRETARIAT    381101E13                       Lingala Akkaiah                    BC COOP FIN CORP LTD - AP VC       ANDB0000381381101E13                          URGENT  Lingala Akkaiah          381101E13       
R41381101E13       000000000300000000000000000000000099999999999999999PAO GOVT OF AP Hyderabad salary    STATE BANK OF INDIA SECRETARIAT    381101E13                       Gadde Siva Shankar                 BC COOP FIN CORP LTD - AP VC       ANDB0000381381101E13                          URGENT  Gadde Siva Shankar       381101E13       
R41452101E13       000000000250000000000000000000000099999999999999999PAO GOVT OF AP Hyderabad salary    STATE BANK OF INDIA SECRETARIAT    452101E13                       Tanguturu Rojaramani               BC COOP FIN CORP LTD - AP VC       ANDB0000452452101E13                          URGENT  Tanguturu Rojaramani     452101E13       
R41182101E13       000000000300000000000000000000000099999999999999999PAO GOVT OF AP Hyderabad salary    STATE BANK OF INDIA SECRETARIAT    182101E13                       Chintha Srinivasa Rao              BC COOP FIN CORP LTD - AP VC       ANDB0000182182101E13                          URGENT  Chintha Srinivasa Rao    182101E13       
R41933101E13       000000000200000000000000000000000099999999999999999PAO GOVT OF AP Hyderabad salary    STATE BANK OF INDIA SECRETARIAT    933101E13                       Aane Ananthalakshmi                BC COOP FIN CORP LTD - AP VC       ANDB0000933933101E13                          URGENT  Aane Ananthalakshmi      933101E13       
R41511101E13       000000000300000000000000000000000099999999999999999PAO GOVT OF AP Hyderabad salary    STATE BANK OF INDIA SECRETARIAT    511101E13                       Karri Venkatarao                   BC COOP FIN CORP LTD - AP VC       ANDB0000511511101E13                          URGENT  Karri Venkatarao         511101E13       
R4110181E14        000000000500000000000000000000000099999999999999999PAO GOVT OF AP Hyderabad salary    STATE BANK OF INDIA SECRETARIAT    10181E14                        Kadiyam  Ramakrishna               BC COOP FIN CORP LTD - AP VC       ANDB000101810181E14                           URGENT  Kadiyam  Ramakrishna     10181E14        
R41561101E13       000000000400000000000000000000000099999999999999999PAO GOVT OF AP Hyderabad salary    STATE BANK OF INDIA SECRETARIAT    561101E13                       K Appala Naidu                     BC COOP FIN CORP LTD - AP VC       ANDB0000561561101E13                          URGENT  K Appala Naidu           561101E13       
R41561101E13       000000000300000000000000000000000099999999999999999PAO GOVT OF AP Hyderabad salary    STATE BANK OF INDIA SECRETARIAT    561101E13                       Padma                              BC COOP FIN CORP LTD - AP VC       ANDB0000561561101E13                          URGENT  Padma                    561101E13       
R41561101E13       000000000300000000000000000000000099999999999999999PAO GOVT OF AP Hyderabad salary    STATE BANK OF INDIA SECRETARIAT    561101E13                       Gavireddy Appla Swamy              BC COOP FIN CORP LTD - AP VC       ANDB0000561561101E13                          URGENT  Gavireddy Appla Swamy    561101E13       
R41561101E13       000000000400000000000000000000000099999999999999999PAO GOVT OF AP Hyderabad salary    STATE BANK OF INDIA SECRETARIAT    561101E13                       Narayana Murthy                    BC COOP FIN CORP LTD - AP VC       ANDB0000561561101E13                          URGENT  Narayana Murthy          561101E13       
R41600101E13       000000000500000000000000000000000099999999999999999PAO GOVT OF AP Hyderabad salary    STATE BANK OF INDIA SECRETARIAT    600101E13                       Bolem Siva Rama Krishna Prasad     BC COOP FIN CORP LTD - AP VC       ANDB0000600600101E13                          URGENT  Bolem Siva Rama Krishna P600101E13       
R41600101E13       000000000500000000000000000000000099999999999999999PAO GOVT OF AP Hyderabad salary    STATE BANK OF INDIA SECRETARIAT    600101E13                       Annapureddy Sambasivarao           BC COOP FIN CORP LTD - AP VC       ANDB0000600600101E13                          URGENT  Annapureddy Sambasivarao 600101E13       
R41600101E13       000000000500000000000000000000000099999999999999999PAO GOVT OF AP Hyderabad salary    STATE BANK OF INDIA SECRETARIAT    600101E13                       Kagita Annapurna                   BC COOP FIN CORP LTD - AP VC       ANDB0000600600101E13                          URGENT  Kagita Annapurna         600101E13       
R41600101E13       000000000300000000000000000000000099999999999999999PAO GOVT OF AP Hyderabad salary    STATE BANK OF INDIA SECRETARIAT    600101E13                       Nemala Venkata Apparao             BC COOP FIN CORP LTD - AP VC       ANDB0000600600101E13                          URGENT  Nemala Venkata Apparao   600101E13       
R41600101E13       000000000400000000000000000000000099999999999999999PAO GOVT OF AP Hyderabad salary    STATE BANK OF INDIA SECRETARIAT    600101E13                       Bolem Venkata Lakshmi Narayana     BC COOP FIN CORP LTD - AP VC       ANDB0000600600101E13                          URGENT  Bolem Venkata Lakshmi Nar600101E13       
R41600101E13       000000000500000000000000000000000099999999999999999PAO GOVT OF AP Hyderabad salary    STATE BANK OF INDIA SECRETARIAT    600101E13                       Loya Srinivasa Rao                 BC COOP FIN CORP LTD - AP VC       ANDB0000600600101E13                          URGENT  Loya Srinivasa Rao       600101E13       
R41617101E13       000000000500000000000000000000000099999999999999999PAO GOVT OF AP Hyderabad salary    STATE BANK OF INDIA SECRETARIAT    617101E13                       Shaik Renuka                       BC COOP FIN CORP LTD - AP VC       ANDB0000617617101E13                          URGENT  Shaik Renuka             617101E13       
R41617101E13       000000000500000000000000000000000099999999999999999PAO GOVT OF AP Hyderabad salary    STATE BANK OF INDIA SECRETARIAT    617101E13                       Anupolu Santoshi                   BC COOP FIN CORP LTD - AP VC       ANDB0000617617101E13                          URGENT  Anupolu Santoshi         617101E13       
R41621101E13       000000000300000000000000000000000099999999999999999PAO GOVT OF AP Hyderabad salary    STATE BANK OF INDIA SECRETARIAT    621101E13                       Revu Lakshmi Kumari                BC COOP FIN CORP LTD - AP VC       ANDB0000621621101E13                          URGENT  Revu Lakshmi Kumari      621101E13       
R41597101E13       000000000300000000000000000000000099999999999999999PAO GOVT OF AP Hyderabad salary    STATE BANK OF INDIA SECRETARIAT    597101E13                       Udharu Chinna Lakshmaiah           BC COOP FIN CORP LTD - AP VC       ANDB0000597597101E13                          URGENT  Udharu Chinna Lakshmaiah 597101E13       
R41597101E13       000000000300000000000000000000000099999999999999999PAO GOVT OF AP Hyderabad salary    STATE BANK OF INDIA SECRETARIAT    597101E13                       Akrapu Lakshmi                     BC COOP FIN CORP LTD - AP VC       ANDB0000597597101E13                          URGENT  Akrapu Lakshmi           597101E13       
R41597101E13       000000000300000000000000000000000099999999999999999PAO GOVT OF AP Hyderabad salary    STATE BANK OF INDIA SECRETARIAT    597101E13                       Udaru Chinna Yalamandarao          BC COOP FIN CORP LTD - AP VC       ANDB0000597597101E13                          URGENT  Udaru Chinna Yalamandarao597101E13       
R4115631E14        000000000300000000000000000000000099999999999999999PAO GOVT OF AP Hyderabad salary    STATE BANK OF INDIA SECRETARIAT    15631E14                        Tam Butaka Priyanka                BC COOP FIN CORP LTD - AP VC       ANDB000156315631E14                           URGENT  Tam Butaka Priyanka      15631E14        
R4115631E14        000000000300000000000000000000000099999999999999999PAO GOVT OF AP Hyderabad salary    STATE BANK OF INDIA SECRETARIAT    15631E14                        Lakki Setty Suguna                 BC COOP FIN CORP LTD - AP VC       ANDB000156315631E14                           URGENT  Lakki Setty Suguna       15631E14        
R4119118023629     000000000350000000000000000000000099999999999999999PAO GOVT OF AP Hyderabad salary    STATE BANK OF INDIA SECRETARIAT    19118023629                     Tadi Eeswaramma                    BC COOP FIN CORP LTD - AP VC       APGB000508819118023629                        URGENT  Tadi Eeswaramma          19118023629     
R4191034273904     000000000350000000000000000000000099999999999999999PAO GOVT OF AP Hyderabad salary    STATE BANK OF INDIA SECRETARIAT    91034273904                     Dudekula Madarabi                  BC COOP FIN CORP LTD - AP VC       APGB000508891034273904                        URGENT  Dudekula Madarabi        91034273904     
R4191007189015     000000000350000000000000000000000099999999999999999PAO GOVT OF AP Hyderabad salary    STATE BANK OF INDIA SECRETARIAT    91007189015                     Lakshmidevi                        BC COOP FIN CORP LTD - AP VC       APGB000508891007189015                        URGENT  Lakshmidevi              91007189015     
R4191033290137     000000000250000000000000000000000099999999999999999PAO GOVT OF AP Hyderabad salary    STATE BANK OF INDIA SECRETARIAT    91033290137                     Goriga Nagaraju                    BC COOP FIN CORP LTD - AP VC       APGB000217491033290137                        URGENT  Goriga Nagaraju          91033290137     
R4191031708373     000000000500000000000000000000000099999999999999999PAO GOVT OF AP Hyderabad salary    STATE BANK OF INDIA SECRETARIAT    91031708373                     Gaddam Narasimharao                BC COOP FIN CORP LTD - AP VC       APGB000515991031708373                        URGENT  Gaddam Narasimharao      91031708373     
R4191037313899     000000000300000000000000000000000099999999999999999PAO GOVT OF AP Hyderabad salary    STATE BANK OF INDIA SECRETARIAT    91037313899                     Gade Nageswararao                  BC COOP FIN CORP LTD - AP VC       APGB000208391037313899                        URGENT  Gade Nageswararao        91037313899     
R4119039048199     000000000300000000000000000000000099999999999999999PAO GOVT OF AP Hyderabad salary    STATE BANK OF INDIA SECRETARIAT    19039048199                     Velapala Lalithamma                BC COOP FIN CORP LTD - AP VC       APGB000208319039048199                        URGENT  Velapala Lalithamma      19039048199     
R4191038509507     000000000300000000000000000000000099999999999999999PAO GOVT OF AP Hyderabad salary    STATE BANK OF INDIA SECRETARIAT    91038509507                     Gade Sudharani                     BC COOP FIN CORP LTD - AP VC       APGB000208391038509507                        URGENT  Gade Sudharani           91038509507     
R4191037066597     000000000300000000000000000000000099999999999999999PAO GOVT OF AP Hyderabad salary    STATE BANK OF INDIA SECRETARIAT    91037066597                     Ganugupenta Subbarayudu            BC COOP FIN CORP LTD - AP VC       APGB000208391037066597                        URGENT  Ganugupenta Subbarayudu  91037066597     
R4191023674193     000000000300000000000000000000000099999999999999999PAO GOVT OF AP Hyderabad salary    STATE BANK OF INDIA SECRETARIAT    91023674193                     PSuvarna                           BC COOP FIN CORP LTD - AP VC       APGB000217691023674193                        URGENT  PSuvarna                 91023674193     
R4119180517421     000000000300000000000000000000000099999999999999999PAO GOVT OF AP Hyderabad salary    STATE BANK OF INDIA SECRETARIAT    19180517421                     Guvala Lakshumma                   BC COOP FIN CORP LTD - AP VC       APGB000203819180517421                        URGENT  Guvala Lakshumma         19180517421     
R4191034632490     000000000300000000000000000000000099999999999999999PAO GOVT OF AP Hyderabad salary    STATE BANK OF INDIA SECRETARIAT    91034632490                     Polu Sujana                        BC COOP FIN CORP LTD - AP VC       APGB000203891034632490                        URGENT  Polu Sujana              91034632490     
R4191034378566     000000000300000000000000000000000099999999999999999PAO GOVT OF AP Hyderabad salary    STATE BANK OF INDIA SECRETARIAT    91034378566                     Yandam Radhamma                    BC COOP FIN CORP LTD - AP VC       APGB000205591034378566                        URGENT  Yandam Radhamma          91034378566     
R4191032483266     000000000350000000000000000000000099999999999999999PAO GOVT OF AP Hyderabad salary    STATE BANK OF INDIA SECRETARIAT    91032483266                     Kappatrala Narayana                BC COOP FIN CORP LTD - AP VC       APGB000508691032483266                        URGENT  Kappatrala Narayana      91032483266     
R4191032392606     000000000500000000000000000000000099999999999999999PAO GOVT OF AP Hyderabad salary    STATE BANK OF INDIA SECRETARIAT    91032392606                     Bhodhanam Nagamani                 BC COOP FIN CORP LTD - AP VC       APGB000505991032392606                        URGENT  Bhodhanam Nagamani       91032392606     
R4191053849433     000000000300000000000000000000000099999999999999999PAO GOVT OF AP Hyderabad salary    STATE BANK OF INDIA SECRETARIAT    91053849433                     DBalahussainaiah                   BC COOP FIN CORP LTD - AP VC       APGB000306191053849433                        URGENT  DBalahussainaiah         91053849433     
R4191053848791     000000000300000000000000000000000099999999999999999PAO GOVT OF AP Hyderabad salary    STATE BANK OF INDIA SECRETARIAT    91053848791                     Nagula Varam Nadipi Usenaiah       BC COOP FIN CORP LTD - AP VC       APGB000306191053848791                        URGENT  Nagula Varam Nadipi Usena91053848791     
R4191053849320     000000000300000000000000000000000099999999999999999PAO GOVT OF AP Hyderabad salary    STATE BANK OF INDIA SECRETARIAT    91053849320                     Chakali Lingamaiah                 BC COOP FIN CORP LTD - AP VC       APGB000306191053849320                        URGENT  Chakali Lingamaiah       91053849320     
R419105381099      000000000300000000000000000000000099999999999999999PAO GOVT OF AP Hyderabad salary    STATE BANK OF INDIA SECRETARIAT    9105381099                      Elukuri Rama Subbaiah Achari       BC COOP FIN CORP LTD - AP VC       APGB00030619105381099                         URGENT  Elukuri Rama Subbaiah Ach9105381099      
R4191053849193     000000000300000000000000000000000099999999999999999PAO GOVT OF AP Hyderabad salary    STATE BANK OF INDIA SECRETARIAT    91053849193                     Nagula Varam Bal Useni             BC COOP FIN CORP LTD - AP VC       APGB000306191053849193                        URGENT  Nagula Varam Bal Useni   91053849193     
R4191053848951     000000000300000000000000000000000099999999999999999PAO GOVT OF AP Hyderabad salary    STATE BANK OF INDIA SECRETARIAT    91053848951                     Arava Chinnamma                    BC COOP FIN CORP LTD - AP VC       APGB000306191053848951                        URGENT  Arava Chinnamma          91053848951     
R4191034116179     000000000300000000000000000000000099999999999999999PAO GOVT OF AP Hyderabad salary    STATE BANK OF INDIA SECRETARIAT    91034116179                     Palagiri Ligeswarudu               BC COOP FIN CORP LTD - AP VC       APGB000205791034116179                        URGENT  Palagiri Ligeswarudu     91034116179     
R4191053922903     000000000300000000000000000000000099999999999999999PAO GOVT OF AP Hyderabad salary    STATE BANK OF INDIA SECRETARIAT    91053922903                     Nakka Sumathi                      BC COOP FIN CORP LTD - AP VC       APGB000215891053922903                        URGENT  Nakka Sumathi            91053922903     
R4191033158268     000000000500000000000000000000000099999999999999999PAO GOVT OF AP Hyderabad salary    STATE BANK OF INDIA SECRETARIAT    91033158268                     Moruboina VenkatapadmanagalaxmikumaBC COOP FIN CORP LTD - AP VC       APGB000509991033158268                        URGENT  Moruboina Venkatapadmanag91033158268     
R4191032673596     000000000500000000000000000000000099999999999999999PAO GOVT OF AP Hyderabad salary    STATE BANK OF INDIA SECRETARIAT    91032673596                     Chakarajamula Chinna Brahmaiah     BC COOP FIN CORP LTD - AP VC       APGB000506891032673596                        URGENT  Chakarajamula Chinna Brah91032673596     
R4191033151239     000000000500000000000000000000000099999999999999999PAO GOVT OF AP Hyderabad salary    STATE BANK OF INDIA SECRETARIAT    91033151239                     Vuyyalawada Srinivasulu            BC COOP FIN CORP LTD - AP VC       APGB000506891033151239                        URGENT  Vuyyalawada Srinivasulu  91033151239     
R4119136025397     000000000350000000000000000000000099999999999999999PAO GOVT OF AP Hyderabad salary    STATE BANK OF INDIA SECRETARIAT    19136025397                     Gotam Venkata Subbaiah             BC COOP FIN CORP LTD - AP VC       APGB000506819136025397                        URGENT  Gotam Venkata Subbaiah   19136025397     
R4119177008464     000000000300000000000000000000000099999999999999999PAO GOVT OF AP Hyderabad salary    STATE BANK OF INDIA SECRETARIAT    19177008464                     Kese Palli Munindra                BC COOP FIN CORP LTD - AP VC       APGB000204319177008464                        URGENT  Kese Palli Munindra      19177008464     
R4119177035409     000000000250000000000000000000000099999999999999999PAO GOVT OF AP Hyderabad salary    STATE BANK OF INDIA SECRETARIAT    19177035409                     Sampangi Umamaheswari              BC COOP FIN CORP LTD - AP VC       APGB000204319177035409                        URGENT  Sampangi Umamaheswari    19177035409     
R4119177017627     000000000250000000000000000000000099999999999999999PAO GOVT OF AP Hyderabad salary    STATE BANK OF INDIA SECRETARIAT    19177017627                     Bandi Katta Pramila                BC COOP FIN CORP LTD - AP VC       APGB000204319177017627                        URGENT  Bandi Katta Pramila      19177017627     
R4191031254204     000000000300000000000000000000000099999999999999999PAO GOVT OF AP Hyderabad salary    STATE BANK OF INDIA SECRETARIAT    91031254204                     Reddyboyina Rajasekhar             BC COOP FIN CORP LTD - AP VC       APGB000204391031254204                        URGENT  Reddyboyina Rajasekhar   91031254204     
R4119177042075     000000000300000000000000000000000099999999999999999PAO GOVT OF AP Hyderabad salary    STATE BANK OF INDIA SECRETARIAT    19177042075                     Pamu Vijayanirmala                 BC COOP FIN CORP LTD - AP VC       APGB000204319177042075                        URGENT  Pamu Vijayanirmala       19177042075     
R4119152062667     000000000300000000000000000000000099999999999999999PAO GOVT OF AP Hyderabad salary    STATE BANK OF INDIA SECRETARIAT    19152062667                     Telugu Rukminidevi                 BC COOP FIN CORP LTD - AP VC       APGB000310619152062667                        URGENT  Telugu Rukminidevi       19152062667     
R4191033540394     000000000500000000000000000000000099999999999999999PAO GOVT OF AP Hyderabad salary    STATE BANK OF INDIA SECRETARIAT    91033540394                     Gaddala Subhakar                   BC COOP FIN CORP LTD - AP VC       APGB000510991033540394                        URGENT  Gaddala Subhakar         91033540394     
R4191051983888     000000000300000000000000000000000099999999999999999PAO GOVT OF AP Hyderabad salary    STATE BANK OF INDIA SECRETARIAT    91051983888                     Nadindla Hasanamma                 BC COOP FIN CORP LTD - AP VC       APGB000214591051983888                        URGENT  Nadindla Hasanamma       91051983888     
R4191024382202     000000000300000000000000000000000099999999999999999PAO GOVT OF AP Hyderabad salary    STATE BANK OF INDIA SECRETARIAT    91024382202                     Pasupuleti Sreenivasulu            BC COOP FIN CORP LTD - AP VC       APGB000214591024382202                        URGENT  Pasupuleti Sreenivasulu  91024382202     
R4191054056475     000000000300000000000000000000000099999999999999999PAO GOVT OF AP Hyderabad salary    STATE BANK OF INDIA SECRETARIAT    91054056475                     Chandala Jayamma                   BC COOP FIN CORP LTD - AP VC       APGB000207691054056475                        URGENT  Chandala Jayamma         91054056475     
R4191054059227     000000000300000000000000000000000099999999999999999PAO GOVT OF AP Hyderabad salary    STATE BANK OF INDIA SECRETARIAT    91054059227                     Vanduru Kalyani                    BC COOP FIN CORP LTD - AP VC       APGB000207691054059227                        URGENT  Vanduru Kalyani          91054059227     
R4191054115739     000000000300000000000000000000000099999999999999999PAO GOVT OF AP Hyderabad salary    STATE BANK OF INDIA SECRETARIAT    91054115739                     Kanta Saritha                      BC COOP FIN CORP LTD - AP VC       APGB000207691054115739                        URGENT  Kanta Saritha            91054115739     
R4119058569764     000000000300000000000000000000000099999999999999999PAO GOVT OF AP Hyderabad salary    STATE BANK OF INDIA SECRETARIAT    19058569764                     Manubolu Venkateswarlu             BC COOP FIN CORP LTD - AP VC       APGB000207619058569764                        URGENT  Manubolu Venkateswarlu   19058569764     
R4191054038434     000000000300000000000000000000000099999999999999999PAO GOVT OF AP Hyderabad salary    STATE BANK OF INDIA SECRETARIAT    91054038434                     Kanta Haribabu                     BC COOP FIN CORP LTD - AP VC       APGB000207691054038434                        URGENT  Kanta Haribabu           91054038434     
R4191054144839     000000000250000000000000000000000099999999999999999PAO GOVT OF AP Hyderabad salary    STATE BANK OF INDIA SECRETARIAT    91054144839                     Derangula Ramprasad                BC COOP FIN CORP LTD - AP VC       APGB000210791054144839                        URGENT  Derangula Ramprasad      91054144839     
R4191023084841     000000000300000000000000000000000099999999999999999PAO GOVT OF AP Hyderabad salary    STATE BANK OF INDIA SECRETARIAT    91023084841                     Chapppidi Venkataramana            BC COOP FIN CORP LTD - AP VC       APGB000210791023084841                        URGENT  Chapppidi Venkataramana  91023084841     
R4191038653733     000000000300000000000000000000000099999999999999999PAO GOVT OF AP Hyderabad salary    STATE BANK OF INDIA SECRETARIAT    91038653733                     Modem Rama Devi                    BC COOP FIN CORP LTD - AP VC       APGB000210791038653733                        URGENT  Modem Rama Devi          91038653733     
R4191042251233     000000000300000000000000000000000099999999999999999PAO GOVT OF AP Hyderabad salary    STATE BANK OF INDIA SECRETARIAT    91042251233                     Rapuri Lakshmi Devi                BC COOP FIN CORP LTD - AP VC       APGB000210791042251233                        URGENT  Rapuri Lakshmi Devi      91042251233     
R4191010953771     000000000300000000000000000000000099999999999999999PAO GOVT OF AP Hyderabad salary    STATE BANK OF INDIA SECRETARIAT    91010953771                     Derangula Vijayamma                BC COOP FIN CORP LTD - AP VC       APGB000210791010953771                        URGENT  Derangula Vijayamma      91010953771     
R4191032413016     000000000500000000000000000000000099999999999999999PAO GOVT OF AP Hyderabad salary    STATE BANK OF INDIA SECRETARIAT    91032413016                     Koyakakkula Venkataramanjaneyulu   BC COOP FIN CORP LTD - AP VC       APGB000511191032413016                        URGENT  Koyakakkula Venkataramanj91032413016     
R4191018761695     000000000300000000000000000000000099999999999999999PAO GOVT OF AP Hyderabad salary    STATE BANK OF INDIA SECRETARIAT    91018761695                     Nalla Mekala Alivelamma            BC COOP FIN CORP LTD - AP VC       APGB000200291018761695                        URGENT  Nalla Mekala Alivelamma  91018761695     
R4191047302513     000000000500000000000000000000000099999999999999999PAO GOVT OF AP Hyderabad salary    STATE BANK OF INDIA SECRETARIAT    91047302513                     Palagiri Guru Lakshmi              BC COOP FIN CORP LTD - AP VC       APGB000200291047302513                        URGENT  Palagiri Guru Lakshmi    91047302513     
R4119068019389     000000000300000000000000000000000099999999999999999PAO GOVT OF AP Hyderabad salary    STATE BANK OF INDIA SECRETARIAT    19068019389                     Burus Anjanadevi                   BC COOP FIN CORP LTD - AP VC       APGB000212019068019389                        URGENT  Burus Anjanadevi         19068019389     
R4156171E14        000000000500000000000000000000000099999999999999999PAO GOVT OF AP Hyderabad salary    STATE BANK OF INDIA SECRETARIAT    56171E14                        Chejarla Prabhavathi               BC COOP FIN CORP LTD - AP VC       BKID000561756171E14                           URGENT  Chejarla Prabhavathi     56171E14        
R4186211E14        000000000300000000000000000000000099999999999999999PAO GOVT OF AP Hyderabad salary    STATE BANK OF INDIA SECRETARIAT    86211E14                        Parisa Naga Kishore                BC COOP FIN CORP LTD - AP VC       BKID000862186211E14                           URGENT  Parisa Naga Kishore      86211E14        
R4156161E14        000000000300000000000000000000000099999999999999999PAO GOVT OF AP Hyderabad salary    STATE BANK OF INDIA SECRETARIAT    56161E14                        Battula Venkateswararao            BC COOP FIN CORP LTD - AP VC       BKIDOOO561656161E14                           URGENT  Battula Venkateswararao  56161E14        
R4156161E14        000000000300000000000000000000000099999999999999999PAO GOVT OF AP Hyderabad salary    STATE BANK OF INDIA SECRETARIAT    56161E14                        Darsanaala Venkateswarlu           BC COOP FIN CORP LTD - AP VC       BKIDOOO561656161E14                           URGENT  Darsanaala Venkateswarlu 56161E14        
R4156161E14        000000000300000000000000000000000099999999999999999PAO GOVT OF AP Hyderabad salary    STATE BANK OF INDIA SECRETARIAT    56161E14                        Challa Venkatarao                  BC COOP FIN CORP LTD - AP VC       BKIDOOO561656161E14                           URGENT  Challa Venkatarao        56161E14        
R4156161E14        000000000300000000000000000000000099999999999999999PAO GOVT OF AP Hyderabad salary    STATE BANK OF INDIA SECRETARIAT    56161E14                        Yedukondalu                        BC COOP FIN CORP LTD - AP VC       BKIDOOO561656161E14                           URGENT  Yedukondalu              56161E14        
R4156161E14        000000000300000000000000000000000099999999999999999PAO GOVT OF AP Hyderabad salary    STATE BANK OF INDIA SECRETARIAT    56161E14                        Maddikuntla Brahmaiah              BC COOP FIN CORP LTD - AP VC       BKIDOOO561656161E14                           URGENT  Maddikuntla Brahmaiah    56161E14        
R4156161E14        000000000300000000000000000000000099999999999999999PAO GOVT OF AP Hyderabad salary    STATE BANK OF INDIA SECRETARIAT    56161E14                        Batula Purna Iah                   BC COOP FIN CORP LTD - AP VC       BKIDOOO561656161E14                           URGENT  Batula Purna Iah         56161E14        
R4156161E14        000000000300000000000000000000000099999999999999999PAO GOVT OF AP Hyderabad salary    STATE BANK OF INDIA SECRETARIAT    56161E14                        Gurram Siva Koteswara Rao          BC COOP FIN CORP LTD - AP VC       BKIDOOO561656161E14                           URGENT  Gurram Siva Koteswara Rao56161E14        
R4156161E14        000000000300000000000000000000000099999999999999999PAO GOVT OF AP Hyderabad salary    STATE BANK OF INDIA SECRETARIAT    56161E14                        Challa Anjaiah                     BC COOP FIN CORP LTD - AP VC       BKIDOOO561656161E14                           URGENT  Challa Anjaiah           56161E14        
R4156161E14        000000000300000000000000000000000099999999999999999PAO GOVT OF AP Hyderabad salary    STATE BANK OF INDIA SECRETARIAT    56161E14                        Charla Nagendram                   BC COOP FIN CORP LTD - AP VC       BKIDOOO561656161E14                           URGENT  Charla Nagendram         56161E14        
R4156161E14        000000000300000000000000000000000099999999999999999PAO GOVT OF AP Hyderabad salary    STATE BANK OF INDIA SECRETARIAT    56161E14                        Devarapu Chinna Nasaraiah          BC COOP FIN CORP LTD - AP VC       BKIDOOO561656161E14                           URGENT  Devarapu Chinna Nasaraiah56161E14        
R4156161E14        000000000300000000000000000000000099999999999999999PAO GOVT OF AP Hyderabad salary    STATE BANK OF INDIA SECRETARIAT    56161E14                        Darsanaala Sivaiah                 BC COOP FIN CORP LTD - AP VC       BKIDOOO561656161E14                           URGENT  Darsanaala Sivaiah       56161E14        
R4156161E14        000000000300000000000000000000000099999999999999999PAO GOVT OF AP Hyderabad salary    STATE BANK OF INDIA SECRETARIAT    56161E14                        Challa Venkata Siva                BC COOP FIN CORP LTD - AP VC       BKIDOOO561656161E14                           URGENT  Challa Venkata Siva      56161E14        
R4156161E14        000000000300000000000000000000000099999999999999999PAO GOVT OF AP Hyderabad salary    STATE BANK OF INDIA SECRETARIAT    56161E14                        Pokuri Nageshwar  Rao              BC COOP FIN CORP LTD - AP VC       BKIDOOO561656161E14                           URGENT  Pokuri Nageshwar  Rao    56161E14        
R41569411E14       000000000300000000000000000000000099999999999999999PAO GOVT OF AP Hyderabad salary    STATE BANK OF INDIA SECRETARIAT    569411E14                       Dendukuri Rama Koteswara Rao       BC COOP FIN CORP LTD - AP VC       BKID0005694569411E14                          URGENT  Dendukuri Rama Koteswara 569411E14       
R4119621E12        000000000250000000000000000000000099999999999999999PAO GOVT OF AP Hyderabad salary    STATE BANK OF INDIA SECRETARIAT    19621E12                        Venkata Krishnaiah                 BC COOP FIN CORP LTD - AP VC       CNRB000196219621E12                           URGENT  Venkata Krishnaiah       19621E12        
R41620102E11       000000000300000000000000000000000099999999999999999PAO GOVT OF AP Hyderabad salary    STATE BANK OF INDIA SECRETARIAT    620102E11                       Alugolu Satyam                     BC COOP FIN CORP LTD - AP VC       CNRB0000620620102E11                          URGENT  Alugolu Satyam           620102E11       
R41620127E11       000000000400000000000000000000000099999999999999999PAO GOVT OF AP Hyderabad salary    STATE BANK OF INDIA SECRETARIAT    620127E11                       Pasupu Reddy Chinna Rao            BC COOP FIN CORP LTD - AP VC       CNRB0000620620127E11                          URGENT  Pasupu Reddy Chinna Rao  620127E11       
R41660108E11       000000000300000000000000000000000099999999999999999PAO GOVT OF AP Hyderabad salary    STATE BANK OF INDIA SECRETARIAT    660108E11                       Chippada Rangarao                  BC COOP FIN CORP LTD - AP VC       CNRB0000660660108E11                          URGENT  Chippada Rangarao        660108E11       
R4113231E12        000000000500000000000000000000000099999999999999999PAO GOVT OF AP Hyderabad salary    STATE BANK OF INDIA SECRETARIAT    13231E12                        China Anji Babu                    BC COOP FIN CORP LTD - AP VC       CNRB000132313231E12                           URGENT  China Anji Babu          13231E12        
R4113231E12        000000000300000000000000000000000099999999999999999PAO GOVT OF AP Hyderabad salary    STATE BANK OF INDIA SECRETARIAT    13231E12                        Kancharla Anurada                  BC COOP FIN CORP LTD - AP VC       CNRB000132313231E12                           URGENT  Kancharla Anurada        13231E12        
R41130412E12       000000000500000000000000000000000099999999999999999PAO GOVT OF AP Hyderabad salary    STATE BANK OF INDIA SECRETARIAT    130412E12                       Kagga Subrahmunyam                 BC COOP FIN CORP LTD - AP VC       CNRB0001304130412E12                          URGENT  Kagga Subrahmunyam       130412E12       
R41130412E12       000000000300000000000000000000000099999999999999999PAO GOVT OF AP Hyderabad salary    STATE BANK OF INDIA SECRETARIAT    130412E12                       Kisani Suresh                      BC COOP FIN CORP LTD - AP VC       CNRB0001304130412E12                          URGENT  Kisani Suresh            130412E12       
R41130412E12       000000000300000000000000000000000099999999999999999PAO GOVT OF AP Hyderabad salary    STATE BANK OF INDIA SECRETARIAT    130412E12                       Aradhula Gopi Raju                 BC COOP FIN CORP LTD - AP VC       CNRB0001304130412E12                          URGENT  Aradhula Gopi Raju       130412E12       
R4124351E12        000000000300000000000000000000000099999999999999999PAO GOVT OF AP Hyderabad salary    STATE BANK OF INDIA SECRETARIAT    24351E12                        Myla Jala Durga Rao                BC COOP FIN CORP LTD - AP VC       CNRB000243524351E12                           URGENT  Myla Jala Durga Rao      24351E12        
R4124351E12        000000000300000000000000000000000099999999999999999PAO GOVT OF AP Hyderabad salary    STATE BANK OF INDIA SECRETARIAT    24351E12                        Myla Jayalakshmi                   BC COOP FIN CORP LTD - AP VC       CNRB000243524351E12                           URGENT  Myla Jayalakshmi         24351E12        
R4124351E12        000000000300000000000000000000000099999999999999999PAO GOVT OF AP Hyderabad salary    STATE BANK OF INDIA SECRETARIAT    24351E12                        Maila Satyavati                    BC COOP FIN CORP LTD - AP VC       CNRB000243524351E12                           URGENT  Maila Satyavati          24351E12        
R41131111E12       000000000300000000000000000000000099999999999999999PAO GOVT OF AP Hyderabad salary    STATE BANK OF INDIA SECRETARIAT    131111E12                       Krishna Kumari                     BC COOP FIN CORP LTD - AP VC       CNRB0001311131111E12                          URGENT  Krishna Kumari           131111E12       
R41131111E12       000000000500000000000000000000000099999999999999999PAO GOVT OF AP Hyderabad salary    STATE BANK OF INDIA SECRETARIAT    131111E12                       Radarapu Srinu                     BC COOP FIN CORP LTD - AP VC       CNRB0001311131111E12                          URGENT  Radarapu Srinu           131111E12       
R41131111E12       000000000500000000000000000000000099999999999999999PAO GOVT OF AP Hyderabad salary    STATE BANK OF INDIA SECRETARIAT    131111E12                       Chadarajupalli  Venkataratnam      BC COOP FIN CORP LTD - AP VC       CNRB0001311131111E12                          URGENT  Chadarajupalli  Venkatara131111E12       
R41131111E12       000000000500000000000000000000000099999999999999999PAO GOVT OF AP Hyderabad salary    STATE BANK OF INDIA SECRETARIAT    131111E12                       Radarapu Chinna Vemarao            BC COOP FIN CORP LTD - AP VC       CNRB0001311131111E12                          URGENT  Radarapu Chinna Vemarao  131111E12       
R41131111E12       000000000300000000000000000000000099999999999999999PAO GOVT OF AP Hyderabad salary    STATE BANK OF INDIA SECRETARIAT    131111E12                       Kaja Subbulamma                    BC COOP FIN CORP LTD - AP VC       CNRB0001311131111E12                          URGENT  Kaja Subbulamma          131111E12       
R4131881E12        000000000300000000000000000000000099999999999999999PAO GOVT OF AP Hyderabad salary    STATE BANK OF INDIA SECRETARIAT    31881E12                        Tadivalasa Tirupathi Rao           BC COOP FIN CORP LTD - AP VC       CNRB000318831881E12                           URGENT  Tadivalasa Tirupathi Rao 31881E12        
R41774101E11       000000000300000000000000000000000099999999999999999PAO GOVT OF AP Hyderabad salary    STATE BANK OF INDIA SECRETARIAT    774101E11                       Sk Mastan Bi                       BC COOP FIN CORP LTD - AP VC       CNRB0000774774101E11                          URGENT  Sk Mastan Bi             774101E11       
R41774101E11       000000000300000000000000000000000099999999999999999PAO GOVT OF AP Hyderabad salary    STATE BANK OF INDIA SECRETARIAT    774101E11                       Sarika Rambabu                     BC COOP FIN CORP LTD - AP VC       CNRB0000774774101E11                          URGENT  Sarika Rambabu           774101E11       
R41774101E11       000000000300000000000000000000000099999999999999999PAO GOVT OF AP Hyderabad salary    STATE BANK OF INDIA SECRETARIAT    774101E11                       Karima                             BC COOP FIN CORP LTD - AP VC       CNRB0000774774101E11                          URGENT  Karima                   774101E11       
R41130712E12       000000000300000000000000000000000099999999999999999PAO GOVT OF AP Hyderabad salary    STATE BANK OF INDIA SECRETARIAT    130712E12                       Addanki Venkateswarao              BC COOP FIN CORP LTD - AP VC       CNRB0001307130712E12                          URGENT  Addanki Venkateswarao    130712E12       
R4140001E12        000000000300000000000000000000000099999999999999999PAO GOVT OF AP Hyderabad salary    STATE BANK OF INDIA SECRETARIAT    40001E12                        Vullangula Ankamma Rao             BC COOP FIN CORP LTD - AP VC       CNRB000400040001E12                           URGENT  Vullangula Ankamma Rao   40001E12        
R4140001E12        000000000250000000000000000000000099999999999999999PAO GOVT OF AP Hyderabad salary    STATE BANK OF INDIA SECRETARIAT    40001E12                        Chadarasupalli Sitaravamma         BC COOP FIN CORP LTD - AP VC       CNRB000400040001E12                           URGENT  Chadarasupalli Sitaravamm40001E12        
R4140001E12        000000000300000000000000000000000099999999999999999PAO GOVT OF AP Hyderabad salary    STATE BANK OF INDIA SECRETARIAT    40001E12                        Kurra Krishnakumari                BC COOP FIN CORP LTD - AP VC       CNRB000400040001E12                           URGENT  Kurra Krishnakumari      40001E12        
R4140001E12        000000000200000000000000000000000099999999999999999PAO GOVT OF AP Hyderabad salary    STATE BANK OF INDIA SECRETARIAT    40001E12                        Pusuloori Sreenivasarao            BC COOP FIN CORP LTD - AP VC       CNRB000400040001E12                           URGENT  Pusuloori Sreenivasarao  40001E12        
R4140001E12        000000000250000000000000000000000099999999999999999PAO GOVT OF AP Hyderabad salary    STATE BANK OF INDIA SECRETARIAT    40001E12                        Chadarasupalli Brahmaiah           BC COOP FIN CORP LTD - AP VC       CNRB000400040001E12                           URGENT  Chadarasupalli Brahmaiah 40001E12        
R4140001E12        000000000300000000000000000000000099999999999999999PAO GOVT OF AP Hyderabad salary    STATE BANK OF INDIA SECRETARIAT    40001E12                        MunnangiTirupathamma               BC COOP FIN CORP LTD - AP VC       CNRB000400040001E12                           URGENT  MunnangiTirupathamma     40001E12        
R4140001E12        000000000300000000000000000000000099999999999999999PAO GOVT OF AP Hyderabad salary    STATE BANK OF INDIA SECRETARIAT    40001E12                        Lamkapalli Tirumala                BC COOP FIN CORP LTD - AP VC       CNRB000400040001E12                           URGENT  Lamkapalli Tirumala      40001E12        
R4140001E12        000000000300000000000000000000000099999999999999999PAO GOVT OF AP Hyderabad salary    STATE BANK OF INDIA SECRETARIAT    40001E12                        Danaboyina Venkateswararao         BC COOP FIN CORP LTD - AP VC       CNRB000400040001E12                           URGENT  Danaboyina Venkateswarara40001E12        
R4140001E12        000000000300000000000000000000000099999999999999999PAO GOVT OF AP Hyderabad salary    STATE BANK OF INDIA SECRETARIAT    40001E12                        Munnangi Venkatappaiah             BC COOP FIN CORP LTD - AP VC       CNRB000400040001E12                           URGENT  Munnangi Venkatappaiah   40001E12        
R4140001E12        000000000300000000000000000000000099999999999999999PAO GOVT OF AP Hyderabad salary    STATE BANK OF INDIA SECRETARIAT    40001E12                        Velpula Raghavulu                  BC COOP FIN CORP LTD - AP VC       CNRB000400040001E12                           URGENT  Velpula Raghavulu        40001E12        
R4140001E12        000000000250000000000000000000000099999999999999999PAO GOVT OF AP Hyderabad salary    STATE BANK OF INDIA SECRETARIAT    40001E12                        Pusuluri Nagaraju                  BC COOP FIN CORP LTD - AP VC       CNRB000400040001E12                           URGENT  Pusuluri Nagaraju        40001E12        
R4140001E12        000000000300000000000000000000000099999999999999999PAO GOVT OF AP Hyderabad salary    STATE BANK OF INDIA SECRETARIAT    40001E12                        Sambasivarao                       BC COOP FIN CORP LTD - AP VC       CNRB000400040001E12                           URGENT  Sambasivarao             40001E12        
R4140001E12        000000000300000000000000000000000099999999999999999PAO GOVT OF AP Hyderabad salary    STATE BANK OF INDIA SECRETARIAT    40001E12                        Velpula China Chinthaiah           BC COOP FIN CORP LTD - AP VC       CNRB000400040001E12                           URGENT  Velpula China Chinthaiah 40001E12        
R4140001E12        000000000300000000000000000000000099999999999999999PAO GOVT OF AP Hyderabad salary    STATE BANK OF INDIA SECRETARIAT    40001E12                        GummaDevid Raju                    BC COOP FIN CORP LTD - AP VC       CNRB000400040001E12                           URGENT  GummaDevid Raju          40001E12        
R413376086944      000000000300000000000000000000000099999999999999999PAO GOVT OF AP Hyderabad salary    STATE BANK OF INDIA SECRETARIAT    3376086944                      Naresh                             BC COOP FIN CORP LTD - AP VC       CBIN02808413376086944                         URGENT  Naresh                   3376086944      
R413375982534      000000000300000000000000000000000099999999999999999PAO GOVT OF AP Hyderabad salary    STATE BANK OF INDIA SECRETARIAT    3375982534                      Sana Lakshmi Devi                  BC COOP FIN CORP LTD - AP VC       CBIN02808413375982534                         URGENT  Sana Lakshmi Devi        3375982534      
R413214374632      000000000300000000000000000000000099999999999999999PAO GOVT OF AP Hyderabad salary    STATE BANK OF INDIA SECRETARIAT    3214374632                      Poluparthi Satyanarayana           BC COOP FIN CORP LTD - AP VC       CBIN02822483214374632                         URGENT  Poluparthi Satyanarayana 3214374632      
R413446026486      000000000300000000000000000000000099999999999999999PAO GOVT OF AP Hyderabad salary    STATE BANK OF INDIA SECRETARIAT    3446026486                      Poluparthy Tataji                  BC COOP FIN CORP LTD - AP VC       CBIN02822483446026486                         URGENT  Poluparthy Tataji        3446026486      
R413070817881      000000000300000000000000000000000099999999999999999PAO GOVT OF AP Hyderabad salary    STATE BANK OF INDIA SECRETARIAT    3070817881                      Revu Satyanarayana                 BC COOP FIN CORP LTD - AP VC       CBIN02808283070817881                         URGENT  Revu Satyanarayana       3070817881      
R413253627099      000000000300000000000000000000000099999999999999999PAO GOVT OF AP Hyderabad salary    STATE BANK OF INDIA SECRETARIAT    3253627099                      Koppada Ramprasad                  BC COOP FIN CORP LTD - AP VC       CBIN02808283253627099                         URGENT  Koppada Ramprasad        3253627099      
R413253629018      000000000300000000000000000000000099999999999999999PAO GOVT OF AP Hyderabad salary    STATE BANK OF INDIA SECRETARIAT    3253629018                      Chinta Satyanarayana               BC COOP FIN CORP LTD - AP VC       CBIN02808283253629018                         URGENT  Chinta Satyanarayana     3253629018      
R413253628796      000000000300000000000000000000000099999999999999999PAO GOVT OF AP Hyderabad salary    STATE BANK OF INDIA SECRETARIAT    3253628796                      Doma Ram Babu                      BC COOP FIN CORP LTD - AP VC       CBIN02808283253628796                         URGENT  Doma Ram Babu            3253628796      
R411535604848      000000000300000000000000000000000099999999999999999PAO GOVT OF AP Hyderabad salary    STATE BANK OF INDIA SECRETARIAT    1535604848                      Revu Nukaraju                      BC COOP FIN CORP LTD - AP VC       CBIN02808281535604848                         URGENT  Revu Nukaraju            1535604848      
R413253623527      000000000300000000000000000000000099999999999999999PAO GOVT OF AP Hyderabad salary    STATE BANK OF INDIA SECRETARIAT    3253623527                      Karri Venkata Lakshmi Narayana     BC COOP FIN CORP LTD - AP VC       CBIN02808283253623527                         URGENT  Karri Venkata Lakshmi Nar3253623527      
R413253628901      000000000300000000000000000000000099999999999999999PAO GOVT OF AP Hyderabad salary    STATE BANK OF INDIA SECRETARIAT    3253628901                      Sangani Venkateswara Rao           BC COOP FIN CORP LTD - AP VC       CBIN02808283253628901                         URGENT  Sangani Venkateswara Rao 3253628901      
R4171361E14        000000000300000000000000000000000099999999999999999PAO GOVT OF AP Hyderabad salary    STATE BANK OF INDIA SECRETARIAT    71361E14                        Chitturi Suryakala                 BC COOP FIN CORP LTD - AP VC       ANDB000799971361E14                           URGENT  Chitturi Suryakala       71361E14        
R4171551E14        000000000300000000000000000000000099999999999999999PAO GOVT OF AP Hyderabad salary    STATE BANK OF INDIA SECRETARIAT    71551E14                        Veeramalla Venkatasrinivasu        BC COOP FIN CORP LTD - AP VC        ANDB00079971551E14                           URGENT  Veeramalla Venkatasriniva71551E14        
R4170461E14        000000000300000000000000000000000099999999999999999PAO GOVT OF AP Hyderabad salary    STATE BANK OF INDIA SECRETARIAT    70461E14                        Manjula Venkateswarlu              BC COOP FIN CORP LTD - AP VC       ANDB000799970461E14                           URGENT  Manjula Venkateswarlu    70461E14        
R4170461E14        000000000300000000000000000000000099999999999999999PAO GOVT OF AP Hyderabad salary    STATE BANK OF INDIA SECRETARIAT    70461E14                        Vemuluri Kotaiah Chari             BC COOP FIN CORP LTD - AP VC       ANDB000799970461E14                           URGENT  Vemuluri Kotaiah Chari   70461E14        
R4170461E14        000000000300000000000000000000000099999999999999999PAO GOVT OF AP Hyderabad salary    STATE BANK OF INDIA SECRETARIAT    70461E14                        Vadapatri Parvathi                 BC COOP FIN CORP LTD - AP VC       ANDB000799970461E14                           URGENT  Vadapatri Parvathi       70461E14        
R4172251E14        000000000300000000000000000000000099999999999999999PAO GOVT OF AP Hyderabad salary    STATE BANK OF INDIA SECRETARIAT    72251E14                        Seelam Annapurna                   BC COOP FIN CORP LTD - AP VC       ANDB000799972251E14                           URGENT  Seelam Annapurna         72251E14        
R4170381E14        000000000300000000000000000000000099999999999999999PAO GOVT OF AP Hyderabad salary    STATE BANK OF INDIA SECRETARIAT    70381E14                        Telagorla Naga Ramanjaneyulu       BC COOP FIN CORP LTD - AP VC       ANDB000799970381E14                           URGENT  Telagorla Naga Ramanjaney70381E14        
R4170381E14        000000000300000000000000000000000099999999999999999PAO GOVT OF AP Hyderabad salary    STATE BANK OF INDIA SECRETARIAT    70381E14                        Bommineni Balu                     BC COOP FIN CORP LTD - AP VC       ANDB000799970381E14                           URGENT  Bommineni Balu           70381E14        
R4170061E14        000000000300000000000000000000000099999999999999999PAO GOVT OF AP Hyderabad salary    STATE BANK OF INDIA SECRETARIAT    70061E14                        Telajala Gangaiah                  BC COOP FIN CORP LTD - AP VC       ANDB000799970061E14                           URGENT  Telajala Gangaiah        70061E14        
R4170061E14        000000000300000000000000000000000099999999999999999PAO GOVT OF AP Hyderabad salary    STATE BANK OF INDIA SECRETARIAT    70061E14                        Tellajala Subbaiah                 BC COOP FIN CORP LTD - AP VC       ANDB000799970061E14                           URGENT  Tellajala Subbaiah       70061E14        
R4170071E14        000000000300000000000000000000000099999999999999999PAO GOVT OF AP Hyderabad salary    STATE BANK OF INDIA SECRETARIAT    70071E14                        Kottapalli Srinivasa Rao           BC COOP FIN CORP LTD - AP VC       ANDB000799970071E14                           URGENT  Kottapalli Srinivasa Rao 70071E14        
