R4132085741352     000000004820610000000000000000000000000033881454741PAO GOVT OF AP Hyderabad salary    STATE BANK OF INDIA SECRETARIAT    32085741352                     RS B P Konavalasa                  TRIBAL WELFARE RESIDENTIAL EDUCATI            32085741352                        URGENT  RS B P Konavalasa        32085741352     
R4111254486827     000000005077980000000000000000000000000033881454741PAO GOVT OF AP Hyderabad salary    STATE BANK OF INDIA SECRETARIAT    11254486827                     RS B Koyyuru                       TRIBAL WELFARE RESIDENTIAL EDUCATI            11254486827                        URGENT  RS B Koyyuru             11254486827     
R4132126623890     000000013863690000000000000000000000000033881454741PAO GOVT OF AP Hyderabad salary    STATE BANK OF INDIA SECRETARIAT    32126623890                     RS G Paderu                        TRIBAL WELFARE RESIDENTIAL EDUCATI            32126623890                        URGENT  RS G Paderu              32126623890     
R4132426954694     000000004190920000000000000000000000000033881454741PAO GOVT OF AP Hyderabad salary    STATE BANK OF INDIA SECRETARIAT    32426954694                     RS B Pedabayalu                    TRIBAL WELFARE RESIDENTIAL EDUCATI            32426954694                        URGENT  RS B Pedabayalu          32426954694     
R4134027803777     000000004594230000000000000000000000000033881454741PAO GOVT OF AP Hyderabad salary    STATE BANK OF INDIA SECRETARIAT    34027803777                     RS B Upper Sileru                  TRIBAL WELFARE RESIDENTIAL EDUCATI            34027803777                        URGENT  RS B Upper Sileru        34027803777     
R4131906552465     000000010607970000000000000000000000000033881454741PAO GOVT OF AP Hyderabad salary    STATE BANK OF INDIA SECRETARIAT    31906552465                     RS B Addateegala                   TRIBAL WELFARE RESIDENTIAL EDUCATI            31906552465                        URGENT  RS B Addateegala         31906552465     
