R41000000007063930000000000000000000000000033881454741PAO GOVT OF AP Hyderabad salary    STATE BANK OF INDIA SECRETARIAT    62029178195                     RS B Komarada                      TRIBAL WELFARE RESIDENTIAL EDUCATI SBHY002100562029178195                        URGENT  RS B Komarada            62029178195     
R41000000007061100000000000000000000000000033881454741PAO GOVT OF AP Hyderabad salary    STATE BANK OF INDIA SECRETARIAT    62205021697                     RS B RCVaram                       TRIBAL WELFARE RESIDENTIAL EDUCATI SBHY002119962205021697                        URGENT  RS B RCVaram             62205021697     
R41000000008861030000000000000000000000000033881454741PAO GOVT OF AP Hyderabad salary    STATE BANK OF INDIA SECRETARIAT    62197459003                     RS G R C Varam                     TRIBAL WELFARE RESIDENTIAL EDUCATI SBHY002119962197459003                        URGENT  RS G R C Varam           62197459003     
R41000000006828180000000000000000000000000033881454741PAO GOVT OF AP Hyderabad salary    STATE BANK OF INDIA SECRETARIAT    62181946527                     RS B K R Puram                     TRIBAL WELFARE RESIDENTIAL EDUCATI SBHY002115062181946527                        URGENT  RS B K R Puram           62181946527     
R41000000006194360000000000000000000000000033881454741PAO GOVT OF AP Hyderabad salary    STATE BANK OF INDIA SECRETARIAT    62181613622                     RS B Jeelugumilli                  TRIBAL WELFARE RESIDENTIAL EDUCATI SBHY002076962181613622                        URGENT  RS B Jeelugumilli        62181613622     
R41000000004583720000000000000000000000000033881454741PAO GOVT OF AP Hyderabad salary    STATE BANK OF INDIA SECRETARIAT    62333370358                     RS B VP South Nagarjunasagar       TRIBAL WELFARE RESIDENTIAL EDUCATI SBHY002062162333370358                        URGENT  RS B VP South Nagarjunasa62333370358     
