R41000000003112970000000000000000000000000033881454741PAO GOVT OF AP Hyderabad salary    STATE BANK OF INDIA SECRETARIAT    62205021697                     RS B RCVaram                       TRIBAL WELFARE RESIDENTIAL EDUCATI SBHY002119962205021697                        URGENT  RS B RCVaram             62205021697     
R41000000009226400000000000000000000000000033881454741PAO GOVT OF AP Hyderabad salary    STATE BANK OF INDIA SECRETARIAT    62179950854                     RS B Malli                         TRIBAL WELFARE RESIDENTIAL EDUCATI SBHY002124162179950854                        URGENT  RS B Malli               62179950854     
R41000000009675680000000000000000000000000033881454741PAO GOVT OF AP Hyderabad salary    STATE BANK OF INDIA SECRETARIAT    62311837274                     RS B Chintoor                      TRIBAL WELFARE RESIDENTIAL EDUCATI SBHY002069362311837274                        URGENT  RS B Chintoor            62311837274     
R41000000008687880000000000000000000000000033881454741PAO GOVT OF AP Hyderabad salary    STATE BANK OF INDIA SECRETARIAT    62035469120                     RS G Visannapet                    TRIBAL WELFARE RESIDENTIAL EDUCATI SBHY002079162035469120                        URGENT  RS G Visannapet          62035469120     
R41000000009495410000000000000000000000000033881454741PAO GOVT OF AP Hyderabad salary    STATE BANK OF INDIA SECRETARIAT    62126549832                     RS G Srikalahasthi                 TRIBAL WELFARE RESIDENTIAL EDUCATI SBHY002103962126549832                        URGENT  RS G Srikalahasthi       62126549832     
R41000000002065540000000000000000000000000033881454741PAO GOVT OF AP Hyderabad salary    STATE BANK OF INDIA SECRETARIAT    62295038945                     COE Malli                          TRIBAL WELFARE RESIDENTIAL EDUCATI SBHY002124162295038945                        URGENT  COE Malli                62295038945     
R41000000002335180000000000000000000000000033881454741PAO GOVT OF AP Hyderabad salary    STATE BANK OF INDIA SECRETARIAT    62296279389                     COE Vissannapeta                   TRIBAL WELFARE RESIDENTIAL EDUCATI SBHY002079162296279389                        URGENT  COE Vissannapeta         62296279389     
