R41000000000800000000000000000000000000000033881454741PAO GOVT OF AP Hyderabad salary    STATE BANK OF INDIA SECRETARIAT    201910100000663                 MPDO KUKUNURU                      PD ADMINISTRATOR                   ANDB0002019201910100000663                    URGENT  MPDO KUKUNURU                                             201910100000663 EMLdpao-sect@ap.nic.in             
R41000000000560000000000000000000000000000033881454741PAO GOVT OF AP Hyderabad salary    STATE BANK OF INDIA SECRETARIAT    62153874484                     MPDO VELERPADU                     PD ADMINISTRATOR                   SBHY002016862153874484                        URGENT  MPDO VELERPADU                                            62153874484     EMLdpao-sect@ap.nic.in             
R41000000043620000000000000000000000000000033881454741PAO GOVT OF AP Hyderabad salary    STATE BANK OF INDIA SECRETARIAT    107110100092062                 CHIEFE PLANNING OFFICER WG ELURU   PD ADMINISTRATOR                   ANDB0001071107110100092062                    URGENT  CHIEFE PLANNING OFFICER W                                 107110100092062 EMLdpao-sect@ap.nic.in             
