R41037011011060798 000000001203880000000000000000000000000033881454741PAO GOVT OF AP Hyderabad salary    STATE BANK OF INDIA SECRETARIAT    037011011060798                 SREENIVASA CONSTRUCTION CORPORATIONTECH SERV LTD - AP MANAGING DIRECT ANDB0000370037011011060798                    URGENT  SREENIVASA CONSTRUCTION C037011011060798 
R4112938020000060  000000000581000000000000000000000000000033881454741PAO GOVT OF AP Hyderabad salary    STATE BANK OF INDIA SECRETARIAT    12938020000060                  Cache Peripherals Pvt Ltd          TECH SERV LTD - AP MANAGING DIRECT HDFC000129312938020000060                     URGENT  Cache Peripherals Pvt Ltd12938020000060  
R4112938020000060  000000002481100000000000000000000000000033881454741PAO GOVT OF AP Hyderabad salary    STATE BANK OF INDIA SECRETARIAT    12938020000060                  Cache Peripherals Pvt Ltd          TECH SERV LTD - AP MANAGING DIRECT HDFC000129312938020000060                     URGENT  Cache Peripherals Pvt Ltd12938020000060  
R41913030031517421 000000003417470000000000000000000000000033881454741PAO GOVT OF AP Hyderabad salary    STATE BANK OF INDIA SECRETARIAT    913030031517421                 Shell Networks and Solutions       TECH SERV LTD - AP MANAGING DIRECT UTIB0001634913030031517421                    URGENT  Shell Networks and Soluti913030031517421 
R4160115690917     000000001862080000000000000000000000000033881454741PAO GOVT OF AP Hyderabad salary    STATE BANK OF INDIA SECRETARIAT    60115690917                     RC All Tech Power Systems Pvt Ltd  TECH SERV LTD - AP MANAGING DIRECT MAHB000038760115690917                        URGENT  RC All Tech Power Systems60115690917     
