R41000000000023800000000000000000000000000033881454741PAO GOVT OF AP Hyderabad salary    STATE BANK OF INDIA SECRETARIAT    62314454878                     DY SEC REGIONAL OFFICE KADAPA      RES EDN INST SOC - AP(APREI SOCIET SBHY002051362314454878                        URGENT  DY SEC REGIONAL OFFICE KA62314454878     
R41000000000813990000000000000000000000000033881454741PAO GOVT OF AP Hyderabad salary    STATE BANK OF INDIA SECRETARIAT    52064980249                     PRL APRS S M PURAM                 RES EDN INST SOC - AP(APREI SOCIET SBHY002018452064980249                        URGENT  PRL APRS S M PURAM       52064980249     
R41000000000505540000000000000000000000000033881454741PAO GOVT OF AP Hyderabad salary    STATE BANK OF INDIA SECRETARIAT    52081845618                     PRL APRS KURNOOL                   RES EDN INST SOC - AP(APREI SOCIET SBHY002049252081845618                        URGENT  PRL APRS KURNOOL         52081845618     
R41000000000582300000000000000000000000000033881454741PAO GOVT OF AP Hyderabad salary    STATE BANK OF INDIA SECRETARIAT    52081845618                     PRL APRS KURNOOL                   RES EDN INST SOC - AP(APREI SOCIET SBHY002049252081845618                        URGENT  PRL APRS KURNOOL         52081845618     
R41000000000640320000000000000000000000000033881454741PAO GOVT OF AP Hyderabad salary    STATE BANK OF INDIA SECRETARIAT    52100685530                     PRL APRJC GUNTUR JC                RES EDN INST SOC - AP(APREI SOCIET SBHY002034652100685530                        URGENT  PRL APRJC GUNTUR JC      52100685530     
R41000000000750000000000000000000000000000033881454741PAO GOVT OF AP Hyderabad salary    STATE BANK OF INDIA SECRETARIAT    52100685530                     PRL APRJC GUNTUR JC                RES EDN INST SOC - AP(APREI SOCIET SBHY002034652100685530                        URGENT  PRL APRJC GUNTUR JC      52100685530     
R41000000000794140000000000000000000000000033881454741PAO GOVT OF AP Hyderabad salary    STATE BANK OF INDIA SECRETARIAT    52078885419                     PRL APRS KADAPA                    RES EDN INST SOC - AP(APREI SOCIET SBHY002051352078885419                        URGENT  PRL APRS KADAPA          52078885419     
R41000000000974400000000000000000000000000033881454741PAO GOVT OF AP Hyderabad salary    STATE BANK OF INDIA SECRETARIAT    62002066264                     PRL APRS VEMPALLY                  RES EDN INST SOC - AP(APREI SOCIET SBHY002051362002066264                        URGENT  PRL APRS VEMPALLY        62002066264     
R41000000000979220000000000000000000000000033881454741PAO GOVT OF AP Hyderabad salary    STATE BANK OF INDIA SECRETARIAT    52118448035                     PRL APRS TUNI                      RES EDN INST SOC - AP(APREI SOCIET SBHY002076852118448035                        URGENT  PRL APRS TUNI            52118448035     
R41000000001064660000000000000000000000000033881454741PAO GOVT OF AP Hyderabad salary    STATE BANK OF INDIA SECRETARIAT    52118448035                     PRL APRS TUNI                      RES EDN INST SOC - AP(APREI SOCIET SBHY002076852118448035                        URGENT  PRL APRS TUNI            52118448035     
R41000000001068420000000000000000000000000033881454741PAO GOVT OF AP Hyderabad salary    STATE BANK OF INDIA SECRETARIAT    52100405021                     PRL APRS APPALARAJU GUDEM          RES EDN INST SOC - AP(APREI SOCIET SBHY002076952100405021                        URGENT  PRL APRS APPALARAJU GUDEM52100405021     
R41000000001072560000000000000000000000000033881454741PAO GOVT OF AP Hyderabad salary    STATE BANK OF INDIA SECRETARIAT    52129786218                     PRL APRS SANTHANUTALAPAD           RES EDN INST SOC - AP(APREI SOCIET SBHY002048852129786218                        URGENT  PRL APRS SANTHANUTALAPAD 52129786218     
R41000000001160000000000000000000000000000033881454741PAO GOVT OF AP Hyderabad salary    STATE BANK OF INDIA SECRETARIAT    62314454878                     DY SEC REGIONAL OFFICE KADAPA      RES EDN INST SOC - AP(APREI SOCIET SBHY002051362314454878                        URGENT  DY SEC REGIONAL OFFICE KA62314454878     
R41000000001191330000000000000000000000000033881454741PAO GOVT OF AP Hyderabad salary    STATE BANK OF INDIA SECRETARIAT    52078885419                     PRL APRS KADAPA                    RES EDN INST SOC - AP(APREI SOCIET SBHY002051352078885419                        URGENT  PRL APRS KADAPA          52078885419     
R41000000001196140000000000000000000000000033881454741PAO GOVT OF AP Hyderabad salary    STATE BANK OF INDIA SECRETARIAT    52100405021                     PRL APRS APPALARAJU GUDEM          RES EDN INST SOC - AP(APREI SOCIET SBHY002076952100405021                        URGENT  PRL APRS APPALARAJU GUDEM52100405021     
R41000000001346640000000000000000000000000033881454741PAO GOVT OF AP Hyderabad salary    STATE BANK OF INDIA SECRETARIAT    52081845073                     PRL APRJC KURNOOL JC               RES EDN INST SOC - AP(APREI SOCIET SBHY002049252081845073                        URGENT  PRL APRJC KURNOOL JC     52081845073     
R41000000001486280000000000000000000000000033881454741PAO GOVT OF AP Hyderabad salary    STATE BANK OF INDIA SECRETARIAT    62058443478                     PRL APRS GUNTUR M                  RES EDN INST SOC - AP(APREI SOCIET SBHY002034662058443478                        URGENT  PRL APRS GUNTUR M        62058443478     
R41000000001708220000000000000000000000000033881454741PAO GOVT OF AP Hyderabad salary    STATE BANK OF INDIA SECRETARIAT    62057723422                     PRL APRS ANANTHAPUR M              RES EDN INST SOC - AP(APREI SOCIET SBHY002057562057723422                        URGENT  PRL APRS ANANTHAPUR M    62057723422     
R41000000001767050000000000000000000000000033881454741PAO GOVT OF AP Hyderabad salary    STATE BANK OF INDIA SECRETARIAT    62058584667                     PRL APRS MACHILIPATNAM M           RES EDN INST SOC - AP(APREI SOCIET SBHY002033462058584667                        URGENT  PRL APRS MACHILIPATNAM M 62058584667     
R41000000001836840000000000000000000000000033881454741PAO GOVT OF AP Hyderabad salary    STATE BANK OF INDIA SECRETARIAT    52186450133                     PRL APRDC N SAGAR DC               RES EDN INST SOC - AP(APREI SOCIET SBHY002062152186450133                        URGENT  PRL APRDC N SAGAR DC     52186450133     
R41000000002105510000000000000000000000000033881454741PAO GOVT OF AP Hyderabad salary    STATE BANK OF INDIA SECRETARIAT    52081845607                     PRL APRS KALVABUGGA                RES EDN INST SOC - AP(APREI SOCIET SBHY002049252081845607                        URGENT  PRL APRS KALVABUGGA      52081845607     
R41000000002114840000000000000000000000000033881454741PAO GOVT OF AP Hyderabad salary    STATE BANK OF INDIA SECRETARIAT    62057491321                     PRL APRS NELLORE M                 RES EDN INST SOC - AP(APREI SOCIET SBHY002098062057491321                        URGENT  PRL APRS NELLORE M       62057491321     
R41000000002428910000000000000000000000000033881454741PAO GOVT OF AP Hyderabad salary    STATE BANK OF INDIA SECRETARIAT    62057723422                     PRL APRS ANANTHAPUR M              RES EDN INST SOC - AP(APREI SOCIET SBHY002057562057723422                        URGENT  PRL APRS ANANTHAPUR M    62057723422     
R41000000002484080000000000000000000000000033881454741PAO GOVT OF AP Hyderabad salary    STATE BANK OF INDIA SECRETARIAT    52129786229                     PRL APRS AMMANABROLU               RES EDN INST SOC - AP(APREI SOCIET SBHY002077352129786229                        URGENT  PRL APRS AMMANABROLU     52129786229     
R41000000002948060000000000000000000000000033881454741PAO GOVT OF AP Hyderabad salary    STATE BANK OF INDIA SECRETARIAT    52099565517                     PRL APRS TADIKONDA                 RES EDN INST SOC - AP(APREI SOCIET SBHY002017152099565517                        URGENT  PRL APRS TADIKONDA       52099565517     
R41000000002968440000000000000000000000000033881454741PAO GOVT OF AP Hyderabad salary    STATE BANK OF INDIA SECRETARIAT    52064980249                     PRL APRS S M PURAM                 RES EDN INST SOC - AP(APREI SOCIET SBHY002018452064980249                        URGENT  PRL APRS S M PURAM       52064980249     
R41000000003222870000000000000000000000000033881454741PAO GOVT OF AP Hyderabad salary    STATE BANK OF INDIA SECRETARIAT    52153161014                     PRL APRJC THATIPUDI JC             RES EDN INST SOC - AP(APREI SOCIET SBHY002065452153161014                        URGENT  PRL APRJC THATIPUDI JC   52153161014     
R41000000003847060000000000000000000000000033881454741PAO GOVT OF AP Hyderabad salary    STATE BANK OF INDIA SECRETARIAT    52153161014                     PRL APRJC THATIPUDI JC             RES EDN INST SOC - AP(APREI SOCIET SBHY002065452153161014                        URGENT  PRL APRJC THATIPUDI JC   52153161014     
R41000000003870720000000000000000000000000033881454741PAO GOVT OF AP Hyderabad salary    STATE BANK OF INDIA SECRETARIAT    62057491321                     PRL APRS NELLORE M                 RES EDN INST SOC - AP(APREI SOCIET SBHY002098062057491321                        URGENT  PRL APRS NELLORE M       62057491321     
R41000000000305430000000000000000000000000033881454741PAO GOVT OF AP Hyderabad salary    STATE BANK OF INDIA SECRETARIAT    52129786229                     PRL APRS AMMANABROLU               RES EDN INST SOC - AP(APREI SOCIET SBHY002077352129786229                        URGENT  PRL APRS AMMANABROLU     52129786229     
R41000000004391030000000000000000000000000033881454741PAO GOVT OF AP Hyderabad salary    STATE BANK OF INDIA SECRETARIAT    62058680317                     PRL APRS KURNOOL M                 RES EDN INST SOC - AP(APREI SOCIET SBHY002087162058680317                        URGENT  PRL APRS KURNOOL M       62058680317     
R41000000004909890000000000000000000000000033881454741PAO GOVT OF AP Hyderabad salary    STATE BANK OF INDIA SECRETARIAT    52137676250                     PRL APRS THUMMALAPENTA             RES EDN INST SOC - AP(APREI SOCIET SBHY002035152137676250                        URGENT  PRL APRS THUMMALAPENTA   52137676250     
R41000000004058700000000000000000000000000033881454741PAO GOVT OF AP Hyderabad salary    STATE BANK OF INDIA SECRETARIAT    52137676250                     PRL APRS THUMMALAPENTA             RES EDN INST SOC - AP(APREI SOCIET SBHY002035152137676250                        URGENT  PRL APRS THUMMALAPENTA   52137676250     
R41000000005532960000000000000000000000000033881454741PAO GOVT OF AP Hyderabad salary    STATE BANK OF INDIA SECRETARIAT    62004925931                     PRL APRS MUSUNUR                   RES EDN INST SOC - AP(APREI SOCIET SBHY002079162004925931                        URGENT  PRL APRS MUSUNUR         62004925931     
R41000000006074930000000000000000000000000033881454741PAO GOVT OF AP Hyderabad salary    STATE BANK OF INDIA SECRETARIAT    52099565517                     PRL APRS TADIKONDA                 RES EDN INST SOC - AP(APREI SOCIET SBHY002017152099565517                        URGENT  PRL APRS TADIKONDA       52099565517     
