R41000000000150000000000000000000000000000033881454741PD  GOVT OF AP Hyderabad salary    STATE BANK OF INDIA SECRETARIAT    174310100040494                 P.Adinarayana                      DIRECTOR OF LANGUAGE & CULTURE     ANDB0001743174310100040494                    URGENT  P.Adinarayana            174310100040494 
R41000000000120000000000000000000000000000033881454741PD  GOVT OF AP Hyderabad salary    STATE BANK OF INDIA SECRETARIAT    1965403450                      V.Veera Venkata Satyanarayana      DIRECTOR OF LANGUAGE & CULTURE     CBIN02825591965403450                         URGENT  V.Veera Venkata Satyanara1965403450      
R41000000000150000000000000000000000000000033881454741PD  GOVT OF AP Hyderabad salary    STATE BANK OF INDIA SECRETARIAT    79810011004223                  C.H.Venkateswarlu                  DIRECTOR OF LANGUAGE & CULTURE     ANDB000079879810011004223                     URGENT  C.H.Venkateswarlu        79810011004223  
R41000000000130000000000000000000000000000033881454741PD  GOVT OF AP Hyderabad salary    STATE BANK OF INDIA SECRETARIAT    62031147323                     C.Ravindar Reddy                   DIRECTOR OF LANGUAGE & CULTURE     SBHY002090262031147323                        URGENT  C.Ravindar Reddy         62031147323     
