R41000000000873410000000000000000000000000033881454741PAO GOVT OF AP Hyderabad salary    STATE BANK OF INDIA SECRETARIAT    912020003046386                 AAO ERO Rural Rajam                DY CEO ZP VIZIANAGARAM             UTIB0001328912020003046386                    URGENT  AAO ERO Rural Rajam      912020003046386 
R41000000025567650000000000000000000000000033881454741PAO GOVT OF AP Hyderabad salary    STATE BANK OF INDIA SECRETARIAT    7442320000331                   AAO ERO Rural Vizianagaram         DY CEO ZP VIZIANAGARAM             HDFC00007447442320000331                      URGENT  AAO ERO Rural Vizianagara7442320000331   
R41000000005802110000000000000000000000000033881454741PAO GOVT OF AP Hyderabad salary    STATE BANK OF INDIA SECRETARIAT    7442320000348                   AAO ERO Town Vizianagaram          DY CEO ZP VIZIANAGARAM             HDFC00007447442320000348                      URGENT  AAO ERO Town Vizianagaram7442320000348   
R41000000004654870000000000000000000000000033881454741PAO GOVT OF AP Hyderabad salary    STATE BANK OF INDIA SECRETARIAT    33100201000774                  Ch V V Subbarao                    DY CEO ZP VIZIANAGARAM             CORP000033133100201000774                     URGENT  Ch V V Subbarao          33100201000774  
R41000000000778880000000000000000000000000033881454741PAO GOVT OF AP Hyderabad salary    STATE BANK OF INDIA SECRETARIAT    405901010005593                 K Appala Naidu                     DY CEO ZP VIZIANAGARAM             VIJB0004059405901010005593                    URGENT  K Appala Naidu           405901010005593 
