R41344902010105476 000000000879090000000000000000000000000033881454741PAO GOVT OF AP Hyderabad salary    STATE BANK OF INDIA SECRETARIAT    344902010105476                 India Trade Promotion Organisation INDUSTRIES COMMISSIONER AND DIRECT UBIN0534498344902010105476                    URGENT  India Trade Promotion Org344902010105476 
R41344902010105476 000000002746800000000000000000000000000033881454741PAO GOVT OF AP Hyderabad salary    STATE BANK OF INDIA SECRETARIAT    344902010105476                 India Trade Promotion Organisation INDUSTRIES COMMISSIONER AND DIRECT UBIN0534498344902010105476                    URGENT  India Trade Promotion Org344902010105476 
R41344902010105476 000000053703800000000000000000000000000033881454741PAO GOVT OF AP Hyderabad salary    STATE BANK OF INDIA SECRETARIAT    344902010105476                 India Trade Promotion Organisation INDUSTRIES COMMISSIONER AND DIRECT UBIN0534498344902010105476                    URGENT  India Trade Promotion Org344902010105476 
R41008411100000441 000000011202470000000000000000000000000033881454741PAO GOVT OF AP Hyderabad salary    STATE BANK OF INDIA SECRETARIAT    008411100000441                 JSChauhan & Associates New Delhi   INDUSTRIES COMMISSIONER AND DIRECT ANDB0000084008411100000441                    URGENT  JSChauhan & Associates Ne008411100000441 
R41008411100000441 000000004797100000000000000000000000000033881454741PAO GOVT OF AP Hyderabad salary    STATE BANK OF INDIA SECRETARIAT    008411100000441                 JSChauhan & Associates New Delhi   INDUSTRIES COMMISSIONER AND DIRECT ANDB0000084008411100000441                    URGENT  JSChauhan & Associates Ne008411100000441 
R41008411100000441 000000003034900000000000000000000000000033881454741PAO GOVT OF AP Hyderabad salary    STATE BANK OF INDIA SECRETARIAT    008411100000441                 JSChauhan & Associates New Delhi   INDUSTRIES COMMISSIONER AND DIRECT ANDB0000084008411100000441                    URGENT  JSChauhan & Associates Ne008411100000441 
R410359018039363   000000017236020000000000000000000000000033881454741PAO GOVT OF AP Hyderabad salary    STATE BANK OF INDIA SECRETARIAT    0359018039363                   FICCI New Delhi                    INDUSTRIES COMMISSIONER AND DIRECT UTBI0TNM7090359018039363                      URGENT  FICCI New Delhi          0359018039363   
R413029201064554   000000005121520000000000000000000000000033881454741PAO GOVT OF AP Hyderabad salary    STATE BANK OF INDIA SECRETARIAT    3029201064554                   Commissioner of Industries C&EP winINDUSTRIES COMMISSIONER AND DIRECT SYNB00030293029201064554                      URGENT  Commissioner of Industrie3029201064554   
