R41072430100088388 000000000300000000000000000000000000000033881454741PD  GOVT OF AP Hyderabad salary    STATE BANK OF INDIA SECRETARIAT    072430100088388                 Pedhanayuni Appalanarsunaidu       BC COOP FIN CORP LTD - AP V.C      ANDB0000724072430100088388                    URGENT  Pedhanayuni Appalanarsuna072430100088388 
R41072410100080368 000000000300000000000000000000000000000033881454741PD  GOVT OF AP Hyderabad salary    STATE BANK OF INDIA SECRETARIAT    072410100080368                 Vaddapalli Narasmihamurthi         BC COOP FIN CORP LTD - AP V.C      ANDB0000724072410100080368                    URGENT  Vaddapalli Narasmihamurth072410100080368 
R41072430100088351 000000000300000000000000000000000000000033881454741PD  GOVT OF AP Hyderabad salary    STATE BANK OF INDIA SECRETARIAT    072430100088351                 Kintali Bhavani                    BC COOP FIN CORP LTD - AP V.C      ANDB0000724072430100088351                    URGENT  Kintali Bhavani          072430100088351 
R41072410100080340 000000000300000000000000000000000000000033881454741PD  GOVT OF AP Hyderabad salary    STATE BANK OF INDIA SECRETARIAT    072410100080340                 Peerukatla Govindarao              BC COOP FIN CORP LTD - AP V.C      ANDB0000724072410100080340                    URGENT  Peerukatla Govindarao    072410100080340 
R41072410100080359 000000000300000000000000000000000000000033881454741PD  GOVT OF AP Hyderabad salary    STATE BANK OF INDIA SECRETARIAT    072410100080359                 Devada Gollarao                    BC COOP FIN CORP LTD - AP V.C      ANDB0000724072410100080359                    URGENT  Devada Gollarao          072410100080359 
R41069910100025839 000000000300000000000000000000000000000033881454741PD  GOVT OF AP Hyderabad salary    STATE BANK OF INDIA SECRETARIAT    069910100025839                 Nalamati Knsprasada Charyulu       BC COOP FIN CORP LTD - AP V.C      ANDB0000699069910100025839                    URGENT  Nalamati Knsprasada Chary069910100025839 
R41002310100080456 000000000300000000000000000000000000000033881454741PD  GOVT OF AP Hyderabad salary    STATE BANK OF INDIA SECRETARIAT    002310100080456                 Gubbala Chandra Kala               BC COOP FIN CORP LTD - AP V.C      ANDB0000023002310100080456                    URGENT  Gubbala Chandra Kala     002310100080456 
R41054610100045444 000000000300000000000000000000000000000033881454741PD  GOVT OF AP Hyderabad salary    STATE BANK OF INDIA SECRETARIAT    054610100045444                 Gunda Kalyani                      BC COOP FIN CORP LTD - AP V.C      ANDB0000546054610100045444                    URGENT  Gunda Kalyani            054610100045444 
R41054610100045499 000000000300000000000000000000000000000033881454741PD  GOVT OF AP Hyderabad salary    STATE BANK OF INDIA SECRETARIAT    054610100045499                 Dubakula Ravi                      BC COOP FIN CORP LTD - AP V.C      ANDB0000546054610100045499                    URGENT  Dubakula Ravi            054610100045499 
R41054610100045569 000000000250000000000000000000000000000033881454741PD  GOVT OF AP Hyderabad salary    STATE BANK OF INDIA SECRETARIAT    054610100045569                 Danta Laxmana                      BC COOP FIN CORP LTD - AP V.C      ANDB0000546054610100045569                    URGENT  Danta Laxmana            054610100045569 
R41054610100045435 000000000300000000000000000000000000000033881454741PD  GOVT OF AP Hyderabad salary    STATE BANK OF INDIA SECRETARIAT    054610100045435                 Simhadri Taarakeshwararao          BC COOP FIN CORP LTD - AP V.C      ANDB0000546054610100045435                    URGENT  Simhadri Taarakeshwararao054610100045435 
R41054610100045505 000000000300000000000000000000000000000033881454741PD  GOVT OF AP Hyderabad salary    STATE BANK OF INDIA SECRETARIAT    054610100045505                 Jonnada Appalaramudu               BC COOP FIN CORP LTD - AP V.C      ANDB0000546054610100045505                    URGENT  Jonnada Appalaramudu     054610100045505 
R41054610100045587 000000000300000000000000000000000000000033881454741PD  GOVT OF AP Hyderabad salary    STATE BANK OF INDIA SECRETARIAT    054610100045587                 Vandana Surya Kumari               BC COOP FIN CORP LTD - AP V.C      ANDB0000546054610100045587                    URGENT  Vandana Surya Kumari     054610100045587 
R41054610100045392 000000000300000000000000000000000000000033881454741PD  GOVT OF AP Hyderabad salary    STATE BANK OF INDIA SECRETARIAT    054610100045392                 Yara Anand                         BC COOP FIN CORP LTD - AP V.C      ANDB0000546054610100045392                    URGENT  Yara Anand               054610100045392 
R41054610100045462 000000000250000000000000000000000000000033881454741PD  GOVT OF AP Hyderabad salary    STATE BANK OF INDIA SECRETARIAT    054610100045462                 Borabhadra Laxmi                   BC COOP FIN CORP LTD - AP V.C      ANDB0000546054610100045462                    URGENT  Borabhadra Laxmi         054610100045462 
R41094710100064573 000000000300000000000000000000000000000033881454741PD  GOVT OF AP Hyderabad salary    STATE BANK OF INDIA SECRETARIAT    094710100064573                 Kinthada Eeswararao                BC COOP FIN CORP LTD - AP V.C      ANDB0000947094710100064573                    URGENT  Kinthada Eeswararao      094710100064573 
R41142710100042915 000000001000000000000000000000000000000033881454741PD  GOVT OF AP Hyderabad salary    STATE BANK OF INDIA SECRETARIAT    142710100042915                 Kallepalli Gopi                    BC COOP FIN CORP LTD - AP V.C      ANDB0001427142710100042915                    URGENT  Kallepalli Gopi          142710100042915 
R41144010100037986 000000000250000000000000000000000000000033881454741PD  GOVT OF AP Hyderabad salary    STATE BANK OF INDIA SECRETARIAT    144010100037986                 Pitani Ram Kumar                   BC COOP FIN CORP LTD - AP V.C      ANDB0001440144010100037986                    URGENT  Pitani Ram Kumar         144010100037986 
R41144010100029583 000000000250000000000000000000000000000033881454741PD  GOVT OF AP Hyderabad salary    STATE BANK OF INDIA SECRETARIAT    144010100029583                 Reddi Hari Kashi Visha Lakshi      BC COOP FIN CORP LTD - AP V.C      ANDB0001440144010100029583                    URGENT  Reddi Hari Kashi Visha La144010100029583 
R41012810100178982 000000000250000000000000000000000000000033881454741PD  GOVT OF AP Hyderabad salary    STATE BANK OF INDIA SECRETARIAT    012810100178982                 Karri Sarojini                     BC COOP FIN CORP LTD - AP V.C      ANDB0000128012810100178982                    URGENT  Karri Sarojini           012810100178982 
R41012810100178991 000000000250000000000000000000000000000033881454741PD  GOVT OF AP Hyderabad salary    STATE BANK OF INDIA SECRETARIAT    012810100178991                 Jarugulla Ramana                   BC COOP FIN CORP LTD - AP V.C      ANDB0000128012810100178991                    URGENT  Jarugulla Ramana         012810100178991 
R41023010100096013 000000000300000000000000000000000000000033881454741PD  GOVT OF AP Hyderabad salary    STATE BANK OF INDIA SECRETARIAT    023010100096013                 Dunna Venkatamma                   BC COOP FIN CORP LTD - AP V.C      ANDB0000230023010100096013                    URGENT  Dunna Venkatamma         023010100096013 
R41023010100071245 000000000250000000000000000000000000000033881454741PD  GOVT OF AP Hyderabad salary    STATE BANK OF INDIA SECRETARIAT    023010100071245                 Dolubadra Krishna Rao              BC COOP FIN CORP LTD - AP V.C      ANDB0000230023010100071245                    URGENT  Dolubadra Krishna Rao    023010100071245 
R41023010100096068 000000000300000000000000000000000000000033881454741PD  GOVT OF AP Hyderabad salary    STATE BANK OF INDIA SECRETARIAT    023010100096068                 Chaiparlli Mohanarao               BC COOP FIN CORP LTD - AP V.C      ANDB0000230023010100096068                    URGENT  Chaiparlli Mohanarao     023010100096068 
R41023010100071528 000000000250000000000000000000000000000033881454741PD  GOVT OF AP Hyderabad salary    STATE BANK OF INDIA SECRETARIAT    023010100071528                 Seerapu Laxmi                      BC COOP FIN CORP LTD - AP V.C      ANDB0000230023010100071528                    URGENT  Seerapu Laxmi            023010100071528 
R41023010100095980 000000000300000000000000000000000000000033881454741PD  GOVT OF AP Hyderabad salary    STATE BANK OF INDIA SECRETARIAT    023010100095980                 Budda Syamprasad                   BC COOP FIN CORP LTD - AP V.C      ANDB0000230023010100095980                    URGENT  Budda Syamprasad         023010100095980 
R41023010100096031 000000000300000000000000000000000000000033881454741PD  GOVT OF AP Hyderabad salary    STATE BANK OF INDIA SECRETARIAT    023010100096031                 Datti Jyothi                       BC COOP FIN CORP LTD - AP V.C      ANDB0000230023010100096031                    URGENT  Datti Jyothi             023010100096031 
R41023010100095999 000000000300000000000000000000000000000033881454741PD  GOVT OF AP Hyderabad salary    STATE BANK OF INDIA SECRETARIAT    023010100095999                 Magupalli Madu                     BC COOP FIN CORP LTD - AP V.C      ANDB0000230023010100095999                    URGENT  Magupalli Madu           023010100095999 
R41023010100096004 000000000300000000000000000000000000000033881454741PD  GOVT OF AP Hyderabad salary    STATE BANK OF INDIA SECRETARIAT    023010100096004                 Velichara Gopalkrishna             BC COOP FIN CORP LTD - AP V.C      ANDB0000230023010100096004                    URGENT  Velichara Gopalkrishna   023010100096004 
R41023010100096022 000000000300000000000000000000000000000033881454741PD  GOVT OF AP Hyderabad salary    STATE BANK OF INDIA SECRETARIAT    023010100096022                 Budda Sanyasi                      BC COOP FIN CORP LTD - AP V.C      ANDB0000230023010100096022                    URGENT  Budda Sanyasi            023010100096022 
R41023010100071236 000000000250000000000000000000000000000033881454741PD  GOVT OF AP Hyderabad salary    STATE BANK OF INDIA SECRETARIAT    023010100071236                 Parimala Srinivasu                 BC COOP FIN CORP LTD - AP V.C      ANDB0000230023010100071236                    URGENT  Parimala Srinivasu       023010100071236 
R41174710100071340 000000000500000000000000000000000000000033881454741PD  GOVT OF AP Hyderabad salary    STATE BANK OF INDIA SECRETARIAT    174710100071340                 Tottadapudi Trinadha               BC COOP FIN CORP LTD - AP V.C      ANDB0001747174710100071340                    URGENT  Tottadapudi Trinadha     174710100071340 
R41174710100089314 000000000250000000000000000000000000000033881454741PD  GOVT OF AP Hyderabad salary    STATE BANK OF INDIA SECRETARIAT    174710100089314                 Bhogapurapu Naresh                 BC COOP FIN CORP LTD - AP V.C      ANDB0001747174710100089314                    URGENT  Bhogapurapu Naresh       174710100089314 
R41174710100034703 000000000300000000000000000000000000000033881454741PD  GOVT OF AP Hyderabad salary    STATE BANK OF INDIA SECRETARIAT    174710100034703                 Yarlanki Kondala Rao               BC COOP FIN CORP LTD - AP V.C      ANDB0001747174710100034703                    URGENT  Yarlanki Kondala Rao     174710100034703 
R41174710100037782 000000000500000000000000000000000000000033881454741PD  GOVT OF AP Hyderabad salary    STATE BANK OF INDIA SECRETARIAT    174710100037782                 Sanniboyina Chinnammadu            BC COOP FIN CORP LTD - AP V.C      ANDB0001747174710100037782                    URGENT  Sanniboyina Chinnammadu  174710100037782 
R41174710100031803 000000000300000000000000000000000000000033881454741PD  GOVT OF AP Hyderabad salary    STATE BANK OF INDIA SECRETARIAT    174710100031803                 Anupoju Harikrishna                BC COOP FIN CORP LTD - AP V.C      ANDB0001747174710100031803                    URGENT  Anupoju Harikrishna      174710100031803 
R41174710100000478 000000000250000000000000000000000000000033881454741PD  GOVT OF AP Hyderabad salary    STATE BANK OF INDIA SECRETARIAT    174710100000478                 Lakkoju Sreenivasa Rao             BC COOP FIN CORP LTD - AP V.C      ANDB0001747174710100000478                    URGENT  Lakkoju Sreenivasa Rao   174710100000478 
R41174710100001167 000000000250000000000000000000000000000033881454741PD  GOVT OF AP Hyderabad salary    STATE BANK OF INDIA SECRETARIAT    174710100001167                 Gorjana Raju                       BC COOP FIN CORP LTD - AP V.C      ANDB0001747174710100001167                    URGENT  Gorjana Raju             174710100001167 
R41051310100061521 000000000300000000000000000000000000000033881454741PD  GOVT OF AP Hyderabad salary    STATE BANK OF INDIA SECRETARIAT    051310100061521                 Allipilli Srikanth                 BC COOP FIN CORP LTD - AP V.C      ANDB0000513051310100061521                    URGENT  Allipilli Srikanth       051310100061521 
R41038010100186769 000000000500000000000000000000000000000033881454741PD  GOVT OF AP Hyderabad salary    STATE BANK OF INDIA SECRETARIAT    038010100186769                 Byri Dharmarao                     BC COOP FIN CORP LTD - AP V.C      ANDB0000380038010100186769                    URGENT  Byri Dharmarao           038010100186769 
R41038010100180172 000000000300000000000000000000000000000033881454741PD  GOVT OF AP Hyderabad salary    STATE BANK OF INDIA SECRETARIAT    038010100180172                 Gunda Srinuvasarao                 BC COOP FIN CORP LTD - AP V.C      ANDB0000380038010100180172                    URGENT  Gunda Srinuvasarao       038010100180172 
R41049510100123797 000000000300000000000000000000000000000033881454741PD  GOVT OF AP Hyderabad salary    STATE BANK OF INDIA SECRETARIAT    049510100123797                 Kella Ramanamma                    BC COOP FIN CORP LTD - AP V.C      ANDB0000495049510100123797                    URGENT  Kella Ramanamma          049510100123797 
R41049510100122974 000000000300000000000000000000000000000033881454741PD  GOVT OF AP Hyderabad salary    STATE BANK OF INDIA SECRETARIAT    049510100122974                 Gorle Sreenu                       BC COOP FIN CORP LTD - AP V.C      ANDB0000495049510100122974                    URGENT  Gorle Sreenu             049510100122974 
R41049510100124051 000000000300000000000000000000000000000033881454741PD  GOVT OF AP Hyderabad salary    STATE BANK OF INDIA SECRETARIAT    049510100124051                 Mahanthi Sanyasappadu              BC COOP FIN CORP LTD - AP V.C      ANDB0000495049510100124051                    URGENT  Mahanthi Sanyasappadu    049510100124051 
R41048710100163810 000000000250000000000000000000000000000033881454741PD  GOVT OF AP Hyderabad salary    STATE BANK OF INDIA SECRETARIAT    048710100163810                 Bala Narasimhulu                   BC COOP FIN CORP LTD - AP V.C      ANDB0000487048710100163810                    URGENT  Bala Narasimhulu         048710100163810 
R41048710100163689 000000000250000000000000000000000000000033881454741PD  GOVT OF AP Hyderabad salary    STATE BANK OF INDIA SECRETARIAT    048710100163689                 Manali Linappa                     BC COOP FIN CORP LTD - AP V.C      ANDB0000487048710100163689                    URGENT  Manali Linappa           048710100163689 
R41048710100163555 000000000200000000000000000000000000000033881454741PD  GOVT OF AP Hyderabad salary    STATE BANK OF INDIA SECRETARIAT    048710100163555                 Subbalakshmi Lokesh                BC COOP FIN CORP LTD - AP V.C      ANDB0000487048710100163555                    URGENT  Subbalakshmi Lokesh      048710100163555 
R41048710100129977 000000000200000000000000000000000000000033881454741PD  GOVT OF AP Hyderabad salary    STATE BANK OF INDIA SECRETARIAT    048710100129977                 N Renulamma                        BC COOP FIN CORP LTD - AP V.C      ANDB0000487048710100129977                    URGENT  N Renulamma              048710100129977 
R41048710100163537 000000000250000000000000000000000000000033881454741PD  GOVT OF AP Hyderabad salary    STATE BANK OF INDIA SECRETARIAT    048710100163537                 Mangali Ramesh                     BC COOP FIN CORP LTD - AP V.C      ANDB0000487048710100163537                    URGENT  Mangali Ramesh           048710100163537 
R41048710100163519 000000000300000000000000000000000000000033881454741PD  GOVT OF AP Hyderabad salary    STATE BANK OF INDIA SECRETARIAT    048710100163519                 Korisetty Bhagya Sree              BC COOP FIN CORP LTD - AP V.C      ANDB0000487048710100163519                    URGENT  Korisetty Bhagya Sree    048710100163519 
R41048710100130432 000000000300000000000000000000000000000033881454741PD  GOVT OF AP Hyderabad salary    STATE BANK OF INDIA SECRETARIAT    048710100130432                 B Lakshmanna                       BC COOP FIN CORP LTD - AP V.C      ANDB0000487048710100130432                    URGENT  B Lakshmanna             048710100130432 
R41051110100100307 000000000500000000000000000000000000000033881454741PD  GOVT OF AP Hyderabad salary    STATE BANK OF INDIA SECRETARIAT    051110100100307                 Kadhambala Narayana                BC COOP FIN CORP LTD - AP V.C      ANDB0000511051110100100307                    URGENT  Kadhambala Narayana      051110100100307 
R41051110100099995 000000000250000000000000000000000000000033881454741PD  GOVT OF AP Hyderabad salary    STATE BANK OF INDIA SECRETARIAT    051110100099995                 Bendalam Suneelkumar               BC COOP FIN CORP LTD - AP V.C      ANDB0000511051110100099995                    URGENT  Bendalam Suneelkumar     051110100099995 
R41051110100100316 000000000500000000000000000000000000000033881454741PD  GOVT OF AP Hyderabad salary    STATE BANK OF INDIA SECRETARIAT    051110100100316                 Kaya Laxminarayana                 BC COOP FIN CORP LTD - AP V.C      ANDB0000511051110100100316                    URGENT  Kaya Laxminarayana       051110100100316 
R41051110100099977 000000000200000000000000000000000000000033881454741PD  GOVT OF AP Hyderabad salary    STATE BANK OF INDIA SECRETARIAT    051110100099977                 Tamarala Danunjaya                 BC COOP FIN CORP LTD - AP V.C      ANDB0000511051110100099977                    URGENT  Tamarala Danunjaya       051110100099977 
R41051110100099968 000000000300000000000000000000000000000033881454741PD  GOVT OF AP Hyderabad salary    STATE BANK OF INDIA SECRETARIAT    051110100099968                 Lolla Vikram                       BC COOP FIN CORP LTD - AP V.C      ANDB0000511051110100099968                    URGENT  Lolla Vikram             051110100099968 
R41051110100173978 000000000300000000000000000000000000000033881454741PD  GOVT OF AP Hyderabad salary    STATE BANK OF INDIA SECRETARIAT    051110100173978                 Nandela Rupavati                   BC COOP FIN CORP LTD - AP V.C      ANDB0000511051110100173978                    URGENT  Nandela Rupavati         051110100173978 
R41055210100103924 000000000300000000000000000000000000000033881454741PD  GOVT OF AP Hyderabad salary    STATE BANK OF INDIA SECRETARIAT    055210100103924                 Jinka Praveen Kumar                BC COOP FIN CORP LTD - AP V.C      ANDB0000552055210100103924                    URGENT  Jinka Praveen Kumar      055210100103924 
R41055210100147724 000000000250000000000000000000000000000033881454741PD  GOVT OF AP Hyderabad salary    STATE BANK OF INDIA SECRETARIAT    055210100147724                 Jinka Dharani                      BC COOP FIN CORP LTD - AP V.C      ANDB0000552055210100147724                    URGENT  Jinka Dharani            055210100147724 
R41055210100147751 000000000300000000000000000000000000000033881454741PD  GOVT OF AP Hyderabad salary    STATE BANK OF INDIA SECRETARIAT    055210100147751                 D.Mastan Bi                        BC COOP FIN CORP LTD - AP V.C      ANDB0000552055210100147751                    URGENT  D.Mastan Bi              055210100147751 
R41055210100147742 000000000250000000000000000000000000000033881454741PD  GOVT OF AP Hyderabad salary    STATE BANK OF INDIA SECRETARIAT    055210100147742                 Alakunta Ramanaiah                 BC COOP FIN CORP LTD - AP V.C      ANDB0000552055210100147742                    URGENT  Alakunta Ramanaiah       055210100147742 
R41055210100147733 000000001000000000000000000000000000000033881454741PD  GOVT OF AP Hyderabad salary    STATE BANK OF INDIA SECRETARIAT    055210100147733                 S.Malleswaraiah                    BC COOP FIN CORP LTD - AP V.C      ANDB0000552055210100147733                    URGENT  S.Malleswaraiah          055210100147733 
R41055210100147715 000000000200000000000000000000000000000033881454741PD  GOVT OF AP Hyderabad salary    STATE BANK OF INDIA SECRETARIAT    055210100147715                 T Subbamma                         BC COOP FIN CORP LTD - AP V.C      ANDB0000552055210100147715                    URGENT  T Subbamma               055210100147715 
R4191032820713     000000000250000000000000000000000000000033881454741PD  GOVT OF AP Hyderabad salary    STATE BANK OF INDIA SECRETARIAT    91032820713                     Bestha Narendra                    BC COOP FIN CORP LTD - AP V.C      APGB000103591032820713                        URGENT  Bestha Narendra          91032820713     
R4191033206439     000000000250000000000000000000000000000033881454741PD  GOVT OF AP Hyderabad salary    STATE BANK OF INDIA SECRETARIAT    91033206439                     Mondi Alivelamma                   BC COOP FIN CORP LTD - AP V.C      APGB000103591033206439                        URGENT  Mondi Alivelamma         91033206439     
R4119023550732     000000000300000000000000000000000000000033881454741PD  GOVT OF AP Hyderabad salary    STATE BANK OF INDIA SECRETARIAT    19023550732                     Bestha Subramanyam                 BC COOP FIN CORP LTD - AP V.C      APGB000103519023550732                        URGENT  Bestha Subramanyam       19023550732     
R4191032712640     000000000300000000000000000000000000000033881454741PD  GOVT OF AP Hyderabad salary    STATE BANK OF INDIA SECRETARIAT    91032712640                     S.Janardhana                       BC COOP FIN CORP LTD - AP V.C      APGB000103591032712640                        URGENT  S.Janardhana             91032712640     
R4191032518701     000000000200000000000000000000000000000033881454741PD  GOVT OF AP Hyderabad salary    STATE BANK OF INDIA SECRETARIAT    91032518701                     Mangala Sampath                    BC COOP FIN CORP LTD - AP V.C       APGB00108291032518701                        URGENT  Mangala Sampath          91032518701     
R4191032791350     000000000250000000000000000000000000000033881454741PD  GOVT OF AP Hyderabad salary    STATE BANK OF INDIA SECRETARIAT    91032791350                     N Muneeswari                       BC COOP FIN CORP LTD - AP V.C       APGB00108291032791350                        URGENT  N Muneeswari             91032791350     
R4191032949487     000000000200000000000000000000000000000033881454741PD  GOVT OF AP Hyderabad salary    STATE BANK OF INDIA SECRETARIAT    91032949487                     Mangala Krishna                    BC COOP FIN CORP LTD - AP V.C       APGB00108291032949487                        URGENT  Mangala Krishna          91032949487     
R4191052177924     000000000300000000000000000000000000000033881454741PD  GOVT OF AP Hyderabad salary    STATE BANK OF INDIA SECRETARIAT    91052177924                     D Alibaba                          BC COOP FIN CORP LTD - AP V.C      APGB000103191052177924                        URGENT  D Alibaba                91052177924     
R4191051538350     000000000250000000000000000000000000000033881454741PD  GOVT OF AP Hyderabad salary    STATE BANK OF INDIA SECRETARIAT    91051538350                     Seela Mangamma                     BC COOP FIN CORP LTD - AP V.C      APGB000107791051538350                        URGENT  Seela Mangamma           91051538350     
R4191023265443     000000000250000000000000000000000000000033881454741PD  GOVT OF AP Hyderabad salary    STATE BANK OF INDIA SECRETARIAT    91023265443                     Srinivassulu Nagarathnma           BC COOP FIN CORP LTD - AP V.C      APGB000107791023265443                        URGENT  Srinivassulu Nagarathnma 91023265443     
R41562010110003156 000000000250000000000000000000000000000033881454741PD  GOVT OF AP Hyderabad salary    STATE BANK OF INDIA SECRETARIAT    562010110003156                 Alidhuti Suri Babu                 BC COOP FIN CORP LTD - AP V.C      BKID0005620562010110003156                    URGENT  Alidhuti Suri Babu       562010110003156 
R41562016710000014 000000000300000000000000000000000000000033881454741PD  GOVT OF AP Hyderabad salary    STATE BANK OF INDIA SECRETARIAT    562016710000014                 Guthula Satyavathi                 BC COOP FIN CORP LTD - AP V.C      BKID0005620562016710000014                    URGENT  Guthula Satyavathi       562016710000014 
R41562010110000338 000000000500000000000000000000000000000033881454741PD  GOVT OF AP Hyderabad salary    STATE BANK OF INDIA SECRETARIAT    562010110000338                 Polisetty Jagadish                 BC COOP FIN CORP LTD - AP V.C      BKID0005620562010110000338                    URGENT  Polisetty Jagadish       562010110000338 
R41562010110003158 000000000250000000000000000000000000000033881454741PD  GOVT OF AP Hyderabad salary    STATE BANK OF INDIA SECRETARIAT    562010110003158                 Golithi Gowrisankar                BC COOP FIN CORP LTD - AP V.C      BKID0005620562010110003158                    URGENT  Golithi Gowrisankar      562010110003158 
R41562010110003157 000000000250000000000000000000000000000033881454741PD  GOVT OF AP Hyderabad salary    STATE BANK OF INDIA SECRETARIAT    562010110003157                 Gothi Suryanarayana                BC COOP FIN CORP LTD - AP V.C      BKID0005620562010110003157                    URGENT  Gothi Suryanarayana      562010110003157 
R41562010110003483 000000001000000000000000000000000000000033881454741PD  GOVT OF AP Hyderabad salary    STATE BANK OF INDIA SECRETARIAT    562010110003483                 Karri Chandra Rao                  BC COOP FIN CORP LTD - AP V.C      BKID0005620562010110003483                    URGENT  Karri Chandra Rao        562010110003483 
R41562010110003276 000000000250000000000000000000000000000033881454741PD  GOVT OF AP Hyderabad salary    STATE BANK OF INDIA SECRETARIAT    562010110003276                 Vendra Rajeswari                   BC COOP FIN CORP LTD - AP V.C      BKID0005620562010110003276                    URGENT  Vendra Rajeswari         562010110003276 
R413859101000559   000000000300000000000000000000000000000033881454741PD  GOVT OF AP Hyderabad salary    STATE BANK OF INDIA SECRETARIAT    3859101000559                   Bade Mohan Rao                     BC COOP FIN CORP LTD - AP V.C      CNRB00038593859101000559                      URGENT  Bade Mohan Rao           3859101000559   
R413859101001488   000000000300000000000000000000000000000033881454741PD  GOVT OF AP Hyderabad salary    STATE BANK OF INDIA SECRETARIAT    3859101001488                   Teegala Venkateswara               BC COOP FIN CORP LTD - AP V.C      CNRB00038593859101001488                      URGENT  Teegala Venkateswara     3859101001488   
R413859101001382   000000000300000000000000000000000000000033881454741PD  GOVT OF AP Hyderabad salary    STATE BANK OF INDIA SECRETARIAT    3859101001382                   Dharmana Janaki Rao                BC COOP FIN CORP LTD - AP V.C      CNRB00038593859101001382                      URGENT  Dharmana Janaki Rao      3859101001382   
R413859101005071   000000000300000000000000000000000000000033881454741PD  GOVT OF AP Hyderabad salary    STATE BANK OF INDIA SECRETARIAT    3859101005071                   Rokalla Lingaraju                  BC COOP FIN CORP LTD - AP V.C      CNRB00038593859101005071                      URGENT  Rokalla Lingaraju        3859101005071   
R413859101004612   000000000300000000000000000000000000000033881454741PD  GOVT OF AP Hyderabad salary    STATE BANK OF INDIA SECRETARIAT    3859101004612                   Yagada Satyanarayanna              BC COOP FIN CORP LTD - AP V.C      CNRB00038593859101004612                      URGENT  Yagada Satyanarayanna    3859101004612   
R413859101004818   000000000300000000000000000000000000000033881454741PD  GOVT OF AP Hyderabad salary    STATE BANK OF INDIA SECRETARIAT    3859101004818                   Parasuram                          BC COOP FIN CORP LTD - AP V.C      CNRB00038593859101004818                      URGENT  Parasuram                3859101004818   
R413859101005070   000000000300000000000000000000000000000033881454741PD  GOVT OF AP Hyderabad salary    STATE BANK OF INDIA SECRETARIAT    3859101005070                   Koyya Lakshmi                      BC COOP FIN CORP LTD - AP V.C      CNRB00038593859101005070                      URGENT  Koyya Lakshmi            3859101005070   
R413859101005060   000000000200000000000000000000000000000033881454741PD  GOVT OF AP Hyderabad salary    STATE BANK OF INDIA SECRETARIAT    3859101005060                   Lopinti Tulasi                     BC COOP FIN CORP LTD - AP V.C      CNRB00038593859101005060                      URGENT  Lopinti Tulasi           3859101005060   
R413859101004046   000000000250000000000000000000000000000033881454741PD  GOVT OF AP Hyderabad salary    STATE BANK OF INDIA SECRETARIAT    3859101004046                   Palina Janaki                      BC COOP FIN CORP LTD - AP V.C      CNRB00038593859101004046                      URGENT  Palina Janaki            3859101004046   
R413859101002370   000000000300000000000000000000000000000033881454741PD  GOVT OF AP Hyderabad salary    STATE BANK OF INDIA SECRETARIAT    3859101002370                   Salina Sunitha                     BC COOP FIN CORP LTD - AP V.C      CNRB00038593859101002370                      URGENT  Salina Sunitha           3859101002370   
R413859101002164   000000000300000000000000000000000000000033881454741PD  GOVT OF AP Hyderabad salary    STATE BANK OF INDIA SECRETARIAT    3859101002164                   Arasavalli Surya Prakasa Rao       BC COOP FIN CORP LTD - AP V.C      CNRB00038593859101002164                      URGENT  Arasavalli Surya Prakasa 3859101002164   
R413859101002723   000000000300000000000000000000000000000033881454741PD  GOVT OF AP Hyderabad salary    STATE BANK OF INDIA SECRETARIAT    3859101002723                   Yeduru Puspanjali                  BC COOP FIN CORP LTD - AP V.C      CNRB00038593859101002723                      URGENT  Yeduru Puspanjali        3859101002723   
R413859101001203   000000000250000000000000000000000000000033881454741PD  GOVT OF AP Hyderabad salary    STATE BANK OF INDIA SECRETARIAT    3859101001203                   Patri Jagan Mohan                  BC COOP FIN CORP LTD - AP V.C      CNRB00038593859101001203                      URGENT  Patri Jagan Mohan        3859101001203   
R413859101005080   000000000500000000000000000000000000000033881454741PD  GOVT OF AP Hyderabad salary    STATE BANK OF INDIA SECRETARIAT    3859101005080                   Kurmapu Ayyappa                    BC COOP FIN CORP LTD - AP V.C      CNRB00038593859101005080                      URGENT  Kurmapu Ayyappa          3859101005080   
R413859101000503   000000000300000000000000000000000000000033881454741PD  GOVT OF AP Hyderabad salary    STATE BANK OF INDIA SECRETARIAT    3859101000503                   Gouda Banchanidhi                  BC COOP FIN CORP LTD - AP V.C      CNRB00038593859101000503                      URGENT  Gouda Banchanidhi        3859101000503   
R413859101003782   000000000250000000000000000000000000000033881454741PD  GOVT OF AP Hyderabad salary    STATE BANK OF INDIA SECRETARIAT    3859101003782                   Patri Somesh                       BC COOP FIN CORP LTD - AP V.C      CNRB00038593859101003782                      URGENT  Patri Somesh             3859101003782   
R413859101004096   000000000200000000000000000000000000000033881454741PD  GOVT OF AP Hyderabad salary    STATE BANK OF INDIA SECRETARIAT    3859101004096                   Uppada Mohini                      BC COOP FIN CORP LTD - AP V.C      CNRB00038593859101004096                      URGENT  Uppada Mohini            3859101004096   
R413859101003792   000000000250000000000000000000000000000033881454741PD  GOVT OF AP Hyderabad salary    STATE BANK OF INDIA SECRETARIAT    3859101003792                   Patri Sivakumar                    BC COOP FIN CORP LTD - AP V.C      CNRB00038593859101003792                      URGENT  Patri Sivakumar          3859101003792   
R413859101003833   000000000250000000000000000000000000000033881454741PD  GOVT OF AP Hyderabad salary    STATE BANK OF INDIA SECRETARIAT    3859101003833                   Patri Sabitadevi                   BC COOP FIN CORP LTD - AP V.C      CNRB00038593859101003833                      URGENT  Patri Sabitadevi         3859101003833   
R413859101004418   000000000500000000000000000000000000000033881454741PD  GOVT OF AP Hyderabad salary    STATE BANK OF INDIA SECRETARIAT    3859101004418                   Battula Dhanalaxmi                 BC COOP FIN CORP LTD - AP V.C      CNRB00038593859101004418                      URGENT  Battula Dhanalaxmi       3859101004418   
R413859101003936   000000000200000000000000000000000000000033881454741PD  GOVT OF AP Hyderabad salary    STATE BANK OF INDIA SECRETARIAT    3859101003936                   Pinninti Sujatha                   BC COOP FIN CORP LTD - AP V.C      CNRB00038593859101003936                      URGENT  Pinninti Sujatha         3859101003936   
R413859101003816   000000000250000000000000000000000000000033881454741PD  GOVT OF AP Hyderabad salary    STATE BANK OF INDIA SECRETARIAT    3859101003816                   Parimalla Jagannadha Rao           BC COOP FIN CORP LTD - AP V.C      CNRB00038593859101003816                      URGENT  Parimalla Jagannadha Rao 3859101003816   
R413859101005031   000000000250000000000000000000000000000033881454741PD  GOVT OF AP Hyderabad salary    STATE BANK OF INDIA SECRETARIAT    3859101005031                   Patri Naresh                       BC COOP FIN CORP LTD - AP V.C      CNRB00038593859101005031                      URGENT  Patri Naresh             3859101005031   
R413859101004693   000000000300000000000000000000000000000033881454741PD  GOVT OF AP Hyderabad salary    STATE BANK OF INDIA SECRETARIAT    3859101004693                   Korikana Pratap                    BC COOP FIN CORP LTD - AP V.C      CNRB00038593859101004693                      URGENT  Korikana Pratap          3859101004693   
R413859101004853   000000000300000000000000000000000000000033881454741PD  GOVT OF AP Hyderabad salary    STATE BANK OF INDIA SECRETARIAT    3859101004853                   Budda Janakirao                    BC COOP FIN CORP LTD - AP V.C      CNRB00038593859101004853                      URGENT  Budda Janakirao          3859101004853   
R413859101004664   000000000300000000000000000000000000000033881454741PD  GOVT OF AP Hyderabad salary    STATE BANK OF INDIA SECRETARIAT    3859101004664                   Paila Narayana                     BC COOP FIN CORP LTD - AP V.C      CNRB00038593859101004664                      URGENT  Paila Narayana           3859101004664   
R413859101003569   000000000300000000000000000000000000000033881454741PD  GOVT OF AP Hyderabad salary    STATE BANK OF INDIA SECRETARIAT    3859101003569                   Dharman Chandrasekar               BC COOP FIN CORP LTD - AP V.C      CNRB00038593859101003569                      URGENT  Dharman Chandrasekar     3859101003569   
R413859101004006   000000000300000000000000000000000000000033881454741PD  GOVT OF AP Hyderabad salary    STATE BANK OF INDIA SECRETARIAT    3859101004006                   Karagana Krishna                   BC COOP FIN CORP LTD - AP V.C      CNRB00038593859101004006                      URGENT  Karagana Krishna         3859101004006   
R413859101001319   000000000300000000000000000000000000000033881454741PD  GOVT OF AP Hyderabad salary    STATE BANK OF INDIA SECRETARIAT    3859101001319                   Dasari Varada Raju                 BC COOP FIN CORP LTD - AP V.C      CNRB00038593859101001319                      URGENT  Dasari Varada Raju       3859101001319   
R413859101003807   000000000300000000000000000000000000000033881454741PD  GOVT OF AP Hyderabad salary    STATE BANK OF INDIA SECRETARIAT    3859101003807                   Dharmana Manadha Rao               BC COOP FIN CORP LTD - AP V.C      CNRB00038593859101003807                      URGENT  Dharmana Manadha Rao     3859101003807   
R413859101003836   000000000250000000000000000000000000000033881454741PD  GOVT OF AP Hyderabad salary    STATE BANK OF INDIA SECRETARIAT    3859101003836                   Patri Hema                         BC COOP FIN CORP LTD - AP V.C      CNRB00038593859101003836                      URGENT  Patri Hema               3859101003836   
R413859101001844   000000000300000000000000000000000000000033881454741PD  GOVT OF AP Hyderabad salary    STATE BANK OF INDIA SECRETARIAT    3859101001844                   Ulla Eswahaya                      BC COOP FIN CORP LTD - AP V.C      CNRB00038593859101001844                      URGENT  Ulla Eswahaya            3859101001844   
R413859101003866   000000000300000000000000000000000000000033881454741PD  GOVT OF AP Hyderabad salary    STATE BANK OF INDIA SECRETARIAT    3859101003866                   Bingu Duryodana                    BC COOP FIN CORP LTD - AP V.C      CNRB00038593859101003866                      URGENT  Bingu Duryodana          3859101003866   
R413859101004773   000000000300000000000000000000000000000033881454741PD  GOVT OF AP Hyderabad salary    STATE BANK OF INDIA SECRETARIAT    3859101004773                   Pulakala Srinuvasu                 BC COOP FIN CORP LTD - AP V.C      CNRB00038593859101004773                      URGENT  Pulakala Srinuvasu       3859101004773   
R413859101003815   000000000250000000000000000000000000000033881454741PD  GOVT OF AP Hyderabad salary    STATE BANK OF INDIA SECRETARIAT    3859101003815                   Nukala Chandrayya                  BC COOP FIN CORP LTD - AP V.C      CNRB00038593859101003815                      URGENT  Nukala Chandrayya        3859101003815   
R413859101003799   000000000250000000000000000000000000000033881454741PD  GOVT OF AP Hyderabad salary    STATE BANK OF INDIA SECRETARIAT    3859101003799                   Borubadra Lohidasu                 BC COOP FIN CORP LTD - AP V.C      CNRB00038593859101003799                      URGENT  Borubadra Lohidasu       3859101003799   
R410642108027851   000000000300000000000000000000000000000033881454741PD  GOVT OF AP Hyderabad salary    STATE BANK OF INDIA SECRETARIAT    0642108027851                   Matcha Durga Venkata Ramana        BC COOP FIN CORP LTD - AP V.C      CNRB00006420642108027851                      URGENT  Matcha Durga Venkata Rama0642108027851   
R413341108000224   000000000300000000000000000000000000000033881454741PD  GOVT OF AP Hyderabad salary    STATE BANK OF INDIA SECRETARIAT    3341108000224                   Vadla Sudha Mani                   BC COOP FIN CORP LTD - AP V.C      CNRB00033413341108000224                      URGENT  Vadla Sudha Mani         3341108000224   
R413341108000336   000000000300000000000000000000000000000033881454741PD  GOVT OF AP Hyderabad salary    STATE BANK OF INDIA SECRETARIAT    3341108000336                   Bonala Nagendra                    BC COOP FIN CORP LTD - AP V.C      CNRB00033413341108000336                      URGENT  Bonala Nagendra          3341108000336   
R413341108000182   000000000300000000000000000000000000000033881454741PD  GOVT OF AP Hyderabad salary    STATE BANK OF INDIA SECRETARIAT    3341108000182                   Pandla Gopi Krishna                BC COOP FIN CORP LTD - AP V.C      CNRB00033413341108000182                      URGENT  Pandla Gopi Krishna      3341108000182   
R413262348298      000000000300000000000000000000000000000033881454741PD  GOVT OF AP Hyderabad salary    STATE BANK OF INDIA SECRETARIAT    3262348298                      Pakki Chaitanya Sravanthi          BC COOP FIN CORP LTD - AP V.C      CBIN02833643262348298                         URGENT  Pakki Chaitanya Sravanthi3262348298      
R41714310031013901 000000000500000000000000000000000000000033881454741PD  GOVT OF AP Hyderabad salary    STATE BANK OF INDIA SECRETARIAT    714310031013901                 Donga Venkataratnam                BC COOP FIN CORP LTD - AP V.C      ANDB0007999714310031013901                    URGENT  Donga Venkataratnam      714310031013901 
R41714310031013918 000000000300000000000000000000000000000033881454741PD  GOVT OF AP Hyderabad salary    STATE BANK OF INDIA SECRETARIAT    714310031013918                 Magapu Suryakumari                 BC COOP FIN CORP LTD - AP V.C      ANDB0007999714310031013918                    URGENT  Magapu Suryakumari       714310031013918 
R41016200101017461 000000000300000000000000000000000000000033881454741PD  GOVT OF AP Hyderabad salary    STATE BANK OF INDIA SECRETARIAT    016200101017461                 Chokka Krkishore                   BC COOP FIN CORP LTD - AP V.C      CORP0000162016200101017461                    URGENT  Chokka Krkishore         016200101017461 
R41016200101017463 000000000300000000000000000000000000000033881454741PD  GOVT OF AP Hyderabad salary    STATE BANK OF INDIA SECRETARIAT    016200101017463                 Chodipilli Siva                    BC COOP FIN CORP LTD - AP V.C      CORP0000162016200101017463                    URGENT  Chodipilli Siva          016200101017463 
R41016200101017468 000000000300000000000000000000000000000033881454741PD  GOVT OF AP Hyderabad salary    STATE BANK OF INDIA SECRETARIAT    016200101017468                 Thaninki Suresh Kumar              BC COOP FIN CORP LTD - AP V.C      CORP0000162016200101017468                    URGENT  Thaninki Suresh Kumar    016200101017468 
R41003600101023489 000000000300000000000000000000000000000033881454741PD  GOVT OF AP Hyderabad salary    STATE BANK OF INDIA SECRETARIAT    003600101023489                 Nayakula Mahesh                    BC COOP FIN CORP LTD - AP V.C      CORP0000036003600101023489                    URGENT  Nayakula Mahesh          003600101023489 
R41003600101023373 000000000300000000000000000000000000000033881454741PD  GOVT OF AP Hyderabad salary    STATE BANK OF INDIA SECRETARIAT    003600101023373                 Nayakula Vannurswamy               BC COOP FIN CORP LTD - AP V.C      CORP0000036003600101023373                    URGENT  Nayakula Vannurswamy     003600101023373 
R41006300101019514 000000000300000000000000000000000000000033881454741PD  GOVT OF AP Hyderabad salary    STATE BANK OF INDIA SECRETARIAT    006300101019514                 Boya Boya Venkatesulu              BC COOP FIN CORP LTD - AP V.C      CORP0000036006300101019514                    URGENT  Boya Boya Venkatesulu    006300101019514 
R41003600101023434 000000000300000000000000000000000000000033881454741PD  GOVT OF AP Hyderabad salary    STATE BANK OF INDIA SECRETARIAT    003600101023434                 Golla Rukmini                      BC COOP FIN CORP LTD - AP V.C      CORP0000036003600101023434                    URGENT  Golla Rukmini            003600101023434 
R41003600101025332 000000000300000000000000000000000000000033881454741PD  GOVT OF AP Hyderabad salary    STATE BANK OF INDIA SECRETARIAT    003600101025332                 Jangali Santhamma                  BC COOP FIN CORP LTD - AP V.C      CORP0000036003600101025332                    URGENT  Jangali Santhamma        003600101025332 
R41003600101023390 000000000300000000000000000000000000000033881454741PD  GOVT OF AP Hyderabad salary    STATE BANK OF INDIA SECRETARIAT    003600101023390                 Boya Mangamma                      BC COOP FIN CORP LTD - AP V.C      CORP0000036003600101023390                    URGENT  Boya Mangamma            003600101023390 
R41842727754       000000000300000000000000000000000000000033881454741PD  GOVT OF AP Hyderabad salary    STATE BANK OF INDIA SECRETARIAT    842727754                       Mukkala Ramana                     BC COOP FIN CORP LTD - AP V.C      IDIB000S070842727754                          URGENT  Mukkala Ramana           842727754       
R416138743447      000000000300000000000000000000000000000033881454741PD  GOVT OF AP Hyderabad salary    STATE BANK OF INDIA SECRETARIAT    6138743447                      Chodavarapu Rupa                   BC COOP FIN CORP LTD - AP V.C      IDIB000S0706138743447                         URGENT  Chodavarapu Rupa         6138743447      
R41435720060       000000000300000000000000000000000000000033881454741PD  GOVT OF AP Hyderabad salary    STATE BANK OF INDIA SECRETARIAT    435720060                       Shahukari Vishala                  BC COOP FIN CORP LTD - AP V.C      IDIB000S070435720060                          URGENT  Shahukari Vishala        435720060       
R41053001000082240 000000000250000000000000000000000000000033881454741PD  GOVT OF AP Hyderabad salary    STATE BANK OF INDIA SECRETARIAT    053001000082240                 Sarumuri Haritha                   BC COOP FIN CORP LTD - AP V.C      IOBA0000530053001000082240                    URGENT  Sarumuri Haritha         053001000082240 
R41036101000054532 000000000300000000000000000000000000000033881454741PD  GOVT OF AP Hyderabad salary    STATE BANK OF INDIA SECRETARIAT    036101000054532                 Gorinta Malleswararao              BC COOP FIN CORP LTD - AP V.C      IOBA0000361036101000054532                    URGENT  Gorinta Malleswararao    036101000054532 
R417602500102243601000000000250000000000000000000000000000033881454741PD  GOVT OF AP Hyderabad salary    STATE BANK OF INDIA SECRETARIAT    7602500102243601                Chakala Lakshmi                    BC COOP FIN CORP LTD - AP V.C      KARB00007607602500102243601                   URGENT  Chakala Lakshmi          7602500102243601
R417602500103409901000000000200000000000000000000000000000033881454741PD  GOVT OF AP Hyderabad salary    STATE BANK OF INDIA SECRETARIAT    7602500103409901                Muthukuru Venkatapathi             BC COOP FIN CORP LTD - AP V.C      KARB00007607602500103409901                   URGENT  Muthukuru Venkatapathi   7602500103409901
R417602500103136101000000000300000000000000000000000000000033881454741PD  GOVT OF AP Hyderabad salary    STATE BANK OF INDIA SECRETARIAT    7602500103136101                Sirige Rajeswari                   BC COOP FIN CORP LTD - AP V.C      KARB00007607602500103136101                   URGENT  Sirige Rajeswari         7602500103136101
R417602500103319501000000000200000000000000000000000000000033881454741PD  GOVT OF AP Hyderabad salary    STATE BANK OF INDIA SECRETARIAT    7602500103319501                Chinta Yasodha                     BC COOP FIN CORP LTD - AP V.C      KARB00007607602500103319501                   URGENT  Chinta Yasodha           7602500103319501
R417602500101769501000000000250000000000000000000000000000033881454741PD  GOVT OF AP Hyderabad salary    STATE BANK OF INDIA SECRETARIAT    7602500101769501                Dampetla Puspavathi                BC COOP FIN CORP LTD - AP V.C      KARB00007607602500101769501                   URGENT  Dampetla Puspavathi      7602500101769501
R417602500103352801000000000300000000000000000000000000000033881454741PD  GOVT OF AP Hyderabad salary    STATE BANK OF INDIA SECRETARIAT    7602500103352801                Mada  Lakshmi Devi                 BC COOP FIN CORP LTD - AP V.C      KARB00007607602500103352801                   URGENT  Mada  Lakshmi Devi       7602500103352801
R411428155000032528000000000300000000000000000000000000000033881454741PD  GOVT OF AP Hyderabad salary    STATE BANK OF INDIA SECRETARIAT    1428155000032528                Kommana Eswararao                  BC COOP FIN CORP LTD - AP V.C      KVBL00014281428155000032528                   URGENT  Kommana Eswararao        1428155000032528
R4162305563604     000000000300000000000000000000000000000033881454741PD  GOVT OF AP Hyderabad salary    STATE BANK OF INDIA SECRETARIAT    62305563604                     Baggu Mallesh                      BC COOP FIN CORP LTD - AP V.C      SBHY002125362305563604                        URGENT  Baggu Mallesh            62305563604     
R4162305565545     000000000300000000000000000000000000000033881454741PD  GOVT OF AP Hyderabad salary    STATE BANK OF INDIA SECRETARIAT    62305565545                     Pappala Laxmi                      BC COOP FIN CORP LTD - AP V.C      SBHY002125362305565545                        URGENT  Pappala Laxmi            62305565545     
R4162316879435     000000000300000000000000000000000000000033881454741PD  GOVT OF AP Hyderabad salary    STATE BANK OF INDIA SECRETARIAT    62316879435                     Bugata Tirupati                    BC COOP FIN CORP LTD - AP V.C      SBHY002125762316879435                        URGENT  Bugata Tirupati          62316879435     
R4162319984301     000000000300000000000000000000000000000033881454741PD  GOVT OF AP Hyderabad salary    STATE BANK OF INDIA SECRETARIAT    62319984301                     Gowdo Sanjeev                      BC COOP FIN CORP LTD - AP V.C      SBHY002125762319984301                        URGENT  Gowdo Sanjeev            62319984301     
R4162313460361     000000000300000000000000000000000000000033881454741PD  GOVT OF AP Hyderabad salary    STATE BANK OF INDIA SECRETARIAT    62313460361                     Karthik                            BC COOP FIN CORP LTD - AP V.C      SBHY002125762313460361                        URGENT  Karthik                  62313460361     
R4162268435583     000000000300000000000000000000000000000033881454741PD  GOVT OF AP Hyderabad salary    STATE BANK OF INDIA SECRETARIAT    62268435583                     Pandava Neelaveni                  BC COOP FIN CORP LTD - AP V.C      SBHY002080962268435583                        URGENT  Pandava Neelaveni        62268435583     
R4162315997358     000000000300000000000000000000000000000033881454741PD  GOVT OF AP Hyderabad salary    STATE BANK OF INDIA SECRETARIAT    62315997358                     Pandava Mohini                     BC COOP FIN CORP LTD - AP V.C      SBHY002080962315997358                        URGENT  Pandava Mohini           62315997358     
R4162316989925     000000000300000000000000000000000000000033881454741PD  GOVT OF AP Hyderabad salary    STATE BANK OF INDIA SECRETARIAT    62316989925                     Sheik Mastan                       BC COOP FIN CORP LTD - AP V.C      SBHY002080962316989925                        URGENT  Sheik Mastan             62316989925     
R4162334778082     000000000300000000000000000000000000000033881454741PD  GOVT OF AP Hyderabad salary    STATE BANK OF INDIA SECRETARIAT    62334778082                     Madiki Durgabhavani                BC COOP FIN CORP LTD - AP V.C      SBHY002132262334778082                        URGENT  Madiki Durgabhavani      62334778082     
R4162177784876     000000000300000000000000000000000000000033881454741PD  GOVT OF AP Hyderabad salary    STATE BANK OF INDIA SECRETARIAT    62177784876                     Mattaddu Hemavathi                 BC COOP FIN CORP LTD - AP V.C      SBHY002099262177784876                        URGENT  Mattaddu Hemavathi       62177784876     
R4162332901972     000000000300000000000000000000000000000033881454741PD  GOVT OF AP Hyderabad salary    STATE BANK OF INDIA SECRETARIAT    62332901972                     Balabhaskar Arao                   BC COOP FIN CORP LTD - AP V.C      SBHY002078462332901972                        URGENT  Balabhaskar Arao         62332901972     
R4162325767661     000000000300000000000000000000000000000033881454741PD  GOVT OF AP Hyderabad salary    STATE BANK OF INDIA SECRETARIAT    62325767661                     Sampangi Ramanamma                 BC COOP FIN CORP LTD - AP V.C      SBHY002106662325767661                        URGENT  Sampangi Ramanamma       62325767661     
R4162077247675     000000000250000000000000000000000000000033881454741PD  GOVT OF AP Hyderabad salary    STATE BANK OF INDIA SECRETARIAT    62077247675                     Chinta Chandra Kala                BC COOP FIN CORP LTD - AP V.C      SBHY002106662077247675                        URGENT  Chinta Chandra Kala      62077247675     
R4162325201936     000000000300000000000000000000000000000033881454741PD  GOVT OF AP Hyderabad salary    STATE BANK OF INDIA SECRETARIAT    62325201936                     Kunte Suresh Kumar                 BC COOP FIN CORP LTD - AP V.C      SBHY002106662325201936                        URGENT  Kunte Suresh Kumar       62325201936     
R4135612210016769  000000000300000000000000000000000000000033881454741PD  GOVT OF AP Hyderabad salary    STATE BANK OF INDIA SECRETARIAT    35612210016769                  Killana Chandrasekhar              BC COOP FIN CORP LTD - AP V.C      SYNB000356135612210016769                     URGENT  Killana Chandrasekhar    35612210016769  
R4132622210010850  000000000250000000000000000000000000000033881454741PD  GOVT OF AP Hyderabad salary    STATE BANK OF INDIA SECRETARIAT    32622210010850                  Vyboina Padma                      BC COOP FIN CORP LTD - AP V.C      SYNB000326232622210010850                     URGENT  Vyboina Padma            32622210010850  
R4132622210010846  000000000250000000000000000000000000000033881454741PD  GOVT OF AP Hyderabad salary    STATE BANK OF INDIA SECRETARIAT    32622210010846                  Kurasa Srinu                       BC COOP FIN CORP LTD - AP V.C      SYNB000326232622210010846                     URGENT  Kurasa Srinu             32622210010846  
R4131652200060428  000000000300000000000000000000000000000033881454741PD  GOVT OF AP Hyderabad salary    STATE BANK OF INDIA SECRETARIAT    31652200060428                  Gowri Sankar                       BC COOP FIN CORP LTD - AP V.C      SYNB000316531652200060428                     URGENT  Gowri Sankar             31652200060428  
R4131652200019029  000000000300000000000000000000000000000033881454741PD  GOVT OF AP Hyderabad salary    STATE BANK OF INDIA SECRETARIAT    31652200019029                  Kolimi Kalavathi                   BC COOP FIN CORP LTD - AP V.C      SYNB000316531652200019029                     URGENT  Kolimi Kalavathi         31652200019029  
R4131652200059888  000000000300000000000000000000000000000033881454741PD  GOVT OF AP Hyderabad salary    STATE BANK OF INDIA SECRETARIAT    31652200059888                  Anjineyulu                         BC COOP FIN CORP LTD - AP V.C      SYNB000316531652200059888                     URGENT  Anjineyulu               31652200059888  
R4131652200037966  000000000300000000000000000000000000000033881454741PD  GOVT OF AP Hyderabad salary    STATE BANK OF INDIA SECRETARIAT    31652200037966                  Kishor Kumar                       BC COOP FIN CORP LTD - AP V.C      SYNB000316531652200037966                     URGENT  Kishor Kumar             31652200037966  
R4131212200154884  000000000300000000000000000000000000000033881454741PD  GOVT OF AP Hyderabad salary    STATE BANK OF INDIA SECRETARIAT    31212200154884                  Ganthala Ashok Kumar               BC COOP FIN CORP LTD - AP V.C      SYNB000312131212200154884                     URGENT  Ganthala Ashok Kumar     31212200154884  
R4131212210017094  000000000250000000000000000000000000000033881454741PD  GOVT OF AP Hyderabad salary    STATE BANK OF INDIA SECRETARIAT    31212210017094                  Dudekala Bavamma                   BC COOP FIN CORP LTD - AP V.C      SYNB000312131212210017094                     URGENT  Dudekala Bavamma         31212210017094  
R4131212200117744  000000000300000000000000000000000000000033881454741PD  GOVT OF AP Hyderabad salary    STATE BANK OF INDIA SECRETARIAT    31212200117744                  Nagiri Yangamuni                   BC COOP FIN CORP LTD - AP V.C      SYNB000312131212200117744                     URGENT  Nagiri Yangamuni         31212200117744  
R41573502010005124 000000000300000000000000000000000000000033881454741PD  GOVT OF AP Hyderabad salary    STATE BANK OF INDIA SECRETARIAT    573502010005124                 Meegada Gangayyamma                BC COOP FIN CORP LTD - AP V.C      UBIN0557358573502010005124                    URGENT  Meegada Gangayyamma      573502010005124 
R41573502010005170 000000000300000000000000000000000000000033881454741PD  GOVT OF AP Hyderabad salary    STATE BANK OF INDIA SECRETARIAT    573502010005170                 Dola Hemasundara Rao               BC COOP FIN CORP LTD - AP V.C      UBIN0557358573502010005170                    URGENT  Dola Hemasundara Rao     573502010005170 
R41573502010005122 000000000300000000000000000000000000000033881454741PD  GOVT OF AP Hyderabad salary    STATE BANK OF INDIA SECRETARIAT    573502010005122                 Guntumukkala Appalaraju            BC COOP FIN CORP LTD - AP V.C      UBIN0557358573502010005122                    URGENT  Guntumukkala Appalaraju  573502010005122 
R41573502010005121 000000000300000000000000000000000000000033881454741PD  GOVT OF AP Hyderabad salary    STATE BANK OF INDIA SECRETARIAT    573502010005121                 Utla Surya Prakash                 BC COOP FIN CORP LTD - AP V.C      UBIN0557358573502010005121                    URGENT  Utla Surya Prakash       573502010005121 
R41606502010005916 000000000250000000000000000000000000000033881454741PD  GOVT OF AP Hyderabad salary    STATE BANK OF INDIA SECRETARIAT    606502010005916                 Pampana Prabhavathi                BC COOP FIN CORP LTD - AP V.C      UBIN0560651606502010005916                    URGENT  Pampana Prabhavathi      606502010005916 
R41606502010002480 000000000250000000000000000000000000000033881454741PD  GOVT OF AP Hyderabad salary    STATE BANK OF INDIA SECRETARIAT    606502010002480                 Jonnada Shamala                    BC COOP FIN CORP LTD - AP V.C      UBIN0560651606502010002480                    URGENT  Jonnada Shamala          606502010002480 
R41606502010000361 000000000300000000000000000000000000000033881454741PD  GOVT OF AP Hyderabad salary    STATE BANK OF INDIA SECRETARIAT    606502010000361                 Vedurupaka Raju                    BC COOP FIN CORP LTD - AP V.C      UBIN0560651606502010000361                    URGENT  Vedurupaka Raju          606502010000361 
R411191010104272   000000000250000000000000000000000000000033881454741PD  GOVT OF AP Hyderabad salary    STATE BANK OF INDIA SECRETARIAT    1191010104272                   Penkey Laxmi                       BC COOP FIN CORP LTD - AP V.C      UTBI0BHK8251191010104272                      URGENT  Penkey Laxmi             1191010104272   
R41408801011001924 000000000300000000000000000000000000000033881454741PD  GOVT OF AP Hyderabad salary    STATE BANK OF INDIA SECRETARIAT    408801011001924                 Relangi Suresh                     BC COOP FIN CORP LTD - AP V.C      VIJB0004088408801011001924                    URGENT  Relangi Suresh           408801011001924 
R41400201010008499 000000000200000000000000000000000000000033881454741PD  GOVT OF AP Hyderabad salary    STATE BANK OF INDIA SECRETARIAT    400201010008499                 Mangala Mallikarjuna               BC COOP FIN CORP LTD - AP V.C      VIJB0004002400201010008499                    URGENT  Mangala Mallikarjuna     400201010008499 
R41403501991000005 000000000300000000000000000000000000000033881454741PD  GOVT OF AP Hyderabad salary    STATE BANK OF INDIA SECRETARIAT    403501991000005                 Sivapu Devi Naga Jyothi            BC COOP FIN CORP LTD - AP V.C      VIJB0009625403501991000005                    URGENT  Sivapu Devi Naga Jyothi  403501991000005 
