R41000000000400000000000000000000000099999999999999999PAO GOVT OF AP Hyderabad salary    STATE BANK OF INDIA SECRETARIAT    014510100016336                 M/s  Dr Raman Foundation Vari Sri SFILM AND TV DEVELOPMENT  CORPORATI ANDB0000145014510100016336                    URGENT  M/s  Dr Raman Foundation                                  014510100016336 EMLdpao-sect@ap.nic.in             
R41000000000150000000000000000000000099999999999999999PAO GOVT OF AP Hyderabad salary    STATE BANK OF INDIA SECRETARIAT    013110011020909                 Sri Koneti Subbha Raju             FILM AND TV DEVELOPMENT  CORPORATI ANDB0000131013110011020909                    URGENT  Sri Koneti Subbha Raju                                    013110011020909 EMLdpao-sect@ap.nic.in             
R41000000000400000000000000000000000099999999999999999PAO GOVT OF AP Hyderabad salary    STATE BANK OF INDIA SECRETARIAT    037810100034378                 Sri V Venu Gopala Chary            FILM AND TV DEVELOPMENT  CORPORATI ANDB0000378037810100034378                    URGENT  Sri V Venu Gopala Chary                                   037810100034378 EMLdpao-sect@ap.nic.in             
R41000000000150000000000000000000000099999999999999999PAO GOVT OF AP Hyderabad salary    STATE BANK OF INDIA SECRETARIAT    055010011015316                 Malladi V Suryanarayana            FILM AND TV DEVELOPMENT  CORPORATI ANDB0000550055010011015316                    URGENT  Malladi V Suryanarayana                                   055010011015316 EMLdpao-sect@ap.nic.in             
R41000000000050000000000000000000000099999999999999999PAO GOVT OF AP Hyderabad salary    STATE BANK OF INDIA SECRETARIAT    135510011000164                 Akella Surya Narayana Murthy       FILM AND TV DEVELOPMENT  CORPORATI ANDB0001355135510011000164                    URGENT  Akella Surya Narayana Mur                                 135510011000164 EMLdpao-sect@ap.nic.in             
R41000000000300000000000000000000000099999999999999999PAO GOVT OF AP Hyderabad salary    STATE BANK OF INDIA SECRETARIAT    054331100000131                 M/s VVR Entertainment India Pvt LtdFILM AND TV DEVELOPMENT  CORPORATI ANDB0000543054331100000131                    URGENT  M/s VVR Entertainment Ind                                 054331100000131 EMLdpao-sect@ap.nic.in             
R41000000000050000000000000000000000099999999999999999PAO GOVT OF AP Hyderabad salary    STATE BANK OF INDIA SECRETARIAT    135510100005491                 J Hari Babu                        FILM AND TV DEVELOPMENT  CORPORATI  ANDB000135135510100005491                    URGENT  J Hari Babu                                               135510100005491 EMLdpao-sect@ap.nic.in             
R41000000000050000000000000000000000099999999999999999PAO GOVT OF AP Hyderabad salary    STATE BANK OF INDIA SECRETARIAT    010910011013960                 Sri Sk Misro (SP)                  FILM AND TV DEVELOPMENT  CORPORATI ANDB0000109010910011013960                    URGENT  Sri Sk Misro (SP)                                         010910011013960 EMLdpao-sect@ap.nic.in             
R41000000000030000000000000000000000099999999999999999PAO GOVT OF AP Hyderabad salary    STATE BANK OF INDIA SECRETARIAT    010910011013960                 Sri Sk Misro (SPL)                 FILM AND TV DEVELOPMENT  CORPORATI ANDB0000109010910011013960                    URGENT  Sri Sk Misro (SPL)                                        010910011013960 EMLdpao-sect@ap.nic.in             
R41000000000300000000000000000000000099999999999999999PAO GOVT OF AP Hyderabad salary    STATE BANK OF INDIA SECRETARIAT    020810011014030                 Sri SVS Bhaskara Krishna           FILM AND TV DEVELOPMENT  CORPORATI ANDB0000208020810011014030                    URGENT  Sri SVS Bhaskara Krishna                                  020810011014030 EMLdpao-sect@ap.nic.in             
R41000000000050000000000000000000000099999999999999999PAO GOVT OF AP Hyderabad salary    STATE BANK OF INDIA SECRETARIAT    033810100048664                 G V H S V Chandra Kumar            FILM AND TV DEVELOPMENT  CORPORATI ANDB0000338033810100048664                    URGENT  G V H S V Chandra Kumar                                   033810100048664 EMLdpao-sect@ap.nic.in             
R41000000000300000000000000000000000099999999999999999PAO GOVT OF AP Hyderabad salary    STATE BANK OF INDIA SECRETARIAT    115610013090078                 Sri Md Mohinuddin                  FILM AND TV DEVELOPMENT  CORPORATI ANDB0001156115610013090078                    URGENT  Sri Md Mohinuddin                                         115610013090078 EMLdpao-sect@ap.nic.in             
R41000000000300000000000000000000000099999999999999999PAO GOVT OF AP Hyderabad salary    STATE BANK OF INDIA SECRETARIAT    030310011004661                 M/s The Youngmen's Happy Club      FILM AND TV DEVELOPMENT  CORPORATI ANDB0000303030310011004661                    URGENT  M/s The Youngmen's Happy                                  030310011004661 EMLdpao-sect@ap.nic.in             
R41000000000030000000000000000000000099999999999999999PAO GOVT OF AP Hyderabad salary    STATE BANK OF INDIA SECRETARIAT    100710011300943                 Sri P Mruthyunjaya Rao             FILM AND TV DEVELOPMENT  CORPORATI ANDB0001007100710011300943                    URGENT  Sri P Mruthyunjaya Rao                                    100710011300943 EMLdpao-sect@ap.nic.in             
R41000000000200000000000000000000000099999999999999999PAO GOVT OF AP Hyderabad salary    STATE BANK OF INDIA SECRETARIAT    061710021000038                 Sri Y Buchaiah Chowdary            FILM AND TV DEVELOPMENT  CORPORATI ANDB0000617061710021000038                    URGENT  Sri Y Buchaiah Chowdary                                   061710021000038 EMLdpao-sect@ap.nic.in             
R41000000000030000000000000000000000099999999999999999PAO GOVT OF AP Hyderabad salary    STATE BANK OF INDIA SECRETARIAT    135510100005491                 Hari babu                          FILM AND TV DEVELOPMENT  CORPORATI ANDB0001355135510100005491                    URGENT  Hari babu                                                 135510100005491 EMLdpao-sect@ap.nic.in             
R41000000000030000000000000000000000099999999999999999PAO GOVT OF AP Hyderabad salary    STATE BANK OF INDIA SECRETARIAT    135510011000164                 Akella Surya Narayana Murthy       FILM AND TV DEVELOPMENT  CORPORATI ANDB0001355135510011000164                    URGENT  Akella Surya Narayana Mur                                 135510011000164 EMLdpao-sect@ap.nic.in             
R41000000000030000000000000000000000099999999999999999PAO GOVT OF AP Hyderabad salary    STATE BANK OF INDIA SECRETARIAT    039710011902654                 Sri Uday Bhagavathula              FILM AND TV DEVELOPMENT  CORPORATI ANDB0000397039710011902654                    URGENT  Sri Uday Bhagavathula                                     039710011902654 EMLdpao-sect@ap.nic.in             
R41000000000200000000000000000000000099999999999999999PAO GOVT OF AP Hyderabad salary    STATE BANK OF INDIA SECRETARIAT    010210100063574                 M/s DNR College Association        FILM AND TV DEVELOPMENT  CORPORATI ANDB0000102010210100063574                    URGENT  M/s DNR College Associati                                 010210100063574 EMLdpao-sect@ap.nic.in             
R41000000000030000000000000000000000099999999999999999PAO GOVT OF AP Hyderabad salary    STATE BANK OF INDIA SECRETARIAT    156710100054327                 Sri Veeravalli Sasi Evangelin      FILM AND TV DEVELOPMENT  CORPORATI ANDB0001567156710100054327                    URGENT  Sri Veeravalli Sasi Evang                                 156710100054327 EMLdpao-sect@ap.nic.in             
R41000000000200000000000000000000000099999999999999999PAO GOVT OF AP Hyderabad salary    STATE BANK OF INDIA SECRETARIAT    033810100040664                 Sri GVHSVC Kumar                   FILM AND TV DEVELOPMENT  CORPORATI ANDB0000338033810100040664                    URGENT  Sri GVHSVC Kumar                                          033810100040664 EMLdpao-sect@ap.nic.in             
R41000000000030000000000000000000000099999999999999999PAO GOVT OF AP Hyderabad salary    STATE BANK OF INDIA SECRETARIAT    111910100053160                 Sri PV Bhavani Prasad              FILM AND TV DEVELOPMENT  CORPORATI ANDB0001119111910100053160                    URGENT  Sri PV Bhavani Prasad                                     111910100053160 EMLdpao-sect@ap.nic.in             
R41000000000200000000000000000000000099999999999999999PAO GOVT OF AP Hyderabad salary    STATE BANK OF INDIA SECRETARIAT    095510100038736                 M/s Chaitanya Kala Sravanthi       FILM AND TV DEVELOPMENT  CORPORATI  ANDB000955095510100038736                    URGENT  M/s Chaitanya Kala Sravan                                 095510100038736 EMLdpao-sect@ap.nic.in             
R41000000000200000000000000000000000099999999999999999PAO GOVT OF AP Hyderabad salary    STATE BANK OF INDIA SECRETARIAT    012610100024627                 P Kaveeswaradu (Kavi PNM)          FILM AND TV DEVELOPMENT  CORPORATI  ANDB000126012610100024627                    URGENT  P Kaveeswaradu (Kavi PNM)                                 012610100024627 EMLdpao-sect@ap.nic.in             
R41000000000030000000000000000000000099999999999999999PAO GOVT OF AP Hyderabad salary    STATE BANK OF INDIA SECRETARIAT    012610100024627                 P Kaveeswaradu (Kavi PNM)          FILM AND TV DEVELOPMENT  CORPORATI  ANDB000126012610100024627                    URGENT  P Kaveeswaradu (Kavi PNM)                                 012610100024627 EMLdpao-sect@ap.nic.in             
R41000000000030000000000000000000000099999999999999999PAO GOVT OF AP Hyderabad salary    STATE BANK OF INDIA SECRETARIAT    031410011021856                 Kavuru Satyanarayana               FILM AND TV DEVELOPMENT  CORPORATI ANDB0000314031410011021856                    URGENT  Kavuru Satyanarayana                                      031410011021856 EMLdpao-sect@ap.nic.in             
R41000000000200000000000000000000000099999999999999999PAO GOVT OF AP Hyderabad salary    STATE BANK OF INDIA SECRETARIAT    09710025011483                  Sri TV Rangaiah                    FILM AND TV DEVELOPMENT  CORPORATI ANDB000109709710025011483                     URGENT  Sri TV Rangaiah                                           09710025011483  EMLdpao-sect@ap.nic.in             
R41000000000030000000000000000000000099999999999999999PAO GOVT OF AP Hyderabad salary    STATE BANK OF INDIA SECRETARIAT    09710025011483                  Sri TV Rangaiah                    FILM AND TV DEVELOPMENT  CORPORATI ANDB000109709710025011483                     URGENT  Sri TV Rangaiah                                           09710025011483  EMLdpao-sect@ap.nic.in             
R41000000000030000000000000000000000099999999999999999PAO GOVT OF AP Hyderabad salary    STATE BANK OF INDIA SECRETARIAT    046910011232297                 Gopisatya Prakash                  FILM AND TV DEVELOPMENT  CORPORATI ANDB0000469046910011232297                    URGENT  Gopisatya Prakash                                         046910011232297 EMLdpao-sect@ap.nic.in             
R41000000000030000000000000000000000099999999999999999PAO GOVT OF AP Hyderabad salary    STATE BANK OF INDIA SECRETARIAT    054310016801468                 Sri Sai Prashanthi Meka            FILM AND TV DEVELOPMENT  CORPORATI ANDB0000543054310016801468                    URGENT  Sri Sai Prashanthi Meka                                   054310016801468 EMLdpao-sect@ap.nic.in             
R41000000000030000000000000000000000099999999999999999PAO GOVT OF AP Hyderabad salary    STATE BANK OF INDIA SECRETARIAT    054310011027569                 Panasala Venkateswarlu             FILM AND TV DEVELOPMENT  CORPORATI ANDB0000543054310011027569                    URGENT  Panasala Venkateswarlu                                    054310011027569 EMLdpao-sect@ap.nic.in             
R41000000000150000000000000000000000099999999999999999PAO GOVT OF AP Hyderabad salary    STATE BANK OF INDIA SECRETARIAT    62087306094                     Ponapalli Viswanarayana Krishna    FILM AND TV DEVELOPMENT  CORPORATI SBHY002016962087306094                        URGENT  Ponapalli Viswanarayana K                                 62087306094     EMLdpao-sect@ap.nic.in             
R41000000000400000000000000000000000099999999999999999PAO GOVT OF AP Hyderabad salary    STATE BANK OF INDIA SECRETARIAT    52092259347                     M/s Navakranthi Cultural AssociatioFILM AND TV DEVELOPMENT  CORPORATI SBHY002077152092259347                        URGENT  M/s Navakranthi Cultural                                  52092259347     EMLdpao-sect@ap.nic.in             
R41000000000400000000000000000000000099999999999999999PAO GOVT OF AP Hyderabad salary    STATE BANK OF INDIA SECRETARIAT    62415790155                     M/s Khammam Cultural Association   FILM AND TV DEVELOPMENT  CORPORATI SBHY002078062415790155                        URGENT  M/s Khammam Cultural Asso                                 62415790155     EMLdpao-sect@ap.nic.in             
R41000000000150000000000000000000000099999999999999999PAO GOVT OF AP Hyderabad salary    STATE BANK OF INDIA SECRETARIAT    520655060107                    Tatikondala Narasimha Rao          FILM AND TV DEVELOPMENT  CORPORATI SBHY0020780520655060107                       URGENT  Tatikondala Narasimha Rao                                 520655060107    EMLdpao-sect@ap.nic.in             
R41000000000400000000000000000000000099999999999999999PAO GOVT OF AP Hyderabad salary    STATE BANK OF INDIA SECRETARIAT    62088974005                     Sri A Rajakumar                    FILM AND TV DEVELOPMENT  CORPORATI SBHY002031162088974005                        URGENT  Sri A Rajakumar                                           62088974005     EMLdpao-sect@ap.nic.in             
R41000000000050000000000000000000000099999999999999999PAO GOVT OF AP Hyderabad salary    STATE BANK OF INDIA SECRETARIAT    52095096002                     Akella Suryanarayana Murthy        FILM AND TV DEVELOPMENT  CORPORATI SBHY002006752095096002                        URGENT  Akella Suryanarayana Murt                                 52095096002     EMLdpao-sect@ap.nic.in             
R41000000000050000000000000000000000099999999999999999PAO GOVT OF AP Hyderabad salary    STATE BANK OF INDIA SECRETARIAT    62182042837                     Sri Cherukuri Samba Sivarao        FILM AND TV DEVELOPMENT  CORPORATI SBHY002134562182042837                        URGENT  Sri Cherukuri Samba Sivar                                 62182042837     EMLdpao-sect@ap.nic.in             
R41000000000030000000000000000000000099999999999999999PAO GOVT OF AP Hyderabad salary    STATE BANK OF INDIA SECRETARIAT    62010487353                     Pokala Trimadhav                   FILM AND TV DEVELOPMENT  CORPORATI SBHY002096462010487353                        URGENT  Pokala Trimadhav                                          62010487353     EMLdpao-sect@ap.nic.in             
R41000000000200000000000000000000000099999999999999999PAO GOVT OF AP Hyderabad salary    STATE BANK OF INDIA SECRETARIAT    52208994331                     M/s Future Times Welfare AssociatioFILM AND TV DEVELOPMENT  CORPORATI SBHY002006652208994331                        URGENT  M/s Future Times Welfare                                  52208994331     EMLdpao-sect@ap.nic.in             
R41000000000030000000000000000000000099999999999999999PAO GOVT OF AP Hyderabad salary    STATE BANK OF INDIA SECRETARIAT    52208994331                     MS Chowdary                        FILM AND TV DEVELOPMENT  CORPORATI SBHY002006652208994331                        URGENT  MS Chowdary                                               52208994331     EMLdpao-sect@ap.nic.in             
R41000000000200000000000000000000000099999999999999999PAO GOVT OF AP Hyderabad salary    STATE BANK OF INDIA SECRETARIAT    62363945143                     Sri M Ramakrishna                  FILM AND TV DEVELOPMENT  CORPORATI SBHY002128362363945143                        URGENT  Sri M Ramakrishna                                         62363945143     EMLdpao-sect@ap.nic.in             
R41000000000150000000000000000000000099999999999999999PAO GOVT OF AP Hyderabad salary    STATE BANK OF INDIA SECRETARIAT    894540276                       Achuthuni Siva Rama Prasad         FILM AND TV DEVELOPMENT  CORPORATI IDIB000N054894540276                          URGENT  Achuthuni Siva Rama Prasa                                 894540276       EMLdpao-sect@ap.nic.in             
R41000000000200000000000000000000000099999999999999999PAO GOVT OF AP Hyderabad salary    STATE BANK OF INDIA SECRETARIAT    6334212695                      M/s Katuri Public School           FILM AND TV DEVELOPMENT  CORPORATI IDIB000G0236334212695                         URGENT  M/s Katuri Public School                                  6334212695      EMLdpao-sect@ap.nic.in             
R41000000000300000000000000000000000099999999999999999PAO GOVT OF AP Hyderabad salary    STATE BANK OF INDIA SECRETARIAT    3023290588                      Sri L  Pramod                      FILM AND TV DEVELOPMENT  CORPORATI CBIN02808133023290588                         URGENT  Sri L  Pramod                                             3023290588      EMLdpao-sect@ap.nic.in             
R41000000000200000000000000000000000099999999999999999PAO GOVT OF AP Hyderabad salary    STATE BANK OF INDIA SECRETARIAT    3023290588                      Lakka Pragada Pramod               FILM AND TV DEVELOPMENT  CORPORATI CBIN02808133023290588                         URGENT  Lakka Pragada Pramod                                      3023290588      EMLdpao-sect@ap.nic.in             
R41000000000300000000000000000000000099999999999999999PAO GOVT OF AP Hyderabad salary    STATE BANK OF INDIA SECRETARIAT    031400101002761                 Nagabhatla Bapanna Sastry(M/s Sri SFILM AND TV DEVELOPMENT  CORPORATI CORP0000314031400101002761                    URGENT  Nagabhatla Bapanna Sastry                                 031400101002761 EMLdpao-sect@ap.nic.in             
R41000000000050000000000000000000000099999999999999999PAO GOVT OF AP Hyderabad salary    STATE BANK OF INDIA SECRETARIAT    031400101002761                 Nagabhatla Bapanna Sastry          FILM AND TV DEVELOPMENT  CORPORATI CORP0000314031400101002761                    URGENT  Nagabhatla Bapanna Sastry                                 031400101002761 EMLdpao-sect@ap.nic.in             
