R41911030062648747 000000000129540000000000000000000000000033881454741PAO GOVT OF AP Hyderabad salary    STATE BANK OF INDIA SECRETARIAT    911030062648747                 M/s Jyothi Computer Services Hyd   STATE AGRL MANAGEMENT EXTENSION TR UTIB0001634911030062648747                    URGENT  M/s Jyothi Computer Servi911030062648747 
R41911030062648747 000000000091360000000000000000000000000033881454741PAO GOVT OF AP Hyderabad salary    STATE BANK OF INDIA SECRETARIAT    911030062648747                 M/s Jyothi Computer Services Hyd   STATE AGRL MANAGEMENT EXTENSION TR UTIB0001634911030062648747                    URGENT  M/s Jyothi Computer Servi911030062648747 
R4101921010052417  000000000200000000000000000000000000000033881454741PAO GOVT OF AP Hyderabad salary    STATE BANK OF INDIA SECRETARIAT    01921010052417                  SViajayaSarathy                    STATE AGRL MANAGEMENT EXTENSION TR ANDB000019201921010052417                     URGENT  SViajayaSarathy          01921010052417  
