R41000000000005840000000000000000000000000033881454741PAO GOVT OF AP Hyderabad salary    STATE BANK OF INDIA SECRETARIAT                                    LICofIndiaParvathipuram            SEC AMC VIZIANAGARAM                                                             URGENT  LICofIndiaParvathipuram                                                   EMLdpao-sect@ap.nic.in             
R41000000000007500000000000000000000000000033881454741PAO GOVT OF AP Hyderabad salary    STATE BANK OF INDIA SECRETARIAT                                    Commissioner&DirectorofMarketingAndSEC AMC VIZIANAGARAM                                                             URGENT  Commissioner&DirectorofMa                                                 EMLdpao-sect@ap.nic.in             
R41000000000031540000000000000000000000000033881454741PAO GOVT OF AP Hyderabad salary    STATE BANK OF INDIA SECRETARIAT                                    LICofIndiaParvathipuram            SEC AMC VIZIANAGARAM                                                             URGENT  LICofIndiaParvathipuram                                                   EMLdpao-sect@ap.nic.in             
R41000000000035370000000000000000000000000033881454741PAO GOVT OF AP Hyderabad salary    STATE BANK OF INDIA SECRETARIAT                                    SeniorciviljudgeDistrictCourtvzm   SEC AMC VIZIANAGARAM                                                             URGENT  SeniorciviljudgeDistrictC                                                 EMLdpao-sect@ap.nic.in             
R41000000000038830000000000000000000000000033881454741PAO GOVT OF AP Hyderabad salary    STATE BANK OF INDIA SECRETARIAT                                    LICofIndiavzm                      SEC AMC VIZIANAGARAM                                                             URGENT  LICofIndiavzm                                                             EMLdpao-sect@ap.nic.in             
R41000000000001250000000000000000000000000033881454741PAO GOVT OF AP Hyderabad salary    STATE BANK OF INDIA SECRETARIAT                                    LICofindiaHyderabad                SEC AMC VIZIANAGARAM                                                             URGENT  LICofindiaHyderabad                                                       EMLdpao-sect@ap.nic.in             
