R41000000010478200000000000000000000000000033881454741PAO GOVT OF AP Hyderabad salary    STATE BANK OF INDIA SECRETARIAT    62212123001                     RS G Seethampeta                   TRIBAL WELFARE RESIDENTIAL EDUCATI SBHY002124162212123001                        URGENT  RS G Seethampeta         62212123001     
R41000000007643360000000000000000000000000033881454741PAO GOVT OF AP Hyderabad salary    STATE BANK OF INDIA SECRETARIAT    62206970917                     RJC G RC Varam                     TRIBAL WELFARE RESIDENTIAL EDUCATI SBHY002033962206970917                        URGENT  RJC G RC Varam           62206970917     
R41000000007451190000000000000000000000000033881454741PAO GOVT OF AP Hyderabad salary    STATE BANK OF INDIA SECRETARIAT    62051855773                     RJC G Mahanandi                    TRIBAL WELFARE RESIDENTIAL EDUCATI SBHY002067762051855773                        URGENT  RJC G Mahanandi          62051855773     
