R41000000000564200000000000000000000000000033881454741PD  GOVT OF AP Hyderabad salary    STATE BANK OF INDIA SECRETARIAT    52188992572                     C.K.Raghavendra Rao                SCHEDULED TRIBES CO-OP FINANCE COR SBHY002102652188992572                        URGENT  C.K.Raghavendra Rao                                       52188992572     EMLdpao-sect@ap.nic.in             
R41000000000519740000000000000000000000000033881454741PD  GOVT OF AP Hyderabad salary    STATE BANK OF INDIA SECRETARIAT    52189000372                     V.Sasikala                         SCHEDULED TRIBES CO-OP FINANCE COR SBHY002102652189000372                        URGENT  V.Sasikala                                                52189000372     EMLdpao-sect@ap.nic.in             
R41000000000409780000000000000000000000000033881454741PD  GOVT OF AP Hyderabad salary    STATE BANK OF INDIA SECRETARIAT    62085421860                     N.Kusuma Kumari                    SCHEDULED TRIBES CO-OP FINANCE COR SBHY002102662085421860                        URGENT  N.Kusuma Kumari                                           62085421860     EMLdpao-sect@ap.nic.in             
R41000000000601970000000000000000000000000033881454741PD  GOVT OF AP Hyderabad salary    STATE BANK OF INDIA SECRETARIAT    52188989412                     Aslam Basha                        SCHEDULED TRIBES CO-OP FINANCE COR SBHY002102652188989412                        URGENT  Aslam Basha                                               52188989412     EMLdpao-sect@ap.nic.in             
R41000000000392330000000000000000000000000033881454741PD  GOVT OF AP Hyderabad salary    STATE BANK OF INDIA SECRETARIAT    1.07E+14                        B.Subba Rao                        SCHEDULED TRIBES CO-OP FINANCE COR IOBA00010711.07E+14                           URGENT  B.Subba Rao                                               1.07E+14        EMLdpao-sect@ap.nic.in             
