R41000000002696250000000000000000000099999999999999999PAO GOVT OF AP Hyderabad salary    STATE BANK OF INDIA SECRETARIAT    6028751690                      Collector and Chairman             SPORTS AUTH - APVC & MD            IDIB000C0656028751690                         URGENT  Collector and Chairman   6028751690      
R41000000003472500000000000000000000099999999999999999PAO GOVT OF AP Hyderabad salary    STATE BANK OF INDIA SECRETARIAT    34622200003411                  Collector and Chairman             SPORTS AUTH - APVC & MD            SYNB000346234622200003411                     URGENT  Collector and Chairman   34622200003411  
R41000000002812500000000000000000000099999999999999999PAO GOVT OF AP Hyderabad salary    STATE BANK OF INDIA SECRETARIAT    040310011001013                 Collector and Chairman             SPORTS AUTH - APVC & MD            ANDB0000403040310011001013                    URGENT  Collector and Chairman   040310011001013 
R41000000002718750000000000000000000099999999999999999PAO GOVT OF AP Hyderabad salary    STATE BANK OF INDIA SECRETARIAT    276510106126                    Collector and Chairman             SPORTS AUTH - APVC & MD            CNRB0002765276510106126                       URGENT  Collector and Chairman   276510106126    
R41000000002775000000000000000000000099999999999999999PAO GOVT OF AP Hyderabad salary    STATE BANK OF INDIA SECRETARIAT    159701000006001                 Collector and Chairman             SPORTS AUTH - APVC & MD            IOBA0001597159701000006001                    URGENT  Collector and Chairman   159701000006001 
