R4162149183164     000000000003000000000000000000000000000033881454741PAO GOVT OF AP Hyderabad salary    STATE BANK OF INDIA SECRETARIAT    62149183164                     UKalyani                           SPORTS AUTH - APVC & MD            SBHY002006662149183164                        URGENT  UKalyani                 62149183164     
R4133942200034849  000000000050000000000000000000000000000033881454741PAO GOVT OF AP Hyderabad salary    STATE BANK OF INDIA SECRETARIAT    33942200034849                  VNagaraju                          SPORTS AUTH - APVC & MD            SYNB000339433942200034849                     URGENT  VNagaraju                33942200034849  
R4112201000036020  000000000219270000000000000000000000000033881454741PAO GOVT OF AP Hyderabad salary    STATE BANK OF INDIA SECRETARIAT    12201000036020                  KMalleswari                        SPORTS AUTH - APVC & MD            HDFC000122012201000036020                     URGENT  KMalleswari              12201000036020  
