R41000000000032460000000000000000000000000034999029838MUNICIPAL COMMISSIONER, SRIKAKULAM STATE BANK OF INDIA                6144963215                      Rella Ramana Rao                   MUNICIPAL COMMISSIONER SRIKAKULAM  idib000s0706144963215                         URGENT  Rella Ramana Rao         6144963215      
R41000000000032460000000000000000000000000034999029838MUNICIPAL COMMISSIONER, SRIKAKULAM STATE BANK OF INDIA                142710100040281                 Joga Kalidasu                      MUNICIPAL COMMISSIONER SRIKAKULAM  andb0001427142710100040281                    URGENT  Joga Kalidasu            142710100040281 
R41000000000032460000000000000000000000000034999029838MUNICIPAL COMMISSIONER, SRIKAKULAM STATE BANK OF INDIA                386802010014476                 Duddhi Appalakonda                 MUNICIPAL COMMISSIONER SRIKAKULAM  ubin0538680386802010014476                    URGENT  Duddhi Appalakonda       386802010014476 
R41000000000032460000000000000000000000000034999029838MUNICIPAL COMMISSIONER, SRIKAKULAM STATE BANK OF INDIA                33049232895                     Nakka Narasinga Rao                MUNICIPAL COMMISSIONER SRIKAKULAM  sbin001510333049232895                        URGENT  Nakka Narasinga Rao      33049232895     
R41000000000032460000000000000000000000000034999029838MUNICIPAL COMMISSIONER, SRIKAKULAM STATE BANK OF INDIA                33624303253                     Umasankar Dola                     MUNICIPAL COMMISSIONER SRIKAKULAM  sbin001110533624303253                        URGENT  Umasankar Dola           33624303253     
