R41000000000468760000000000000000000000000033881454741PD  GOVT OF AP Hyderabad salary    STATE BANK OF INDIA SECRETARIAT    BANKERS CHEQUE                  M Venkata Rao                      COMM MUNICIPALITY VIZIANAGARAM                BANKERS CHEQUE                     URGENT  M Venkata Rao                                             BANKERS CHEQUE  EMLdpao-sect@ap.nic.in             
R41000000000468760000000000000000000000000033881454741PD  GOVT OF AP Hyderabad salary    STATE BANK OF INDIA SECRETARIAT    BANKERS CHEQUE                  K Sai Kumar                        COMM MUNICIPALITY VIZIANAGARAM                BANKERS CHEQUE                     URGENT  K Sai Kumar                                               BANKERS CHEQUE  EMLdpao-sect@ap.nic.in             
R41000000001698840000000000000000000000000033881454741PD  GOVT OF AP Hyderabad salary    STATE BANK OF INDIA SECRETARIAT    BANKERS CHEQUE                  L J R V Koteswara Rao              COMM MUNICIPALITY VIZIANAGARAM                BANKERS CHEQUE                     URGENT  L J R V Koteswara Rao                                     BANKERS CHEQUE  EMLdpao-sect@ap.nic.in             
