R41000000020000000000000000000000000000000033881454741PAO GOVT OF AP Hyderabad salary    STATE BANK OF INDIA SECRETARIAT    002603261200002                 Winstreet Impex Pvt Ltd            INDUSTRIES COMMISSIONER AND DIRECT IOBA0000026002603261200002                    URGENT  Winstreet Impex Pvt Ltd  002603261200002 
R41000000002940000000000000000000000000000033881454741PAO GOVT OF AP Hyderabad salary    STATE BANK OF INDIA SECRETARIAT    62311197822                     Visakha Melting Company            INDUSTRIES COMMISSIONER AND DIRECT SBHY002103062311197822                        URGENT  Visakha Melting Company  62311197822     
R41000000008148080000000000000000000000000033881454741PAO GOVT OF AP Hyderabad salary    STATE BANK OF INDIA SECRETARIAT    62311197822                     Visakha Melting Company            INDUSTRIES COMMISSIONER AND DIRECT SBHY002103062311197822                        URGENT  Visakha Melting Company  62311197822     
R41000000013566600000000000000000000000000033881454741PAO GOVT OF AP Hyderabad salary    STATE BANK OF INDIA SECRETARIAT    3297000600115301                Sree Balaji Briquettes and Bio MassINDUSTRIES COMMISSIONER AND DIRECT KARB00003293297000600115301                   URGENT  Sree Balaji Briquettes an3297000600115301
R41000000003107500000000000000000000000000033881454741PAO GOVT OF AP Hyderabad salary    STATE BANK OF INDIA SECRETARIAT    3297000600115301                Sree Balaji Briquettes and Bio MassINDUSTRIES COMMISSIONER AND DIRECT KARB00003293297000600115301                   URGENT  Sree Balaji Briquettes an3297000600115301
R41000000000996000000000000000000000000000033881454741PAO GOVT OF AP Hyderabad salary    STATE BANK OF INDIA SECRETARIAT    3297000600115301                Sree Balaji Briquettes and Bio MassINDUSTRIES COMMISSIONER AND DIRECT KARB00003293297000600115301                   URGENT  Sree Balaji Briquettes an3297000600115301
R41000000000144900000000000000000000000000033881454741PAO GOVT OF AP Hyderabad salary    STATE BANK OF INDIA SECRETARIAT    1458729000001431                Sai Teja Granites                  INDUSTRIES COMMISSIONER AND DIRECT KVBL00014581458729000001431                   URGENT  Sai Teja Granites        1458729000001431
R41000000000029500000000000000000000000000033881454741PAO GOVT OF AP Hyderabad salary    STATE BANK OF INDIA SECRETARIAT    1458729000001431                Sai Teja Granites                  INDUSTRIES COMMISSIONER AND DIRECT KVBL00014581458729000001431                   URGENT  Sai Teja Granites        1458729000001431
R41000000002612970000000000000000000000000033881454741PAO GOVT OF AP Hyderabad salary    STATE BANK OF INDIA SECRETARIAT    4930001B00000069                Kisan Coir Industries              INDUSTRIES COMMISSIONER AND DIRECT PUNB04930004930001B00000069                   URGENT  Kisan Coir Industries    4930001B00000069
