R410806201002286   000000020075600000000000000000000000000033930064359MED SERV & INF DEVP CORPN, AP- Managing DirectorSTATE BANK OF INDIA                0806201002286                   The Secretary Coir Board           MED SERV & INF DEVP CORPN AP- MANA CNRB00008060806201002286                      URGENT  The Secretary Coir Board 0806201002286   
R41425010200005647 000000476346480000000000000000000000000033930064359MED SERV & INF DEVP CORPN, AP- Managing DirectorSTATE BANK OF INDIA                425010200005647                 M/s Esaote India (NS) Ltd          MED SERV & INF DEVP CORPN AP- MANA UTIB0000425425010200005647                    URGENT  M/s Esaote India (NS) Ltd425010200005647 
R41409205040050114 000000022453200000000000000000000000000033930064359MED SERV & INF DEVP CORPN, AP- Managing DirectorSTATE BANK OF INDIA                409205040050114                 M/s Trans Health care India Pvt    MED SERV & INF DEVP CORPN AP- MANA UBIN0540927409205040050114                    URGENT  M/s Trans Health care Ind409205040050114 
R41142410011000314 000000069406830000000000000000000000000033930064359MED SERV & INF DEVP CORPN, AP- Managing DirectorSTATE BANK OF INDIA                142410011000314                 MD APMSIDC Hyderabad               MED SERV & INF DEVP CORPN AP- MANA ANDB0001424142410011000314                    URGENT  MD APMSIDC Hyderabad     142410011000314 
