R41051411011000456 000000001720500000000000000000000099999999999999999PAO GOVT OF AP Hyderabad salary    STATE BANK OF INDIA SECRETARIAT    051411011000456                 APSSDC Ltd Srikalahasti            SEEDS DEV CORP AP STATE -VC & MD   ANDB0000514051411011000456                    URGENT  APSSDC Ltd Srikalahasti  051411011000456 
R41060911011002450 000000007550000000000000000000000099999999999999999PAO GOVT OF AP Hyderabad salary    STATE BANK OF INDIA SECRETARIAT    060911011002450                 APSSDC  Vizianagaram               SEEDS DEV CORP AP STATE -VC & MD   ANDB0000609060911011002450                    URGENT  APSSDC  Vizianagaram     060911011002450 
R41119211100000061 000000010810000000000000000000000099999999999999999PAO GOVT OF AP Hyderabad salary    STATE BANK OF INDIA SECRETARIAT    119211100000061                 APSSDC Ltd Vijayawada              SEEDS DEV CORP AP STATE -VC & MD   ANDB0000134119211100000061                    URGENT  APSSDC Ltd Vijayawada    119211100000061 
R41055411011001408 000000022563210000000000000000000099999999999999999PAO GOVT OF AP Hyderabad salary    STATE BANK OF INDIA SECRETARIAT    055411011001408                 APSSDC Ltd Tanuku                  SEEDS DEV CORP AP STATE -VC & MD   ANDB0000554055411011001408                    URGENT  APSSDC Ltd Tanuku        055411011001408 
R41561510110002785 000000009640000000000000000000000099999999999999999PAO GOVT OF AP Hyderabad salary    STATE BANK OF INDIA SECRETARIAT    561510110002785                 P Subba Rao                        SEEDS DEV CORP AP STATE -VC & MD   BKID0005615561510110002785                    URGENT  P Subba Rao              561510110002785 
R41561510110001913 000000004260000000000000000000000099999999999999999PAO GOVT OF AP Hyderabad salary    STATE BANK OF INDIA SECRETARIAT    561510110001913                 P Mohan Rao                        SEEDS DEV CORP AP STATE -VC & MD   BKID0005615561510110001913                    URGENT  P Mohan Rao              561510110001913 
R41024211011000483 000000003580000000000000000000000099999999999999999PAO GOVT OF AP Hyderabad salary    STATE BANK OF INDIA SECRETARIAT    024211011000483                 M Tirupathi Reddy                  SEEDS DEV CORP AP STATE -VC & MD   ANDB0000242024211011000483                    URGENT  M Tirupathi Reddy        024211011000483 
R41096510100076268 000000003220000000000000000000000099999999999999999PAO GOVT OF AP Hyderabad salary    STATE BANK OF INDIA SECRETARIAT    096510100076268                 B Sita Mahalakshmi                 SEEDS DEV CORP AP STATE -VC & MD   ANDB0000965096510100076268                    URGENT  B Sita Mahalakshmi       096510100076268 
R41073910021001182 000000008210000000000000000000000099999999999999999PAO GOVT OF AP Hyderabad salary    STATE BANK OF INDIA SECRETARIAT    073910021001182                 V Suresh Babu                      SEEDS DEV CORP AP STATE -VC & MD   ANDB0000739073910021001182                    URGENT  V Suresh Babu            073910021001182 
R41073910011004910 000000008740000000000000000000000099999999999999999PAO GOVT OF AP Hyderabad salary    STATE BANK OF INDIA SECRETARIAT    073910011004910                 V Damayanthi                       SEEDS DEV CORP AP STATE -VC & MD   ANDB0000739073910011004910                    URGENT  V Damayanthi             073910011004910 
R41073910021001027 000000001780000000000000000000000099999999999999999PAO GOVT OF AP Hyderabad salary    STATE BANK OF INDIA SECRETARIAT    073910021001027                 V Rajakumari                       SEEDS DEV CORP AP STATE -VC & MD   ANDB0000739073910021001027                    URGENT  V Rajakumari             073910021001027 
R41069610011003758 000000002216020000000000000000000099999999999999999PAO GOVT OF AP Hyderabad salary    STATE BANK OF INDIA SECRETARIAT    069610011003758                 V Vasantha Kumari                  SEEDS DEV CORP AP STATE -VC & MD   ANDB0000696069610011003758                    URGENT  V Vasantha Kumari        069610011003758 
R41069610100020913 000000001206340000000000000000000099999999999999999PAO GOVT OF AP Hyderabad salary    STATE BANK OF INDIA SECRETARIAT    069610100020913                 V Rajani                           SEEDS DEV CORP AP STATE -VC & MD   ANDB0000696069610100020913                    URGENT  V Rajani                 069610100020913 
R41096510100076268 000000000491910000000000000000000099999999999999999PAO GOVT OF AP Hyderabad salary    STATE BANK OF INDIA SECRETARIAT    096510100076268                 B Sita Mahalakshmi                 SEEDS DEV CORP AP STATE -VC & MD   ANDB0000965096510100076268                    URGENT  B Sita Mahalakshmi       096510100076268 
R41702510031020916 000000000514350000000000000000000099999999999999999PAO GOVT OF AP Hyderabad salary    STATE BANK OF INDIA SECRETARIAT    702510031020916                 M Rama Tulasamma                   SEEDS DEV CORP AP STATE -VC & MD   ANDB0007999702510031020916                    URGENT  M Rama Tulasamma         702510031020916 
R41055110021052667 000000001088460000000000000000000099999999999999999PAO GOVT OF AP Hyderabad salary    STATE BANK OF INDIA SECRETARIAT    055110021052667                 V Venkata Reddy                    SEEDS DEV CORP AP STATE -VC & MD   ANDB0000551055110021052667                    URGENT  V Venkata Reddy          055110021052667 
R41055110011007434 000000000240660000000000000000000099999999999999999PAO GOVT OF AP Hyderabad salary    STATE BANK OF INDIA SECRETARIAT    055110011007434                 V Sesha Ratnam                     SEEDS DEV CORP AP STATE -VC & MD   ANDB0000551055110011007434                    URGENT  V Sesha Ratnam           055110011007434 
R41702510031020916 000000000692220000000000000000000099999999999999999PAO GOVT OF AP Hyderabad salary    STATE BANK OF INDIA SECRETARIAT    702510031020916                 M Rama Tulasamma                   SEEDS DEV CORP AP STATE -VC & MD   ANDB0007999702510031020916                    URGENT  M Rama Tulasamma         702510031020916 
R4162354140841     000000001741300000000000000000000099999999999999999PAO GOVT OF AP Hyderabad salary    STATE BANK OF INDIA SECRETARIAT    62354140841                     G Appi Reddy                       SEEDS DEV CORP AP STATE -VC & MD   SBHY002186162354140841                        URGENT  G Appi Reddy             62354140841     
R41015000101025659 000000001521000000000000000000000099999999999999999PAO GOVT OF AP Hyderabad salary    STATE BANK OF INDIA SECRETARIAT    015000101025659                 M Hymavathi                        SEEDS DEV CORP AP STATE -VC & MD   CORP0000150015000101025659                    URGENT  M Hymavathi              015000101025659 
R41024210027001117 000000001386370000000000000000000099999999999999999PAO GOVT OF AP Hyderabad salary    STATE BANK OF INDIA SECRETARIAT    024210027001117                 K Srinivasa Rao                    SEEDS DEV CORP AP STATE -VC & MD   ANDB0000242024210027001117                    URGENT  K Srinivasa Rao          024210027001117 
R41024210023000911 000000001596880000000000000000000099999999999999999PAO GOVT OF AP Hyderabad salary    STATE BANK OF INDIA SECRETARIAT    024210023000911                 K China Raja Rao                   SEEDS DEV CORP AP STATE -VC & MD   ANDB0000242024210023000911                    URGENT  K China Raja Rao         024210023000911 
R41015000101025662 000000001338180000000000000000000099999999999999999PAO GOVT OF AP Hyderabad salary    STATE BANK OF INDIA SECRETARIAT    015000101025662                 B Krishnarjuna Rao                 SEEDS DEV CORP AP STATE -VC & MD   CORP0000150015000101025662                    URGENT  B Krishnarjuna Rao       015000101025662 
R41015000101025687 000000002126940000000000000000000099999999999999999PAO GOVT OF AP Hyderabad salary    STATE BANK OF INDIA SECRETARIAT    015000101025687                 B Srinivasa Rao                    SEEDS DEV CORP AP STATE -VC & MD   CORP0000150015000101025687                    URGENT  B Srinivasa Rao          015000101025687 
R41015000101026019 000000000888870000000000000000000099999999999999999PAO GOVT OF AP Hyderabad salary    STATE BANK OF INDIA SECRETARIAT    015000101026019                 KSankar                            SEEDS DEV CORP AP STATE -VC & MD   CORP0000150015000101026019                    URGENT  KSankar                  015000101026019 
